{
  "address": "0x485dAe2Fe684b31fC517274827b659EFa58829c4",
  "abi": [
    {
      "anonymous": false,
      "inputs": [
        {
          "indexed": false,
          "internalType": "address",
          "name": "router",
          "type": "address"
        }
      ],
      "name": "ChangeRouter",
      "type": "event"
    },
    {
      "anonymous": false,
      "inputs": [
        {
          "indexed": false,
          "internalType": "address",
          "name": "token",
          "type": "address"
        }
      ],
      "name": "ChangeSFMAddress",
      "type": "event"
    },
    {
      "anonymous": false,
      "inputs": [
        {
          "indexed": false,
          "internalType": "uint256",
          "name": "amount",
          "type": "uint256"
        }
      ],
      "name": "ChangeThreshold",
      "type": "event"
    },
    {
      "anonymous": false,
      "inputs": [
        {
          "indexed": false,
          "internalType": "uint8",
          "name": "version",
          "type": "uint8"
        }
      ],
      "name": "Initialized",
      "type": "event"
    },
    {
      "anonymous": false,
      "inputs": [
        {
          "indexed": true,
          "internalType": "address",
          "name": "previousOwner",
          "type": "address"
        },
        {
          "indexed": true,
          "internalType": "address",
          "name": "newOwner",
          "type": "address"
        }
      ],
      "name": "OwnershipTransferred",
      "type": "event"
    },
    {
      "inputs": [],
      "name": "buyBackAndBurn",
      "outputs": [],
      "stateMutability": "payable",
      "type": "function"
    },
    {
      "inputs": [
        {
          "internalType": "address",
          "name": "_tradeRouter",
          "type": "address"
        }
      ],
      "name": "changeRouter",
      "outputs": [],
      "stateMutability": "nonpayable",
      "type": "function"
    },
    {
      "inputs": [
        {
          "internalType": "address",
          "name": "_token",
          "type": "address"
        }
      ],
      "name": "changeSFMToken",
      "outputs": [],
      "stateMutability": "nonpayable",
      "type": "function"
    },
    {
      "inputs": [
        {
          "internalType": "uint256",
          "name": "_threshold",
          "type": "uint256"
        }
      ],
      "name": "changeThreshold",
      "outputs": [],
      "stateMutability": "nonpayable",
      "type": "function"
    },
    {
      "inputs": [],
      "name": "factory",
      "outputs": [
        {
          "internalType": "address",
          "name": "",
          "type": "address"
        }
      ],
      "stateMutability": "view",
      "type": "function"
    },
    {
      "inputs": [
        {
          "internalType": "uint256",
          "name": "_threshold",
          "type": "uint256"
        },
        {
          "internalType": "address",
          "name": "_tradeRouter",
          "type": "address"
        },
        {
          "internalType": "address",
          "name": "_sfmToken",
          "type": "address"
        }
      ],
      "name": "initialize",
      "outputs": [],
      "stateMutability": "nonpayable",
      "type": "function"
    },
    {
      "inputs": [],
      "name": "owner",
      "outputs": [
        {
          "internalType": "address",
          "name": "",
          "type": "address"
        }
      ],
      "stateMutability": "view",
      "type": "function"
    },
    {
      "inputs": [],
      "name": "renounceOwnership",
      "outputs": [],
      "stateMutability": "nonpayable",
      "type": "function"
    },
    {
      "inputs": [],
      "name": "sfmTokenAddress",
      "outputs": [
        {
          "internalType": "address",
          "name": "",
          "type": "address"
        }
      ],
      "stateMutability": "view",
      "type": "function"
    },
    {
      "inputs": [],
      "name": "threshold",
      "outputs": [
        {
          "internalType": "uint256",
          "name": "",
          "type": "uint256"
        }
      ],
      "stateMutability": "view",
      "type": "function"
    },
    {
      "inputs": [],
      "name": "tradeRouter",
      "outputs": [
        {
          "internalType": "address",
          "name": "",
          "type": "address"
        }
      ],
      "stateMutability": "view",
      "type": "function"
    },
    {
      "inputs": [
        {
          "internalType": "address",
          "name": "newOwner",
          "type": "address"
        }
      ],
      "name": "transferOwnership",
      "outputs": [],
      "stateMutability": "nonpayable",
      "type": "function"
    },
    {
      "stateMutability": "payable",
      "type": "receive"
    }
  ],
  "transactionHash": "0x0756d53f7d905563456d676a18f51486499d5e353a34d8729a4e5c52106aa370",
  "args": [],
  "numDeployments": 1,
  "solcInputHash": "8dc935cff25eb7266ddf9433da60bd82",
  "bytecode": "0x608060405234801561001057600080fd5b50610dc9806100206000396000f3fe6080604052600436106100cb5760003560e01c80638da5cb5b11610074578063c45a01551161004e578063c45a015514610213578063c970e99f14610231578063f2fde38b1461023957600080fd5b80638da5cb5b146101b5578063b4988fd0146101d3578063bb3f0cb9146101f357600080fd5b806342cde4e8116100a557806342cde4e81461015c578063694e80c314610180578063715018a6146101a057600080fd5b80630ac7da67146100df57806331d7ba59146100ff578063340ac20f1461013c57600080fd5b366100da576100d8610259565b005b600080fd5b3480156100eb57600080fd5b506100d86100fa366004610bc5565b6102af565b34801561010b57600080fd5b5060655461011f906001600160a01b031681565b6040516001600160a01b0390911681526020015b60405180910390f35b34801561014857600080fd5b506100d8610157366004610bc5565b610363565b34801561016857600080fd5b5061017260675481565b604051908152602001610133565b34801561018c57600080fd5b506100d861019b366004610be9565b61040b565b3480156101ac57600080fd5b506100d861049a565b3480156101c157600080fd5b506033546001600160a01b031661011f565b3480156101df57600080fd5b506100d86101ee366004610c02565b610500565b3480156101ff57600080fd5b5060665461011f906001600160a01b031681565b34801561021f57600080fd5b506065546001600160a01b031661011f565b6100d8610259565b34801561024557600080fd5b506100d8610254366004610bc5565b6105ad565b6067544790811080159061026f57506000606754115b156102ac576000606754826102849190610c44565b90506000816067546102969190610c66565b90506102a18161068c565b6102a961087d565b50505b50565b6033546001600160a01b0316331461030e5760405162461bcd60e51b815260206004820181905260248201527f4f776e61626c653a2063616c6c6572206973206e6f7420746865206f776e657260448201526064015b60405180910390fd5b606680546001600160a01b0319166001600160a01b0383169081179091556040519081527fb101d4788583b1f14f2a4d03422ad132016b174de23db6d9e71bf5640c379513906020015b60405180910390a150565b6033546001600160a01b031633146103bd5760405162461bcd60e51b815260206004820181905260248201527f4f776e61626c653a2063616c6c6572206973206e6f7420746865206f776e65726044820152606401610305565b606580546001600160a01b0319166001600160a01b0383169081179091556040519081527f9dd0d31c5942a38bf92491447ea9a3ca6ac9f7477f4fdb7492346525a78284bd90602001610358565b6033546001600160a01b031633146104655760405162461bcd60e51b815260206004820181905260248201527f4f776e61626c653a2063616c6c6572206973206e6f7420746865206f776e65726044820152606401610305565b60678190556040518181527f9947ac58e204d2da07b9748298663b3b77da7fb0638201d778987ded7c90fbaa90602001610358565b6033546001600160a01b031633146104f45760405162461bcd60e51b815260206004820181905260248201527f4f776e61626c653a2063616c6c6572206973206e6f7420746865206f776e65726044820152606401610305565b6104fe6000610966565b565b600061050c60016109b8565b90508015610524576000805461ff0019166101001790555b6067849055606580546001600160a01b038086166001600160a01b0319928316179092556066805492851692909116919091179055610561610ace565b80156105a7576000805461ff0019169055604051600181527f7f26b83ff96e1f2b6a682f133852f6798a09c465da95921460cefb38474024989060200160405180910390a15b50505050565b6033546001600160a01b031633146106075760405162461bcd60e51b815260206004820181905260248201527f4f776e61626c653a2063616c6c6572206973206e6f7420746865206f776e65726044820152606401610305565b6001600160a01b0381166106835760405162461bcd60e51b815260206004820152602660248201527f4f776e61626c653a206e6577206f776e657220697320746865207a65726f206160448201527f64647265737300000000000000000000000000000000000000000000000000006064820152608401610305565b6102ac81610966565b6065546040805163c31c9c0760e01b815290516000926001600160a01b03169163c31c9c079160048083019260209291908290030181865afa1580156106d6573d6000803e3d6000fd5b505050506040513d601f19601f820116820180604052508101906106fa9190610c93565b6040805160028082526060820183529293506000929091602083019080368337505060665482519293506001600160a01b031691839150600190811061074257610742610cb0565b60200260200101906001600160a01b031690816001600160a01b031681525050816001600160a01b031663ad5c46486040518163ffffffff1660e01b8152600401602060405180830381865afa1580156107a0573d6000803e3d6000fd5b505050506040513d601f19601f820116820180604052508101906107c49190610c93565b816000815181106107d7576107d7610cb0565b6001600160a01b039283166020918202929092018101919091526040805160a0810182528681526000928101839052808201859052306060820152426080820152606554915163a351408760e01b81529093919091169163a351408791879161084591869190600401610cc6565b6000604051808303818588803b15801561085e57600080fd5b505af1158015610872573d6000803e3d6000fd5b505050505050505050565b6066546040516370a0823160e01b81523060048201526000916001600160a01b0316906370a0823190602401602060405180830381865afa1580156108c6573d6000803e3d6000fd5b505050506040513d601f19601f820116820180604052508101906108ea9190610d58565b60665460405163a9059cbb60e01b815261dead6004820152602481018390529192506001600160a01b03169063a9059cbb906044016020604051808303816000875af115801561093e573d6000803e3d6000fd5b505050506040513d601f19601f820116820180604052508101906109629190610d71565b5050565b603380546001600160a01b038381166001600160a01b0319831681179093556040519116919082907f8be0079c531659141344cd1fd0a4f28419497f9722a3daafe3b4186f6b6457e090600090a35050565b60008054610100900460ff1615610a46578160ff1660011480156109db5750303b155b610a3e5760405162461bcd60e51b815260206004820152602e60248201527f496e697469616c697a61626c653a20636f6e747261637420697320616c72656160448201526d191e481a5b9a5d1a585b1a5e995960921b6064820152608401610305565b506000919050565b60005460ff808416911610610ab45760405162461bcd60e51b815260206004820152602e60248201527f496e697469616c697a61626c653a20636f6e747261637420697320616c72656160448201526d191e481a5b9a5d1a585b1a5e995960921b6064820152608401610305565b506000805460ff191660ff92909216919091179055600190565b600054610100900460ff16610b395760405162461bcd60e51b815260206004820152602b60248201527f496e697469616c697a61626c653a20636f6e7472616374206973206e6f74206960448201526a6e697469616c697a696e6760a81b6064820152608401610305565b6104fe600054610100900460ff16610ba75760405162461bcd60e51b815260206004820152602b60248201527f496e697469616c697a61626c653a20636f6e7472616374206973206e6f74206960448201526a6e697469616c697a696e6760a81b6064820152608401610305565b6104fe33610966565b6001600160a01b03811681146102ac57600080fd5b600060208284031215610bd757600080fd5b8135610be281610bb0565b9392505050565b600060208284031215610bfb57600080fd5b5035919050565b600080600060608486031215610c1757600080fd5b833592506020840135610c2981610bb0565b91506040840135610c3981610bb0565b809150509250925092565b600082610c6157634e487b7160e01b600052601260045260246000fd5b500490565b6000816000190483118215151615610c8e57634e487b7160e01b600052601160045260246000fd5b500290565b600060208284031215610ca557600080fd5b8151610be281610bb0565b634e487b7160e01b600052603260045260246000fd5b604080825283518282015260208085015160608401529084015160a06080840152805160e08401819052600092918201919083906101008601905b80831015610d2a5784516001600160a01b03168252938301936001929092019190830190610d01565b5060608801516001600160a01b031660a087015260809097015160c086015250909201929092525090919050565b600060208284031215610d6a57600080fd5b5051919050565b600060208284031215610d8357600080fd5b81518015158114610be257600080fdfea264697066735822122089999fddc12ed174950c932d23c01cfa36f4b7467c4816a57125eec63c146a1864736f6c634300080d0033",
  "devdoc": {
    "kind": "dev",
    "methods": {
      "owner()": {
        "details": "Returns the address of the current owner."
      },
      "renounceOwnership()": {
        "details": "Leaves the contract without owner. It will not be possible to call `onlyOwner` functions anymore. Can only be called by the current owner. NOTE: Renouncing ownership will leave the contract without an owner, thereby removing any functionality that is only available to the owner."
      },
      "transferOwnership(address)": {
        "details": "Transfers ownership of the contract to a new account (`newOwner`). Can only be called by the current owner."
      }
    },
    "version": 1
  },
  "userdoc": {
    "kind": "user",
    "methods": {},
    "version": 1
  },
  "storageLayout": {
    "storage": [
      {
        "astId": 130,
        "contract": "contracts/BuyBackBurn.sol:BuyBackBurn",
        "label": "_initialized",
        "offset": 0,
        "slot": "0",
        "type": "t_uint8"
      },
      {
        "astId": 133,
        "contract": "contracts/BuyBackBurn.sol:BuyBackBurn",
        "label": "_initializing",
        "offset": 1,
        "slot": "0",
        "type": "t_bool"
      },
      {
        "astId": 549,
        "contract": "contracts/BuyBackBurn.sol:BuyBackBurn",
        "label": "__gap",
        "offset": 0,
        "slot": "1",
        "type": "t_array(t_uint256)50_storage"
      },
      {
        "astId": 10,
        "contract": "contracts/BuyBackBurn.sol:BuyBackBurn",
        "label": "_owner",
        "offset": 0,
        "slot": "51",
        "type": "t_address"
      },
      {
        "astId": 122,
        "contract": "contracts/BuyBackBurn.sol:BuyBackBurn",
        "label": "__gap",
        "offset": 0,
        "slot": "52",
        "type": "t_array(t_uint256)49_storage"
      },
      {
        "astId": 563,
        "contract": "contracts/BuyBackBurn.sol:BuyBackBurn",
        "label": "tradeRouter",
        "offset": 0,
        "slot": "101",
        "type": "t_address"
      },
      {
        "astId": 565,
        "contract": "contracts/BuyBackBurn.sol:BuyBackBurn",
        "label": "sfmTokenAddress",
        "offset": 0,
        "slot": "102",
        "type": "t_address"
      },
      {
        "astId": 567,
        "contract": "contracts/BuyBackBurn.sol:BuyBackBurn",
        "label": "threshold",
        "offset": 0,
        "slot": "103",
        "type": "t_uint256"
      }
    ],
    "types": {
      "t_address": {
        "encoding": "inplace",
        "label": "address",
        "numberOfBytes": "20"
      },
      "t_array(t_uint256)49_storage": {
        "base": "t_uint256",
        "encoding": "inplace",
        "label": "uint256[49]",
        "numberOfBytes": "1568"
      },
      "t_array(t_uint256)50_storage": {
        "base": "t_uint256",
        "encoding": "inplace",
        "label": "uint256[50]",
        "numberOfBytes": "1600"
      },
      "t_bool": {
        "encoding": "inplace",
        "label": "bool",
        "numberOfBytes": "1"
      },
      "t_uint256": {
        "encoding": "inplace",
        "label": "uint256",
        "numberOfBytes": "32"
      },
      "t_uint8": {
        "encoding": "inplace",
        "label": "uint8",
        "numberOfBytes": "1"
      }
    }
  }
}