{
  "_format": "hh-sol-artifact-1",
  "contractName": "MasterChef",
  "sourceName": "contracts/MasterChef.sol",
  "abi": [
    {
      "anonymous": false,
      "inputs": [
        {
          "indexed": true,
          "internalType": "address",
          "name": "user",
          "type": "address"
        },
        {
          "indexed": true,
          "internalType": "uint256",
          "name": "pid",
          "type": "uint256"
        },
        {
          "indexed": false,
          "internalType": "uint256",
          "name": "amount",
          "type": "uint256"
        }
      ],
      "name": "Deposit",
      "type": "event"
    },
    {
      "anonymous": false,
      "inputs": [
        {
          "indexed": true,
          "internalType": "address",
          "name": "previousOwner",
          "type": "address"
        },
        {
          "indexed": true,
          "internalType": "address",
          "name": "newOwner",
          "type": "address"
        }
      ],
      "name": "OwnershipTransferred",
      "type": "event"
    },
    {
      "anonymous": false,
      "inputs": [
        {
          "indexed": true,
          "internalType": "address",
          "name": "user",
          "type": "address"
        },
        {
          "indexed": true,
          "internalType": "uint256",
          "name": "pid",
          "type": "uint256"
        },
        {
          "indexed": false,
          "internalType": "uint256",
          "name": "amount",
          "type": "uint256"
        }
      ],
      "name": "Withdraw",
      "type": "event"
    },
    {
      "inputs": [],
      "name": "BONUS_MULTIPLIER",
      "outputs": [
        {
          "internalType": "uint256",
          "name": "",
          "type": "uint256"
        }
      ],
      "stateMutability": "view",
      "type": "function"
    },
    {
      "inputs": [
        {
          "internalType": "uint256",
          "name": "_allocPoint",
          "type": "uint256"
        },
        {
          "internalType": "contract IERC20",
          "name": "_lpToken",
          "type": "address"
        },
        {
          "internalType": "bool",
          "name": "_withUpdate",
          "type": "bool"
        }
      ],
      "name": "add",
      "outputs": [],
      "stateMutability": "nonpayable",
      "type": "function"
    },
    {
      "inputs": [
        {
          "internalType": "uint256",
          "name": "_pid",
          "type": "uint256"
        },
        {
          "internalType": "uint256",
          "name": "_amount",
          "type": "uint256"
        }
      ],
      "name": "deposit",
      "outputs": [],
      "stateMutability": "nonpayable",
      "type": "function"
    },
    {
      "inputs": [
        {
          "internalType": "uint256",
          "name": "_from",
          "type": "uint256"
        },
        {
          "internalType": "uint256",
          "name": "_to",
          "type": "uint256"
        }
      ],
      "name": "getMultiplier",
      "outputs": [
        {
          "internalType": "uint256",
          "name": "",
          "type": "uint256"
        }
      ],
      "stateMutability": "pure",
      "type": "function"
    },
    {
      "inputs": [
        {
          "internalType": "address",
          "name": "_sfmr",
          "type": "address"
        },
        {
          "internalType": "uint256",
          "name": "_sfmrPerBlock",
          "type": "uint256"
        },
        {
          "internalType": "uint256",
          "name": "_startBlock",
          "type": "uint256"
        }
      ],
      "name": "initialize",
      "outputs": [],
      "stateMutability": "nonpayable",
      "type": "function"
    },
    {
      "inputs": [
        {
          "internalType": "contract IERC20",
          "name": "",
          "type": "address"
        }
      ],
      "name": "lpTokensStatus",
      "outputs": [
        {
          "internalType": "bool",
          "name": "",
          "type": "bool"
        }
      ],
      "stateMutability": "view",
      "type": "function"
    },
    {
      "inputs": [],
      "name": "massUpdatePools",
      "outputs": [],
      "stateMutability": "nonpayable",
      "type": "function"
    },
    {
      "inputs": [],
      "name": "owner",
      "outputs": [
        {
          "internalType": "address",
          "name": "",
          "type": "address"
        }
      ],
      "stateMutability": "view",
      "type": "function"
    },
    {
      "inputs": [
        {
          "internalType": "uint256",
          "name": "_pid",
          "type": "uint256"
        },
        {
          "internalType": "address",
          "name": "_user",
          "type": "address"
        }
      ],
      "name": "pendingSfmr",
      "outputs": [
        {
          "internalType": "uint256",
          "name": "",
          "type": "uint256"
        }
      ],
      "stateMutability": "view",
      "type": "function"
    },
    {
      "inputs": [
        {
          "internalType": "uint256",
          "name": "",
          "type": "uint256"
        }
      ],
      "name": "poolInfo",
      "outputs": [
        {
          "internalType": "contract IERC20",
          "name": "lpToken",
          "type": "address"
        },
        {
          "internalType": "uint256",
          "name": "allocPoint",
          "type": "uint256"
        },
        {
          "internalType": "uint256",
          "name": "lastRewardBlock",
          "type": "uint256"
        },
        {
          "internalType": "uint256",
          "name": "accSfmrPerShare",
          "type": "uint256"
        }
      ],
      "stateMutability": "view",
      "type": "function"
    },
    {
      "inputs": [],
      "name": "poolLength",
      "outputs": [
        {
          "internalType": "uint256",
          "name": "",
          "type": "uint256"
        }
      ],
      "stateMutability": "view",
      "type": "function"
    },
    {
      "inputs": [],
      "name": "renounceOwnership",
      "outputs": [],
      "stateMutability": "nonpayable",
      "type": "function"
    },
    {
      "inputs": [
        {
          "internalType": "uint256",
          "name": "_pid",
          "type": "uint256"
        },
        {
          "internalType": "uint256",
          "name": "_allocPoint",
          "type": "uint256"
        },
        {
          "internalType": "bool",
          "name": "_withUpdate",
          "type": "bool"
        }
      ],
      "name": "set",
      "outputs": [],
      "stateMutability": "nonpayable",
      "type": "function"
    },
    {
      "inputs": [],
      "name": "sfmr",
      "outputs": [
        {
          "internalType": "address",
          "name": "",
          "type": "address"
        }
      ],
      "stateMutability": "view",
      "type": "function"
    },
    {
      "inputs": [],
      "name": "sfmrPerBlock",
      "outputs": [
        {
          "internalType": "uint256",
          "name": "",
          "type": "uint256"
        }
      ],
      "stateMutability": "view",
      "type": "function"
    },
    {
      "inputs": [],
      "name": "startBlock",
      "outputs": [
        {
          "internalType": "uint256",
          "name": "",
          "type": "uint256"
        }
      ],
      "stateMutability": "view",
      "type": "function"
    },
    {
      "inputs": [],
      "name": "totalAllocPoint",
      "outputs": [
        {
          "internalType": "uint256",
          "name": "",
          "type": "uint256"
        }
      ],
      "stateMutability": "view",
      "type": "function"
    },
    {
      "inputs": [
        {
          "internalType": "address",
          "name": "newOwner",
          "type": "address"
        }
      ],
      "name": "transferOwnership",
      "outputs": [],
      "stateMutability": "nonpayable",
      "type": "function"
    },
    {
      "inputs": [
        {
          "internalType": "uint256",
          "name": "_pid",
          "type": "uint256"
        }
      ],
      "name": "updatePool",
      "outputs": [],
      "stateMutability": "nonpayable",
      "type": "function"
    },
    {
      "inputs": [
        {
          "internalType": "uint256",
          "name": "",
          "type": "uint256"
        },
        {
          "internalType": "address",
          "name": "",
          "type": "address"
        }
      ],
      "name": "userInfo",
      "outputs": [
        {
          "internalType": "uint256",
          "name": "amount",
          "type": "uint256"
        },
        {
          "internalType": "uint256",
          "name": "rewardDebt",
          "type": "uint256"
        }
      ],
      "stateMutability": "view",
      "type": "function"
    },
    {
      "inputs": [
        {
          "internalType": "address",
          "name": "_user",
          "type": "address"
        }
      ],
      "name": "userStakingAmount",
      "outputs": [
        {
          "internalType": "uint256",
          "name": "",
          "type": "uint256"
        }
      ],
      "stateMutability": "view",
      "type": "function"
    },
    {
      "inputs": [
        {
          "internalType": "uint256",
          "name": "_pid",
          "type": "uint256"
        },
        {
          "internalType": "uint256",
          "name": "_amount",
          "type": "uint256"
        }
      ],
      "name": "withdraw",
      "outputs": [],
      "stateMutability": "nonpayable",
      "type": "function"
    }
  ],
  "bytecode": "0x608060405234801561001057600080fd5b506116ec806100206000396000f3fe608060405234801561001057600080fd5b50600436106101425760003560e01c80637a1ac61e116100b8578063be7891f91161007c578063be7891f91461026d578063c432a7eb14610275578063c7cc6b3f1461027d578063e2bbb1581461029d578063f2fde38b146102b0578063fc7b6fd5146102c357610142565b80637a1ac61e146102095780638aa285501461021c5780638da5cb5b146102245780638dbb1e3a1461023957806393f1a40b1461024c57610142565b8063441a3e701161010a578063441a3e70146101b857806348cd4cb1146101cb57806351eb05a6146101d3578063630b5ba1146101e657806364482f79146101ee578063715018a61461020157610142565b8063081e3eda146101475780631526fe271461016557806317caf6f1146101885780631eaaa045146101905780631efe6f22146101a5575b600080fd5b61014f6102d6565b60405161015c91906115b1565b60405180910390f35b6101786101733660046111fa565b6102dc565b60405161015c9493929190611360565b61014f610320565b6101a361019e366004611259565b610326565b005b61014f6101b336600461118e565b6104ed565b6101a36101c636600461129a565b610527565b61014f6106ab565b6101a36101e13660046111fa565b6106b1565b6101a36107ff565b6101a36101fc3660046112bb565b61082a565b6101a361090a565b6101a36102173660046111aa565b610993565b61014f6109c1565b61022c6109c6565b60405161015c9190611304565b61014f61024736600461129a565b6109d5565b61025f61025a36600461122a565b6109ed565b60405161015c9291906115ba565b61014f610a11565b61022c610a17565b61029061028b36600461118e565b610a26565b60405161015c9190611355565b6101a36102ab36600461129a565b610a3b565b6101a36102be36600461118e565b610b6a565b61014f6102d136600461122a565b610c2b565b60685490565b606881815481106102ec57600080fd5b600091825260209091206004909102018054600182015460028301546003909301546001600160a01b039092169350919084565b606a5481565b61032e610da9565b6001600160a01b031661033f6109c6565b6001600160a01b03161461036e5760405162461bcd60e51b815260040161036590611498565b60405180910390fd5b6001600160a01b03821660009081526067602052604090205460ff161515600114156103ac5760405162461bcd60e51b81526004016103659061157a565b80156103ba576103ba6107ff565b6000606b5443116103cd57606b546103cf565b435b606a549091506103df9085610dad565b606a55604080516080810182526001600160a01b039485168082526020808301978852828401948552600060608401818152606880546001808201835591845295517fa2153420d844928b4421650203c77babc8b33d7f2e7b450e2966db0c22097753600490970296870180546001600160a01b03191691909b161790995598517fa2153420d844928b4421650203c77babc8b33d7f2e7b450e2966db0c2209775485015594517fa2153420d844928b4421650203c77babc8b33d7f2e7b450e2966db0c2209775584015596517fa2153420d844928b4421650203c77babc8b33d7f2e7b450e2966db0c22097756909201919091558252606790945292909220805460ff1916909117905550565b6001600160a01b031660009081527f5843af22e99e7c98370145a5056245c244ce8ee852f4ef5e6d6a8e410a18cf41602052604090205490565b336000908152606c602052604090205461054490621baf806115c8565b4210156105635760405162461bcd60e51b815260040161036590611445565b60006068838154811061058657634e487b7160e01b600052603260045260246000fd5b6000918252602080832086845260698252604080852033865290925292208054600490920290920192508311156105cf5760405162461bcd60e51b815260040161036590611504565b6105d8846106b1565b6000610612826001015461060c64e8d4a5100061060687600301548760000154610db990919063ffffffff16565b90610dc5565b90610dd1565b905061061e3382610ddd565b815461062a9085610dd1565b80835560038401546106479164e8d4a51000916106069190610db9565b60018301558254610662906001600160a01b03163386610f7d565b84336001600160a01b03167ff279e6a1f5e320cca91135676d9cb6e44ca8a08c0b88342bcdb1144f6511b5688660405161069c91906115b1565b60405180910390a35050505050565b606b5481565b6000606882815481106106d457634e487b7160e01b600052603260045260246000fd5b90600052602060002090600402019050806002015443116106f557506107fc565b80546040516370a0823160e01b81526000916001600160a01b0316906370a0823190610725903090600401611304565b60206040518083038186803b15801561073d57600080fd5b505afa158015610751573d6000803e3d6000fd5b505050506040513d601f19601f820116820180604052508101906107759190611212565b9050806107895750436002909101556107fc565b60006107998360020154436109d5565b905060006107c6606a5461060686600101546107c060665487610db990919063ffffffff16565b90610db9565b90506107e96107de846106068464e8d4a51000610db9565b600386015490610dad565b6003850155505043600290920191909155505b50565b60685460005b8181101561082657610816816106b1565b61081f81611662565b9050610805565b5050565b610832610da9565b6001600160a01b03166108436109c6565b6001600160a01b0316146108695760405162461bcd60e51b815260040161036590611498565b8015610877576108776107ff565b6108c8826108c26068868154811061089f57634e487b7160e01b600052603260045260246000fd5b906000526020600020906004020160010154606a54610dd190919063ffffffff16565b90610dad565b606a8190555081606884815481106108f057634e487b7160e01b600052603260045260246000fd5b906000526020600020906004020160010181905550505050565b610912610da9565b6001600160a01b03166109236109c6565b6001600160a01b0316146109495760405162461bcd60e51b815260040161036590611498565b6033546040516000916001600160a01b0316907f8be0079c531659141344cd1fd0a4f28419497f9722a3daafe3b4186f6b6457e0908390a3603380546001600160a01b0319169055565b606580546001600160a01b0319166001600160a01b039490941693909317909255606655606b556000606a55565b600181565b6033546001600160a01b031690565b60006109e660016107c08486610dd1565b9392505050565b60696020908152600092835260408084209091529082529020805460019091015482565b60665481565b6065546001600160a01b031681565b60676020526000908152604090205460ff1681565b336000908152606c602052604081204290556068805484908110610a6f57634e487b7160e01b600052603260045260246000fd5b60009182526020808320868452606982526040808520338652909252922060049091029091019150610aa0846106b1565b805415610ae3576000610ad5826001015461060c64e8d4a5100061060687600301548760000154610db990919063ffffffff16565b9050610ae13382610ddd565b505b8154610afa906001600160a01b0316333086610fd3565b8054610b069084610dad565b8082556003830154610b239164e8d4a51000916106069190610db9565b6001820155604051849033907f90890809c654f11d6e72a28fa60149770a0d11ec6c92319d6ceb2bb0a4ea1a1590610b5c9087906115b1565b60405180910390a350505050565b610b72610da9565b6001600160a01b0316610b836109c6565b6001600160a01b031614610ba95760405162461bcd60e51b815260040161036590611498565b6001600160a01b038116610bcf5760405162461bcd60e51b8152600401610365906113b9565b6033546040516001600160a01b038084169216907f8be0079c531659141344cd1fd0a4f28419497f9722a3daafe3b4186f6b6457e090600090a3603380546001600160a01b0319166001600160a01b0392909216919091179055565b60008060688481548110610c4f57634e487b7160e01b600052603260045260246000fd5b600091825260208083208784526069825260408085206001600160a01b038981168752935280852060049485029092016003810154815492516370a0823160e01b815291975092959294929391909116916370a0823191610cb291309101611304565b60206040518083038186803b158015610cca57600080fd5b505afa158015610cde573d6000803e3d6000fd5b505050506040513d601f19601f82011682018060405250810190610d029190611212565b9050836002015443118015610d1657508015155b15610d76576000610d2b8560020154436109d5565b90506000610d52606a5461060688600101546107c060665487610db990919063ffffffff16565b9050610d71610d6a846106068464e8d4a51000610db9565b8590610dad565b935050505b610d9e836001015461060c64e8d4a51000610606868860000154610db990919063ffffffff16565b979650505050505050565b3390565b60006109e682846115c8565b60006109e68284611600565b60006109e682846115e0565b60006109e6828461161f565b6065546040516370a0823160e01b81526000916001600160a01b0316906370a0823190610e0e903090600401611304565b60206040518083038186803b158015610e2657600080fd5b505afa158015610e3a573d6000803e3d6000fd5b505050506040513d601f19601f82011682018060405250810190610e5e9190611212565b905080821115610ef25760655460405163a9059cbb60e01b81526001600160a01b039091169063a9059cbb90610e9a908690859060040161133c565b602060405180830381600087803b158015610eb457600080fd5b505af1158015610ec8573d6000803e3d6000fd5b505050506040513d601f19601f82011682018060405250810190610eec91906111de565b50610f78565b60655460405163a9059cbb60e01b81526001600160a01b039091169063a9059cbb90610f24908690869060040161133c565b602060405180830381600087803b158015610f3e57600080fd5b505af1158015610f52573d6000803e3d6000fd5b505050506040513d601f19601f82011682018060405250810190610f7691906111de565b505b505050565b610f788363a9059cbb60e01b8484604051602401610f9c92919061133c565b60408051601f198184030181529190526020810180516001600160e01b03166001600160e01b031990931692909217909152610ff4565b610f76846323b872dd60e01b858585604051602401610f9c93929190611318565b6000611049826040518060400160405280602081526020017f5361666545524332303a206c6f772d6c6576656c2063616c6c206661696c6564815250856001600160a01b03166110839092919063ffffffff16565b805190915015610f78578080602001905181019061106791906111de565b610f785760405162461bcd60e51b815260040161036590611530565b6060611092848460008561109a565b949350505050565b6060824710156110bc5760405162461bcd60e51b8152600401610365906113ff565b6110c58561114f565b6110e15760405162461bcd60e51b8152600401610365906114cd565b600080866001600160a01b031685876040516110fd91906112e8565b60006040518083038185875af1925050503d806000811461113a576040519150601f19603f3d011682016040523d82523d6000602084013e61113f565b606091505b5091509150610d9e828286611155565b3b151590565b606083156111645750816109e6565b8251156111745782518084602001fd5b8160405162461bcd60e51b81526004016103659190611386565b60006020828403121561119f578081fd5b81356109e681611693565b6000806000606084860312156111be578182fd5b83356111c981611693565b95602085013595506040909401359392505050565b6000602082840312156111ef578081fd5b81516109e6816116a8565b60006020828403121561120b578081fd5b5035919050565b600060208284031215611223578081fd5b5051919050565b6000806040838503121561123c578182fd5b82359150602083013561124e81611693565b809150509250929050565b60008060006060848603121561126d578283fd5b83359250602084013561127f81611693565b9150604084013561128f816116a8565b809150509250925092565b600080604083850312156112ac578182fd5b50508035926020909101359150565b6000806000606084860312156112cf578283fd5b8335925060208401359150604084013561128f816116a8565b600082516112fa818460208701611636565b9190910192915050565b6001600160a01b0391909116815260200190565b6001600160a01b039384168152919092166020820152604081019190915260600190565b6001600160a01b03929092168252602082015260400190565b901515815260200190565b6001600160a01b0394909416845260208401929092526040830152606082015260800190565b60006020825282518060208401526113a5816040850160208701611636565b601f01601f19169190910160400192915050565b60208082526026908201527f4f776e61626c653a206e6577206f776e657220697320746865207a65726f206160408201526564647265737360d01b606082015260800190565b60208082526026908201527f416464726573733a20696e73756666696369656e742062616c616e636520666f6040820152651c8818d85b1b60d21b606082015260800190565b60208082526033908201527f212120576974686472617720617661696c61626c6520616674657220323120646040820152726179732066726f6d206465706f73697420212160681b606082015260800190565b6020808252818101527f4f776e61626c653a2063616c6c6572206973206e6f7420746865206f776e6572604082015260600190565b6020808252601d908201527f416464726573733a2063616c6c20746f206e6f6e2d636f6e7472616374000000604082015260600190565b6020808252601290820152711dda5d1a191c985dce881b9bdd0819dbdbd960721b604082015260600190565b6020808252602a908201527f5361666545524332303a204552433230206f7065726174696f6e20646964206e6040820152691bdd081cdd58d8d9595960b21b606082015260800190565b6020808252601e908201527f53666d7220546f6b656e20746f6b656e20616c72656164792061646465640000604082015260600190565b90815260200190565b918252602082015260400190565b600082198211156115db576115db61167d565b500190565b6000826115fb57634e487b7160e01b81526012600452602481fd5b500490565b600081600019048311821515161561161a5761161a61167d565b500290565b6000828210156116315761163161167d565b500390565b60005b83811015611651578181015183820152602001611639565b83811115610f765750506000910152565b60006000198214156116765761167661167d565b5060010190565b634e487b7160e01b600052601160045260246000fd5b6001600160a01b03811681146107fc57600080fd5b80151581146107fc57600080fdfea2646970667358221220d14cd4c7687315c756e91899cdb3bd0f3fb8208bf0838049eda41c8508b61acd64736f6c63430008000033",
  "linkReferences": {},
  "deployedLinkReferences": {}
}