{
  "_format": "hh-sol-artifact-1",
  "contractName": "BaseNFTWithRandom",
  "sourceName": "contracts/Base/BaseNFTWithRandom.sol",
  "abi": [
    {
      "anonymous": false,
      "inputs": [
        {
          "indexed": true,
          "internalType": "address",
          "name": "account",
          "type": "address"
        },
        {
          "indexed": true,
          "internalType": "address",
          "name": "operator",
          "type": "address"
        },
        {
          "indexed": false,
          "internalType": "bool",
          "name": "approved",
          "type": "bool"
        }
      ],
      "name": "ApprovalForAll",
      "type": "event"
    },
    {
      "anonymous": false,
      "inputs": [
        {
          "indexed": false,
          "internalType": "uint8",
          "name": "version",
          "type": "uint8"
        }
      ],
      "name": "Initialized",
      "type": "event"
    },
    {
      "anonymous": false,
      "inputs": [
        {
          "indexed": true,
          "internalType": "address",
          "name": "previousOwner",
          "type": "address"
        },
        {
          "indexed": true,
          "internalType": "address",
          "name": "newOwner",
          "type": "address"
        }
      ],
      "name": "OwnershipTransferred",
      "type": "event"
    },
    {
      "anonymous": false,
      "inputs": [
        {
          "indexed": true,
          "internalType": "bytes32",
          "name": "requestId",
          "type": "bytes32"
        },
        {
          "indexed": false,
          "internalType": "uint256",
          "name": "randomNumber",
          "type": "uint256"
        }
      ],
      "name": "RandomNumberCompleted",
      "type": "event"
    },
    {
      "anonymous": false,
      "inputs": [
        {
          "indexed": true,
          "internalType": "address",
          "name": "sender",
          "type": "address"
        },
        {
          "indexed": true,
          "internalType": "bytes32",
          "name": "vrfRequestId",
          "type": "bytes32"
        }
      ],
      "name": "RandomNumberRequested",
      "type": "event"
    },
    {
      "anonymous": false,
      "inputs": [
        {
          "indexed": true,
          "internalType": "address",
          "name": "operator",
          "type": "address"
        },
        {
          "indexed": true,
          "internalType": "address",
          "name": "from",
          "type": "address"
        },
        {
          "indexed": true,
          "internalType": "address",
          "name": "to",
          "type": "address"
        },
        {
          "indexed": false,
          "internalType": "uint256[]",
          "name": "ids",
          "type": "uint256[]"
        },
        {
          "indexed": false,
          "internalType": "uint256[]",
          "name": "values",
          "type": "uint256[]"
        }
      ],
      "name": "TransferBatch",
      "type": "event"
    },
    {
      "anonymous": false,
      "inputs": [
        {
          "indexed": true,
          "internalType": "address",
          "name": "operator",
          "type": "address"
        },
        {
          "indexed": true,
          "internalType": "address",
          "name": "from",
          "type": "address"
        },
        {
          "indexed": true,
          "internalType": "address",
          "name": "to",
          "type": "address"
        },
        {
          "indexed": false,
          "internalType": "uint256",
          "name": "id",
          "type": "uint256"
        },
        {
          "indexed": false,
          "internalType": "uint256",
          "name": "value",
          "type": "uint256"
        }
      ],
      "name": "TransferSingle",
      "type": "event"
    },
    {
      "anonymous": false,
      "inputs": [
        {
          "indexed": false,
          "internalType": "string",
          "name": "value",
          "type": "string"
        },
        {
          "indexed": true,
          "internalType": "uint256",
          "name": "id",
          "type": "uint256"
        }
      ],
      "name": "URI",
      "type": "event"
    },
    {
      "inputs": [
        {
          "internalType": "address",
          "name": "account",
          "type": "address"
        },
        {
          "internalType": "uint256",
          "name": "id",
          "type": "uint256"
        }
      ],
      "name": "balanceOf",
      "outputs": [
        {
          "internalType": "uint256",
          "name": "",
          "type": "uint256"
        }
      ],
      "stateMutability": "view",
      "type": "function"
    },
    {
      "inputs": [
        {
          "internalType": "address[]",
          "name": "accounts",
          "type": "address[]"
        },
        {
          "internalType": "uint256[]",
          "name": "ids",
          "type": "uint256[]"
        }
      ],
      "name": "balanceOfBatch",
      "outputs": [
        {
          "internalType": "uint256[]",
          "name": "",
          "type": "uint256[]"
        }
      ],
      "stateMutability": "view",
      "type": "function"
    },
    {
      "inputs": [],
      "name": "baseUri",
      "outputs": [
        {
          "internalType": "string",
          "name": "",
          "type": "string"
        }
      ],
      "stateMutability": "view",
      "type": "function"
    },
    {
      "inputs": [],
      "name": "fee",
      "outputs": [
        {
          "internalType": "uint256",
          "name": "",
          "type": "uint256"
        }
      ],
      "stateMutability": "view",
      "type": "function"
    },
    {
      "inputs": [],
      "name": "getLinkAddress",
      "outputs": [
        {
          "internalType": "address",
          "name": "",
          "type": "address"
        }
      ],
      "stateMutability": "view",
      "type": "function"
    },
    {
      "inputs": [],
      "name": "getRandomNumber",
      "outputs": [
        {
          "internalType": "uint256",
          "name": "",
          "type": "uint256"
        }
      ],
      "stateMutability": "view",
      "type": "function"
    },
    {
      "inputs": [
        {
          "internalType": "address",
          "name": "account",
          "type": "address"
        },
        {
          "internalType": "address",
          "name": "operator",
          "type": "address"
        }
      ],
      "name": "isApprovedForAll",
      "outputs": [
        {
          "internalType": "bool",
          "name": "",
          "type": "bool"
        }
      ],
      "stateMutability": "view",
      "type": "function"
    },
    {
      "inputs": [],
      "name": "maxSupply",
      "outputs": [
        {
          "internalType": "uint256",
          "name": "",
          "type": "uint256"
        }
      ],
      "stateMutability": "view",
      "type": "function"
    },
    {
      "inputs": [],
      "name": "name",
      "outputs": [
        {
          "internalType": "string",
          "name": "",
          "type": "string"
        }
      ],
      "stateMutability": "view",
      "type": "function"
    },
    {
      "inputs": [],
      "name": "owner",
      "outputs": [
        {
          "internalType": "address",
          "name": "",
          "type": "address"
        }
      ],
      "stateMutability": "view",
      "type": "function"
    },
    {
      "inputs": [],
      "name": "publicSaleEndTime",
      "outputs": [
        {
          "internalType": "uint256",
          "name": "",
          "type": "uint256"
        }
      ],
      "stateMutability": "view",
      "type": "function"
    },
    {
      "inputs": [],
      "name": "publicSaleStartTime",
      "outputs": [
        {
          "internalType": "uint256",
          "name": "",
          "type": "uint256"
        }
      ],
      "stateMutability": "view",
      "type": "function"
    },
    {
      "inputs": [
        {
          "internalType": "bytes32",
          "name": "requestId",
          "type": "bytes32"
        },
        {
          "internalType": "uint256",
          "name": "randomness",
          "type": "uint256"
        }
      ],
      "name": "rawFulfillRandomness",
      "outputs": [],
      "stateMutability": "nonpayable",
      "type": "function"
    },
    {
      "inputs": [],
      "name": "renounceOwnership",
      "outputs": [],
      "stateMutability": "nonpayable",
      "type": "function"
    },
    {
      "inputs": [],
      "name": "requestRandomNumber",
      "outputs": [
        {
          "internalType": "bytes32",
          "name": "",
          "type": "bytes32"
        },
        {
          "internalType": "uint32",
          "name": "",
          "type": "uint32"
        }
      ],
      "stateMutability": "nonpayable",
      "type": "function"
    },
    {
      "inputs": [
        {
          "internalType": "address",
          "name": "from",
          "type": "address"
        },
        {
          "internalType": "address",
          "name": "to",
          "type": "address"
        },
        {
          "internalType": "uint256[]",
          "name": "ids",
          "type": "uint256[]"
        },
        {
          "internalType": "uint256[]",
          "name": "amounts",
          "type": "uint256[]"
        },
        {
          "internalType": "bytes",
          "name": "data",
          "type": "bytes"
        }
      ],
      "name": "safeBatchTransferFrom",
      "outputs": [],
      "stateMutability": "nonpayable",
      "type": "function"
    },
    {
      "inputs": [
        {
          "internalType": "address",
          "name": "from",
          "type": "address"
        },
        {
          "internalType": "address",
          "name": "to",
          "type": "address"
        },
        {
          "internalType": "uint256",
          "name": "id",
          "type": "uint256"
        },
        {
          "internalType": "uint256",
          "name": "amount",
          "type": "uint256"
        },
        {
          "internalType": "bytes",
          "name": "data",
          "type": "bytes"
        }
      ],
      "name": "safeTransferFrom",
      "outputs": [],
      "stateMutability": "nonpayable",
      "type": "function"
    },
    {
      "inputs": [
        {
          "internalType": "address",
          "name": "operator",
          "type": "address"
        },
        {
          "internalType": "bool",
          "name": "approved",
          "type": "bool"
        }
      ],
      "name": "setApprovalForAll",
      "outputs": [],
      "stateMutability": "nonpayable",
      "type": "function"
    },
    {
      "inputs": [
        {
          "internalType": "bytes4",
          "name": "interfaceId",
          "type": "bytes4"
        }
      ],
      "name": "supportsInterface",
      "outputs": [
        {
          "internalType": "bool",
          "name": "",
          "type": "bool"
        }
      ],
      "stateMutability": "view",
      "type": "function"
    },
    {
      "inputs": [],
      "name": "symbol",
      "outputs": [
        {
          "internalType": "string",
          "name": "",
          "type": "string"
        }
      ],
      "stateMutability": "view",
      "type": "function"
    },
    {
      "inputs": [],
      "name": "totalMint",
      "outputs": [
        {
          "internalType": "uint256",
          "name": "",
          "type": "uint256"
        }
      ],
      "stateMutability": "view",
      "type": "function"
    },
    {
      "inputs": [
        {
          "internalType": "address",
          "name": "newOwner",
          "type": "address"
        }
      ],
      "name": "transferOwnership",
      "outputs": [],
      "stateMutability": "nonpayable",
      "type": "function"
    },
    {
      "inputs": [
        {
          "internalType": "uint256",
          "name": "_tokenId",
          "type": "uint256"
        }
      ],
      "name": "uri",
      "outputs": [
        {
          "internalType": "string",
          "name": "",
          "type": "string"
        }
      ],
      "stateMutability": "view",
      "type": "function"
    },
    {
      "inputs": [
        {
          "internalType": "uint256",
          "name": "_amount",
          "type": "uint256"
        }
      ],
      "name": "withdrawLink",
      "outputs": [],
      "stateMutability": "nonpayable",
      "type": "function"
    }
  ],
  "bytecode": "0x608060405234801561001057600080fd5b50611f85806100206000396000f3fe608060405234801561001057600080fd5b50600436106101575760003560e01c80638da5cb5b116100c3578063d5abeb011161007c578063d5abeb01146102c9578063dbdff2c1146102d3578063ddca3f43146102db578063e985e9c5146102e5578063f242432a14610321578063f2fde38b1461033457600080fd5b80638da5cb5b1461025c57806394985ddd1461028157806395d89b41146102945780639abc83201461029c578063a22cb465146102a4578063ca30e603146102b757600080fd5b80634e1273f4116101155780634e1273f4146101ec57806359a7715a1461020c5780636bb7b1d914610215578063715018a61461021f5780637a8042bd146102275780638678a7b21461023a57600080fd5b8062fdd58e1461015c57806301ffc9a71461018257806306fdde03146101a55780630e89341c146101ba5780631e4d185f146101cd5780632eb2c2d6146101d7575b600080fd5b61016f61016a366004611596565b610347565b6040519081526020015b60405180910390f35b6101956101903660046115d6565b6103e2565b6040519015158152602001610179565b6101ad610432565b6040516101799190611643565b6101ad6101c8366004611656565b6104c0565b61016f6101015481565b6101ea6101e53660046117bb565b6104f4565b005b6101ff6101fa366004611865565b610540565b604051610179919061196b565b61016f60fe5481565b61016f6101005481565b6101ea61066a565b6101ea610235366004611656565b61067e565b610242610854565b6040805192835263ffffffff909116602083015201610179565b6097546001600160a01b03165b6040516001600160a01b039091168152602001610179565b6101ea61028f36600461197e565b610a08565b6101ad610a71565b6101ad610a7e565b6101ea6102b23660046119ae565b610a8b565b610103546001600160a01b0316610269565b61016f6101025481565b61016f610a96565b61016f6101075481565b6101956102f33660046119e5565b6001600160a01b03918216600090815260666020908152604080832093909416825291909152205460ff1690565b6101ea61032f366004611a18565b610b09565b6101ea610342366004611a7d565b610b4e565b60006001600160a01b0383166103b75760405162461bcd60e51b815260206004820152602a60248201527f455243313135353a2061646472657373207a65726f206973206e6f742061207660448201526930b634b21037bbb732b960b11b60648201526084015b60405180910390fd5b5060008181526065602090815260408083206001600160a01b03861684529091529020545b92915050565b60006001600160e01b03198216636cdb3d1360e11b148061041357506001600160e01b031982166303a24d0760e21b145b806103dc57506301ffc9a760e01b6001600160e01b03198316146103dc565b60fb805461043f90611a98565b80601f016020809104026020016040519081016040528092919081815260200182805461046b90611a98565b80156104b85780601f1061048d576101008083540402835291602001916104b8565b820191906000526020600020905b81548152906001019060200180831161049b57829003601f168201915b505050505081565b606060fd6104cd83610bc7565b6040516020016104de929190611aee565b6040516020818303038152906040529050919050565b6001600160a01b038516331480610510575061051085336102f3565b61052c5760405162461bcd60e51b81526004016103ae90611b98565b6105398585858585610cd0565b5050505050565b606081518351146105a55760405162461bcd60e51b815260206004820152602960248201527f455243313135353a206163636f756e747320616e6420696473206c656e677468604482015268040dad2e6dac2e8c6d60bb1b60648201526084016103ae565b6000835167ffffffffffffffff8111156105c1576105c161166f565b6040519080825280602002602001820160405280156105ea578160200160208202803683370190505b50905060005b84518110156106625761063585828151811061060e5761060e611be7565b602002602001015185838151811061062857610628611be7565b6020026020010151610347565b82828151811061064757610647611be7565b602090810291909101015261065b81611c13565b90506105f0565b509392505050565b610672610eb0565b61067c6000610f0a565b565b610686610eb0565b600260c954036106d85760405162461bcd60e51b815260206004820152601f60248201527f5265656e7472616e637947756172643a207265656e7472616e742063616c6c0060448201526064016103ae565b600260c955610103546040516370a0823160e01b8152306004820152610759918315159184916001600160a01b0316906370a0823190602401602060405180830381865afa15801561072e573d6000803e3d6000fd5b505050506040513d601f19601f820116820180604052508101906107529190611c2c565b1015610f5c565b6107975760405162461bcd60e51b815260206004820152600f60248201526e4e6f7420656e6f756768204c494e4b60881b60448201526064016103ae565b6101035460405163a9059cbb60e01b8152336004820152602481018390526001600160a01b039091169063a9059cbb906044016020604051808303816000875af11580156107e9573d6000803e3d6000fd5b505050506040513d601f19601f8201168201806040525081019061080d9190611c45565b61084c5760405162461bcd60e51b815260206004820152601060248201526f2a3930b739b332b9103330b4b632b21760811b60448201526064016103ae565b50600160c955565b60008061085f610eb0565b610101544210156108b25760405162461bcd60e51b815260206004820152601c60248201527f5075626c69632073616c65206973206e6f742079657420656e6465640000000060448201526064016103ae565b6101065460ff16156109065760405162461bcd60e51b815260206004820152601e60248201527f416c7265616479206f627461696e65642072616e646f6d206e756d626572000060448201526064016103ae565b61010754610103546040516370a0823160e01b81523060048201526001600160a01b03909116906370a0823190602401602060405180830381865afa158015610953573d6000803e3d6000fd5b505050506040513d601f19601f820116820180604052508101906109779190611c2c565b10156109b85760405162461bcd60e51b815260206004820152601060248201526f4c494e4b2042616c616e63653e66656560801b60448201526064016103ae565b610109546101075443916109cb91610f6f565b61010a81905560405133907ffb9e6931d074560e7cb254d248daf84079f54f66558a6ba8b9eccb9442a642ce90600090a361010a54925090509091565b610104546001600160a01b03163314610a635760405162461bcd60e51b815260206004820152601f60248201527f4f6e6c7920565246436f6f7264696e61746f722063616e2066756c66696c6c0060448201526064016103ae565b610a6d82826110ae565b5050565b60fc805461043f90611a98565b60fd805461043f90611a98565b610a6d338383611102565b6101065460009060ff16610b015760405162461bcd60e51b815260206004820152602c60248201527f506c65617365207761697420666f722072616e646f6d206e756d62657220746f60448201526b08189948185cdcda59db995960a21b60648201526084016103ae565b506101085490565b6001600160a01b038516331480610b255750610b2585336102f3565b610b415760405162461bcd60e51b81526004016103ae90611b98565b61053985858585856111e2565b610b56610eb0565b6001600160a01b038116610bbb5760405162461bcd60e51b815260206004820152602660248201527f4f776e61626c653a206e6577206f776e657220697320746865207a65726f206160448201526564647265737360d01b60648201526084016103ae565b610bc481610f0a565b50565b606081600003610bee5750506040805180820190915260018152600360fc1b602082015290565b8160005b8115610c185780610c0281611c13565b9150610c119050600a83611c78565b9150610bf2565b60008167ffffffffffffffff811115610c3357610c3361166f565b6040519080825280601f01601f191660200182016040528015610c5d576020820181803683370190505b5090505b8415610cc857610c72600183611c8c565b9150610c7f600a86611c9f565b610c8a906030611cb3565b60f81b818381518110610c9f57610c9f611be7565b60200101906001600160f81b031916908160001a905350610cc1600a86611c78565b9450610c61565b949350505050565b8151835114610d325760405162461bcd60e51b815260206004820152602860248201527f455243313135353a2069647320616e6420616d6f756e7473206c656e677468206044820152670dad2e6dac2e8c6d60c31b60648201526084016103ae565b6001600160a01b038416610d585760405162461bcd60e51b81526004016103ae90611cc6565b3360005b8451811015610e42576000858281518110610d7957610d79611be7565b602002602001015190506000858381518110610d9757610d97611be7565b60209081029190910181015160008481526065835260408082206001600160a01b038e168352909352919091205490915081811015610de85760405162461bcd60e51b81526004016103ae90611d0b565b60008381526065602090815260408083206001600160a01b038e8116855292528083208585039055908b16825281208054849290610e27908490611cb3565b9250508190555050505080610e3b90611c13565b9050610d5c565b50846001600160a01b0316866001600160a01b0316826001600160a01b03167f4a39dc06d4c0dbc64b70af90fd698a233a518aa5d07e595d983b8c0526c8f7fb8787604051610e92929190611d55565b60405180910390a4610ea8818787878787611310565b505050505050565b6097546001600160a01b0316331461067c5760405162461bcd60e51b815260206004820181905260248201527f4f776e61626c653a2063616c6c6572206973206e6f7420746865206f776e657260448201526064016103ae565b609780546001600160a01b038381166001600160a01b0319831681179093556040519116919082907f8be0079c531659141344cd1fd0a4f28419497f9722a3daafe3b4186f6b6457e090600090a35050565b6000828015610f685750815b9392505050565b6101035461010454604080516020810186905260008183018190528251808303840181526060830193849052630200057560e51b909352936001600160a01b0390811693634000aea093610fcd939290911691879190606401611d7a565b6020604051808303816000875af1158015610fec573d6000803e3d6000fd5b505050506040513d601f19601f820116820180604052508101906110109190611c45565b5060008381526101056020818152604080842054815180840189905280830186905230606082015260808082018390528351808303909101815260a09091019092528151918301919091209387905291905261106d906001611cb3565b60008581526101056020526040902055610cc88482604080516020808201949094528082019290925280518083038201815260609092019052805191012090565b610108819055610106805460ff1916600117905560405182907ffb6cd07fbeb11b44106860d622b9f060079f790fa9ee013da16efb6e9b5b167f906110f69084815260200190565b60405180910390a25050565b816001600160a01b0316836001600160a01b0316036111755760405162461bcd60e51b815260206004820152602960248201527f455243313135353a2073657474696e6720617070726f76616c20737461747573604482015268103337b91039b2b63360b91b60648201526084016103ae565b6001600160a01b03838116600081815260666020908152604080832094871680845294825291829020805460ff191686151590811790915591519182527f17307eab39ab6107e8899845ad3d59bd9653f200f220920489ca2b5937696c31910160405180910390a3505050565b6001600160a01b0384166112085760405162461bcd60e51b81526004016103ae90611cc6565b33600061121485611474565b9050600061122185611474565b905060008681526065602090815260408083206001600160a01b038c168452909152902054858110156112665760405162461bcd60e51b81526004016103ae90611d0b565b60008781526065602090815260408083206001600160a01b038d8116855292528083208985039055908a168252812080548892906112a5908490611cb3565b909155505060408051888152602081018890526001600160a01b03808b16928c821692918816917fc3d58168c5ae7397731d063d5bbf3d657854427343f4c083240f7aacaa2d0f62910160405180910390a4611305848a8a8a8a8a6114bf565b505050505050505050565b6001600160a01b0384163b15610ea85760405163bc197c8160e01b81526001600160a01b0385169063bc197c81906113549089908990889088908890600401611da1565b6020604051808303816000875af192505050801561138f575060408051601f3d908101601f1916820190925261138c91810190611dff565b60015b61143b5761139b611e1c565b806308c379a0036113d457506113af611e38565b806113ba57506113d6565b8060405162461bcd60e51b81526004016103ae9190611643565b505b60405162461bcd60e51b815260206004820152603460248201527f455243313135353a207472616e7366657220746f206e6f6e20455243313135356044820152732932b1b2b4bb32b91034b6b83632b6b2b73a32b960611b60648201526084016103ae565b6001600160e01b0319811663bc197c8160e01b1461146b5760405162461bcd60e51b81526004016103ae90611ec2565b50505050505050565b604080516001808252818301909252606091600091906020808301908036833701905050905082816000815181106114ae576114ae611be7565b602090810291909101015292915050565b6001600160a01b0384163b15610ea85760405163f23a6e6160e01b81526001600160a01b0385169063f23a6e61906115039089908990889088908890600401611f0a565b6020604051808303816000875af192505050801561153e575060408051601f3d908101601f1916820190925261153b91810190611dff565b60015b61154a5761139b611e1c565b6001600160e01b0319811663f23a6e6160e01b1461146b5760405162461bcd60e51b81526004016103ae90611ec2565b80356001600160a01b038116811461159157600080fd5b919050565b600080604083850312156115a957600080fd5b6115b28361157a565b946020939093013593505050565b6001600160e01b031981168114610bc457600080fd5b6000602082840312156115e857600080fd5b8135610f68816115c0565b60005b8381101561160e5781810151838201526020016115f6565b50506000910152565b6000815180845261162f8160208601602086016115f3565b601f01601f19169290920160200192915050565b602081526000610f686020830184611617565b60006020828403121561166857600080fd5b5035919050565b634e487b7160e01b600052604160045260246000fd5b601f8201601f1916810167ffffffffffffffff811182821017156116ab576116ab61166f565b6040525050565b600067ffffffffffffffff8211156116cc576116cc61166f565b5060051b60200190565b600082601f8301126116e757600080fd5b813560206116f4826116b2565b6040516117018282611685565b83815260059390931b850182019282810191508684111561172157600080fd5b8286015b8481101561173c5780358352918301918301611725565b509695505050505050565b600082601f83011261175857600080fd5b813567ffffffffffffffff8111156117725761177261166f565b604051611789601f8301601f191660200182611685565b81815284602083860101111561179e57600080fd5b816020850160208301376000918101602001919091529392505050565b600080600080600060a086880312156117d357600080fd5b6117dc8661157a565b94506117ea6020870161157a565b9350604086013567ffffffffffffffff8082111561180757600080fd5b61181389838a016116d6565b9450606088013591508082111561182957600080fd5b61183589838a016116d6565b9350608088013591508082111561184b57600080fd5b5061185888828901611747565b9150509295509295909350565b6000806040838503121561187857600080fd5b823567ffffffffffffffff8082111561189057600080fd5b818501915085601f8301126118a457600080fd5b813560206118b1826116b2565b6040516118be8282611685565b83815260059390931b85018201928281019150898411156118de57600080fd5b948201945b83861015611903576118f48661157a565b825294820194908201906118e3565b9650508601359250508082111561191957600080fd5b50611926858286016116d6565b9150509250929050565b600081518084526020808501945080840160005b8381101561196057815187529582019590820190600101611944565b509495945050505050565b602081526000610f686020830184611930565b6000806040838503121561199157600080fd5b50508035926020909101359150565b8015158114610bc457600080fd5b600080604083850312156119c157600080fd5b6119ca8361157a565b915060208301356119da816119a0565b809150509250929050565b600080604083850312156119f857600080fd5b611a018361157a565b9150611a0f6020840161157a565b90509250929050565b600080600080600060a08688031215611a3057600080fd5b611a398661157a565b9450611a476020870161157a565b93506040860135925060608601359150608086013567ffffffffffffffff811115611a7157600080fd5b61185888828901611747565b600060208284031215611a8f57600080fd5b610f688261157a565b600181811c90821680611aac57607f821691505b602082108103611acc57634e487b7160e01b600052602260045260246000fd5b50919050565b60008151611ae48185602086016115f3565b9290920192915050565b600080845481600182811c915080831680611b0a57607f831692505b60208084108203611b2957634e487b7160e01b86526022600452602486fd5b818015611b3d5760018114611b5257611b7f565b60ff1986168952841515850289019650611b7f565b60008b81526020902060005b86811015611b775781548b820152908501908301611b5e565b505084890196505b505050505050611b8f8185611ad2565b95945050505050565b6020808252602f908201527f455243313135353a2063616c6c6572206973206e6f7420746f6b656e206f776e60408201526e195c881b9bdc88185c1c1c9bdd9959608a1b606082015260800190565b634e487b7160e01b600052603260045260246000fd5b634e487b7160e01b600052601160045260246000fd5b600060018201611c2557611c25611bfd565b5060010190565b600060208284031215611c3e57600080fd5b5051919050565b600060208284031215611c5757600080fd5b8151610f68816119a0565b634e487b7160e01b600052601260045260246000fd5b600082611c8757611c87611c62565b500490565b818103818111156103dc576103dc611bfd565b600082611cae57611cae611c62565b500690565b808201808211156103dc576103dc611bfd565b60208082526025908201527f455243313135353a207472616e7366657220746f20746865207a65726f206164604082015264647265737360d81b606082015260800190565b6020808252602a908201527f455243313135353a20696e73756666696369656e742062616c616e636520666f60408201526939103a3930b739b332b960b11b606082015260800190565b604081526000611d686040830185611930565b8281036020840152611b8f8185611930565b60018060a01b0384168152826020820152606060408201526000611b8f6060830184611617565b6001600160a01b0386811682528516602082015260a060408201819052600090611dcd90830186611930565b8281036060840152611ddf8186611930565b90508281036080840152611df38185611617565b98975050505050505050565b600060208284031215611e1157600080fd5b8151610f68816115c0565b600060033d1115611e355760046000803e5060005160e01c5b90565b600060443d1015611e465790565b6040516003193d81016004833e81513d67ffffffffffffffff8160248401118184111715611e7657505050505090565b8285019150815181811115611e8e5750505050505090565b843d8701016020828501011115611ea85750505050505090565b611eb760208286010187611685565b509095945050505050565b60208082526028908201527f455243313135353a204552433131353552656365697665722072656a656374656040820152676420746f6b656e7360c01b606082015260800190565b6001600160a01b03868116825285166020820152604081018490526060810183905260a060808201819052600090611f4490830184611617565b97965050505050505056fea26469706673582212206723a0ea5e86a76c3c423b821f1ba3c11561a84a3182f914b7677589e1ffc6df64736f6c63430008110033",
  "linkReferences": {},
  "deployedLinkReferences": {}
}