{
  "_format": "hh-sol-artifact-1",
  "contractName": "NFTWithoutPresaleWithoutRandomInstant",
  "sourceName": "contracts/Sales/NFTWithoutPresaleWithoutRandomInstant.sol",
  "abi": [
    {
      "anonymous": false,
      "inputs": [
        {
          "indexed": true,
          "internalType": "address",
          "name": "account",
          "type": "address"
        },
        {
          "indexed": true,
          "internalType": "address",
          "name": "operator",
          "type": "address"
        },
        {
          "indexed": false,
          "internalType": "bool",
          "name": "approved",
          "type": "bool"
        }
      ],
      "name": "ApprovalForAll",
      "type": "event"
    },
    {
      "anonymous": false,
      "inputs": [
        {
          "indexed": false,
          "internalType": "uint8",
          "name": "version",
          "type": "uint8"
        }
      ],
      "name": "Initialized",
      "type": "event"
    },
    {
      "anonymous": false,
      "inputs": [
        {
          "indexed": true,
          "internalType": "address",
          "name": "previousOwner",
          "type": "address"
        },
        {
          "indexed": true,
          "internalType": "address",
          "name": "newOwner",
          "type": "address"
        }
      ],
      "name": "OwnershipTransferred",
      "type": "event"
    },
    {
      "anonymous": false,
      "inputs": [
        {
          "indexed": true,
          "internalType": "address",
          "name": "operator",
          "type": "address"
        },
        {
          "indexed": true,
          "internalType": "address",
          "name": "from",
          "type": "address"
        },
        {
          "indexed": true,
          "internalType": "address",
          "name": "to",
          "type": "address"
        },
        {
          "indexed": false,
          "internalType": "uint256[]",
          "name": "ids",
          "type": "uint256[]"
        },
        {
          "indexed": false,
          "internalType": "uint256[]",
          "name": "values",
          "type": "uint256[]"
        }
      ],
      "name": "TransferBatch",
      "type": "event"
    },
    {
      "anonymous": false,
      "inputs": [
        {
          "indexed": true,
          "internalType": "address",
          "name": "operator",
          "type": "address"
        },
        {
          "indexed": true,
          "internalType": "address",
          "name": "from",
          "type": "address"
        },
        {
          "indexed": true,
          "internalType": "address",
          "name": "to",
          "type": "address"
        },
        {
          "indexed": false,
          "internalType": "uint256",
          "name": "id",
          "type": "uint256"
        },
        {
          "indexed": false,
          "internalType": "uint256",
          "name": "value",
          "type": "uint256"
        }
      ],
      "name": "TransferSingle",
      "type": "event"
    },
    {
      "anonymous": false,
      "inputs": [
        {
          "indexed": false,
          "internalType": "string",
          "name": "uri",
          "type": "string"
        }
      ],
      "name": "URI",
      "type": "event"
    },
    {
      "anonymous": false,
      "inputs": [
        {
          "indexed": false,
          "internalType": "string",
          "name": "value",
          "type": "string"
        },
        {
          "indexed": true,
          "internalType": "uint256",
          "name": "id",
          "type": "uint256"
        }
      ],
      "name": "URI",
      "type": "event"
    },
    {
      "inputs": [
        {
          "internalType": "string",
          "name": "_name",
          "type": "string"
        },
        {
          "internalType": "string",
          "name": "_symbol",
          "type": "string"
        },
        {
          "internalType": "string",
          "name": "_saleType",
          "type": "string"
        },
        {
          "internalType": "string",
          "name": "_baseUri",
          "type": "string"
        },
        {
          "internalType": "uint256",
          "name": "_maxSupply",
          "type": "uint256"
        },
        {
          "internalType": "string",
          "name": "_saleId",
          "type": "string"
        },
        {
          "components": [
            {
              "internalType": "uint256",
              "name": "_publicSaleMintCost",
              "type": "uint256"
            },
            {
              "internalType": "uint256",
              "name": "_publicSaleStartTime",
              "type": "uint256"
            },
            {
              "internalType": "uint256",
              "name": "_publicSaleDuration",
              "type": "uint256"
            },
            {
              "internalType": "uint256",
              "name": "_maxTokenPerMintPublicSale",
              "type": "uint256"
            },
            {
              "internalType": "uint256",
              "name": "_maxTokenPerPersonPublicSale",
              "type": "uint256"
            }
          ],
          "internalType": "struct BaseNFTWithoutPresale.publicSaleConfig",
          "name": "_publicSaleConfig",
          "type": "tuple"
        },
        {
          "internalType": "address",
          "name": "_signerAddress",
          "type": "address"
        }
      ],
      "name": "__NFTWithoutPresaleWithoutRandomInstant_init",
      "outputs": [],
      "stateMutability": "nonpayable",
      "type": "function"
    },
    {
      "inputs": [
        {
          "internalType": "address",
          "name": "",
          "type": "address"
        }
      ],
      "name": "affiliatedUserBalance",
      "outputs": [
        {
          "internalType": "uint256",
          "name": "",
          "type": "uint256"
        }
      ],
      "stateMutability": "view",
      "type": "function"
    },
    {
      "inputs": [],
      "name": "affiliatedWei",
      "outputs": [
        {
          "internalType": "uint256",
          "name": "",
          "type": "uint256"
        }
      ],
      "stateMutability": "view",
      "type": "function"
    },
    {
      "inputs": [
        {
          "internalType": "address",
          "name": "account",
          "type": "address"
        },
        {
          "internalType": "uint256",
          "name": "id",
          "type": "uint256"
        }
      ],
      "name": "balanceOf",
      "outputs": [
        {
          "internalType": "uint256",
          "name": "",
          "type": "uint256"
        }
      ],
      "stateMutability": "view",
      "type": "function"
    },
    {
      "inputs": [
        {
          "internalType": "address[]",
          "name": "accounts",
          "type": "address[]"
        },
        {
          "internalType": "uint256[]",
          "name": "ids",
          "type": "uint256[]"
        }
      ],
      "name": "balanceOfBatch",
      "outputs": [
        {
          "internalType": "uint256[]",
          "name": "",
          "type": "uint256[]"
        }
      ],
      "stateMutability": "view",
      "type": "function"
    },
    {
      "inputs": [],
      "name": "baseUri",
      "outputs": [
        {
          "internalType": "string",
          "name": "",
          "type": "string"
        }
      ],
      "stateMutability": "view",
      "type": "function"
    },
    {
      "inputs": [
        {
          "internalType": "address[]",
          "name": "affiliatedUser",
          "type": "address[]"
        }
      ],
      "name": "checkAffiliatedFunds",
      "outputs": [],
      "stateMutability": "view",
      "type": "function"
    },
    {
      "inputs": [
        {
          "internalType": "address[]",
          "name": "list",
          "type": "address[]"
        },
        {
          "internalType": "uint256[2]",
          "name": "shares",
          "type": "uint256[2]"
        }
      ],
      "name": "createAirdrop",
      "outputs": [],
      "stateMutability": "nonpayable",
      "type": "function"
    },
    {
      "inputs": [],
      "name": "dropFee",
      "outputs": [
        {
          "internalType": "uint256",
          "name": "",
          "type": "uint256"
        }
      ],
      "stateMutability": "view",
      "type": "function"
    },
    {
      "inputs": [],
      "name": "factory",
      "outputs": [
        {
          "internalType": "address",
          "name": "",
          "type": "address"
        }
      ],
      "stateMutability": "view",
      "type": "function"
    },
    {
      "inputs": [],
      "name": "feeReceiver",
      "outputs": [
        {
          "internalType": "address",
          "name": "",
          "type": "address"
        }
      ],
      "stateMutability": "view",
      "type": "function"
    },
    {
      "inputs": [],
      "name": "feesCollected",
      "outputs": [
        {
          "internalType": "uint256",
          "name": "",
          "type": "uint256"
        }
      ],
      "stateMutability": "view",
      "type": "function"
    },
    {
      "inputs": [
        {
          "internalType": "address",
          "name": "sender",
          "type": "address"
        },
        {
          "internalType": "uint256",
          "name": "tokenQuantity",
          "type": "uint256"
        }
      ],
      "name": "hashforPresale",
      "outputs": [
        {
          "internalType": "bytes32",
          "name": "",
          "type": "bytes32"
        }
      ],
      "stateMutability": "view",
      "type": "function"
    },
    {
      "inputs": [
        {
          "internalType": "address",
          "name": "sender",
          "type": "address"
        },
        {
          "internalType": "uint256",
          "name": "tokenQuantity",
          "type": "uint256"
        },
        {
          "internalType": "address",
          "name": "affiliatedUser",
          "type": "address"
        },
        {
          "internalType": "uint256",
          "name": "commission",
          "type": "uint256"
        }
      ],
      "name": "hashforPresaleAffiliated",
      "outputs": [
        {
          "internalType": "bytes32",
          "name": "",
          "type": "bytes32"
        }
      ],
      "stateMutability": "view",
      "type": "function"
    },
    {
      "inputs": [
        {
          "internalType": "address",
          "name": "sender",
          "type": "address"
        },
        {
          "internalType": "address",
          "name": "affiliatedUser",
          "type": "address"
        },
        {
          "internalType": "uint256",
          "name": "commission",
          "type": "uint256"
        }
      ],
      "name": "hashforPublicSaleAffiliated",
      "outputs": [
        {
          "internalType": "bytes32",
          "name": "",
          "type": "bytes32"
        }
      ],
      "stateMutability": "view",
      "type": "function"
    },
    {
      "inputs": [
        {
          "internalType": "address",
          "name": "account",
          "type": "address"
        },
        {
          "internalType": "address",
          "name": "operator",
          "type": "address"
        }
      ],
      "name": "isApprovedForAll",
      "outputs": [
        {
          "internalType": "bool",
          "name": "",
          "type": "bool"
        }
      ],
      "stateMutability": "view",
      "type": "function"
    },
    {
      "inputs": [],
      "name": "isDropApproved",
      "outputs": [
        {
          "internalType": "uint256",
          "name": "",
          "type": "uint256"
        }
      ],
      "stateMutability": "view",
      "type": "function"
    },
    {
      "inputs": [],
      "name": "isPublicSaleLive",
      "outputs": [
        {
          "internalType": "bool",
          "name": "",
          "type": "bool"
        }
      ],
      "stateMutability": "view",
      "type": "function"
    },
    {
      "inputs": [
        {
          "internalType": "bytes32",
          "name": "hash",
          "type": "bytes32"
        },
        {
          "internalType": "bytes",
          "name": "signature",
          "type": "bytes"
        }
      ],
      "name": "matchAddressSigner",
      "outputs": [
        {
          "internalType": "bool",
          "name": "",
          "type": "bool"
        }
      ],
      "stateMutability": "view",
      "type": "function"
    },
    {
      "inputs": [],
      "name": "maxSupply",
      "outputs": [
        {
          "internalType": "uint256",
          "name": "",
          "type": "uint256"
        }
      ],
      "stateMutability": "view",
      "type": "function"
    },
    {
      "inputs": [],
      "name": "maxTokenPerMintPublicSale",
      "outputs": [
        {
          "internalType": "uint256",
          "name": "",
          "type": "uint256"
        }
      ],
      "stateMutability": "view",
      "type": "function"
    },
    {
      "inputs": [],
      "name": "maxTokenPerPersonPublicSale",
      "outputs": [
        {
          "internalType": "uint256",
          "name": "",
          "type": "uint256"
        }
      ],
      "stateMutability": "view",
      "type": "function"
    },
    {
      "inputs": [],
      "name": "name",
      "outputs": [
        {
          "internalType": "string",
          "name": "",
          "type": "string"
        }
      ],
      "stateMutability": "view",
      "type": "function"
    },
    {
      "inputs": [],
      "name": "owner",
      "outputs": [
        {
          "internalType": "address",
          "name": "",
          "type": "address"
        }
      ],
      "stateMutability": "view",
      "type": "function"
    },
    {
      "inputs": [],
      "name": "preSaleAirdropCount",
      "outputs": [
        {
          "internalType": "uint256",
          "name": "",
          "type": "uint256"
        }
      ],
      "stateMutability": "view",
      "type": "function"
    },
    {
      "inputs": [],
      "name": "publicSaleAirdropCount",
      "outputs": [
        {
          "internalType": "uint256",
          "name": "",
          "type": "uint256"
        }
      ],
      "stateMutability": "view",
      "type": "function"
    },
    {
      "inputs": [
        {
          "internalType": "uint256",
          "name": "tokenQuantity",
          "type": "uint256"
        }
      ],
      "name": "publicSaleBuy",
      "outputs": [],
      "stateMutability": "payable",
      "type": "function"
    },
    {
      "inputs": [
        {
          "internalType": "uint256",
          "name": "tokenQuantity",
          "type": "uint256"
        },
        {
          "internalType": "address",
          "name": "affiliatedUser",
          "type": "address"
        },
        {
          "internalType": "uint256",
          "name": "commission",
          "type": "uint256"
        },
        {
          "internalType": "bytes",
          "name": "signature",
          "type": "bytes"
        }
      ],
      "name": "publicSaleBuyAffiliated",
      "outputs": [],
      "stateMutability": "payable",
      "type": "function"
    },
    {
      "inputs": [],
      "name": "publicSaleEndTime",
      "outputs": [
        {
          "internalType": "uint256",
          "name": "",
          "type": "uint256"
        }
      ],
      "stateMutability": "view",
      "type": "function"
    },
    {
      "inputs": [],
      "name": "publicSaleMintCost",
      "outputs": [
        {
          "internalType": "uint256",
          "name": "",
          "type": "uint256"
        }
      ],
      "stateMutability": "view",
      "type": "function"
    },
    {
      "inputs": [],
      "name": "publicSaleStartTime",
      "outputs": [
        {
          "internalType": "uint256",
          "name": "",
          "type": "uint256"
        }
      ],
      "stateMutability": "view",
      "type": "function"
    },
    {
      "inputs": [
        {
          "internalType": "address",
          "name": "",
          "type": "address"
        }
      ],
      "name": "publicsalerListPurchases",
      "outputs": [
        {
          "internalType": "uint256",
          "name": "",
          "type": "uint256"
        }
      ],
      "stateMutability": "view",
      "type": "function"
    },
    {
      "inputs": [],
      "name": "renounceOwnership",
      "outputs": [],
      "stateMutability": "nonpayable",
      "type": "function"
    },
    {
      "inputs": [
        {
          "internalType": "address",
          "name": "from",
          "type": "address"
        },
        {
          "internalType": "address",
          "name": "to",
          "type": "address"
        },
        {
          "internalType": "uint256[]",
          "name": "ids",
          "type": "uint256[]"
        },
        {
          "internalType": "uint256[]",
          "name": "amounts",
          "type": "uint256[]"
        },
        {
          "internalType": "bytes",
          "name": "data",
          "type": "bytes"
        }
      ],
      "name": "safeBatchTransferFrom",
      "outputs": [],
      "stateMutability": "nonpayable",
      "type": "function"
    },
    {
      "inputs": [
        {
          "internalType": "address",
          "name": "from",
          "type": "address"
        },
        {
          "internalType": "address",
          "name": "to",
          "type": "address"
        },
        {
          "internalType": "uint256",
          "name": "id",
          "type": "uint256"
        },
        {
          "internalType": "uint256",
          "name": "amount",
          "type": "uint256"
        },
        {
          "internalType": "bytes",
          "name": "data",
          "type": "bytes"
        }
      ],
      "name": "safeTransferFrom",
      "outputs": [],
      "stateMutability": "nonpayable",
      "type": "function"
    },
    {
      "inputs": [],
      "name": "saleId",
      "outputs": [
        {
          "internalType": "string",
          "name": "",
          "type": "string"
        }
      ],
      "stateMutability": "view",
      "type": "function"
    },
    {
      "inputs": [],
      "name": "saleType",
      "outputs": [
        {
          "internalType": "string",
          "name": "",
          "type": "string"
        }
      ],
      "stateMutability": "view",
      "type": "function"
    },
    {
      "inputs": [
        {
          "internalType": "address",
          "name": "operator",
          "type": "address"
        },
        {
          "internalType": "bool",
          "name": "approved",
          "type": "bool"
        }
      ],
      "name": "setApprovalForAll",
      "outputs": [],
      "stateMutability": "nonpayable",
      "type": "function"
    },
    {
      "inputs": [],
      "name": "setDropApproval",
      "outputs": [],
      "stateMutability": "nonpayable",
      "type": "function"
    },
    {
      "inputs": [
        {
          "internalType": "uint256",
          "name": "_fee",
          "type": "uint256"
        },
        {
          "internalType": "address",
          "name": "_wallet",
          "type": "address"
        }
      ],
      "name": "setDropFee",
      "outputs": [],
      "stateMutability": "nonpayable",
      "type": "function"
    },
    {
      "inputs": [
        {
          "internalType": "uint256",
          "name": "_version",
          "type": "uint256"
        }
      ],
      "name": "setVersion",
      "outputs": [],
      "stateMutability": "nonpayable",
      "type": "function"
    },
    {
      "inputs": [],
      "name": "signerAddress",
      "outputs": [
        {
          "internalType": "address",
          "name": "",
          "type": "address"
        }
      ],
      "stateMutability": "view",
      "type": "function"
    },
    {
      "inputs": [
        {
          "internalType": "bytes4",
          "name": "interfaceId",
          "type": "bytes4"
        }
      ],
      "name": "supportsInterface",
      "outputs": [
        {
          "internalType": "bool",
          "name": "",
          "type": "bool"
        }
      ],
      "stateMutability": "view",
      "type": "function"
    },
    {
      "inputs": [],
      "name": "symbol",
      "outputs": [
        {
          "internalType": "string",
          "name": "",
          "type": "string"
        }
      ],
      "stateMutability": "view",
      "type": "function"
    },
    {
      "inputs": [],
      "name": "totalMint",
      "outputs": [
        {
          "internalType": "uint256",
          "name": "",
          "type": "uint256"
        }
      ],
      "stateMutability": "view",
      "type": "function"
    },
    {
      "inputs": [],
      "name": "totalMintReferral",
      "outputs": [
        {
          "internalType": "uint256",
          "name": "",
          "type": "uint256"
        }
      ],
      "stateMutability": "view",
      "type": "function"
    },
    {
      "inputs": [
        {
          "internalType": "address[]",
          "name": "affiliatedUser",
          "type": "address[]"
        }
      ],
      "name": "transferAffiliatedFunds",
      "outputs": [],
      "stateMutability": "nonpayable",
      "type": "function"
    },
    {
      "inputs": [
        {
          "internalType": "address",
          "name": "newOwner",
          "type": "address"
        }
      ],
      "name": "transferOwnership",
      "outputs": [],
      "stateMutability": "nonpayable",
      "type": "function"
    },
    {
      "inputs": [
        {
          "internalType": "uint256",
          "name": "_publicSaleMintCost",
          "type": "uint256"
        },
        {
          "internalType": "uint256",
          "name": "_publicSaleStartTime",
          "type": "uint256"
        },
        {
          "internalType": "uint256",
          "name": "_publicSaleDuration",
          "type": "uint256"
        },
        {
          "internalType": "uint256",
          "name": "_maxTokenPerMintPublicSale",
          "type": "uint256"
        },
        {
          "internalType": "uint256",
          "name": "_maxTokenPerPersonPublicSale",
          "type": "uint256"
        }
      ],
      "name": "updatePublicSale",
      "outputs": [],
      "stateMutability": "nonpayable",
      "type": "function"
    },
    {
      "inputs": [
        {
          "internalType": "address",
          "name": "_signerAddress",
          "type": "address"
        }
      ],
      "name": "updateSignerAddress",
      "outputs": [],
      "stateMutability": "nonpayable",
      "type": "function"
    },
    {
      "inputs": [
        {
          "internalType": "string",
          "name": "_uri",
          "type": "string"
        }
      ],
      "name": "updateURI",
      "outputs": [],
      "stateMutability": "nonpayable",
      "type": "function"
    },
    {
      "inputs": [
        {
          "internalType": "uint256",
          "name": "_tokenId",
          "type": "uint256"
        }
      ],
      "name": "uri",
      "outputs": [
        {
          "internalType": "string",
          "name": "",
          "type": "string"
        }
      ],
      "stateMutability": "view",
      "type": "function"
    },
    {
      "inputs": [],
      "name": "version",
      "outputs": [
        {
          "internalType": "uint256",
          "name": "",
          "type": "uint256"
        }
      ],
      "stateMutability": "view",
      "type": "function"
    },
    {
      "inputs": [
        {
          "internalType": "address[]",
          "name": "affiliatedUser",
          "type": "address[]"
        }
      ],
      "name": "withdrawAffiliatedFunds",
      "outputs": [],
      "stateMutability": "nonpayable",
      "type": "function"
    },
    {
      "inputs": [
        {
          "internalType": "uint256",
          "name": "_amount",
          "type": "uint256"
        }
      ],
      "name": "withdrawWei",
      "outputs": [],
      "stateMutability": "nonpayable",
      "type": "function"
    }
  ],
  "bytecode": "0x608060405234801561001057600080fd5b50614440806100206000396000f3fe60806040526004361061034f5760003560e01c806386233071116101c6578063ba3c944e116100f7578063d994a85711610095578063f242432a1161006f578063f242432a14610952578063f2fde38b14610972578063f32882cd14610992578063f32a3256146109a957600080fd5b8063d994a857146108db578063e985e9c5146108f2578063f071db5a1461093b57600080fd5b8063c45a0155116100d1578063c45a015514610877578063c84c038714610898578063d5abeb01146108ad578063d70c764a146108c457600080fd5b8063ba3c944e1461082b578063bacacaa014610842578063c30f4a5a1461085757600080fd5b80639abc832011610164578063a7f463671161013e578063a7f46367146107a9578063a829f0b5146107c9578063b3f00674146107f7578063ba1676e21461081857600080fd5b80639abc832014610754578063a22cb46514610769578063a25a2b4b1461078957600080fd5b80638da5cb5b116101a05780638da5cb5b146106e15780638fa2a9f0146106ff57806395d89b411461071f578063986646a71461073457600080fd5b8063862330711461069e578063887ce3ca146106b357806388ba7aa0146106ca57600080fd5b8063408def1e116102a05780635b7633d01161023e578063662f5c7f11610218578063662f5c7f146106325780636bb7b1d914610652578063715018a614610669578063829b917b1461067e57600080fd5b80635b7633d0146105c45780635bcc7928146105fd5780636433972b1461061257600080fd5b80634e1273f41161027a5780634e1273f41461055757806352188a391461058457806354fd4d501461059757806359a7715a146105ae57600080fd5b8063408def1e1461050057806340a6e3cd14610520578063473c79fa1461053757600080fd5b80630e89341c1161030d5780632eb2c2d6116102e75780632eb2c2d6146104925780633102b6d0146104b2578063347bd980146104c95780633dad116a146104e057600080fd5b80630e89341c1461043b5780631e4d185f1461045b5780632340fac21461047257600080fd5b8062fdd58e1461035457806301ffc9a71461038757806306fdde03146103b757806308674b35146103d95780630b7c5c2f146103f95780630d6f85631461041b575b600080fd5b34801561036057600080fd5b5061037461036f36600461348d565b6109d7565b6040519081526020015b60405180910390f35b34801561039357600080fd5b506103a76103a23660046134cd565b610a72565b604051901515815260200161037e565b3480156103c357600080fd5b506103cc610ac2565b60405161037e919061353a565b3480156103e557600080fd5b506103746103f436600461348d565b610b50565b34801561040557600080fd5b5061041961041436600461362a565b610bd7565b005b34801561042757600080fd5b5061041961043636600461365e565b610d27565b34801561044757600080fd5b506103cc61045636600461365e565b610f3a565b34801561046757600080fd5b506103746101015481565b34801561047e57600080fd5b5061041961048d36600461362a565b610f6e565b34801561049e57600080fd5b506104196104ad366004613750565b6111d4565b3480156104be57600080fd5b506103746101035481565b3480156104d557600080fd5b5061037461010a5481565b3480156104ec57600080fd5b506103746104fb3660046137f9565b611220565b34801561050c57600080fd5b5061041961051b36600461365e565b6112ad565b34801561052c57600080fd5b506103746101105481565b34801561054357600080fd5b5061037461055236600461383d565b6112bb565b34801561056357600080fd5b50610577610572366004613879565b611345565b60405161037e9190613917565b61041961059236600461365e565b61146e565b3480156105a357600080fd5b506103746101145481565b3480156105ba57600080fd5b5061037460fe5481565b3480156105d057600080fd5b5061010b546105e5906001600160a01b031681565b6040516001600160a01b03909116815260200161037e565b34801561060957600080fd5b506103cc61147a565b34801561061e57600080fd5b5061041961062d36600461392a565b611488565b34801561063e57600080fd5b5061041961064d3660046139d4565b611691565b34801561065e57600080fd5b506103746101005481565b34801561067557600080fd5b50610419611a96565b34801561068a57600080fd5b506103a7610699366004613ad2565b611aaa565b3480156106aa57600080fd5b506103a7611acf565b3480156106bf57600080fd5b506103746101055481565b3480156106d657600080fd5b506103746101115481565b3480156106ed57600080fd5b506097546001600160a01b03166105e5565b34801561070b57600080fd5b5061041961071a366004613b0e565b611aec565b34801561072b57600080fd5b506103cc611b57565b34801561074057600080fd5b5061041961074f36600461362a565b611b64565b34801561076057600080fd5b506103cc611d8c565b34801561077557600080fd5b50610419610784366004613b29565b611d99565b34801561079557600080fd5b506104196107a4366004613b65565b611da4565b3480156107b557600080fd5b506104196107c4366004613bf2565b611ddf565b3480156107d557600080fd5b506103746107e4366004613b0e565b6101086020526000908152604090205481565b34801561080357600080fd5b5061010c546105e5906001600160a01b031681565b610419610826366004613c1e565b611e4b565b34801561083757600080fd5b5061037461010e5481565b34801561084e57600080fd5b50610419611e5d565b34801561086357600080fd5b50610419610872366004613c7e565b611eec565b34801561088357600080fd5b5061010d546105e5906001600160a01b031681565b3480156108a457600080fd5b506103cc611efd565b3480156108b957600080fd5b506103746101025481565b3480156108d057600080fd5b506103746101075481565b3480156108e757600080fd5b506103746101065481565b3480156108fe57600080fd5b506103a761090d366004613cb2565b6001600160a01b03918216600090815260666020908152604080832093909416825291909152205460ff1690565b34801561094757600080fd5b5061037461010f5481565b34801561095e57600080fd5b5061041961096d366004613cdc565b611f0b565b34801561097e57600080fd5b5061041961098d366004613b0e565b611f50565b34801561099e57600080fd5b506103746101125481565b3480156109b557600080fd5b506103746109c4366004613b0e565b6101096020526000908152604090205481565b60006001600160a01b038316610a475760405162461bcd60e51b815260206004820152602a60248201527f455243313135353a2061646472657373207a65726f206973206e6f742061207660448201526930b634b21037bbb732b960b11b60648201526084015b60405180910390fd5b5060008181526065602090815260408083206001600160a01b03861684529091529020545b92915050565b60006001600160e01b03198216636cdb3d1360e11b1480610aa357506001600160e01b031982166303a24d0760e21b145b80610a6c57506301ffc9a760e01b6001600160e01b0319831614610a6c565b60fb8054610acf90613d40565b80601f0160208091040260200160405190810160405280929190818152602001828054610afb90613d40565b8015610b485780601f10610b1d57610100808354040283529160200191610b48565b820191906000526020600020905b815481529060010190602001808311610b2b57829003601f168201915b505050505081565b60008083468461010430604051602001610b6e959493929190613ded565b60408051601f198184030181529082905280516020918201207f19457468657265756d205369676e6564204d6573736167653a0a33320000000091830191909152603c820152605c0160408051808303601f190181529190528051602090910120949350505050565b610bed81516000141561010a5460001415611fc6565b610c2f5760405162461bcd60e51b81526020600482015260136024820152724e6f7468696e6720746f20776974686472617760681b6044820152606401610a3e565b60005b8151811015610d23576000828281518110610c4f57610c4f613e2f565b6020026020010151604051602001610ca591907f4e6f2062616c616e636520746f207472616e7366657220666f72200000000000815260609190911b6bffffffffffffffffffffffff1916601b820152602f0190565b60405160208183030381529060405290506101096000848481518110610ccd57610ccd613e2f565b60200260200101516001600160a01b03166001600160a01b0316815260200190815260200160002054600014158190610d195760405162461bcd60e51b8152600401610a3e919061353a565b5050600101610c32565b5050565b610d2f611fd9565b600260c95403610d815760405162461bcd60e51b815260206004820152601f60248201527f5265656e7472616e637947756172643a207265656e7472616e742063616c6c006044820152606401610a3e565b600260c95580610dbe5760405162461bcd60e51b81526020600482015260086024820152670416d6f756e743e360c41b6044820152606401610a3e565b60008161010a5447031015610e065760405162461bcd60e51b815260206004820152600e60248201526d09cdee840cadcdeeaced040cae8d60931b6044820152606401610a3e565b61271061010e54830281610e1c57610e1c613e45565b049050600033610e2c8385613e71565b604051600081818185875af1925050503d8060008114610e68576040519150601f19603f3d011682016040523d82523d6000602084013e610e6d565b606091505b5050905080610eab5760405162461bcd60e51b815260206004820152600a6024820152692a3c103330b4b632b21760b11b6044820152606401610a3e565b8115610f305761010c546040516000916001600160a01b03169084908381818185875af1925050503d8060008114610eff576040519150601f19603f3d011682016040523d82523d6000602084013e610f04565b606091505b5050905080610f255760405162461bcd60e51b8152600401610a3e90613e84565b5061010f8054830190555b5050600160c95550565b606060fd610f4783612033565b604051602001610f58929190613eac565b6040516020818303038152906040529050919050565b610f76611fd9565b610f7e61213b565b600260c95403610fd05760405162461bcd60e51b815260206004820152601f60248201527f5265656e7472616e637947756172643a207265656e7472616e742063616c6c006044820152606401610a3e565b600260c955610fde81610bd7565b60008060008060005b855181101561113857610109600087838151811061100757611007613e2f565b60200260200101516001600160a01b03166001600160a01b0316815260200190815260200160002054945061271061010e5486028161104857611048613e45565b0491506000610109600088848151811061106457611064613e2f565b60200260200101516001600160a01b03166001600160a01b03168152602001908152602001600020819055506000336001600160a01b031683876110a89190613e71565b604051600081818185875af1925050503d80600081146110e4576040519150601f19603f3d011682016040523d82523d6000602084013e6110e9565b606091505b50509050806111275760405162461bcd60e51b815260206004820152600a6024820152692a3c103330b4b632b21760b11b6044820152606401610a3e565b509284019291810191600101610fe7565b5061010a8054849003905581156111c85761010c546040516000916001600160a01b03169084908381818185875af1925050503d8060008114611197576040519150601f19603f3d011682016040523d82523d6000602084013e61119c565b606091505b50509050806111bd5760405162461bcd60e51b8152600401610a3e90613e84565b5061010f8054830190555b5050600160c955505050565b6001600160a01b0385163314806111f057506111f0853361090d565b61120c5760405162461bcd60e51b8152600401610a3e90613ed1565b611219858585858561218e565b5050505050565b6000808546868686610104306040516020016112429796959493929190613f20565b60408051601f198184030181529082905280516020918201207f19457468657265756d205369676e6564204d6573736167653a0a33320000000091830191909152603c820152605c0160408051808303601f1901815291905280516020909101209695505050505050565b6112b5611fd9565b61011455565b60008084468585610104306040516020016112db96959493929190613f75565b60408051601f198184030181529082905280516020918201207f19457468657265756d205369676e6564204d6573736167653a0a33320000000091830191909152603c820152605c0160408051808303601f19018152919052805160209091012095945050505050565b606081518351146113aa5760405162461bcd60e51b815260206004820152602960248201527f455243313135353a206163636f756e747320616e6420696473206c656e677468604482015268040dad2e6dac2e8c6d60bb1b6064820152608401610a3e565b600083516001600160401b038111156113c5576113c561354d565b6040519080825280602002602001820160405280156113ee578160200160208202803683370190505b50905060005b84518110156114665761143985828151811061141257611412613e2f565b602002602001015185838151811061142c5761142c613e2f565b60200260200101516109d7565b82828151811061144b5761144b613e2f565b602090810291909101015261145f81613fc3565b90506113f4565b509392505050565b6114778161236e565b50565b6101138054610acf90613d40565b611490611fd9565b6114af6114a4610100544210428711611fc6565b8561010054146123c5565b6114f05760405162461bcd60e51b8152602060048201526012602482015271496e76616c69642053746172742054696d6560701b6044820152606401610a3e565b6101015442106115515760405162461bcd60e51b815260206004820152602660248201527f546865207075626c69632073616c6520697320656e6465642063616e6e6f742060448201526575706461746560d01b6064820152608401610a3e565b606485116115965760405162461bcd60e51b8152602060048201526012602482015271125b9d985b1a5908151bdad95b8818dbdcdd60721b6044820152606401610a3e565b600083116115df5760405162461bcd60e51b815260206004820152601660248201527505075626c69632073616c65206475726174696f6e3e360541b6044820152606401610a3e565b6115fe600083116115f96101025484111585851015611fc6565b611fc6565b6116675760405162461bcd60e51b815260206004820152603460248201527f4d6178696d756d20746f6b656e206d696e7465642070657220706572736f6e2f6044820152731c195c881b5a5b9d081b9bdd0818dbdc9c9958dd60621b6064820152608401610a3e565b61010585905561010084905561167d8385613fdc565b610101556101069190915561010755505050565b600054610100900460ff16158080156116b15750600054600160ff909116105b806116cb5750303b1580156116cb575060005460ff166001145b61172e5760405162461bcd60e51b815260206004820152602e60248201527f496e697469616c697a61626c653a20636f6e747261637420697320616c72656160448201526d191e481a5b9a5d1a585b1a5e995960921b6064820152608401610a3e565b6000805460ff191660011790558015611751576000805461ff0019166101001790555b600085116117a15760405162461bcd60e51b815260206004820152601860248201527f496e69743a20496e76616c6964206d617820737570706c7900000000000000006044820152606401610a3e565b82516064106117f25760405162461bcd60e51b815260206004820152601860248201527f496e69743a20496e76616c696420546f6b656e20636f737400000000000000006044820152606401610a3e565b82602001514211156118465760405162461bcd60e51b815260206004820152601860248201527f496e69743a20496e76616c69642053746172742054696d6500000000000000006044820152606401610a3e565b600083604001511161189a5760405162461bcd60e51b815260206004820152601760248201527f496e69743a2073616c65206475726174696f6e203e20300000000000000000006044820152606401610a3e565b60008360600151116119065760405162461bcd60e51b815260206004820152602f60248201527f496e69743a204d6178696d756d20746f6b656e20706572206d696e7420696e2060448201526e07075626c69632073616c65203e203608c1b6064820152608401610a3e565b6119228360600151846080015110158685608001511115611fc6565b6119855760405162461bcd60e51b815260206004820152602e60248201527f496e69743a20496e76616c6964204d6178546f6b656e506572506572736f6e2060448201526d6f66207075626c69632073616c6560901b6064820152608401610a3e565b61198e866123d5565b611996612405565b60fb6119a28a82614035565b5060fc6119af8982614035565b506101136119bd8882614035565b5060fd6119ca8782614035565b506101028590556101046119de8582614035565b50825161010555602083015161010081905560408401516119fe91613fdc565b6101015560608301516101065560808301516101075561010b80546001600160a01b0384166001600160a01b03199182161790915560016101145561010d8054909116331790558015611a8b576000805461ff0019169055604051600181527f7f26b83ff96e1f2b6a682f133852f6798a09c465da95921460cefb38474024989060200160405180910390a15b505050505050505050565b611a9e611fd9565b611aa86000612434565b565b6000611ab68383612486565b61010b546001600160a01b039182169116149392505050565b6000611ae76101005442101561010154421115611fc6565b905090565b611af4611fd9565b6001600160a01b038116611b345760405162461bcd60e51b815260206004820152600760248201526610b9b4b3b732b960c91b6044820152606401610a3e565b61010b80546001600160a01b0319166001600160a01b0392909216919091179055565b60fc8054610acf90613d40565b611b6c611fd9565b611b7461213b565b611b7d81610bd7565b60008060008060005b8551811015611cf6576101096000878381518110611ba657611ba6613e2f565b60200260200101516001600160a01b03166001600160a01b0316815260200190815260200160002054945061271061010e54860281611be757611be7613e45565b04915060006101096000888481518110611c0357611c03613e2f565b60200260200101516001600160a01b03166001600160a01b03168152602001908152602001600020819055506000868281518110611c4357611c43613e2f565b60200260200101516001600160a01b03168387611c609190613e71565b604051600081818185875af1925050503d8060008114611c9c576040519150601f19603f3d011682016040523d82523d6000602084013e611ca1565b606091505b5050905080611ce55760405162461bcd60e51b815260206004820152601060248201526f2a3930b739b332b9103330b4b632b21760811b6044820152606401610a3e565b509284019291810191600101611b86565b5061010a8054849003905581156112195761010c546040516000916001600160a01b03169084908381818185875af1925050503d8060008114611d55576040519150601f19603f3d011682016040523d82523d6000602084013e611d5a565b606091505b5050905080611d7b5760405162461bcd60e51b8152600401610a3e90613e84565b5061010f8054830190555050505050565b60fd8054610acf90613d40565b610d233383836124a2565b60016101105414611dc75760405162461bcd60e51b8152600401610a3e906140f4565b611dcf611fd9565b611dda838383612582565b505050565b61010d546001600160a01b03163314611e225760405162461bcd60e51b8152602060048201526005602482015264042c2eae8d60db1b6044820152606401610a3e565b61010e9190915561010c80546001600160a01b0319166001600160a01b03909216919091179055565b611e57848484846125dd565b50505050565b61010d546001600160a01b03163314611ea05760405162461bcd60e51b8152602060048201526005602482015264042c2eae8d60db1b6044820152606401610a3e565b6101105415611ee45760405162461bcd60e51b815260206004820152601060248201526f185b1c9958591e48185c1c1c9bdd995960821b6044820152606401610a3e565b600161011055565b611ef4611fd9565b61147781612712565b6101048054610acf90613d40565b6001600160a01b038516331480611f275750611f27853361090d565b611f435760405162461bcd60e51b8152600401610a3e90613ed1565b6112198585858585612762565b611f58611fd9565b6001600160a01b038116611fbd5760405162461bcd60e51b815260206004820152602660248201527f4f776e61626c653a206e6577206f776e657220697320746865207a65726f206160448201526564647265737360d01b6064820152608401610a3e565b61147781612434565b6000828015611fd25750815b9392505050565b6097546001600160a01b03163314611aa85760405162461bcd60e51b815260206004820181905260248201527f4f776e61626c653a2063616c6c6572206973206e6f7420746865206f776e65726044820152606401610a3e565b60608160000361205a5750506040805180820190915260018152600360fc1b602082015290565b8160005b8115612084578061206e81613fc3565b915061207d9050600a83614117565b915061205e565b6000816001600160401b0381111561209e5761209e61354d565b6040519080825280601f01601f1916602001820160405280156120c8576020820181803683370190505b5090505b8415612133576120dd600183613e71565b91506120ea600a8661412b565b6120f5906030613fdc565b60f81b81838151811061210a5761210a613e2f565b60200101906001600160f81b031916908160001a90535061212c600a86614117565b94506120cc565b949350505050565b61010154421015611aa85760405162461bcd60e51b815260206004820152601960248201527f7075626c69632073616c65206e6f742079657420656e646564000000000000006044820152606401610a3e565b81518351146121f05760405162461bcd60e51b815260206004820152602860248201527f455243313135353a2069647320616e6420616d6f756e7473206c656e677468206044820152670dad2e6dac2e8c6d60c31b6064820152608401610a3e565b6001600160a01b0384166122165760405162461bcd60e51b8152600401610a3e9061413f565b3360005b845181101561230057600085828151811061223757612237613e2f565b60200260200101519050600085838151811061225557612255613e2f565b60209081029190910181015160008481526065835260408082206001600160a01b038e1683529093529190912054909150818110156122a65760405162461bcd60e51b8152600401610a3e90614184565b60008381526065602090815260408083206001600160a01b038e8116855292528083208585039055908b168252812080548492906122e5908490613fdc565b92505081905550505050806122f990613fc3565b905061221a565b50846001600160a01b0316866001600160a01b0316826001600160a01b03167f4a39dc06d4c0dbc64b70af90fd698a233a518aa5d07e595d983b8c0526c8f7fb87876040516123509291906141ce565b60405180910390a4612366818787878787612885565b505050505050565b600161011054146123915760405162461bcd60e51b8152600401610a3e906140f4565b6123996129e9565b6123a281612a34565b6123ac3382612b92565b3360009081526101086020526040902080549091019055565b60008280611fd257509092915050565b600054610100900460ff166123fc5760405162461bcd60e51b8152600401610a3e906141fc565b61147781612be9565b600054610100900460ff1661242c5760405162461bcd60e51b8152600401610a3e906141fc565b611aa8612c19565b609780546001600160a01b038381166001600160a01b0319831681179093556040519116919082907f8be0079c531659141344cd1fd0a4f28419497f9722a3daafe3b4186f6b6457e090600090a35050565b60008060006124958585612c49565b9150915061146681612cb7565b816001600160a01b0316836001600160a01b0316036125155760405162461bcd60e51b815260206004820152602960248201527f455243313135353a2073657474696e6720617070726f76616c20737461747573604482015268103337b91039b2b63360b91b6064820152608401610a3e565b6001600160a01b03838116600081815260666020908152604080832094871680845294825291829020805460ff191686151590811790915591519182527f17307eab39ab6107e8899845ad3d59bd9653f200f220920489ca2b5937696c31910160405180910390a3505050565b61258a612e6d565b8035156125d25760405162461bcd60e51b815260206004820152601660248201527541697264726f703a496e76616c69642073686172657360501b6044820152606401610a3e565b611dda838383612ec4565b600161011054146126005760405162461bcd60e51b8152600401610a3e906140f4565b6126086129e9565b6001600160a01b0383166126465760405162461bcd60e51b815260206004820152600560248201526410bab9b2b960d91b6044820152606401610a3e565b60006126533385856112bb565b905061265f8183611aaa565b61269f5760405162461bcd60e51b8152602060048201526011602482015270696e76616c69642d7369676e617475726560781b6044820152606401610a3e565b6126a885612a34565b6126b23386612b92565b5050610103805484019055610105546001600160a01b0392909216600090815261010960209081526040808320805460649590960287029490940494850190935561010a8054909401909355338152610108909252902080549091019055565b61271b81613063565b60fd6127278282614035565b507f3d7a9962f6da134f6896430d6867bd08e3546dbf9570df877e7cec39ba4305f081604051612757919061353a565b60405180910390a150565b6001600160a01b0384166127885760405162461bcd60e51b8152600401610a3e9061413f565b3360006127948561306f565b905060006127a18561306f565b905060008681526065602090815260408083206001600160a01b038c168452909152902054858110156127e65760405162461bcd60e51b8152600401610a3e90614184565b60008781526065602090815260408083206001600160a01b038d8116855292528083208985039055908a16825281208054889290612825908490613fdc565b909155505060408051888152602081018890526001600160a01b03808b16928c821692918816917fc3d58168c5ae7397731d063d5bbf3d657854427343f4c083240f7aacaa2d0f62910160405180910390a4611a8b848a8a8a8a8a6130ba565b6001600160a01b0384163b156123665760405163bc197c8160e01b81526001600160a01b0385169063bc197c81906128c99089908990889088908890600401614247565b6020604051808303816000875af1925050508015612904575060408051601f3d908101601f19168201909252612901918101906142a5565b60015b6129b0576129106142c2565b806308c379a00361294957506129246142de565b8061292f575061294b565b8060405162461bcd60e51b8152600401610a3e919061353a565b505b60405162461bcd60e51b815260206004820152603460248201527f455243313135353a207472616e7366657220746f206e6f6e20455243313135356044820152732932b1b2b4bb32b91034b6b83632b6b2b73a32b960611b6064820152608401610a3e565b6001600160e01b0319811663bc197c8160e01b146129e05760405162461bcd60e51b8152600401610a3e90614367565b50505050505050565b6129f1611acf565b611aa85760405162461bcd60e51b81526020600482015260146024820152735075626c69632053616c652d6e6f74206c69766560601b6044820152606401610a3e565b612a476000821161010654831115611fc6565b612a8c5760405162461bcd60e51b8152602060048201526016602482015275496e76616c696420546f6b656e205175616e7469747960501b6044820152606401610a3e565b610102548160fe54011115612ad85760405162461bcd60e51b815260206004820152601260248201527132bc31b2b2b21036b0bc1039bab838363c9760711b6044820152606401610a3e565b348161010554021115612b2d5760405162461bcd60e51b815260206004820152601760248201527f706179206d696e696d756d20746f6b656e2070726963650000000000000000006044820152606401610a3e565b610107543360009081526101086020526040902054820111156114775760405162461bcd60e51b815260206004820152601c60248201527f657863656564206d6178696d756d20616c6c6f776564206c696d6974000000006044820152606401610a3e565b6000805b82811015611e5757612ba6613175565b9150612bb460fe5460010190565b60fe81905550612be18483600160405180604001604052806002815260200161060f60f31b8152506131d5565b600101612b96565b600054610100900460ff16612c105760405162461bcd60e51b8152600401610a3e906141fc565b61147781613063565b600054610100900460ff16612c405760405162461bcd60e51b8152600401610a3e906141fc565b611aa833612434565b6000808251604103612c7f5760208301516040840151606085015160001a612c73878285856132e2565b94509450505050612cb0565b8251604003612ca85760208301516040840151612c9d8683836133cf565b935093505050612cb0565b506000905060025b9250929050565b6000816004811115612ccb57612ccb6143af565b03612cd35750565b6001816004811115612ce757612ce76143af565b03612d345760405162461bcd60e51b815260206004820152601860248201527f45434453413a20696e76616c6964207369676e617475726500000000000000006044820152606401610a3e565b6002816004811115612d4857612d486143af565b03612d955760405162461bcd60e51b815260206004820152601f60248201527f45434453413a20696e76616c6964207369676e6174757265206c656e677468006044820152606401610a3e565b6003816004811115612da957612da96143af565b03612e015760405162461bcd60e51b815260206004820152602260248201527f45434453413a20696e76616c6964207369676e6174757265202773272076616c604482015261756560f01b6064820152608401610a3e565b6004816004811115612e1557612e156143af565b036114775760405162461bcd60e51b815260206004820152602260248201527f45434453413a20696e76616c6964207369676e6174757265202776272076616c604482015261756560f01b6064820152608401610a3e565b612e816101005442106101015442116123c5565b611aa85760405162461bcd60e51b815260206004820152601460248201527341697264726f703a496e76616c69642054696d6560601b6044820152606401610a3e565b81612eda81151583356020850135018314611fc6565b612f265760405162461bcd60e51b815260206004820152601760248201527f41697264726f703a204d69736d617463682d496e7075740000000000000000006044820152606401610a3e565b6101025460fe5482011115612f7d5760405162461bcd60e51b815260206004820152601b60248201527f41697264726f703a2065786365656473206d617820537570706c7900000000006044820152606401610a3e565b60005b81811015611219576000858583818110612f9c57612f9c613e2f565b9050602002016020810190612fb19190613b0e565b6001600160a01b031603612ffb5760405162461bcd60e51b8152602060048201526011602482015270125b9d985b1a59081c9958da5c1a595b9d607a1b6044820152606401610a3e565b613003613408565b60fe5460010160fe5561305b85858381811061302157613021613e2f565b90506020020160208101906130369190613b0e565b60ff54600160405180604001604052806002815260200161060f60f31b8152506131d5565b600101612f80565b6067610d238282614035565b604080516001808252818301909252606091600091906020808301908036833701905050905082816000815181106130a9576130a9613e2f565b602090810291909101015292915050565b6001600160a01b0384163b156123665760405163f23a6e6160e01b81526001600160a01b0385169063f23a6e61906130fe90899089908890889088906004016143c5565b6020604051808303816000875af1925050508015613139575060408051601f3d908101601f19168201909252613136918101906142a5565b60015b613145576129106142c2565b6001600160e01b0319811663f23a6e6160e01b146129e05760405162461bcd60e51b8152600401610a3e90614367565b60006101025460fe5411156131c05760405162461bcd60e51b8152602060048201526011602482015270657863656564206d617820537570706c7960781b6044820152606401610a3e565b6131ce60ff80546001019055565b5060ff5490565b6001600160a01b0384166132355760405162461bcd60e51b815260206004820152602160248201527f455243313135353a206d696e7420746f20746865207a65726f206164647265736044820152607360f81b6064820152608401610a3e565b3360006132418561306f565b9050600061324e8561306f565b905060008681526065602090815260408083206001600160a01b038b16845290915281208054879290613282908490613fdc565b909155505060408051878152602081018790526001600160a01b03808a1692600092918716917fc3d58168c5ae7397731d063d5bbf3d657854427343f4c083240f7aacaa2d0f62910160405180910390a46129e0836000898989896130ba565b6000807f7fffffffffffffffffffffffffffffff5d576e7357a4501ddfe92f46681b20a083111561331957506000905060036133c6565b8460ff16601b1415801561333157508460ff16601c14155b1561334257506000905060046133c6565b6040805160008082526020820180845289905260ff881692820192909252606081018690526080810185905260019060a0016020604051602081039080840390855afa158015613396573d6000803e3d6000fd5b5050604051601f1901519150506001600160a01b0381166133bf576000600192509250506133c6565b9150600090505b94509492505050565b6000806001600160ff1b038316816133ec60ff86901c601b613fdc565b90506133fa878288856132e2565b935093505050935093915050565b6134216101025460fe5411156101025460ff5410611fc6565b6134635760405162461bcd60e51b8152602060048201526013602482015272105b1b0815985b1d595cc8185cdcda59db9959606a1b6044820152606401610a3e565b611aa860ff80546001019055565b80356001600160a01b038116811461348857600080fd5b919050565b600080604083850312156134a057600080fd5b6134a983613471565b946020939093013593505050565b6001600160e01b03198116811461147757600080fd5b6000602082840312156134df57600080fd5b8135611fd2816134b7565b60005b838110156135055781810151838201526020016134ed565b50506000910152565b600081518084526135268160208601602086016134ea565b601f01601f19169290920160200192915050565b602081526000611fd2602083018461350e565b634e487b7160e01b600052604160045260246000fd5b601f8201601f191681016001600160401b03811182821017156135885761358861354d565b6040525050565b60006001600160401b038211156135a8576135a861354d565b5060051b60200190565b600082601f8301126135c357600080fd5b813560206135d08261358f565b6040516135dd8282613563565b83815260059390931b85018201928281019150868411156135fd57600080fd5b8286015b8481101561361f5761361281613471565b8352918301918301613601565b509695505050505050565b60006020828403121561363c57600080fd5b81356001600160401b0381111561365257600080fd5b612133848285016135b2565b60006020828403121561367057600080fd5b5035919050565b600082601f83011261368857600080fd5b813560206136958261358f565b6040516136a28282613563565b83815260059390931b85018201928281019150868411156136c257600080fd5b8286015b8481101561361f57803583529183019183016136c6565b600082601f8301126136ee57600080fd5b81356001600160401b038111156137075761370761354d565b60405161371e601f8301601f191660200182613563565b81815284602083860101111561373357600080fd5b816020850160208301376000918101602001919091529392505050565b600080600080600060a0868803121561376857600080fd5b61377186613471565b945061377f60208701613471565b935060408601356001600160401b038082111561379b57600080fd5b6137a789838a01613677565b945060608801359150808211156137bd57600080fd5b6137c989838a01613677565b935060808801359150808211156137df57600080fd5b506137ec888289016136dd565b9150509295509295909350565b6000806000806080858703121561380f57600080fd5b61381885613471565b93506020850135925061382d60408601613471565b9396929550929360600135925050565b60008060006060848603121561385257600080fd5b61385b84613471565b925061386960208501613471565b9150604084013590509250925092565b6000806040838503121561388c57600080fd5b82356001600160401b03808211156138a357600080fd5b6138af868387016135b2565b935060208501359150808211156138c557600080fd5b506138d285828601613677565b9150509250929050565b600081518084526020808501945080840160005b8381101561390c578151875295820195908201906001016138f0565b509495945050505050565b602081526000611fd260208301846138dc565b600080600080600060a0868803121561394257600080fd5b505083359560208501359550604085013594606081013594506080013592509050565b600060a0828403121561397757600080fd5b60405160a081018181106001600160401b03821117156139995761399961354d565b806040525080915082358152602083013560208201526040830135604082015260608301356060820152608083013560808201525092915050565b600080600080600080600080610180898b0312156139f157600080fd5b88356001600160401b0380821115613a0857600080fd5b613a148c838d016136dd565b995060208b0135915080821115613a2a57600080fd5b613a368c838d016136dd565b985060408b0135915080821115613a4c57600080fd5b613a588c838d016136dd565b975060608b0135915080821115613a6e57600080fd5b613a7a8c838d016136dd565b965060808b0135955060a08b0135915080821115613a9757600080fd5b50613aa48b828c016136dd565b935050613ab48a60c08b01613965565b9150613ac36101608a01613471565b90509295985092959890939650565b60008060408385031215613ae557600080fd5b8235915060208301356001600160401b03811115613b0257600080fd5b6138d2858286016136dd565b600060208284031215613b2057600080fd5b611fd282613471565b60008060408385031215613b3c57600080fd5b613b4583613471565b915060208301358015158114613b5a57600080fd5b809150509250929050565b600080600060608486031215613b7a57600080fd5b83356001600160401b0380821115613b9157600080fd5b818601915086601f830112613ba557600080fd5b813581811115613bb457600080fd5b8760208260051b8501011115613bc957600080fd5b60208301955080945050505084606085011115613be557600080fd5b6020840190509250925092565b60008060408385031215613c0557600080fd5b82359150613c1560208401613471565b90509250929050565b60008060008060808587031215613c3457600080fd5b84359350613c4460208601613471565b92506040850135915060608501356001600160401b03811115613c6657600080fd5b613c72878288016136dd565b91505092959194509250565b600060208284031215613c9057600080fd5b81356001600160401b03811115613ca657600080fd5b612133848285016136dd565b60008060408385031215613cc557600080fd5b613cce83613471565b9150613c1560208401613471565b600080600080600060a08688031215613cf457600080fd5b613cfd86613471565b9450613d0b60208701613471565b9350604086013592506060860135915060808601356001600160401b03811115613d3457600080fd5b6137ec888289016136dd565b600181811c90821680613d5457607f821691505b602082108103613d7457634e487b7160e01b600052602260045260246000fd5b50919050565b60008154613d8781613d40565b60018281168015613d9f5760018114613db457613de3565b60ff1984168752821515830287019450613de3565b8560005260208060002060005b85811015613dda5781548a820152908401908201613dc1565b50505082870194505b5050505092915050565b60006001600160601b0319808860601b168352866014840152856034840152613e196054840186613d7a565b60609490941b1683525050601401949350505050565b634e487b7160e01b600052603260045260246000fd5b634e487b7160e01b600052601260045260246000fd5b634e487b7160e01b600052601160045260246000fd5b81810381811115610a6c57610a6c613e5b565b6020808252600e908201526d2332b29d2a3c103330b4b632b21760911b604082015260600190565b6000613eb88285613d7a565b8351613ec88183602088016134ea565b01949350505050565b6020808252602f908201527f455243313135353a2063616c6c6572206973206e6f7420746f6b656e206f776e60408201526e195c881b9bdc88185c1c1c9bdd9959608a1b606082015260800190565b60006001600160601b0319808a60601b168352886014840152876034840152808760601b166054840152856068840152613f5d6088840186613d7a565b60609490941b16835250506014019695505050505050565b60006001600160601b0319808960601b168352876014840152808760601b166034840152856048840152613fac6068840186613d7a565b60609490941b168352505060140195945050505050565b600060018201613fd557613fd5613e5b565b5060010190565b80820180821115610a6c57610a6c613e5b565b601f821115611dda57600081815260208120601f850160051c810160208610156140165750805b601f850160051c820191505b8181101561236657828155600101614022565b81516001600160401b0381111561404e5761404e61354d565b6140628161405c8454613d40565b84613fef565b602080601f831160018114614097576000841561407f5750858301515b600019600386901b1c1916600185901b178555612366565b600085815260208120601f198616915b828110156140c6578886015182559484019460019091019084016140a7565b50858210156140e45787850151600019600388901b60f8161c191681555b5050505050600190811b01905550565b60208082526009908201526808585c1c1c9bdd995960ba1b604082015260600190565b60008261412657614126613e45565b500490565b60008261413a5761413a613e45565b500690565b60208082526025908201527f455243313135353a207472616e7366657220746f20746865207a65726f206164604082015264647265737360d81b606082015260800190565b6020808252602a908201527f455243313135353a20696e73756666696369656e742062616c616e636520666f60408201526939103a3930b739b332b960b11b606082015260800190565b6040815260006141e160408301856138dc565b82810360208401526141f381856138dc565b95945050505050565b6020808252602b908201527f496e697469616c697a61626c653a20636f6e7472616374206973206e6f74206960408201526a6e697469616c697a696e6760a81b606082015260800190565b6001600160a01b0386811682528516602082015260a060408201819052600090614273908301866138dc565b828103606084015261428581866138dc565b90508281036080840152614299818561350e565b98975050505050505050565b6000602082840312156142b757600080fd5b8151611fd2816134b7565b600060033d11156142db5760046000803e5060005160e01c5b90565b600060443d10156142ec5790565b6040516003193d81016004833e81513d6001600160401b03816024840111818411171561431b57505050505090565b82850191508151818111156143335750505050505090565b843d870101602082850101111561434d5750505050505090565b61435c60208286010187613563565b509095945050505050565b60208082526028908201527f455243313135353a204552433131353552656365697665722072656a656374656040820152676420746f6b656e7360c01b606082015260800190565b634e487b7160e01b600052602160045260246000fd5b6001600160a01b03868116825285166020820152604081018490526060810183905260a0608082018190526000906143ff9083018461350e565b97965050505050505056fea2646970667358221220ee7d11735a42568e88e34abdda9d4e02705158cb682ef6e61b9924dac61365d064736f6c63430008110033",
  "linkReferences": {},
  "deployedLinkReferences": {}
}