{
  "_format": "hh-sol-artifact-1",
  "contractName": "DiamondMultiInit",
  "sourceName": "contracts/router_v2/upgradeInitializers/DiamondMultiInit.sol",
  "abi": [
    {
      "inputs": [
        {
          "internalType": "uint256",
          "name": "_addressesLength",
          "type": "uint256"
        },
        {
          "internalType": "uint256",
          "name": "_calldataLength",
          "type": "uint256"
        }
      ],
      "name": "AddressAndCalldataLengthDoNotMatch",
      "type": "error"
    },
    {
      "inputs": [
        {
          "internalType": "address",
          "name": "_initializationContractAddress",
          "type": "address"
        },
        {
          "internalType": "bytes",
          "name": "_calldata",
          "type": "bytes"
        }
      ],
      "name": "InitializationFunctionReverted",
      "type": "error"
    },
    {
      "inputs": [
        {
          "internalType": "address",
          "name": "_contractAddress",
          "type": "address"
        },
        {
          "internalType": "string",
          "name": "_message",
          "type": "string"
        }
      ],
      "name": "NoBytecodeAtAddress",
      "type": "error"
    },
    {
      "inputs": [
        {
          "internalType": "address[]",
          "name": "_addresses",
          "type": "address[]"
        },
        {
          "internalType": "bytes[]",
          "name": "_calldata",
          "type": "bytes[]"
        }
      ],
      "name": "multiInit",
      "outputs": [],
      "stateMutability": "nonpayable",
      "type": "function"
    }
  ],
  "bytecode": "0x608060405234801561001057600080fd5b5061047e806100206000396000f3fe608060405234801561001057600080fd5b506004361061002b5760003560e01c80636e02fa3c14610030575b600080fd5b61004361003e366004610260565b610045565b005b828114610074576040516339a070b360e11b815260048101849052602481018290526044015b60405180910390fd5b60005b8381101561011957610107858583818110610094576100946102cb565b90506020020160208101906100a991906102e1565b8484848181106100bb576100bb6102cb565b90506020028101906100cd9190610311565b8080601f01602080910402602001604051908101604052809392919081815260200183838082843760009201919091525061012092505050565b8061011181610357565b915050610077565b5050505050565b6001600160a01b038216610132575050565b61015482604051806060016040528060288152602001610421602891396101ec565b600080836001600160a01b03168360405161016f91906103ac565b600060405180830381855af49150503d80600081146101aa576040519150601f19603f3d011682016040523d82523d6000602084013e6101af565b606091505b5091509150816101e6578051156101c95780518082602001fd5b838360405163192105d760e01b815260040161006b9291906103f4565b50505050565b813b8061021057828260405163919834b960e01b815260040161006b9291906103f4565b505050565b60008083601f84011261022757600080fd5b5081356001600160401b0381111561023e57600080fd5b6020830191508360208260051b850101111561025957600080fd5b9250929050565b6000806000806040858703121561027657600080fd5b84356001600160401b038082111561028d57600080fd5b61029988838901610215565b909650945060208701359150808211156102b257600080fd5b506102bf87828801610215565b95989497509550505050565b634e487b7160e01b600052603260045260246000fd5b6000602082840312156102f357600080fd5b81356001600160a01b038116811461030a57600080fd5b9392505050565b6000808335601e1984360301811261032857600080fd5b8301803591506001600160401b0382111561034257600080fd5b60200191503681900382131561025957600080fd5b600060001982141561037957634e487b7160e01b600052601160045260246000fd5b5060010190565b60005b8381101561039b578181015183820152602001610383565b838111156101e65750506000910152565b600082516103be818460208701610380565b9190910192915050565b600081518084526103e0816020860160208601610380565b601f01601f19169290920160200192915050565b6001600160a01b0383168152604060208201819052600090610418908301846103c8565b94935050505056fe4c69624469616d6f6e644375743a205f696e6974206164647265737320686173206e6f20636f6465a26469706673582212207700b1c818551b7406200c1a4768717526e9cd22e60bfd8827c5689d0017feb164736f6c634300080b0033",
  "linkReferences": {},
  "deployedLinkReferences": {}
}