{
  "_format": "hh-sol-artifact-1",
  "contractName": "ExampleSwapToPrice",
  "sourceName": "contracts/examples/ExampleSwapToPrice.sol",
  "abi": [
    {
      "inputs": [
        {
          "internalType": "address",
          "name": "factory_",
          "type": "address"
        },
        {
          "internalType": "contract ISafeswapRouter01",
          "name": "router_",
          "type": "address"
        }
      ],
      "stateMutability": "nonpayable",
      "type": "constructor"
    },
    {
      "inputs": [
        {
          "internalType": "uint256",
          "name": "truePriceTokenA",
          "type": "uint256"
        },
        {
          "internalType": "uint256",
          "name": "truePriceTokenB",
          "type": "uint256"
        },
        {
          "internalType": "uint256",
          "name": "reserveA",
          "type": "uint256"
        },
        {
          "internalType": "uint256",
          "name": "reserveB",
          "type": "uint256"
        }
      ],
      "name": "computeProfitMaximizingTrade",
      "outputs": [
        {
          "internalType": "bool",
          "name": "aToB",
          "type": "bool"
        },
        {
          "internalType": "uint256",
          "name": "amountIn",
          "type": "uint256"
        }
      ],
      "stateMutability": "pure",
      "type": "function"
    },
    {
      "inputs": [],
      "name": "factory",
      "outputs": [
        {
          "internalType": "address",
          "name": "",
          "type": "address"
        }
      ],
      "stateMutability": "view",
      "type": "function"
    },
    {
      "inputs": [],
      "name": "router",
      "outputs": [
        {
          "internalType": "contract ISafeswapRouter01",
          "name": "",
          "type": "address"
        }
      ],
      "stateMutability": "view",
      "type": "function"
    },
    {
      "inputs": [
        {
          "internalType": "address",
          "name": "tokenA",
          "type": "address"
        },
        {
          "internalType": "address",
          "name": "tokenB",
          "type": "address"
        },
        {
          "internalType": "uint256",
          "name": "truePriceTokenA",
          "type": "uint256"
        },
        {
          "internalType": "uint256",
          "name": "truePriceTokenB",
          "type": "uint256"
        },
        {
          "internalType": "uint256",
          "name": "maxSpendTokenA",
          "type": "uint256"
        },
        {
          "internalType": "uint256",
          "name": "maxSpendTokenB",
          "type": "uint256"
        },
        {
          "internalType": "address",
          "name": "to",
          "type": "address"
        },
        {
          "internalType": "uint256",
          "name": "deadline",
          "type": "uint256"
        }
      ],
      "name": "swapToPrice",
      "outputs": [],
      "stateMutability": "nonpayable",
      "type": "function"
    }
  ],
  "bytecode": "0x60c060405234801561001057600080fd5b50604051610e68380380610e688339818101604052604081101561003357600080fd5b5080516020909101516001600160601b0319606092831b811660a052911b1660805260805160601c60a05160601c610ddb61008d600039806101e652806104e2525080610276528061031952806105065250610ddb6000f3fe608060405234801561001057600080fd5b506004361061004c5760003560e01c8063bef90fd314610051578063c45a0155146100a8578063f887ea40146100cc578063fa653154146100d4575b600080fd5b6100a6600480360361010081101561006857600080fd5b506001600160a01b038135811691602081013582169160408201359160608101359160808201359160a08101359160c0820135169060e0013561011e565b005b6100b06104e0565b604080516001600160a01b039092168252519081900360200190f35b6100b0610504565b610103600480360360808110156100ea57600080fd5b5080359060208101359060408101359060600135610528565b60408051921515835260208301919091528051918290030190f35b851580159061012c57508415155b61017d576040805162461bcd60e51b815260206004820152601e60248201527f4578616d706c6553776170546f50726963653a205a45524f5f50524943450000604482015290519081900360640190fd5b8315158061018a57508215155b6101db576040805162461bcd60e51b815260206004820152601e60248201527f4578616d706c6553776170546f50726963653a205a45524f5f5350454e440000604482015290519081900360640190fd5b60008060008061020c7f00000000000000000000000000000000000000000000000000000000000000008d8d61060d565b9150915061021c8a8a8484610528565b9094509250600091508390506102325785610234565b865b905080821115610242578091505b60008361024f578a610251565b8b5b9050600084610260578c610262565b8b5b9050610270823330876106e0565b61029b827f00000000000000000000000000000000000000000000000000000000000000008661083d565b604080516002808252606080830184529260208301908036833701905050905082816000815181106102c957fe5b60200260200101906001600160a01b031690816001600160a01b03168152505081816001815181106102f757fe5b60200260200101906001600160a01b031690816001600160a01b0316815250507f00000000000000000000000000000000000000000000000000000000000000006001600160a01b03166392ebcc0e86600084338d8d6040518763ffffffff1660e01b81526004018087815260200186815260200180602001856001600160a01b03166001600160a01b03168152602001846001600160a01b03166001600160a01b03168152602001838152602001828103825286818151815260200191508051906020019060200280838360005b838110156103de5781810151838201526020016103c6565b50505050905001975050505050505050600060405180830381600087803b15801561040857600080fd5b505af115801561041c573d6000803e3d6000fd5b505050506040513d6000823e601f3d908101601f19168201604052602081101561044557600080fd5b8101908080516040519392919084600160201b82111561046457600080fd5b90830190602082018581111561047957600080fd5b82518660208202830111600160201b8211171561049557600080fd5b82525081516020918201928201910280838360005b838110156104c25781810151838201526020016104aa565b50505050905001604052505050505050505050505050505050505050565b7f000000000000000000000000000000000000000000000000000000000000000081565b7f000000000000000000000000000000000000000000000000000000000000000081565b600080858361053d868863ffffffff61099116565b8161054457fe5b04109150600061055a858563ffffffff61099116565b905060006105b06105806103e586610572578a610574565b895b9063ffffffff61099116565b6105a36103e861057488610594578b610596565b8c5b879063ffffffff61099116565b816105aa57fe5b046109fa565b905060006103e5856105d3576105ce876103e863ffffffff61099116565b6105e5565b6105e5886103e863ffffffff61099116565b816105ec57fe5b0490506105ff828263ffffffff610b3c16565b935050505094509492505050565b600080600061061c8585610b8c565b50905061062a868686610c6a565b50600080610639888888610c6a565b6001600160a01b0316630902f1ac6040518163ffffffff1660e01b815260040160606040518083038186803b15801561067157600080fd5b505afa158015610685573d6000803e3d6000fd5b505050506040513d606081101561069b57600080fd5b5080516020909101516001600160701b0391821693501690506001600160a01b03878116908416146106ce5780826106d1565b81815b90999098509650505050505050565b604080516001600160a01b0385811660248301528481166044830152606480830185905283518084039091018152608490920183526020820180516001600160e01b03166323b872dd60e01b17815292518251600094606094938a169392918291908083835b602083106107655780518252601f199092019160209182019101610746565b6001836020036101000a0380198251168184511680821785525050505050509050019150506000604051808303816000865af19150503d80600081146107c7576040519150601f19603f3d011682016040523d82523d6000602084013e6107cc565b606091505b50915091508180156107fa5750805115806107fa57508080602001905160208110156107f757600080fd5b50515b6108355760405162461bcd60e51b8152600401808060200182810382526031815260200180610d4a6031913960400191505060405180910390fd5b505050505050565b604080516001600160a01b038481166024830152604480830185905283518084039091018152606490920183526020820180516001600160e01b031663095ea7b360e01b178152925182516000946060949389169392918291908083835b602083106108ba5780518252601f19909201916020918201910161089b565b6001836020036101000a0380198251168184511680821785525050505050509050019150506000604051808303816000865af19150503d806000811461091c576040519150601f19603f3d011682016040523d82523d6000602084013e610921565b606091505b509150915081801561094f57508051158061094f575080806020019051602081101561094c57600080fd5b50515b61098a5760405162461bcd60e51b815260040180806020018281038252602b815260200180610d7b602b913960400191505060405180910390fd5b5050505050565b60008115806109ac575050808202828282816109a957fe5b04145b6109f4576040805162461bcd60e51b815260206004820152601460248201527364732d6d6174682d6d756c2d6f766572666c6f7760601b604482015290519081900360640190fd5b92915050565b600081610a0957506000610b37565b816001600160801b8210610a225760809190911c9060401b5b600160401b8210610a385760409190911c9060201b5b600160201b8210610a4e5760209190911c9060101b5b620100008210610a635760109190911c9060081b5b6101008210610a775760089190911c9060041b5b60108210610a8a5760049190911c9060021b5b60088210610a965760011b5b6001818581610aa157fe5b048201901c90506001818581610ab357fe5b048201901c90506001818581610ac557fe5b048201901c90506001818581610ad757fe5b048201901c90506001818581610ae957fe5b048201901c90506001818581610afb57fe5b048201901c90506001818581610b0d57fe5b048201901c90506000818581610b1f57fe5b049050808210610b2f5780610b31565b815b93505050505b919050565b808203828111156109f4576040805162461bcd60e51b815260206004820152601560248201527464732d6d6174682d7375622d756e646572666c6f7760581b604482015290519081900360640190fd5b600080826001600160a01b0316846001600160a01b03161415610be05760405162461bcd60e51b8152600401808060200182810382526024815260200180610d266024913960400191505060405180910390fd5b826001600160a01b0316846001600160a01b031610610c00578284610c03565b83835b90925090506001600160a01b038216610c63576040805162461bcd60e51b815260206004820152601d60248201527f53616665737761704c6962726172793a205a45524f5f41444452455353000000604482015290519081900360640190fd5b9250929050565b6000806000610c798585610b8c565b604080516001600160601b0319606094851b811660208084019190915293851b81166034830152825160288184030181526048830184528051908501206001600160f81b031960688401529a90941b9093166069840152607d8301989098527fbb0f75246f3d156837d548d71cc81760c4a635d78d5d07187ba0e4d8050d3942609d808401919091528851808403909101815260bd90920190975280519601959095209594505050505056fe53616665737761704c6962726172793a204944454e544943414c5f4144445245535345535472616e7366657248656c7065723a3a7472616e7366657246726f6d3a207472616e7366657246726f6d206661696c65645472616e7366657248656c7065723a3a73616665417070726f76653a20617070726f7665206661696c6564a2646970667358221220e8e6a973618b6e20e90b81afa39ba8a0ab730cc913b2182d2d7de362d3e3417464736f6c63430006060033",
  "linkReferences": {},
  "deployedLinkReferences": {}
}