{
  "_format": "hh-sol-artifact-1",
  "contractName": "LibOrderDataV3",
  "sourceName": "@rarible/exchange-v2/contracts/libraries/LibOrderDataV3.sol",
  "abi": [
    {
      "inputs": [],
      "name": "V3_BUY",
      "outputs": [
        {
          "internalType": "bytes4",
          "name": "",
          "type": "bytes4"
        }
      ],
      "stateMutability": "view",
      "type": "function"
    },
    {
      "inputs": [],
      "name": "V3_SELL",
      "outputs": [
        {
          "internalType": "bytes4",
          "name": "",
          "type": "bytes4"
        }
      ],
      "stateMutability": "view",
      "type": "function"
    }
  ],
  "bytecode": "0x60f5610025600b82828239805160001a60731461001857fe5b30600052607381538281f3fe7300000000000000000000000000000000000000003014608060405260043610603d5760003560e01c806366c5bb27146042578063fcbf579d14605c575b600080fd5b60486062565b6040516053919060aa565b60405180910390f35b60486086565b7f2fa3cfd36fc2a11048e46a7dac1916c392731880ba073f2b7f10566b2fd6133e81565b7f1b18cdf6be079a715471a3705c2d89e1d730066ce14915cb307cc3e4a90c92d481565b6001600160e01b03199190911681526020019056fea2646970667358221220e7324b7e22d68c0c1ef8fc14d7b2bc73b9ad7eab696927523ce8713fd478d4cd64736f6c63430007060033",
  "linkReferences": {},
  "deployedLinkReferences": {}
}