{
  "_format": "hh-sol-artifact-1",
  "contractName": "RoyaltiesRegistry",
  "sourceName": "@rarible/royalties-registry/contracts/RoyaltiesRegistry.sol",
  "abi": [
    {
      "anonymous": false,
      "inputs": [
        {
          "indexed": true,
          "internalType": "address",
          "name": "previousOwner",
          "type": "address"
        },
        {
          "indexed": true,
          "internalType": "address",
          "name": "newOwner",
          "type": "address"
        }
      ],
      "name": "OwnershipTransferred",
      "type": "event"
    },
    {
      "anonymous": false,
      "inputs": [
        {
          "indexed": true,
          "internalType": "address",
          "name": "token",
          "type": "address"
        },
        {
          "components": [
            {
              "internalType": "address payable",
              "name": "account",
              "type": "address"
            },
            {
              "internalType": "uint96",
              "name": "value",
              "type": "uint96"
            }
          ],
          "indexed": false,
          "internalType": "struct LibPart.Part[]",
          "name": "royalties",
          "type": "tuple[]"
        }
      ],
      "name": "RoyaltiesSetForContract",
      "type": "event"
    },
    {
      "anonymous": false,
      "inputs": [
        {
          "indexed": true,
          "internalType": "address",
          "name": "token",
          "type": "address"
        },
        {
          "indexed": true,
          "internalType": "uint256",
          "name": "tokenId",
          "type": "uint256"
        },
        {
          "components": [
            {
              "internalType": "address payable",
              "name": "account",
              "type": "address"
            },
            {
              "internalType": "uint96",
              "name": "value",
              "type": "uint96"
            }
          ],
          "indexed": false,
          "internalType": "struct LibPart.Part[]",
          "name": "royalties",
          "type": "tuple[]"
        }
      ],
      "name": "RoyaltiesSetForToken",
      "type": "event"
    },
    {
      "inputs": [],
      "name": "__RoyaltiesRegistry_init",
      "outputs": [],
      "stateMutability": "nonpayable",
      "type": "function"
    },
    {
      "inputs": [
        {
          "internalType": "address",
          "name": "token",
          "type": "address"
        }
      ],
      "name": "clearRoyaltiesType",
      "outputs": [],
      "stateMutability": "nonpayable",
      "type": "function"
    },
    {
      "inputs": [
        {
          "internalType": "address",
          "name": "token",
          "type": "address"
        },
        {
          "internalType": "uint256",
          "name": "royaltiesType",
          "type": "uint256"
        }
      ],
      "name": "forceSetRoyaltiesType",
      "outputs": [],
      "stateMutability": "nonpayable",
      "type": "function"
    },
    {
      "inputs": [
        {
          "internalType": "address",
          "name": "token",
          "type": "address"
        }
      ],
      "name": "getProvider",
      "outputs": [
        {
          "internalType": "address",
          "name": "",
          "type": "address"
        }
      ],
      "stateMutability": "view",
      "type": "function"
    },
    {
      "inputs": [
        {
          "internalType": "address",
          "name": "token",
          "type": "address"
        },
        {
          "internalType": "uint256",
          "name": "tokenId",
          "type": "uint256"
        }
      ],
      "name": "getRoyalties",
      "outputs": [
        {
          "components": [
            {
              "internalType": "address payable",
              "name": "account",
              "type": "address"
            },
            {
              "internalType": "uint96",
              "name": "value",
              "type": "uint96"
            }
          ],
          "internalType": "struct LibPart.Part[]",
          "name": "",
          "type": "tuple[]"
        }
      ],
      "stateMutability": "nonpayable",
      "type": "function"
    },
    {
      "inputs": [
        {
          "internalType": "address",
          "name": "token",
          "type": "address"
        }
      ],
      "name": "getRoyaltiesType",
      "outputs": [
        {
          "internalType": "uint256",
          "name": "",
          "type": "uint256"
        }
      ],
      "stateMutability": "view",
      "type": "function"
    },
    {
      "inputs": [],
      "name": "owner",
      "outputs": [
        {
          "internalType": "address",
          "name": "",
          "type": "address"
        }
      ],
      "stateMutability": "view",
      "type": "function"
    },
    {
      "inputs": [],
      "name": "renounceOwnership",
      "outputs": [],
      "stateMutability": "nonpayable",
      "type": "function"
    },
    {
      "inputs": [
        {
          "internalType": "address",
          "name": "",
          "type": "address"
        }
      ],
      "name": "royaltiesByToken",
      "outputs": [
        {
          "internalType": "bool",
          "name": "initialized",
          "type": "bool"
        }
      ],
      "stateMutability": "view",
      "type": "function"
    },
    {
      "inputs": [
        {
          "internalType": "bytes32",
          "name": "",
          "type": "bytes32"
        }
      ],
      "name": "royaltiesByTokenAndTokenId",
      "outputs": [
        {
          "internalType": "bool",
          "name": "initialized",
          "type": "bool"
        }
      ],
      "stateMutability": "view",
      "type": "function"
    },
    {
      "inputs": [
        {
          "internalType": "address",
          "name": "",
          "type": "address"
        }
      ],
      "name": "royaltiesProviders",
      "outputs": [
        {
          "internalType": "uint256",
          "name": "",
          "type": "uint256"
        }
      ],
      "stateMutability": "view",
      "type": "function"
    },
    {
      "inputs": [
        {
          "internalType": "address",
          "name": "token",
          "type": "address"
        },
        {
          "internalType": "address",
          "name": "provider",
          "type": "address"
        }
      ],
      "name": "setProviderByToken",
      "outputs": [],
      "stateMutability": "nonpayable",
      "type": "function"
    },
    {
      "inputs": [
        {
          "internalType": "address",
          "name": "token",
          "type": "address"
        },
        {
          "components": [
            {
              "internalType": "address payable",
              "name": "account",
              "type": "address"
            },
            {
              "internalType": "uint96",
              "name": "value",
              "type": "uint96"
            }
          ],
          "internalType": "struct LibPart.Part[]",
          "name": "royalties",
          "type": "tuple[]"
        }
      ],
      "name": "setRoyaltiesByToken",
      "outputs": [],
      "stateMutability": "nonpayable",
      "type": "function"
    },
    {
      "inputs": [
        {
          "internalType": "address",
          "name": "newOwner",
          "type": "address"
        }
      ],
      "name": "transferOwnership",
      "outputs": [],
      "stateMutability": "nonpayable",
      "type": "function"
    }
  ],
  "bytecode": "0x608060405234801561001057600080fd5b50611b77806100206000396000f3fe608060405234801561001057600080fd5b50600436106100ea5760003560e01c80639ca7dc7a1161008c578063d836f01311610066578063d836f013146101cb578063f2fde38b146101de578063f39cc706146101f1578063fc73be0014610204576100ea565b80639ca7dc7a14610185578063acf14efb146101a5578063d1da3cce146101b8576100ea565b806355f21eb7116100c857806355f21eb714610135578063715018a61461015557806382b19f121461015d5780638da5cb5b1461017d576100ea565b806305df952f146100ef57806327fff8ab1461011857806336eff6c214610122575b600080fd5b6101026100fd36600461144b565b610217565b60405161010f91906118c0565b60405180910390f35b61012061022c565b005b6101206101303660046115ab565b6102d6565b61014861014336600461144b565b6102f6565b60405161010f9190611832565b610120610315565b61017061016b36600461144b565b6103d3565b60405161010f9190611a61565b6101486103fb565b6101986101933660046115ab565b61040a565b60405161010f919061185f565b6101206101b33660046114bb565b6105a8565b6101026101c636600461181a565b6107e6565b6101206101d9366004611483565b6107fb565b6101206101ec36600461144b565b610810565b6101706101ff36600461144b565b610925565b61012061021236600461144b565b610937565b60666020526000908152604090205460ff1681565b600054610100900460ff16806102455750610245610968565b80610253575060005460ff16155b61028e5760405162461bcd60e51b815260040180806020018281038252602e815260200180611b14602e913960400191505060405180910390fd5b600054610100900460ff161580156102b9576000805460ff1961ff0019909116610100171660011790555b6102c1610979565b80156102d3576000805461ff00191690555b50565b6102df82610a72565b6102f282826102ed856102f6565b610b48565b5050565b6001600160a01b0381166000908152606760205260409020545b919050565b61031d610b9f565b6001600160a01b031661032e6103fb565b6001600160a01b031614610389576040805162461bcd60e51b815260206004820181905260248201527f4f776e61626c653a2063616c6c6572206973206e6f7420746865206f776e6572604482015290519081900360640190fd5b6033546040516000916001600160a01b0316907f8be0079c531659141344cd1fd0a4f28419497f9722a3daafe3b4186f6b6457e0908390a3603380546001600160a01b0319169055565b6001600160a01b0381166000908152606760205260408120546103f590610ba3565b92915050565b6033546001600160a01b031690565b6001600160a01b038216600090815260676020526040812054606091819061043182610ba3565b90508061044f576104428683610be1565b905061044f868284610b48565b80600114156104eb576001600160a01b038616600090815260666020908152604080832060010180548251818502810185019093528083529193909284015b828210156104dd57600084815260209081902060408051808201909152908401546001600160a01b0381168252600160a01b90046001600160601b03168183015282526001909201910161048e565b5050505093505050506103f5565b8060021415610508576104fe8686610def565b93505050506103f5565b806003141561051b576104fe8686610eaf565b806004141561052f576104fe868684611163565b8060051415610542576104fe868661122a565b806006141561058757604080516000808252602082019092529061057c565b610569611402565b8152602001906001900390816105615790505b5093505050506103f5565b60405162461bcd60e51b815260040161059f906118e0565b60405180910390fd5b6105b182610a72565b6001600160a01b03821660009081526067602052604081208190556105da908390600190610b48565b6001600160a01b0382166000908152606660205260408120805460ff19168155816106086001830182611419565b505060005b82518110156107645760006001600160a01b031683828151811061062d57fe5b6020026020010151600001516001600160a01b031614156106605760405162461bcd60e51b815260040161059f90611917565b82818151811061066c57fe5b6020026020010151602001516001600160601b0316600014156106a15760405162461bcd60e51b815260040161059f906119e4565b60666000856001600160a01b03166001600160a01b031681526020019081526020016000206001018382815181106106d557fe5b602090810291909101810151825460018101845560009384529282902081519301805491909201516001600160601b0316600160a01b026001600160a01b039384166001600160a01b031990921691909117909216919091179055825183908290811061073e57fe5b6020026020010151602001516001600160601b031682019150808060010191505061060d565b5061271081106107865760405162461bcd60e51b815260040161059f90611963565b6001600160a01b03831660008181526066602052604090819020805460ff19166001179055517fc026171b9a7c9009d6a748a19a0a3cb877978a585e1647a87a786d724bbde127906107d990859061185f565b60405180910390a2505050565b60656020526000908152604090205460ff1681565b61080482610a72565b6102f282600483610b48565b610818610b9f565b6001600160a01b03166108296103fb565b6001600160a01b031614610884576040805162461bcd60e51b815260206004820181905260248201527f4f776e61626c653a2063616c6c6572206973206e6f7420746865206f776e6572604482015290519081900360640190fd5b6001600160a01b0381166108c95760405162461bcd60e51b8152600401808060200182810382526026815260200180611aee6026913960400191505060405180910390fd5b6033546040516001600160a01b038084169216907f8be0079c531659141344cd1fd0a4f28419497f9722a3daafe3b4186f6b6457e090600090a3603380546001600160a01b0319166001600160a01b0392909216919091179055565b60676020526000908152604090205481565b61094081610a72565b610949816102f6565b6001600160a01b03918216600090815260676020526040902091169055565b6000610973306112f4565b15905090565b600054610100900460ff16806109925750610992610968565b806109a0575060005460ff16155b6109db5760405162461bcd60e51b815260040180806020018281038252602e815260200180611b14602e913960400191505060405180910390fd5b600054610100900460ff16158015610a06576000805460ff1961ff0019909116610100171660011790555b6000610a10610b9f565b603380546001600160a01b0319166001600160a01b038316908117909155604051919250906000907f8be0079c531659141344cd1fd0a4f28419497f9722a3daafe3b4186f6b6457e0908290a35080156102d3576000805461ff001916905550565b610a7a610b9f565b6001600160a01b0316610a8b6103fb565b6001600160a01b031614158015610b2b5750610aa5610b9f565b6001600160a01b0316816001600160a01b0316638da5cb5b6040518163ffffffff1660e01b815260040160206040518083038186803b158015610ae757600080fd5b505afa158015610afb573d6000803e3d6000fd5b505050506040513d601f19601f82011682018060405250810190610b1f9190611467565b6001600160a01b031614155b156102d35760405162461bcd60e51b815260040161059f906119ad565b600082118015610b59575060068211155b610b755760405162461bcd60e51b815260040161059f90611a34565b6001600160a01b03928316600090815260676020526040902092166101009190910360020a019055565b3390565b600060015b60068111610bd857806101000360020a8381610bc057fe5b0460011415610bd0579050610310565b600101610ba8565b50600092915050565b6040516301ffc9a760e01b81526000906001600160a01b038416906301ffc9a790610c179063656cb66560e11b906004016118cb565b60206040518083038186803b158015610c2f57600080fd5b505afa925050508015610c5f575060408051601f3d908101601f19168201909252610c5c918101906117fa565b60015b610c6857610c7a565b8015610c785760029150506103f5565b505b6040516301ffc9a760e01b81526001600160a01b038416906301ffc9a790610cad90632dde656160e21b906004016118cb565b60206040518083038186803b158015610cc557600080fd5b505afa925050508015610cf5575060408051601f3d908101601f19168201909252610cf2918101906117fa565b60015b610cfe57610d10565b8015610d0e5760039150506103f5565b505b6040516301ffc9a760e01b81526001600160a01b038416906301ffc9a790610d439063152a902d60e11b906004016118cb565b60206040518083038186803b158015610d5b57600080fd5b505afa925050508015610d8b575060408051601f3d908101601f19168201909252610d88918101906117fa565b60015b610d9457610da6565b8015610da45760059150506103f5565b505b6001600160a01b03821615610dbd575060046103f5565b6001600160a01b03831660009081526066602052604090205460ff1615610de6575060016103f5565b50600692915050565b60405163656cb66560e11b81526060906001600160a01b0384169063cad96cca90610e1e908590600401611a61565b60006040518083038186803b158015610e3657600080fd5b505afa925050508015610e6b57506040513d6000823e601f3d908101601f19168201604052610e68919081019061169c565b60015b610ea8576040805160008082526020820190925290610ea0565b610e8d611402565b815260200190600190039081610e855790505b5090506103f5565b90506103f5565b60405163b9c4d9fb60e01b8152606090839082906001600160a01b0383169063b9c4d9fb90610ee2908790600401611a61565b60006040518083038186803b158015610efa57600080fd5b505afa925050508015610f2f57506040513d6000823e601f3d908101601f19168201604052610f2c9190810190611603565b60015b610f6e576040805160008082526020820190925290610f64565b610f51611402565b815260200190600190039081610f495790505b50925050506103f5565b9050604051630ebd4c7f60e01b81526060906001600160a01b03841690630ebd4c7f90610f9f908890600401611a61565b60006040518083038186803b158015610fb757600080fd5b505afa925050508015610fec57506040513d6000823e601f3d908101601f19168201604052610fe99190810190611776565b60015b61102b57604080516000808252602082019092529061057c565b61100e611402565b8152602001906001900390816110065790505093505050506103f5565b9050815181511461107157604080516000808252602082019092529061057c565b611054611402565b81526020019060019003908161104c5790505093505050506103f5565b6000815167ffffffffffffffff8111801561108b57600080fd5b506040519080825280602002602001820160405280156110c557816020015b6110b2611402565b8152602001906001900390816110aa5790505b50905060005b8251811015611158578281815181106110e057fe5b60200260200101518282815181106110f457fe5b6020026020010151602001906001600160601b031690816001600160601b03168152505083818151811061112457fe5b602002602001015182828151811061113857fe5b60209081029190910101516001600160a01b0390911690526001016110cb565b509695505050505050565b604051634e53ee3d60e11b81526060906001600160a01b03831690639ca7dc7a906111949087908790600401611846565b600060405180830381600087803b1580156111ae57600080fd5b505af19250505080156111e357506040513d6000823e601f3d908101601f191682016040526111e0919081019061169c565b60015b611220576040805160008082526020820190925290611218565b611205611402565b8152602001906001900390816111fd5790505b509050611223565b90505b9392505050565b60405163152a902d60e11b81526060906001600160a01b03841690632a55205a9061125e908590620f424090600401611a6a565b604080518083038186803b15801561127557600080fd5b505afa9250505080156112a5575060408051601f3d908101601f191682019092526112a2918101906115d6565b60015b6112e1576040805160008082526020820190925290610ea0565b6112c7611402565b8152602001906001900390816112bf5790505090506103f5565b6112eb82826112fa565b925050506103f5565b3b151590565b606080826113095790506103f5565b6000620f42406127108502049050612710811061136d576040805162461bcd60e51b815260206004820152601b60248201527f526f79616c746965732032393831206578636565647320313030250000000000604482015290519081900360640190fd5b60408051600180825281830190925290816020015b61138a611402565b81526020019060019003908161138257905050915084826000815181106113ad57fe5b6020026020010151600001906001600160a01b031690816001600160a01b03168152505080826000815181106113df57fe5b6020908102919091018101516001600160601b0390921691015250905092915050565b604080518082019091526000808252602082015290565b50805460008255906000526020600020908101906102d391905b808211156114475760008155600101611433565b5090565b60006020828403121561145c578081fd5b813561122381611ac3565b600060208284031215611478578081fd5b815161122381611ac3565b60008060408385031215611495578081fd5b82356114a081611ac3565b915060208301356114b081611ac3565b809150509250929050565b60008060408084860312156114ce578283fd5b83356114d981611ac3565b925060208481013567ffffffffffffffff808211156114f6578485fd5b818701915087601f830112611509578485fd5b813561151c61151782611aa5565b611a81565b81815284810190848601878402860187018c1015611538578889fd5b8895505b838610156115995787818d031215611552578889fd5b8751888101818110878211171561156557fe5b8952813561157281611ac3565b81528188013561158181611ad8565b8189015283526001959095019491860191870161153c565b50809750505050505050509250929050565b600080604083850312156115bd578182fd5b82356115c881611ac3565b946020939093013593505050565b600080604083850312156115e8578182fd5b82516115f381611ac3565b6020939093015192949293505050565b60006020808385031215611615578182fd5b825167ffffffffffffffff81111561162b578283fd5b8301601f8101851361163b578283fd5b805161164961151782611aa5565b8181528381019083850185840285018601891015611665578687fd5b8694505b8385101561169057805161167c81611ac3565b835260019490940193918501918501611669565b50979650505050505050565b600060208083850312156116ae578182fd5b825167ffffffffffffffff808211156116c5578384fd5b818501915085601f8301126116d8578384fd5b81516116e661151782611aa5565b818152848101908486016040808502870188018b1015611704578889fd5b8896505b848710156117675780828c03121561171e578889fd5b8051818101818110888211171561173157fe5b8252825161173e81611ac3565b81528289015161174d81611ad8565b818a01528452600196909601959287019290810190611708565b50909998505050505050505050565b60006020808385031215611788578182fd5b825167ffffffffffffffff81111561179e578283fd5b8301601f810185136117ae578283fd5b80516117bc61151782611aa5565b81815283810190838501858402850186018910156117d8578687fd5b8694505b838510156116905780518352600194909401939185019185016117dc565b60006020828403121561180b578081fd5b81518015158114611223578182fd5b60006020828403121561182b578081fd5b5035919050565b6001600160a01b0391909116815260200190565b6001600160a01b03929092168252602082015260400190565b602080825282518282018190526000919060409081850190868401855b828110156118b357815180516001600160a01b031685528601516001600160601b031686850152928401929085019060010161187c565b5091979650505050505050565b901515815260200190565b6001600160e01b031991909116815260200190565b6020808252601f908201527f736f6d657468696e672077726f6e6720696e20676574526f79616c7469657300604082015260600190565b6020808252602c908201527f526f79616c746965734279546f6b656e20726563697069656e742073686f756c60408201526b19081899481c1c995cd95b9d60a21b606082015260800190565b6020808252602a908201527f53657420627920746f6b656e20726f79616c746965732073756d206d6f72652c604082015269207468616e203130302560b01b606082015260800190565b60208082526018908201527f546f6b656e206f776e6572206e6f742064657465637465640000000000000000604082015260600190565b60208082526030908201527f526f79616c74792076616c756520666f7220526f79616c746965734279546f6b60408201526f0656e2073686f756c64206265203e20360841b606082015260800190565b60208082526013908201527277726f6e6720726f79616c746965735479706560681b604082015260600190565b90815260200190565b9182526001600160601b0316602082015260400190565b60405181810167ffffffffffffffff81118282101715611a9d57fe5b604052919050565b600067ffffffffffffffff821115611ab957fe5b5060209081020190565b6001600160a01b03811681146102d357600080fd5b6001600160601b03811681146102d357600080fdfe4f776e61626c653a206e6577206f776e657220697320746865207a65726f2061646472657373496e697469616c697a61626c653a20636f6e747261637420697320616c726561647920696e697469616c697a6564a26469706673582212204df4208bcb3c316b2a89f55e3877bdf6cf39b88892d3eb9f3d74c4e9d8984bdd64736f6c63430007060033",
  "linkReferences": {},
  "deployedLinkReferences": {}
}