{
  "address": "0x9731967b396d0322e884731E77C8D1260074C76B",
  "abi": [
    {
      "anonymous": false,
      "inputs": [
        {
          "indexed": false,
          "internalType": "address",
          "name": "_feeJar",
          "type": "address"
        }
      ],
      "name": "NewFeeJar",
      "type": "event"
    },
    {
      "stateMutability": "payable",
      "type": "fallback"
    },
    {
      "inputs": [
        {
          "internalType": "address",
          "name": "_wl",
          "type": "address"
        }
      ],
      "name": "addFfsWhitelist",
      "outputs": [],
      "stateMutability": "nonpayable",
      "type": "function"
    },
    {
      "inputs": [],
      "name": "admin",
      "outputs": [
        {
          "internalType": "address",
          "name": "",
          "type": "address"
        }
      ],
      "stateMutability": "view",
      "type": "function"
    },
    {
      "inputs": [],
      "name": "feeJar",
      "outputs": [
        {
          "internalType": "contract IFeeJar",
          "name": "",
          "type": "address"
        }
      ],
      "stateMutability": "view",
      "type": "function"
    },
    {
      "inputs": [],
      "name": "feePercent",
      "outputs": [
        {
          "internalType": "uint256",
          "name": "",
          "type": "uint256"
        }
      ],
      "stateMutability": "view",
      "type": "function"
    },
    {
      "inputs": [
        {
          "internalType": "uint256",
          "name": "amountIn",
          "type": "uint256"
        },
        {
          "internalType": "uint256",
          "name": "_amountOut",
          "type": "uint256"
        },
        {
          "internalType": "address",
          "name": "tokenA",
          "type": "address"
        },
        {
          "internalType": "address",
          "name": "tokenB",
          "type": "address"
        }
      ],
      "name": "getSwapFee",
      "outputs": [
        {
          "internalType": "uint256",
          "name": "_fee",
          "type": "uint256"
        }
      ],
      "stateMutability": "view",
      "type": "function"
    },
    {
      "inputs": [
        {
          "internalType": "uint256",
          "name": "amountIn",
          "type": "uint256"
        },
        {
          "internalType": "address[]",
          "name": "path",
          "type": "address[]"
        }
      ],
      "name": "getSwapFees",
      "outputs": [
        {
          "internalType": "uint256",
          "name": "_fees",
          "type": "uint256"
        }
      ],
      "stateMutability": "view",
      "type": "function"
    },
    {
      "inputs": [
        {
          "internalType": "address",
          "name": "_feeJar",
          "type": "address"
        },
        {
          "internalType": "address",
          "name": "_router",
          "type": "address"
        },
        {
          "internalType": "uint256",
          "name": "_feePercent",
          "type": "uint256"
        },
        {
          "internalType": "uint256",
          "name": "_percent",
          "type": "uint256"
        }
      ],
      "name": "initialize",
      "outputs": [],
      "stateMutability": "nonpayable",
      "type": "function"
    },
    {
      "inputs": [],
      "name": "percent",
      "outputs": [
        {
          "internalType": "uint256",
          "name": "",
          "type": "uint256"
        }
      ],
      "stateMutability": "view",
      "type": "function"
    },
    {
      "inputs": [
        {
          "internalType": "address",
          "name": "_wl",
          "type": "address"
        }
      ],
      "name": "removeFfsWhitelist",
      "outputs": [],
      "stateMutability": "nonpayable",
      "type": "function"
    },
    {
      "inputs": [
        {
          "internalType": "uint256",
          "name": "_percent",
          "type": "uint256"
        }
      ],
      "name": "sePercent",
      "outputs": [],
      "stateMutability": "nonpayable",
      "type": "function"
    },
    {
      "inputs": [
        {
          "internalType": "address",
          "name": "_feeJar",
          "type": "address"
        }
      ],
      "name": "setFeeJar",
      "outputs": [],
      "stateMutability": "nonpayable",
      "type": "function"
    },
    {
      "inputs": [
        {
          "internalType": "uint256",
          "name": "_feePercent",
          "type": "uint256"
        }
      ],
      "name": "setFeePercent",
      "outputs": [],
      "stateMutability": "nonpayable",
      "type": "function"
    },
    {
      "inputs": [
        {
          "internalType": "address",
          "name": "_router",
          "type": "address"
        }
      ],
      "name": "setRouter",
      "outputs": [],
      "stateMutability": "nonpayable",
      "type": "function"
    },
    {
      "inputs": [
        {
          "components": [
            {
              "internalType": "uint256",
              "name": "amountIn",
              "type": "uint256"
            },
            {
              "internalType": "uint256",
              "name": "amountOut",
              "type": "uint256"
            },
            {
              "internalType": "address[]",
              "name": "path",
              "type": "address[]"
            },
            {
              "internalType": "address payable",
              "name": "to",
              "type": "address"
            },
            {
              "internalType": "uint256",
              "name": "deadline",
              "type": "uint256"
            }
          ],
          "internalType": "struct SafeSwapTradeRouter.Trade",
          "name": "trade",
          "type": "tuple"
        },
        {
          "internalType": "uint256",
          "name": "_feeAmount",
          "type": "uint256"
        }
      ],
      "name": "swapETHForExactTokensWithFeeAmount",
      "outputs": [],
      "stateMutability": "payable",
      "type": "function"
    },
    {
      "inputs": [
        {
          "components": [
            {
              "internalType": "uint256",
              "name": "amountIn",
              "type": "uint256"
            },
            {
              "internalType": "uint256",
              "name": "amountOut",
              "type": "uint256"
            },
            {
              "internalType": "address[]",
              "name": "path",
              "type": "address[]"
            },
            {
              "internalType": "address payable",
              "name": "to",
              "type": "address"
            },
            {
              "internalType": "uint256",
              "name": "deadline",
              "type": "uint256"
            }
          ],
          "internalType": "struct SafeSwapTradeRouter.Trade",
          "name": "trade",
          "type": "tuple"
        },
        {
          "internalType": "uint256",
          "name": "_feeAmount",
          "type": "uint256"
        }
      ],
      "name": "swapExactETHForTokensWithFeeAmount",
      "outputs": [],
      "stateMutability": "payable",
      "type": "function"
    },
    {
      "inputs": [
        {
          "components": [
            {
              "internalType": "uint256",
              "name": "amountIn",
              "type": "uint256"
            },
            {
              "internalType": "uint256",
              "name": "amountOut",
              "type": "uint256"
            },
            {
              "internalType": "address[]",
              "name": "path",
              "type": "address[]"
            },
            {
              "internalType": "address payable",
              "name": "to",
              "type": "address"
            },
            {
              "internalType": "uint256",
              "name": "deadline",
              "type": "uint256"
            }
          ],
          "internalType": "struct SafeSwapTradeRouter.Trade",
          "name": "trade",
          "type": "tuple"
        }
      ],
      "name": "swapExactTokensForETHAndFeeAmount",
      "outputs": [],
      "stateMutability": "payable",
      "type": "function"
    },
    {
      "inputs": [
        {
          "components": [
            {
              "internalType": "uint256",
              "name": "amountIn",
              "type": "uint256"
            },
            {
              "internalType": "uint256",
              "name": "amountOut",
              "type": "uint256"
            },
            {
              "internalType": "address[]",
              "name": "path",
              "type": "address[]"
            },
            {
              "internalType": "address payable",
              "name": "to",
              "type": "address"
            },
            {
              "internalType": "uint256",
              "name": "deadline",
              "type": "uint256"
            }
          ],
          "internalType": "struct SafeSwapTradeRouter.Trade",
          "name": "trade",
          "type": "tuple"
        }
      ],
      "name": "swapExactTokensForTokensWithFeeAmount",
      "outputs": [],
      "stateMutability": "payable",
      "type": "function"
    },
    {
      "inputs": [],
      "name": "swapRouter",
      "outputs": [
        {
          "internalType": "address",
          "name": "",
          "type": "address"
        }
      ],
      "stateMutability": "view",
      "type": "function"
    },
    {
      "inputs": [
        {
          "components": [
            {
              "internalType": "uint256",
              "name": "amountIn",
              "type": "uint256"
            },
            {
              "internalType": "uint256",
              "name": "amountOut",
              "type": "uint256"
            },
            {
              "internalType": "address[]",
              "name": "path",
              "type": "address[]"
            },
            {
              "internalType": "address payable",
              "name": "to",
              "type": "address"
            },
            {
              "internalType": "uint256",
              "name": "deadline",
              "type": "uint256"
            }
          ],
          "internalType": "struct SafeSwapTradeRouter.Trade",
          "name": "trade",
          "type": "tuple"
        }
      ],
      "name": "swapTokensForExactETHAndFeeAmount",
      "outputs": [],
      "stateMutability": "payable",
      "type": "function"
    },
    {
      "inputs": [
        {
          "components": [
            {
              "internalType": "uint256",
              "name": "amountIn",
              "type": "uint256"
            },
            {
              "internalType": "uint256",
              "name": "amountOut",
              "type": "uint256"
            },
            {
              "internalType": "address[]",
              "name": "path",
              "type": "address[]"
            },
            {
              "internalType": "address payable",
              "name": "to",
              "type": "address"
            },
            {
              "internalType": "uint256",
              "name": "deadline",
              "type": "uint256"
            }
          ],
          "internalType": "struct SafeSwapTradeRouter.Trade",
          "name": "trade",
          "type": "tuple"
        }
      ],
      "name": "swapTokensForExactTokensWithFeeAmount",
      "outputs": [],
      "stateMutability": "payable",
      "type": "function"
    },
    {
      "inputs": [
        {
          "internalType": "address",
          "name": "",
          "type": "address"
        }
      ],
      "name": "whitelistFfsFee",
      "outputs": [
        {
          "internalType": "bool",
          "name": "",
          "type": "bool"
        }
      ],
      "stateMutability": "view",
      "type": "function"
    },
    {
      "stateMutability": "payable",
      "type": "receive"
    }
  ],
  "transactionHash": "0x653a4422732455d6393f20feaa782d84cd67a8d00e37b95590857187f1bcb311",
  "args": [],
  "numDeployments": 1,
  "solcInputHash": "52a57dab6c67a894f1a4aa1548988799",
  "bytecode": "0x608060405234801561001057600080fd5b50611afd806100206000396000f3fe6080604052600436106100fb5760003560e01c80630ea9c040146101045780631bfda7821461011757806344a850ba1461014a5780634535e34c1461016a5780635ffde08f1461019d57806370ba1113146101b057806372d04981146101c65780637ce3489b146101d95780637fd6f15c146101f957806381bdf4f21461020f5780638a879cab1461022f5780639166aecd146102425780639b8a9b6814610255578063a351408714610275578063bca31f9814610288578063c0d78655146102a8578063c31c9c07146102c8578063d0bfbe97146102e8578063d76d59fc14610308578063eb990c5914610348578063f851a4401461036857005b3661010257005b005b6101026101123660046113a7565b610388565b34801561012357600080fd5b506101376101323660046113f3565b610470565b6040519081526020015b60405180910390f35b34801561015657600080fd5b506101376101653660046114a6565b610853565b34801561017657600080fd5b50600054610190906201000090046001600160a01b031681565b6040516101419190611550565b6101026101ab3660046113a7565b610a47565b3480156101bc57600080fd5b5061013760035481565b6101026101d4366004611564565b610aeb565b3480156101e557600080fd5b506101026101f43660046115a8565b610ba8565b34801561020557600080fd5b5061013760045481565b34801561021b57600080fd5b5061010261022a3660046115c1565b610bd7565b61010261023d3660046113a7565b610c5e565b6101026102503660046113a7565b610d02565b34801561026157600080fd5b506101026102703660046115a8565b610da6565b610102610283366004611564565b610dd5565b34801561029457600080fd5b506101026102a33660046115c1565b610e8d565b3480156102b457600080fd5b506101026102c33660046115c1565b610edb565b3480156102d457600080fd5b50600154610190906001600160a01b031681565b3480156102f457600080fd5b506101026103033660046115c1565b610f81565b34801561031457600080fd5b506103386103233660046115c1565b60056020526000908152604090205460ff1681565b6040519015158152602001610141565b34801561035457600080fd5b506101026103633660046115e5565b610fcc565b34801561037457600080fd5b50600254610190906001600160a01b031681565b60006103d3823561039c604085018561162b565b8080602002602001604051908101604052809392919081815260200183836020028082843760009201919091525061085392505050565b9050803410156103fe5760405162461bcd60e51b81526004016103f59061167b565b60405180910390fd5b610407816110e1565b61046c8235602084013561041e604086018661162b565b8080602002602001604051908101604052809392919081815260200183836020028082843760009201919091525033925061046291505060808801606089016115c1565b876080013561114d565b5050565b600080836001600160a01b031663313ce5676040518163ffffffff1660e01b8152600401602060405180830381865afa1580156104b1573d6000803e3d6000fd5b505050506040513d601f19601f820116820180604052508101906104d591906116be565b6104e09060126116f7565b60ff169050600160009054906101000a90046001600160a01b03166001600160a01b031663ad5c46486040518163ffffffff1660e01b8152600401602060405180830381865afa158015610538573d6000803e3d6000fd5b505050506040513d601f19601f8201168201806040525081019061055c919061171a565b6001600160a01b0316846001600160a01b031614156105ac5761058081600a61181b565b6003546004546105909089611827565b61059a9190611846565b6105a49190611827565b91505061084b565b60408051600280825260608201835260009260208301908036833701905050905084816000815181106105e1576105e1611868565b6001600160a01b03928316602091820292909201810191909152600154604080516315ab88c960e31b81529051919093169263ad5c46489260048083019391928290030181865afa15801561063a573d6000803e3d6000fd5b505050506040513d601f19601f8201168201806040525081019061065e919061171a565b8160018151811061067157610671611868565b6001600160a01b03928316602091820292909201015260015460405163d06ca61f60e01b8152600092919091169063d06ca61f906106b5908b9086906004016118c2565b600060405180830381865afa9250505080156106f357506040513d6000823e601f3d908101601f191682016040526106f091908101906118db565b60015b6107c357848260008151811061070b5761070b611868565b6001600160a01b03928316602091820292909201015260015460405163d06ca61f60e01b815291169063d06ca61f9061074a908a9086906004016118c2565b600060405180830381865afa92505050801561078857506040513d6000823e601f3d908101601f1916820160405261078591908101906118db565b60015b610794575060006107ee565b80600182516107a3919061196b565b815181106107b3576107b3611868565b60200260200101519150506107ee565b80600182516107d2919061196b565b815181106107e2576107e2611868565b60200260200101519150505b8015610815576003546004546108049083611827565b61080e9190611846565b9350610847565b61082083600a61181b565b600354600454610830908b611827565b61083a9190611846565b6108449190611827565b93505b5050505b949350505050565b3360009081526005602052604081205460ff161561087357506000610a41565b6002825110156108c15760405162461bcd60e51b81526020600482015260196024820152780a6c2cccae6eec2e08ccaca7440929cac82989288bea082a89603b1b60448201526064016103f5565b600082516001600160401b038111156108dc576108dc61143d565b604051908082528060200260200182016040528015610905578160200160208202803683370190505b5060015460405163d06ca61f60e01b81529192506001600160a01b03169063d06ca61f9061093990879087906004016118c2565b600060405180830381865afa158015610956573d6000803e3d6000fd5b505050506040513d6000823e601f3d908101601f1916820160405261097e91908101906118db565b905060005b60018451610991919061196b565b811015610a3e57610a208282815181106109ad576109ad611868565b6020026020010151838360016109c39190611982565b815181106109d3576109d3611868565b60200260200101518684815181106109ed576109ed611868565b602002602001015187856001610a039190611982565b81518110610a1357610a13611868565b6020026020010151610470565b610a2a9084611982565b925080610a368161199a565b915050610983565b50505b92915050565b6000610a5b823561039c604085018561162b565b905080341015610a7d5760405162461bcd60e51b81526004016103f5906119b5565b610a86816110e1565b61046c60208301358335610a9d604086018661162b565b80806020026020016040519081016040528093929190818152602001838360200280828437600092019190915250339250610ae191505060808801606089016115c1565b87608001356111c1565b6000610aff833561039c604086018661162b565b9050808210158015610b1b5750610b17818435611982565b3410155b610b375760405162461bcd60e51b81526004016103f5906119b5565b610b40816110e1565b610ba360208401358435610b57604087018761162b565b80806020026020016040519081016040528093929190818152602001838360200280828437600092019190915250610b999250505060808801606089016115c1565b876080013561124b565b505050565b6002546001600160a01b03163314610bd25760405162461bcd60e51b81526004016103f5906119f9565b600455565b6002546001600160a01b03163314610c015760405162461bcd60e51b81526004016103f5906119f9565b6000805462010000600160b01b031916620100006001600160a01b038416021790556040517f9fbc3107cd5de0b63e7e8ee125c41156ece8511d0030e7d3e7b9174d6b9cf2c390610c53908390611550565b60405180910390a150565b6000610c72823561039c604085018561162b565b905080341015610c945760405162461bcd60e51b81526004016103f59061167b565b610c9d816110e1565b61046c60208301358335610cb4604086018661162b565b80806020026020016040519081016040528093929190818152602001838360200280828437600092019190915250339250610cf891505060808801606089016115c1565b87608001356112ca565b6000610d16823561039c604085018561162b565b905080341015610d385760405162461bcd60e51b81526004016103f5906119b5565b610d41816110e1565b61046c82356020840135610d58604086018661162b565b80806020026020016040519081016040528093929190818152602001838360200280828437600092019190915250339250610d9c91505060808801606089016115c1565b8760800135611304565b6002546001600160a01b03163314610dd05760405162461bcd60e51b81526004016103f5906119f9565b600355565b6000610de9833561039c604086018661162b565b9050808210158015610e055750610e01818435611982565b3410155b610e215760405162461bcd60e51b81526004016103f5906119b5565b610e2a816110e1565b610ba383356020850135610e41604087018761162b565b80806020026020016040519081016040528093929190818152602001838360200280828437600092019190915250610e839250505060808801606089016115c1565b876080013561133e565b6002546001600160a01b03163314610eb75760405162461bcd60e51b81526004016103f5906119f9565b6001600160a01b03166000908152600560205260409020805460ff19166001179055565b6002546001600160a01b03163314610f055760405162461bcd60e51b81526004016103f5906119f9565b6002546001600160a01b03163314610f5f5760405162461bcd60e51b815260206004820152601e60248201527f5361666573776170526f757465723a204e4f5420415554484f52495a4544000060448201526064016103f5565b600180546001600160a01b0319166001600160a01b0392909216919091179055565b6002546001600160a01b03163314610fab5760405162461bcd60e51b81526004016103f5906119f9565b6001600160a01b03166000908152600560205260409020805460ff19169055565b600054610100900460ff1680610fe15750303b155b80610fef575060005460ff16155b6110525760405162461bcd60e51b815260206004820152602e60248201527f496e697469616c697a61626c653a20636f6e747261637420697320616c72656160448201526d191e481a5b9a5d1a585b1a5e995960921b60648201526084016103f5565b600054610100900460ff16158015611074576000805461ffff19166101011790555b600080546001600160a01b03808816620100000262010000600160b01b031990921691909117909155600180549186166001600160a01b031992831617905560028054909116331790556004839055600382905580156110da576000805461ff00191690555b5050505050565b600060029054906101000a90046001600160a01b03166001600160a01b031663ddca3f43826040518263ffffffff1660e01b81526004016000604051808303818588803b15801561113157600080fd5b505af1158015611145573d6000803e3d6000fd5b505050505050565b600154604051632955261160e11b81526001600160a01b03909116906352aa4c229061118790899089908990899089908990600401611a2e565b600060405180830381600087803b1580156111a157600080fd5b505af11580156111b5573d6000803e3d6000fd5b50505050505050505050565b60015460405163083722b560e01b81526001600160a01b039091169063083722b5906111fb90899089908990899089908990600401611a2e565b6000604051808303816000875af115801561121a573d6000803e3d6000fd5b505050506040513d6000823e601f3d908101601f1916820160405261124291908101906118db565b50505050505050565b60015460405163fb3bdb4160e01b81526001600160a01b039091169063fb3bdb41908690611283908990889088908890600401611a72565b60006040518083038185885af11580156112a1573d6000803e3d6000fd5b50505050506040513d6000823e601f3d908101601f1916820160405261114591908101906118db565b6001546040516304723bfd60e31b81526001600160a01b0390911690632391dfe8906111fb90899089908990899089908990600401611a2e565b60015460405163561c49dd60e11b81526001600160a01b039091169063ac3893ba9061118790899089908990899089908990600401611a2e565b60015460405163b6f9de9560e01b81526001600160a01b039091169063b6f9de95908790611376908890889088908890600401611a72565b6000604051808303818588803b1580156111a157600080fd5b600060a082840312156113a157600080fd5b50919050565b6000602082840312156113b957600080fd5b81356001600160401b038111156113cf57600080fd5b61084b8482850161138f565b6001600160a01b03811681146113f057600080fd5b50565b6000806000806080858703121561140957600080fd5b84359350602085013592506040850135611422816113db565b91506060850135611432816113db565b939692955090935050565b634e487b7160e01b600052604160045260246000fd5b604051601f8201601f191681016001600160401b038111828210171561147b5761147b61143d565b604052919050565b60006001600160401b0382111561149c5761149c61143d565b5060051b60200190565b600080604083850312156114b957600080fd5b823591506020808401356001600160401b038111156114d757600080fd5b8401601f810186136114e857600080fd5b80356114fb6114f682611483565b611453565b81815260059190911b8201830190838101908883111561151a57600080fd5b928401925b82841015611541578335611532816113db565b8252928401929084019061151f565b80955050505050509250929050565b6001600160a01b0391909116815260200190565b6000806040838503121561157757600080fd5b82356001600160401b0381111561158d57600080fd5b6115998582860161138f565b95602094909401359450505050565b6000602082840312156115ba57600080fd5b5035919050565b6000602082840312156115d357600080fd5b81356115de816113db565b9392505050565b600080600080608085870312156115fb57600080fd5b8435611606816113db565b93506020850135611616816113db565b93969395505050506040820135916060013590565b6000808335601e1984360301811261164257600080fd5b8301803591506001600160401b0382111561165c57600080fd5b6020019150600581901b360382131561167457600080fd5b9250929050565b6020808252603590820152600080516020611aa88339815191526040820152746f75676820424e4220746f20636f7665722066656560581b606082015260800190565b6000602082840312156116d057600080fd5b815160ff811681146115de57600080fd5b634e487b7160e01b600052601160045260246000fd5b600060ff821660ff841680821015611711576117116116e1565b90039392505050565b60006020828403121561172c57600080fd5b81516115de816113db565b600181815b80851115611772578160001904821115611758576117586116e1565b8085161561176557918102915b93841c939080029061173c565b509250929050565b60008261178957506001610a41565b8161179657506000610a41565b81600181146117ac57600281146117b6576117d2565b6001915050610a41565b60ff8411156117c7576117c76116e1565b50506001821b610a41565b5060208310610133831016604e8410600b84101617156117f5575081810a610a41565b6117ff8383611737565b8060001904821115611813576118136116e1565b029392505050565b60006115de838361177a565b6000816000190483118215151615611841576118416116e1565b500290565b60008261186357634e487b7160e01b600052601260045260246000fd5b500490565b634e487b7160e01b600052603260045260246000fd5b600081518084526020808501945080840160005b838110156118b75781516001600160a01b031687529582019590820190600101611892565b509495945050505050565b82815260406020820152600061084b604083018461187e565b600060208083850312156118ee57600080fd5b82516001600160401b0381111561190457600080fd5b8301601f8101851361191557600080fd5b80516119236114f682611483565b81815260059190911b8201830190838101908783111561194257600080fd5b928401925b8284101561196057835182529284019290840190611947565b979650505050505050565b60008282101561197d5761197d6116e1565b500390565b60008219821115611995576119956116e1565b500190565b60006000198214156119ae576119ae6116e1565b5060010190565b6020808252603690820152600080516020611aa8833981519152604082015275037bab3b410212721103a379031b7bb32b9103332b2960551b606082015260800190565b6020808252818101527f4f776e61626c653a2063616c6c6572206973206e6f7420746865206f776e6572604082015260600190565b86815285602082015260c060408201526000611a4d60c083018761187e565b6001600160a01b03958616606084015293909416608082015260a00152949350505050565b848152608060208201526000611a8b608083018661187e565b6001600160a01b0394909416604083015250606001529291505056fe5361666573776170526f757465723a20596f75206d7573742073656e6420656ea26469706673582212207e57bcc089aee32eac4b0e3725f4ca0a6b65fdc01816349433b237753d21f46464736f6c634300080b0033",
  "devdoc": {
    "details": "Allows SFM Router-compliant trades to be paid via bsc",
    "kind": "dev",
    "methods": {
      "getSwapFee(uint256,uint256,address,address)": {
        "params": {
          "amountIn": "Amount to calculate fee",
          "tokenA": "token1 for swap",
          "tokenB": "token2 for swap"
        }
      },
      "setFeeJar(address)": {
        "params": {
          "_feeJar": "Address of FeeJar contract"
        }
      },
      "setRouter(address)": {
        "params": {
          "_router": "Address of SFM Router contract"
        }
      },
      "swapETHForExactTokensWithFeeAmount((uint256,uint256,address[],address,uint256),uint256)": {
        "params": {
          "_feeAmount": "Fee value",
          "trade": "Trade details"
        }
      },
      "swapExactETHForTokensWithFeeAmount((uint256,uint256,address[],address,uint256),uint256)": {
        "params": {
          "_feeAmount": "Fee value",
          "trade": "Trade details"
        }
      },
      "swapExactTokensForETHAndFeeAmount((uint256,uint256,address[],address,uint256))": {
        "params": {
          "trade": "Trade details"
        }
      },
      "swapExactTokensForTokensWithFeeAmount((uint256,uint256,address[],address,uint256))": {
        "params": {
          "trade": "Trade details"
        }
      },
      "swapTokensForExactETHAndFeeAmount((uint256,uint256,address[],address,uint256))": {
        "params": {
          "trade": "Trade details"
        }
      },
      "swapTokensForExactTokensWithFeeAmount((uint256,uint256,address[],address,uint256))": {
        "params": {
          "trade": "Trade details"
        }
      }
    },
    "title": "SafeSwapTradeRouter",
    "version": 1
  },
  "userdoc": {
    "kind": "user",
    "methods": {
      "feeJar()": {
        "notice": "FeepJar proxy"
      },
      "getSwapFee(uint256,uint256,address,address)": {
        "notice": "Get swap fee based on the amount"
      },
      "setFeeJar(address)": {
        "notice": "set feeJar address"
      },
      "setRouter(address)": {
        "notice": "set SFM router address"
      },
      "swapETHForExactTokensWithFeeAmount((uint256,uint256,address[],address,uint256),uint256)": {
        "notice": "Swap BNB for tokens and pay amount of BNB input as fee"
      },
      "swapExactETHForTokensWithFeeAmount((uint256,uint256,address[],address,uint256),uint256)": {
        "notice": "Swap BNB for tokens and pay % of BNB input as fee"
      },
      "swapExactTokensForETHAndFeeAmount((uint256,uint256,address[],address,uint256))": {
        "notice": "Swap tokens for BNB and pay amount of BNB as fee"
      },
      "swapExactTokensForTokensWithFeeAmount((uint256,uint256,address[],address,uint256))": {
        "notice": "Swap tokens for tokens and pay BNB amount as fee"
      },
      "swapTokensForExactETHAndFeeAmount((uint256,uint256,address[],address,uint256))": {
        "notice": "Swap tokens for BNB and pay amount of BNB as fee"
      },
      "swapTokensForExactTokensWithFeeAmount((uint256,uint256,address[],address,uint256))": {
        "notice": "Swap tokens for tokens and pay BNB amount as fee"
      }
    },
    "version": 1
  },
  "storageLayout": {
    "storage": [
      {
        "astId": 7258,
        "contract": "contracts/SafeSwapTradeRouter.sol:SafeSwapTradeRouter",
        "label": "_initialized",
        "offset": 0,
        "slot": "0",
        "type": "t_bool"
      },
      {
        "astId": 7261,
        "contract": "contracts/SafeSwapTradeRouter.sol:SafeSwapTradeRouter",
        "label": "_initializing",
        "offset": 1,
        "slot": "0",
        "type": "t_bool"
      },
      {
        "astId": 541,
        "contract": "contracts/SafeSwapTradeRouter.sol:SafeSwapTradeRouter",
        "label": "feeJar",
        "offset": 2,
        "slot": "0",
        "type": "t_contract(IFeeJar)6885"
      },
      {
        "astId": 543,
        "contract": "contracts/SafeSwapTradeRouter.sol:SafeSwapTradeRouter",
        "label": "swapRouter",
        "offset": 0,
        "slot": "1",
        "type": "t_address"
      },
      {
        "astId": 545,
        "contract": "contracts/SafeSwapTradeRouter.sol:SafeSwapTradeRouter",
        "label": "admin",
        "offset": 0,
        "slot": "2",
        "type": "t_address"
      },
      {
        "astId": 547,
        "contract": "contracts/SafeSwapTradeRouter.sol:SafeSwapTradeRouter",
        "label": "percent",
        "offset": 0,
        "slot": "3",
        "type": "t_uint256"
      },
      {
        "astId": 549,
        "contract": "contracts/SafeSwapTradeRouter.sol:SafeSwapTradeRouter",
        "label": "feePercent",
        "offset": 0,
        "slot": "4",
        "type": "t_uint256"
      },
      {
        "astId": 553,
        "contract": "contracts/SafeSwapTradeRouter.sol:SafeSwapTradeRouter",
        "label": "whitelistFfsFee",
        "offset": 0,
        "slot": "5",
        "type": "t_mapping(t_address,t_bool)"
      }
    ],
    "types": {
      "t_address": {
        "encoding": "inplace",
        "label": "address",
        "numberOfBytes": "20"
      },
      "t_bool": {
        "encoding": "inplace",
        "label": "bool",
        "numberOfBytes": "1"
      },
      "t_contract(IFeeJar)6885": {
        "encoding": "inplace",
        "label": "contract IFeeJar",
        "numberOfBytes": "20"
      },
      "t_mapping(t_address,t_bool)": {
        "encoding": "mapping",
        "key": "t_address",
        "label": "mapping(address => bool)",
        "numberOfBytes": "32",
        "value": "t_bool"
      },
      "t_uint256": {
        "encoding": "inplace",
        "label": "uint256",
        "numberOfBytes": "32"
      }
    }
  }
}