{
  "address": "0x4336c285d2e52A2304fEEA845F23def84eA8A291",
  "abi": [
    {
      "anonymous": false,
      "inputs": [
        {
          "indexed": false,
          "internalType": "string",
          "name": "tokenName",
          "type": "string"
        },
        {
          "indexed": false,
          "internalType": "address",
          "name": "tokenAddress",
          "type": "address"
        },
        {
          "indexed": false,
          "internalType": "address",
          "name": "feesAddress",
          "type": "address"
        },
        {
          "indexed": false,
          "internalType": "uint256",
          "name": "buyFeePercent",
          "type": "uint256"
        },
        {
          "indexed": false,
          "internalType": "uint256",
          "name": "sellFeePercent",
          "type": "uint256"
        },
        {
          "indexed": false,
          "internalType": "bool",
          "name": "isUpdate",
          "type": "bool"
        }
      ],
      "name": "RegisterToken",
      "type": "event"
    },
    {
      "anonymous": false,
      "inputs": [
        {
          "indexed": false,
          "internalType": "address",
          "name": "tokenAddress",
          "type": "address"
        }
      ],
      "name": "UnregisterToken",
      "type": "event"
    },
    {
      "anonymous": false,
      "inputs": [
        {
          "indexed": false,
          "internalType": "bool",
          "name": "newSwitch",
          "type": "bool"
        }
      ],
      "name": "isSwiched",
      "type": "event"
    },
    {
      "stateMutability": "nonpayable",
      "type": "fallback"
    },
    {
      "inputs": [],
      "name": "ONE",
      "outputs": [
        {
          "internalType": "uint256",
          "name": "",
          "type": "uint256"
        }
      ],
      "stateMutability": "view",
      "type": "function"
    },
    {
      "inputs": [],
      "name": "WETH",
      "outputs": [
        {
          "internalType": "address",
          "name": "",
          "type": "address"
        }
      ],
      "stateMutability": "view",
      "type": "function"
    },
    {
      "inputs": [
        {
          "internalType": "address",
          "name": "tokenA",
          "type": "address"
        },
        {
          "internalType": "address",
          "name": "tokenB",
          "type": "address"
        },
        {
          "internalType": "uint256",
          "name": "amountADesired",
          "type": "uint256"
        },
        {
          "internalType": "uint256",
          "name": "amountBDesired",
          "type": "uint256"
        },
        {
          "internalType": "uint256",
          "name": "amountAMin",
          "type": "uint256"
        },
        {
          "internalType": "uint256",
          "name": "amountBMin",
          "type": "uint256"
        },
        {
          "internalType": "address",
          "name": "to",
          "type": "address"
        },
        {
          "internalType": "uint256",
          "name": "deadline",
          "type": "uint256"
        }
      ],
      "name": "addLiquidity",
      "outputs": [
        {
          "internalType": "uint256",
          "name": "amountA",
          "type": "uint256"
        },
        {
          "internalType": "uint256",
          "name": "amountB",
          "type": "uint256"
        },
        {
          "internalType": "uint256",
          "name": "liquidity",
          "type": "uint256"
        }
      ],
      "stateMutability": "nonpayable",
      "type": "function"
    },
    {
      "inputs": [
        {
          "internalType": "address",
          "name": "token",
          "type": "address"
        },
        {
          "internalType": "uint256",
          "name": "amountTokenDesired",
          "type": "uint256"
        },
        {
          "internalType": "uint256",
          "name": "amountTokenMin",
          "type": "uint256"
        },
        {
          "internalType": "uint256",
          "name": "amountETHMin",
          "type": "uint256"
        },
        {
          "internalType": "address",
          "name": "to",
          "type": "address"
        },
        {
          "internalType": "uint256",
          "name": "deadline",
          "type": "uint256"
        }
      ],
      "name": "addLiquidityETH",
      "outputs": [
        {
          "internalType": "uint256",
          "name": "amountToken",
          "type": "uint256"
        },
        {
          "internalType": "uint256",
          "name": "amountETH",
          "type": "uint256"
        },
        {
          "internalType": "uint256",
          "name": "liquidity",
          "type": "uint256"
        }
      ],
      "stateMutability": "payable",
      "type": "function"
    },
    {
      "inputs": [],
      "name": "admin",
      "outputs": [
        {
          "internalType": "address",
          "name": "",
          "type": "address"
        }
      ],
      "stateMutability": "view",
      "type": "function"
    },
    {
      "inputs": [],
      "name": "factory",
      "outputs": [
        {
          "internalType": "address",
          "name": "",
          "type": "address"
        }
      ],
      "stateMutability": "view",
      "type": "function"
    },
    {
      "inputs": [
        {
          "internalType": "uint256",
          "name": "amountOut",
          "type": "uint256"
        },
        {
          "internalType": "uint256",
          "name": "reserveIn",
          "type": "uint256"
        },
        {
          "internalType": "uint256",
          "name": "reserveOut",
          "type": "uint256"
        }
      ],
      "name": "getAmountIn",
      "outputs": [
        {
          "internalType": "uint256",
          "name": "amountIn",
          "type": "uint256"
        }
      ],
      "stateMutability": "pure",
      "type": "function"
    },
    {
      "inputs": [
        {
          "internalType": "uint256",
          "name": "amountIn",
          "type": "uint256"
        },
        {
          "internalType": "uint256",
          "name": "reserveIn",
          "type": "uint256"
        },
        {
          "internalType": "uint256",
          "name": "reserveOut",
          "type": "uint256"
        }
      ],
      "name": "getAmountOut",
      "outputs": [
        {
          "internalType": "uint256",
          "name": "amountOut",
          "type": "uint256"
        }
      ],
      "stateMutability": "pure",
      "type": "function"
    },
    {
      "inputs": [
        {
          "internalType": "uint256",
          "name": "amountOut",
          "type": "uint256"
        },
        {
          "internalType": "address[]",
          "name": "path",
          "type": "address[]"
        }
      ],
      "name": "getAmountsIn",
      "outputs": [
        {
          "internalType": "uint256[]",
          "name": "amounts",
          "type": "uint256[]"
        }
      ],
      "stateMutability": "view",
      "type": "function"
    },
    {
      "inputs": [
        {
          "internalType": "uint256",
          "name": "amountIn",
          "type": "uint256"
        },
        {
          "internalType": "address[]",
          "name": "path",
          "type": "address[]"
        }
      ],
      "name": "getAmountsOut",
      "outputs": [
        {
          "internalType": "uint256[]",
          "name": "amounts",
          "type": "uint256[]"
        }
      ],
      "stateMutability": "view",
      "type": "function"
    },
    {
      "inputs": [
        {
          "internalType": "uint256",
          "name": "",
          "type": "uint256"
        }
      ],
      "name": "idToAddress",
      "outputs": [
        {
          "internalType": "address",
          "name": "",
          "type": "address"
        }
      ],
      "stateMutability": "view",
      "type": "function"
    },
    {
      "inputs": [
        {
          "internalType": "uint256",
          "name": "",
          "type": "uint256"
        }
      ],
      "name": "impls",
      "outputs": [
        {
          "internalType": "address",
          "name": "",
          "type": "address"
        }
      ],
      "stateMutability": "view",
      "type": "function"
    },
    {
      "inputs": [
        {
          "internalType": "address",
          "name": "_factory",
          "type": "address"
        },
        {
          "internalType": "address",
          "name": "_WETH",
          "type": "address"
        }
      ],
      "name": "initialize",
      "outputs": [],
      "stateMutability": "nonpayable",
      "type": "function"
    },
    {
      "inputs": [
        {
          "internalType": "address",
          "name": "LPtoken",
          "type": "address"
        },
        {
          "internalType": "uint256",
          "name": "time",
          "type": "uint256"
        }
      ],
      "name": "lockLP",
      "outputs": [],
      "stateMutability": "nonpayable",
      "type": "function"
    },
    {
      "inputs": [
        {
          "internalType": "uint256",
          "name": "amountA",
          "type": "uint256"
        },
        {
          "internalType": "uint256",
          "name": "reserveA",
          "type": "uint256"
        },
        {
          "internalType": "uint256",
          "name": "reserveB",
          "type": "uint256"
        }
      ],
      "name": "quote",
      "outputs": [
        {
          "internalType": "uint256",
          "name": "amountB",
          "type": "uint256"
        }
      ],
      "stateMutability": "pure",
      "type": "function"
    },
    {
      "inputs": [
        {
          "internalType": "address",
          "name": "tokenA",
          "type": "address"
        },
        {
          "internalType": "address",
          "name": "tokenB",
          "type": "address"
        },
        {
          "internalType": "uint256",
          "name": "liquidity",
          "type": "uint256"
        },
        {
          "internalType": "uint256",
          "name": "amountAMin",
          "type": "uint256"
        },
        {
          "internalType": "uint256",
          "name": "amountBMin",
          "type": "uint256"
        },
        {
          "internalType": "address",
          "name": "to",
          "type": "address"
        },
        {
          "internalType": "uint256",
          "name": "deadline",
          "type": "uint256"
        }
      ],
      "name": "removeLiquidity",
      "outputs": [
        {
          "internalType": "uint256",
          "name": "amountA",
          "type": "uint256"
        },
        {
          "internalType": "uint256",
          "name": "amountB",
          "type": "uint256"
        }
      ],
      "stateMutability": "nonpayable",
      "type": "function"
    },
    {
      "inputs": [
        {
          "internalType": "address",
          "name": "token",
          "type": "address"
        },
        {
          "internalType": "uint256",
          "name": "liquidity",
          "type": "uint256"
        },
        {
          "internalType": "uint256",
          "name": "amountTokenMin",
          "type": "uint256"
        },
        {
          "internalType": "uint256",
          "name": "amountETHMin",
          "type": "uint256"
        },
        {
          "internalType": "address",
          "name": "to",
          "type": "address"
        },
        {
          "internalType": "uint256",
          "name": "deadline",
          "type": "uint256"
        }
      ],
      "name": "removeLiquidityETH",
      "outputs": [
        {
          "internalType": "uint256",
          "name": "amountToken",
          "type": "uint256"
        },
        {
          "internalType": "uint256",
          "name": "amountETH",
          "type": "uint256"
        }
      ],
      "stateMutability": "nonpayable",
      "type": "function"
    },
    {
      "inputs": [
        {
          "internalType": "address",
          "name": "token",
          "type": "address"
        },
        {
          "internalType": "uint256",
          "name": "liquidity",
          "type": "uint256"
        },
        {
          "internalType": "uint256",
          "name": "amountTokenMin",
          "type": "uint256"
        },
        {
          "internalType": "uint256",
          "name": "amountETHMin",
          "type": "uint256"
        },
        {
          "internalType": "address",
          "name": "to",
          "type": "address"
        },
        {
          "internalType": "uint256",
          "name": "deadline",
          "type": "uint256"
        }
      ],
      "name": "removeLiquidityETHSupportingFeeOnTransferTokens",
      "outputs": [
        {
          "internalType": "uint256",
          "name": "amountETH",
          "type": "uint256"
        }
      ],
      "stateMutability": "nonpayable",
      "type": "function"
    },
    {
      "inputs": [
        {
          "internalType": "address",
          "name": "token",
          "type": "address"
        },
        {
          "internalType": "uint256",
          "name": "liquidity",
          "type": "uint256"
        },
        {
          "internalType": "uint256",
          "name": "amountTokenMin",
          "type": "uint256"
        },
        {
          "internalType": "uint256",
          "name": "amountETHMin",
          "type": "uint256"
        },
        {
          "internalType": "address",
          "name": "to",
          "type": "address"
        },
        {
          "internalType": "uint256",
          "name": "deadline",
          "type": "uint256"
        },
        {
          "internalType": "bool",
          "name": "approveMax",
          "type": "bool"
        },
        {
          "internalType": "uint8",
          "name": "v",
          "type": "uint8"
        },
        {
          "internalType": "bytes32",
          "name": "r",
          "type": "bytes32"
        },
        {
          "internalType": "bytes32",
          "name": "s",
          "type": "bytes32"
        }
      ],
      "name": "removeLiquidityETHWithPermit",
      "outputs": [
        {
          "internalType": "uint256",
          "name": "amountToken",
          "type": "uint256"
        },
        {
          "internalType": "uint256",
          "name": "amountETH",
          "type": "uint256"
        }
      ],
      "stateMutability": "nonpayable",
      "type": "function"
    },
    {
      "inputs": [
        {
          "internalType": "address",
          "name": "token",
          "type": "address"
        },
        {
          "internalType": "uint256",
          "name": "liquidity",
          "type": "uint256"
        },
        {
          "internalType": "uint256",
          "name": "amountTokenMin",
          "type": "uint256"
        },
        {
          "internalType": "uint256",
          "name": "amountETHMin",
          "type": "uint256"
        },
        {
          "internalType": "address",
          "name": "to",
          "type": "address"
        },
        {
          "internalType": "uint256",
          "name": "deadline",
          "type": "uint256"
        },
        {
          "internalType": "bool",
          "name": "approveMax",
          "type": "bool"
        },
        {
          "internalType": "uint8",
          "name": "v",
          "type": "uint8"
        },
        {
          "internalType": "bytes32",
          "name": "r",
          "type": "bytes32"
        },
        {
          "internalType": "bytes32",
          "name": "s",
          "type": "bytes32"
        }
      ],
      "name": "removeLiquidityETHWithPermitSupportingFeeOnTransferTokens",
      "outputs": [
        {
          "internalType": "uint256",
          "name": "amountETH",
          "type": "uint256"
        }
      ],
      "stateMutability": "nonpayable",
      "type": "function"
    },
    {
      "inputs": [
        {
          "internalType": "address",
          "name": "tokenA",
          "type": "address"
        },
        {
          "internalType": "address",
          "name": "tokenB",
          "type": "address"
        },
        {
          "internalType": "uint256",
          "name": "liquidity",
          "type": "uint256"
        },
        {
          "internalType": "uint256",
          "name": "amountAMin",
          "type": "uint256"
        },
        {
          "internalType": "uint256",
          "name": "amountBMin",
          "type": "uint256"
        },
        {
          "internalType": "address",
          "name": "to",
          "type": "address"
        },
        {
          "internalType": "uint256",
          "name": "deadline",
          "type": "uint256"
        },
        {
          "internalType": "bool",
          "name": "approveMax",
          "type": "bool"
        },
        {
          "internalType": "uint8",
          "name": "v",
          "type": "uint8"
        },
        {
          "internalType": "bytes32",
          "name": "r",
          "type": "bytes32"
        },
        {
          "internalType": "bytes32",
          "name": "s",
          "type": "bytes32"
        }
      ],
      "name": "removeLiquidityWithPermit",
      "outputs": [
        {
          "internalType": "uint256",
          "name": "amountA",
          "type": "uint256"
        },
        {
          "internalType": "uint256",
          "name": "amountB",
          "type": "uint256"
        }
      ],
      "stateMutability": "nonpayable",
      "type": "function"
    },
    {
      "inputs": [],
      "name": "routerTrade",
      "outputs": [
        {
          "internalType": "address",
          "name": "",
          "type": "address"
        }
      ],
      "stateMutability": "view",
      "type": "function"
    },
    {
      "inputs": [
        {
          "internalType": "uint256",
          "name": "_implIndex",
          "type": "uint256"
        },
        {
          "internalType": "address",
          "name": "_impl",
          "type": "address"
        }
      ],
      "name": "setImpls",
      "outputs": [],
      "stateMutability": "nonpayable",
      "type": "function"
    },
    {
      "inputs": [
        {
          "internalType": "address",
          "name": "_routerTrade",
          "type": "address"
        }
      ],
      "name": "setRouterTrade",
      "outputs": [],
      "stateMutability": "nonpayable",
      "type": "function"
    },
    {
      "inputs": [
        {
          "internalType": "address",
          "name": "_user",
          "type": "address"
        },
        {
          "internalType": "bool",
          "name": "_status",
          "type": "bool"
        }
      ],
      "name": "setWhitelist",
      "outputs": [],
      "stateMutability": "nonpayable",
      "type": "function"
    },
    {
      "inputs": [
        {
          "internalType": "uint256",
          "name": "amountOut",
          "type": "uint256"
        },
        {
          "internalType": "address[]",
          "name": "path",
          "type": "address[]"
        },
        {
          "internalType": "address",
          "name": "to",
          "type": "address"
        },
        {
          "internalType": "uint256",
          "name": "deadline",
          "type": "uint256"
        }
      ],
      "name": "swapETHForExactTokens",
      "outputs": [
        {
          "internalType": "uint256[]",
          "name": "amounts",
          "type": "uint256[]"
        }
      ],
      "stateMutability": "payable",
      "type": "function"
    },
    {
      "inputs": [
        {
          "internalType": "uint256",
          "name": "amountOutMin",
          "type": "uint256"
        },
        {
          "internalType": "address[]",
          "name": "path",
          "type": "address[]"
        },
        {
          "internalType": "address",
          "name": "to",
          "type": "address"
        },
        {
          "internalType": "uint256",
          "name": "deadline",
          "type": "uint256"
        }
      ],
      "name": "swapExactETHForTokens",
      "outputs": [
        {
          "internalType": "uint256[]",
          "name": "amounts",
          "type": "uint256[]"
        }
      ],
      "stateMutability": "payable",
      "type": "function"
    },
    {
      "inputs": [
        {
          "internalType": "uint256",
          "name": "amountOutMin",
          "type": "uint256"
        },
        {
          "internalType": "address[]",
          "name": "path",
          "type": "address[]"
        },
        {
          "internalType": "address",
          "name": "to",
          "type": "address"
        },
        {
          "internalType": "uint256",
          "name": "deadline",
          "type": "uint256"
        }
      ],
      "name": "swapExactETHForTokensSupportingFeeOnTransferTokens",
      "outputs": [],
      "stateMutability": "payable",
      "type": "function"
    },
    {
      "inputs": [
        {
          "internalType": "uint256",
          "name": "amountIn",
          "type": "uint256"
        },
        {
          "internalType": "uint256",
          "name": "amountOutMin",
          "type": "uint256"
        },
        {
          "internalType": "address[]",
          "name": "path",
          "type": "address[]"
        },
        {
          "internalType": "address",
          "name": "from",
          "type": "address"
        },
        {
          "internalType": "address",
          "name": "to",
          "type": "address"
        },
        {
          "internalType": "uint256",
          "name": "deadline",
          "type": "uint256"
        }
      ],
      "name": "swapExactTokensForETH",
      "outputs": [
        {
          "internalType": "uint256[]",
          "name": "amounts",
          "type": "uint256[]"
        }
      ],
      "stateMutability": "nonpayable",
      "type": "function"
    },
    {
      "inputs": [
        {
          "internalType": "uint256",
          "name": "amountIn",
          "type": "uint256"
        },
        {
          "internalType": "uint256",
          "name": "amountOutMin",
          "type": "uint256"
        },
        {
          "internalType": "address[]",
          "name": "path",
          "type": "address[]"
        },
        {
          "internalType": "address",
          "name": "to",
          "type": "address"
        },
        {
          "internalType": "uint256",
          "name": "deadline",
          "type": "uint256"
        }
      ],
      "name": "swapExactTokensForETH",
      "outputs": [
        {
          "internalType": "uint256[]",
          "name": "amounts",
          "type": "uint256[]"
        }
      ],
      "stateMutability": "nonpayable",
      "type": "function"
    },
    {
      "inputs": [
        {
          "internalType": "uint256",
          "name": "amountIn",
          "type": "uint256"
        },
        {
          "internalType": "uint256",
          "name": "amountOutMin",
          "type": "uint256"
        },
        {
          "internalType": "address[]",
          "name": "path",
          "type": "address[]"
        },
        {
          "internalType": "address",
          "name": "from",
          "type": "address"
        },
        {
          "internalType": "address",
          "name": "to",
          "type": "address"
        },
        {
          "internalType": "uint256",
          "name": "deadline",
          "type": "uint256"
        }
      ],
      "name": "swapExactTokensForETHSupportingFeeOnTransferTokens",
      "outputs": [],
      "stateMutability": "nonpayable",
      "type": "function"
    },
    {
      "inputs": [
        {
          "internalType": "uint256",
          "name": "amountIn",
          "type": "uint256"
        },
        {
          "internalType": "uint256",
          "name": "amountOutMin",
          "type": "uint256"
        },
        {
          "internalType": "address[]",
          "name": "path",
          "type": "address[]"
        },
        {
          "internalType": "address",
          "name": "to",
          "type": "address"
        },
        {
          "internalType": "uint256",
          "name": "deadline",
          "type": "uint256"
        }
      ],
      "name": "swapExactTokensForETHSupportingFeeOnTransferTokens",
      "outputs": [],
      "stateMutability": "nonpayable",
      "type": "function"
    },
    {
      "inputs": [
        {
          "internalType": "uint256",
          "name": "amountOut",
          "type": "uint256"
        },
        {
          "internalType": "uint256",
          "name": "amountInMax",
          "type": "uint256"
        },
        {
          "internalType": "address[]",
          "name": "path",
          "type": "address[]"
        },
        {
          "internalType": "address",
          "name": "from",
          "type": "address"
        },
        {
          "internalType": "address",
          "name": "to",
          "type": "address"
        },
        {
          "internalType": "uint256",
          "name": "deadline",
          "type": "uint256"
        }
      ],
      "name": "swapTokensForExactETH",
      "outputs": [
        {
          "internalType": "uint256[]",
          "name": "amounts",
          "type": "uint256[]"
        }
      ],
      "stateMutability": "nonpayable",
      "type": "function"
    },
    {
      "inputs": [
        {
          "internalType": "uint256",
          "name": "amountOut",
          "type": "uint256"
        },
        {
          "internalType": "uint256",
          "name": "amountInMax",
          "type": "uint256"
        },
        {
          "internalType": "address[]",
          "name": "path",
          "type": "address[]"
        },
        {
          "internalType": "address",
          "name": "to",
          "type": "address"
        },
        {
          "internalType": "uint256",
          "name": "deadline",
          "type": "uint256"
        }
      ],
      "name": "swapTokensForExactETH",
      "outputs": [
        {
          "internalType": "uint256[]",
          "name": "amounts",
          "type": "uint256[]"
        }
      ],
      "stateMutability": "nonpayable",
      "type": "function"
    },
    {
      "inputs": [],
      "name": "version",
      "outputs": [
        {
          "internalType": "uint256",
          "name": "",
          "type": "uint256"
        }
      ],
      "stateMutability": "view",
      "type": "function"
    },
    {
      "inputs": [
        {
          "internalType": "address",
          "name": "",
          "type": "address"
        }
      ],
      "name": "whitelistAccess",
      "outputs": [
        {
          "internalType": "bool",
          "name": "",
          "type": "bool"
        }
      ],
      "stateMutability": "view",
      "type": "function"
    },
    {
      "stateMutability": "payable",
      "type": "receive"
    }
  ],
  "transactionHash": "0xf115ced37760c306e16c312ba7706b59678a5b30d8efc4da26d114ea64d715e9",
  "args": [],
  "numDeployments": 1,
  "solcInputHash": "52a57dab6c67a894f1a4aa1548988799",
  "bytecode": "0x608060405234801561001057600080fd5b506158a380620000216000396000f3fe6080604052600436106101a35760003560e01c806302751cec146101f7578063054d50d4146102315780630782abdf1461025f57806318cbafe51461028c5780631f00ca74146102ac5780632195995c146102cc5780632295c42d146102ec5780632391dfe81461030c5780632a2d0c471461032c578063485cc9551461036f5780634a25d94a1461038f57806352aa4c22146103af57806353d6fd59146103cf57806354fd4d50146103ef5780635b0d59841461040357806374d3fef214610423578063791ac947146104595780637ff36ab51461047957806385f8c2591461048c57806389312c8a146104ac5780639ca21d03146104cc578063ad5c46481461050c578063ad615dec1461052c578063af2979eb1461054c578063b6f9de951461056c578063baa2abde1461057f578063c2ee3a081461059f578063c45a0155146105bb578063c6b06e2d146105e1578063d06ca61f14610601578063ded9382a14610621578063e8e3370014610641578063f305d7191461067c578063f851a4401461068f578063fb3bdb41146106af578063fbe4ebda146106c2576101aa565b366101aa57005b3480156101b657600080fd5b506001600052600a6020527fbbc70db1b6c7afd11e79c0fb0051300458f1a3acb8ee9789d9b6b26c61ad9bc7546101f5906001600160a01b03166106e2565b005b34801561020357600080fd5b50610217610212366004614d08565b61070b565b604080519283526020830191909152015b60405180910390f35b34801561023d57600080fd5b5061025161024c366004614d66565b6107b7565b604051908152602001610228565b34801561026b57600080fd5b5061027f61027a366004614dd6565b6107ce565b6040516102289190614e5c565b34801561029857600080fd5b5061027f6102a7366004614ea0565b610cbe565b3480156102b857600080fd5b5061027f6102c7366004614f28565b611112565b3480156102d857600080fd5b506102176102e7366004615017565b611132565b3480156102f857600080fd5b506101f56103073660046150c1565b611200565b34801561031857600080fd5b5061027f610327366004614dd6565b611255565b34801561033857600080fd5b506103626103473660046150ed565b6007602052600090815260409020546001600160a01b031681565b6040516102289190615106565b34801561037b57600080fd5b506101f561038a36600461511a565b6116b0565b34801561039b57600080fd5b5061027f6103aa366004614ea0565b6117c4565b3480156103bb57600080fd5b506101f56103ca366004614dd6565b611c33565b3480156103db57600080fd5b506101f56103ea366004615153565b611f75565b3480156103fb57600080fd5b506001610251565b34801561040f57600080fd5b5061025161041e366004615181565b611fa8565b34801561042f57600080fd5b5061036261043e3660046150ed565b600a602052600090815260409020546001600160a01b031681565b34801561046557600080fd5b506101f5610474366004614ea0565b61206e565b61027f610487366004615217565b6123d7565b34801561049857600080fd5b506102516104a7366004614d66565b6127eb565b3480156104b857600080fd5b506101f56104c736600461527d565b6127f8565b3480156104d857600080fd5b506104fc6104e73660046152a2565b60096020526000908152604090205460ff1681565b6040519015158152602001610228565b34801561051857600080fd5b50600154610362906001600160a01b031681565b34801561053857600080fd5b50610251610547366004614d66565b61282e565b34801561055857600080fd5b50610251610567366004614d08565b61283b565b6101f561057a366004615217565b612944565b34801561058b57600080fd5b5061021761059a3660046152bf565b612c67565b3480156105ab57600080fd5b50610251670de0b6b3a764000081565b3480156105c757600080fd5b50600054610362906201000090046001600160a01b031681565b3480156105ed57600080fd5b50600854610362906001600160a01b031681565b34801561060d57600080fd5b5061027f61061c366004614f28565b612e06565b34801561062d57600080fd5b5061021761063c366004615181565b612e26565b34801561064d57600080fd5b5061066161065c366004615331565b612f03565b60408051938452602084019290925290820152606001610228565b61066161068a366004614d08565b612fe1565b34801561069b57600080fd5b50600254610362906001600160a01b031681565b61027f6106bd366004615217565b6131ca565b3480156106ce57600080fd5b506101f56106dd3660046152a2565b613613565b3660008037600080366000845af43d6000803e808015610701573d6000f35b3d6000fd5b505050565b600080826107188161363d565b600154610734908a906001600160a01b03168a8a8a308a612c67565b600154604051632e1a7d4d60e01b8152600481018390529295509093506001600160a01b031690632e1a7d4d90602401600060405180830381600087803b15801561077e57600080fd5b505af1158015610792573d6000803e3d6000fd5b505050506107a0858361368a565b6107ab898685613764565b50965096945050505050565b60006107c4848484613897565b90505b9392505050565b6060816107da8161363d565b6107e2613975565b600180546001600160a01b031690889088906107fe90826153c3565b81811061080d5761080d6153da565b905060200201602081019061082291906152a2565b6001600160a01b0316146108515760405162461bcd60e51b8152600401610848906153f0565b60405180910390fd5b60006108a6600060029054906101000a90046001600160a01b03168b8a8a808060200260200160405190810160405280939291908181526020018383602002808284376000920191909152506139d692505050565b90508881600183516108b891906153c3565b815181106108c8576108c86153da565b602002602001015110156108ee5760405162461bcd60e51b815260040161084890615426565b6006600089896000818110610905576109056153da565b905060200201602081019061091a91906152a2565b6001600160a01b0316815260208101919091526040016000205460ff16151560011480156109525750600154600160a01b900460ff16155b80156109ad57506000600660008a8a6000818110610972576109726153da565b905060200201602081019061098791906152a2565b6001600160a01b03166001600160a01b0316815260200190815260200160002060050154115b15610aa8576000670de0b6b3a7640000600660008b8b60008181106109d4576109d46153da565b90506020020160208101906109e991906152a2565b6001600160a01b03168152602081019190915260400160002060050154610a10908d615470565b610a1a919061548f565b9050610a26818c6153c3565b9a50610aa689896000818110610a3e57610a3e6153da565b9050602002016020810190610a5391906152a2565b88600660008d8d6000818110610a6b57610a6b6153da565b9050602002016020810190610a8091906152a2565b6001600160a01b0390811682526020820192909252604001600020600301541684613b30565b505b610afb600060029054906101000a90046001600160a01b03168b8a8a808060200260200160405190810160405280939291908181526020018383602002808284376000920191909152506139d692505050565b9250610bb788886000818110610b1357610b136153da565b9050602002016020810190610b2891906152a2565b87610b97600060029054906101000a90046001600160a01b03168c8c6000818110610b5557610b556153da565b9050602002016020810190610b6a91906152a2565b8d8d6001818110610b7d57610b7d6153da565b9050602002016020810190610b9291906152a2565b613c6a565b86600081518110610baa57610baa6153da565b6020026020010151613b30565b610bf683898980806020026020016040519081016040528093929190818152602001838360200280828437600092019190915250309250613d27915050565b6001805484516001600160a01b0390911691632e1a7d4d918691610c19916153c3565b81518110610c2957610c296153da565b60200260200101516040518263ffffffff1660e01b8152600401610c4f91815260200190565b600060405180830381600087803b158015610c6957600080fd5b505af1158015610c7d573d6000803e3d6000fd5b50505050610cb1858460018651610c9491906153c3565b81518110610ca457610ca46153da565b602002602001015161368a565b5050979650505050505050565b606081610cca8161363d565b610cd2613975565b600180546001600160a01b03169087908790610cee90826153c3565b818110610cfd57610cfd6153da565b9050602002016020810190610d1291906152a2565b6001600160a01b031614610d385760405162461bcd60e51b8152600401610848906153f0565b6000610d8d600060029054906101000a90046001600160a01b03168a8989808060200260200160405190810160405280939291908181526020018383602002808284376000920191909152506139d692505050565b9050878160018351610d9f91906153c3565b81518110610daf57610daf6153da565b60200260200101511015610dd55760405162461bcd60e51b815260040161084890615426565b6006600088886000818110610dec57610dec6153da565b9050602002016020810190610e0191906152a2565b6001600160a01b0316815260208101919091526040016000205460ff1615156001148015610e395750600154600160a01b900460ff16155b8015610e94575060006006600089896000818110610e5957610e596153da565b9050602002016020810190610e6e91906152a2565b6001600160a01b03166001600160a01b0316815260200190815260200160002060050154115b15610f54576000670de0b6b3a7640000600660008a8a6000818110610ebb57610ebb6153da565b9050602002016020810190610ed091906152a2565b6001600160a01b03168152602081019190915260400160002060050154610ef7908c615470565b610f01919061548f565b9050610f0d818b6153c3565b9950610f5288886000818110610f2557610f256153da565b9050602002016020810190610f3a91906152a2565b33600660008c8c6000818110610a6b57610a6b6153da565b505b610fa7600060029054906101000a90046001600160a01b03168a8989808060200260200160405190810160405280939291908181526020018383602002808284376000920191909152506139d692505050565b925061102987876000818110610fbf57610fbf6153da565b9050602002016020810190610fd491906152a2565b33610b97600060029054906101000a90046001600160a01b03168b8b6000818110611001576110016153da565b905060200201602081019061101691906152a2565b8c8c6001818110610b7d57610b7d6153da565b61106883888880806020026020016040519081016040528093929190818152602001838360200280828437600092019190915250309250613d27915050565b6001805484516001600160a01b0390911691632e1a7d4d91869161108b916153c3565b8151811061109b5761109b6153da565b60200260200101516040518263ffffffff1660e01b81526004016110c191815260200190565b600060405180830381600087803b1580156110db57600080fd5b505af11580156110ef573d6000803e3d6000fd5b50505050611106858460018651610c9491906153c3565b50509695505050505050565b6000546060906107c7906201000090046001600160a01b03168484613f14565b6000806000611157600060029054906101000a90046001600160a01b03168f8f613c6a565b9050600087611166578c61116a565b6000195b60405163d505accf60e01b81529091506001600160a01b0383169063d505accf906111a5903390309086908f908e908e908e906004016154b1565b600060405180830381600087803b1580156111bf57600080fd5b505af11580156111d3573d6000803e3d6000fd5b505050506111e68f8f8f8f8f8f8f612c67565b809450819550505050509b509b9950505050505050505050565b611208614064565b6001600160a01b0382166000908152600460205260409020805460ff1916600117905561123581426154f2565b6001600160a01b0390921660009081526005602052604090209190915550565b6060816112618161363d565b611269613975565b600180546001600160a01b0316908890889061128590826153c3565b818110611294576112946153da565b90506020020160208101906112a991906152a2565b6001600160a01b0316146112cf5760405162461bcd60e51b8152600401610848906153f0565b611322600060029054906101000a90046001600160a01b03168a898980806020026020016040519081016040528093929190818152602001838360200280828437600092019190915250613f1492505050565b91508782600081518110611338576113386153da565b6020026020010151111561135e5760405162461bcd60e51b81526004016108489061550a565b6006600088886000818110611375576113756153da565b905060200201602081019061138a91906152a2565b6001600160a01b0316815260208101919091526040016000205460ff16151560011480156113c25750600154600160a01b900460ff16155b801561141d5750600060066000898960008181106113e2576113e26153da565b90506020020160208101906113f791906152a2565b6001600160a01b03166001600160a01b0316815260200190815260200160002060050154115b156114ed57600082600081518110611437576114376153da565b602002602001015190506000670de0b6b3a7640000600660008b8b6000818110611463576114636153da565b905060200201602081019061147891906152a2565b6001600160a01b0316815260208101919091526040016000206005015461149f9084615470565b6114a9919061548f565b90506114b581836153c3565b846000815181106114c8576114c86153da565b6020026020010181815250506114ea89896000818110610a3e57610a3e6153da565b50505b61155a600060029054906101000a90046001600160a01b031683600081518110611519576115196153da565b60200260200101518989808060200260200160405190810160405280939291908181526020018383602002808284376000920191909152506139d692505050565b91506115c787876000818110611572576115726153da565b905060200201602081019061158791906152a2565b866115b4600060029054906101000a90046001600160a01b03168b8b6000818110611001576110016153da565b85600081518110610baa57610baa6153da565b61160682888880806020026020016040519081016040528093929190818152602001838360200280828437600092019190915250309250613d27915050565b6001805483516001600160a01b0390911691632e1a7d4d918591611629916153c3565b81518110611639576116396153da565b60200260200101516040518263ffffffff1660e01b815260040161165f91815260200190565b600060405180830381600087803b15801561167957600080fd5b505af115801561168d573d6000803e3d6000fd5b505050506116a4848360018551610c9491906153c3565b50979650505050505050565b600054610100900460ff16806116c55750303b155b806116d3575060005460ff16155b6117365760405162461bcd60e51b815260206004820152602e60248201527f496e697469616c697a61626c653a20636f6e747261637420697320616c72656160448201526d191e481a5b9a5d1a585b1a5e995960921b6064820152608401610848565b600054610100900460ff16158015611758576000805461ffff19166101011790555b600080546001600160a01b03808616620100000262010000600160b01b031990921691909117825560018054600280546001600160a01b031916331790556003939093556001600160a81b03199092169084161790558015610706576000805461ff0019169055505050565b6060816117d08161363d565b6117d8613975565b600180546001600160a01b031690879087906117f490826153c3565b818110611803576118036153da565b905060200201602081019061181891906152a2565b6001600160a01b03161461183e5760405162461bcd60e51b8152600401610848906153f0565b611891600060029054906101000a90046001600160a01b031689888880806020026020016040519081016040528093929190818152602001838360200280828437600092019190915250613f1492505050565b915086826000815181106118a7576118a76153da565b602002602001015111156118cd5760405162461bcd60e51b81526004016108489061550a565b60066000878760008181106118e4576118e46153da565b90506020020160208101906118f991906152a2565b6001600160a01b0316815260208101919091526040016000205460ff16151560011480156119315750600154600160a01b900460ff16155b801561198c575060006006600088886000818110611951576119516153da565b905060200201602081019061196691906152a2565b6001600160a01b03166001600160a01b0316815260200190815260200160002060050154115b15611a5c576000826000815181106119a6576119a66153da565b602002602001015190506000670de0b6b3a7640000600660008a8a60008181106119d2576119d26153da565b90506020020160208101906119e791906152a2565b6001600160a01b03168152602081019190915260400160002060050154611a0e9084615470565b611a18919061548f565b9050611a2481836153c3565b84600081518110611a3757611a376153da565b602002602001018181525050611a5988886000818110610f2557610f256153da565b50505b611ac9600060029054906101000a90046001600160a01b031683600081518110611a8857611a886153da565b60200260200101518888808060200260200160405190810160405280939291908181526020018383602002808284376000920191909152506139d692505050565b9150611b4b86866000818110611ae157611ae16153da565b9050602002016020810190611af691906152a2565b336115b4600060029054906101000a90046001600160a01b03168a8a6000818110611b2357611b236153da565b9050602002016020810190611b3891906152a2565b8b8b6001818110610b7d57610b7d6153da565b611b8a82878780806020026020016040519081016040528093929190818152602001838360200280828437600092019190915250309250613d27915050565b6001805483516001600160a01b0390911691632e1a7d4d918591611bad916153c3565b81518110611bbd57611bbd6153da565b60200260200101516040518263ffffffff1660e01b8152600401611be391815260200190565b600060405180830381600087803b158015611bfd57600080fd5b505af1158015611c11573d6000803e3d6000fd5b50505050611c28848360018551610c9491906153c3565b509695505050505050565b80611c3d8161363d565b611c45613975565b600180546001600160a01b03169087908790611c6190826153c3565b818110611c7057611c706153da565b9050602002016020810190611c8591906152a2565b6001600160a01b031614611cab5760405162461bcd60e51b8152600401610848906153f0565b6006600087876000818110611cc257611cc26153da565b9050602002016020810190611cd791906152a2565b6001600160a01b0316815260208101919091526040016000205460ff1615156001148015611d0f5750600154600160a01b900460ff16155b8015611d6a575060006006600088886000818110611d2f57611d2f6153da565b9050602002016020810190611d4491906152a2565b6001600160a01b03166001600160a01b0316815260200190815260200160002060050154115b15611e2a576000670de0b6b3a76400006006600089896000818110611d9157611d916153da565b9050602002016020810190611da691906152a2565b6001600160a01b03168152602081019190915260400160002060050154611dcd908b615470565b611dd7919061548f565b9050611de3818a6153c3565b9850611e2887876000818110611dfb57611dfb6153da565b9050602002016020810190611e1091906152a2565b86600660008b8b6000818110610a6b57610a6b6153da565b505b611e8886866000818110611e4057611e406153da565b9050602002016020810190611e5591906152a2565b85611e82600060029054906101000a90046001600160a01b03168a8a6000818110611b2357611b236153da565b8b613b30565b600080611ec98888808060200260200160405190810160405280939291908181526020018383602002808284376000920191909152503092506140be915050565b915091506000808311611edc5781611ede565b825b905089811015611f005760405162461bcd60e51b815260040161084890615426565b600154604051632e1a7d4d60e01b8152600481018390526001600160a01b0390911690632e1a7d4d90602401600060405180830381600087803b158015611f4657600080fd5b505af1158015611f5a573d6000803e3d6000fd5b50505050611f68868261368a565b5050505050505050505050565b611f7d614064565b6001600160a01b03919091166000908152600960205260409020805460ff1916911515919091179055565b600080546001548291611fcf916001600160a01b03620100009092048216918f9116613c6a565b9050600086611fde578b611fe2565b6000195b60405163d505accf60e01b81529091506001600160a01b0383169063d505accf9061201d903390309086908e908d908d908d906004016154b1565b600060405180830381600087803b15801561203757600080fd5b505af115801561204b573d6000803e3d6000fd5b5050505061205d8d8d8d8d8d8d61283b565b9d9c50505050505050505050505050565b806120788161363d565b612080613975565b600180546001600160a01b0316908690869061209c90826153c3565b8181106120ab576120ab6153da565b90506020020160208101906120c091906152a2565b6001600160a01b0316146120e65760405162461bcd60e51b8152600401610848906153f0565b60066000868660008181106120fd576120fd6153da565b905060200201602081019061211291906152a2565b6001600160a01b0316815260208101919091526040016000205460ff161515600114801561214a5750600154600160a01b900460ff16155b80156121a557506000600660008787600081811061216a5761216a6153da565b905060200201602081019061217f91906152a2565b6001600160a01b03166001600160a01b0316815260200190815260200160002060050154115b15612265576000670de0b6b3a764000060066000888860008181106121cc576121cc6153da565b90506020020160208101906121e191906152a2565b6001600160a01b03168152602081019190915260400160002060050154612208908a615470565b612212919061548f565b905061221e81896153c3565b975061226386866000818110612236576122366153da565b905060200201602081019061224b91906152a2565b33600660008a8a6000818110610a6b57610a6b6153da565b505b6122eb8585600081811061227b5761227b6153da565b905060200201602081019061229091906152a2565b336122e5600060029054906101000a90046001600160a01b0316898960008181106122bd576122bd6153da565b90506020020160208101906122d291906152a2565b8a8a6001818110610b7d57610b7d6153da565b8a613b30565b60008061232c878780806020026020016040519081016040528093929190818152602001838360200280828437600092019190915250309250614437915050565b91509150600080831161233f5781612341565b825b9050888110156123635760405162461bcd60e51b815260040161084890615426565b600154604051632e1a7d4d60e01b8152600481018390526001600160a01b0390911690632e1a7d4d90602401600060405180830381600087803b1580156123a957600080fd5b505af11580156123bd573d6000803e3d6000fd5b505050506123cb868261368a565b50505050505050505050565b6060816123e38161363d565b6123eb613975565b6001546001600160a01b03168686600081612408576124086153da565b905060200201602081019061241d91906152a2565b6001600160a01b0316146124435760405162461bcd60e51b8152600401610848906153f0565b612496600060029054906101000a90046001600160a01b0316348888808060200260200160405190810160405280939291908181526020018383602002808284376000920191909152506139d692505050565b91508682600184516124a891906153c3565b815181106124b8576124b86153da565b602002602001015110156124de5760405162461bcd60e51b815260040161084890615426565b60066000878760018181106124f5576124f56153da565b905060200201602081019061250a91906152a2565b6001600160a01b0316815260208101919091526040016000205460ff16151560011480156125425750600154600160a01b900460ff16155b801561259d575060006006600088886001818110612562576125626153da565b905060200201602081019061257791906152a2565b6001600160a01b03166001600160a01b0316815260200190815260200160002060040154115b1561266f57600082600184516125b391906153c3565b815181106125c3576125c36153da565b602002602001015190506000670de0b6b3a7640000600660008a8a60018181106125ef576125ef6153da565b905060200201602081019061260491906152a2565b6001600160a01b0316815260208101919091526040016000206004015461262b9084615470565b612635919061548f565b905061264181836153c3565b846001865161265091906153c3565b81518110612660576126606153da565b60200260200101818152505050505b60015482516001600160a01b039091169063d0e30db0908490600090612697576126976153da565b60200260200101516040518263ffffffff1660e01b81526004016000604051808303818588803b1580156126ca57600080fd5b505af11580156126de573d6000803e3d6000fd5b5050600154600080546001600160a01b03928316955063a9059cbb945061271b9350620100009004909116908a908a90816122bd576122bd6153da565b8460008151811061272e5761272e6153da565b60200260200101516040518363ffffffff1660e01b8152600401612753929190615550565b6020604051808303816000875af1158015612772573d6000803e3d6000fd5b505050506040513d601f19601f820116820180604052508101906127969190615569565b6127a2576127a2615586565b6127e182878780806020026020016040519081016040528093929190818152602001838360200280828437600092019190915250899250613d27915050565b5095945050505050565b60006107c48484846147a8565b612800614064565b6000918252600a602052604090912080546001600160a01b0319166001600160a01b03909216919091179055565b60006107c484848461488c565b6000816128478161363d565b6001546128639089906001600160a01b03168989893089612c67565b600154604051632e1a7d4d60e01b8152600481018390529194506001600160a01b03169150632e1a7d4d90602401600060405180830381600087803b1580156128ab57600080fd5b505af11580156128bf573d6000803e3d6000fd5b505050506128cd848361368a565b611c2888858a6001600160a01b03166370a08231306040518263ffffffff1660e01b81526004016128fe9190615106565b602060405180830381865afa15801561291b573d6000803e3d6000fd5b505050506040513d601f19601f8201168201806040525081019061293f919061559c565b613764565b8061294e8161363d565b612956613975565b6001546001600160a01b03168585600081612973576129736153da565b905060200201602081019061298891906152a2565b6001600160a01b0316146129ae5760405162461bcd60e51b8152600401610848906153f0565b60015460408051630d0e30db60e41b8152905134926001600160a01b03169163d0e30db091849160048082019260009290919082900301818588803b1580156129f657600080fd5b505af1158015612a0a573d6000803e3d6000fd5b5050600154600080546001600160a01b03928316955063a9059cbb9450612a479350620100009004909116908a908a90816122bd576122bd6153da565b836040518363ffffffff1660e01b8152600401612a65929190615550565b6020604051808303816000875af1158015612a84573d6000803e3d6000fd5b505050506040513d601f19601f82011682018060405250810190612aa89190615569565b612ab457612ab4615586565b60008686612ac36001826153c3565b818110612ad257612ad26153da565b9050602002016020810190612ae791906152a2565b6001600160a01b03166370a08231866040518263ffffffff1660e01b8152600401612b129190615106565b602060405180830381865afa158015612b2f573d6000803e3d6000fd5b505050506040513d601f19601f82011682018060405250810190612b53919061559c565b9050612b938787808060200260200160405190810160405280939291908181526020018383602002808284376000920191909152508992506140be915050565b50889050818888612ba56001826153c3565b818110612bb457612bb46153da565b9050602002016020810190612bc991906152a2565b6001600160a01b03166370a08231886040518263ffffffff1660e01b8152600401612bf49190615106565b602060405180830381865afa158015612c11573d6000803e3d6000fd5b505050506040513d601f19601f82011682018060405250810190612c35919061559c565b612c3f91906153c3565b1015612c5d5760405162461bcd60e51b815260040161084890615426565b5050505050505050565b60008082612c748161363d565b60008054612c92906201000090046001600160a01b03168c8c613c6a565b6040516323b872dd60e01b81529091506001600160a01b038216906323b872dd90612cc590339085908e906004016155b5565b6020604051808303816000875af1158015612ce4573d6000803e3d6000fd5b505050506040513d601f19601f82011682018060405250810190612d089190615569565b50600080826001600160a01b03166389afcb44896040518263ffffffff1660e01b8152600401612d389190615106565b60408051808303816000875af1158015612d56573d6000803e3d6000fd5b505050506040513d601f19601f82011682018060405250810190612d7a91906155d9565b915091506000612d8a8e8e61492a565b509050806001600160a01b03168e6001600160a01b031614612dad578183612db0565b82825b90975095508a871015612dd55760405162461bcd60e51b8152600401610848906155fd565b89861015612df55760405162461bcd60e51b815260040161084890615642565b505050505097509795505050505050565b6000546060906107c7906201000090046001600160a01b031684846139d6565b6000806000612e60600060029054906101000a90046001600160a01b03168e600160009054906101000a90046001600160a01b0316613c6a565b9050600087612e6f578c612e73565b6000195b60405163d505accf60e01b81529091506001600160a01b0383169063d505accf90612eae903390309086908f908e908e908e906004016154b1565b600060405180830381600087803b158015612ec857600080fd5b505af1158015612edc573d6000803e3d6000fd5b50505050612eee8e8e8e8e8e8e61070b565b909f909e509c50505050505050505050505050565b600080600083612f128161363d565b612f218c8c8c8c8c8c8c614a20565b6000805492965090945090612f46906201000090046001600160a01b03168e8e613c6a565b9050612f548d338388613b30565b612f608c338387613b30565b6040516335313c2160e11b81526001600160a01b03821690636a62784290612f8c908a90600401615106565b6020604051808303816000875af1158015612fab573d6000803e3d6000fd5b505050506040513d601f19601f82011682018060405250810190612fcf919061559c565b92505050985098509895505050505050565b600080600083612ff08161363d565b60015461300c908b906001600160a01b03168b348c8c8c614a20565b6000805460015493975091955091613038916001600160a01b03620100009091048116918e9116613c6a565b90506130468b338388613b30565b600160009054906101000a90046001600160a01b03166001600160a01b031663d0e30db0856040518263ffffffff1660e01b81526004016000604051808303818588803b15801561309657600080fd5b505af11580156130aa573d6000803e3d6000fd5b505060015460405163a9059cbb60e01b81526001600160a01b03909116935063a9059cbb92506130e1915084908890600401615550565b6020604051808303816000875af1158015613100573d6000803e3d6000fd5b505050506040513d601f19601f820116820180604052508101906131249190615569565b61313057613130615586565b6040516335313c2160e11b81526001600160a01b03821690636a6278429061315c908a90600401615106565b6020604051808303816000875af115801561317b573d6000803e3d6000fd5b505050506040513d601f19601f8201168201806040525081019061319f919061559c565b9250833411156131bc576131bc336131b786346153c3565b61368a565b505096509650969350505050565b6060816131d68161363d565b6131de613975565b6001546001600160a01b031686866000816131fb576131fb6153da565b905060200201602081019061321091906152a2565b6001600160a01b0316146132365760405162461bcd60e51b8152600401610848906153f0565b613289600060029054906101000a90046001600160a01b031688888880806020026020016040519081016040528093929190818152602001838360200280828437600092019190915250613f1492505050565b9150348260008151811061329f5761329f6153da565b602002602001015111156132c55760405162461bcd60e51b81526004016108489061550a565b60066000878760018181106132dc576132dc6153da565b90506020020160208101906132f191906152a2565b6001600160a01b0316815260208101919091526040016000205460ff16151560011480156133295750600154600160a01b900460ff16155b8015613384575060006006600088886001818110613349576133496153da565b905060200201602081019061335e91906152a2565b6001600160a01b03166001600160a01b0316815260200190815260200160002060040154115b15613401576000670de0b6b3a764000060066000898960018181106133ab576133ab6153da565b90506020020160208101906133c091906152a2565b6001600160a01b031681526020810191909152604001600020600401546133e7908a615470565b6133f1919061548f565b90506133fd81896153c3565b9750505b613454600060029054906101000a90046001600160a01b031688888880806020026020016040519081016040528093929190818152602001838360200280828437600092019190915250613f1492505050565b60015481519193506001600160a01b03169063d0e30db090849060009061347d5761347d6153da565b60200260200101516040518263ffffffff1660e01b81526004016000604051808303818588803b1580156134b057600080fd5b505af11580156134c4573d6000803e3d6000fd5b5050600154600080546001600160a01b03928316955063a9059cbb94506135019350620100009004909116908a908a90816122bd576122bd6153da565b84600081518110613514576135146153da565b60200260200101516040518363ffffffff1660e01b8152600401613539929190615550565b6020604051808303816000875af1158015613558573d6000803e3d6000fd5b505050506040513d601f19601f8201168201806040525081019061357c9190615569565b61358857613588615586565b6135c782878780806020026020016040519081016040528093929190818152602001838360200280828437600092019190915250899250613d27915050565b816000815181106135da576135da6153da565b60200260200101513411156127e1576127e18483600081518110613600576136006153da565b6020026020010151346131b791906153c3565b61361b614064565b600880546001600160a01b0319166001600160a01b0392909216919091179055565b428110156136875760405162461bcd60e51b815260206004820152601760248201527614d859995cddd85c149bdd5d195c8e8811561412549151604a1b6044820152606401610848565b50565b604080516000808252602082019092526001600160a01b0384169083906040516136b491906156b3565b60006040518083038185875af1925050503d80600081146136f1576040519150601f19603f3d011682016040523d82523d6000602084013e6136f6565b606091505b50509050806107065760405162461bcd60e51b815260206004820152603460248201527f5472616e7366657248656c7065723a3a736166655472616e736665724554483a60448201527308115512081d1c985b9cd9995c8819985a5b195960621b6064820152608401610848565b600080846001600160a01b031663a9059cbb8585604051602401613789929190615550565b6040516020818303038152906040529060e01b6020820180516001600160e01b0383818316178352505050506040516137c291906156b3565b6000604051808303816000865af19150503d80600081146137ff576040519150601f19603f3d011682016040523d82523d6000602084013e613804565b606091505b509150915081801561382e57508051158061382e57508080602001905181019061382e9190615569565b6138905760405162461bcd60e51b815260206004820152602d60248201527f5472616e7366657248656c7065723a3a736166655472616e736665723a20747260448201526c185b9cd9995c8819985a5b1959609a1b6064820152608401610848565b5050505050565b60008084116138fb5760405162461bcd60e51b815260206004820152602a60248201527f53616665737761704c6962726172793a20494e53554646494349454e545f494e60448201526914155517d05353d5539560b21b6064820152608401610848565b60008311801561390b5750600082115b6139275760405162461bcd60e51b8152600401610848906156cf565b6000613935856103e6615470565b905060006139438483615470565b9050600082613954876103e8615470565b61395e91906154f2565b905061396a818361548f565b979650505050505050565b3360009081526009602052604090205460ff166139d45760405162461bcd60e51b815260206004820152601e60248201527f5361666573776170526f757465723a204f4e4c595f57484954454c49535400006044820152606401610848565b565b60606002825110156139fa5760405162461bcd60e51b815260040161084890615716565b81516001600160401b03811115613a1357613a13614f12565b604051908082528060200260200182016040528015613a3c578160200160208202803683370190505b5090508281600081518110613a5357613a536153da565b60200260200101818152505060005b60018351613a7091906153c3565b811015613b2857600080613ac387868581518110613a9057613a906153da565b602002602001015187866001613aa691906154f2565b81518110613ab657613ab66153da565b6020026020010151614c0d565b91509150613aeb848481518110613adc57613adc6153da565b60200260200101518383613897565b84613af78560016154f2565b81518110613b0757613b076153da565b60200260200101818152505050508080613b209061574d565b915050613a62565b509392505050565b600080856001600160a01b03166323b872dd868686604051602401613b57939291906155b5565b6040516020818303038152906040529060e01b6020820180516001600160e01b038381831617835250505050604051613b9091906156b3565b6000604051808303816000865af19150503d8060008114613bcd576040519150601f19603f3d011682016040523d82523d6000602084013e613bd2565b606091505b5091509150818015613bfc575080511580613bfc575080806020019051810190613bfc9190615569565b613c625760405162461bcd60e51b815260206004820152603160248201527f5472616e7366657248656c7065723a3a7472616e7366657246726f6d3a207472604482015270185b9cd9995c919c9bdb4819985a5b1959607a1b6064820152608401610848565b505050505050565b60405163e6a4390560e01b81526000906001600160a01b0385169063e6a4390590613c9b9086908690600401615768565b602060405180830381865afa158015613cb8573d6000803e3d6000fd5b505050506040513d601f19601f82011682018060405250810190613cdc9190615782565b90506001600160a01b0381166107c75760405162461bcd60e51b815260206004820152601060248201526f21b0b73737ba103334b732103830b4b960811b6044820152606401610848565b60005b60018351613d3891906153c3565b811015613f0e57600080848381518110613d5457613d546153da565b602002602001015185846001613d6a91906154f2565b81518110613d7a57613d7a6153da565b6020026020010151915091506000613d92838361492a565b509050600087613da38660016154f2565b81518110613db357613db36153da565b60200260200101519050600080836001600160a01b0316866001600160a01b031614613de157826000613de5565b6000835b91509150600060028a51613df991906153c3565b8810613e055788613e45565b600054613e45906201000090046001600160a01b0316878c613e288c60026154f2565b81518110613e3857613e386153da565b6020026020010151613c6a565b600054909150613e65906201000090046001600160a01b03168888613c6a565b6001600160a01b031663022c0d9f84848460006040519080825280601f01601f191660200182016040528015613ea2576020820181803683370190505b506040518563ffffffff1660e01b8152600401613ec2949392919061579f565b600060405180830381600087803b158015613edc57600080fd5b505af1158015613ef0573d6000803e3d6000fd5b50505050505050505050508080613f069061574d565b915050613d2a565b50505050565b6060600282511015613f385760405162461bcd60e51b815260040161084890615716565b81516001600160401b03811115613f5157613f51614f12565b604051908082528060200260200182016040528015613f7a578160200160208202803683370190505b509050828160018351613f8d91906153c3565b81518110613f9d57613f9d6153da565b602002602001018181525050600060018351613fb991906153c3565b90505b8015613b2857600080613fff8786613fd56001876153c3565b81518110613fe557613fe56153da565b6020026020010151878681518110613ab657613ab66153da565b91509150614027848481518110614018576140186153da565b602002602001015183836147a8565b846140336001866153c3565b81518110614043576140436153da565b6020026020010181815250505050808061405c906157ef565b915050613fbc565b6002546001600160a01b031633146139d45760405162461bcd60e51b815260206004820181905260248201527f4f776e61626c653a2063616c6c6572206973206e6f7420746865206f776e65726044820152606401610848565b60008060005b600185516140d291906153c3565b81101561442f576000808683815181106140ee576140ee6153da565b60200260200101518784600161410491906154f2565b81518110614114576141146153da565b602002602001015191509150600061412c838361492a565b5090506000614151600060029054906101000a90046001600160a01b03168585613c6a565b9050600080600080846001600160a01b0316630902f1ac6040518163ffffffff1660e01b8152600401606060405180830381865afa158015614197573d6000803e3d6000fd5b505050506040513d601f19601f820116820180604052508101906141bb919061581d565b506001600160701b031691506001600160701b03169150600080876001600160a01b03168a6001600160a01b0316146141f55782846141f8565b83835b91509150818a6001600160a01b03166370a08231896040518263ffffffff1660e01b81526004016142299190615106565b602060405180830381865afa158015614246573d6000803e3d6000fd5b505050506040513d601f19601f8201168201806040525081019061426a919061559c565b61427491906153c3565b9550614281868383613897565b6001600160a01b038a1660009081526006602052604090205490955060ff161515600114935050821591506142c290505750600154600160a01b900460ff16155b80156142e857506001600160a01b03851660009081526006602052604090206004015415155b15614337576001600160a01b038516600090815260066020526040812060040154670de0b6b3a76400009061431d9084615470565b614327919061548f565b905061433381836153c3565b9150505b836001600160a01b0316866001600160a01b0316146143585780600061435c565b6000815b8c51919a509850600090614372906002906153c3565b881061437e578a6143a1565b6000546143a1906201000090046001600160a01b0316878e613e288c60026154f2565b6040805160008152602081019182905263022c0d9f60e01b9091529091506001600160a01b0385169063022c0d9f906143e3908d908d9086906024810161579f565b600060405180830381600087803b1580156143fd57600080fd5b505af1158015614411573d6000803e3d6000fd5b505050505050505050505080806144279061574d565b9150506140c4565b509250929050565b60008060005b6001855161444b91906153c3565b81101561442f57600080868381518110614467576144676153da565b60200260200101518784600161447d91906154f2565b8151811061448d5761448d6153da565b60200260200101519150915060006144a5838361492a565b50905060006144ca600060029054906101000a90046001600160a01b03168585613c6a565b9050600080600080846001600160a01b0316630902f1ac6040518163ffffffff1660e01b8152600401606060405180830381865afa158015614510573d6000803e3d6000fd5b505050506040513d601f19601f82011682018060405250810190614534919061581d565b506001600160701b031691506001600160701b03169150600080876001600160a01b03168a6001600160a01b03161461456e578284614571565b83835b91509150818a6001600160a01b03166370a08231896040518263ffffffff1660e01b81526004016145a29190615106565b602060405180830381865afa1580156145bf573d6000803e3d6000fd5b505050506040513d601f19601f820116820180604052508101906145e3919061559c565b6145ed91906153c3565b95506145fa868383613897565b6001600160a01b038a1660009081526006602052604090205490955060ff1615156001149350508215915061463b90505750600154600160a01b900460ff16155b801561466157506001600160a01b03851660009081526006602052604090206004015415155b156146b0576001600160a01b038516600090815260066020526040812060040154670de0b6b3a7640000906146969084615470565b6146a0919061548f565b90506146ac81836153c3565b9150505b836001600160a01b0316866001600160a01b0316146146d1578060006146d5565b6000815b8c51919a5098506000906146eb906002906153c3565b88106146f7578a61471a565b60005461471a906201000090046001600160a01b0316878e613e288c60026154f2565b6040805160008152602081019182905263022c0d9f60e01b9091529091506001600160a01b0385169063022c0d9f9061475c908d908d9086906024810161579f565b600060405180830381600087803b15801561477657600080fd5b505af115801561478a573d6000803e3d6000fd5b505050505050505050505080806147a09061574d565b91505061443d565b600080841161480d5760405162461bcd60e51b815260206004820152602b60248201527f53616665737761704c6962726172793a20494e53554646494349454e545f4f5560448201526a1514155517d05353d5539560aa1b6064820152608401610848565b60008311801561481d5750600082115b6148395760405162461bcd60e51b8152600401610848906156cf565b60006148458585615470565b614851906103e8615470565b9050600061485f86856153c3565b61486b906103e6615470565b9050614877818361548f565b6148829060016154f2565b9695505050505050565b60008084116148e95760405162461bcd60e51b8152602060048201526024808201527f53616665737761704c6962726172793a20494e53554646494349454e545f414d60448201526313d5539560e21b6064820152608401610848565b6000831180156148f95750600082115b6149155760405162461bcd60e51b8152600401610848906156cf565b826149208386615470565b6107c4919061548f565b600080826001600160a01b0316846001600160a01b0316141561499b5760405162461bcd60e51b8152602060048201526024808201527f53616665737761704c6962726172793a204944454e544943414c5f41444452456044820152635353455360e01b6064820152608401610848565b826001600160a01b0316846001600160a01b0316106149bb5782846149be565b83835b90925090506001600160a01b038216614a195760405162461bcd60e51b815260206004820152601d60248201527f53616665737761704c6962726172793a205a45524f5f414444524553530000006044820152606401610848565b9250929050565b6000805460405163e6a4390560e01b815282918291620100009091046001600160a01b03169063e6a4390590614a5c908d908d90600401615768565b602060405180830381865afa158015614a79573d6000803e3d6000fd5b505050506040513d601f19601f82011682018060405250810190614a9d9190615782565b6001600160a01b03161415614b3557600054604051630edef2e760e31b81526001600160a01b038b811660048301528a81166024830152858116604483015262010000909204909116906376f79738906064016020604051808303816000875af1158015614b0f573d6000803e3d6000fd5b505050506040513d601f19601f82011682018060405250810190614b339190615782565b505b600080548190614b55906201000090046001600160a01b03168c8c614c0d565b91509150816000148015614b67575080155b15614b7757889350879250614bff565b6000614b848a848461488c565b9050888111614bb85786811015614bad5760405162461bcd60e51b815260040161084890615642565b899450925082614bfd565b6000614bc58a848661488c565b90508a811115614bd757614bd7615586565b88811015614bf75760405162461bcd60e51b8152600401610848906155fd565b94508893505b505b505097509795505050505050565b6000806000614c1c858561492a565b509050614c2a868686613c6a565b50600080614c39888888613c6a565b6001600160a01b0316630902f1ac6040518163ffffffff1660e01b8152600401606060405180830381865afa158015614c76573d6000803e3d6000fd5b505050506040513d601f19601f82011682018060405250810190614c9a919061581d565b506001600160701b031691506001600160701b03169150826001600160a01b0316876001600160a01b031614614cd1578082614cd4565b81815b90999098509650505050505050565b6001600160a01b038116811461368757600080fd5b8035614d0381614ce3565b919050565b60008060008060008060c08789031215614d2157600080fd5b8635614d2c81614ce3565b95506020870135945060408701359350606087013592506080870135614d5181614ce3565b8092505060a087013590509295509295509295565b600080600060608486031215614d7b57600080fd5b505081359360208301359350604090920135919050565b60008083601f840112614da457600080fd5b5081356001600160401b03811115614dbb57600080fd5b6020830191508360208260051b8501011115614a1957600080fd5b600080600080600080600060c0888a031215614df157600080fd5b873596506020880135955060408801356001600160401b03811115614e1557600080fd5b614e218a828b01614d92565b9096509450506060880135614e3581614ce3565b92506080880135614e4581614ce3565b8092505060a0880135905092959891949750929550565b6020808252825182820181905260009190848201906040850190845b81811015614e9457835183529284019291840191600101614e78565b50909695505050505050565b60008060008060008060a08789031215614eb957600080fd5b863595506020870135945060408701356001600160401b03811115614edd57600080fd5b614ee989828a01614d92565b9095509350506060870135614efd81614ce3565b80925050608087013590509295509295509295565b634e487b7160e01b600052604160045260246000fd5b60008060408385031215614f3b57600080fd5b823591506020808401356001600160401b0380821115614f5a57600080fd5b818601915086601f830112614f6e57600080fd5b813581811115614f8057614f80614f12565b8060051b604051601f19603f83011681018181108582111715614fa557614fa5614f12565b604052918252848201925083810185019189831115614fc357600080fd5b938501935b82851015614fe857614fd985614cf8565b84529385019392850192614fc8565b8096505050505050509250929050565b801515811461368757600080fd5b803560ff81168114614d0357600080fd5b60008060008060008060008060008060006101608c8e03121561503957600080fd5b8b3561504481614ce3565b9a5060208c013561505481614ce3565b995060408c0135985060608c0135975060808c0135965060a08c013561507981614ce3565b955060c08c0135945060e08c013561509081614ff8565b935061509f6101008d01615006565b92506101208c013591506101408c013590509295989b509295989b9093969950565b600080604083850312156150d457600080fd5b82356150df81614ce3565b946020939093013593505050565b6000602082840312156150ff57600080fd5b5035919050565b6001600160a01b0391909116815260200190565b6000806040838503121561512d57600080fd5b823561513881614ce3565b9150602083013561514881614ce3565b809150509250929050565b6000806040838503121561516657600080fd5b823561517181614ce3565b9150602083013561514881614ff8565b6000806000806000806000806000806101408b8d0312156151a157600080fd5b8a356151ac81614ce3565b995060208b0135985060408b0135975060608b0135965060808b01356151d181614ce3565b955060a08b0135945060c08b01356151e881614ff8565b93506151f660e08c01615006565b92506101008b013591506101208b013590509295989b9194979a5092959850565b60008060008060006080868803121561522f57600080fd5b8535945060208601356001600160401b0381111561524c57600080fd5b61525888828901614d92565b909550935050604086013561526c81614ce3565b949793965091946060013592915050565b6000806040838503121561529057600080fd5b82359150602083013561514881614ce3565b6000602082840312156152b457600080fd5b81356107c781614ce3565b600080600080600080600060e0888a0312156152da57600080fd5b87356152e581614ce3565b965060208801356152f581614ce3565b955060408801359450606088013593506080880135925060a088013561531a81614ce3565b8092505060c0880135905092959891949750929550565b600080600080600080600080610100898b03121561534e57600080fd5b883561535981614ce3565b9750602089013561536981614ce3565b965060408901359550606089013594506080890135935060a0890135925060c089013561539581614ce3565b8092505060e089013590509295985092959890939650565b634e487b7160e01b600052601160045260246000fd5b6000828210156153d5576153d56153ad565b500390565b634e487b7160e01b600052603260045260246000fd5b6020808252601c908201527b0a6c2cccae6eec2e0a4deeae8cae47440929cac82989288bea082a8960231b604082015260600190565b6020808252602a908201527f5361666573776170526f757465723a20494e53554646494349454e545f4f555460408201526914155517d05353d5539560b21b606082015260800190565b600081600019048311821515161561548a5761548a6153ad565b500290565b6000826154ac57634e487b7160e01b600052601260045260246000fd5b500490565b6001600160a01b0397881681529590961660208601526040850193909352606084019190915260ff16608083015260a082015260c081019190915260e00190565b60008219821115615505576155056153ad565b500190565b60208082526026908201527f5361666573776170526f757465723a204558434553534956455f494e5055545f604082015265105353d5539560d21b606082015260800190565b6001600160a01b03929092168252602082015260400190565b60006020828403121561557b57600080fd5b81516107c781614ff8565b634e487b7160e01b600052600160045260246000fd5b6000602082840312156155ae57600080fd5b5051919050565b6001600160a01b039384168152919092166020820152604081019190915260600190565b600080604083850312156155ec57600080fd5b505080516020909101519092909150565b60208082526025908201527f5361666573776170526f757465723a20494e53554646494349454e545f415f416040820152641353d5539560da1b606082015260800190565b60208082526025908201527f5361666573776170526f757465723a20494e53554646494349454e545f425f416040820152641353d5539560da1b606082015260800190565b60005b838110156156a257818101518382015260200161568a565b83811115613f0e5750506000910152565b600082516156c5818460208701615687565b9190910192915050565b60208082526027908201527f53616665737761704c6962726172793a20494e53554646494349454e545f4c496040820152665155494449545960c81b606082015260800190565b6020808252601d908201527f53616665737761704c6962726172793a20494e56414c49445f50415448000000604082015260600190565b6000600019821415615761576157616153ad565b5060010190565b6001600160a01b0392831681529116602082015260400190565b60006020828403121561579457600080fd5b81516107c781614ce3565b84815283602082015260018060a01b038316604082015260806060820152600082518060808401526157d88160a0850160208701615687565b601f01601f19169190910160a00195945050505050565b6000816157fe576157fe6153ad565b506000190190565b80516001600160701b0381168114614d0357600080fd5b60008060006060848603121561583257600080fd5b61583b84615806565b925061584960208501615806565b9150604084015163ffffffff8116811461586257600080fd5b80915050925092509256fea26469706673582212209423a6ae4e302e9d1e3468d289f8ab0ee7d8463919d6926a99949165cf53cf4264736f6c634300080b0033",
  "devdoc": {
    "kind": "dev",
    "methods": {},
    "version": 1
  },
  "userdoc": {
    "kind": "user",
    "methods": {},
    "version": 1
  },
  "storageLayout": {
    "storage": [
      {
        "astId": 7258,
        "contract": "contracts/SafeswapRouterProxy1.sol:SafeswapRouterProxy1",
        "label": "_initialized",
        "offset": 0,
        "slot": "0",
        "type": "t_bool"
      },
      {
        "astId": 7261,
        "contract": "contracts/SafeswapRouterProxy1.sol:SafeswapRouterProxy1",
        "label": "_initializing",
        "offset": 1,
        "slot": "0",
        "type": "t_bool"
      },
      {
        "astId": 1537,
        "contract": "contracts/SafeswapRouterProxy1.sol:SafeswapRouterProxy1",
        "label": "factory",
        "offset": 2,
        "slot": "0",
        "type": "t_address"
      },
      {
        "astId": 1540,
        "contract": "contracts/SafeswapRouterProxy1.sol:SafeswapRouterProxy1",
        "label": "WETH",
        "offset": 0,
        "slot": "1",
        "type": "t_address"
      },
      {
        "astId": 1542,
        "contract": "contracts/SafeswapRouterProxy1.sol:SafeswapRouterProxy1",
        "label": "killSwitch",
        "offset": 20,
        "slot": "1",
        "type": "t_bool"
      },
      {
        "astId": 1544,
        "contract": "contracts/SafeswapRouterProxy1.sol:SafeswapRouterProxy1",
        "label": "admin",
        "offset": 0,
        "slot": "2",
        "type": "t_address"
      },
      {
        "astId": 1546,
        "contract": "contracts/SafeswapRouterProxy1.sol:SafeswapRouterProxy1",
        "label": "tokensCount",
        "offset": 0,
        "slot": "3",
        "type": "t_uint256"
      },
      {
        "astId": 1550,
        "contract": "contracts/SafeswapRouterProxy1.sol:SafeswapRouterProxy1",
        "label": "_lpTokenLockStatus",
        "offset": 0,
        "slot": "4",
        "type": "t_mapping(t_address,t_bool)"
      },
      {
        "astId": 1554,
        "contract": "contracts/SafeswapRouterProxy1.sol:SafeswapRouterProxy1",
        "label": "_locktime",
        "offset": 0,
        "slot": "5",
        "type": "t_mapping(t_address,t_uint256)"
      },
      {
        "astId": 1559,
        "contract": "contracts/SafeswapRouterProxy1.sol:SafeswapRouterProxy1",
        "label": "nameToInfo",
        "offset": 0,
        "slot": "6",
        "type": "t_mapping(t_address,t_struct(TokenInfo)1610_storage)"
      },
      {
        "astId": 1563,
        "contract": "contracts/SafeswapRouterProxy1.sol:SafeswapRouterProxy1",
        "label": "idToAddress",
        "offset": 0,
        "slot": "7",
        "type": "t_mapping(t_uint256,t_address)"
      },
      {
        "astId": 1565,
        "contract": "contracts/SafeswapRouterProxy1.sol:SafeswapRouterProxy1",
        "label": "routerTrade",
        "offset": 0,
        "slot": "8",
        "type": "t_address"
      },
      {
        "astId": 1569,
        "contract": "contracts/SafeswapRouterProxy1.sol:SafeswapRouterProxy1",
        "label": "whitelistAccess",
        "offset": 0,
        "slot": "9",
        "type": "t_mapping(t_address,t_bool)"
      },
      {
        "astId": 1573,
        "contract": "contracts/SafeswapRouterProxy1.sol:SafeswapRouterProxy1",
        "label": "impls",
        "offset": 0,
        "slot": "10",
        "type": "t_mapping(t_uint256,t_address)"
      }
    ],
    "types": {
      "t_address": {
        "encoding": "inplace",
        "label": "address",
        "numberOfBytes": "20"
      },
      "t_bool": {
        "encoding": "inplace",
        "label": "bool",
        "numberOfBytes": "1"
      },
      "t_mapping(t_address,t_bool)": {
        "encoding": "mapping",
        "key": "t_address",
        "label": "mapping(address => bool)",
        "numberOfBytes": "32",
        "value": "t_bool"
      },
      "t_mapping(t_address,t_struct(TokenInfo)1610_storage)": {
        "encoding": "mapping",
        "key": "t_address",
        "label": "mapping(address => struct SafeswapRouterProxy1.TokenInfo)",
        "numberOfBytes": "32",
        "value": "t_struct(TokenInfo)1610_storage"
      },
      "t_mapping(t_address,t_uint256)": {
        "encoding": "mapping",
        "key": "t_address",
        "label": "mapping(address => uint256)",
        "numberOfBytes": "32",
        "value": "t_uint256"
      },
      "t_mapping(t_uint256,t_address)": {
        "encoding": "mapping",
        "key": "t_uint256",
        "label": "mapping(uint256 => address)",
        "numberOfBytes": "32",
        "value": "t_address"
      },
      "t_string_storage": {
        "encoding": "bytes",
        "label": "string",
        "numberOfBytes": "32"
      },
      "t_struct(TokenInfo)1610_storage": {
        "encoding": "inplace",
        "label": "struct SafeswapRouterProxy1.TokenInfo",
        "members": [
          {
            "astId": 1597,
            "contract": "contracts/SafeswapRouterProxy1.sol:SafeswapRouterProxy1",
            "label": "enabled",
            "offset": 0,
            "slot": "0",
            "type": "t_bool"
          },
          {
            "astId": 1599,
            "contract": "contracts/SafeswapRouterProxy1.sol:SafeswapRouterProxy1",
            "label": "isDeleted",
            "offset": 1,
            "slot": "0",
            "type": "t_bool"
          },
          {
            "astId": 1601,
            "contract": "contracts/SafeswapRouterProxy1.sol:SafeswapRouterProxy1",
            "label": "tokenName",
            "offset": 0,
            "slot": "1",
            "type": "t_string_storage"
          },
          {
            "astId": 1603,
            "contract": "contracts/SafeswapRouterProxy1.sol:SafeswapRouterProxy1",
            "label": "tokenAddress",
            "offset": 0,
            "slot": "2",
            "type": "t_address"
          },
          {
            "astId": 1605,
            "contract": "contracts/SafeswapRouterProxy1.sol:SafeswapRouterProxy1",
            "label": "feesAddress",
            "offset": 0,
            "slot": "3",
            "type": "t_address"
          },
          {
            "astId": 1607,
            "contract": "contracts/SafeswapRouterProxy1.sol:SafeswapRouterProxy1",
            "label": "buyFeePercent",
            "offset": 0,
            "slot": "4",
            "type": "t_uint256"
          },
          {
            "astId": 1609,
            "contract": "contracts/SafeswapRouterProxy1.sol:SafeswapRouterProxy1",
            "label": "sellFeePercent",
            "offset": 0,
            "slot": "5",
            "type": "t_uint256"
          }
        ],
        "numberOfBytes": "192"
      },
      "t_uint256": {
        "encoding": "inplace",
        "label": "uint256",
        "numberOfBytes": "32"
      }
    }
  }
}