{
  "_format": "hh-sol-artifact-1",
  "contractName": "OptimizedTransparentUpgradeableProxy",
  "sourceName": "contracts/factory/libraries/proxy/OptimizedTransparentUpgradeableProxy.sol",
  "abi": [
    {
      "anonymous": false,
      "inputs": [
        {
          "indexed": true,
          "internalType": "address",
          "name": "factory",
          "type": "address"
        }
      ],
      "name": "Upgraded",
      "type": "event"
    },
    {
      "stateMutability": "payable",
      "type": "fallback"
    },
    {
      "inputs": [
        {
          "internalType": "address",
          "name": "factory",
          "type": "address"
        },
        {
          "internalType": "address",
          "name": "initialAdmin",
          "type": "address"
        },
        {
          "internalType": "bytes",
          "name": "_data",
          "type": "bytes"
        }
      ],
      "name": "_OptimizedTransparentUpgradeableProxy_init_",
      "outputs": [],
      "stateMutability": "nonpayable",
      "type": "function"
    },
    {
      "inputs": [],
      "name": "admin",
      "outputs": [
        {
          "internalType": "address",
          "name": "",
          "type": "address"
        }
      ],
      "stateMutability": "nonpayable",
      "type": "function"
    },
    {
      "inputs": [],
      "name": "implementation",
      "outputs": [
        {
          "internalType": "address",
          "name": "",
          "type": "address"
        }
      ],
      "stateMutability": "nonpayable",
      "type": "function"
    },
    {
      "inputs": [
        {
          "internalType": "address",
          "name": "newFactory",
          "type": "address"
        }
      ],
      "name": "upgradeTo",
      "outputs": [],
      "stateMutability": "nonpayable",
      "type": "function"
    },
    {
      "inputs": [
        {
          "internalType": "address",
          "name": "newFactory",
          "type": "address"
        },
        {
          "internalType": "bytes",
          "name": "data",
          "type": "bytes"
        }
      ],
      "name": "upgradeToAndCall",
      "outputs": [],
      "stateMutability": "payable",
      "type": "function"
    },
    {
      "stateMutability": "payable",
      "type": "receive"
    }
  ],
  "bytecode": "0x608060405234801561001057600080fd5b50610991806100206000396000f3fe60806040526004361061004e5760003560e01c80633659cfe6146100655780634f1ef286146100855780635c60da1b14610098578063d6969857146100c9578063f851a440146100e95761005d565b3661005d5761005b6100fe565b005b61005b6100fe565b34801561007157600080fd5b5061005b6100803660046106e5565b610118565b61005b610093366004610709565b61014d565b3480156100a457600080fd5b506100ad610201565b6040516001600160a01b03909116815260200160405180910390f35b3480156100d557600080fd5b5061005b6100e43660046107a3565b61023c565b3480156100f557600080fd5b506100ad610364565b61010661038f565b610116610111610429565b6104af565b565b6101206104d3565b6001600160a01b0316336001600160a01b0316141561014557610142816104e6565b50565b6101426100fe565b6101556104d3565b6001600160a01b0316336001600160a01b031614156101f457610177836104e6565b6000610181610429565b90506000816001600160a01b0316848460405161019f929190610878565b600060405180830381855af49150503d80600081146101da576040519150601f19603f3d011682016040523d82523d6000602084013e6101df565b606091505b50509050806101ed57600080fd5b5050505050565b6101fc6100fe565b505050565b600061020b6104d3565b6001600160a01b0316336001600160a01b031614156102315761022c610429565b905090565b6102396100fe565b90565b600054610100900460ff16806102515750303b155b8061025f575060005460ff16155b6102c75760405162461bcd60e51b815260206004820152602e60248201527f496e697469616c697a61626c653a20636f6e747261637420697320616c72656160448201526d191e481a5b9a5d1a585b1a5e995960921b60648201526084015b60405180910390fd5b600054610100900460ff161580156102e9576000805461ffff19166101011790555b6102f38483610526565b61031e60017fb53127684a568b3173ae13b9f8a6016e243e63b6e8ee1178d6a717850b5d6104610888565b60008051602061093c8339815191521461033a5761033a6108ad565b60008051602061093c833981519152839055801561035e576000805461ff00191690555b50505050565b600061036e6104d3565b6001600160a01b0316336001600160a01b031614156102315761022c6104d3565b6103976104d3565b6001600160a01b0316336001600160a01b031614156101165760405162461bcd60e51b815260206004820152604260248201527f5472616e73706172656e745570677261646561626c6550726f78793a2061646d60448201527f696e2063616e6e6f742066616c6c6261636b20746f2070726f78792074617267606482015261195d60f21b608482015260a4016102be565b600080600060008051602061091c83398151915260001b905080549150816001600160a01b0316635c60da1b6040518163ffffffff1660e01b8152600401602060405180830381865afa158015610484573d6000803e3d6000fd5b505050506040513d601f19601f820116820180604052508101906104a891906108c3565b9250505090565b3660008037600080366000845af43d6000803e8080156104ce573d6000f35b3d6000fd5b60008051602061093c8339815191525490565b6104ef8161064f565b6040516001600160a01b038216907fbc7cd75a20ee27fd9adebab32041f755214dbc6bffa90cc0225b39da2e5c2d3b90600090a250565b61055160017fb2101b231486a8a17a16c101f8dde1145d21799358462f57035a227f25614da4610888565b60008051602061091c8339815191521461056d5761056d6108ad565b6105768261064f565b80511561064b576000826001600160a01b0316635c60da1b6040518163ffffffff1660e01b8152600401602060405180830381865afa1580156105bd573d6000803e3d6000fd5b505050506040513d601f19601f820116820180604052508101906105e191906108c3565b90506000816001600160a01b0316836040516105fd91906108e0565b600060405180830381855af49150503d8060008114610638576040519150601f19603f3d011682016040523d82523d6000602084013e61063d565b606091505b505090508061035e57600080fd5b5050565b6001600160a01b0381163b6106be5760405162461bcd60e51b815260206004820152602f60248201527f5570677261646561626c6550726f78793a206e657720666163746f727920697360448201526e081b9bdd08184818dbdb9d1c9858dd608a1b60648201526084016102be565b60008051602061091c83398151915255565b6001600160a01b038116811461014257600080fd5b6000602082840312156106f757600080fd5b8135610702816106d0565b9392505050565b60008060006040848603121561071e57600080fd5b8335610729816106d0565b925060208401356001600160401b038082111561074557600080fd5b818601915086601f83011261075957600080fd5b81358181111561076857600080fd5b87602082850101111561077a57600080fd5b6020830194508093505050509250925092565b634e487b7160e01b600052604160045260246000fd5b6000806000606084860312156107b857600080fd5b83356107c3816106d0565b925060208401356107d3816106d0565b915060408401356001600160401b03808211156107ef57600080fd5b818601915086601f83011261080357600080fd5b8135818111156108155761081561078d565b604051601f8201601f19908116603f0116810190838211818310171561083d5761083d61078d565b8160405282815289602084870101111561085657600080fd5b8260208601602083013760006020848301015280955050505050509250925092565b8183823760009101908152919050565b6000828210156108a857634e487b7160e01b600052601160045260246000fd5b500390565b634e487b7160e01b600052600160045260246000fd5b6000602082840312156108d557600080fd5b8151610702816106d0565b6000825160005b8181101561090157602081860181015185830152016108e7565b81811115610910576000828501525b50919091019291505056feb2101b231486a8a17a16c101f8dde1145d21799358462f57035a227f25614da3b53127684a568b3173ae13b9f8a6016e243e63b6e8ee1178d6a717850b5d6103a2646970667358221220b61d30dd0b19a333d5af6af85f67b49b77a3bd1f9682225608f9fb8f6c1b4a0264736f6c634300080b0033",
  "linkReferences": {},
  "deployedLinkReferences": {}
}