{
  "_format": "hh-sol-artifact-1",
  "contractName": "BaseNFTWithoutPresale",
  "sourceName": "contracts/Base/BaseNFTWithoutPresale.sol",
  "abi": [
    {
      "anonymous": false,
      "inputs": [
        {
          "indexed": true,
          "internalType": "address",
          "name": "account",
          "type": "address"
        },
        {
          "indexed": true,
          "internalType": "address",
          "name": "operator",
          "type": "address"
        },
        {
          "indexed": false,
          "internalType": "bool",
          "name": "approved",
          "type": "bool"
        }
      ],
      "name": "ApprovalForAll",
      "type": "event"
    },
    {
      "anonymous": false,
      "inputs": [
        {
          "indexed": false,
          "internalType": "uint8",
          "name": "version",
          "type": "uint8"
        }
      ],
      "name": "Initialized",
      "type": "event"
    },
    {
      "anonymous": false,
      "inputs": [
        {
          "indexed": true,
          "internalType": "address",
          "name": "previousOwner",
          "type": "address"
        },
        {
          "indexed": true,
          "internalType": "address",
          "name": "newOwner",
          "type": "address"
        }
      ],
      "name": "OwnershipTransferred",
      "type": "event"
    },
    {
      "anonymous": false,
      "inputs": [
        {
          "indexed": true,
          "internalType": "address",
          "name": "operator",
          "type": "address"
        },
        {
          "indexed": true,
          "internalType": "address",
          "name": "from",
          "type": "address"
        },
        {
          "indexed": true,
          "internalType": "address",
          "name": "to",
          "type": "address"
        },
        {
          "indexed": false,
          "internalType": "uint256[]",
          "name": "ids",
          "type": "uint256[]"
        },
        {
          "indexed": false,
          "internalType": "uint256[]",
          "name": "values",
          "type": "uint256[]"
        }
      ],
      "name": "TransferBatch",
      "type": "event"
    },
    {
      "anonymous": false,
      "inputs": [
        {
          "indexed": true,
          "internalType": "address",
          "name": "operator",
          "type": "address"
        },
        {
          "indexed": true,
          "internalType": "address",
          "name": "from",
          "type": "address"
        },
        {
          "indexed": true,
          "internalType": "address",
          "name": "to",
          "type": "address"
        },
        {
          "indexed": false,
          "internalType": "uint256",
          "name": "id",
          "type": "uint256"
        },
        {
          "indexed": false,
          "internalType": "uint256",
          "name": "value",
          "type": "uint256"
        }
      ],
      "name": "TransferSingle",
      "type": "event"
    },
    {
      "anonymous": false,
      "inputs": [
        {
          "indexed": false,
          "internalType": "string",
          "name": "uri",
          "type": "string"
        }
      ],
      "name": "URI",
      "type": "event"
    },
    {
      "anonymous": false,
      "inputs": [
        {
          "indexed": false,
          "internalType": "string",
          "name": "value",
          "type": "string"
        },
        {
          "indexed": true,
          "internalType": "uint256",
          "name": "id",
          "type": "uint256"
        }
      ],
      "name": "URI",
      "type": "event"
    },
    {
      "inputs": [
        {
          "internalType": "address",
          "name": "",
          "type": "address"
        }
      ],
      "name": "affiliatedUserBalance",
      "outputs": [
        {
          "internalType": "uint256",
          "name": "",
          "type": "uint256"
        }
      ],
      "stateMutability": "view",
      "type": "function"
    },
    {
      "inputs": [],
      "name": "affiliatedWei",
      "outputs": [
        {
          "internalType": "uint256",
          "name": "",
          "type": "uint256"
        }
      ],
      "stateMutability": "view",
      "type": "function"
    },
    {
      "inputs": [
        {
          "internalType": "address",
          "name": "account",
          "type": "address"
        },
        {
          "internalType": "uint256",
          "name": "id",
          "type": "uint256"
        }
      ],
      "name": "balanceOf",
      "outputs": [
        {
          "internalType": "uint256",
          "name": "",
          "type": "uint256"
        }
      ],
      "stateMutability": "view",
      "type": "function"
    },
    {
      "inputs": [
        {
          "internalType": "address[]",
          "name": "accounts",
          "type": "address[]"
        },
        {
          "internalType": "uint256[]",
          "name": "ids",
          "type": "uint256[]"
        }
      ],
      "name": "balanceOfBatch",
      "outputs": [
        {
          "internalType": "uint256[]",
          "name": "",
          "type": "uint256[]"
        }
      ],
      "stateMutability": "view",
      "type": "function"
    },
    {
      "inputs": [],
      "name": "baseUri",
      "outputs": [
        {
          "internalType": "string",
          "name": "",
          "type": "string"
        }
      ],
      "stateMutability": "view",
      "type": "function"
    },
    {
      "inputs": [
        {
          "internalType": "address[]",
          "name": "affiliatedUser",
          "type": "address[]"
        }
      ],
      "name": "checkAffiliatedFunds",
      "outputs": [],
      "stateMutability": "view",
      "type": "function"
    },
    {
      "inputs": [],
      "name": "dropFee",
      "outputs": [
        {
          "internalType": "uint256",
          "name": "",
          "type": "uint256"
        }
      ],
      "stateMutability": "view",
      "type": "function"
    },
    {
      "inputs": [],
      "name": "factory",
      "outputs": [
        {
          "internalType": "address",
          "name": "",
          "type": "address"
        }
      ],
      "stateMutability": "view",
      "type": "function"
    },
    {
      "inputs": [],
      "name": "feeReceiver",
      "outputs": [
        {
          "internalType": "address",
          "name": "",
          "type": "address"
        }
      ],
      "stateMutability": "view",
      "type": "function"
    },
    {
      "inputs": [],
      "name": "feesCollected",
      "outputs": [
        {
          "internalType": "uint256",
          "name": "",
          "type": "uint256"
        }
      ],
      "stateMutability": "view",
      "type": "function"
    },
    {
      "inputs": [
        {
          "internalType": "address",
          "name": "sender",
          "type": "address"
        },
        {
          "internalType": "uint256",
          "name": "tokenQuantity",
          "type": "uint256"
        }
      ],
      "name": "hashforPresale",
      "outputs": [
        {
          "internalType": "bytes32",
          "name": "",
          "type": "bytes32"
        }
      ],
      "stateMutability": "view",
      "type": "function"
    },
    {
      "inputs": [
        {
          "internalType": "address",
          "name": "sender",
          "type": "address"
        },
        {
          "internalType": "uint256",
          "name": "tokenQuantity",
          "type": "uint256"
        },
        {
          "internalType": "address",
          "name": "affiliatedUser",
          "type": "address"
        },
        {
          "internalType": "uint256",
          "name": "commission",
          "type": "uint256"
        }
      ],
      "name": "hashforPresaleAffiliated",
      "outputs": [
        {
          "internalType": "bytes32",
          "name": "",
          "type": "bytes32"
        }
      ],
      "stateMutability": "view",
      "type": "function"
    },
    {
      "inputs": [
        {
          "internalType": "address",
          "name": "sender",
          "type": "address"
        },
        {
          "internalType": "address",
          "name": "affiliatedUser",
          "type": "address"
        },
        {
          "internalType": "uint256",
          "name": "commission",
          "type": "uint256"
        }
      ],
      "name": "hashforPublicSaleAffiliated",
      "outputs": [
        {
          "internalType": "bytes32",
          "name": "",
          "type": "bytes32"
        }
      ],
      "stateMutability": "view",
      "type": "function"
    },
    {
      "inputs": [
        {
          "internalType": "address",
          "name": "account",
          "type": "address"
        },
        {
          "internalType": "address",
          "name": "operator",
          "type": "address"
        }
      ],
      "name": "isApprovedForAll",
      "outputs": [
        {
          "internalType": "bool",
          "name": "",
          "type": "bool"
        }
      ],
      "stateMutability": "view",
      "type": "function"
    },
    {
      "inputs": [],
      "name": "isDropApproved",
      "outputs": [
        {
          "internalType": "uint256",
          "name": "",
          "type": "uint256"
        }
      ],
      "stateMutability": "view",
      "type": "function"
    },
    {
      "inputs": [],
      "name": "isPublicSaleLive",
      "outputs": [
        {
          "internalType": "bool",
          "name": "",
          "type": "bool"
        }
      ],
      "stateMutability": "view",
      "type": "function"
    },
    {
      "inputs": [
        {
          "internalType": "bytes32",
          "name": "hash",
          "type": "bytes32"
        },
        {
          "internalType": "bytes",
          "name": "signature",
          "type": "bytes"
        }
      ],
      "name": "matchAddressSigner",
      "outputs": [
        {
          "internalType": "bool",
          "name": "",
          "type": "bool"
        }
      ],
      "stateMutability": "view",
      "type": "function"
    },
    {
      "inputs": [],
      "name": "maxSupply",
      "outputs": [
        {
          "internalType": "uint256",
          "name": "",
          "type": "uint256"
        }
      ],
      "stateMutability": "view",
      "type": "function"
    },
    {
      "inputs": [],
      "name": "maxTokenPerMintPublicSale",
      "outputs": [
        {
          "internalType": "uint256",
          "name": "",
          "type": "uint256"
        }
      ],
      "stateMutability": "view",
      "type": "function"
    },
    {
      "inputs": [],
      "name": "maxTokenPerPersonPublicSale",
      "outputs": [
        {
          "internalType": "uint256",
          "name": "",
          "type": "uint256"
        }
      ],
      "stateMutability": "view",
      "type": "function"
    },
    {
      "inputs": [],
      "name": "name",
      "outputs": [
        {
          "internalType": "string",
          "name": "",
          "type": "string"
        }
      ],
      "stateMutability": "view",
      "type": "function"
    },
    {
      "inputs": [],
      "name": "owner",
      "outputs": [
        {
          "internalType": "address",
          "name": "",
          "type": "address"
        }
      ],
      "stateMutability": "view",
      "type": "function"
    },
    {
      "inputs": [],
      "name": "preSaleAirdropCount",
      "outputs": [
        {
          "internalType": "uint256",
          "name": "",
          "type": "uint256"
        }
      ],
      "stateMutability": "view",
      "type": "function"
    },
    {
      "inputs": [],
      "name": "publicSaleAirdropCount",
      "outputs": [
        {
          "internalType": "uint256",
          "name": "",
          "type": "uint256"
        }
      ],
      "stateMutability": "view",
      "type": "function"
    },
    {
      "inputs": [
        {
          "internalType": "uint256",
          "name": "tokenQuantity",
          "type": "uint256"
        }
      ],
      "name": "publicSaleBuy",
      "outputs": [],
      "stateMutability": "payable",
      "type": "function"
    },
    {
      "inputs": [
        {
          "internalType": "uint256",
          "name": "tokenQuantity",
          "type": "uint256"
        },
        {
          "internalType": "address",
          "name": "affiliatedUser",
          "type": "address"
        },
        {
          "internalType": "uint256",
          "name": "commission",
          "type": "uint256"
        },
        {
          "internalType": "bytes",
          "name": "signature",
          "type": "bytes"
        }
      ],
      "name": "publicSaleBuyAffiliated",
      "outputs": [],
      "stateMutability": "payable",
      "type": "function"
    },
    {
      "inputs": [],
      "name": "publicSaleEndTime",
      "outputs": [
        {
          "internalType": "uint256",
          "name": "",
          "type": "uint256"
        }
      ],
      "stateMutability": "view",
      "type": "function"
    },
    {
      "inputs": [],
      "name": "publicSaleMintCost",
      "outputs": [
        {
          "internalType": "uint256",
          "name": "",
          "type": "uint256"
        }
      ],
      "stateMutability": "view",
      "type": "function"
    },
    {
      "inputs": [],
      "name": "publicSaleStartTime",
      "outputs": [
        {
          "internalType": "uint256",
          "name": "",
          "type": "uint256"
        }
      ],
      "stateMutability": "view",
      "type": "function"
    },
    {
      "inputs": [
        {
          "internalType": "address",
          "name": "",
          "type": "address"
        }
      ],
      "name": "publicsalerListPurchases",
      "outputs": [
        {
          "internalType": "uint256",
          "name": "",
          "type": "uint256"
        }
      ],
      "stateMutability": "view",
      "type": "function"
    },
    {
      "inputs": [],
      "name": "renounceOwnership",
      "outputs": [],
      "stateMutability": "nonpayable",
      "type": "function"
    },
    {
      "inputs": [
        {
          "internalType": "address",
          "name": "from",
          "type": "address"
        },
        {
          "internalType": "address",
          "name": "to",
          "type": "address"
        },
        {
          "internalType": "uint256[]",
          "name": "ids",
          "type": "uint256[]"
        },
        {
          "internalType": "uint256[]",
          "name": "amounts",
          "type": "uint256[]"
        },
        {
          "internalType": "bytes",
          "name": "data",
          "type": "bytes"
        }
      ],
      "name": "safeBatchTransferFrom",
      "outputs": [],
      "stateMutability": "nonpayable",
      "type": "function"
    },
    {
      "inputs": [
        {
          "internalType": "address",
          "name": "from",
          "type": "address"
        },
        {
          "internalType": "address",
          "name": "to",
          "type": "address"
        },
        {
          "internalType": "uint256",
          "name": "id",
          "type": "uint256"
        },
        {
          "internalType": "uint256",
          "name": "amount",
          "type": "uint256"
        },
        {
          "internalType": "bytes",
          "name": "data",
          "type": "bytes"
        }
      ],
      "name": "safeTransferFrom",
      "outputs": [],
      "stateMutability": "nonpayable",
      "type": "function"
    },
    {
      "inputs": [],
      "name": "saleId",
      "outputs": [
        {
          "internalType": "string",
          "name": "",
          "type": "string"
        }
      ],
      "stateMutability": "view",
      "type": "function"
    },
    {
      "inputs": [
        {
          "internalType": "address",
          "name": "operator",
          "type": "address"
        },
        {
          "internalType": "bool",
          "name": "approved",
          "type": "bool"
        }
      ],
      "name": "setApprovalForAll",
      "outputs": [],
      "stateMutability": "nonpayable",
      "type": "function"
    },
    {
      "inputs": [],
      "name": "setDropApproval",
      "outputs": [],
      "stateMutability": "nonpayable",
      "type": "function"
    },
    {
      "inputs": [
        {
          "internalType": "uint256",
          "name": "_fee",
          "type": "uint256"
        },
        {
          "internalType": "address",
          "name": "_wallet",
          "type": "address"
        }
      ],
      "name": "setDropFee",
      "outputs": [],
      "stateMutability": "nonpayable",
      "type": "function"
    },
    {
      "inputs": [],
      "name": "signerAddress",
      "outputs": [
        {
          "internalType": "address",
          "name": "",
          "type": "address"
        }
      ],
      "stateMutability": "view",
      "type": "function"
    },
    {
      "inputs": [
        {
          "internalType": "bytes4",
          "name": "interfaceId",
          "type": "bytes4"
        }
      ],
      "name": "supportsInterface",
      "outputs": [
        {
          "internalType": "bool",
          "name": "",
          "type": "bool"
        }
      ],
      "stateMutability": "view",
      "type": "function"
    },
    {
      "inputs": [],
      "name": "symbol",
      "outputs": [
        {
          "internalType": "string",
          "name": "",
          "type": "string"
        }
      ],
      "stateMutability": "view",
      "type": "function"
    },
    {
      "inputs": [],
      "name": "totalMint",
      "outputs": [
        {
          "internalType": "uint256",
          "name": "",
          "type": "uint256"
        }
      ],
      "stateMutability": "view",
      "type": "function"
    },
    {
      "inputs": [],
      "name": "totalMintReferral",
      "outputs": [
        {
          "internalType": "uint256",
          "name": "",
          "type": "uint256"
        }
      ],
      "stateMutability": "view",
      "type": "function"
    },
    {
      "inputs": [
        {
          "internalType": "address[]",
          "name": "affiliatedUser",
          "type": "address[]"
        }
      ],
      "name": "transferAffiliatedFunds",
      "outputs": [],
      "stateMutability": "nonpayable",
      "type": "function"
    },
    {
      "inputs": [
        {
          "internalType": "address",
          "name": "newOwner",
          "type": "address"
        }
      ],
      "name": "transferOwnership",
      "outputs": [],
      "stateMutability": "nonpayable",
      "type": "function"
    },
    {
      "inputs": [
        {
          "internalType": "uint256",
          "name": "_publicSaleMintCost",
          "type": "uint256"
        },
        {
          "internalType": "uint256",
          "name": "_publicSaleStartTime",
          "type": "uint256"
        },
        {
          "internalType": "uint256",
          "name": "_publicSaleDuration",
          "type": "uint256"
        },
        {
          "internalType": "uint256",
          "name": "_maxTokenPerMintPublicSale",
          "type": "uint256"
        },
        {
          "internalType": "uint256",
          "name": "_maxTokenPerPersonPublicSale",
          "type": "uint256"
        }
      ],
      "name": "updatePublicSale",
      "outputs": [],
      "stateMutability": "nonpayable",
      "type": "function"
    },
    {
      "inputs": [
        {
          "internalType": "address",
          "name": "_signerAddress",
          "type": "address"
        }
      ],
      "name": "updateSignerAddress",
      "outputs": [],
      "stateMutability": "nonpayable",
      "type": "function"
    },
    {
      "inputs": [
        {
          "internalType": "string",
          "name": "_uri",
          "type": "string"
        }
      ],
      "name": "updateURI",
      "outputs": [],
      "stateMutability": "nonpayable",
      "type": "function"
    },
    {
      "inputs": [
        {
          "internalType": "uint256",
          "name": "_tokenId",
          "type": "uint256"
        }
      ],
      "name": "uri",
      "outputs": [
        {
          "internalType": "string",
          "name": "",
          "type": "string"
        }
      ],
      "stateMutability": "view",
      "type": "function"
    },
    {
      "inputs": [
        {
          "internalType": "address[]",
          "name": "affiliatedUser",
          "type": "address[]"
        }
      ],
      "name": "withdrawAffiliatedFunds",
      "outputs": [],
      "stateMutability": "nonpayable",
      "type": "function"
    },
    {
      "inputs": [
        {
          "internalType": "uint256",
          "name": "_amount",
          "type": "uint256"
        }
      ],
      "name": "withdrawWei",
      "outputs": [],
      "stateMutability": "nonpayable",
      "type": "function"
    }
  ],
  "bytecode": "0x608060405234801561001057600080fd5b50613956806100206000396000f3fe6080604052600436106102c85760003560e01c806388ba7aa011610175578063bacacaa0116100dc578063d994a85711610095578063f242432a1161006f578063f242432a1461083f578063f2fde38b1461085f578063f32882cd1461087f578063f32a32561461089657600080fd5b8063d994a857146107c8578063e985e9c5146107df578063f071db5a1461082857600080fd5b8063bacacaa01461072f578063c30f4a5a14610744578063c45a015514610764578063c84c038714610785578063d5abeb011461079a578063d70c764a146107b157600080fd5b8063a22cb4651161012e578063a22cb46514610676578063a7f4636714610696578063a829f0b5146106b6578063b3f00674146106e4578063ba1676e214610705578063ba3c944e1461071857600080fd5b806388ba7aa0146105d75780638da5cb5b146105ee5780638fa2a9f01461060c57806395d89b411461062c578063986646a7146106415780639abc83201461066157600080fd5b80633dad116a116102345780635b7633d0116101ed578063715018a6116101c7578063715018a614610576578063829b917b1461058b57806386233071146105ab578063887ce3ca146105c057600080fd5b80635b7633d0146105065780636433972b1461053f5780636bb7b1d91461055f57600080fd5b80633dad116a1461045957806340a6e3cd14610479578063473c79fa146104905780634e1273f4146104b057806352188a39146104dd57806359a7715a146104f057600080fd5b80630e89341c116102865780630e89341c146103b45780631e4d185f146103d45780632340fac2146103eb5780632eb2c2d61461040b5780633102b6d01461042b578063347bd9801461044257600080fd5b8062fdd58e146102cd57806301ffc9a71461030057806306fdde031461033057806308674b35146103525780630b7c5c2f146103725780630d6f856314610394575b600080fd5b3480156102d957600080fd5b506102ed6102e8366004612be8565b6108c4565b6040519081526020015b60405180910390f35b34801561030c57600080fd5b5061032061031b366004612c28565b61095f565b60405190151581526020016102f7565b34801561033c57600080fd5b506103456109af565b6040516102f79190612c95565b34801561035e57600080fd5b506102ed61036d366004612be8565b610a3d565b34801561037e57600080fd5b5061039261038d366004612d85565b610ac4565b005b3480156103a057600080fd5b506103926103af366004612db9565b610c14565b3480156103c057600080fd5b506103456103cf366004612db9565b610e27565b3480156103e057600080fd5b506102ed6101015481565b3480156103f757600080fd5b50610392610406366004612d85565b610e5b565b34801561041757600080fd5b50610392610426366004612eb5565b6110c1565b34801561043757600080fd5b506102ed6101035481565b34801561044e57600080fd5b506102ed61010a5481565b34801561046557600080fd5b506102ed610474366004612f5e565b61110d565b34801561048557600080fd5b506102ed6101105481565b34801561049c57600080fd5b506102ed6104ab366004612fa2565b61119a565b3480156104bc57600080fd5b506104d06104cb366004612fde565b611224565b6040516102f7919061307c565b6103926104eb366004612db9565b61134d565b3480156104fc57600080fd5b506102ed60fe5481565b34801561051257600080fd5b5061010b54610527906001600160a01b031681565b6040516001600160a01b0390911681526020016102f7565b34801561054b57600080fd5b5061039261055a36600461308f565b611359565b34801561056b57600080fd5b506102ed6101005481565b34801561058257600080fd5b50610392611562565b34801561059757600080fd5b506103206105a63660046130ca565b611576565b3480156105b757600080fd5b5061032061159b565b3480156105cc57600080fd5b506102ed6101055481565b3480156105e357600080fd5b506102ed6101115481565b3480156105fa57600080fd5b506097546001600160a01b0316610527565b34801561061857600080fd5b50610392610627366004613106565b6115b8565b34801561063857600080fd5b50610345611623565b34801561064d57600080fd5b5061039261065c366004612d85565b611630565b34801561066d57600080fd5b50610345611858565b34801561068257600080fd5b50610392610691366004613121565b611865565b3480156106a257600080fd5b506103926106b136600461315d565b611870565b3480156106c257600080fd5b506102ed6106d1366004613106565b6101086020526000908152604090205481565b3480156106f057600080fd5b5061010c54610527906001600160a01b031681565b610392610713366004613189565b6118dc565b34801561072457600080fd5b506102ed61010e5481565b34801561073b57600080fd5b506103926118ee565b34801561075057600080fd5b5061039261075f3660046131e9565b61197d565b34801561077057600080fd5b5061010d54610527906001600160a01b031681565b34801561079157600080fd5b5061034561198e565b3480156107a657600080fd5b506102ed6101025481565b3480156107bd57600080fd5b506102ed6101075481565b3480156107d457600080fd5b506102ed6101065481565b3480156107eb57600080fd5b506103206107fa366004613231565b6001600160a01b03918216600090815260666020908152604080832093909416825291909152205460ff1690565b34801561083457600080fd5b506102ed61010f5481565b34801561084b57600080fd5b5061039261085a36600461325b565b61199c565b34801561086b57600080fd5b5061039261087a366004613106565b6119e1565b34801561088b57600080fd5b506102ed6101125481565b3480156108a257600080fd5b506102ed6108b1366004613106565b6101096020526000908152604090205481565b60006001600160a01b0383166109345760405162461bcd60e51b815260206004820152602a60248201527f455243313135353a2061646472657373207a65726f206973206e6f742061207660448201526930b634b21037bbb732b960b11b60648201526084015b60405180910390fd5b5060008181526065602090815260408083206001600160a01b03861684529091529020545b92915050565b60006001600160e01b03198216636cdb3d1360e11b148061099057506001600160e01b031982166303a24d0760e21b145b8061095957506301ffc9a760e01b6001600160e01b0319831614610959565b60fb80546109bc906132bf565b80601f01602080910402602001604051908101604052809291908181526020018280546109e8906132bf565b8015610a355780601f10610a0a57610100808354040283529160200191610a35565b820191906000526020600020905b815481529060010190602001808311610a1857829003601f168201915b505050505081565b60008083468461010430604051602001610a5b95949392919061336c565b60408051601f198184030181529082905280516020918201207f19457468657265756d205369676e6564204d6573736167653a0a33320000000091830191909152603c820152605c0160408051808303601f190181529190528051602090910120949350505050565b610ada81516000141561010a5460001415611a57565b610b1c5760405162461bcd60e51b81526020600482015260136024820152724e6f7468696e6720746f20776974686472617760681b604482015260640161092b565b60005b8151811015610c10576000828281518110610b3c57610b3c6133ae565b6020026020010151604051602001610b9291907f4e6f2062616c616e636520746f207472616e7366657220666f72200000000000815260609190911b6bffffffffffffffffffffffff1916601b820152602f0190565b60405160208183030381529060405290506101096000848481518110610bba57610bba6133ae565b60200260200101516001600160a01b03166001600160a01b0316815260200190815260200160002054600014158190610c065760405162461bcd60e51b815260040161092b9190612c95565b5050600101610b1f565b5050565b610c1c611a6a565b600260c95403610c6e5760405162461bcd60e51b815260206004820152601f60248201527f5265656e7472616e637947756172643a207265656e7472616e742063616c6c00604482015260640161092b565b600260c95580610cab5760405162461bcd60e51b81526020600482015260086024820152670416d6f756e743e360c41b604482015260640161092b565b60008161010a5447031015610cf35760405162461bcd60e51b815260206004820152600e60248201526d09cdee840cadcdeeaced040cae8d60931b604482015260640161092b565b61271061010e54830281610d0957610d096133c4565b049050600033610d1983856133f0565b604051600081818185875af1925050503d8060008114610d55576040519150601f19603f3d011682016040523d82523d6000602084013e610d5a565b606091505b5050905080610d985760405162461bcd60e51b815260206004820152600a6024820152692a3c103330b4b632b21760b11b604482015260640161092b565b8115610e1d5761010c546040516000916001600160a01b03169084908381818185875af1925050503d8060008114610dec576040519150601f19603f3d011682016040523d82523d6000602084013e610df1565b606091505b5050905080610e125760405162461bcd60e51b815260040161092b90613403565b5061010f8054830190555b5050600160c95550565b606060fd610e3483611ac4565b604051602001610e4592919061342b565b6040516020818303038152906040529050919050565b610e63611a6a565b610e6b611bcc565b600260c95403610ebd5760405162461bcd60e51b815260206004820152601f60248201527f5265656e7472616e637947756172643a207265656e7472616e742063616c6c00604482015260640161092b565b600260c955610ecb81610ac4565b60008060008060005b8551811015611025576101096000878381518110610ef457610ef46133ae565b60200260200101516001600160a01b03166001600160a01b0316815260200190815260200160002054945061271061010e54860281610f3557610f356133c4565b04915060006101096000888481518110610f5157610f516133ae565b60200260200101516001600160a01b03166001600160a01b03168152602001908152602001600020819055506000336001600160a01b03168387610f9591906133f0565b604051600081818185875af1925050503d8060008114610fd1576040519150601f19603f3d011682016040523d82523d6000602084013e610fd6565b606091505b50509050806110145760405162461bcd60e51b815260206004820152600a6024820152692a3c103330b4b632b21760b11b604482015260640161092b565b509284019291810191600101610ed4565b5061010a8054849003905581156110b55761010c546040516000916001600160a01b03169084908381818185875af1925050503d8060008114611084576040519150601f19603f3d011682016040523d82523d6000602084013e611089565b606091505b50509050806110aa5760405162461bcd60e51b815260040161092b90613403565b5061010f8054830190555b5050600160c955505050565b6001600160a01b0385163314806110dd57506110dd85336107fa565b6110f95760405162461bcd60e51b815260040161092b90613450565b6111068585858585611c1f565b5050505050565b60008085468686866101043060405160200161112f979695949392919061349f565b60408051601f198184030181529082905280516020918201207f19457468657265756d205369676e6564204d6573736167653a0a33320000000091830191909152603c820152605c0160408051808303601f1901815291905280516020909101209695505050505050565b60008084468585610104306040516020016111ba969594939291906134f4565b60408051601f198184030181529082905280516020918201207f19457468657265756d205369676e6564204d6573736167653a0a33320000000091830191909152603c820152605c0160408051808303601f19018152919052805160209091012095945050505050565b606081518351146112895760405162461bcd60e51b815260206004820152602960248201527f455243313135353a206163636f756e747320616e6420696473206c656e677468604482015268040dad2e6dac2e8c6d60bb1b606482015260840161092b565b600083516001600160401b038111156112a4576112a4612ca8565b6040519080825280602002602001820160405280156112cd578160200160208202803683370190505b50905060005b8451811015611345576113188582815181106112f1576112f16133ae565b602002602001015185838151811061130b5761130b6133ae565b60200260200101516108c4565b82828151811061132a5761132a6133ae565b602090810291909101015261133e81613542565b90506112d3565b509392505050565b61135681611dff565b50565b611361611a6a565b611380611375610100544210428711611a57565b856101005414611e72565b6113c15760405162461bcd60e51b8152602060048201526012602482015271496e76616c69642053746172742054696d6560701b604482015260640161092b565b6101015442106114225760405162461bcd60e51b815260206004820152602660248201527f546865207075626c69632073616c6520697320656e6465642063616e6e6f742060448201526575706461746560d01b606482015260840161092b565b606485116114675760405162461bcd60e51b8152602060048201526012602482015271125b9d985b1a5908151bdad95b8818dbdcdd60721b604482015260640161092b565b600083116114b05760405162461bcd60e51b815260206004820152601660248201527505075626c69632073616c65206475726174696f6e3e360541b604482015260640161092b565b6114cf600083116114ca6101025484111585851015611a57565b611a57565b6115385760405162461bcd60e51b815260206004820152603460248201527f4d6178696d756d20746f6b656e206d696e7465642070657220706572736f6e2f6044820152731c195c881b5a5b9d081b9bdd0818dbdc9c9958dd60621b606482015260840161092b565b61010585905561010084905561154e838561355b565b610101556101069190915561010755505050565b61156a611a6a565b6115746000611e82565b565b60006115828383611ed4565b61010b546001600160a01b039182169116149392505050565b60006115b36101005442101561010154421115611a57565b905090565b6115c0611a6a565b6001600160a01b0381166116005760405162461bcd60e51b815260206004820152600760248201526610b9b4b3b732b960c91b604482015260640161092b565b61010b80546001600160a01b0319166001600160a01b0392909216919091179055565b60fc80546109bc906132bf565b611638611a6a565b611640611bcc565b61164981610ac4565b60008060008060005b85518110156117c2576101096000878381518110611672576116726133ae565b60200260200101516001600160a01b03166001600160a01b0316815260200190815260200160002054945061271061010e548602816116b3576116b36133c4565b049150600061010960008884815181106116cf576116cf6133ae565b60200260200101516001600160a01b03166001600160a01b0316815260200190815260200160002081905550600086828151811061170f5761170f6133ae565b60200260200101516001600160a01b0316838761172c91906133f0565b604051600081818185875af1925050503d8060008114611768576040519150601f19603f3d011682016040523d82523d6000602084013e61176d565b606091505b50509050806117b15760405162461bcd60e51b815260206004820152601060248201526f2a3930b739b332b9103330b4b632b21760811b604482015260640161092b565b509284019291810191600101611652565b5061010a8054849003905581156111065761010c546040516000916001600160a01b03169084908381818185875af1925050503d8060008114611821576040519150601f19603f3d011682016040523d82523d6000602084013e611826565b606091505b50509050806118475760405162461bcd60e51b815260040161092b90613403565b5061010f8054830190555050505050565b60fd80546109bc906132bf565b610c10338383611ef0565b61010d546001600160a01b031633146118b35760405162461bcd60e51b8152602060048201526005602482015264042c2eae8d60db1b604482015260640161092b565b61010e9190915561010c80546001600160a01b0319166001600160a01b03909216919091179055565b6118e884848484611fd0565b50505050565b61010d546001600160a01b031633146119315760405162461bcd60e51b8152602060048201526005602482015264042c2eae8d60db1b604482015260640161092b565b61011054156119755760405162461bcd60e51b815260206004820152601060248201526f185b1c9958591e48185c1c1c9bdd995960821b604482015260640161092b565b600161011055565b611985611a6a565b61135681612121565b61010480546109bc906132bf565b6001600160a01b0385163314806119b857506119b885336107fa565b6119d45760405162461bcd60e51b815260040161092b90613450565b6111068585858585612171565b6119e9611a6a565b6001600160a01b038116611a4e5760405162461bcd60e51b815260206004820152602660248201527f4f776e61626c653a206e6577206f776e657220697320746865207a65726f206160448201526564647265737360d01b606482015260840161092b565b61135681611e82565b6000828015611a635750815b9392505050565b6097546001600160a01b031633146115745760405162461bcd60e51b815260206004820181905260248201527f4f776e61626c653a2063616c6c6572206973206e6f7420746865206f776e6572604482015260640161092b565b606081600003611aeb5750506040805180820190915260018152600360fc1b602082015290565b8160005b8115611b155780611aff81613542565b9150611b0e9050600a8361356e565b9150611aef565b6000816001600160401b03811115611b2f57611b2f612ca8565b6040519080825280601f01601f191660200182016040528015611b59576020820181803683370190505b5090505b8415611bc457611b6e6001836133f0565b9150611b7b600a86613582565b611b8690603061355b565b60f81b818381518110611b9b57611b9b6133ae565b60200101906001600160f81b031916908160001a905350611bbd600a8661356e565b9450611b5d565b949350505050565b610101544210156115745760405162461bcd60e51b815260206004820152601960248201527f7075626c69632073616c65206e6f742079657420656e64656400000000000000604482015260640161092b565b8151835114611c815760405162461bcd60e51b815260206004820152602860248201527f455243313135353a2069647320616e6420616d6f756e7473206c656e677468206044820152670dad2e6dac2e8c6d60c31b606482015260840161092b565b6001600160a01b038416611ca75760405162461bcd60e51b815260040161092b90613596565b3360005b8451811015611d91576000858281518110611cc857611cc86133ae565b602002602001015190506000858381518110611ce657611ce66133ae565b60209081029190910181015160008481526065835260408082206001600160a01b038e168352909352919091205490915081811015611d375760405162461bcd60e51b815260040161092b906135db565b60008381526065602090815260408083206001600160a01b038e8116855292528083208585039055908b16825281208054849290611d7690849061355b565b9250508190555050505080611d8a90613542565b9050611cab565b50846001600160a01b0316866001600160a01b0316826001600160a01b03167f4a39dc06d4c0dbc64b70af90fd698a233a518aa5d07e595d983b8c0526c8f7fb8787604051611de1929190613625565b60405180910390a4611df781878787878761229f565b505050505050565b60016101105414611e3e5760405162461bcd60e51b815260206004820152600960248201526808585c1c1c9bdd995960ba1b604482015260640161092b565b611e46612403565b611e4f8161244e565b611e5933826125ac565b3360009081526101086020526040902080549091019055565b60008280611a6357509092915050565b609780546001600160a01b038381166001600160a01b0319831681179093556040519116919082907f8be0079c531659141344cd1fd0a4f28419497f9722a3daafe3b4186f6b6457e090600090a35050565b6000806000611ee38585612603565b9150915061134581612671565b816001600160a01b0316836001600160a01b031603611f635760405162461bcd60e51b815260206004820152602960248201527f455243313135353a2073657474696e6720617070726f76616c20737461747573604482015268103337b91039b2b63360b91b606482015260840161092b565b6001600160a01b03838116600081815260666020908152604080832094871680845294825291829020805460ff191686151590811790915591519182527f17307eab39ab6107e8899845ad3d59bd9653f200f220920489ca2b5937696c31910160405180910390a3505050565b6001610110541461200f5760405162461bcd60e51b815260206004820152600960248201526808585c1c1c9bdd995960ba1b604482015260640161092b565b612017612403565b6001600160a01b0383166120555760405162461bcd60e51b815260206004820152600560248201526410bab9b2b960d91b604482015260640161092b565b600061206233858561119a565b905061206e8183611576565b6120ae5760405162461bcd60e51b8152602060048201526011602482015270696e76616c69642d7369676e617475726560781b604482015260640161092b565b6120b78561244e565b6120c133866125ac565b5050610103805484019055610105546001600160a01b0392909216600090815261010960209081526040808320805460649590960287029490940494850190935561010a8054909401909355338152610108909252902080549091019055565b61212a81612827565b60fd612136828261369e565b507f3d7a9962f6da134f6896430d6867bd08e3546dbf9570df877e7cec39ba4305f0816040516121669190612c95565b60405180910390a150565b6001600160a01b0384166121975760405162461bcd60e51b815260040161092b90613596565b3360006121a385612833565b905060006121b085612833565b905060008681526065602090815260408083206001600160a01b038c168452909152902054858110156121f55760405162461bcd60e51b815260040161092b906135db565b60008781526065602090815260408083206001600160a01b038d8116855292528083208985039055908a1682528120805488929061223490849061355b565b909155505060408051888152602081018890526001600160a01b03808b16928c821692918816917fc3d58168c5ae7397731d063d5bbf3d657854427343f4c083240f7aacaa2d0f62910160405180910390a4612294848a8a8a8a8a61287e565b505050505050505050565b6001600160a01b0384163b15611df75760405163bc197c8160e01b81526001600160a01b0385169063bc197c81906122e3908990899088908890889060040161375d565b6020604051808303816000875af192505050801561231e575060408051601f3d908101601f1916820190925261231b918101906137bb565b60015b6123ca5761232a6137d8565b806308c379a003612363575061233e6137f4565b806123495750612365565b8060405162461bcd60e51b815260040161092b9190612c95565b505b60405162461bcd60e51b815260206004820152603460248201527f455243313135353a207472616e7366657220746f206e6f6e20455243313135356044820152732932b1b2b4bb32b91034b6b83632b6b2b73a32b960611b606482015260840161092b565b6001600160e01b0319811663bc197c8160e01b146123fa5760405162461bcd60e51b815260040161092b9061387d565b50505050505050565b61240b61159b565b6115745760405162461bcd60e51b81526020600482015260146024820152735075626c69632053616c652d6e6f74206c69766560601b604482015260640161092b565b6124616000821161010654831115611a57565b6124a65760405162461bcd60e51b8152602060048201526016602482015275496e76616c696420546f6b656e205175616e7469747960501b604482015260640161092b565b610102548160fe540111156124f25760405162461bcd60e51b815260206004820152601260248201527132bc31b2b2b21036b0bc1039bab838363c9760711b604482015260640161092b565b3481610105540211156125475760405162461bcd60e51b815260206004820152601760248201527f706179206d696e696d756d20746f6b656e207072696365000000000000000000604482015260640161092b565b610107543360009081526101086020526040902054820111156113565760405162461bcd60e51b815260206004820152601c60248201527f657863656564206d6178696d756d20616c6c6f776564206c696d697400000000604482015260640161092b565b6000805b828110156118e8576125c0612939565b91506125ce60fe5460010190565b60fe819055506125fb8483600160405180604001604052806002815260200161060f60f31b815250612999565b6001016125b0565b60008082516041036126395760208301516040840151606085015160001a61262d87828585612aa6565b9450945050505061266a565b82516040036126625760208301516040840151612657868383612b93565b93509350505061266a565b506000905060025b9250929050565b6000816004811115612685576126856138c5565b0361268d5750565b60018160048111156126a1576126a16138c5565b036126ee5760405162461bcd60e51b815260206004820152601860248201527f45434453413a20696e76616c6964207369676e61747572650000000000000000604482015260640161092b565b6002816004811115612702576127026138c5565b0361274f5760405162461bcd60e51b815260206004820152601f60248201527f45434453413a20696e76616c6964207369676e6174757265206c656e67746800604482015260640161092b565b6003816004811115612763576127636138c5565b036127bb5760405162461bcd60e51b815260206004820152602260248201527f45434453413a20696e76616c6964207369676e6174757265202773272076616c604482015261756560f01b606482015260840161092b565b60048160048111156127cf576127cf6138c5565b036113565760405162461bcd60e51b815260206004820152602260248201527f45434453413a20696e76616c6964207369676e6174757265202776272076616c604482015261756560f01b606482015260840161092b565b6067610c10828261369e565b6040805160018082528183019092526060916000919060208083019080368337019050509050828160008151811061286d5761286d6133ae565b602090810291909101015292915050565b6001600160a01b0384163b15611df75760405163f23a6e6160e01b81526001600160a01b0385169063f23a6e61906128c290899089908890889088906004016138db565b6020604051808303816000875af19250505080156128fd575060408051601f3d908101601f191682019092526128fa918101906137bb565b60015b6129095761232a6137d8565b6001600160e01b0319811663f23a6e6160e01b146123fa5760405162461bcd60e51b815260040161092b9061387d565b60006101025460fe5411156129845760405162461bcd60e51b8152602060048201526011602482015270657863656564206d617820537570706c7960781b604482015260640161092b565b61299260ff80546001019055565b5060ff5490565b6001600160a01b0384166129f95760405162461bcd60e51b815260206004820152602160248201527f455243313135353a206d696e7420746f20746865207a65726f206164647265736044820152607360f81b606482015260840161092b565b336000612a0585612833565b90506000612a1285612833565b905060008681526065602090815260408083206001600160a01b038b16845290915281208054879290612a4690849061355b565b909155505060408051878152602081018790526001600160a01b03808a1692600092918716917fc3d58168c5ae7397731d063d5bbf3d657854427343f4c083240f7aacaa2d0f62910160405180910390a46123fa8360008989898961287e565b6000807f7fffffffffffffffffffffffffffffff5d576e7357a4501ddfe92f46681b20a0831115612add5750600090506003612b8a565b8460ff16601b14158015612af557508460ff16601c14155b15612b065750600090506004612b8a565b6040805160008082526020820180845289905260ff881692820192909252606081018690526080810185905260019060a0016020604051602081039080840390855afa158015612b5a573d6000803e3d6000fd5b5050604051601f1901519150506001600160a01b038116612b8357600060019250925050612b8a565b9150600090505b94509492505050565b6000806001600160ff1b03831681612bb060ff86901c601b61355b565b9050612bbe87828885612aa6565b935093505050935093915050565b80356001600160a01b0381168114612be357600080fd5b919050565b60008060408385031215612bfb57600080fd5b612c0483612bcc565b946020939093013593505050565b6001600160e01b03198116811461135657600080fd5b600060208284031215612c3a57600080fd5b8135611a6381612c12565b60005b83811015612c60578181015183820152602001612c48565b50506000910152565b60008151808452612c81816020860160208601612c45565b601f01601f19169290920160200192915050565b602081526000611a636020830184612c69565b634e487b7160e01b600052604160045260246000fd5b601f8201601f191681016001600160401b0381118282101715612ce357612ce3612ca8565b6040525050565b60006001600160401b03821115612d0357612d03612ca8565b5060051b60200190565b600082601f830112612d1e57600080fd5b81356020612d2b82612cea565b604051612d388282612cbe565b83815260059390931b8501820192828101915086841115612d5857600080fd5b8286015b84811015612d7a57612d6d81612bcc565b8352918301918301612d5c565b509695505050505050565b600060208284031215612d9757600080fd5b81356001600160401b03811115612dad57600080fd5b611bc484828501612d0d565b600060208284031215612dcb57600080fd5b5035919050565b600082601f830112612de357600080fd5b81356020612df082612cea565b604051612dfd8282612cbe565b83815260059390931b8501820192828101915086841115612e1d57600080fd5b8286015b84811015612d7a5780358352918301918301612e21565b60006001600160401b03831115612e5157612e51612ca8565b604051612e68601f8501601f191660200182612cbe565b809150838152848484011115612e7d57600080fd5b83836020830137600060208583010152509392505050565b600082601f830112612ea657600080fd5b611a6383833560208501612e38565b600080600080600060a08688031215612ecd57600080fd5b612ed686612bcc565b9450612ee460208701612bcc565b935060408601356001600160401b0380821115612f0057600080fd5b612f0c89838a01612dd2565b94506060880135915080821115612f2257600080fd5b612f2e89838a01612dd2565b93506080880135915080821115612f4457600080fd5b50612f5188828901612e95565b9150509295509295909350565b60008060008060808587031215612f7457600080fd5b612f7d85612bcc565b935060208501359250612f9260408601612bcc565b9396929550929360600135925050565b600080600060608486031215612fb757600080fd5b612fc084612bcc565b9250612fce60208501612bcc565b9150604084013590509250925092565b60008060408385031215612ff157600080fd5b82356001600160401b038082111561300857600080fd5b61301486838701612d0d565b9350602085013591508082111561302a57600080fd5b5061303785828601612dd2565b9150509250929050565b600081518084526020808501945080840160005b8381101561307157815187529582019590820190600101613055565b509495945050505050565b602081526000611a636020830184613041565b600080600080600060a086880312156130a757600080fd5b505083359560208501359550604085013594606081013594506080013592509050565b600080604083850312156130dd57600080fd5b8235915060208301356001600160401b038111156130fa57600080fd5b61303785828601612e95565b60006020828403121561311857600080fd5b611a6382612bcc565b6000806040838503121561313457600080fd5b61313d83612bcc565b91506020830135801515811461315257600080fd5b809150509250929050565b6000806040838503121561317057600080fd5b8235915061318060208401612bcc565b90509250929050565b6000806000806080858703121561319f57600080fd5b843593506131af60208601612bcc565b92506040850135915060608501356001600160401b038111156131d157600080fd5b6131dd87828801612e95565b91505092959194509250565b6000602082840312156131fb57600080fd5b81356001600160401b0381111561321157600080fd5b8201601f8101841361322257600080fd5b611bc484823560208401612e38565b6000806040838503121561324457600080fd5b61324d83612bcc565b915061318060208401612bcc565b600080600080600060a0868803121561327357600080fd5b61327c86612bcc565b945061328a60208701612bcc565b9350604086013592506060860135915060808601356001600160401b038111156132b357600080fd5b612f5188828901612e95565b600181811c908216806132d357607f821691505b6020821081036132f357634e487b7160e01b600052602260045260246000fd5b50919050565b60008154613306816132bf565b6001828116801561331e576001811461333357613362565b60ff1984168752821515830287019450613362565b8560005260208060002060005b858110156133595781548a820152908401908201613340565b50505082870194505b5050505092915050565b60006001600160601b0319808860601b16835286601484015285603484015261339860548401866132f9565b60609490941b1683525050601401949350505050565b634e487b7160e01b600052603260045260246000fd5b634e487b7160e01b600052601260045260246000fd5b634e487b7160e01b600052601160045260246000fd5b81810381811115610959576109596133da565b6020808252600e908201526d2332b29d2a3c103330b4b632b21760911b604082015260600190565b600061343782856132f9565b8351613447818360208801612c45565b01949350505050565b6020808252602f908201527f455243313135353a2063616c6c6572206973206e6f7420746f6b656e206f776e60408201526e195c881b9bdc88185c1c1c9bdd9959608a1b606082015260800190565b60006001600160601b0319808a60601b168352886014840152876034840152808760601b1660548401528560688401526134dc60888401866132f9565b60609490941b16835250506014019695505050505050565b60006001600160601b0319808960601b168352876014840152808760601b16603484015285604884015261352b60688401866132f9565b60609490941b168352505060140195945050505050565b600060018201613554576135546133da565b5060010190565b80820180821115610959576109596133da565b60008261357d5761357d6133c4565b500490565b600082613591576135916133c4565b500690565b60208082526025908201527f455243313135353a207472616e7366657220746f20746865207a65726f206164604082015264647265737360d81b606082015260800190565b6020808252602a908201527f455243313135353a20696e73756666696369656e742062616c616e636520666f60408201526939103a3930b739b332b960b11b606082015260800190565b6040815260006136386040830185613041565b828103602084015261364a8185613041565b95945050505050565b601f82111561369957600081815260208120601f850160051c8101602086101561367a5750805b601f850160051c820191505b81811015611df757828155600101613686565b505050565b81516001600160401b038111156136b7576136b7612ca8565b6136cb816136c584546132bf565b84613653565b602080601f83116001811461370057600084156136e85750858301515b600019600386901b1c1916600185901b178555611df7565b600085815260208120601f198616915b8281101561372f57888601518255948401946001909101908401613710565b508582101561374d5787850151600019600388901b60f8161c191681555b5050505050600190811b01905550565b6001600160a01b0386811682528516602082015260a06040820181905260009061378990830186613041565b828103606084015261379b8186613041565b905082810360808401526137af8185612c69565b98975050505050505050565b6000602082840312156137cd57600080fd5b8151611a6381612c12565b600060033d11156137f15760046000803e5060005160e01c5b90565b600060443d10156138025790565b6040516003193d81016004833e81513d6001600160401b03816024840111818411171561383157505050505090565b82850191508151818111156138495750505050505090565b843d87010160208285010111156138635750505050505090565b61387260208286010187612cbe565b509095945050505050565b60208082526028908201527f455243313135353a204552433131353552656365697665722072656a656374656040820152676420746f6b656e7360c01b606082015260800190565b634e487b7160e01b600052602160045260246000fd5b6001600160a01b03868116825285166020820152604081018490526060810183905260a06080820181905260009061391590830184612c69565b97965050505050505056fea26469706673582212200c69c38ce1b5b952ad5f7b81895ebeeae8a261955727e1b9e2d3ea140158791c64736f6c63430008110033",
  "linkReferences": {},
  "deployedLinkReferences": {}
}