{
  "contracts/SFMMock/Safemoon.sol": {
    "Safemoon": {
      "abi": [
        {
          "anonymous": false,
          "inputs": [
            {
              "indexed": true,
              "internalType": "address",
              "name": "owner",
              "type": "address"
            },
            {
              "indexed": true,
              "internalType": "address",
              "name": "spender",
              "type": "address"
            },
            {
              "indexed": false,
              "internalType": "uint256",
              "name": "value",
              "type": "uint256"
            }
          ],
          "name": "Approval",
          "type": "event"
        },
        {
          "anonymous": false,
          "inputs": [
            {
              "indexed": false,
              "internalType": "uint256",
              "name": "minTokensBeforeSwap",
              "type": "uint256"
            }
          ],
          "name": "MinTokensBeforeSwapUpdated",
          "type": "event"
        },
        {
          "anonymous": false,
          "inputs": [
            {
              "indexed": true,
              "internalType": "address",
              "name": "previousOwner",
              "type": "address"
            },
            {
              "indexed": true,
              "internalType": "address",
              "name": "newOwner",
              "type": "address"
            }
          ],
          "name": "OwnershipTransferred",
          "type": "event"
        },
        {
          "anonymous": false,
          "inputs": [
            {
              "indexed": false,
              "internalType": "uint256",
              "name": "bnbSwapped",
              "type": "uint256"
            },
            {
              "indexed": false,
              "internalType": "uint256",
              "name": "tokenReceived",
              "type": "uint256"
            },
            {
              "indexed": false,
              "internalType": "uint256",
              "name": "bnbIntoLiquidity",
              "type": "uint256"
            }
          ],
          "name": "SwapAndEvolve",
          "type": "event"
        },
        {
          "anonymous": false,
          "inputs": [
            {
              "indexed": false,
              "internalType": "bool",
              "name": "enabled",
              "type": "bool"
            }
          ],
          "name": "SwapAndEvolveEnabledUpdated",
          "type": "event"
        },
        {
          "anonymous": false,
          "inputs": [
            {
              "indexed": true,
              "internalType": "address",
              "name": "from",
              "type": "address"
            },
            {
              "indexed": true,
              "internalType": "address",
              "name": "to",
              "type": "address"
            },
            {
              "indexed": false,
              "internalType": "uint256",
              "name": "value",
              "type": "uint256"
            }
          ],
          "name": "Transfer",
          "type": "event"
        },
        {
          "inputs": [],
          "name": "WBNB",
          "outputs": [
            {
              "internalType": "address",
              "name": "",
              "type": "address"
            }
          ],
          "stateMutability": "view",
          "type": "function"
        },
        {
          "inputs": [],
          "name": "_burnAddress",
          "outputs": [
            {
              "internalType": "address",
              "name": "",
              "type": "address"
            }
          ],
          "stateMutability": "view",
          "type": "function"
        },
        {
          "inputs": [],
          "name": "_defaultFees",
          "outputs": [
            {
              "internalType": "uint256",
              "name": "ecoSystemFee",
              "type": "uint256"
            },
            {
              "internalType": "uint256",
              "name": "liquidityFee",
              "type": "uint256"
            },
            {
              "internalType": "uint256",
              "name": "taxFee",
              "type": "uint256"
            },
            {
              "internalType": "uint256",
              "name": "ownerFee",
              "type": "uint256"
            },
            {
              "internalType": "uint256",
              "name": "burnFee",
              "type": "uint256"
            },
            {
              "internalType": "address",
              "name": "ecoSystem",
              "type": "address"
            },
            {
              "internalType": "address",
              "name": "owner",
              "type": "address"
            }
          ],
          "stateMutability": "view",
          "type": "function"
        },
        {
          "inputs": [],
          "name": "_maxTxAmount",
          "outputs": [
            {
              "internalType": "uint256",
              "name": "",
              "type": "uint256"
            }
          ],
          "stateMutability": "view",
          "type": "function"
        },
        {
          "inputs": [
            {
              "internalType": "address",
              "name": "_account",
              "type": "address"
            }
          ],
          "name": "accountTier",
          "outputs": [
            {
              "components": [
                {
                  "internalType": "uint256",
                  "name": "ecoSystemFee",
                  "type": "uint256"
                },
                {
                  "internalType": "uint256",
                  "name": "liquidityFee",
                  "type": "uint256"
                },
                {
                  "internalType": "uint256",
                  "name": "taxFee",
                  "type": "uint256"
                },
                {
                  "internalType": "uint256",
                  "name": "ownerFee",
                  "type": "uint256"
                },
                {
                  "internalType": "uint256",
                  "name": "burnFee",
                  "type": "uint256"
                },
                {
                  "internalType": "address",
                  "name": "ecoSystem",
                  "type": "address"
                },
                {
                  "internalType": "address",
                  "name": "owner",
                  "type": "address"
                }
              ],
              "internalType": "struct Safemoon.FeeTier",
              "name": "",
              "type": "tuple"
            }
          ],
          "stateMutability": "view",
          "type": "function"
        },
        {
          "inputs": [
            {
              "internalType": "uint256",
              "name": "_ecoSystemFee",
              "type": "uint256"
            },
            {
              "internalType": "uint256",
              "name": "_liquidityFee",
              "type": "uint256"
            },
            {
              "internalType": "uint256",
              "name": "_taxFee",
              "type": "uint256"
            },
            {
              "internalType": "uint256",
              "name": "_ownerFee",
              "type": "uint256"
            },
            {
              "internalType": "uint256",
              "name": "_burnFee",
              "type": "uint256"
            },
            {
              "internalType": "address",
              "name": "_ecoSystem",
              "type": "address"
            },
            {
              "internalType": "address",
              "name": "_owner",
              "type": "address"
            }
          ],
          "name": "addTier",
          "outputs": [],
          "stateMutability": "nonpayable",
          "type": "function"
        },
        {
          "inputs": [
            {
              "internalType": "address",
              "name": "owner",
              "type": "address"
            },
            {
              "internalType": "address",
              "name": "spender",
              "type": "address"
            }
          ],
          "name": "allowance",
          "outputs": [
            {
              "internalType": "uint256",
              "name": "",
              "type": "uint256"
            }
          ],
          "stateMutability": "view",
          "type": "function"
        },
        {
          "inputs": [
            {
              "internalType": "address",
              "name": "spender",
              "type": "address"
            },
            {
              "internalType": "uint256",
              "name": "amount",
              "type": "uint256"
            }
          ],
          "name": "approve",
          "outputs": [
            {
              "internalType": "bool",
              "name": "",
              "type": "bool"
            }
          ],
          "stateMutability": "nonpayable",
          "type": "function"
        },
        {
          "inputs": [
            {
              "internalType": "address",
              "name": "account",
              "type": "address"
            }
          ],
          "name": "balanceOf",
          "outputs": [
            {
              "internalType": "uint256",
              "name": "",
              "type": "uint256"
            }
          ],
          "stateMutability": "view",
          "type": "function"
        },
        {
          "inputs": [
            {
              "internalType": "address",
              "name": "account",
              "type": "address"
            }
          ],
          "name": "blacklistAddress",
          "outputs": [],
          "stateMutability": "nonpayable",
          "type": "function"
        },
        {
          "inputs": [],
          "name": "decimals",
          "outputs": [
            {
              "internalType": "uint8",
              "name": "",
              "type": "uint8"
            }
          ],
          "stateMutability": "view",
          "type": "function"
        },
        {
          "inputs": [
            {
              "internalType": "address",
              "name": "spender",
              "type": "address"
            },
            {
              "internalType": "uint256",
              "name": "subtractedValue",
              "type": "uint256"
            }
          ],
          "name": "decreaseAllowance",
          "outputs": [
            {
              "internalType": "bool",
              "name": "",
              "type": "bool"
            }
          ],
          "stateMutability": "nonpayable",
          "type": "function"
        },
        {
          "inputs": [
            {
              "internalType": "address",
              "name": "account",
              "type": "address"
            }
          ],
          "name": "excludeFromFee",
          "outputs": [],
          "stateMutability": "nonpayable",
          "type": "function"
        },
        {
          "inputs": [
            {
              "internalType": "address",
              "name": "account",
              "type": "address"
            }
          ],
          "name": "excludeFromReward",
          "outputs": [],
          "stateMutability": "nonpayable",
          "type": "function"
        },
        {
          "inputs": [
            {
              "internalType": "address",
              "name": "_account",
              "type": "address"
            }
          ],
          "name": "excludeWhitelistedAddress",
          "outputs": [],
          "stateMutability": "nonpayable",
          "type": "function"
        },
        {
          "inputs": [
            {
              "internalType": "uint256",
              "name": "_tierIndex",
              "type": "uint256"
            }
          ],
          "name": "feeTier",
          "outputs": [
            {
              "components": [
                {
                  "internalType": "uint256",
                  "name": "ecoSystemFee",
                  "type": "uint256"
                },
                {
                  "internalType": "uint256",
                  "name": "liquidityFee",
                  "type": "uint256"
                },
                {
                  "internalType": "uint256",
                  "name": "taxFee",
                  "type": "uint256"
                },
                {
                  "internalType": "uint256",
                  "name": "ownerFee",
                  "type": "uint256"
                },
                {
                  "internalType": "uint256",
                  "name": "burnFee",
                  "type": "uint256"
                },
                {
                  "internalType": "address",
                  "name": "ecoSystem",
                  "type": "address"
                },
                {
                  "internalType": "address",
                  "name": "owner",
                  "type": "address"
                }
              ],
              "internalType": "struct Safemoon.FeeTier",
              "name": "",
              "type": "tuple"
            }
          ],
          "stateMutability": "view",
          "type": "function"
        },
        {
          "inputs": [],
          "name": "feeTiersLength",
          "outputs": [
            {
              "internalType": "uint256",
              "name": "",
              "type": "uint256"
            }
          ],
          "stateMutability": "view",
          "type": "function"
        },
        {
          "inputs": [],
          "name": "getBNBBalance",
          "outputs": [
            {
              "internalType": "uint256",
              "name": "",
              "type": "uint256"
            }
          ],
          "stateMutability": "view",
          "type": "function"
        },
        {
          "inputs": [],
          "name": "getContractBalance",
          "outputs": [
            {
              "internalType": "uint256",
              "name": "",
              "type": "uint256"
            }
          ],
          "stateMutability": "view",
          "type": "function"
        },
        {
          "inputs": [
            {
              "internalType": "address",
              "name": "account",
              "type": "address"
            }
          ],
          "name": "includeInFee",
          "outputs": [],
          "stateMutability": "nonpayable",
          "type": "function"
        },
        {
          "inputs": [
            {
              "internalType": "address",
              "name": "account",
              "type": "address"
            }
          ],
          "name": "includeInReward",
          "outputs": [],
          "stateMutability": "nonpayable",
          "type": "function"
        },
        {
          "inputs": [
            {
              "internalType": "address",
              "name": "spender",
              "type": "address"
            },
            {
              "internalType": "uint256",
              "name": "addedValue",
              "type": "uint256"
            }
          ],
          "name": "increaseAllowance",
          "outputs": [
            {
              "internalType": "bool",
              "name": "",
              "type": "bool"
            }
          ],
          "stateMutability": "nonpayable",
          "type": "function"
        },
        {
          "inputs": [
            {
              "internalType": "address",
              "name": "_router",
              "type": "address"
            }
          ],
          "name": "initRouterAndPair",
          "outputs": [],
          "stateMutability": "nonpayable",
          "type": "function"
        },
        {
          "inputs": [],
          "name": "initialize",
          "outputs": [],
          "stateMutability": "nonpayable",
          "type": "function"
        },
        {
          "inputs": [
            {
              "internalType": "address",
              "name": "account",
              "type": "address"
            }
          ],
          "name": "isBlacklisted",
          "outputs": [
            {
              "internalType": "bool",
              "name": "",
              "type": "bool"
            }
          ],
          "stateMutability": "view",
          "type": "function"
        },
        {
          "inputs": [
            {
              "internalType": "address",
              "name": "account",
              "type": "address"
            }
          ],
          "name": "isExcludedFromFee",
          "outputs": [
            {
              "internalType": "bool",
              "name": "",
              "type": "bool"
            }
          ],
          "stateMutability": "view",
          "type": "function"
        },
        {
          "inputs": [
            {
              "internalType": "address",
              "name": "account",
              "type": "address"
            }
          ],
          "name": "isExcludedFromReward",
          "outputs": [
            {
              "internalType": "bool",
              "name": "",
              "type": "bool"
            }
          ],
          "stateMutability": "view",
          "type": "function"
        },
        {
          "inputs": [],
          "name": "isMigrationStarted",
          "outputs": [
            {
              "internalType": "bool",
              "name": "",
              "type": "bool"
            }
          ],
          "stateMutability": "view",
          "type": "function"
        },
        {
          "inputs": [
            {
              "internalType": "address",
              "name": "_account",
              "type": "address"
            }
          ],
          "name": "isWhitelisted",
          "outputs": [
            {
              "internalType": "bool",
              "name": "",
              "type": "bool"
            }
          ],
          "stateMutability": "view",
          "type": "function"
        },
        {
          "inputs": [
            {
              "internalType": "address",
              "name": "account",
              "type": "address"
            },
            {
              "internalType": "uint256",
              "name": "amount",
              "type": "uint256"
            }
          ],
          "name": "migrate",
          "outputs": [],
          "stateMutability": "nonpayable",
          "type": "function"
        },
        {
          "inputs": [],
          "name": "name",
          "outputs": [
            {
              "internalType": "string",
              "name": "",
              "type": "string"
            }
          ],
          "stateMutability": "view",
          "type": "function"
        },
        {
          "inputs": [],
          "name": "numOfBnbToSwapAndEvolve",
          "outputs": [
            {
              "internalType": "uint256",
              "name": "",
              "type": "uint256"
            }
          ],
          "stateMutability": "view",
          "type": "function"
        },
        {
          "inputs": [],
          "name": "numTokensToCollectBNB",
          "outputs": [
            {
              "internalType": "uint256",
              "name": "",
              "type": "uint256"
            }
          ],
          "stateMutability": "view",
          "type": "function"
        },
        {
          "inputs": [],
          "name": "owner",
          "outputs": [
            {
              "internalType": "address",
              "name": "",
              "type": "address"
            }
          ],
          "stateMutability": "view",
          "type": "function"
        },
        {
          "inputs": [
            {
              "internalType": "uint256",
              "name": "tAmount",
              "type": "uint256"
            },
            {
              "internalType": "bool",
              "name": "deductTransferFee",
              "type": "bool"
            }
          ],
          "name": "reflectionFromToken",
          "outputs": [
            {
              "internalType": "uint256",
              "name": "",
              "type": "uint256"
            }
          ],
          "stateMutability": "view",
          "type": "function"
        },
        {
          "inputs": [
            {
              "internalType": "uint256",
              "name": "tAmount",
              "type": "uint256"
            },
            {
              "internalType": "uint256",
              "name": "_tierIndex",
              "type": "uint256"
            },
            {
              "internalType": "bool",
              "name": "deductTransferFee",
              "type": "bool"
            }
          ],
          "name": "reflectionFromTokenInTiers",
          "outputs": [
            {
              "internalType": "uint256",
              "name": "",
              "type": "uint256"
            }
          ],
          "stateMutability": "view",
          "type": "function"
        },
        {
          "inputs": [],
          "name": "renounceOwnership",
          "outputs": [],
          "stateMutability": "nonpayable",
          "type": "function"
        },
        {
          "inputs": [
            {
              "internalType": "uint256",
              "name": "_tierIndex",
              "type": "uint256"
            },
            {
              "internalType": "uint256",
              "name": "_burnFee",
              "type": "uint256"
            }
          ],
          "name": "setBurnFeePercent",
          "outputs": [],
          "stateMutability": "nonpayable",
          "type": "function"
        },
        {
          "inputs": [],
          "name": "setDefaultSettings",
          "outputs": [],
          "stateMutability": "nonpayable",
          "type": "function"
        },
        {
          "inputs": [
            {
              "internalType": "uint256",
              "name": "_tierIndex",
              "type": "uint256"
            },
            {
              "internalType": "address",
              "name": "_ecoSystem",
              "type": "address"
            }
          ],
          "name": "setEcoSystemFeeAddress",
          "outputs": [],
          "stateMutability": "nonpayable",
          "type": "function"
        },
        {
          "inputs": [
            {
              "internalType": "uint256",
              "name": "_tierIndex",
              "type": "uint256"
            },
            {
              "internalType": "uint256",
              "name": "_ecoSystemFee",
              "type": "uint256"
            }
          ],
          "name": "setEcoSystemFeePercent",
          "outputs": [],
          "stateMutability": "nonpayable",
          "type": "function"
        },
        {
          "inputs": [
            {
              "internalType": "uint256",
              "name": "_tierIndex",
              "type": "uint256"
            },
            {
              "internalType": "uint256",
              "name": "_liquidityFee",
              "type": "uint256"
            }
          ],
          "name": "setLiquidityFeePercent",
          "outputs": [],
          "stateMutability": "nonpayable",
          "type": "function"
        },
        {
          "inputs": [
            {
              "internalType": "uint256",
              "name": "maxTxPercent",
              "type": "uint256"
            }
          ],
          "name": "setMaxTxPercent",
          "outputs": [],
          "stateMutability": "nonpayable",
          "type": "function"
        },
        {
          "inputs": [
            {
              "internalType": "address",
              "name": "_migration",
              "type": "address"
            }
          ],
          "name": "setMigrationAddress",
          "outputs": [],
          "stateMutability": "nonpayable",
          "type": "function"
        },
        {
          "inputs": [
            {
              "internalType": "uint256",
              "name": "_numBnb",
              "type": "uint256"
            }
          ],
          "name": "setNumOfBnbToSwapAndEvolve",
          "outputs": [],
          "stateMutability": "nonpayable",
          "type": "function"
        },
        {
          "inputs": [
            {
              "internalType": "uint256",
              "name": "_numToken",
              "type": "uint256"
            }
          ],
          "name": "setNumberOfTokenToCollectBNB",
          "outputs": [],
          "stateMutability": "nonpayable",
          "type": "function"
        },
        {
          "inputs": [
            {
              "internalType": "uint256",
              "name": "_tierIndex",
              "type": "uint256"
            },
            {
              "internalType": "address",
              "name": "_owner",
              "type": "address"
            }
          ],
          "name": "setOwnerFeeAddress",
          "outputs": [],
          "stateMutability": "nonpayable",
          "type": "function"
        },
        {
          "inputs": [
            {
              "internalType": "uint256",
              "name": "_tierIndex",
              "type": "uint256"
            },
            {
              "internalType": "uint256",
              "name": "_ownerFee",
              "type": "uint256"
            }
          ],
          "name": "setOwnerFeePercent",
          "outputs": [],
          "stateMutability": "nonpayable",
          "type": "function"
        },
        {
          "inputs": [
            {
              "internalType": "bool",
              "name": "_enabled",
              "type": "bool"
            }
          ],
          "name": "setSwapAndEvolveEnabled",
          "outputs": [],
          "stateMutability": "nonpayable",
          "type": "function"
        },
        {
          "inputs": [
            {
              "internalType": "uint256",
              "name": "_tierIndex",
              "type": "uint256"
            },
            {
              "internalType": "uint256",
              "name": "_taxFee",
              "type": "uint256"
            }
          ],
          "name": "setTaxFeePercent",
          "outputs": [],
          "stateMutability": "nonpayable",
          "type": "function"
        },
        {
          "inputs": [],
          "name": "swapAndEvolve",
          "outputs": [],
          "stateMutability": "nonpayable",
          "type": "function"
        },
        {
          "inputs": [],
          "name": "swapAndEvolveEnabled",
          "outputs": [
            {
              "internalType": "bool",
              "name": "",
              "type": "bool"
            }
          ],
          "stateMutability": "view",
          "type": "function"
        },
        {
          "inputs": [],
          "name": "swapAndLiquifyEnabled",
          "outputs": [
            {
              "internalType": "bool",
              "name": "",
              "type": "bool"
            }
          ],
          "stateMutability": "view",
          "type": "function"
        },
        {
          "inputs": [],
          "name": "symbol",
          "outputs": [
            {
              "internalType": "string",
              "name": "",
              "type": "string"
            }
          ],
          "stateMutability": "view",
          "type": "function"
        },
        {
          "inputs": [
            {
              "internalType": "uint256",
              "name": "rAmount",
              "type": "uint256"
            }
          ],
          "name": "tokenFromReflection",
          "outputs": [
            {
              "internalType": "uint256",
              "name": "",
              "type": "uint256"
            }
          ],
          "stateMutability": "view",
          "type": "function"
        },
        {
          "inputs": [],
          "name": "totalFees",
          "outputs": [
            {
              "internalType": "uint256",
              "name": "",
              "type": "uint256"
            }
          ],
          "stateMutability": "view",
          "type": "function"
        },
        {
          "inputs": [],
          "name": "totalSupply",
          "outputs": [
            {
              "internalType": "uint256",
              "name": "",
              "type": "uint256"
            }
          ],
          "stateMutability": "view",
          "type": "function"
        },
        {
          "inputs": [
            {
              "internalType": "address",
              "name": "recipient",
              "type": "address"
            },
            {
              "internalType": "uint256",
              "name": "amount",
              "type": "uint256"
            }
          ],
          "name": "transfer",
          "outputs": [
            {
              "internalType": "bool",
              "name": "",
              "type": "bool"
            }
          ],
          "stateMutability": "nonpayable",
          "type": "function"
        },
        {
          "inputs": [
            {
              "internalType": "address",
              "name": "sender",
              "type": "address"
            },
            {
              "internalType": "address",
              "name": "recipient",
              "type": "address"
            },
            {
              "internalType": "uint256",
              "name": "amount",
              "type": "uint256"
            }
          ],
          "name": "transferFrom",
          "outputs": [
            {
              "internalType": "bool",
              "name": "",
              "type": "bool"
            }
          ],
          "stateMutability": "nonpayable",
          "type": "function"
        },
        {
          "inputs": [
            {
              "internalType": "address",
              "name": "newOwner",
              "type": "address"
            }
          ],
          "name": "transferOwnership",
          "outputs": [],
          "stateMutability": "nonpayable",
          "type": "function"
        },
        {
          "inputs": [
            {
              "internalType": "address",
              "name": "account",
              "type": "address"
            }
          ],
          "name": "unBlacklistAddress",
          "outputs": [],
          "stateMutability": "nonpayable",
          "type": "function"
        },
        {
          "inputs": [],
          "name": "uniswapV2Pair",
          "outputs": [
            {
              "internalType": "address",
              "name": "",
              "type": "address"
            }
          ],
          "stateMutability": "view",
          "type": "function"
        },
        {
          "inputs": [],
          "name": "uniswapV2Router",
          "outputs": [
            {
              "internalType": "contract IUniswapV2Router02",
              "name": "",
              "type": "address"
            }
          ],
          "stateMutability": "view",
          "type": "function"
        },
        {
          "inputs": [
            {
              "internalType": "address",
              "name": "_newBurnAddress",
              "type": "address"
            }
          ],
          "name": "updateBurnAddress",
          "outputs": [],
          "stateMutability": "nonpayable",
          "type": "function"
        },
        {
          "inputs": [
            {
              "internalType": "address",
              "name": "_uniswapV2Router",
              "type": "address"
            },
            {
              "internalType": "address",
              "name": "_uniswapV2Pair",
              "type": "address"
            }
          ],
          "name": "updateRouterAndPair",
          "outputs": [],
          "stateMutability": "nonpayable",
          "type": "function"
        },
        {
          "inputs": [
            {
              "internalType": "address",
              "name": "_account",
              "type": "address"
            },
            {
              "internalType": "uint256",
              "name": "_tierIndex",
              "type": "uint256"
            }
          ],
          "name": "whitelistAddress",
          "outputs": [],
          "stateMutability": "nonpayable",
          "type": "function"
        },
        {
          "inputs": [
            {
              "internalType": "uint256",
              "name": "_amount",
              "type": "uint256"
            }
          ],
          "name": "withdrawBnb",
          "outputs": [],
          "stateMutability": "nonpayable",
          "type": "function"
        },
        {
          "inputs": [
            {
              "internalType": "address",
              "name": "_token",
              "type": "address"
            },
            {
              "internalType": "uint256",
              "name": "_amount",
              "type": "uint256"
            }
          ],
          "name": "withdrawToken",
          "outputs": [],
          "stateMutability": "nonpayable",
          "type": "function"
        },
        {
          "stateMutability": "payable",
          "type": "receive"
        }
      ],
      "devdoc": {
        "kind": "dev",
        "methods": {
          "allowance(address,address)": {
            "details": "Returns the remaining number of tokens that `spender` will be allowed to spend on behalf of `owner` through {transferFrom}. This is zero by default. This value changes when {approve} or {transferFrom} are called."
          },
          "approve(address,uint256)": {
            "details": "Sets `amount` as the allowance of `spender` over the caller's tokens. Returns a boolean value indicating whether the operation succeeded. IMPORTANT: Beware that changing an allowance with this method brings the risk that someone may use both the old and the new allowance by unfortunate transaction ordering. One possible solution to mitigate this race condition is to first reduce the spender's allowance to 0 and set the desired value afterwards: https://github.com/ethereum/EIPs/issues/20#issuecomment-263524729 Emits an {Approval} event."
          },
          "balanceOf(address)": {
            "details": "Returns the amount of tokens owned by `account`."
          },
          "migrate(address,uint256)": {
            "details": "Creates `amount` tokens and assigns them to `account`, increasing the total supply. Emits a {Transfer} event with `from` set to the zero address. Requirements: - `account` cannot be the zero address."
          },
          "owner()": {
            "details": "Returns the address of the current owner."
          },
          "renounceOwnership()": {
            "details": "Leaves the contract without owner. It will not be possible to call `onlyOwner` functions anymore. Can only be called by the current owner. NOTE: Renouncing ownership will leave the contract without an owner, thereby removing any functionality that is only available to the owner."
          },
          "totalSupply()": {
            "details": "Returns the amount of tokens in existence."
          },
          "transfer(address,uint256)": {
            "details": "Moves `amount` tokens from the caller's account to `recipient`. Returns a boolean value indicating whether the operation succeeded. Emits a {Transfer} event."
          },
          "transferFrom(address,address,uint256)": {
            "details": "Moves `amount` tokens from `sender` to `recipient` using the allowance mechanism. `amount` is then deducted from the caller's allowance. Returns a boolean value indicating whether the operation succeeded. Emits a {Transfer} event."
          },
          "transferOwnership(address)": {
            "details": "Transfers ownership of the contract to a new account (`newOwner`). Can only be called by the current owner."
          }
        },
        "stateVariables": {
          "_rTotalExcluded": {
            "details": "We create 2 variables _rTotalExcluded and _tTotalExcluded that store total t and r excluded So for any actions such as add, remove exclude wallet or increase, decrease exclude amount, we will update _rTotalExcluded and _tTotalExcluded and in _getCurrentSupply() function, we remove for loop by using _rTotalExcluded and _tTotalExcluded But this contract using proxy pattern, so when we upgrade contract,  we need to call updateTotalExcluded() to init value of _rTotalExcluded and _tTotalExcluded"
          }
        },
        "version": 1
      },
      "evm": {
        "bytecode": {
          "linkReferences": {},
          "object": "608060405234801561001057600080fd5b5061571f80620000216000396000f3fe6080604052600436106103035760003560e01c806306fdde031461030f578063095ea7b31461033a578063108449531461036757806311b326011461038957806313114a9d146103ab578063132af75c146103c0578063140c5759146103d55780631694505e1461040257806318160ddd14610424578063200c72951461043957806323b872dd146104595780632d83811914610479578063301273341461049957806330b263ba146104b9578063313ce567146104d957806332c2d90c146104fb5780633685d4191461051b578063395093511461053b57806339aa1bba1461055b5780633af32abf1461057b57806340b28c2f1461059b578063437823ec146105bb5780634549b039146105db578063459c979b146105fb5780634732a7dc1461061b57806349bd5a5e1461063b5780634a74bb02146106505780634ffc14251461066557806352390c02146106855780635342acb4146106a557806355724b3a146106c557806360d0eb73146106da5780636531c58c146106ef578063674a3112146107045780636bd89cdd146107245780636f9fb98a1461074457806370a0823114610759578063715018a6146107795780637d1db4a51461078e5780637ed948f7146107a35780638129fc1c146107c357806388f82020146107d85780638abec606146107f85780638af319c71461080d5780638d50d4991461082d5780638da5cb5b146108425780638dd95002146108575780638fc3d4b81461086c57806395d89b411461088c5780639e281a98146108a1578063a457c2d7146108c1578063a9059cbb146108e1578063ad68ebf714610901578063bd3900c014610921578063bf26646914610936578063d40cf65914610956578063d543dbeb14610976578063d66329b014610996578063dd62ed3e146109b6578063dfd66cb3146109d6578063ea2f0b37146109fe578063ee28088114610a1e578063f2d58c2314610a3e578063f2fde38b14610a5e578063f3290d7514610a7e578063f89879aa14610a9e578063fe575a8714610ab3578063fff3e1ba14610ad35761030a565b3661030a57005b600080fd5b34801561031b57600080fd5b50610324610af3565b6040516103319190614e0b565b60405180910390f35b34801561034657600080fd5b5061035a610355366004614b10565b610b89565b6040516103319190614dcb565b34801561037357600080fd5b50610387610382366004614a60565b610ba7565b005b34801561039557600080fd5b5061039e610c64565b60405161033191906154ab565b3480156103b757600080fd5b5061039e610c6a565b3480156103cc57600080fd5b50610387610c70565b3480156103e157600080fd5b506103f56103f0366004614b73565b610ccd565b6040516103319190615453565b34801561040e57600080fd5b50610417610d7a565b6040516103319190614d1c565b34801561043057600080fd5b5061039e610d89565b34801561044557600080fd5b50610387610454366004614b10565b610d8f565b34801561046557600080fd5b5061035a610474366004614ad0565b610e8d565b34801561048557600080fd5b5061039e610494366004614b73565b610f15565b3480156104a557600080fd5b506103f56104b4366004614a60565b610f58565b3480156104c557600080fd5b506103876104d4366004614beb565b610ffc565b3480156104e557600080fd5b506104ee611123565b6040516103319190615542565b34801561050757600080fd5b50610387610516366004614b3b565b61112c565b34801561052757600080fd5b50610387610536366004614a60565b6111b8565b34801561054757600080fd5b5061035a610556366004614b10565b611347565b34801561056757600080fd5b50610387610576366004614beb565b611395565b34801561058757600080fd5b5061035a610596366004614a60565b6114b5565b3480156105a757600080fd5b506103876105b6366004614a98565b6114d2565b3480156105c757600080fd5b506103876105d6366004614a60565b6115d8565b3480156105e757600080fd5b5061039e6105f6366004614bc7565b61163b565b34801561060757600080fd5b50610387610616366004614b73565b611649565b34801561062757600080fd5b50610387610636366004614a60565b6116b5565b34801561064757600080fd5b50610417611716565b34801561065c57600080fd5b5061035a611725565b34801561067157600080fd5b50610387610680366004614c71565b611735565b34801561069157600080fd5b506103876106a0366004614a60565b61178d565b3480156106b157600080fd5b5061035a6106c0366004614a60565b6118c5565b3480156106d157600080fd5b5061035a6118e3565b3480156106e657600080fd5b5061035a6118f1565b3480156106fb57600080fd5b5061039e611902565b34801561071057600080fd5b5061038761071f366004614b73565b611908565b34801561073057600080fd5b5061038761073f366004614a60565b61194c565b34801561075057600080fd5b5061039e6119b2565b34801561076557600080fd5b5061039e610774366004614a60565b6119c2565b34801561078557600080fd5b50610387611a24565b34801561079a57600080fd5b5061039e611a9b565b3480156107af57600080fd5b506103876107be366004614ba3565b611aa1565b3480156107cf57600080fd5b50610387611b9f565b3480156107e457600080fd5b5061035a6107f3366004614a60565b611c39565b34801561080457600080fd5b5061039e611c57565b34801561081957600080fd5b50610387610828366004614ba3565b611c5d565b34801561083957600080fd5b50610387611d5c565b34801561084e57600080fd5b50610417611fda565b34801561086357600080fd5b50610417611fe9565b34801561087857600080fd5b50610387610887366004614beb565b611ff8565b34801561089857600080fd5b5061032461211b565b3480156108ad57600080fd5b506103876108bc366004614b10565b61217c565b3480156108cd57600080fd5b5061035a6108dc366004614b10565b61223b565b3480156108ed57600080fd5b5061035a6108fc366004614b10565b6122a3565b34801561090d57600080fd5b5061038761091c366004614b10565b6122b7565b34801561092d57600080fd5b5061041761237a565b34801561094257600080fd5b5061039e610951366004614c0c565b612389565b34801561096257600080fd5b50610387610971366004614a60565b6123ed565b34801561098257600080fd5b50610387610991366004614b73565b61244d565b3480156109a257600080fd5b506103876109b1366004614beb565b6124b3565b3480156109c257600080fd5b5061039e6109d1366004614a98565b6125d6565b3480156109e257600080fd5b506109eb612601565b6040516103319796959493929190615506565b348015610a0a57600080fd5b50610387610a19366004614a60565b612626565b348015610a2a57600080fd5b50610387610a39366004614a60565b612686565b348015610a4a57600080fd5b50610387610a59366004614beb565b612895565b348015610a6a57600080fd5b50610387610a79366004614a60565b6129b6565b348015610a8a57600080fd5b50610387610a99366004614a60565b612a65565b348015610aaa57600080fd5b5061039e612ad3565b348015610abf57600080fd5b5061035a610ace366004614a60565b612ad7565b348015610adf57600080fd5b50610387610aee366004614b73565b612af5565b60718054604080516020601f6002600019610100600188161502019095169490940493840181900481028201810190925282815260609390929091830182828015610b7f5780601f10610b5457610100808354040283529160200191610b7f565b820191906000526020600020905b815481529060010190602001808311610b6257829003601f168201915b5050505050905090565b6000610b9d610b96612b39565b8484612b3d565b5060015b92915050565b610baf612b39565b6001600160a01b0316610bc0611fda565b6001600160a01b031614610bef5760405162461bcd60e51b8152600401610be6906151c1565b60405180910390fd5b6001600160a01b038116610c155760405162461bcd60e51b8152600401610be6906151f6565b6001600160a01b0381166000908152606b6020526040902054610c4a5760405162461bcd60e51b8152600401610be690615386565b6001600160a01b03166000908152606b6020526040812055565b60895490565b606f5490565b610c78612b39565b6001600160a01b0316610c89611fda565b6001600160a01b031614610caf5760405162461bcd60e51b8152600401610be6906151c1565b608f805460ff60a81b191690556095805461ff001916610100179055565b610cd56148fc565b60895482908110610cf85760405162461bcd60e51b8152600401610be690615113565b60898381548110610d0557fe5b60009182526020918290206040805160e081018252600790930290910180548352600181015493830193909352600283015490820152600382015460608201526004820154608082015260058201546001600160a01b0390811660a083015260069092015490911660c0820152915050919050565b608a546001600160a01b031681565b606d5490565b610d97612b39565b6001600160a01b0316610da8611fda565b6001600160a01b031614610dce5760405162461bcd60e51b8152600401610be6906151c1565b60895481908110610df15760405162461bcd60e51b8152600401610be690615113565b826040518060600160405280602a81526020016156c0602a91396001600160a01b0382166000908152606a6020526040902054819060ff1615610e475760405162461bcd60e51b8152600401610be69190614e0b565b506001600160a01b038516610e6e5760405162461bcd60e51b8152600401610be6906151f6565b5050506001600160a01b039091166000908152606b6020526040902055565b6000610e9a848484612ca3565b610f0a84610ea6612b39565b610f05856040518060600160405280602881526020016155c1602891396001600160a01b038a16600090815260676020526040812090610ee4612b39565b6001600160a01b0316815260208101919091526040016000205491906130b6565b612b3d565b5060015b9392505050565b6000606e54821115610f395760405162461bcd60e51b8152600401610be690614ee7565b6000610f436130e2565b9050610f4f8382613105565b9150505b919050565b610f606148fc565b6001600160a01b0382166000908152606b6020526040902054608980549091908110610f8857fe5b60009182526020918290206040805160e081018252600790930290910180548352600181015493830193909352600283015490820152600382015460608201526004820154608082015260058201546001600160a01b0390811660a083015260069092015490911660c08201529050919050565b611004612b39565b6001600160a01b0316611015611fda565b6001600160a01b03161461103b5760405162461bcd60e51b8152600401610be6906151c1565b6089548290811061105e5760405162461bcd60e51b8152600401610be690615113565b6110666148fc565b6089848154811061107357fe5b60009182526020918290206040805160e0810182526007909302909101805483526001810154938301939093526002830154908201819052600383015460608301526004830154608083015260058301546001600160a01b0390811660a084015260069093015490921660c082015291506110f090829085613137565b82608985815481106110fe57fe5b60009182526020909120600260079092020101558361111d5760768390555b50505050565b60735460ff1690565b611134612b39565b6001600160a01b0316611145611fda565b6001600160a01b03161461116b5760405162461bcd60e51b8152600401610be6906151c1565b6095805461ff001916610100831515021790556040517ef279ea7539cc7cc5311702e24242fe836f7f94e8e329be09530ade3dd254c3906111ad908390614dcb565b60405180910390a150565b6111c0612b39565b6001600160a01b03166111d1611fda565b6001600160a01b0316146111f75760405162461bcd60e51b8152600401610be6906151c1565b60005b606c5481101561134357816001600160a01b0316606c828154811061121b57fe5b6000918252602090912001546001600160a01b0316141561133b57606c8054600019810190811061124857fe5b600091825260209091200154606c80546001600160a01b03909216918390811061126e57fe5b600091825260208083209190910180546001600160a01b0319166001600160a01b039485161790559184168152606690915260409020546097546112b1916131a4565b6097556001600160a01b0382166000908152606560205260409020546096546112d9916131a4565b6096556001600160a01b038216600090815260666020908152604080832083905560699091529020805460ff19169055606c80548061131457fe5b600082815260209020810160001990810180546001600160a01b0319169055019055611343565b6001016111fa565b5050565b6000610b9d611354612b39565b84610f058560676000611365612b39565b6001600160a01b03908116825260208083019390935260409182016000908120918c1681529252902054906131cc565b61139d612b39565b6001600160a01b03166113ae611fda565b6001600160a01b0316146113d45760405162461bcd60e51b8152600401610be6906151c1565b608954829081106113f75760405162461bcd60e51b8152600401610be690615113565b6113ff6148fc565b6089848154811061140c57fe5b60009182526020918290206040805160e08101825260079093029091018054808452600182015494840194909452600281015491830191909152600381015460608301526004810154608083015260058101546001600160a01b0390811660a08401526006909101541660c0820152915061148990829085613137565b826089858154811061149757fe5b60009182526020909120600790910201558361111d57505060745550565b6001600160a01b03166000908152606b6020526040902054151590565b6114da612b39565b6001600160a01b03166114eb611fda565b6001600160a01b0316146115115760405162461bcd60e51b8152600401610be6906151c1565b608a80546001600160a01b038085166001600160a01b03199283161792839055608b8054858316931692909217909155604080516315ab88c960e31b81529051929091169163ad5c464891600480820192602092909190829003018186803b15801561157c57600080fd5b505afa158015611590573d6000803e3d6000fd5b505050506040513d601f19601f820116820180604052508101906115b49190614a7c565b608c80546001600160a01b0319166001600160a01b03929092169190911790555050565b6115e0612b39565b6001600160a01b03166115f1611fda565b6001600160a01b0316146116175760405162461bcd60e51b8152600401610be6906151c1565b6001600160a01b03166000908152606860205260409020805460ff19166001179055565b6000610f0e83600084612389565b611651612b39565b6001600160a01b0316611662611fda565b6001600160a01b0316146116885760405162461bcd60e51b8152600401610be6906151c1565b604051339082156108fc029083906000818181858888f19350505050158015611343573d6000803e3d6000fd5b6116bd612b39565b6001600160a01b03166116ce611fda565b6001600160a01b0316146116f45760405162461bcd60e51b8152600401610be6906151c1565b608d80546001600160a01b0319166001600160a01b0392909216919091179055565b608b546001600160a01b031681565b608f54600160a81b900460ff1681565b61173d612b39565b6001600160a01b031661174e611fda565b6001600160a01b0316146117745760405162461bcd60e51b8152600401610be6906151c1565b611783878787878787876131f1565b5050505050505050565b611795612b39565b6001600160a01b03166117a6611fda565b6001600160a01b0316146117cc5760405162461bcd60e51b8152600401610be6906151c1565b6001600160a01b0381166000908152606560205260409020541561185f576001600160a01b03811660009081526065602052604090205461180c90610f15565b6001600160a01b0382166000908152606660205260409020819055609754611833916131cc565b6097556001600160a01b03811660009081526065602052604090205460965461185b916131cc565b6096555b6001600160a01b03166000818152606960205260408120805460ff19166001908117909155606c805491820181559091527f2b4a51ab505fc96a0952efda2ba61bcd3078d4c02c39a186ec16f21883fbe0160180546001600160a01b0319169091179055565b6001600160a01b031660009081526068602052604090205460ff1690565b609554610100900460ff1681565b608d546001600160a01b0316151590565b60935481565b611910612b39565b6001600160a01b0316611921611fda565b6001600160a01b0316146119475760405162461bcd60e51b8152600401610be6906151c1565b609355565b611954612b39565b6001600160a01b0316611965611fda565b6001600160a01b03161461198b5760405162461bcd60e51b8152600401610be6906151c1565b608f80546001600160a01b0319166001600160a01b0383161790556119af8161178d565b50565b60006119bd306119c2565b905090565b6001600160a01b03811660009081526069602052604081205460ff1615611a0257506001600160a01b038116600090815260666020526040902054610f53565b6001600160a01b038216600090815260656020526040902054610ba190610f15565b611a2c612b39565b6001600160a01b0316611a3d611fda565b6001600160a01b031614611a635760405162461bcd60e51b8152600401610be6906151c1565b6033546040516000916001600160a01b031690600080516020615632833981519152908390a3603380546001600160a01b0319169055565b60905481565b611aa9612b39565b6001600160a01b0316611aba611fda565b6001600160a01b031614611ae05760405162461bcd60e51b8152600401610be6906151c1565b60895482908110611b035760405162461bcd60e51b8152600401610be690615113565b6001600160a01b038216611b295760405162461bcd60e51b8152600401610be6906152b4565b611b328261178d565b8160898481548110611b4057fe5b906000526020600020906007020160050160006101000a8154816001600160a01b0302191690836001600160a01b031602179055508260001415611b9a57607980546001600160a01b0319166001600160a01b0384161790555b505050565b600054610100900460ff1680611bb85750611bb86133cb565b80611bc6575060005460ff16155b611be25760405162461bcd60e51b8152600401610be690615096565b600054610100900460ff16158015611c0d576000805460ff1961ff0019909116610100171660011790555b611c156133dc565b611c1d61345d565b611c25613525565b80156119af576000805461ff001916905550565b6001600160a01b031660009081526069602052604090205460ff1690565b60945481565b611c65612b39565b6001600160a01b0316611c76611fda565b6001600160a01b031614611c9c5760405162461bcd60e51b8152600401610be6906151c1565b60895482908110611cbf5760405162461bcd60e51b8152600401610be690615113565b6001600160a01b038216611ce55760405162461bcd60e51b8152600401610be6906152b4565b611cee8261178d565b8160898481548110611cfc57fe5b906000526020600020906007020160060160006101000a8154816001600160a01b0302191690836001600160a01b031602179055508260001415611b9a57607a80546001600160a01b0384166001600160a01b0319909116179055505050565b611d64612b39565b6001600160a01b0316611d75611fda565b6001600160a01b031614611d9b5760405162461bcd60e51b8152600401610be6906151c1565b608f805460ff60a01b1916600160a01b1790556094544790811015611dd25760405162461bcd60e51b8152600401610be69061533c565b506094546000611de3826002613105565b90506000611df183836131a4565b6040516370a0823160e01b815290915060009030906370a0823190611e1a903390600401614d1c565b60206040518083038186803b158015611e3257600080fd5b505afa158015611e46573d6000803e3d6000fd5b505050506040513d601f19601f82011682018060405250810190611e6a9190614b8b565b9050611e758361372e565b6040516370a0823160e01b815260009030906370a0823190611e9b903390600401614d1c565b60206040518083038186803b158015611eb357600080fd5b505afa158015611ec7573d6000803e3d6000fd5b505050506040513d601f19601f82011682018060405250810190611eeb9190614b8b565b90506000611ef982846131a4565b9050611f06333083612b3d565b6040516323b872dd60e01b815230906323b872dd90611f2d90339084908690600401614d30565b602060405180830381600087803b158015611f4757600080fd5b505af1158015611f5b573d6000803e3d6000fd5b505050506040513d601f19601f82011682018060405250810190611f7f9190614b57565b50611f8a81856138b5565b7f08261edc7b257da79c22afdc1c7064b198c7abe8fdd21070ac0b55e0351804a3858286604051611fbd939291906154f0565b60405180910390a15050608f805460ff60a01b1916905550505050565b6033546001600160a01b031690565b608c546001600160a01b031681565b612000612b39565b6001600160a01b0316612011611fda565b6001600160a01b0316146120375760405162461bcd60e51b8152600401610be6906151c1565b6089548290811061205a5760405162461bcd60e51b8152600401610be690615113565b6120626148fc565b6089848154811061206f57fe5b60009182526020918290206040805160e0810182526007909302909101805483526001810154938301939093526002830154908201526003820154606082015260048201546080820181905260058301546001600160a01b0390811660a084015260069093015490921660c082015291506120ec90829085613137565b82608985815481106120fa57fe5b60009182526020909120600460079092020101558361111d57505060785550565b60728054604080516020601f6002600019610100600188161502019095169490940493840181900481028201810190925282815260609390929091830182828015610b7f5780601f10610b5457610100808354040283529160200191610b7f565b612184612b39565b6001600160a01b0316612195611fda565b6001600160a01b0316146121bb5760405162461bcd60e51b8152600401610be6906151c1565b60405163a9059cbb60e01b81526001600160a01b0383169063a9059cbb906121e99033908590600401614d77565b602060405180830381600087803b15801561220357600080fd5b505af1158015612217573d6000803e3d6000fd5b505050506040513d601f19601f82011682018060405250810190611b9a9190614b57565b6000610b9d612248612b39565b84610f05856040518060600160405280602581526020016156726025913960676000612272612b39565b6001600160a01b03908116825260208083019390935260409182016000908120918d168152925290205491906130b6565b6000610b9d6122b0612b39565b8484612ca3565b81604051806060016040528060298152602001615697602991396001600160a01b0382166000908152606a6020526040902054819060ff161561230d5760405162461bcd60e51b8152600401610be69190614e0b565b50608d546001600160a01b03166123365760405162461bcd60e51b8152600401610be690615272565b608d546001600160a01b031661234a612b39565b6001600160a01b0316146123705760405162461bcd60e51b8152600401610be6906150e4565b61111d8484613967565b608f546001600160a01b031681565b6000606d548411156123ad5760405162461bcd60e51b8152600401610be690615017565b816123ce576123ba61494b565b6123c485856139a7565b519150610f0e9050565b6123d661494b565b6123e085856139a7565b602001519150610f0e9050565b6123f5612b39565b6001600160a01b0316612406611fda565b6001600160a01b03161461242c5760405162461bcd60e51b8152600401610be6906151c1565b6001600160a01b03166000908152606a60205260409020805460ff19169055565b612455612b39565b6001600160a01b0316612466611fda565b6001600160a01b03161461248c5760405162461bcd60e51b8152600401610be6906151c1565b6124ad6127106124a783606d54613a7990919063ffffffff16565b90613105565b60905550565b6124bb612b39565b6001600160a01b03166124cc611fda565b6001600160a01b0316146124f25760405162461bcd60e51b8152600401610be6906151c1565b608954829081106125155760405162461bcd60e51b8152600401610be690615113565b61251d6148fc565b6089848154811061252a57fe5b60009182526020918290206040805160e0810182526007909302909101805483526001810154938301939093526002830154908201526003820154606082018190526004830154608083015260058301546001600160a01b0390811660a084015260069093015490921660c082015291506125a790829085613137565b82608985815481106125b557fe5b60009182526020909120600360079092020101558361111d57505060775550565b6001600160a01b03918216600090815260676020908152604080832093909416825291909152205490565b607454607554607654607754607854607954607a546001600160a01b03918216911687565b61262e612b39565b6001600160a01b031661263f611fda565b6001600160a01b0316146126655760405162461bcd60e51b8152600401610be6906151c1565b6001600160a01b03166000908152606860205260409020805460ff19169055565b61268e612b39565b6001600160a01b031661269f611fda565b6001600160a01b0316146126c55760405162461bcd60e51b8152600401610be6906151c1565b608a80546001600160a01b0319166001600160a01b038381169190911791829055604080516315ab88c960e31b81529051929091169163ad5c464891600480820192602092909190829003018186803b15801561272157600080fd5b505afa158015612735573d6000803e3d6000fd5b505050506040513d601f19601f820116820180604052508101906127599190614a7c565b608c80546001600160a01b0319166001600160a01b03928316179055608a546040805163c45a015560e01b81529051919092169163c45a0155916004808301926020929190829003018186803b1580156127b257600080fd5b505afa1580156127c6573d6000803e3d6000fd5b505050506040513d601f19601f820116820180604052508101906127ea9190614a7c565b608c54604051630edef2e760e31b81526001600160a01b03928316926376f7973892612820923092909116908290600401614d54565b602060405180830381600087803b15801561283a57600080fd5b505af115801561284e573d6000803e3d6000fd5b505050506040513d601f19601f820116820180604052508101906128729190614a7c565b608b80546001600160a01b0319166001600160a01b039290921691909117905550565b61289d612b39565b6001600160a01b03166128ae611fda565b6001600160a01b0316146128d45760405162461bcd60e51b8152600401610be6906151c1565b608954829081106128f75760405162461bcd60e51b8152600401610be690615113565b6128ff6148fc565b6089848154811061290c57fe5b60009182526020918290206040805160e0810182526007909302909101805483526001810154938301849052600281015491830191909152600381015460608301526004810154608083015260058101546001600160a01b0390811660a08401526006909101541660c0820152915061298790829085613137565b826089858154811061299557fe5b60009182526020909120600160079092020101558361111d57505060755550565b6129be612b39565b6001600160a01b03166129cf611fda565b6001600160a01b0316146129f55760405162461bcd60e51b8152600401610be6906151c1565b6001600160a01b038116612a1b5760405162461bcd60e51b8152600401610be690614f31565b6033546040516001600160a01b0380841692169060008051602061563283398151915290600090a3603380546001600160a01b0319166001600160a01b0392909216919091179055565b612a6d612b39565b6001600160a01b0316612a7e611fda565b6001600160a01b031614612aa45760405162461bcd60e51b8152600401610be6906151c1565b6001600160a01b03166000908152606a60209081526040808320805460ff19166001179055606b909152812055565b4790565b6001600160a01b03166000908152606a602052604090205460ff1690565b612afd612b39565b6001600160a01b0316612b0e611fda565b6001600160a01b031614612b345760405162461bcd60e51b8152600401610be6906151c1565b609455565b3390565b8260405180606001604052806026815260200161560c602691396001600160a01b0382166000908152606a6020526040902054819060ff1615612b935760405162461bcd60e51b8152600401610be69190614e0b565b5083604051806060016040528060288152602001615599602891396001600160a01b0382166000908152606a6020526040902054819060ff1615612bea5760405162461bcd60e51b8152600401610be69190614e0b565b506001600160a01b038716612c115760405162461bcd60e51b8152600401610be690614ea3565b6001600160a01b038616612c375760405162461bcd60e51b8152600401610be690615411565b6001600160a01b038088166000818152606760209081526040808320948b168084529490915290819020889055517f8c5be1e5ebec7d5bd14f71427d1e84f3dd0314c0f7b2291e5b200ac8c7c3b92590612c929089906154ab565b60405180910390a350505050505050565b612cab612b39565b60408051808201825260208082527f536166656d6f6f6e3a204164647265737320697320626c61636b6c6973746564818301526001600160a01b0384166000908152606a9091529190912054819060ff1615612d1a5760405162461bcd60e51b8152600401610be69190614e0b565b5084604051806060016040528060258152602001615574602591396001600160a01b0382166000908152606a6020526040902054819060ff1615612d715760405162461bcd60e51b8152600401610be69190614e0b565b50856040518060600160405280602381526020016155e9602391396001600160a01b0382166000908152606a6020526040902054819060ff1615612dc85760405162461bcd60e51b8152600401610be69190614e0b565b50612dd1612b39565b803b63ffffffff811615612e96576001600160a01b0382166000908152606b602052604090205480612e94576000839050806001600160a01b031663c45a01556040518163ffffffff1660e01b815260040160206040518083038186803b158015612e3b57600080fd5b505afa925050508015612e6b575060408051601f3d908101601f19168201909252612e6891810190614a7c565b60015b612e7457612e92565b506001600160a01b0384166000908152606b60205260409020600190555b505b505b506001600160a01b038a16612ebd5760405162461bcd60e51b8152600401610be690614e5e565b6001600160a01b038916612ee35760405162461bcd60e51b8152600401610be6906152f9565b60008811612f035760405162461bcd60e51b8152600401610be690615229565b612f0b611fda565b6001600160a01b03168a6001600160a01b031614158015612f455750612f2f611fda565b6001600160a01b0316896001600160a01b031614155b15612f6c57609054881115612f6c5760405162461bcd60e51b8152600401610be69061504e565b6000612f77306119c2565b90506090548110612f8757506090545b60935481108015908190612fa55750608f54600160a01b900460ff16155b8015612fbf5750608b546001600160a01b038d8116911614155b8015612fd25750609554610100900460ff165b15612fe5576093549150612fe582613ab3565b6001600160a01b038c1660009081526068602052604090205460019060ff168061302757506001600160a01b038c1660009081526068602052604090205460ff165b15613030575060005b6000811561309957506001600160a01b038d166000818152606b60205260409020549061305b612b39565b6001600160a01b03161461309957606b6000613075612b39565b6001600160a01b03166001600160a01b031681526020019081526020016000205490505b6130a68e8e8e8486613adf565b5050505050505050505050505050565b600081848411156130da5760405162461bcd60e51b8152600401610be69190614e0b565b505050900390565b60008060006130ef613c46565b90925090506130fe8282613105565b9250505090565b60008082116131265760405162461bcd60e51b8152600401610be690614fe3565b81838161312f57fe5b049392505050565b6000613180826131748561317a88608001516131748a606001516131748c604001516131748e602001518f600001516131cc90919063ffffffff16565b906131cc565b906131a4565b905060705481111561111d5760405162461bcd60e51b8152600401610be6906153cb565b6000828211156131c65760405162461bcd60e51b8152600401610be690614fac565b50900390565b600082820183811015610f0e5760405162461bcd60e51b8152600401610be690614f77565b6131f96148fc565b6132016148fc565b61324e6040518060e001604052808b81526020018a8152602001898152602001888152602001878152602001866001600160a01b03168152602001856001600160a01b0316815250613cdf565b90506132598461178d565b6132628361178d565b6089805460018101825560009190915281517f5bfa74c743914028161ae645d300d90bbdc659f169ca1469ec86b4960f7266cb60079092029182015560208201517f5bfa74c743914028161ae645d300d90bbdc659f169ca1469ec86b4960f7266cc82015560408201517f5bfa74c743914028161ae645d300d90bbdc659f169ca1469ec86b4960f7266cd82015560608201517f5bfa74c743914028161ae645d300d90bbdc659f169ca1469ec86b4960f7266ce82015560808201517f5bfa74c743914028161ae645d300d90bbdc659f169ca1469ec86b4960f7266cf82015560a08201517f5bfa74c743914028161ae645d300d90bbdc659f169ca1469ec86b4960f7266d0820180546001600160a01b03199081166001600160a01b039384161790915560c08401517f5bfa74c743914028161ae645d300d90bbdc659f169ca1469ec86b4960f7266d190930180549091169290911691909117905598975050505050505050565b60006133d630613d47565b15905090565b600054610100900460ff16806133f557506133f56133cb565b80613403575060005460ff16155b61341f5760405162461bcd60e51b8152600401610be690615096565b600054610100900460ff16158015611c25576000805460ff1961ff00199091166101001716600117905580156119af576000805461ff001916905550565b600054610100900460ff168061347657506134766133cb565b80613484575060005460ff16155b6134a05760405162461bcd60e51b8152600401610be690615096565b600054610100900460ff161580156134cb576000805460ff1961ff0019909116610100171660011790555b60006134d5612b39565b603380546001600160a01b0319166001600160a01b03831690811790915560405191925090600090600080516020615632833981519152908290a35080156119af576000805461ff001916905550565b600054610100900460ff168061353e575061353e6133cb565b8061354c575060005460ff16155b6135685760405162461bcd60e51b8152600401610be690615096565b600054610100900460ff16158015613593576000805460ff1961ff0019909116610100171660011790555b6040805180820190915260088082526729b0b332a6b7b7b760c11b60209092019182526135c291607191614997565b506040805180820190915260038082526253464d60e81b60209092019182526135ed91607291614997565b506073805460ff19166009179055683635c9adc5dea00000606d8190556000190619606e556103e8607055674563918244f400006090556706f05b59d3b20000609155608f80546001600160a01b03191661dead17905561364c612b39565b608e80546001600160a01b0319166001600160a01b039283161790819055606e54911660009081526065602052604081209190915560019060689061368f611fda565b6001600160a01b0316815260208082019290925260409081016000908120805494151560ff1995861617905530815260689092529020805490911660011790556136d7613d4d565b6136df612b39565b6001600160a01b031660006001600160a01b0316600080516020615652833981519152606d5460405161371291906154ab565b60405180910390a380156119af576000805461ff001916905550565b60408051600280825260608083018452926020830190803683375050608a54604080516315ab88c960e31b815290519394506001600160a01b039091169263ad5c464892506004808301926020929190829003018186803b15801561379257600080fd5b505afa1580156137a6573d6000803e3d6000fd5b505050506040513d601f19601f820116820180604052508101906137ca9190614a7c565b816000815181106137d757fe5b60200260200101906001600160a01b031690816001600160a01b031681525050308160018151811061380557fe5b60200260200101906001600160a01b031690816001600160a01b031681525050613842613830611fda565b608a546001600160a01b031684612b3d565b608a546001600160a01b031663b6f9de958360008461385f611fda565b426040518663ffffffff1660e01b815260040161387f9493929190614dd6565b6000604051808303818588803b15801561389857600080fd5b505af11580156138ac573d6000803e3d6000fd5b50505050505050565b608a546138cd9030906001600160a01b031684612b3d565b608a546001600160a01b031663f305d7198230856000806138ec611fda565b426040518863ffffffff1660e01b815260040161390e96959493929190614d90565b6060604051808303818588803b15801561392757600080fd5b505af115801561393b573d6000803e3d6000fd5b50505050506040513d601f19601f820116820180604052508101906139609190614c44565b5050505050565b6001600160a01b03821661398d5760405162461bcd60e51b8152600401610be69061518a565b608e54611343906001600160a01b03168383600080613adf565b6139af61494b565b6139b7614a15565b6139c18484613e7a565b905060006139f08260a001516131748460800151613174866020015187604001516131cc90919063ffffffff16565b90506000806000613a0e88866060015186613a096130e2565b613fc0565b92509250925060405180610120016040528084815260200183815260200182815260200186600001518152602001866020015181526020018660400151815260200186606001518152602001866080015181526020018660a001518152509550505050505092915050565b600082613a8857506000610ba1565b82820282848281613a9557fe5b0414610f0e5760405162461bcd60e51b8152600401610be690615149565b608f805460ff60a01b1916600160a01b179055613acf81614010565b50608f805460ff60a01b19169055565b80613aec57613aec61416c565b6001600160a01b03851660009081526069602052604090205460ff16158015613b2e57506001600160a01b03841660009081526069602052604090205460ff16155b15613b4457613b3f8585858561426e565b613c39565b6001600160a01b03851660009081526069602052604090205460ff168015613b8557506001600160a01b03841660009081526069602052604090205460ff16155b15613b9657613b3f85858585614358565b6001600160a01b03851660009081526069602052604090205460ff16158015613bd757506001600160a01b03841660009081526069602052604090205460ff165b15613be857613b3f8585858561443e565b6001600160a01b03851660009081526069602052604090205460ff168015613c2857506001600160a01b03841660009081526069602052604090205460ff165b15613c3957613c3985858585614527565b806139605761396061464f565b600080606e546096541180613c5e5750606d54609754115b15613c70575050606e54606d54613cdb565b6000613c89609654606e546131a490919063ffffffff16565b90506000613ca4609754606d546131a490919063ffffffff16565b9050613cbd606d54606e5461310590919063ffffffff16565b821015613cd557606e54606d54935093505050613cdb565b90925090505b9091565b613ce76148fc565b6000613d1c83608001516131748560600151613174876040015161317489602001518a600001516131cc90919063ffffffff16565b9050607054811115613d405760405162461bcd60e51b8152600401610be6906153cb565b5090919050565b3b151590565b600054610100900460ff1680613d665750613d666133cb565b80613d74575060005460ff16155b613d905760405162461bcd60e51b8152600401610be690615096565b600054610100900460ff16158015613dbb576000805460ff1961ff0019909116610100171660011790555b613dcf60006101f4806000806000806131f1565b8051607455602081015160755560408101516076556060810151607755608081015160785560a0810151607980546001600160a01b03199081166001600160a01b039384161790915560c090920151607a80549093169116179055613e3c603280606460008080806131f1565b50613e5060328060648060008060006131f1565b50613e656064607d80609660008060006131f1565b5080156119af576000805461ff001916905550565b613e82614a15565b613e8a6148fc565b60898381548110613e9757fe5b60009182526020918290206040805160e081018252600790930290910180548352600181015493830193909352600283015490820152600382015460608201526004820154608082015260058201546001600160a01b0390811660a083015260069092015490911660c08201529050613f0e614a15565b6040518060c0016040528060008152602001613f2e87856000015161465f565b8152602001613f4187856020015161465f565b8152602001613f5487856040015161465f565b8152602001613f6787856060015161465f565b8152602001613f7a87856080015161465f565b8152509050613fb68160a0015161317a836080015161317a856040015161317a876060015161317a89602001518e6131a490919063ffffffff16565b8152949350505050565b6000808080613fcf8886613a79565b90506000613fdd8887613a79565b90506000613feb8888613a79565b90506000613ffd8261317a86866131a4565b939b939a50919850919650505050505050565b6040805160028082526060808301845292602083019080368337019050509050308160008151811061403e57fe5b6001600160a01b03928316602091820292909201810191909152608a54604080516315ab88c960e31b81529051919093169263ad5c4648926004808301939192829003018186803b15801561409257600080fd5b505afa1580156140a6573d6000803e3d6000fd5b505050506040513d601f19601f820116820180604052508101906140ca9190614a7c565b816001815181106140d757fe5b6001600160a01b039283166020918202929092010152608a546140fd9130911684612b3d565b608a5460405163791ac94760e01b81526001600160a01b039091169063791ac947906141369085906000908690309042906004016154b4565b600060405180830381600087803b15801561415057600080fd5b505af1158015614164573d6000803e3d6000fd5b505050505050565b608960008154811061417a57fe5b6000918252602082206007909102018054607b556001810154607c556002810154607d556003810154607e556004810154607f556005810154608080546001600160a01b03199081166001600160a01b039384161790915560069092015460818054909316911617905560898054608292906141f257fe5b6000918252602090912082546007909202019081556001808301549082015560028083015490820155600380830154908201556004808301549082015560058083015490820180546001600160a01b03199081166001600160a01b03938416179091556006938401549390920180549092169216919091179055565b61427661494b565b61428083836139a7565b80516001600160a01b0387166000908152606560205260409020549192506142a891906131a4565b6001600160a01b03808716600090815260656020908152604080832094909455840151918716815291909120546142de916131cc565b6001600160a01b03851660009081526065602052604090205561430285828461467e565b61431481604001518260c0015161470c565b836001600160a01b0316856001600160a01b0316600080516020615652833981519152836060015160405161434991906154ab565b60405180910390a35050505050565b61436061494b565b61436a83836139a7565b6001600160a01b03861660009081526066602052604090205490915061439090846131a4565b6001600160a01b03861660009081526066602090815260408083209390935583516065909152919020546143c3916131a4565b6001600160a01b03808716600090815260656020908152604080832094909455840151918716815291909120546143f9916131cc565b6001600160a01b03851660009081526065602052604090205560975461441f90846131a4565b6097558051609654614430916131a4565b60965561430285828461467e565b61444661494b565b61445083836139a7565b80516001600160a01b03871660009081526065602052604090205491925061447891906131a4565b6001600160a01b03808716600090815260656020908152604080832094909455606085015192881682526066905291909120546144b4916131cc565b6001600160a01b038516600090815260666020908152604080832093909355838101516065909152919020546144e9916131cc565b6001600160a01b0385166000908152606560205260409020556060810151609754614513916131cc565b6097556020810151609654614430916131cc565b61452f61494b565b61453983836139a7565b6001600160a01b03861660009081526066602052604090205490915061455f90846131a4565b6001600160a01b0386166000908152606660209081526040808320939093558351606590915291902054614592916131a4565b6001600160a01b03808716600090815260656020908152604080832094909455606085015192881682526066905291909120546145ce916131cc565b6001600160a01b03851660009081526066602090815260408083209390935583810151606590915291902054614603916131cc565b6001600160a01b038516600090815260656020526040902055606081015160975461463391859161317a916131cc565b60975580516020820151609654614430929161317a91906131cc565b607b60896000815481106141f257fe5b60008161466e57506000610ba1565b610f0e6127106124a78585613a79565b61468d838360a0015130614730565b6146c5838360800151608984815481106146a357fe5b60009182526020909120600560079092020101546001600160a01b0316614730565b6146fd838360e00151608984815481106146db57fe5b60009182526020909120600660079092020101546001600160a01b0316614730565b611b9a83836101000151614846565b606e5461471990836131a4565b606e55606f5461472990826131cc565b606f555050565b6001600160a01b03811661474357611b9a565b8161474d57611b9a565b60006147576130e2565b905060006147658483613a79565b6001600160a01b03841660009081526065602052604090205490915061478b90826131cc565b6001600160a01b03841660009081526065602090815260408083209390935560699052205460ff1615614815576001600160a01b0383166000908152606660205260409020546147db90856131cc565b6001600160a01b03841660009081526066602052604090205560975461480190856131cc565b60975560965461481190826131cc565b6096555b826001600160a01b0316856001600160a01b03166000805160206156528339815191528660405161434991906154ab565b8061485057611343565b608f546001600160a01b031660009081526066602052604090205461487590826131cc565b608f80546001600160a01b03908116600090815260666020908152604080832095909555925490911681526069909152205460ff16156148c0576097546148bc90826131cc565b6097555b608f546040516001600160a01b0391821691841690600080516020615652833981519152906148f09085906154ab565b60405180910390a35050565b6040518060e00160405280600081526020016000815260200160008152602001600081526020016000815260200160006001600160a01b0316815260200160006001600160a01b031681525090565b6040518061012001604052806000815260200160008152602001600081526020016000815260200160008152602001600081526020016000815260200160008152602001600081525090565b828054600181600116156101000203166002900490600052602060002090601f016020900481019282601f106149d857805160ff1916838001178555614a05565b82800160010185558215614a05579182015b82811115614a055782518255916020019190600101906149ea565b50614a11929150614a4b565b5090565b6040518060c001604052806000815260200160008152602001600081526020016000815260200160008152602001600081525090565b5b80821115614a115760008155600101614a4c565b600060208284031215614a71578081fd5b8135610f0e81615550565b600060208284031215614a8d578081fd5b8151610f0e81615550565b60008060408385031215614aaa578081fd5b8235614ab581615550565b91506020830135614ac581615550565b809150509250929050565b600080600060608486031215614ae4578081fd5b8335614aef81615550565b92506020840135614aff81615550565b929592945050506040919091013590565b60008060408385031215614b22578182fd5b8235614b2d81615550565b946020939093013593505050565b600060208284031215614b4c578081fd5b8135610f0e81615565565b600060208284031215614b68578081fd5b8151610f0e81615565565b600060208284031215614b84578081fd5b5035919050565b600060208284031215614b9c578081fd5b5051919050565b60008060408385031215614bb5578182fd5b823591506020830135614ac581615550565b60008060408385031215614bd9578182fd5b823591506020830135614ac581615565565b60008060408385031215614bfd578182fd5b50508035926020909101359150565b600080600060608486031215614c20578283fd5b83359250602084013591506040840135614c3981615565565b809150509250925092565b600080600060608486031215614c58578283fd5b8351925060208401519150604084015190509250925092565b600080600080600080600060e0888a031215614c8b578283fd5b873596506020880135955060408801359450606088013593506080880135925060a0880135614cb981615550565b915060c0880135614cc981615550565b8091505092959891949750929550565b6000815180845260208085019450808401835b83811015614d115781516001600160a01b031687529582019590820190600101614cec565b509495945050505050565b6001600160a01b0391909116815260200190565b6001600160a01b039384168152919092166020820152604081019190915260600190565b6001600160a01b0393841681529183166020830152909116604082015260600190565b6001600160a01b03929092168252602082015260400190565b6001600160a01b039687168152602081019590955260408501939093526060840191909152909216608082015260a081019190915260c00190565b901515815260200190565b600085825260806020830152614def6080830186614cd9565b6001600160a01b03949094166040830152506060015292915050565b6000602080835283518082850152825b81811015614e3757858101830151858201604001528201614e1b565b81811115614e485783604083870101525b50601f01601f1916929092016040019392505050565b60208082526025908201527f42455032303a207472616e736665722066726f6d20746865207a65726f206164604082015264647265737360d81b606082015260800190565b60208082526024908201527f42455032303a20617070726f76652066726f6d20746865207a65726f206164646040820152637265737360e01b606082015260800190565b6020808252602a908201527f416d6f756e74206d757374206265206c657373207468616e20746f74616c207260408201526965666c656374696f6e7360b01b606082015260800190565b60208082526026908201527f4f776e61626c653a206e6577206f776e657220697320746865207a65726f206160408201526564647265737360d01b606082015260800190565b6020808252601b908201527a536166654d6174683a206164646974696f6e206f766572666c6f7760281b604082015260600190565b6020808252601e908201527f536166654d6174683a207375627472616374696f6e206f766572666c6f770000604082015260600190565b6020808252601a9082015279536166654d6174683a206469766973696f6e206279207a65726f60301b604082015260600190565b6020808252601f908201527f416d6f756e74206d757374206265206c657373207468616e20737570706c7900604082015260600190565b60208082526028908201527f5472616e7366657220616d6f756e74206578636565647320746865206d6178546040820152673c20b6b7bab73a1760c11b606082015260800190565b6020808252602e908201527f496e697469616c697a61626c653a20636f6e747261637420697320616c72656160408201526d191e481a5b9a5d1a585b1a5e995960921b606082015260800190565b60208082526015908201527414d859995b5bdbdb8e88139bdd08105b1b1bddd959605a1b604082015260600190565b6020808252601c908201527b0a6c2cccadadededc744092dcecc2d8d2c840e8d2cae440d2dcc8caf60231b604082015260600190565b60208082526021908201527f536166654d6174683a206d756c7469706c69636174696f6e206f766572666c6f6040820152607760f81b606082015260800190565b6020808252601f908201527f42455032303a206d696e7420746f20746865207a65726f206164647265737300604082015260600190565b6020808252818101527f4f776e61626c653a2063616c6c6572206973206e6f7420746865206f776e6572604082015260600190565b602080825260199082015278536166656d6f6f6e3a20496e76616c6964206164647265737360381b604082015260600190565b60208082526029908201527f5472616e7366657220616d6f756e74206d7573742062652067726561746572206040820152687468616e207a65726f60b81b606082015260800190565b60208082526022908201527f536166656d6f6f6e3a204d6967726174696f6e206973206e6f74207374617274604082015261195960f21b606082015260800190565b60208082526025908201527f536166656d6f6f6e3a2041646472657373205a65726f206973206e6f7420616c6040820152641b1bddd95960da1b606082015260800190565b60208082526023908201527f42455032303a207472616e7366657220746f20746865207a65726f206164647260408201526265737360e81b606082015260800190565b6020808252602a908201527f424e422062616c616e6365206973206e6f7420726561636820666f722053264560408201526908151a1c995cda1bdb1960b21b606082015260800190565b60208082526025908201527f536166656d6f6f6e3a204163636f756e74206973206e6f7420696e2077686974604082015264195b1a5cdd60da1b606082015260800190565b60208082526026908201527f536166656d6f6f6e3a2046656573206578636565646564206d6178206c696d696040820152653a30ba34b7b760d11b606082015260800190565b60208082526022908201527f42455032303a20617070726f766520746f20746865207a65726f206164647265604082015261737360f01b606082015260800190565b815181526020808301519082015260408083015190820152606080830151908201526080808301519082015260a0808301516001600160a01b039081169183019190915260c092830151169181019190915260e00190565b90815260200190565b600086825285602083015260a060408301526154d360a0830186614cd9565b6001600160a01b0394909416606083015250608001529392505050565b9283526020830191909152604082015260600190565b96875260208701959095526040860193909352606085019190915260808401526001600160a01b0390811660a08401521660c082015260e00190565b60ff91909116815260200190565b6001600160a01b03811681146119af57600080fd5b80151581146119af57600080fdfe536166656d6f6f6e3a2046726f6d206164647265737320697320626c61636b6c6973746564536166656d6f6f6e3a205370656e646572206164647265737320697320626c61636b6c697374656442455032303a207472616e7366657220616d6f756e74206578636565647320616c6c6f77616e6365536166656d6f6f6e3a20546f206164647265737320697320626c61636b6c6973746564536166656d6f6f6e3a204f776e6572206164647265737320697320626c61636b6c69737465648be0079c531659141344cd1fd0a4f28419497f9722a3daafe3b4186f6b6457e0ddf252ad1be2c89b69c2b068fc378daa952ba7f163c4a11628f55a4df523b3ef42455032303a2064656372656173656420616c6c6f77616e63652062656c6f77207a65726f536166656d6f6f6e3a204d69677261746564206163636f756e7420697320626c61636b6c6973746564536166656d6f6f6e3a2053656c6563746564206163636f756e7420697320696e20626c61636b6c697374a2646970667358221220df4478fcca677b1fd7d0299c4cc39828b18ae8fab95f19bfa83e62aaca6457ef64736f6c634300060c0033",
          "opcodes": "PUSH1 0x80 PUSH1 0x40 MSTORE CALLVALUE DUP1 ISZERO PUSH2 0x10 JUMPI PUSH1 0x0 DUP1 REVERT JUMPDEST POP PUSH2 0x571F DUP1 PUSH3 0x21 PUSH1 0x0 CODECOPY PUSH1 0x0 RETURN INVALID PUSH1 0x80 PUSH1 0x40 MSTORE PUSH1 0x4 CALLDATASIZE LT PUSH2 0x303 JUMPI PUSH1 0x0 CALLDATALOAD PUSH1 0xE0 SHR DUP1 PUSH4 0x6FDDE03 EQ PUSH2 0x30F JUMPI DUP1 PUSH4 0x95EA7B3 EQ PUSH2 0x33A JUMPI DUP1 PUSH4 0x10844953 EQ PUSH2 0x367 JUMPI DUP1 PUSH4 0x11B32601 EQ PUSH2 0x389 JUMPI DUP1 PUSH4 0x13114A9D EQ PUSH2 0x3AB JUMPI DUP1 PUSH4 0x132AF75C EQ PUSH2 0x3C0 JUMPI DUP1 PUSH4 0x140C5759 EQ PUSH2 0x3D5 JUMPI DUP1 PUSH4 0x1694505E EQ PUSH2 0x402 JUMPI DUP1 PUSH4 0x18160DDD EQ PUSH2 0x424 JUMPI DUP1 PUSH4 0x200C7295 EQ PUSH2 0x439 JUMPI DUP1 PUSH4 0x23B872DD EQ PUSH2 0x459 JUMPI DUP1 PUSH4 0x2D838119 EQ PUSH2 0x479 JUMPI DUP1 PUSH4 0x30127334 EQ PUSH2 0x499 JUMPI DUP1 PUSH4 0x30B263BA EQ PUSH2 0x4B9 JUMPI DUP1 PUSH4 0x313CE567 EQ PUSH2 0x4D9 JUMPI DUP1 PUSH4 0x32C2D90C EQ PUSH2 0x4FB JUMPI DUP1 PUSH4 0x3685D419 EQ PUSH2 0x51B JUMPI DUP1 PUSH4 0x39509351 EQ PUSH2 0x53B JUMPI DUP1 PUSH4 0x39AA1BBA EQ PUSH2 0x55B JUMPI DUP1 PUSH4 0x3AF32ABF EQ PUSH2 0x57B JUMPI DUP1 PUSH4 0x40B28C2F EQ PUSH2 0x59B JUMPI DUP1 PUSH4 0x437823EC EQ PUSH2 0x5BB JUMPI DUP1 PUSH4 0x4549B039 EQ PUSH2 0x5DB JUMPI DUP1 PUSH4 0x459C979B EQ PUSH2 0x5FB JUMPI DUP1 PUSH4 0x4732A7DC EQ PUSH2 0x61B JUMPI DUP1 PUSH4 0x49BD5A5E EQ PUSH2 0x63B JUMPI DUP1 PUSH4 0x4A74BB02 EQ PUSH2 0x650 JUMPI DUP1 PUSH4 0x4FFC1425 EQ PUSH2 0x665 JUMPI DUP1 PUSH4 0x52390C02 EQ PUSH2 0x685 JUMPI DUP1 PUSH4 0x5342ACB4 EQ PUSH2 0x6A5 JUMPI DUP1 PUSH4 0x55724B3A EQ PUSH2 0x6C5 JUMPI DUP1 PUSH4 0x60D0EB73 EQ PUSH2 0x6DA JUMPI DUP1 PUSH4 0x6531C58C EQ PUSH2 0x6EF JUMPI DUP1 PUSH4 0x674A3112 EQ PUSH2 0x704 JUMPI DUP1 PUSH4 0x6BD89CDD EQ PUSH2 0x724 JUMPI DUP1 PUSH4 0x6F9FB98A EQ PUSH2 0x744 JUMPI DUP1 PUSH4 0x70A08231 EQ PUSH2 0x759 JUMPI DUP1 PUSH4 0x715018A6 EQ PUSH2 0x779 JUMPI DUP1 PUSH4 0x7D1DB4A5 EQ PUSH2 0x78E JUMPI DUP1 PUSH4 0x7ED948F7 EQ PUSH2 0x7A3 JUMPI DUP1 PUSH4 0x8129FC1C EQ PUSH2 0x7C3 JUMPI DUP1 PUSH4 0x88F82020 EQ PUSH2 0x7D8 JUMPI DUP1 PUSH4 0x8ABEC606 EQ PUSH2 0x7F8 JUMPI DUP1 PUSH4 0x8AF319C7 EQ PUSH2 0x80D JUMPI DUP1 PUSH4 0x8D50D499 EQ PUSH2 0x82D JUMPI DUP1 PUSH4 0x8DA5CB5B EQ PUSH2 0x842 JUMPI DUP1 PUSH4 0x8DD95002 EQ PUSH2 0x857 JUMPI DUP1 PUSH4 0x8FC3D4B8 EQ PUSH2 0x86C JUMPI DUP1 PUSH4 0x95D89B41 EQ PUSH2 0x88C JUMPI DUP1 PUSH4 0x9E281A98 EQ PUSH2 0x8A1 JUMPI DUP1 PUSH4 0xA457C2D7 EQ PUSH2 0x8C1 JUMPI DUP1 PUSH4 0xA9059CBB EQ PUSH2 0x8E1 JUMPI DUP1 PUSH4 0xAD68EBF7 EQ PUSH2 0x901 JUMPI DUP1 PUSH4 0xBD3900C0 EQ PUSH2 0x921 JUMPI DUP1 PUSH4 0xBF266469 EQ PUSH2 0x936 JUMPI DUP1 PUSH4 0xD40CF659 EQ PUSH2 0x956 JUMPI DUP1 PUSH4 0xD543DBEB EQ PUSH2 0x976 JUMPI DUP1 PUSH4 0xD66329B0 EQ PUSH2 0x996 JUMPI DUP1 PUSH4 0xDD62ED3E EQ PUSH2 0x9B6 JUMPI DUP1 PUSH4 0xDFD66CB3 EQ PUSH2 0x9D6 JUMPI DUP1 PUSH4 0xEA2F0B37 EQ PUSH2 0x9FE JUMPI DUP1 PUSH4 0xEE280881 EQ PUSH2 0xA1E JUMPI DUP1 PUSH4 0xF2D58C23 EQ PUSH2 0xA3E JUMPI DUP1 PUSH4 0xF2FDE38B EQ PUSH2 0xA5E JUMPI DUP1 PUSH4 0xF3290D75 EQ PUSH2 0xA7E JUMPI DUP1 PUSH4 0xF89879AA EQ PUSH2 0xA9E JUMPI DUP1 PUSH4 0xFE575A87 EQ PUSH2 0xAB3 JUMPI DUP1 PUSH4 0xFFF3E1BA EQ PUSH2 0xAD3 JUMPI PUSH2 0x30A JUMP JUMPDEST CALLDATASIZE PUSH2 0x30A JUMPI STOP JUMPDEST PUSH1 0x0 DUP1 REVERT JUMPDEST CALLVALUE DUP1 ISZERO PUSH2 0x31B JUMPI PUSH1 0x0 DUP1 REVERT JUMPDEST POP PUSH2 0x324 PUSH2 0xAF3 JUMP JUMPDEST PUSH1 0x40 MLOAD PUSH2 0x331 SWAP2 SWAP1 PUSH2 0x4E0B JUMP JUMPDEST PUSH1 0x40 MLOAD DUP1 SWAP2 SUB SWAP1 RETURN JUMPDEST CALLVALUE DUP1 ISZERO PUSH2 0x346 JUMPI PUSH1 0x0 DUP1 REVERT JUMPDEST POP PUSH2 0x35A PUSH2 0x355 CALLDATASIZE PUSH1 0x4 PUSH2 0x4B10 JUMP JUMPDEST PUSH2 0xB89 JUMP JUMPDEST PUSH1 0x40 MLOAD PUSH2 0x331 SWAP2 SWAP1 PUSH2 0x4DCB JUMP JUMPDEST CALLVALUE DUP1 ISZERO PUSH2 0x373 JUMPI PUSH1 0x0 DUP1 REVERT JUMPDEST POP PUSH2 0x387 PUSH2 0x382 CALLDATASIZE PUSH1 0x4 PUSH2 0x4A60 JUMP JUMPDEST PUSH2 0xBA7 JUMP JUMPDEST STOP JUMPDEST CALLVALUE DUP1 ISZERO PUSH2 0x395 JUMPI PUSH1 0x0 DUP1 REVERT JUMPDEST POP PUSH2 0x39E PUSH2 0xC64 JUMP JUMPDEST PUSH1 0x40 MLOAD PUSH2 0x331 SWAP2 SWAP1 PUSH2 0x54AB JUMP JUMPDEST CALLVALUE DUP1 ISZERO PUSH2 0x3B7 JUMPI PUSH1 0x0 DUP1 REVERT JUMPDEST POP PUSH2 0x39E PUSH2 0xC6A JUMP JUMPDEST CALLVALUE DUP1 ISZERO PUSH2 0x3CC JUMPI PUSH1 0x0 DUP1 REVERT JUMPDEST POP PUSH2 0x387 PUSH2 0xC70 JUMP JUMPDEST CALLVALUE DUP1 ISZERO PUSH2 0x3E1 JUMPI PUSH1 0x0 DUP1 REVERT JUMPDEST POP PUSH2 0x3F5 PUSH2 0x3F0 CALLDATASIZE PUSH1 0x4 PUSH2 0x4B73 JUMP JUMPDEST PUSH2 0xCCD JUMP JUMPDEST PUSH1 0x40 MLOAD PUSH2 0x331 SWAP2 SWAP1 PUSH2 0x5453 JUMP JUMPDEST CALLVALUE DUP1 ISZERO PUSH2 0x40E JUMPI PUSH1 0x0 DUP1 REVERT JUMPDEST POP PUSH2 0x417 PUSH2 0xD7A JUMP JUMPDEST PUSH1 0x40 MLOAD PUSH2 0x331 SWAP2 SWAP1 PUSH2 0x4D1C JUMP JUMPDEST CALLVALUE DUP1 ISZERO PUSH2 0x430 JUMPI PUSH1 0x0 DUP1 REVERT JUMPDEST POP PUSH2 0x39E PUSH2 0xD89 JUMP JUMPDEST CALLVALUE DUP1 ISZERO PUSH2 0x445 JUMPI PUSH1 0x0 DUP1 REVERT JUMPDEST POP PUSH2 0x387 PUSH2 0x454 CALLDATASIZE PUSH1 0x4 PUSH2 0x4B10 JUMP JUMPDEST PUSH2 0xD8F JUMP JUMPDEST CALLVALUE DUP1 ISZERO PUSH2 0x465 JUMPI PUSH1 0x0 DUP1 REVERT JUMPDEST POP PUSH2 0x35A PUSH2 0x474 CALLDATASIZE PUSH1 0x4 PUSH2 0x4AD0 JUMP JUMPDEST PUSH2 0xE8D JUMP JUMPDEST CALLVALUE DUP1 ISZERO PUSH2 0x485 JUMPI PUSH1 0x0 DUP1 REVERT JUMPDEST POP PUSH2 0x39E PUSH2 0x494 CALLDATASIZE PUSH1 0x4 PUSH2 0x4B73 JUMP JUMPDEST PUSH2 0xF15 JUMP JUMPDEST CALLVALUE DUP1 ISZERO PUSH2 0x4A5 JUMPI PUSH1 0x0 DUP1 REVERT JUMPDEST POP PUSH2 0x3F5 PUSH2 0x4B4 CALLDATASIZE PUSH1 0x4 PUSH2 0x4A60 JUMP JUMPDEST PUSH2 0xF58 JUMP JUMPDEST CALLVALUE DUP1 ISZERO PUSH2 0x4C5 JUMPI PUSH1 0x0 DUP1 REVERT JUMPDEST POP PUSH2 0x387 PUSH2 0x4D4 CALLDATASIZE PUSH1 0x4 PUSH2 0x4BEB JUMP JUMPDEST PUSH2 0xFFC JUMP JUMPDEST CALLVALUE DUP1 ISZERO PUSH2 0x4E5 JUMPI PUSH1 0x0 DUP1 REVERT JUMPDEST POP PUSH2 0x4EE PUSH2 0x1123 JUMP JUMPDEST PUSH1 0x40 MLOAD PUSH2 0x331 SWAP2 SWAP1 PUSH2 0x5542 JUMP JUMPDEST CALLVALUE DUP1 ISZERO PUSH2 0x507 JUMPI PUSH1 0x0 DUP1 REVERT JUMPDEST POP PUSH2 0x387 PUSH2 0x516 CALLDATASIZE PUSH1 0x4 PUSH2 0x4B3B JUMP JUMPDEST PUSH2 0x112C JUMP JUMPDEST CALLVALUE DUP1 ISZERO PUSH2 0x527 JUMPI PUSH1 0x0 DUP1 REVERT JUMPDEST POP PUSH2 0x387 PUSH2 0x536 CALLDATASIZE PUSH1 0x4 PUSH2 0x4A60 JUMP JUMPDEST PUSH2 0x11B8 JUMP JUMPDEST CALLVALUE DUP1 ISZERO PUSH2 0x547 JUMPI PUSH1 0x0 DUP1 REVERT JUMPDEST POP PUSH2 0x35A PUSH2 0x556 CALLDATASIZE PUSH1 0x4 PUSH2 0x4B10 JUMP JUMPDEST PUSH2 0x1347 JUMP JUMPDEST CALLVALUE DUP1 ISZERO PUSH2 0x567 JUMPI PUSH1 0x0 DUP1 REVERT JUMPDEST POP PUSH2 0x387 PUSH2 0x576 CALLDATASIZE PUSH1 0x4 PUSH2 0x4BEB JUMP JUMPDEST PUSH2 0x1395 JUMP JUMPDEST CALLVALUE DUP1 ISZERO PUSH2 0x587 JUMPI PUSH1 0x0 DUP1 REVERT JUMPDEST POP PUSH2 0x35A PUSH2 0x596 CALLDATASIZE PUSH1 0x4 PUSH2 0x4A60 JUMP JUMPDEST PUSH2 0x14B5 JUMP JUMPDEST CALLVALUE DUP1 ISZERO PUSH2 0x5A7 JUMPI PUSH1 0x0 DUP1 REVERT JUMPDEST POP PUSH2 0x387 PUSH2 0x5B6 CALLDATASIZE PUSH1 0x4 PUSH2 0x4A98 JUMP JUMPDEST PUSH2 0x14D2 JUMP JUMPDEST CALLVALUE DUP1 ISZERO PUSH2 0x5C7 JUMPI PUSH1 0x0 DUP1 REVERT JUMPDEST POP PUSH2 0x387 PUSH2 0x5D6 CALLDATASIZE PUSH1 0x4 PUSH2 0x4A60 JUMP JUMPDEST PUSH2 0x15D8 JUMP JUMPDEST CALLVALUE DUP1 ISZERO PUSH2 0x5E7 JUMPI PUSH1 0x0 DUP1 REVERT JUMPDEST POP PUSH2 0x39E PUSH2 0x5F6 CALLDATASIZE PUSH1 0x4 PUSH2 0x4BC7 JUMP JUMPDEST PUSH2 0x163B JUMP JUMPDEST CALLVALUE DUP1 ISZERO PUSH2 0x607 JUMPI PUSH1 0x0 DUP1 REVERT JUMPDEST POP PUSH2 0x387 PUSH2 0x616 CALLDATASIZE PUSH1 0x4 PUSH2 0x4B73 JUMP JUMPDEST PUSH2 0x1649 JUMP JUMPDEST CALLVALUE DUP1 ISZERO PUSH2 0x627 JUMPI PUSH1 0x0 DUP1 REVERT JUMPDEST POP PUSH2 0x387 PUSH2 0x636 CALLDATASIZE PUSH1 0x4 PUSH2 0x4A60 JUMP JUMPDEST PUSH2 0x16B5 JUMP JUMPDEST CALLVALUE DUP1 ISZERO PUSH2 0x647 JUMPI PUSH1 0x0 DUP1 REVERT JUMPDEST POP PUSH2 0x417 PUSH2 0x1716 JUMP JUMPDEST CALLVALUE DUP1 ISZERO PUSH2 0x65C JUMPI PUSH1 0x0 DUP1 REVERT JUMPDEST POP PUSH2 0x35A PUSH2 0x1725 JUMP JUMPDEST CALLVALUE DUP1 ISZERO PUSH2 0x671 JUMPI PUSH1 0x0 DUP1 REVERT JUMPDEST POP PUSH2 0x387 PUSH2 0x680 CALLDATASIZE PUSH1 0x4 PUSH2 0x4C71 JUMP JUMPDEST PUSH2 0x1735 JUMP JUMPDEST CALLVALUE DUP1 ISZERO PUSH2 0x691 JUMPI PUSH1 0x0 DUP1 REVERT JUMPDEST POP PUSH2 0x387 PUSH2 0x6A0 CALLDATASIZE PUSH1 0x4 PUSH2 0x4A60 JUMP JUMPDEST PUSH2 0x178D JUMP JUMPDEST CALLVALUE DUP1 ISZERO PUSH2 0x6B1 JUMPI PUSH1 0x0 DUP1 REVERT JUMPDEST POP PUSH2 0x35A PUSH2 0x6C0 CALLDATASIZE PUSH1 0x4 PUSH2 0x4A60 JUMP JUMPDEST PUSH2 0x18C5 JUMP JUMPDEST CALLVALUE DUP1 ISZERO PUSH2 0x6D1 JUMPI PUSH1 0x0 DUP1 REVERT JUMPDEST POP PUSH2 0x35A PUSH2 0x18E3 JUMP JUMPDEST CALLVALUE DUP1 ISZERO PUSH2 0x6E6 JUMPI PUSH1 0x0 DUP1 REVERT JUMPDEST POP PUSH2 0x35A PUSH2 0x18F1 JUMP JUMPDEST CALLVALUE DUP1 ISZERO PUSH2 0x6FB JUMPI PUSH1 0x0 DUP1 REVERT JUMPDEST POP PUSH2 0x39E PUSH2 0x1902 JUMP JUMPDEST CALLVALUE DUP1 ISZERO PUSH2 0x710 JUMPI PUSH1 0x0 DUP1 REVERT JUMPDEST POP PUSH2 0x387 PUSH2 0x71F CALLDATASIZE PUSH1 0x4 PUSH2 0x4B73 JUMP JUMPDEST PUSH2 0x1908 JUMP JUMPDEST CALLVALUE DUP1 ISZERO PUSH2 0x730 JUMPI PUSH1 0x0 DUP1 REVERT JUMPDEST POP PUSH2 0x387 PUSH2 0x73F CALLDATASIZE PUSH1 0x4 PUSH2 0x4A60 JUMP JUMPDEST PUSH2 0x194C JUMP JUMPDEST CALLVALUE DUP1 ISZERO PUSH2 0x750 JUMPI PUSH1 0x0 DUP1 REVERT JUMPDEST POP PUSH2 0x39E PUSH2 0x19B2 JUMP JUMPDEST CALLVALUE DUP1 ISZERO PUSH2 0x765 JUMPI PUSH1 0x0 DUP1 REVERT JUMPDEST POP PUSH2 0x39E PUSH2 0x774 CALLDATASIZE PUSH1 0x4 PUSH2 0x4A60 JUMP JUMPDEST PUSH2 0x19C2 JUMP JUMPDEST CALLVALUE DUP1 ISZERO PUSH2 0x785 JUMPI PUSH1 0x0 DUP1 REVERT JUMPDEST POP PUSH2 0x387 PUSH2 0x1A24 JUMP JUMPDEST CALLVALUE DUP1 ISZERO PUSH2 0x79A JUMPI PUSH1 0x0 DUP1 REVERT JUMPDEST POP PUSH2 0x39E PUSH2 0x1A9B JUMP JUMPDEST CALLVALUE DUP1 ISZERO PUSH2 0x7AF JUMPI PUSH1 0x0 DUP1 REVERT JUMPDEST POP PUSH2 0x387 PUSH2 0x7BE CALLDATASIZE PUSH1 0x4 PUSH2 0x4BA3 JUMP JUMPDEST PUSH2 0x1AA1 JUMP JUMPDEST CALLVALUE DUP1 ISZERO PUSH2 0x7CF JUMPI PUSH1 0x0 DUP1 REVERT JUMPDEST POP PUSH2 0x387 PUSH2 0x1B9F JUMP JUMPDEST CALLVALUE DUP1 ISZERO PUSH2 0x7E4 JUMPI PUSH1 0x0 DUP1 REVERT JUMPDEST POP PUSH2 0x35A PUSH2 0x7F3 CALLDATASIZE PUSH1 0x4 PUSH2 0x4A60 JUMP JUMPDEST PUSH2 0x1C39 JUMP JUMPDEST CALLVALUE DUP1 ISZERO PUSH2 0x804 JUMPI PUSH1 0x0 DUP1 REVERT JUMPDEST POP PUSH2 0x39E PUSH2 0x1C57 JUMP JUMPDEST CALLVALUE DUP1 ISZERO PUSH2 0x819 JUMPI PUSH1 0x0 DUP1 REVERT JUMPDEST POP PUSH2 0x387 PUSH2 0x828 CALLDATASIZE PUSH1 0x4 PUSH2 0x4BA3 JUMP JUMPDEST PUSH2 0x1C5D JUMP JUMPDEST CALLVALUE DUP1 ISZERO PUSH2 0x839 JUMPI PUSH1 0x0 DUP1 REVERT JUMPDEST POP PUSH2 0x387 PUSH2 0x1D5C JUMP JUMPDEST CALLVALUE DUP1 ISZERO PUSH2 0x84E JUMPI PUSH1 0x0 DUP1 REVERT JUMPDEST POP PUSH2 0x417 PUSH2 0x1FDA JUMP JUMPDEST CALLVALUE DUP1 ISZERO PUSH2 0x863 JUMPI PUSH1 0x0 DUP1 REVERT JUMPDEST POP PUSH2 0x417 PUSH2 0x1FE9 JUMP JUMPDEST CALLVALUE DUP1 ISZERO PUSH2 0x878 JUMPI PUSH1 0x0 DUP1 REVERT JUMPDEST POP PUSH2 0x387 PUSH2 0x887 CALLDATASIZE PUSH1 0x4 PUSH2 0x4BEB JUMP JUMPDEST PUSH2 0x1FF8 JUMP JUMPDEST CALLVALUE DUP1 ISZERO PUSH2 0x898 JUMPI PUSH1 0x0 DUP1 REVERT JUMPDEST POP PUSH2 0x324 PUSH2 0x211B JUMP JUMPDEST CALLVALUE DUP1 ISZERO PUSH2 0x8AD JUMPI PUSH1 0x0 DUP1 REVERT JUMPDEST POP PUSH2 0x387 PUSH2 0x8BC CALLDATASIZE PUSH1 0x4 PUSH2 0x4B10 JUMP JUMPDEST PUSH2 0x217C JUMP JUMPDEST CALLVALUE DUP1 ISZERO PUSH2 0x8CD JUMPI PUSH1 0x0 DUP1 REVERT JUMPDEST POP PUSH2 0x35A PUSH2 0x8DC CALLDATASIZE PUSH1 0x4 PUSH2 0x4B10 JUMP JUMPDEST PUSH2 0x223B JUMP JUMPDEST CALLVALUE DUP1 ISZERO PUSH2 0x8ED JUMPI PUSH1 0x0 DUP1 REVERT JUMPDEST POP PUSH2 0x35A PUSH2 0x8FC CALLDATASIZE PUSH1 0x4 PUSH2 0x4B10 JUMP JUMPDEST PUSH2 0x22A3 JUMP JUMPDEST CALLVALUE DUP1 ISZERO PUSH2 0x90D JUMPI PUSH1 0x0 DUP1 REVERT JUMPDEST POP PUSH2 0x387 PUSH2 0x91C CALLDATASIZE PUSH1 0x4 PUSH2 0x4B10 JUMP JUMPDEST PUSH2 0x22B7 JUMP JUMPDEST CALLVALUE DUP1 ISZERO PUSH2 0x92D JUMPI PUSH1 0x0 DUP1 REVERT JUMPDEST POP PUSH2 0x417 PUSH2 0x237A JUMP JUMPDEST CALLVALUE DUP1 ISZERO PUSH2 0x942 JUMPI PUSH1 0x0 DUP1 REVERT JUMPDEST POP PUSH2 0x39E PUSH2 0x951 CALLDATASIZE PUSH1 0x4 PUSH2 0x4C0C JUMP JUMPDEST PUSH2 0x2389 JUMP JUMPDEST CALLVALUE DUP1 ISZERO PUSH2 0x962 JUMPI PUSH1 0x0 DUP1 REVERT JUMPDEST POP PUSH2 0x387 PUSH2 0x971 CALLDATASIZE PUSH1 0x4 PUSH2 0x4A60 JUMP JUMPDEST PUSH2 0x23ED JUMP JUMPDEST CALLVALUE DUP1 ISZERO PUSH2 0x982 JUMPI PUSH1 0x0 DUP1 REVERT JUMPDEST POP PUSH2 0x387 PUSH2 0x991 CALLDATASIZE PUSH1 0x4 PUSH2 0x4B73 JUMP JUMPDEST PUSH2 0x244D JUMP JUMPDEST CALLVALUE DUP1 ISZERO PUSH2 0x9A2 JUMPI PUSH1 0x0 DUP1 REVERT JUMPDEST POP PUSH2 0x387 PUSH2 0x9B1 CALLDATASIZE PUSH1 0x4 PUSH2 0x4BEB JUMP JUMPDEST PUSH2 0x24B3 JUMP JUMPDEST CALLVALUE DUP1 ISZERO PUSH2 0x9C2 JUMPI PUSH1 0x0 DUP1 REVERT JUMPDEST POP PUSH2 0x39E PUSH2 0x9D1 CALLDATASIZE PUSH1 0x4 PUSH2 0x4A98 JUMP JUMPDEST PUSH2 0x25D6 JUMP JUMPDEST CALLVALUE DUP1 ISZERO PUSH2 0x9E2 JUMPI PUSH1 0x0 DUP1 REVERT JUMPDEST POP PUSH2 0x9EB PUSH2 0x2601 JUMP JUMPDEST PUSH1 0x40 MLOAD PUSH2 0x331 SWAP8 SWAP7 SWAP6 SWAP5 SWAP4 SWAP3 SWAP2 SWAP1 PUSH2 0x5506 JUMP JUMPDEST CALLVALUE DUP1 ISZERO PUSH2 0xA0A JUMPI PUSH1 0x0 DUP1 REVERT JUMPDEST POP PUSH2 0x387 PUSH2 0xA19 CALLDATASIZE PUSH1 0x4 PUSH2 0x4A60 JUMP JUMPDEST PUSH2 0x2626 JUMP JUMPDEST CALLVALUE DUP1 ISZERO PUSH2 0xA2A JUMPI PUSH1 0x0 DUP1 REVERT JUMPDEST POP PUSH2 0x387 PUSH2 0xA39 CALLDATASIZE PUSH1 0x4 PUSH2 0x4A60 JUMP JUMPDEST PUSH2 0x2686 JUMP JUMPDEST CALLVALUE DUP1 ISZERO PUSH2 0xA4A JUMPI PUSH1 0x0 DUP1 REVERT JUMPDEST POP PUSH2 0x387 PUSH2 0xA59 CALLDATASIZE PUSH1 0x4 PUSH2 0x4BEB JUMP JUMPDEST PUSH2 0x2895 JUMP JUMPDEST CALLVALUE DUP1 ISZERO PUSH2 0xA6A JUMPI PUSH1 0x0 DUP1 REVERT JUMPDEST POP PUSH2 0x387 PUSH2 0xA79 CALLDATASIZE PUSH1 0x4 PUSH2 0x4A60 JUMP JUMPDEST PUSH2 0x29B6 JUMP JUMPDEST CALLVALUE DUP1 ISZERO PUSH2 0xA8A JUMPI PUSH1 0x0 DUP1 REVERT JUMPDEST POP PUSH2 0x387 PUSH2 0xA99 CALLDATASIZE PUSH1 0x4 PUSH2 0x4A60 JUMP JUMPDEST PUSH2 0x2A65 JUMP JUMPDEST CALLVALUE DUP1 ISZERO PUSH2 0xAAA JUMPI PUSH1 0x0 DUP1 REVERT JUMPDEST POP PUSH2 0x39E PUSH2 0x2AD3 JUMP JUMPDEST CALLVALUE DUP1 ISZERO PUSH2 0xABF JUMPI PUSH1 0x0 DUP1 REVERT JUMPDEST POP PUSH2 0x35A PUSH2 0xACE CALLDATASIZE PUSH1 0x4 PUSH2 0x4A60 JUMP JUMPDEST PUSH2 0x2AD7 JUMP JUMPDEST CALLVALUE DUP1 ISZERO PUSH2 0xADF JUMPI PUSH1 0x0 DUP1 REVERT JUMPDEST POP PUSH2 0x387 PUSH2 0xAEE CALLDATASIZE PUSH1 0x4 PUSH2 0x4B73 JUMP JUMPDEST PUSH2 0x2AF5 JUMP JUMPDEST PUSH1 0x71 DUP1 SLOAD PUSH1 0x40 DUP1 MLOAD PUSH1 0x20 PUSH1 0x1F PUSH1 0x2 PUSH1 0x0 NOT PUSH2 0x100 PUSH1 0x1 DUP9 AND ISZERO MUL ADD SWAP1 SWAP6 AND SWAP5 SWAP1 SWAP5 DIV SWAP4 DUP5 ADD DUP2 SWAP1 DIV DUP2 MUL DUP3 ADD DUP2 ADD SWAP1 SWAP3 MSTORE DUP3 DUP2 MSTORE PUSH1 0x60 SWAP4 SWAP1 SWAP3 SWAP1 SWAP2 DUP4 ADD DUP3 DUP3 DUP1 ISZERO PUSH2 0xB7F JUMPI DUP1 PUSH1 0x1F LT PUSH2 0xB54 JUMPI PUSH2 0x100 DUP1 DUP4 SLOAD DIV MUL DUP4 MSTORE SWAP2 PUSH1 0x20 ADD SWAP2 PUSH2 0xB7F JUMP JUMPDEST DUP3 ADD SWAP2 SWAP1 PUSH1 0x0 MSTORE PUSH1 0x20 PUSH1 0x0 KECCAK256 SWAP1 JUMPDEST DUP2 SLOAD DUP2 MSTORE SWAP1 PUSH1 0x1 ADD SWAP1 PUSH1 0x20 ADD DUP1 DUP4 GT PUSH2 0xB62 JUMPI DUP3 SWAP1 SUB PUSH1 0x1F AND DUP3 ADD SWAP2 JUMPDEST POP POP POP POP POP SWAP1 POP SWAP1 JUMP JUMPDEST PUSH1 0x0 PUSH2 0xB9D PUSH2 0xB96 PUSH2 0x2B39 JUMP JUMPDEST DUP5 DUP5 PUSH2 0x2B3D JUMP JUMPDEST POP PUSH1 0x1 JUMPDEST SWAP3 SWAP2 POP POP JUMP JUMPDEST PUSH2 0xBAF PUSH2 0x2B39 JUMP JUMPDEST PUSH1 0x1 PUSH1 0x1 PUSH1 0xA0 SHL SUB AND PUSH2 0xBC0 PUSH2 0x1FDA JUMP JUMPDEST PUSH1 0x1 PUSH1 0x1 PUSH1 0xA0 SHL SUB AND EQ PUSH2 0xBEF JUMPI PUSH1 0x40 MLOAD PUSH3 0x461BCD PUSH1 0xE5 SHL DUP2 MSTORE PUSH1 0x4 ADD PUSH2 0xBE6 SWAP1 PUSH2 0x51C1 JUMP JUMPDEST PUSH1 0x40 MLOAD DUP1 SWAP2 SUB SWAP1 REVERT JUMPDEST PUSH1 0x1 PUSH1 0x1 PUSH1 0xA0 SHL SUB DUP2 AND PUSH2 0xC15 JUMPI PUSH1 0x40 MLOAD PUSH3 0x461BCD PUSH1 0xE5 SHL DUP2 MSTORE PUSH1 0x4 ADD PUSH2 0xBE6 SWAP1 PUSH2 0x51F6 JUMP JUMPDEST PUSH1 0x1 PUSH1 0x1 PUSH1 0xA0 SHL SUB DUP2 AND PUSH1 0x0 SWAP1 DUP2 MSTORE PUSH1 0x6B PUSH1 0x20 MSTORE PUSH1 0x40 SWAP1 KECCAK256 SLOAD PUSH2 0xC4A JUMPI PUSH1 0x40 MLOAD PUSH3 0x461BCD PUSH1 0xE5 SHL DUP2 MSTORE PUSH1 0x4 ADD PUSH2 0xBE6 SWAP1 PUSH2 0x5386 JUMP JUMPDEST PUSH1 0x1 PUSH1 0x1 PUSH1 0xA0 SHL SUB AND PUSH1 0x0 SWAP1 DUP2 MSTORE PUSH1 0x6B PUSH1 0x20 MSTORE PUSH1 0x40 DUP2 KECCAK256 SSTORE JUMP JUMPDEST PUSH1 0x89 SLOAD SWAP1 JUMP JUMPDEST PUSH1 0x6F SLOAD SWAP1 JUMP JUMPDEST PUSH2 0xC78 PUSH2 0x2B39 JUMP JUMPDEST PUSH1 0x1 PUSH1 0x1 PUSH1 0xA0 SHL SUB AND PUSH2 0xC89 PUSH2 0x1FDA JUMP JUMPDEST PUSH1 0x1 PUSH1 0x1 PUSH1 0xA0 SHL SUB AND EQ PUSH2 0xCAF JUMPI PUSH1 0x40 MLOAD PUSH3 0x461BCD PUSH1 0xE5 SHL DUP2 MSTORE PUSH1 0x4 ADD PUSH2 0xBE6 SWAP1 PUSH2 0x51C1 JUMP JUMPDEST PUSH1 0x8F DUP1 SLOAD PUSH1 0xFF PUSH1 0xA8 SHL NOT AND SWAP1 SSTORE PUSH1 0x95 DUP1 SLOAD PUSH2 0xFF00 NOT AND PUSH2 0x100 OR SWAP1 SSTORE JUMP JUMPDEST PUSH2 0xCD5 PUSH2 0x48FC JUMP JUMPDEST PUSH1 0x89 SLOAD DUP3 SWAP1 DUP2 LT PUSH2 0xCF8 JUMPI PUSH1 0x40 MLOAD PUSH3 0x461BCD PUSH1 0xE5 SHL DUP2 MSTORE PUSH1 0x4 ADD PUSH2 0xBE6 SWAP1 PUSH2 0x5113 JUMP JUMPDEST PUSH1 0x89 DUP4 DUP2 SLOAD DUP2 LT PUSH2 0xD05 JUMPI INVALID JUMPDEST PUSH1 0x0 SWAP2 DUP3 MSTORE PUSH1 0x20 SWAP2 DUP3 SWAP1 KECCAK256 PUSH1 0x40 DUP1 MLOAD PUSH1 0xE0 DUP2 ADD DUP3 MSTORE PUSH1 0x7 SWAP1 SWAP4 MUL SWAP1 SWAP2 ADD DUP1 SLOAD DUP4 MSTORE PUSH1 0x1 DUP2 ADD SLOAD SWAP4 DUP4 ADD SWAP4 SWAP1 SWAP4 MSTORE PUSH1 0x2 DUP4 ADD SLOAD SWAP1 DUP3 ADD MSTORE PUSH1 0x3 DUP3 ADD SLOAD PUSH1 0x60 DUP3 ADD MSTORE PUSH1 0x4 DUP3 ADD SLOAD PUSH1 0x80 DUP3 ADD MSTORE PUSH1 0x5 DUP3 ADD SLOAD PUSH1 0x1 PUSH1 0x1 PUSH1 0xA0 SHL SUB SWAP1 DUP2 AND PUSH1 0xA0 DUP4 ADD MSTORE PUSH1 0x6 SWAP1 SWAP3 ADD SLOAD SWAP1 SWAP2 AND PUSH1 0xC0 DUP3 ADD MSTORE SWAP2 POP POP SWAP2 SWAP1 POP JUMP JUMPDEST PUSH1 0x8A SLOAD PUSH1 0x1 PUSH1 0x1 PUSH1 0xA0 SHL SUB AND DUP2 JUMP JUMPDEST PUSH1 0x6D SLOAD SWAP1 JUMP JUMPDEST PUSH2 0xD97 PUSH2 0x2B39 JUMP JUMPDEST PUSH1 0x1 PUSH1 0x1 PUSH1 0xA0 SHL SUB AND PUSH2 0xDA8 PUSH2 0x1FDA JUMP JUMPDEST PUSH1 0x1 PUSH1 0x1 PUSH1 0xA0 SHL SUB AND EQ PUSH2 0xDCE JUMPI PUSH1 0x40 MLOAD PUSH3 0x461BCD PUSH1 0xE5 SHL DUP2 MSTORE PUSH1 0x4 ADD PUSH2 0xBE6 SWAP1 PUSH2 0x51C1 JUMP JUMPDEST PUSH1 0x89 SLOAD DUP2 SWAP1 DUP2 LT PUSH2 0xDF1 JUMPI PUSH1 0x40 MLOAD PUSH3 0x461BCD PUSH1 0xE5 SHL DUP2 MSTORE PUSH1 0x4 ADD PUSH2 0xBE6 SWAP1 PUSH2 0x5113 JUMP JUMPDEST DUP3 PUSH1 0x40 MLOAD DUP1 PUSH1 0x60 ADD PUSH1 0x40 MSTORE DUP1 PUSH1 0x2A DUP2 MSTORE PUSH1 0x20 ADD PUSH2 0x56C0 PUSH1 0x2A SWAP2 CODECOPY PUSH1 0x1 PUSH1 0x1 PUSH1 0xA0 SHL SUB DUP3 AND PUSH1 0x0 SWAP1 DUP2 MSTORE PUSH1 0x6A PUSH1 0x20 MSTORE PUSH1 0x40 SWAP1 KECCAK256 SLOAD DUP2 SWAP1 PUSH1 0xFF AND ISZERO PUSH2 0xE47 JUMPI PUSH1 0x40 MLOAD PUSH3 0x461BCD PUSH1 0xE5 SHL DUP2 MSTORE PUSH1 0x4 ADD PUSH2 0xBE6 SWAP2 SWAP1 PUSH2 0x4E0B JUMP JUMPDEST POP PUSH1 0x1 PUSH1 0x1 PUSH1 0xA0 SHL SUB DUP6 AND PUSH2 0xE6E JUMPI PUSH1 0x40 MLOAD PUSH3 0x461BCD PUSH1 0xE5 SHL DUP2 MSTORE PUSH1 0x4 ADD PUSH2 0xBE6 SWAP1 PUSH2 0x51F6 JUMP JUMPDEST POP POP POP PUSH1 0x1 PUSH1 0x1 PUSH1 0xA0 SHL SUB SWAP1 SWAP2 AND PUSH1 0x0 SWAP1 DUP2 MSTORE PUSH1 0x6B PUSH1 0x20 MSTORE PUSH1 0x40 SWAP1 KECCAK256 SSTORE JUMP JUMPDEST PUSH1 0x0 PUSH2 0xE9A DUP5 DUP5 DUP5 PUSH2 0x2CA3 JUMP JUMPDEST PUSH2 0xF0A DUP5 PUSH2 0xEA6 PUSH2 0x2B39 JUMP JUMPDEST PUSH2 0xF05 DUP6 PUSH1 0x40 MLOAD DUP1 PUSH1 0x60 ADD PUSH1 0x40 MSTORE DUP1 PUSH1 0x28 DUP2 MSTORE PUSH1 0x20 ADD PUSH2 0x55C1 PUSH1 0x28 SWAP2 CODECOPY PUSH1 0x1 PUSH1 0x1 PUSH1 0xA0 SHL SUB DUP11 AND PUSH1 0x0 SWAP1 DUP2 MSTORE PUSH1 0x67 PUSH1 0x20 MSTORE PUSH1 0x40 DUP2 KECCAK256 SWAP1 PUSH2 0xEE4 PUSH2 0x2B39 JUMP JUMPDEST PUSH1 0x1 PUSH1 0x1 PUSH1 0xA0 SHL SUB AND DUP2 MSTORE PUSH1 0x20 DUP2 ADD SWAP2 SWAP1 SWAP2 MSTORE PUSH1 0x40 ADD PUSH1 0x0 KECCAK256 SLOAD SWAP2 SWAP1 PUSH2 0x30B6 JUMP JUMPDEST PUSH2 0x2B3D JUMP JUMPDEST POP PUSH1 0x1 JUMPDEST SWAP4 SWAP3 POP POP POP JUMP JUMPDEST PUSH1 0x0 PUSH1 0x6E SLOAD DUP3 GT ISZERO PUSH2 0xF39 JUMPI PUSH1 0x40 MLOAD PUSH3 0x461BCD PUSH1 0xE5 SHL DUP2 MSTORE PUSH1 0x4 ADD PUSH2 0xBE6 SWAP1 PUSH2 0x4EE7 JUMP JUMPDEST PUSH1 0x0 PUSH2 0xF43 PUSH2 0x30E2 JUMP JUMPDEST SWAP1 POP PUSH2 0xF4F DUP4 DUP3 PUSH2 0x3105 JUMP JUMPDEST SWAP2 POP POP JUMPDEST SWAP2 SWAP1 POP JUMP JUMPDEST PUSH2 0xF60 PUSH2 0x48FC JUMP JUMPDEST PUSH1 0x1 PUSH1 0x1 PUSH1 0xA0 SHL SUB DUP3 AND PUSH1 0x0 SWAP1 DUP2 MSTORE PUSH1 0x6B PUSH1 0x20 MSTORE PUSH1 0x40 SWAP1 KECCAK256 SLOAD PUSH1 0x89 DUP1 SLOAD SWAP1 SWAP2 SWAP1 DUP2 LT PUSH2 0xF88 JUMPI INVALID JUMPDEST PUSH1 0x0 SWAP2 DUP3 MSTORE PUSH1 0x20 SWAP2 DUP3 SWAP1 KECCAK256 PUSH1 0x40 DUP1 MLOAD PUSH1 0xE0 DUP2 ADD DUP3 MSTORE PUSH1 0x7 SWAP1 SWAP4 MUL SWAP1 SWAP2 ADD DUP1 SLOAD DUP4 MSTORE PUSH1 0x1 DUP2 ADD SLOAD SWAP4 DUP4 ADD SWAP4 SWAP1 SWAP4 MSTORE PUSH1 0x2 DUP4 ADD SLOAD SWAP1 DUP3 ADD MSTORE PUSH1 0x3 DUP3 ADD SLOAD PUSH1 0x60 DUP3 ADD MSTORE PUSH1 0x4 DUP3 ADD SLOAD PUSH1 0x80 DUP3 ADD MSTORE PUSH1 0x5 DUP3 ADD SLOAD PUSH1 0x1 PUSH1 0x1 PUSH1 0xA0 SHL SUB SWAP1 DUP2 AND PUSH1 0xA0 DUP4 ADD MSTORE PUSH1 0x6 SWAP1 SWAP3 ADD SLOAD SWAP1 SWAP2 AND PUSH1 0xC0 DUP3 ADD MSTORE SWAP1 POP SWAP2 SWAP1 POP JUMP JUMPDEST PUSH2 0x1004 PUSH2 0x2B39 JUMP JUMPDEST PUSH1 0x1 PUSH1 0x1 PUSH1 0xA0 SHL SUB AND PUSH2 0x1015 PUSH2 0x1FDA JUMP JUMPDEST PUSH1 0x1 PUSH1 0x1 PUSH1 0xA0 SHL SUB AND EQ PUSH2 0x103B JUMPI PUSH1 0x40 MLOAD PUSH3 0x461BCD PUSH1 0xE5 SHL DUP2 MSTORE PUSH1 0x4 ADD PUSH2 0xBE6 SWAP1 PUSH2 0x51C1 JUMP JUMPDEST PUSH1 0x89 SLOAD DUP3 SWAP1 DUP2 LT PUSH2 0x105E JUMPI PUSH1 0x40 MLOAD PUSH3 0x461BCD PUSH1 0xE5 SHL DUP2 MSTORE PUSH1 0x4 ADD PUSH2 0xBE6 SWAP1 PUSH2 0x5113 JUMP JUMPDEST PUSH2 0x1066 PUSH2 0x48FC JUMP JUMPDEST PUSH1 0x89 DUP5 DUP2 SLOAD DUP2 LT PUSH2 0x1073 JUMPI INVALID JUMPDEST PUSH1 0x0 SWAP2 DUP3 MSTORE PUSH1 0x20 SWAP2 DUP3 SWAP1 KECCAK256 PUSH1 0x40 DUP1 MLOAD PUSH1 0xE0 DUP2 ADD DUP3 MSTORE PUSH1 0x7 SWAP1 SWAP4 MUL SWAP1 SWAP2 ADD DUP1 SLOAD DUP4 MSTORE PUSH1 0x1 DUP2 ADD SLOAD SWAP4 DUP4 ADD SWAP4 SWAP1 SWAP4 MSTORE PUSH1 0x2 DUP4 ADD SLOAD SWAP1 DUP3 ADD DUP2 SWAP1 MSTORE PUSH1 0x3 DUP4 ADD SLOAD PUSH1 0x60 DUP4 ADD MSTORE PUSH1 0x4 DUP4 ADD SLOAD PUSH1 0x80 DUP4 ADD MSTORE PUSH1 0x5 DUP4 ADD SLOAD PUSH1 0x1 PUSH1 0x1 PUSH1 0xA0 SHL SUB SWAP1 DUP2 AND PUSH1 0xA0 DUP5 ADD MSTORE PUSH1 0x6 SWAP1 SWAP4 ADD SLOAD SWAP1 SWAP3 AND PUSH1 0xC0 DUP3 ADD MSTORE SWAP2 POP PUSH2 0x10F0 SWAP1 DUP3 SWAP1 DUP6 PUSH2 0x3137 JUMP JUMPDEST DUP3 PUSH1 0x89 DUP6 DUP2 SLOAD DUP2 LT PUSH2 0x10FE JUMPI INVALID JUMPDEST PUSH1 0x0 SWAP2 DUP3 MSTORE PUSH1 0x20 SWAP1 SWAP2 KECCAK256 PUSH1 0x2 PUSH1 0x7 SWAP1 SWAP3 MUL ADD ADD SSTORE DUP4 PUSH2 0x111D JUMPI PUSH1 0x76 DUP4 SWAP1 SSTORE JUMPDEST POP POP POP POP JUMP JUMPDEST PUSH1 0x73 SLOAD PUSH1 0xFF AND SWAP1 JUMP JUMPDEST PUSH2 0x1134 PUSH2 0x2B39 JUMP JUMPDEST PUSH1 0x1 PUSH1 0x1 PUSH1 0xA0 SHL SUB AND PUSH2 0x1145 PUSH2 0x1FDA JUMP JUMPDEST PUSH1 0x1 PUSH1 0x1 PUSH1 0xA0 SHL SUB AND EQ PUSH2 0x116B JUMPI PUSH1 0x40 MLOAD PUSH3 0x461BCD PUSH1 0xE5 SHL DUP2 MSTORE PUSH1 0x4 ADD PUSH2 0xBE6 SWAP1 PUSH2 0x51C1 JUMP JUMPDEST PUSH1 0x95 DUP1 SLOAD PUSH2 0xFF00 NOT AND PUSH2 0x100 DUP4 ISZERO ISZERO MUL OR SWAP1 SSTORE PUSH1 0x40 MLOAD PUSH31 0xF279EA7539CC7CC5311702E24242FE836F7F94E8E329BE09530ADE3DD254C3 SWAP1 PUSH2 0x11AD SWAP1 DUP4 SWAP1 PUSH2 0x4DCB JUMP JUMPDEST PUSH1 0x40 MLOAD DUP1 SWAP2 SUB SWAP1 LOG1 POP JUMP JUMPDEST PUSH2 0x11C0 PUSH2 0x2B39 JUMP JUMPDEST PUSH1 0x1 PUSH1 0x1 PUSH1 0xA0 SHL SUB AND PUSH2 0x11D1 PUSH2 0x1FDA JUMP JUMPDEST PUSH1 0x1 PUSH1 0x1 PUSH1 0xA0 SHL SUB AND EQ PUSH2 0x11F7 JUMPI PUSH1 0x40 MLOAD PUSH3 0x461BCD PUSH1 0xE5 SHL DUP2 MSTORE PUSH1 0x4 ADD PUSH2 0xBE6 SWAP1 PUSH2 0x51C1 JUMP JUMPDEST PUSH1 0x0 JUMPDEST PUSH1 0x6C SLOAD DUP2 LT ISZERO PUSH2 0x1343 JUMPI DUP2 PUSH1 0x1 PUSH1 0x1 PUSH1 0xA0 SHL SUB AND PUSH1 0x6C DUP3 DUP2 SLOAD DUP2 LT PUSH2 0x121B JUMPI INVALID JUMPDEST PUSH1 0x0 SWAP2 DUP3 MSTORE PUSH1 0x20 SWAP1 SWAP2 KECCAK256 ADD SLOAD PUSH1 0x1 PUSH1 0x1 PUSH1 0xA0 SHL SUB AND EQ ISZERO PUSH2 0x133B JUMPI PUSH1 0x6C DUP1 SLOAD PUSH1 0x0 NOT DUP2 ADD SWAP1 DUP2 LT PUSH2 0x1248 JUMPI INVALID JUMPDEST PUSH1 0x0 SWAP2 DUP3 MSTORE PUSH1 0x20 SWAP1 SWAP2 KECCAK256 ADD SLOAD PUSH1 0x6C DUP1 SLOAD PUSH1 0x1 PUSH1 0x1 PUSH1 0xA0 SHL SUB SWAP1 SWAP3 AND SWAP2 DUP4 SWAP1 DUP2 LT PUSH2 0x126E JUMPI INVALID JUMPDEST PUSH1 0x0 SWAP2 DUP3 MSTORE PUSH1 0x20 DUP1 DUP4 KECCAK256 SWAP2 SWAP1 SWAP2 ADD DUP1 SLOAD PUSH1 0x1 PUSH1 0x1 PUSH1 0xA0 SHL SUB NOT AND PUSH1 0x1 PUSH1 0x1 PUSH1 0xA0 SHL SUB SWAP5 DUP6 AND OR SWAP1 SSTORE SWAP2 DUP5 AND DUP2 MSTORE PUSH1 0x66 SWAP1 SWAP2 MSTORE PUSH1 0x40 SWAP1 KECCAK256 SLOAD PUSH1 0x97 SLOAD PUSH2 0x12B1 SWAP2 PUSH2 0x31A4 JUMP JUMPDEST PUSH1 0x97 SSTORE PUSH1 0x1 PUSH1 0x1 PUSH1 0xA0 SHL SUB DUP3 AND PUSH1 0x0 SWAP1 DUP2 MSTORE PUSH1 0x65 PUSH1 0x20 MSTORE PUSH1 0x40 SWAP1 KECCAK256 SLOAD PUSH1 0x96 SLOAD PUSH2 0x12D9 SWAP2 PUSH2 0x31A4 JUMP JUMPDEST PUSH1 0x96 SSTORE PUSH1 0x1 PUSH1 0x1 PUSH1 0xA0 SHL SUB DUP3 AND PUSH1 0x0 SWAP1 DUP2 MSTORE PUSH1 0x66 PUSH1 0x20 SWAP1 DUP2 MSTORE PUSH1 0x40 DUP1 DUP4 KECCAK256 DUP4 SWAP1 SSTORE PUSH1 0x69 SWAP1 SWAP2 MSTORE SWAP1 KECCAK256 DUP1 SLOAD PUSH1 0xFF NOT AND SWAP1 SSTORE PUSH1 0x6C DUP1 SLOAD DUP1 PUSH2 0x1314 JUMPI INVALID JUMPDEST PUSH1 0x0 DUP3 DUP2 MSTORE PUSH1 0x20 SWAP1 KECCAK256 DUP2 ADD PUSH1 0x0 NOT SWAP1 DUP2 ADD DUP1 SLOAD PUSH1 0x1 PUSH1 0x1 PUSH1 0xA0 SHL SUB NOT AND SWAP1 SSTORE ADD SWAP1 SSTORE PUSH2 0x1343 JUMP JUMPDEST PUSH1 0x1 ADD PUSH2 0x11FA JUMP JUMPDEST POP POP JUMP JUMPDEST PUSH1 0x0 PUSH2 0xB9D PUSH2 0x1354 PUSH2 0x2B39 JUMP JUMPDEST DUP5 PUSH2 0xF05 DUP6 PUSH1 0x67 PUSH1 0x0 PUSH2 0x1365 PUSH2 0x2B39 JUMP JUMPDEST PUSH1 0x1 PUSH1 0x1 PUSH1 0xA0 SHL SUB SWAP1 DUP2 AND DUP3 MSTORE PUSH1 0x20 DUP1 DUP4 ADD SWAP4 SWAP1 SWAP4 MSTORE PUSH1 0x40 SWAP2 DUP3 ADD PUSH1 0x0 SWAP1 DUP2 KECCAK256 SWAP2 DUP13 AND DUP2 MSTORE SWAP3 MSTORE SWAP1 KECCAK256 SLOAD SWAP1 PUSH2 0x31CC JUMP JUMPDEST PUSH2 0x139D PUSH2 0x2B39 JUMP JUMPDEST PUSH1 0x1 PUSH1 0x1 PUSH1 0xA0 SHL SUB AND PUSH2 0x13AE PUSH2 0x1FDA JUMP JUMPDEST PUSH1 0x1 PUSH1 0x1 PUSH1 0xA0 SHL SUB AND EQ PUSH2 0x13D4 JUMPI PUSH1 0x40 MLOAD PUSH3 0x461BCD PUSH1 0xE5 SHL DUP2 MSTORE PUSH1 0x4 ADD PUSH2 0xBE6 SWAP1 PUSH2 0x51C1 JUMP JUMPDEST PUSH1 0x89 SLOAD DUP3 SWAP1 DUP2 LT PUSH2 0x13F7 JUMPI PUSH1 0x40 MLOAD PUSH3 0x461BCD PUSH1 0xE5 SHL DUP2 MSTORE PUSH1 0x4 ADD PUSH2 0xBE6 SWAP1 PUSH2 0x5113 JUMP JUMPDEST PUSH2 0x13FF PUSH2 0x48FC JUMP JUMPDEST PUSH1 0x89 DUP5 DUP2 SLOAD DUP2 LT PUSH2 0x140C JUMPI INVALID JUMPDEST PUSH1 0x0 SWAP2 DUP3 MSTORE PUSH1 0x20 SWAP2 DUP3 SWAP1 KECCAK256 PUSH1 0x40 DUP1 MLOAD PUSH1 0xE0 DUP2 ADD DUP3 MSTORE PUSH1 0x7 SWAP1 SWAP4 MUL SWAP1 SWAP2 ADD DUP1 SLOAD DUP1 DUP5 MSTORE PUSH1 0x1 DUP3 ADD SLOAD SWAP5 DUP5 ADD SWAP5 SWAP1 SWAP5 MSTORE PUSH1 0x2 DUP2 ADD SLOAD SWAP2 DUP4 ADD SWAP2 SWAP1 SWAP2 MSTORE PUSH1 0x3 DUP2 ADD SLOAD PUSH1 0x60 DUP4 ADD MSTORE PUSH1 0x4 DUP2 ADD SLOAD PUSH1 0x80 DUP4 ADD MSTORE PUSH1 0x5 DUP2 ADD SLOAD PUSH1 0x1 PUSH1 0x1 PUSH1 0xA0 SHL SUB SWAP1 DUP2 AND PUSH1 0xA0 DUP5 ADD MSTORE PUSH1 0x6 SWAP1 SWAP2 ADD SLOAD AND PUSH1 0xC0 DUP3 ADD MSTORE SWAP2 POP PUSH2 0x1489 SWAP1 DUP3 SWAP1 DUP6 PUSH2 0x3137 JUMP JUMPDEST DUP3 PUSH1 0x89 DUP6 DUP2 SLOAD DUP2 LT PUSH2 0x1497 JUMPI INVALID JUMPDEST PUSH1 0x0 SWAP2 DUP3 MSTORE PUSH1 0x20 SWAP1 SWAP2 KECCAK256 PUSH1 0x7 SWAP1 SWAP2 MUL ADD SSTORE DUP4 PUSH2 0x111D JUMPI POP POP PUSH1 0x74 SSTORE POP JUMP JUMPDEST PUSH1 0x1 PUSH1 0x1 PUSH1 0xA0 SHL SUB AND PUSH1 0x0 SWAP1 DUP2 MSTORE PUSH1 0x6B PUSH1 0x20 MSTORE PUSH1 0x40 SWAP1 KECCAK256 SLOAD ISZERO ISZERO SWAP1 JUMP JUMPDEST PUSH2 0x14DA PUSH2 0x2B39 JUMP JUMPDEST PUSH1 0x1 PUSH1 0x1 PUSH1 0xA0 SHL SUB AND PUSH2 0x14EB PUSH2 0x1FDA JUMP JUMPDEST PUSH1 0x1 PUSH1 0x1 PUSH1 0xA0 SHL SUB AND EQ PUSH2 0x1511 JUMPI PUSH1 0x40 MLOAD PUSH3 0x461BCD PUSH1 0xE5 SHL DUP2 MSTORE PUSH1 0x4 ADD PUSH2 0xBE6 SWAP1 PUSH2 0x51C1 JUMP JUMPDEST PUSH1 0x8A DUP1 SLOAD PUSH1 0x1 PUSH1 0x1 PUSH1 0xA0 SHL SUB DUP1 DUP6 AND PUSH1 0x1 PUSH1 0x1 PUSH1 0xA0 SHL SUB NOT SWAP3 DUP4 AND OR SWAP3 DUP4 SWAP1 SSTORE PUSH1 0x8B DUP1 SLOAD DUP6 DUP4 AND SWAP4 AND SWAP3 SWAP1 SWAP3 OR SWAP1 SWAP2 SSTORE PUSH1 0x40 DUP1 MLOAD PUSH4 0x15AB88C9 PUSH1 0xE3 SHL DUP2 MSTORE SWAP1 MLOAD SWAP3 SWAP1 SWAP2 AND SWAP2 PUSH4 0xAD5C4648 SWAP2 PUSH1 0x4 DUP1 DUP3 ADD SWAP3 PUSH1 0x20 SWAP3 SWAP1 SWAP2 SWAP1 DUP3 SWAP1 SUB ADD DUP2 DUP7 DUP1 EXTCODESIZE ISZERO DUP1 ISZERO PUSH2 0x157C JUMPI PUSH1 0x0 DUP1 REVERT JUMPDEST POP GAS STATICCALL ISZERO DUP1 ISZERO PUSH2 0x1590 JUMPI RETURNDATASIZE PUSH1 0x0 DUP1 RETURNDATACOPY RETURNDATASIZE PUSH1 0x0 REVERT JUMPDEST POP POP POP POP PUSH1 0x40 MLOAD RETURNDATASIZE PUSH1 0x1F NOT PUSH1 0x1F DUP3 ADD AND DUP3 ADD DUP1 PUSH1 0x40 MSTORE POP DUP2 ADD SWAP1 PUSH2 0x15B4 SWAP2 SWAP1 PUSH2 0x4A7C JUMP JUMPDEST PUSH1 0x8C DUP1 SLOAD PUSH1 0x1 PUSH1 0x1 PUSH1 0xA0 SHL SUB NOT AND PUSH1 0x1 PUSH1 0x1 PUSH1 0xA0 SHL SUB SWAP3 SWAP1 SWAP3 AND SWAP2 SWAP1 SWAP2 OR SWAP1 SSTORE POP POP JUMP JUMPDEST PUSH2 0x15E0 PUSH2 0x2B39 JUMP JUMPDEST PUSH1 0x1 PUSH1 0x1 PUSH1 0xA0 SHL SUB AND PUSH2 0x15F1 PUSH2 0x1FDA JUMP JUMPDEST PUSH1 0x1 PUSH1 0x1 PUSH1 0xA0 SHL SUB AND EQ PUSH2 0x1617 JUMPI PUSH1 0x40 MLOAD PUSH3 0x461BCD PUSH1 0xE5 SHL DUP2 MSTORE PUSH1 0x4 ADD PUSH2 0xBE6 SWAP1 PUSH2 0x51C1 JUMP JUMPDEST PUSH1 0x1 PUSH1 0x1 PUSH1 0xA0 SHL SUB AND PUSH1 0x0 SWAP1 DUP2 MSTORE PUSH1 0x68 PUSH1 0x20 MSTORE PUSH1 0x40 SWAP1 KECCAK256 DUP1 SLOAD PUSH1 0xFF NOT AND PUSH1 0x1 OR SWAP1 SSTORE JUMP JUMPDEST PUSH1 0x0 PUSH2 0xF0E DUP4 PUSH1 0x0 DUP5 PUSH2 0x2389 JUMP JUMPDEST PUSH2 0x1651 PUSH2 0x2B39 JUMP JUMPDEST PUSH1 0x1 PUSH1 0x1 PUSH1 0xA0 SHL SUB AND PUSH2 0x1662 PUSH2 0x1FDA JUMP JUMPDEST PUSH1 0x1 PUSH1 0x1 PUSH1 0xA0 SHL SUB AND EQ PUSH2 0x1688 JUMPI PUSH1 0x40 MLOAD PUSH3 0x461BCD PUSH1 0xE5 SHL DUP2 MSTORE PUSH1 0x4 ADD PUSH2 0xBE6 SWAP1 PUSH2 0x51C1 JUMP JUMPDEST PUSH1 0x40 MLOAD CALLER SWAP1 DUP3 ISZERO PUSH2 0x8FC MUL SWAP1 DUP4 SWAP1 PUSH1 0x0 DUP2 DUP2 DUP2 DUP6 DUP9 DUP9 CALL SWAP4 POP POP POP POP ISZERO DUP1 ISZERO PUSH2 0x1343 JUMPI RETURNDATASIZE PUSH1 0x0 DUP1 RETURNDATACOPY RETURNDATASIZE PUSH1 0x0 REVERT JUMPDEST PUSH2 0x16BD PUSH2 0x2B39 JUMP JUMPDEST PUSH1 0x1 PUSH1 0x1 PUSH1 0xA0 SHL SUB AND PUSH2 0x16CE PUSH2 0x1FDA JUMP JUMPDEST PUSH1 0x1 PUSH1 0x1 PUSH1 0xA0 SHL SUB AND EQ PUSH2 0x16F4 JUMPI PUSH1 0x40 MLOAD PUSH3 0x461BCD PUSH1 0xE5 SHL DUP2 MSTORE PUSH1 0x4 ADD PUSH2 0xBE6 SWAP1 PUSH2 0x51C1 JUMP JUMPDEST PUSH1 0x8D DUP1 SLOAD PUSH1 0x1 PUSH1 0x1 PUSH1 0xA0 SHL SUB NOT AND PUSH1 0x1 PUSH1 0x1 PUSH1 0xA0 SHL SUB SWAP3 SWAP1 SWAP3 AND SWAP2 SWAP1 SWAP2 OR SWAP1 SSTORE JUMP JUMPDEST PUSH1 0x8B SLOAD PUSH1 0x1 PUSH1 0x1 PUSH1 0xA0 SHL SUB AND DUP2 JUMP JUMPDEST PUSH1 0x8F SLOAD PUSH1 0x1 PUSH1 0xA8 SHL SWAP1 DIV PUSH1 0xFF AND DUP2 JUMP JUMPDEST PUSH2 0x173D PUSH2 0x2B39 JUMP JUMPDEST PUSH1 0x1 PUSH1 0x1 PUSH1 0xA0 SHL SUB AND PUSH2 0x174E PUSH2 0x1FDA JUMP JUMPDEST PUSH1 0x1 PUSH1 0x1 PUSH1 0xA0 SHL SUB AND EQ PUSH2 0x1774 JUMPI PUSH1 0x40 MLOAD PUSH3 0x461BCD PUSH1 0xE5 SHL DUP2 MSTORE PUSH1 0x4 ADD PUSH2 0xBE6 SWAP1 PUSH2 0x51C1 JUMP JUMPDEST PUSH2 0x1783 DUP8 DUP8 DUP8 DUP8 DUP8 DUP8 DUP8 PUSH2 0x31F1 JUMP JUMPDEST POP POP POP POP POP POP POP POP JUMP JUMPDEST PUSH2 0x1795 PUSH2 0x2B39 JUMP JUMPDEST PUSH1 0x1 PUSH1 0x1 PUSH1 0xA0 SHL SUB AND PUSH2 0x17A6 PUSH2 0x1FDA JUMP JUMPDEST PUSH1 0x1 PUSH1 0x1 PUSH1 0xA0 SHL SUB AND EQ PUSH2 0x17CC JUMPI PUSH1 0x40 MLOAD PUSH3 0x461BCD PUSH1 0xE5 SHL DUP2 MSTORE PUSH1 0x4 ADD PUSH2 0xBE6 SWAP1 PUSH2 0x51C1 JUMP JUMPDEST PUSH1 0x1 PUSH1 0x1 PUSH1 0xA0 SHL SUB DUP2 AND PUSH1 0x0 SWAP1 DUP2 MSTORE PUSH1 0x65 PUSH1 0x20 MSTORE PUSH1 0x40 SWAP1 KECCAK256 SLOAD ISZERO PUSH2 0x185F JUMPI PUSH1 0x1 PUSH1 0x1 PUSH1 0xA0 SHL SUB DUP2 AND PUSH1 0x0 SWAP1 DUP2 MSTORE PUSH1 0x65 PUSH1 0x20 MSTORE PUSH1 0x40 SWAP1 KECCAK256 SLOAD PUSH2 0x180C SWAP1 PUSH2 0xF15 JUMP JUMPDEST PUSH1 0x1 PUSH1 0x1 PUSH1 0xA0 SHL SUB DUP3 AND PUSH1 0x0 SWAP1 DUP2 MSTORE PUSH1 0x66 PUSH1 0x20 MSTORE PUSH1 0x40 SWAP1 KECCAK256 DUP2 SWAP1 SSTORE PUSH1 0x97 SLOAD PUSH2 0x1833 SWAP2 PUSH2 0x31CC JUMP JUMPDEST PUSH1 0x97 SSTORE PUSH1 0x1 PUSH1 0x1 PUSH1 0xA0 SHL SUB DUP2 AND PUSH1 0x0 SWAP1 DUP2 MSTORE PUSH1 0x65 PUSH1 0x20 MSTORE PUSH1 0x40 SWAP1 KECCAK256 SLOAD PUSH1 0x96 SLOAD PUSH2 0x185B SWAP2 PUSH2 0x31CC JUMP JUMPDEST PUSH1 0x96 SSTORE JUMPDEST PUSH1 0x1 PUSH1 0x1 PUSH1 0xA0 SHL SUB AND PUSH1 0x0 DUP2 DUP2 MSTORE PUSH1 0x69 PUSH1 0x20 MSTORE PUSH1 0x40 DUP2 KECCAK256 DUP1 SLOAD PUSH1 0xFF NOT AND PUSH1 0x1 SWAP1 DUP2 OR SWAP1 SWAP2 SSTORE PUSH1 0x6C DUP1 SLOAD SWAP2 DUP3 ADD DUP2 SSTORE SWAP1 SWAP2 MSTORE PUSH32 0x2B4A51AB505FC96A0952EFDA2BA61BCD3078D4C02C39A186EC16F21883FBE016 ADD DUP1 SLOAD PUSH1 0x1 PUSH1 0x1 PUSH1 0xA0 SHL SUB NOT AND SWAP1 SWAP2 OR SWAP1 SSTORE JUMP JUMPDEST PUSH1 0x1 PUSH1 0x1 PUSH1 0xA0 SHL SUB AND PUSH1 0x0 SWAP1 DUP2 MSTORE PUSH1 0x68 PUSH1 0x20 MSTORE PUSH1 0x40 SWAP1 KECCAK256 SLOAD PUSH1 0xFF AND SWAP1 JUMP JUMPDEST PUSH1 0x95 SLOAD PUSH2 0x100 SWAP1 DIV PUSH1 0xFF AND DUP2 JUMP JUMPDEST PUSH1 0x8D SLOAD PUSH1 0x1 PUSH1 0x1 PUSH1 0xA0 SHL SUB AND ISZERO ISZERO SWAP1 JUMP JUMPDEST PUSH1 0x93 SLOAD DUP2 JUMP JUMPDEST PUSH2 0x1910 PUSH2 0x2B39 JUMP JUMPDEST PUSH1 0x1 PUSH1 0x1 PUSH1 0xA0 SHL SUB AND PUSH2 0x1921 PUSH2 0x1FDA JUMP JUMPDEST PUSH1 0x1 PUSH1 0x1 PUSH1 0xA0 SHL SUB AND EQ PUSH2 0x1947 JUMPI PUSH1 0x40 MLOAD PUSH3 0x461BCD PUSH1 0xE5 SHL DUP2 MSTORE PUSH1 0x4 ADD PUSH2 0xBE6 SWAP1 PUSH2 0x51C1 JUMP JUMPDEST PUSH1 0x93 SSTORE JUMP JUMPDEST PUSH2 0x1954 PUSH2 0x2B39 JUMP JUMPDEST PUSH1 0x1 PUSH1 0x1 PUSH1 0xA0 SHL SUB AND PUSH2 0x1965 PUSH2 0x1FDA JUMP JUMPDEST PUSH1 0x1 PUSH1 0x1 PUSH1 0xA0 SHL SUB AND EQ PUSH2 0x198B JUMPI PUSH1 0x40 MLOAD PUSH3 0x461BCD PUSH1 0xE5 SHL DUP2 MSTORE PUSH1 0x4 ADD PUSH2 0xBE6 SWAP1 PUSH2 0x51C1 JUMP JUMPDEST PUSH1 0x8F DUP1 SLOAD PUSH1 0x1 PUSH1 0x1 PUSH1 0xA0 SHL SUB NOT AND PUSH1 0x1 PUSH1 0x1 PUSH1 0xA0 SHL SUB DUP4 AND OR SWAP1 SSTORE PUSH2 0x19AF DUP2 PUSH2 0x178D JUMP JUMPDEST POP JUMP JUMPDEST PUSH1 0x0 PUSH2 0x19BD ADDRESS PUSH2 0x19C2 JUMP JUMPDEST SWAP1 POP SWAP1 JUMP JUMPDEST PUSH1 0x1 PUSH1 0x1 PUSH1 0xA0 SHL SUB DUP2 AND PUSH1 0x0 SWAP1 DUP2 MSTORE PUSH1 0x69 PUSH1 0x20 MSTORE PUSH1 0x40 DUP2 KECCAK256 SLOAD PUSH1 0xFF AND ISZERO PUSH2 0x1A02 JUMPI POP PUSH1 0x1 PUSH1 0x1 PUSH1 0xA0 SHL SUB DUP2 AND PUSH1 0x0 SWAP1 DUP2 MSTORE PUSH1 0x66 PUSH1 0x20 MSTORE PUSH1 0x40 SWAP1 KECCAK256 SLOAD PUSH2 0xF53 JUMP JUMPDEST PUSH1 0x1 PUSH1 0x1 PUSH1 0xA0 SHL SUB DUP3 AND PUSH1 0x0 SWAP1 DUP2 MSTORE PUSH1 0x65 PUSH1 0x20 MSTORE PUSH1 0x40 SWAP1 KECCAK256 SLOAD PUSH2 0xBA1 SWAP1 PUSH2 0xF15 JUMP JUMPDEST PUSH2 0x1A2C PUSH2 0x2B39 JUMP JUMPDEST PUSH1 0x1 PUSH1 0x1 PUSH1 0xA0 SHL SUB AND PUSH2 0x1A3D PUSH2 0x1FDA JUMP JUMPDEST PUSH1 0x1 PUSH1 0x1 PUSH1 0xA0 SHL SUB AND EQ PUSH2 0x1A63 JUMPI PUSH1 0x40 MLOAD PUSH3 0x461BCD PUSH1 0xE5 SHL DUP2 MSTORE PUSH1 0x4 ADD PUSH2 0xBE6 SWAP1 PUSH2 0x51C1 JUMP JUMPDEST PUSH1 0x33 SLOAD PUSH1 0x40 MLOAD PUSH1 0x0 SWAP2 PUSH1 0x1 PUSH1 0x1 PUSH1 0xA0 SHL SUB AND SWAP1 PUSH1 0x0 DUP1 MLOAD PUSH1 0x20 PUSH2 0x5632 DUP4 CODECOPY DUP2 MLOAD SWAP2 MSTORE SWAP1 DUP4 SWAP1 LOG3 PUSH1 0x33 DUP1 SLOAD PUSH1 0x1 PUSH1 0x1 PUSH1 0xA0 SHL SUB NOT AND SWAP1 SSTORE JUMP JUMPDEST PUSH1 0x90 SLOAD DUP2 JUMP JUMPDEST PUSH2 0x1AA9 PUSH2 0x2B39 JUMP JUMPDEST PUSH1 0x1 PUSH1 0x1 PUSH1 0xA0 SHL SUB AND PUSH2 0x1ABA PUSH2 0x1FDA JUMP JUMPDEST PUSH1 0x1 PUSH1 0x1 PUSH1 0xA0 SHL SUB AND EQ PUSH2 0x1AE0 JUMPI PUSH1 0x40 MLOAD PUSH3 0x461BCD PUSH1 0xE5 SHL DUP2 MSTORE PUSH1 0x4 ADD PUSH2 0xBE6 SWAP1 PUSH2 0x51C1 JUMP JUMPDEST PUSH1 0x89 SLOAD DUP3 SWAP1 DUP2 LT PUSH2 0x1B03 JUMPI PUSH1 0x40 MLOAD PUSH3 0x461BCD PUSH1 0xE5 SHL DUP2 MSTORE PUSH1 0x4 ADD PUSH2 0xBE6 SWAP1 PUSH2 0x5113 JUMP JUMPDEST PUSH1 0x1 PUSH1 0x1 PUSH1 0xA0 SHL SUB DUP3 AND PUSH2 0x1B29 JUMPI PUSH1 0x40 MLOAD PUSH3 0x461BCD PUSH1 0xE5 SHL DUP2 MSTORE PUSH1 0x4 ADD PUSH2 0xBE6 SWAP1 PUSH2 0x52B4 JUMP JUMPDEST PUSH2 0x1B32 DUP3 PUSH2 0x178D JUMP JUMPDEST DUP2 PUSH1 0x89 DUP5 DUP2 SLOAD DUP2 LT PUSH2 0x1B40 JUMPI INVALID JUMPDEST SWAP1 PUSH1 0x0 MSTORE PUSH1 0x20 PUSH1 0x0 KECCAK256 SWAP1 PUSH1 0x7 MUL ADD PUSH1 0x5 ADD PUSH1 0x0 PUSH2 0x100 EXP DUP2 SLOAD DUP2 PUSH1 0x1 PUSH1 0x1 PUSH1 0xA0 SHL SUB MUL NOT AND SWAP1 DUP4 PUSH1 0x1 PUSH1 0x1 PUSH1 0xA0 SHL SUB AND MUL OR SWAP1 SSTORE POP DUP3 PUSH1 0x0 EQ ISZERO PUSH2 0x1B9A JUMPI PUSH1 0x79 DUP1 SLOAD PUSH1 0x1 PUSH1 0x1 PUSH1 0xA0 SHL SUB NOT AND PUSH1 0x1 PUSH1 0x1 PUSH1 0xA0 SHL SUB DUP5 AND OR SWAP1 SSTORE JUMPDEST POP POP POP JUMP JUMPDEST PUSH1 0x0 SLOAD PUSH2 0x100 SWAP1 DIV PUSH1 0xFF AND DUP1 PUSH2 0x1BB8 JUMPI POP PUSH2 0x1BB8 PUSH2 0x33CB JUMP JUMPDEST DUP1 PUSH2 0x1BC6 JUMPI POP PUSH1 0x0 SLOAD PUSH1 0xFF AND ISZERO JUMPDEST PUSH2 0x1BE2 JUMPI PUSH1 0x40 MLOAD PUSH3 0x461BCD PUSH1 0xE5 SHL DUP2 MSTORE PUSH1 0x4 ADD PUSH2 0xBE6 SWAP1 PUSH2 0x5096 JUMP JUMPDEST PUSH1 0x0 SLOAD PUSH2 0x100 SWAP1 DIV PUSH1 0xFF AND ISZERO DUP1 ISZERO PUSH2 0x1C0D JUMPI PUSH1 0x0 DUP1 SLOAD PUSH1 0xFF NOT PUSH2 0xFF00 NOT SWAP1 SWAP2 AND PUSH2 0x100 OR AND PUSH1 0x1 OR SWAP1 SSTORE JUMPDEST PUSH2 0x1C15 PUSH2 0x33DC JUMP JUMPDEST PUSH2 0x1C1D PUSH2 0x345D JUMP JUMPDEST PUSH2 0x1C25 PUSH2 0x3525 JUMP JUMPDEST DUP1 ISZERO PUSH2 0x19AF JUMPI PUSH1 0x0 DUP1 SLOAD PUSH2 0xFF00 NOT AND SWAP1 SSTORE POP JUMP JUMPDEST PUSH1 0x1 PUSH1 0x1 PUSH1 0xA0 SHL SUB AND PUSH1 0x0 SWAP1 DUP2 MSTORE PUSH1 0x69 PUSH1 0x20 MSTORE PUSH1 0x40 SWAP1 KECCAK256 SLOAD PUSH1 0xFF AND SWAP1 JUMP JUMPDEST PUSH1 0x94 SLOAD DUP2 JUMP JUMPDEST PUSH2 0x1C65 PUSH2 0x2B39 JUMP JUMPDEST PUSH1 0x1 PUSH1 0x1 PUSH1 0xA0 SHL SUB AND PUSH2 0x1C76 PUSH2 0x1FDA JUMP JUMPDEST PUSH1 0x1 PUSH1 0x1 PUSH1 0xA0 SHL SUB AND EQ PUSH2 0x1C9C JUMPI PUSH1 0x40 MLOAD PUSH3 0x461BCD PUSH1 0xE5 SHL DUP2 MSTORE PUSH1 0x4 ADD PUSH2 0xBE6 SWAP1 PUSH2 0x51C1 JUMP JUMPDEST PUSH1 0x89 SLOAD DUP3 SWAP1 DUP2 LT PUSH2 0x1CBF JUMPI PUSH1 0x40 MLOAD PUSH3 0x461BCD PUSH1 0xE5 SHL DUP2 MSTORE PUSH1 0x4 ADD PUSH2 0xBE6 SWAP1 PUSH2 0x5113 JUMP JUMPDEST PUSH1 0x1 PUSH1 0x1 PUSH1 0xA0 SHL SUB DUP3 AND PUSH2 0x1CE5 JUMPI PUSH1 0x40 MLOAD PUSH3 0x461BCD PUSH1 0xE5 SHL DUP2 MSTORE PUSH1 0x4 ADD PUSH2 0xBE6 SWAP1 PUSH2 0x52B4 JUMP JUMPDEST PUSH2 0x1CEE DUP3 PUSH2 0x178D JUMP JUMPDEST DUP2 PUSH1 0x89 DUP5 DUP2 SLOAD DUP2 LT PUSH2 0x1CFC JUMPI INVALID JUMPDEST SWAP1 PUSH1 0x0 MSTORE PUSH1 0x20 PUSH1 0x0 KECCAK256 SWAP1 PUSH1 0x7 MUL ADD PUSH1 0x6 ADD PUSH1 0x0 PUSH2 0x100 EXP DUP2 SLOAD DUP2 PUSH1 0x1 PUSH1 0x1 PUSH1 0xA0 SHL SUB MUL NOT AND SWAP1 DUP4 PUSH1 0x1 PUSH1 0x1 PUSH1 0xA0 SHL SUB AND MUL OR SWAP1 SSTORE POP DUP3 PUSH1 0x0 EQ ISZERO PUSH2 0x1B9A JUMPI PUSH1 0x7A DUP1 SLOAD PUSH1 0x1 PUSH1 0x1 PUSH1 0xA0 SHL SUB DUP5 AND PUSH1 0x1 PUSH1 0x1 PUSH1 0xA0 SHL SUB NOT SWAP1 SWAP2 AND OR SWAP1 SSTORE POP POP POP JUMP JUMPDEST PUSH2 0x1D64 PUSH2 0x2B39 JUMP JUMPDEST PUSH1 0x1 PUSH1 0x1 PUSH1 0xA0 SHL SUB AND PUSH2 0x1D75 PUSH2 0x1FDA JUMP JUMPDEST PUSH1 0x1 PUSH1 0x1 PUSH1 0xA0 SHL SUB AND EQ PUSH2 0x1D9B JUMPI PUSH1 0x40 MLOAD PUSH3 0x461BCD PUSH1 0xE5 SHL DUP2 MSTORE PUSH1 0x4 ADD PUSH2 0xBE6 SWAP1 PUSH2 0x51C1 JUMP JUMPDEST PUSH1 0x8F DUP1 SLOAD PUSH1 0xFF PUSH1 0xA0 SHL NOT AND PUSH1 0x1 PUSH1 0xA0 SHL OR SWAP1 SSTORE PUSH1 0x94 SLOAD SELFBALANCE SWAP1 DUP2 LT ISZERO PUSH2 0x1DD2 JUMPI PUSH1 0x40 MLOAD PUSH3 0x461BCD PUSH1 0xE5 SHL DUP2 MSTORE PUSH1 0x4 ADD PUSH2 0xBE6 SWAP1 PUSH2 0x533C JUMP JUMPDEST POP PUSH1 0x94 SLOAD PUSH1 0x0 PUSH2 0x1DE3 DUP3 PUSH1 0x2 PUSH2 0x3105 JUMP JUMPDEST SWAP1 POP PUSH1 0x0 PUSH2 0x1DF1 DUP4 DUP4 PUSH2 0x31A4 JUMP JUMPDEST PUSH1 0x40 MLOAD PUSH4 0x70A08231 PUSH1 0xE0 SHL DUP2 MSTORE SWAP1 SWAP2 POP PUSH1 0x0 SWAP1 ADDRESS SWAP1 PUSH4 0x70A08231 SWAP1 PUSH2 0x1E1A SWAP1 CALLER SWAP1 PUSH1 0x4 ADD PUSH2 0x4D1C JUMP JUMPDEST PUSH1 0x20 PUSH1 0x40 MLOAD DUP1 DUP4 SUB DUP2 DUP7 DUP1 EXTCODESIZE ISZERO DUP1 ISZERO PUSH2 0x1E32 JUMPI PUSH1 0x0 DUP1 REVERT JUMPDEST POP GAS STATICCALL ISZERO DUP1 ISZERO PUSH2 0x1E46 JUMPI RETURNDATASIZE PUSH1 0x0 DUP1 RETURNDATACOPY RETURNDATASIZE PUSH1 0x0 REVERT JUMPDEST POP POP POP POP PUSH1 0x40 MLOAD RETURNDATASIZE PUSH1 0x1F NOT PUSH1 0x1F DUP3 ADD AND DUP3 ADD DUP1 PUSH1 0x40 MSTORE POP DUP2 ADD SWAP1 PUSH2 0x1E6A SWAP2 SWAP1 PUSH2 0x4B8B JUMP JUMPDEST SWAP1 POP PUSH2 0x1E75 DUP4 PUSH2 0x372E JUMP JUMPDEST PUSH1 0x40 MLOAD PUSH4 0x70A08231 PUSH1 0xE0 SHL DUP2 MSTORE PUSH1 0x0 SWAP1 ADDRESS SWAP1 PUSH4 0x70A08231 SWAP1 PUSH2 0x1E9B SWAP1 CALLER SWAP1 PUSH1 0x4 ADD PUSH2 0x4D1C JUMP JUMPDEST PUSH1 0x20 PUSH1 0x40 MLOAD DUP1 DUP4 SUB DUP2 DUP7 DUP1 EXTCODESIZE ISZERO DUP1 ISZERO PUSH2 0x1EB3 JUMPI PUSH1 0x0 DUP1 REVERT JUMPDEST POP GAS STATICCALL ISZERO DUP1 ISZERO PUSH2 0x1EC7 JUMPI RETURNDATASIZE PUSH1 0x0 DUP1 RETURNDATACOPY RETURNDATASIZE PUSH1 0x0 REVERT JUMPDEST POP POP POP POP PUSH1 0x40 MLOAD RETURNDATASIZE PUSH1 0x1F NOT PUSH1 0x1F DUP3 ADD AND DUP3 ADD DUP1 PUSH1 0x40 MSTORE POP DUP2 ADD SWAP1 PUSH2 0x1EEB SWAP2 SWAP1 PUSH2 0x4B8B JUMP JUMPDEST SWAP1 POP PUSH1 0x0 PUSH2 0x1EF9 DUP3 DUP5 PUSH2 0x31A4 JUMP JUMPDEST SWAP1 POP PUSH2 0x1F06 CALLER ADDRESS DUP4 PUSH2 0x2B3D JUMP JUMPDEST PUSH1 0x40 MLOAD PUSH4 0x23B872DD PUSH1 0xE0 SHL DUP2 MSTORE ADDRESS SWAP1 PUSH4 0x23B872DD SWAP1 PUSH2 0x1F2D SWAP1 CALLER SWAP1 DUP5 SWAP1 DUP7 SWAP1 PUSH1 0x4 ADD PUSH2 0x4D30 JUMP JUMPDEST PUSH1 0x20 PUSH1 0x40 MLOAD DUP1 DUP4 SUB DUP2 PUSH1 0x0 DUP8 DUP1 EXTCODESIZE ISZERO DUP1 ISZERO PUSH2 0x1F47 JUMPI PUSH1 0x0 DUP1 REVERT JUMPDEST POP GAS CALL ISZERO DUP1 ISZERO PUSH2 0x1F5B JUMPI RETURNDATASIZE PUSH1 0x0 DUP1 RETURNDATACOPY RETURNDATASIZE PUSH1 0x0 REVERT JUMPDEST POP POP POP POP PUSH1 0x40 MLOAD RETURNDATASIZE PUSH1 0x1F NOT PUSH1 0x1F DUP3 ADD AND DUP3 ADD DUP1 PUSH1 0x40 MSTORE POP DUP2 ADD SWAP1 PUSH2 0x1F7F SWAP2 SWAP1 PUSH2 0x4B57 JUMP JUMPDEST POP PUSH2 0x1F8A DUP2 DUP6 PUSH2 0x38B5 JUMP JUMPDEST PUSH32 0x8261EDC7B257DA79C22AFDC1C7064B198C7ABE8FDD21070AC0B55E0351804A3 DUP6 DUP3 DUP7 PUSH1 0x40 MLOAD PUSH2 0x1FBD SWAP4 SWAP3 SWAP2 SWAP1 PUSH2 0x54F0 JUMP JUMPDEST PUSH1 0x40 MLOAD DUP1 SWAP2 SUB SWAP1 LOG1 POP POP PUSH1 0x8F DUP1 SLOAD PUSH1 0xFF PUSH1 0xA0 SHL NOT AND SWAP1 SSTORE POP POP POP POP JUMP JUMPDEST PUSH1 0x33 SLOAD PUSH1 0x1 PUSH1 0x1 PUSH1 0xA0 SHL SUB AND SWAP1 JUMP JUMPDEST PUSH1 0x8C SLOAD PUSH1 0x1 PUSH1 0x1 PUSH1 0xA0 SHL SUB AND DUP2 JUMP JUMPDEST PUSH2 0x2000 PUSH2 0x2B39 JUMP JUMPDEST PUSH1 0x1 PUSH1 0x1 PUSH1 0xA0 SHL SUB AND PUSH2 0x2011 PUSH2 0x1FDA JUMP JUMPDEST PUSH1 0x1 PUSH1 0x1 PUSH1 0xA0 SHL SUB AND EQ PUSH2 0x2037 JUMPI PUSH1 0x40 MLOAD PUSH3 0x461BCD PUSH1 0xE5 SHL DUP2 MSTORE PUSH1 0x4 ADD PUSH2 0xBE6 SWAP1 PUSH2 0x51C1 JUMP JUMPDEST PUSH1 0x89 SLOAD DUP3 SWAP1 DUP2 LT PUSH2 0x205A JUMPI PUSH1 0x40 MLOAD PUSH3 0x461BCD PUSH1 0xE5 SHL DUP2 MSTORE PUSH1 0x4 ADD PUSH2 0xBE6 SWAP1 PUSH2 0x5113 JUMP JUMPDEST PUSH2 0x2062 PUSH2 0x48FC JUMP JUMPDEST PUSH1 0x89 DUP5 DUP2 SLOAD DUP2 LT PUSH2 0x206F JUMPI INVALID JUMPDEST PUSH1 0x0 SWAP2 DUP3 MSTORE PUSH1 0x20 SWAP2 DUP3 SWAP1 KECCAK256 PUSH1 0x40 DUP1 MLOAD PUSH1 0xE0 DUP2 ADD DUP3 MSTORE PUSH1 0x7 SWAP1 SWAP4 MUL SWAP1 SWAP2 ADD DUP1 SLOAD DUP4 MSTORE PUSH1 0x1 DUP2 ADD SLOAD SWAP4 DUP4 ADD SWAP4 SWAP1 SWAP4 MSTORE PUSH1 0x2 DUP4 ADD SLOAD SWAP1 DUP3 ADD MSTORE PUSH1 0x3 DUP3 ADD SLOAD PUSH1 0x60 DUP3 ADD MSTORE PUSH1 0x4 DUP3 ADD SLOAD PUSH1 0x80 DUP3 ADD DUP2 SWAP1 MSTORE PUSH1 0x5 DUP4 ADD SLOAD PUSH1 0x1 PUSH1 0x1 PUSH1 0xA0 SHL SUB SWAP1 DUP2 AND PUSH1 0xA0 DUP5 ADD MSTORE PUSH1 0x6 SWAP1 SWAP4 ADD SLOAD SWAP1 SWAP3 AND PUSH1 0xC0 DUP3 ADD MSTORE SWAP2 POP PUSH2 0x20EC SWAP1 DUP3 SWAP1 DUP6 PUSH2 0x3137 JUMP JUMPDEST DUP3 PUSH1 0x89 DUP6 DUP2 SLOAD DUP2 LT PUSH2 0x20FA JUMPI INVALID JUMPDEST PUSH1 0x0 SWAP2 DUP3 MSTORE PUSH1 0x20 SWAP1 SWAP2 KECCAK256 PUSH1 0x4 PUSH1 0x7 SWAP1 SWAP3 MUL ADD ADD SSTORE DUP4 PUSH2 0x111D JUMPI POP POP PUSH1 0x78 SSTORE POP JUMP JUMPDEST PUSH1 0x72 DUP1 SLOAD PUSH1 0x40 DUP1 MLOAD PUSH1 0x20 PUSH1 0x1F PUSH1 0x2 PUSH1 0x0 NOT PUSH2 0x100 PUSH1 0x1 DUP9 AND ISZERO MUL ADD SWAP1 SWAP6 AND SWAP5 SWAP1 SWAP5 DIV SWAP4 DUP5 ADD DUP2 SWAP1 DIV DUP2 MUL DUP3 ADD DUP2 ADD SWAP1 SWAP3 MSTORE DUP3 DUP2 MSTORE PUSH1 0x60 SWAP4 SWAP1 SWAP3 SWAP1 SWAP2 DUP4 ADD DUP3 DUP3 DUP1 ISZERO PUSH2 0xB7F JUMPI DUP1 PUSH1 0x1F LT PUSH2 0xB54 JUMPI PUSH2 0x100 DUP1 DUP4 SLOAD DIV MUL DUP4 MSTORE SWAP2 PUSH1 0x20 ADD SWAP2 PUSH2 0xB7F JUMP JUMPDEST PUSH2 0x2184 PUSH2 0x2B39 JUMP JUMPDEST PUSH1 0x1 PUSH1 0x1 PUSH1 0xA0 SHL SUB AND PUSH2 0x2195 PUSH2 0x1FDA JUMP JUMPDEST PUSH1 0x1 PUSH1 0x1 PUSH1 0xA0 SHL SUB AND EQ PUSH2 0x21BB JUMPI PUSH1 0x40 MLOAD PUSH3 0x461BCD PUSH1 0xE5 SHL DUP2 MSTORE PUSH1 0x4 ADD PUSH2 0xBE6 SWAP1 PUSH2 0x51C1 JUMP JUMPDEST PUSH1 0x40 MLOAD PUSH4 0xA9059CBB PUSH1 0xE0 SHL DUP2 MSTORE PUSH1 0x1 PUSH1 0x1 PUSH1 0xA0 SHL SUB DUP4 AND SWAP1 PUSH4 0xA9059CBB SWAP1 PUSH2 0x21E9 SWAP1 CALLER SWAP1 DUP6 SWAP1 PUSH1 0x4 ADD PUSH2 0x4D77 JUMP JUMPDEST PUSH1 0x20 PUSH1 0x40 MLOAD DUP1 DUP4 SUB DUP2 PUSH1 0x0 DUP8 DUP1 EXTCODESIZE ISZERO DUP1 ISZERO PUSH2 0x2203 JUMPI PUSH1 0x0 DUP1 REVERT JUMPDEST POP GAS CALL ISZERO DUP1 ISZERO PUSH2 0x2217 JUMPI RETURNDATASIZE PUSH1 0x0 DUP1 RETURNDATACOPY RETURNDATASIZE PUSH1 0x0 REVERT JUMPDEST POP POP POP POP PUSH1 0x40 MLOAD RETURNDATASIZE PUSH1 0x1F NOT PUSH1 0x1F DUP3 ADD AND DUP3 ADD DUP1 PUSH1 0x40 MSTORE POP DUP2 ADD SWAP1 PUSH2 0x1B9A SWAP2 SWAP1 PUSH2 0x4B57 JUMP JUMPDEST PUSH1 0x0 PUSH2 0xB9D PUSH2 0x2248 PUSH2 0x2B39 JUMP JUMPDEST DUP5 PUSH2 0xF05 DUP6 PUSH1 0x40 MLOAD DUP1 PUSH1 0x60 ADD PUSH1 0x40 MSTORE DUP1 PUSH1 0x25 DUP2 MSTORE PUSH1 0x20 ADD PUSH2 0x5672 PUSH1 0x25 SWAP2 CODECOPY PUSH1 0x67 PUSH1 0x0 PUSH2 0x2272 PUSH2 0x2B39 JUMP JUMPDEST PUSH1 0x1 PUSH1 0x1 PUSH1 0xA0 SHL SUB SWAP1 DUP2 AND DUP3 MSTORE PUSH1 0x20 DUP1 DUP4 ADD SWAP4 SWAP1 SWAP4 MSTORE PUSH1 0x40 SWAP2 DUP3 ADD PUSH1 0x0 SWAP1 DUP2 KECCAK256 SWAP2 DUP14 AND DUP2 MSTORE SWAP3 MSTORE SWAP1 KECCAK256 SLOAD SWAP2 SWAP1 PUSH2 0x30B6 JUMP JUMPDEST PUSH1 0x0 PUSH2 0xB9D PUSH2 0x22B0 PUSH2 0x2B39 JUMP JUMPDEST DUP5 DUP5 PUSH2 0x2CA3 JUMP JUMPDEST DUP2 PUSH1 0x40 MLOAD DUP1 PUSH1 0x60 ADD PUSH1 0x40 MSTORE DUP1 PUSH1 0x29 DUP2 MSTORE PUSH1 0x20 ADD PUSH2 0x5697 PUSH1 0x29 SWAP2 CODECOPY PUSH1 0x1 PUSH1 0x1 PUSH1 0xA0 SHL SUB DUP3 AND PUSH1 0x0 SWAP1 DUP2 MSTORE PUSH1 0x6A PUSH1 0x20 MSTORE PUSH1 0x40 SWAP1 KECCAK256 SLOAD DUP2 SWAP1 PUSH1 0xFF AND ISZERO PUSH2 0x230D JUMPI PUSH1 0x40 MLOAD PUSH3 0x461BCD PUSH1 0xE5 SHL DUP2 MSTORE PUSH1 0x4 ADD PUSH2 0xBE6 SWAP2 SWAP1 PUSH2 0x4E0B JUMP JUMPDEST POP PUSH1 0x8D SLOAD PUSH1 0x1 PUSH1 0x1 PUSH1 0xA0 SHL SUB AND PUSH2 0x2336 JUMPI PUSH1 0x40 MLOAD PUSH3 0x461BCD PUSH1 0xE5 SHL DUP2 MSTORE PUSH1 0x4 ADD PUSH2 0xBE6 SWAP1 PUSH2 0x5272 JUMP JUMPDEST PUSH1 0x8D SLOAD PUSH1 0x1 PUSH1 0x1 PUSH1 0xA0 SHL SUB AND PUSH2 0x234A PUSH2 0x2B39 JUMP JUMPDEST PUSH1 0x1 PUSH1 0x1 PUSH1 0xA0 SHL SUB AND EQ PUSH2 0x2370 JUMPI PUSH1 0x40 MLOAD PUSH3 0x461BCD PUSH1 0xE5 SHL DUP2 MSTORE PUSH1 0x4 ADD PUSH2 0xBE6 SWAP1 PUSH2 0x50E4 JUMP JUMPDEST PUSH2 0x111D DUP5 DUP5 PUSH2 0x3967 JUMP JUMPDEST PUSH1 0x8F SLOAD PUSH1 0x1 PUSH1 0x1 PUSH1 0xA0 SHL SUB AND DUP2 JUMP JUMPDEST PUSH1 0x0 PUSH1 0x6D SLOAD DUP5 GT ISZERO PUSH2 0x23AD JUMPI PUSH1 0x40 MLOAD PUSH3 0x461BCD PUSH1 0xE5 SHL DUP2 MSTORE PUSH1 0x4 ADD PUSH2 0xBE6 SWAP1 PUSH2 0x5017 JUMP JUMPDEST DUP2 PUSH2 0x23CE JUMPI PUSH2 0x23BA PUSH2 0x494B JUMP JUMPDEST PUSH2 0x23C4 DUP6 DUP6 PUSH2 0x39A7 JUMP JUMPDEST MLOAD SWAP2 POP PUSH2 0xF0E SWAP1 POP JUMP JUMPDEST PUSH2 0x23D6 PUSH2 0x494B JUMP JUMPDEST PUSH2 0x23E0 DUP6 DUP6 PUSH2 0x39A7 JUMP JUMPDEST PUSH1 0x20 ADD MLOAD SWAP2 POP PUSH2 0xF0E SWAP1 POP JUMP JUMPDEST PUSH2 0x23F5 PUSH2 0x2B39 JUMP JUMPDEST PUSH1 0x1 PUSH1 0x1 PUSH1 0xA0 SHL SUB AND PUSH2 0x2406 PUSH2 0x1FDA JUMP JUMPDEST PUSH1 0x1 PUSH1 0x1 PUSH1 0xA0 SHL SUB AND EQ PUSH2 0x242C JUMPI PUSH1 0x40 MLOAD PUSH3 0x461BCD PUSH1 0xE5 SHL DUP2 MSTORE PUSH1 0x4 ADD PUSH2 0xBE6 SWAP1 PUSH2 0x51C1 JUMP JUMPDEST PUSH1 0x1 PUSH1 0x1 PUSH1 0xA0 SHL SUB AND PUSH1 0x0 SWAP1 DUP2 MSTORE PUSH1 0x6A PUSH1 0x20 MSTORE PUSH1 0x40 SWAP1 KECCAK256 DUP1 SLOAD PUSH1 0xFF NOT AND SWAP1 SSTORE JUMP JUMPDEST PUSH2 0x2455 PUSH2 0x2B39 JUMP JUMPDEST PUSH1 0x1 PUSH1 0x1 PUSH1 0xA0 SHL SUB AND PUSH2 0x2466 PUSH2 0x1FDA JUMP JUMPDEST PUSH1 0x1 PUSH1 0x1 PUSH1 0xA0 SHL SUB AND EQ PUSH2 0x248C JUMPI PUSH1 0x40 MLOAD PUSH3 0x461BCD PUSH1 0xE5 SHL DUP2 MSTORE PUSH1 0x4 ADD PUSH2 0xBE6 SWAP1 PUSH2 0x51C1 JUMP JUMPDEST PUSH2 0x24AD PUSH2 0x2710 PUSH2 0x24A7 DUP4 PUSH1 0x6D SLOAD PUSH2 0x3A79 SWAP1 SWAP2 SWAP1 PUSH4 0xFFFFFFFF AND JUMP JUMPDEST SWAP1 PUSH2 0x3105 JUMP JUMPDEST PUSH1 0x90 SSTORE POP JUMP JUMPDEST PUSH2 0x24BB PUSH2 0x2B39 JUMP JUMPDEST PUSH1 0x1 PUSH1 0x1 PUSH1 0xA0 SHL SUB AND PUSH2 0x24CC PUSH2 0x1FDA JUMP JUMPDEST PUSH1 0x1 PUSH1 0x1 PUSH1 0xA0 SHL SUB AND EQ PUSH2 0x24F2 JUMPI PUSH1 0x40 MLOAD PUSH3 0x461BCD PUSH1 0xE5 SHL DUP2 MSTORE PUSH1 0x4 ADD PUSH2 0xBE6 SWAP1 PUSH2 0x51C1 JUMP JUMPDEST PUSH1 0x89 SLOAD DUP3 SWAP1 DUP2 LT PUSH2 0x2515 JUMPI PUSH1 0x40 MLOAD PUSH3 0x461BCD PUSH1 0xE5 SHL DUP2 MSTORE PUSH1 0x4 ADD PUSH2 0xBE6 SWAP1 PUSH2 0x5113 JUMP JUMPDEST PUSH2 0x251D PUSH2 0x48FC JUMP JUMPDEST PUSH1 0x89 DUP5 DUP2 SLOAD DUP2 LT PUSH2 0x252A JUMPI INVALID JUMPDEST PUSH1 0x0 SWAP2 DUP3 MSTORE PUSH1 0x20 SWAP2 DUP3 SWAP1 KECCAK256 PUSH1 0x40 DUP1 MLOAD PUSH1 0xE0 DUP2 ADD DUP3 MSTORE PUSH1 0x7 SWAP1 SWAP4 MUL SWAP1 SWAP2 ADD DUP1 SLOAD DUP4 MSTORE PUSH1 0x1 DUP2 ADD SLOAD SWAP4 DUP4 ADD SWAP4 SWAP1 SWAP4 MSTORE PUSH1 0x2 DUP4 ADD SLOAD SWAP1 DUP3 ADD MSTORE PUSH1 0x3 DUP3 ADD SLOAD PUSH1 0x60 DUP3 ADD DUP2 SWAP1 MSTORE PUSH1 0x4 DUP4 ADD SLOAD PUSH1 0x80 DUP4 ADD MSTORE PUSH1 0x5 DUP4 ADD SLOAD PUSH1 0x1 PUSH1 0x1 PUSH1 0xA0 SHL SUB SWAP1 DUP2 AND PUSH1 0xA0 DUP5 ADD MSTORE PUSH1 0x6 SWAP1 SWAP4 ADD SLOAD SWAP1 SWAP3 AND PUSH1 0xC0 DUP3 ADD MSTORE SWAP2 POP PUSH2 0x25A7 SWAP1 DUP3 SWAP1 DUP6 PUSH2 0x3137 JUMP JUMPDEST DUP3 PUSH1 0x89 DUP6 DUP2 SLOAD DUP2 LT PUSH2 0x25B5 JUMPI INVALID JUMPDEST PUSH1 0x0 SWAP2 DUP3 MSTORE PUSH1 0x20 SWAP1 SWAP2 KECCAK256 PUSH1 0x3 PUSH1 0x7 SWAP1 SWAP3 MUL ADD ADD SSTORE DUP4 PUSH2 0x111D JUMPI POP POP PUSH1 0x77 SSTORE POP JUMP JUMPDEST PUSH1 0x1 PUSH1 0x1 PUSH1 0xA0 SHL SUB SWAP2 DUP3 AND PUSH1 0x0 SWAP1 DUP2 MSTORE PUSH1 0x67 PUSH1 0x20 SWAP1 DUP2 MSTORE PUSH1 0x40 DUP1 DUP4 KECCAK256 SWAP4 SWAP1 SWAP5 AND DUP3 MSTORE SWAP2 SWAP1 SWAP2 MSTORE KECCAK256 SLOAD SWAP1 JUMP JUMPDEST PUSH1 0x74 SLOAD PUSH1 0x75 SLOAD PUSH1 0x76 SLOAD PUSH1 0x77 SLOAD PUSH1 0x78 SLOAD PUSH1 0x79 SLOAD PUSH1 0x7A SLOAD PUSH1 0x1 PUSH1 0x1 PUSH1 0xA0 SHL SUB SWAP2 DUP3 AND SWAP2 AND DUP8 JUMP JUMPDEST PUSH2 0x262E PUSH2 0x2B39 JUMP JUMPDEST PUSH1 0x1 PUSH1 0x1 PUSH1 0xA0 SHL SUB AND PUSH2 0x263F PUSH2 0x1FDA JUMP JUMPDEST PUSH1 0x1 PUSH1 0x1 PUSH1 0xA0 SHL SUB AND EQ PUSH2 0x2665 JUMPI PUSH1 0x40 MLOAD PUSH3 0x461BCD PUSH1 0xE5 SHL DUP2 MSTORE PUSH1 0x4 ADD PUSH2 0xBE6 SWAP1 PUSH2 0x51C1 JUMP JUMPDEST PUSH1 0x1 PUSH1 0x1 PUSH1 0xA0 SHL SUB AND PUSH1 0x0 SWAP1 DUP2 MSTORE PUSH1 0x68 PUSH1 0x20 MSTORE PUSH1 0x40 SWAP1 KECCAK256 DUP1 SLOAD PUSH1 0xFF NOT AND SWAP1 SSTORE JUMP JUMPDEST PUSH2 0x268E PUSH2 0x2B39 JUMP JUMPDEST PUSH1 0x1 PUSH1 0x1 PUSH1 0xA0 SHL SUB AND PUSH2 0x269F PUSH2 0x1FDA JUMP JUMPDEST PUSH1 0x1 PUSH1 0x1 PUSH1 0xA0 SHL SUB AND EQ PUSH2 0x26C5 JUMPI PUSH1 0x40 MLOAD PUSH3 0x461BCD PUSH1 0xE5 SHL DUP2 MSTORE PUSH1 0x4 ADD PUSH2 0xBE6 SWAP1 PUSH2 0x51C1 JUMP JUMPDEST PUSH1 0x8A DUP1 SLOAD PUSH1 0x1 PUSH1 0x1 PUSH1 0xA0 SHL SUB NOT AND PUSH1 0x1 PUSH1 0x1 PUSH1 0xA0 SHL SUB DUP4 DUP2 AND SWAP2 SWAP1 SWAP2 OR SWAP2 DUP3 SWAP1 SSTORE PUSH1 0x40 DUP1 MLOAD PUSH4 0x15AB88C9 PUSH1 0xE3 SHL DUP2 MSTORE SWAP1 MLOAD SWAP3 SWAP1 SWAP2 AND SWAP2 PUSH4 0xAD5C4648 SWAP2 PUSH1 0x4 DUP1 DUP3 ADD SWAP3 PUSH1 0x20 SWAP3 SWAP1 SWAP2 SWAP1 DUP3 SWAP1 SUB ADD DUP2 DUP7 DUP1 EXTCODESIZE ISZERO DUP1 ISZERO PUSH2 0x2721 JUMPI PUSH1 0x0 DUP1 REVERT JUMPDEST POP GAS STATICCALL ISZERO DUP1 ISZERO PUSH2 0x2735 JUMPI RETURNDATASIZE PUSH1 0x0 DUP1 RETURNDATACOPY RETURNDATASIZE PUSH1 0x0 REVERT JUMPDEST POP POP POP POP PUSH1 0x40 MLOAD RETURNDATASIZE PUSH1 0x1F NOT PUSH1 0x1F DUP3 ADD AND DUP3 ADD DUP1 PUSH1 0x40 MSTORE POP DUP2 ADD SWAP1 PUSH2 0x2759 SWAP2 SWAP1 PUSH2 0x4A7C JUMP JUMPDEST PUSH1 0x8C DUP1 SLOAD PUSH1 0x1 PUSH1 0x1 PUSH1 0xA0 SHL SUB NOT AND PUSH1 0x1 PUSH1 0x1 PUSH1 0xA0 SHL SUB SWAP3 DUP4 AND OR SWAP1 SSTORE PUSH1 0x8A SLOAD PUSH1 0x40 DUP1 MLOAD PUSH4 0xC45A0155 PUSH1 0xE0 SHL DUP2 MSTORE SWAP1 MLOAD SWAP2 SWAP1 SWAP3 AND SWAP2 PUSH4 0xC45A0155 SWAP2 PUSH1 0x4 DUP1 DUP4 ADD SWAP3 PUSH1 0x20 SWAP3 SWAP2 SWAP1 DUP3 SWAP1 SUB ADD DUP2 DUP7 DUP1 EXTCODESIZE ISZERO DUP1 ISZERO PUSH2 0x27B2 JUMPI PUSH1 0x0 DUP1 REVERT JUMPDEST POP GAS STATICCALL ISZERO DUP1 ISZERO PUSH2 0x27C6 JUMPI RETURNDATASIZE PUSH1 0x0 DUP1 RETURNDATACOPY RETURNDATASIZE PUSH1 0x0 REVERT JUMPDEST POP POP POP POP PUSH1 0x40 MLOAD RETURNDATASIZE PUSH1 0x1F NOT PUSH1 0x1F DUP3 ADD AND DUP3 ADD DUP1 PUSH1 0x40 MSTORE POP DUP2 ADD SWAP1 PUSH2 0x27EA SWAP2 SWAP1 PUSH2 0x4A7C JUMP JUMPDEST PUSH1 0x8C SLOAD PUSH1 0x40 MLOAD PUSH4 0xEDEF2E7 PUSH1 0xE3 SHL DUP2 MSTORE PUSH1 0x1 PUSH1 0x1 PUSH1 0xA0 SHL SUB SWAP3 DUP4 AND SWAP3 PUSH4 0x76F79738 SWAP3 PUSH2 0x2820 SWAP3 ADDRESS SWAP3 SWAP1 SWAP2 AND SWAP1 DUP3 SWAP1 PUSH1 0x4 ADD PUSH2 0x4D54 JUMP JUMPDEST PUSH1 0x20 PUSH1 0x40 MLOAD DUP1 DUP4 SUB DUP2 PUSH1 0x0 DUP8 DUP1 EXTCODESIZE ISZERO DUP1 ISZERO PUSH2 0x283A JUMPI PUSH1 0x0 DUP1 REVERT JUMPDEST POP GAS CALL ISZERO DUP1 ISZERO PUSH2 0x284E JUMPI RETURNDATASIZE PUSH1 0x0 DUP1 RETURNDATACOPY RETURNDATASIZE PUSH1 0x0 REVERT JUMPDEST POP POP POP POP PUSH1 0x40 MLOAD RETURNDATASIZE PUSH1 0x1F NOT PUSH1 0x1F DUP3 ADD AND DUP3 ADD DUP1 PUSH1 0x40 MSTORE POP DUP2 ADD SWAP1 PUSH2 0x2872 SWAP2 SWAP1 PUSH2 0x4A7C JUMP JUMPDEST PUSH1 0x8B DUP1 SLOAD PUSH1 0x1 PUSH1 0x1 PUSH1 0xA0 SHL SUB NOT AND PUSH1 0x1 PUSH1 0x1 PUSH1 0xA0 SHL SUB SWAP3 SWAP1 SWAP3 AND SWAP2 SWAP1 SWAP2 OR SWAP1 SSTORE POP JUMP JUMPDEST PUSH2 0x289D PUSH2 0x2B39 JUMP JUMPDEST PUSH1 0x1 PUSH1 0x1 PUSH1 0xA0 SHL SUB AND PUSH2 0x28AE PUSH2 0x1FDA JUMP JUMPDEST PUSH1 0x1 PUSH1 0x1 PUSH1 0xA0 SHL SUB AND EQ PUSH2 0x28D4 JUMPI PUSH1 0x40 MLOAD PUSH3 0x461BCD PUSH1 0xE5 SHL DUP2 MSTORE PUSH1 0x4 ADD PUSH2 0xBE6 SWAP1 PUSH2 0x51C1 JUMP JUMPDEST PUSH1 0x89 SLOAD DUP3 SWAP1 DUP2 LT PUSH2 0x28F7 JUMPI PUSH1 0x40 MLOAD PUSH3 0x461BCD PUSH1 0xE5 SHL DUP2 MSTORE PUSH1 0x4 ADD PUSH2 0xBE6 SWAP1 PUSH2 0x5113 JUMP JUMPDEST PUSH2 0x28FF PUSH2 0x48FC JUMP JUMPDEST PUSH1 0x89 DUP5 DUP2 SLOAD DUP2 LT PUSH2 0x290C JUMPI INVALID JUMPDEST PUSH1 0x0 SWAP2 DUP3 MSTORE PUSH1 0x20 SWAP2 DUP3 SWAP1 KECCAK256 PUSH1 0x40 DUP1 MLOAD PUSH1 0xE0 DUP2 ADD DUP3 MSTORE PUSH1 0x7 SWAP1 SWAP4 MUL SWAP1 SWAP2 ADD DUP1 SLOAD DUP4 MSTORE PUSH1 0x1 DUP2 ADD SLOAD SWAP4 DUP4 ADD DUP5 SWAP1 MSTORE PUSH1 0x2 DUP2 ADD SLOAD SWAP2 DUP4 ADD SWAP2 SWAP1 SWAP2 MSTORE PUSH1 0x3 DUP2 ADD SLOAD PUSH1 0x60 DUP4 ADD MSTORE PUSH1 0x4 DUP2 ADD SLOAD PUSH1 0x80 DUP4 ADD MSTORE PUSH1 0x5 DUP2 ADD SLOAD PUSH1 0x1 PUSH1 0x1 PUSH1 0xA0 SHL SUB SWAP1 DUP2 AND PUSH1 0xA0 DUP5 ADD MSTORE PUSH1 0x6 SWAP1 SWAP2 ADD SLOAD AND PUSH1 0xC0 DUP3 ADD MSTORE SWAP2 POP PUSH2 0x2987 SWAP1 DUP3 SWAP1 DUP6 PUSH2 0x3137 JUMP JUMPDEST DUP3 PUSH1 0x89 DUP6 DUP2 SLOAD DUP2 LT PUSH2 0x2995 JUMPI INVALID JUMPDEST PUSH1 0x0 SWAP2 DUP3 MSTORE PUSH1 0x20 SWAP1 SWAP2 KECCAK256 PUSH1 0x1 PUSH1 0x7 SWAP1 SWAP3 MUL ADD ADD SSTORE DUP4 PUSH2 0x111D JUMPI POP POP PUSH1 0x75 SSTORE POP JUMP JUMPDEST PUSH2 0x29BE PUSH2 0x2B39 JUMP JUMPDEST PUSH1 0x1 PUSH1 0x1 PUSH1 0xA0 SHL SUB AND PUSH2 0x29CF PUSH2 0x1FDA JUMP JUMPDEST PUSH1 0x1 PUSH1 0x1 PUSH1 0xA0 SHL SUB AND EQ PUSH2 0x29F5 JUMPI PUSH1 0x40 MLOAD PUSH3 0x461BCD PUSH1 0xE5 SHL DUP2 MSTORE PUSH1 0x4 ADD PUSH2 0xBE6 SWAP1 PUSH2 0x51C1 JUMP JUMPDEST PUSH1 0x1 PUSH1 0x1 PUSH1 0xA0 SHL SUB DUP2 AND PUSH2 0x2A1B JUMPI PUSH1 0x40 MLOAD PUSH3 0x461BCD PUSH1 0xE5 SHL DUP2 MSTORE PUSH1 0x4 ADD PUSH2 0xBE6 SWAP1 PUSH2 0x4F31 JUMP JUMPDEST PUSH1 0x33 SLOAD PUSH1 0x40 MLOAD PUSH1 0x1 PUSH1 0x1 PUSH1 0xA0 SHL SUB DUP1 DUP5 AND SWAP3 AND SWAP1 PUSH1 0x0 DUP1 MLOAD PUSH1 0x20 PUSH2 0x5632 DUP4 CODECOPY DUP2 MLOAD SWAP2 MSTORE SWAP1 PUSH1 0x0 SWAP1 LOG3 PUSH1 0x33 DUP1 SLOAD PUSH1 0x1 PUSH1 0x1 PUSH1 0xA0 SHL SUB NOT AND PUSH1 0x1 PUSH1 0x1 PUSH1 0xA0 SHL SUB SWAP3 SWAP1 SWAP3 AND SWAP2 SWAP1 SWAP2 OR SWAP1 SSTORE JUMP JUMPDEST PUSH2 0x2A6D PUSH2 0x2B39 JUMP JUMPDEST PUSH1 0x1 PUSH1 0x1 PUSH1 0xA0 SHL SUB AND PUSH2 0x2A7E PUSH2 0x1FDA JUMP JUMPDEST PUSH1 0x1 PUSH1 0x1 PUSH1 0xA0 SHL SUB AND EQ PUSH2 0x2AA4 JUMPI PUSH1 0x40 MLOAD PUSH3 0x461BCD PUSH1 0xE5 SHL DUP2 MSTORE PUSH1 0x4 ADD PUSH2 0xBE6 SWAP1 PUSH2 0x51C1 JUMP JUMPDEST PUSH1 0x1 PUSH1 0x1 PUSH1 0xA0 SHL SUB AND PUSH1 0x0 SWAP1 DUP2 MSTORE PUSH1 0x6A PUSH1 0x20 SWAP1 DUP2 MSTORE PUSH1 0x40 DUP1 DUP4 KECCAK256 DUP1 SLOAD PUSH1 0xFF NOT AND PUSH1 0x1 OR SWAP1 SSTORE PUSH1 0x6B SWAP1 SWAP2 MSTORE DUP2 KECCAK256 SSTORE JUMP JUMPDEST SELFBALANCE SWAP1 JUMP JUMPDEST PUSH1 0x1 PUSH1 0x1 PUSH1 0xA0 SHL SUB AND PUSH1 0x0 SWAP1 DUP2 MSTORE PUSH1 0x6A PUSH1 0x20 MSTORE PUSH1 0x40 SWAP1 KECCAK256 SLOAD PUSH1 0xFF AND SWAP1 JUMP JUMPDEST PUSH2 0x2AFD PUSH2 0x2B39 JUMP JUMPDEST PUSH1 0x1 PUSH1 0x1 PUSH1 0xA0 SHL SUB AND PUSH2 0x2B0E PUSH2 0x1FDA JUMP JUMPDEST PUSH1 0x1 PUSH1 0x1 PUSH1 0xA0 SHL SUB AND EQ PUSH2 0x2B34 JUMPI PUSH1 0x40 MLOAD PUSH3 0x461BCD PUSH1 0xE5 SHL DUP2 MSTORE PUSH1 0x4 ADD PUSH2 0xBE6 SWAP1 PUSH2 0x51C1 JUMP JUMPDEST PUSH1 0x94 SSTORE JUMP JUMPDEST CALLER SWAP1 JUMP JUMPDEST DUP3 PUSH1 0x40 MLOAD DUP1 PUSH1 0x60 ADD PUSH1 0x40 MSTORE DUP1 PUSH1 0x26 DUP2 MSTORE PUSH1 0x20 ADD PUSH2 0x560C PUSH1 0x26 SWAP2 CODECOPY PUSH1 0x1 PUSH1 0x1 PUSH1 0xA0 SHL SUB DUP3 AND PUSH1 0x0 SWAP1 DUP2 MSTORE PUSH1 0x6A PUSH1 0x20 MSTORE PUSH1 0x40 SWAP1 KECCAK256 SLOAD DUP2 SWAP1 PUSH1 0xFF AND ISZERO PUSH2 0x2B93 JUMPI PUSH1 0x40 MLOAD PUSH3 0x461BCD PUSH1 0xE5 SHL DUP2 MSTORE PUSH1 0x4 ADD PUSH2 0xBE6 SWAP2 SWAP1 PUSH2 0x4E0B JUMP JUMPDEST POP DUP4 PUSH1 0x40 MLOAD DUP1 PUSH1 0x60 ADD PUSH1 0x40 MSTORE DUP1 PUSH1 0x28 DUP2 MSTORE PUSH1 0x20 ADD PUSH2 0x5599 PUSH1 0x28 SWAP2 CODECOPY PUSH1 0x1 PUSH1 0x1 PUSH1 0xA0 SHL SUB DUP3 AND PUSH1 0x0 SWAP1 DUP2 MSTORE PUSH1 0x6A PUSH1 0x20 MSTORE PUSH1 0x40 SWAP1 KECCAK256 SLOAD DUP2 SWAP1 PUSH1 0xFF AND ISZERO PUSH2 0x2BEA JUMPI PUSH1 0x40 MLOAD PUSH3 0x461BCD PUSH1 0xE5 SHL DUP2 MSTORE PUSH1 0x4 ADD PUSH2 0xBE6 SWAP2 SWAP1 PUSH2 0x4E0B JUMP JUMPDEST POP PUSH1 0x1 PUSH1 0x1 PUSH1 0xA0 SHL SUB DUP8 AND PUSH2 0x2C11 JUMPI PUSH1 0x40 MLOAD PUSH3 0x461BCD PUSH1 0xE5 SHL DUP2 MSTORE PUSH1 0x4 ADD PUSH2 0xBE6 SWAP1 PUSH2 0x4EA3 JUMP JUMPDEST PUSH1 0x1 PUSH1 0x1 PUSH1 0xA0 SHL SUB DUP7 AND PUSH2 0x2C37 JUMPI PUSH1 0x40 MLOAD PUSH3 0x461BCD PUSH1 0xE5 SHL DUP2 MSTORE PUSH1 0x4 ADD PUSH2 0xBE6 SWAP1 PUSH2 0x5411 JUMP JUMPDEST PUSH1 0x1 PUSH1 0x1 PUSH1 0xA0 SHL SUB DUP1 DUP9 AND PUSH1 0x0 DUP2 DUP2 MSTORE PUSH1 0x67 PUSH1 0x20 SWAP1 DUP2 MSTORE PUSH1 0x40 DUP1 DUP4 KECCAK256 SWAP5 DUP12 AND DUP1 DUP5 MSTORE SWAP5 SWAP1 SWAP2 MSTORE SWAP1 DUP2 SWAP1 KECCAK256 DUP9 SWAP1 SSTORE MLOAD PUSH32 0x8C5BE1E5EBEC7D5BD14F71427D1E84F3DD0314C0F7B2291E5B200AC8C7C3B925 SWAP1 PUSH2 0x2C92 SWAP1 DUP10 SWAP1 PUSH2 0x54AB JUMP JUMPDEST PUSH1 0x40 MLOAD DUP1 SWAP2 SUB SWAP1 LOG3 POP POP POP POP POP POP POP JUMP JUMPDEST PUSH2 0x2CAB PUSH2 0x2B39 JUMP JUMPDEST PUSH1 0x40 DUP1 MLOAD DUP1 DUP3 ADD DUP3 MSTORE PUSH1 0x20 DUP1 DUP3 MSTORE PUSH32 0x536166656D6F6F6E3A204164647265737320697320626C61636B6C6973746564 DUP2 DUP4 ADD MSTORE PUSH1 0x1 PUSH1 0x1 PUSH1 0xA0 SHL SUB DUP5 AND PUSH1 0x0 SWAP1 DUP2 MSTORE PUSH1 0x6A SWAP1 SWAP2 MSTORE SWAP2 SWAP1 SWAP2 KECCAK256 SLOAD DUP2 SWAP1 PUSH1 0xFF AND ISZERO PUSH2 0x2D1A JUMPI PUSH1 0x40 MLOAD PUSH3 0x461BCD PUSH1 0xE5 SHL DUP2 MSTORE PUSH1 0x4 ADD PUSH2 0xBE6 SWAP2 SWAP1 PUSH2 0x4E0B JUMP JUMPDEST POP DUP5 PUSH1 0x40 MLOAD DUP1 PUSH1 0x60 ADD PUSH1 0x40 MSTORE DUP1 PUSH1 0x25 DUP2 MSTORE PUSH1 0x20 ADD PUSH2 0x5574 PUSH1 0x25 SWAP2 CODECOPY PUSH1 0x1 PUSH1 0x1 PUSH1 0xA0 SHL SUB DUP3 AND PUSH1 0x0 SWAP1 DUP2 MSTORE PUSH1 0x6A PUSH1 0x20 MSTORE PUSH1 0x40 SWAP1 KECCAK256 SLOAD DUP2 SWAP1 PUSH1 0xFF AND ISZERO PUSH2 0x2D71 JUMPI PUSH1 0x40 MLOAD PUSH3 0x461BCD PUSH1 0xE5 SHL DUP2 MSTORE PUSH1 0x4 ADD PUSH2 0xBE6 SWAP2 SWAP1 PUSH2 0x4E0B JUMP JUMPDEST POP DUP6 PUSH1 0x40 MLOAD DUP1 PUSH1 0x60 ADD PUSH1 0x40 MSTORE DUP1 PUSH1 0x23 DUP2 MSTORE PUSH1 0x20 ADD PUSH2 0x55E9 PUSH1 0x23 SWAP2 CODECOPY PUSH1 0x1 PUSH1 0x1 PUSH1 0xA0 SHL SUB DUP3 AND PUSH1 0x0 SWAP1 DUP2 MSTORE PUSH1 0x6A PUSH1 0x20 MSTORE PUSH1 0x40 SWAP1 KECCAK256 SLOAD DUP2 SWAP1 PUSH1 0xFF AND ISZERO PUSH2 0x2DC8 JUMPI PUSH1 0x40 MLOAD PUSH3 0x461BCD PUSH1 0xE5 SHL DUP2 MSTORE PUSH1 0x4 ADD PUSH2 0xBE6 SWAP2 SWAP1 PUSH2 0x4E0B JUMP JUMPDEST POP PUSH2 0x2DD1 PUSH2 0x2B39 JUMP JUMPDEST DUP1 EXTCODESIZE PUSH4 0xFFFFFFFF DUP2 AND ISZERO PUSH2 0x2E96 JUMPI PUSH1 0x1 PUSH1 0x1 PUSH1 0xA0 SHL SUB DUP3 AND PUSH1 0x0 SWAP1 DUP2 MSTORE PUSH1 0x6B PUSH1 0x20 MSTORE PUSH1 0x40 SWAP1 KECCAK256 SLOAD DUP1 PUSH2 0x2E94 JUMPI PUSH1 0x0 DUP4 SWAP1 POP DUP1 PUSH1 0x1 PUSH1 0x1 PUSH1 0xA0 SHL SUB AND PUSH4 0xC45A0155 PUSH1 0x40 MLOAD DUP2 PUSH4 0xFFFFFFFF AND PUSH1 0xE0 SHL DUP2 MSTORE PUSH1 0x4 ADD PUSH1 0x20 PUSH1 0x40 MLOAD DUP1 DUP4 SUB DUP2 DUP7 DUP1 EXTCODESIZE ISZERO DUP1 ISZERO PUSH2 0x2E3B JUMPI PUSH1 0x0 DUP1 REVERT JUMPDEST POP GAS STATICCALL SWAP3 POP POP POP DUP1 ISZERO PUSH2 0x2E6B JUMPI POP PUSH1 0x40 DUP1 MLOAD PUSH1 0x1F RETURNDATASIZE SWAP1 DUP2 ADD PUSH1 0x1F NOT AND DUP3 ADD SWAP1 SWAP3 MSTORE PUSH2 0x2E68 SWAP2 DUP2 ADD SWAP1 PUSH2 0x4A7C JUMP JUMPDEST PUSH1 0x1 JUMPDEST PUSH2 0x2E74 JUMPI PUSH2 0x2E92 JUMP JUMPDEST POP PUSH1 0x1 PUSH1 0x1 PUSH1 0xA0 SHL SUB DUP5 AND PUSH1 0x0 SWAP1 DUP2 MSTORE PUSH1 0x6B PUSH1 0x20 MSTORE PUSH1 0x40 SWAP1 KECCAK256 PUSH1 0x1 SWAP1 SSTORE JUMPDEST POP JUMPDEST POP JUMPDEST POP PUSH1 0x1 PUSH1 0x1 PUSH1 0xA0 SHL SUB DUP11 AND PUSH2 0x2EBD JUMPI PUSH1 0x40 MLOAD PUSH3 0x461BCD PUSH1 0xE5 SHL DUP2 MSTORE PUSH1 0x4 ADD PUSH2 0xBE6 SWAP1 PUSH2 0x4E5E JUMP JUMPDEST PUSH1 0x1 PUSH1 0x1 PUSH1 0xA0 SHL SUB DUP10 AND PUSH2 0x2EE3 JUMPI PUSH1 0x40 MLOAD PUSH3 0x461BCD PUSH1 0xE5 SHL DUP2 MSTORE PUSH1 0x4 ADD PUSH2 0xBE6 SWAP1 PUSH2 0x52F9 JUMP JUMPDEST PUSH1 0x0 DUP9 GT PUSH2 0x2F03 JUMPI PUSH1 0x40 MLOAD PUSH3 0x461BCD PUSH1 0xE5 SHL DUP2 MSTORE PUSH1 0x4 ADD PUSH2 0xBE6 SWAP1 PUSH2 0x5229 JUMP JUMPDEST PUSH2 0x2F0B PUSH2 0x1FDA JUMP JUMPDEST PUSH1 0x1 PUSH1 0x1 PUSH1 0xA0 SHL SUB AND DUP11 PUSH1 0x1 PUSH1 0x1 PUSH1 0xA0 SHL SUB AND EQ ISZERO DUP1 ISZERO PUSH2 0x2F45 JUMPI POP PUSH2 0x2F2F PUSH2 0x1FDA JUMP JUMPDEST PUSH1 0x1 PUSH1 0x1 PUSH1 0xA0 SHL SUB AND DUP10 PUSH1 0x1 PUSH1 0x1 PUSH1 0xA0 SHL SUB AND EQ ISZERO JUMPDEST ISZERO PUSH2 0x2F6C JUMPI PUSH1 0x90 SLOAD DUP9 GT ISZERO PUSH2 0x2F6C JUMPI PUSH1 0x40 MLOAD PUSH3 0x461BCD PUSH1 0xE5 SHL DUP2 MSTORE PUSH1 0x4 ADD PUSH2 0xBE6 SWAP1 PUSH2 0x504E JUMP JUMPDEST PUSH1 0x0 PUSH2 0x2F77 ADDRESS PUSH2 0x19C2 JUMP JUMPDEST SWAP1 POP PUSH1 0x90 SLOAD DUP2 LT PUSH2 0x2F87 JUMPI POP PUSH1 0x90 SLOAD JUMPDEST PUSH1 0x93 SLOAD DUP2 LT DUP1 ISZERO SWAP1 DUP2 SWAP1 PUSH2 0x2FA5 JUMPI POP PUSH1 0x8F SLOAD PUSH1 0x1 PUSH1 0xA0 SHL SWAP1 DIV PUSH1 0xFF AND ISZERO JUMPDEST DUP1 ISZERO PUSH2 0x2FBF JUMPI POP PUSH1 0x8B SLOAD PUSH1 0x1 PUSH1 0x1 PUSH1 0xA0 SHL SUB DUP14 DUP2 AND SWAP2 AND EQ ISZERO JUMPDEST DUP1 ISZERO PUSH2 0x2FD2 JUMPI POP PUSH1 0x95 SLOAD PUSH2 0x100 SWAP1 DIV PUSH1 0xFF AND JUMPDEST ISZERO PUSH2 0x2FE5 JUMPI PUSH1 0x93 SLOAD SWAP2 POP PUSH2 0x2FE5 DUP3 PUSH2 0x3AB3 JUMP JUMPDEST PUSH1 0x1 PUSH1 0x1 PUSH1 0xA0 SHL SUB DUP13 AND PUSH1 0x0 SWAP1 DUP2 MSTORE PUSH1 0x68 PUSH1 0x20 MSTORE PUSH1 0x40 SWAP1 KECCAK256 SLOAD PUSH1 0x1 SWAP1 PUSH1 0xFF AND DUP1 PUSH2 0x3027 JUMPI POP PUSH1 0x1 PUSH1 0x1 PUSH1 0xA0 SHL SUB DUP13 AND PUSH1 0x0 SWAP1 DUP2 MSTORE PUSH1 0x68 PUSH1 0x20 MSTORE PUSH1 0x40 SWAP1 KECCAK256 SLOAD PUSH1 0xFF AND JUMPDEST ISZERO PUSH2 0x3030 JUMPI POP PUSH1 0x0 JUMPDEST PUSH1 0x0 DUP2 ISZERO PUSH2 0x3099 JUMPI POP PUSH1 0x1 PUSH1 0x1 PUSH1 0xA0 SHL SUB DUP14 AND PUSH1 0x0 DUP2 DUP2 MSTORE PUSH1 0x6B PUSH1 0x20 MSTORE PUSH1 0x40 SWAP1 KECCAK256 SLOAD SWAP1 PUSH2 0x305B PUSH2 0x2B39 JUMP JUMPDEST PUSH1 0x1 PUSH1 0x1 PUSH1 0xA0 SHL SUB AND EQ PUSH2 0x3099 JUMPI PUSH1 0x6B PUSH1 0x0 PUSH2 0x3075 PUSH2 0x2B39 JUMP JUMPDEST PUSH1 0x1 PUSH1 0x1 PUSH1 0xA0 SHL SUB AND PUSH1 0x1 PUSH1 0x1 PUSH1 0xA0 SHL SUB AND DUP2 MSTORE PUSH1 0x20 ADD SWAP1 DUP2 MSTORE PUSH1 0x20 ADD PUSH1 0x0 KECCAK256 SLOAD SWAP1 POP JUMPDEST PUSH2 0x30A6 DUP15 DUP15 DUP15 DUP5 DUP7 PUSH2 0x3ADF JUMP JUMPDEST POP POP POP POP POP POP POP POP POP POP POP POP POP POP JUMP JUMPDEST PUSH1 0x0 DUP2 DUP5 DUP5 GT ISZERO PUSH2 0x30DA JUMPI PUSH1 0x40 MLOAD PUSH3 0x461BCD PUSH1 0xE5 SHL DUP2 MSTORE PUSH1 0x4 ADD PUSH2 0xBE6 SWAP2 SWAP1 PUSH2 0x4E0B JUMP JUMPDEST POP POP POP SWAP1 SUB SWAP1 JUMP JUMPDEST PUSH1 0x0 DUP1 PUSH1 0x0 PUSH2 0x30EF PUSH2 0x3C46 JUMP JUMPDEST SWAP1 SWAP3 POP SWAP1 POP PUSH2 0x30FE DUP3 DUP3 PUSH2 0x3105 JUMP JUMPDEST SWAP3 POP POP POP SWAP1 JUMP JUMPDEST PUSH1 0x0 DUP1 DUP3 GT PUSH2 0x3126 JUMPI PUSH1 0x40 MLOAD PUSH3 0x461BCD PUSH1 0xE5 SHL DUP2 MSTORE PUSH1 0x4 ADD PUSH2 0xBE6 SWAP1 PUSH2 0x4FE3 JUMP JUMPDEST DUP2 DUP4 DUP2 PUSH2 0x312F JUMPI INVALID JUMPDEST DIV SWAP4 SWAP3 POP POP POP JUMP JUMPDEST PUSH1 0x0 PUSH2 0x3180 DUP3 PUSH2 0x3174 DUP6 PUSH2 0x317A DUP9 PUSH1 0x80 ADD MLOAD PUSH2 0x3174 DUP11 PUSH1 0x60 ADD MLOAD PUSH2 0x3174 DUP13 PUSH1 0x40 ADD MLOAD PUSH2 0x3174 DUP15 PUSH1 0x20 ADD MLOAD DUP16 PUSH1 0x0 ADD MLOAD PUSH2 0x31CC SWAP1 SWAP2 SWAP1 PUSH4 0xFFFFFFFF AND JUMP JUMPDEST SWAP1 PUSH2 0x31CC JUMP JUMPDEST SWAP1 PUSH2 0x31A4 JUMP JUMPDEST SWAP1 POP PUSH1 0x70 SLOAD DUP2 GT ISZERO PUSH2 0x111D JUMPI PUSH1 0x40 MLOAD PUSH3 0x461BCD PUSH1 0xE5 SHL DUP2 MSTORE PUSH1 0x4 ADD PUSH2 0xBE6 SWAP1 PUSH2 0x53CB JUMP JUMPDEST PUSH1 0x0 DUP3 DUP3 GT ISZERO PUSH2 0x31C6 JUMPI PUSH1 0x40 MLOAD PUSH3 0x461BCD PUSH1 0xE5 SHL DUP2 MSTORE PUSH1 0x4 ADD PUSH2 0xBE6 SWAP1 PUSH2 0x4FAC JUMP JUMPDEST POP SWAP1 SUB SWAP1 JUMP JUMPDEST PUSH1 0x0 DUP3 DUP3 ADD DUP4 DUP2 LT ISZERO PUSH2 0xF0E JUMPI PUSH1 0x40 MLOAD PUSH3 0x461BCD PUSH1 0xE5 SHL DUP2 MSTORE PUSH1 0x4 ADD PUSH2 0xBE6 SWAP1 PUSH2 0x4F77 JUMP JUMPDEST PUSH2 0x31F9 PUSH2 0x48FC JUMP JUMPDEST PUSH2 0x3201 PUSH2 0x48FC JUMP JUMPDEST PUSH2 0x324E PUSH1 0x40 MLOAD DUP1 PUSH1 0xE0 ADD PUSH1 0x40 MSTORE DUP1 DUP12 DUP2 MSTORE PUSH1 0x20 ADD DUP11 DUP2 MSTORE PUSH1 0x20 ADD DUP10 DUP2 MSTORE PUSH1 0x20 ADD DUP9 DUP2 MSTORE PUSH1 0x20 ADD DUP8 DUP2 MSTORE PUSH1 0x20 ADD DUP7 PUSH1 0x1 PUSH1 0x1 PUSH1 0xA0 SHL SUB AND DUP2 MSTORE PUSH1 0x20 ADD DUP6 PUSH1 0x1 PUSH1 0x1 PUSH1 0xA0 SHL SUB AND DUP2 MSTORE POP PUSH2 0x3CDF JUMP JUMPDEST SWAP1 POP PUSH2 0x3259 DUP5 PUSH2 0x178D JUMP JUMPDEST PUSH2 0x3262 DUP4 PUSH2 0x178D JUMP JUMPDEST PUSH1 0x89 DUP1 SLOAD PUSH1 0x1 DUP2 ADD DUP3 SSTORE PUSH1 0x0 SWAP2 SWAP1 SWAP2 MSTORE DUP2 MLOAD PUSH32 0x5BFA74C743914028161AE645D300D90BBDC659F169CA1469EC86B4960F7266CB PUSH1 0x7 SWAP1 SWAP3 MUL SWAP2 DUP3 ADD SSTORE PUSH1 0x20 DUP3 ADD MLOAD PUSH32 0x5BFA74C743914028161AE645D300D90BBDC659F169CA1469EC86B4960F7266CC DUP3 ADD SSTORE PUSH1 0x40 DUP3 ADD MLOAD PUSH32 0x5BFA74C743914028161AE645D300D90BBDC659F169CA1469EC86B4960F7266CD DUP3 ADD SSTORE PUSH1 0x60 DUP3 ADD MLOAD PUSH32 0x5BFA74C743914028161AE645D300D90BBDC659F169CA1469EC86B4960F7266CE DUP3 ADD SSTORE PUSH1 0x80 DUP3 ADD MLOAD PUSH32 0x5BFA74C743914028161AE645D300D90BBDC659F169CA1469EC86B4960F7266CF DUP3 ADD SSTORE PUSH1 0xA0 DUP3 ADD MLOAD PUSH32 0x5BFA74C743914028161AE645D300D90BBDC659F169CA1469EC86B4960F7266D0 DUP3 ADD DUP1 SLOAD PUSH1 0x1 PUSH1 0x1 PUSH1 0xA0 SHL SUB NOT SWAP1 DUP2 AND PUSH1 0x1 PUSH1 0x1 PUSH1 0xA0 SHL SUB SWAP4 DUP5 AND OR SWAP1 SWAP2 SSTORE PUSH1 0xC0 DUP5 ADD MLOAD PUSH32 0x5BFA74C743914028161AE645D300D90BBDC659F169CA1469EC86B4960F7266D1 SWAP1 SWAP4 ADD DUP1 SLOAD SWAP1 SWAP2 AND SWAP3 SWAP1 SWAP2 AND SWAP2 SWAP1 SWAP2 OR SWAP1 SSTORE SWAP9 SWAP8 POP POP POP POP POP POP POP POP JUMP JUMPDEST PUSH1 0x0 PUSH2 0x33D6 ADDRESS PUSH2 0x3D47 JUMP JUMPDEST ISZERO SWAP1 POP SWAP1 JUMP JUMPDEST PUSH1 0x0 SLOAD PUSH2 0x100 SWAP1 DIV PUSH1 0xFF AND DUP1 PUSH2 0x33F5 JUMPI POP PUSH2 0x33F5 PUSH2 0x33CB JUMP JUMPDEST DUP1 PUSH2 0x3403 JUMPI POP PUSH1 0x0 SLOAD PUSH1 0xFF AND ISZERO JUMPDEST PUSH2 0x341F JUMPI PUSH1 0x40 MLOAD PUSH3 0x461BCD PUSH1 0xE5 SHL DUP2 MSTORE PUSH1 0x4 ADD PUSH2 0xBE6 SWAP1 PUSH2 0x5096 JUMP JUMPDEST PUSH1 0x0 SLOAD PUSH2 0x100 SWAP1 DIV PUSH1 0xFF AND ISZERO DUP1 ISZERO PUSH2 0x1C25 JUMPI PUSH1 0x0 DUP1 SLOAD PUSH1 0xFF NOT PUSH2 0xFF00 NOT SWAP1 SWAP2 AND PUSH2 0x100 OR AND PUSH1 0x1 OR SWAP1 SSTORE DUP1 ISZERO PUSH2 0x19AF JUMPI PUSH1 0x0 DUP1 SLOAD PUSH2 0xFF00 NOT AND SWAP1 SSTORE POP JUMP JUMPDEST PUSH1 0x0 SLOAD PUSH2 0x100 SWAP1 DIV PUSH1 0xFF AND DUP1 PUSH2 0x3476 JUMPI POP PUSH2 0x3476 PUSH2 0x33CB JUMP JUMPDEST DUP1 PUSH2 0x3484 JUMPI POP PUSH1 0x0 SLOAD PUSH1 0xFF AND ISZERO JUMPDEST PUSH2 0x34A0 JUMPI PUSH1 0x40 MLOAD PUSH3 0x461BCD PUSH1 0xE5 SHL DUP2 MSTORE PUSH1 0x4 ADD PUSH2 0xBE6 SWAP1 PUSH2 0x5096 JUMP JUMPDEST PUSH1 0x0 SLOAD PUSH2 0x100 SWAP1 DIV PUSH1 0xFF AND ISZERO DUP1 ISZERO PUSH2 0x34CB JUMPI PUSH1 0x0 DUP1 SLOAD PUSH1 0xFF NOT PUSH2 0xFF00 NOT SWAP1 SWAP2 AND PUSH2 0x100 OR AND PUSH1 0x1 OR SWAP1 SSTORE JUMPDEST PUSH1 0x0 PUSH2 0x34D5 PUSH2 0x2B39 JUMP JUMPDEST PUSH1 0x33 DUP1 SLOAD PUSH1 0x1 PUSH1 0x1 PUSH1 0xA0 SHL SUB NOT AND PUSH1 0x1 PUSH1 0x1 PUSH1 0xA0 SHL SUB DUP4 AND SWAP1 DUP2 OR SWAP1 SWAP2 SSTORE PUSH1 0x40 MLOAD SWAP2 SWAP3 POP SWAP1 PUSH1 0x0 SWAP1 PUSH1 0x0 DUP1 MLOAD PUSH1 0x20 PUSH2 0x5632 DUP4 CODECOPY DUP2 MLOAD SWAP2 MSTORE SWAP1 DUP3 SWAP1 LOG3 POP DUP1 ISZERO PUSH2 0x19AF JUMPI PUSH1 0x0 DUP1 SLOAD PUSH2 0xFF00 NOT AND SWAP1 SSTORE POP JUMP JUMPDEST PUSH1 0x0 SLOAD PUSH2 0x100 SWAP1 DIV PUSH1 0xFF AND DUP1 PUSH2 0x353E JUMPI POP PUSH2 0x353E PUSH2 0x33CB JUMP JUMPDEST DUP1 PUSH2 0x354C JUMPI POP PUSH1 0x0 SLOAD PUSH1 0xFF AND ISZERO JUMPDEST PUSH2 0x3568 JUMPI PUSH1 0x40 MLOAD PUSH3 0x461BCD PUSH1 0xE5 SHL DUP2 MSTORE PUSH1 0x4 ADD PUSH2 0xBE6 SWAP1 PUSH2 0x5096 JUMP JUMPDEST PUSH1 0x0 SLOAD PUSH2 0x100 SWAP1 DIV PUSH1 0xFF AND ISZERO DUP1 ISZERO PUSH2 0x3593 JUMPI PUSH1 0x0 DUP1 SLOAD PUSH1 0xFF NOT PUSH2 0xFF00 NOT SWAP1 SWAP2 AND PUSH2 0x100 OR AND PUSH1 0x1 OR SWAP1 SSTORE JUMPDEST PUSH1 0x40 DUP1 MLOAD DUP1 DUP3 ADD SWAP1 SWAP2 MSTORE PUSH1 0x8 DUP1 DUP3 MSTORE PUSH8 0x29B0B332A6B7B7B7 PUSH1 0xC1 SHL PUSH1 0x20 SWAP1 SWAP3 ADD SWAP2 DUP3 MSTORE PUSH2 0x35C2 SWAP2 PUSH1 0x71 SWAP2 PUSH2 0x4997 JUMP JUMPDEST POP PUSH1 0x40 DUP1 MLOAD DUP1 DUP3 ADD SWAP1 SWAP2 MSTORE PUSH1 0x3 DUP1 DUP3 MSTORE PUSH3 0x53464D PUSH1 0xE8 SHL PUSH1 0x20 SWAP1 SWAP3 ADD SWAP2 DUP3 MSTORE PUSH2 0x35ED SWAP2 PUSH1 0x72 SWAP2 PUSH2 0x4997 JUMP JUMPDEST POP PUSH1 0x73 DUP1 SLOAD PUSH1 0xFF NOT AND PUSH1 0x9 OR SWAP1 SSTORE PUSH9 0x3635C9ADC5DEA00000 PUSH1 0x6D DUP2 SWAP1 SSTORE PUSH1 0x0 NOT MOD NOT PUSH1 0x6E SSTORE PUSH2 0x3E8 PUSH1 0x70 SSTORE PUSH8 0x4563918244F40000 PUSH1 0x90 SSTORE PUSH8 0x6F05B59D3B20000 PUSH1 0x91 SSTORE PUSH1 0x8F DUP1 SLOAD PUSH1 0x1 PUSH1 0x1 PUSH1 0xA0 SHL SUB NOT AND PUSH2 0xDEAD OR SWAP1 SSTORE PUSH2 0x364C PUSH2 0x2B39 JUMP JUMPDEST PUSH1 0x8E DUP1 SLOAD PUSH1 0x1 PUSH1 0x1 PUSH1 0xA0 SHL SUB NOT AND PUSH1 0x1 PUSH1 0x1 PUSH1 0xA0 SHL SUB SWAP3 DUP4 AND OR SWAP1 DUP2 SWAP1 SSTORE PUSH1 0x6E SLOAD SWAP2 AND PUSH1 0x0 SWAP1 DUP2 MSTORE PUSH1 0x65 PUSH1 0x20 MSTORE PUSH1 0x40 DUP2 KECCAK256 SWAP2 SWAP1 SWAP2 SSTORE PUSH1 0x1 SWAP1 PUSH1 0x68 SWAP1 PUSH2 0x368F PUSH2 0x1FDA JUMP JUMPDEST PUSH1 0x1 PUSH1 0x1 PUSH1 0xA0 SHL SUB AND DUP2 MSTORE PUSH1 0x20 DUP1 DUP3 ADD SWAP3 SWAP1 SWAP3 MSTORE PUSH1 0x40 SWAP1 DUP2 ADD PUSH1 0x0 SWAP1 DUP2 KECCAK256 DUP1 SLOAD SWAP5 ISZERO ISZERO PUSH1 0xFF NOT SWAP6 DUP7 AND OR SWAP1 SSTORE ADDRESS DUP2 MSTORE PUSH1 0x68 SWAP1 SWAP3 MSTORE SWAP1 KECCAK256 DUP1 SLOAD SWAP1 SWAP2 AND PUSH1 0x1 OR SWAP1 SSTORE PUSH2 0x36D7 PUSH2 0x3D4D JUMP JUMPDEST PUSH2 0x36DF PUSH2 0x2B39 JUMP JUMPDEST PUSH1 0x1 PUSH1 0x1 PUSH1 0xA0 SHL SUB AND PUSH1 0x0 PUSH1 0x1 PUSH1 0x1 PUSH1 0xA0 SHL SUB AND PUSH1 0x0 DUP1 MLOAD PUSH1 0x20 PUSH2 0x5652 DUP4 CODECOPY DUP2 MLOAD SWAP2 MSTORE PUSH1 0x6D SLOAD PUSH1 0x40 MLOAD PUSH2 0x3712 SWAP2 SWAP1 PUSH2 0x54AB JUMP JUMPDEST PUSH1 0x40 MLOAD DUP1 SWAP2 SUB SWAP1 LOG3 DUP1 ISZERO PUSH2 0x19AF JUMPI PUSH1 0x0 DUP1 SLOAD PUSH2 0xFF00 NOT AND SWAP1 SSTORE POP JUMP JUMPDEST PUSH1 0x40 DUP1 MLOAD PUSH1 0x2 DUP1 DUP3 MSTORE PUSH1 0x60 DUP1 DUP4 ADD DUP5 MSTORE SWAP3 PUSH1 0x20 DUP4 ADD SWAP1 DUP1 CALLDATASIZE DUP4 CALLDATACOPY POP POP PUSH1 0x8A SLOAD PUSH1 0x40 DUP1 MLOAD PUSH4 0x15AB88C9 PUSH1 0xE3 SHL DUP2 MSTORE SWAP1 MLOAD SWAP4 SWAP5 POP PUSH1 0x1 PUSH1 0x1 PUSH1 0xA0 SHL SUB SWAP1 SWAP2 AND SWAP3 PUSH4 0xAD5C4648 SWAP3 POP PUSH1 0x4 DUP1 DUP4 ADD SWAP3 PUSH1 0x20 SWAP3 SWAP2 SWAP1 DUP3 SWAP1 SUB ADD DUP2 DUP7 DUP1 EXTCODESIZE ISZERO DUP1 ISZERO PUSH2 0x3792 JUMPI PUSH1 0x0 DUP1 REVERT JUMPDEST POP GAS STATICCALL ISZERO DUP1 ISZERO PUSH2 0x37A6 JUMPI RETURNDATASIZE PUSH1 0x0 DUP1 RETURNDATACOPY RETURNDATASIZE PUSH1 0x0 REVERT JUMPDEST POP POP POP POP PUSH1 0x40 MLOAD RETURNDATASIZE PUSH1 0x1F NOT PUSH1 0x1F DUP3 ADD AND DUP3 ADD DUP1 PUSH1 0x40 MSTORE POP DUP2 ADD SWAP1 PUSH2 0x37CA SWAP2 SWAP1 PUSH2 0x4A7C JUMP JUMPDEST DUP2 PUSH1 0x0 DUP2 MLOAD DUP2 LT PUSH2 0x37D7 JUMPI INVALID JUMPDEST PUSH1 0x20 MUL PUSH1 0x20 ADD ADD SWAP1 PUSH1 0x1 PUSH1 0x1 PUSH1 0xA0 SHL SUB AND SWAP1 DUP2 PUSH1 0x1 PUSH1 0x1 PUSH1 0xA0 SHL SUB AND DUP2 MSTORE POP POP ADDRESS DUP2 PUSH1 0x1 DUP2 MLOAD DUP2 LT PUSH2 0x3805 JUMPI INVALID JUMPDEST PUSH1 0x20 MUL PUSH1 0x20 ADD ADD SWAP1 PUSH1 0x1 PUSH1 0x1 PUSH1 0xA0 SHL SUB AND SWAP1 DUP2 PUSH1 0x1 PUSH1 0x1 PUSH1 0xA0 SHL SUB AND DUP2 MSTORE POP POP PUSH2 0x3842 PUSH2 0x3830 PUSH2 0x1FDA JUMP JUMPDEST PUSH1 0x8A SLOAD PUSH1 0x1 PUSH1 0x1 PUSH1 0xA0 SHL SUB AND DUP5 PUSH2 0x2B3D JUMP JUMPDEST PUSH1 0x8A SLOAD PUSH1 0x1 PUSH1 0x1 PUSH1 0xA0 SHL SUB AND PUSH4 0xB6F9DE95 DUP4 PUSH1 0x0 DUP5 PUSH2 0x385F PUSH2 0x1FDA JUMP JUMPDEST TIMESTAMP PUSH1 0x40 MLOAD DUP7 PUSH4 0xFFFFFFFF AND PUSH1 0xE0 SHL DUP2 MSTORE PUSH1 0x4 ADD PUSH2 0x387F SWAP5 SWAP4 SWAP3 SWAP2 SWAP1 PUSH2 0x4DD6 JUMP JUMPDEST PUSH1 0x0 PUSH1 0x40 MLOAD DUP1 DUP4 SUB DUP2 DUP6 DUP9 DUP1 EXTCODESIZE ISZERO DUP1 ISZERO PUSH2 0x3898 JUMPI PUSH1 0x0 DUP1 REVERT JUMPDEST POP GAS CALL ISZERO DUP1 ISZERO PUSH2 0x38AC JUMPI RETURNDATASIZE PUSH1 0x0 DUP1 RETURNDATACOPY RETURNDATASIZE PUSH1 0x0 REVERT JUMPDEST POP POP POP POP POP POP POP JUMP JUMPDEST PUSH1 0x8A SLOAD PUSH2 0x38CD SWAP1 ADDRESS SWAP1 PUSH1 0x1 PUSH1 0x1 PUSH1 0xA0 SHL SUB AND DUP5 PUSH2 0x2B3D JUMP JUMPDEST PUSH1 0x8A SLOAD PUSH1 0x1 PUSH1 0x1 PUSH1 0xA0 SHL SUB AND PUSH4 0xF305D719 DUP3 ADDRESS DUP6 PUSH1 0x0 DUP1 PUSH2 0x38EC PUSH2 0x1FDA JUMP JUMPDEST TIMESTAMP PUSH1 0x40 MLOAD DUP9 PUSH4 0xFFFFFFFF AND PUSH1 0xE0 SHL DUP2 MSTORE PUSH1 0x4 ADD PUSH2 0x390E SWAP7 SWAP6 SWAP5 SWAP4 SWAP3 SWAP2 SWAP1 PUSH2 0x4D90 JUMP JUMPDEST PUSH1 0x60 PUSH1 0x40 MLOAD DUP1 DUP4 SUB DUP2 DUP6 DUP9 DUP1 EXTCODESIZE ISZERO DUP1 ISZERO PUSH2 0x3927 JUMPI PUSH1 0x0 DUP1 REVERT JUMPDEST POP GAS CALL ISZERO DUP1 ISZERO PUSH2 0x393B JUMPI RETURNDATASIZE PUSH1 0x0 DUP1 RETURNDATACOPY RETURNDATASIZE PUSH1 0x0 REVERT JUMPDEST POP POP POP POP POP PUSH1 0x40 MLOAD RETURNDATASIZE PUSH1 0x1F NOT PUSH1 0x1F DUP3 ADD AND DUP3 ADD DUP1 PUSH1 0x40 MSTORE POP DUP2 ADD SWAP1 PUSH2 0x3960 SWAP2 SWAP1 PUSH2 0x4C44 JUMP JUMPDEST POP POP POP POP POP JUMP JUMPDEST PUSH1 0x1 PUSH1 0x1 PUSH1 0xA0 SHL SUB DUP3 AND PUSH2 0x398D JUMPI PUSH1 0x40 MLOAD PUSH3 0x461BCD PUSH1 0xE5 SHL DUP2 MSTORE PUSH1 0x4 ADD PUSH2 0xBE6 SWAP1 PUSH2 0x518A JUMP JUMPDEST PUSH1 0x8E SLOAD PUSH2 0x1343 SWAP1 PUSH1 0x1 PUSH1 0x1 PUSH1 0xA0 SHL SUB AND DUP4 DUP4 PUSH1 0x0 DUP1 PUSH2 0x3ADF JUMP JUMPDEST PUSH2 0x39AF PUSH2 0x494B JUMP JUMPDEST PUSH2 0x39B7 PUSH2 0x4A15 JUMP JUMPDEST PUSH2 0x39C1 DUP5 DUP5 PUSH2 0x3E7A JUMP JUMPDEST SWAP1 POP PUSH1 0x0 PUSH2 0x39F0 DUP3 PUSH1 0xA0 ADD MLOAD PUSH2 0x3174 DUP5 PUSH1 0x80 ADD MLOAD PUSH2 0x3174 DUP7 PUSH1 0x20 ADD MLOAD DUP8 PUSH1 0x40 ADD MLOAD PUSH2 0x31CC SWAP1 SWAP2 SWAP1 PUSH4 0xFFFFFFFF AND JUMP JUMPDEST SWAP1 POP PUSH1 0x0 DUP1 PUSH1 0x0 PUSH2 0x3A0E DUP9 DUP7 PUSH1 0x60 ADD MLOAD DUP7 PUSH2 0x3A09 PUSH2 0x30E2 JUMP JUMPDEST PUSH2 0x3FC0 JUMP JUMPDEST SWAP3 POP SWAP3 POP SWAP3 POP PUSH1 0x40 MLOAD DUP1 PUSH2 0x120 ADD PUSH1 0x40 MSTORE DUP1 DUP5 DUP2 MSTORE PUSH1 0x20 ADD DUP4 DUP2 MSTORE PUSH1 0x20 ADD DUP3 DUP2 MSTORE PUSH1 0x20 ADD DUP7 PUSH1 0x0 ADD MLOAD DUP2 MSTORE PUSH1 0x20 ADD DUP7 PUSH1 0x20 ADD MLOAD DUP2 MSTORE PUSH1 0x20 ADD DUP7 PUSH1 0x40 ADD MLOAD DUP2 MSTORE PUSH1 0x20 ADD DUP7 PUSH1 0x60 ADD MLOAD DUP2 MSTORE PUSH1 0x20 ADD DUP7 PUSH1 0x80 ADD MLOAD DUP2 MSTORE PUSH1 0x20 ADD DUP7 PUSH1 0xA0 ADD MLOAD DUP2 MSTORE POP SWAP6 POP POP POP POP POP POP SWAP3 SWAP2 POP POP JUMP JUMPDEST PUSH1 0x0 DUP3 PUSH2 0x3A88 JUMPI POP PUSH1 0x0 PUSH2 0xBA1 JUMP JUMPDEST DUP3 DUP3 MUL DUP3 DUP5 DUP3 DUP2 PUSH2 0x3A95 JUMPI INVALID JUMPDEST DIV EQ PUSH2 0xF0E JUMPI PUSH1 0x40 MLOAD PUSH3 0x461BCD PUSH1 0xE5 SHL DUP2 MSTORE PUSH1 0x4 ADD PUSH2 0xBE6 SWAP1 PUSH2 0x5149 JUMP JUMPDEST PUSH1 0x8F DUP1 SLOAD PUSH1 0xFF PUSH1 0xA0 SHL NOT AND PUSH1 0x1 PUSH1 0xA0 SHL OR SWAP1 SSTORE PUSH2 0x3ACF DUP2 PUSH2 0x4010 JUMP JUMPDEST POP PUSH1 0x8F DUP1 SLOAD PUSH1 0xFF PUSH1 0xA0 SHL NOT AND SWAP1 SSTORE JUMP JUMPDEST DUP1 PUSH2 0x3AEC JUMPI PUSH2 0x3AEC PUSH2 0x416C JUMP JUMPDEST PUSH1 0x1 PUSH1 0x1 PUSH1 0xA0 SHL SUB DUP6 AND PUSH1 0x0 SWAP1 DUP2 MSTORE PUSH1 0x69 PUSH1 0x20 MSTORE PUSH1 0x40 SWAP1 KECCAK256 SLOAD PUSH1 0xFF AND ISZERO DUP1 ISZERO PUSH2 0x3B2E JUMPI POP PUSH1 0x1 PUSH1 0x1 PUSH1 0xA0 SHL SUB DUP5 AND PUSH1 0x0 SWAP1 DUP2 MSTORE PUSH1 0x69 PUSH1 0x20 MSTORE PUSH1 0x40 SWAP1 KECCAK256 SLOAD PUSH1 0xFF AND ISZERO JUMPDEST ISZERO PUSH2 0x3B44 JUMPI PUSH2 0x3B3F DUP6 DUP6 DUP6 DUP6 PUSH2 0x426E JUMP JUMPDEST PUSH2 0x3C39 JUMP JUMPDEST PUSH1 0x1 PUSH1 0x1 PUSH1 0xA0 SHL SUB DUP6 AND PUSH1 0x0 SWAP1 DUP2 MSTORE PUSH1 0x69 PUSH1 0x20 MSTORE PUSH1 0x40 SWAP1 KECCAK256 SLOAD PUSH1 0xFF AND DUP1 ISZERO PUSH2 0x3B85 JUMPI POP PUSH1 0x1 PUSH1 0x1 PUSH1 0xA0 SHL SUB DUP5 AND PUSH1 0x0 SWAP1 DUP2 MSTORE PUSH1 0x69 PUSH1 0x20 MSTORE PUSH1 0x40 SWAP1 KECCAK256 SLOAD PUSH1 0xFF AND ISZERO JUMPDEST ISZERO PUSH2 0x3B96 JUMPI PUSH2 0x3B3F DUP6 DUP6 DUP6 DUP6 PUSH2 0x4358 JUMP JUMPDEST PUSH1 0x1 PUSH1 0x1 PUSH1 0xA0 SHL SUB DUP6 AND PUSH1 0x0 SWAP1 DUP2 MSTORE PUSH1 0x69 PUSH1 0x20 MSTORE PUSH1 0x40 SWAP1 KECCAK256 SLOAD PUSH1 0xFF AND ISZERO DUP1 ISZERO PUSH2 0x3BD7 JUMPI POP PUSH1 0x1 PUSH1 0x1 PUSH1 0xA0 SHL SUB DUP5 AND PUSH1 0x0 SWAP1 DUP2 MSTORE PUSH1 0x69 PUSH1 0x20 MSTORE PUSH1 0x40 SWAP1 KECCAK256 SLOAD PUSH1 0xFF AND JUMPDEST ISZERO PUSH2 0x3BE8 JUMPI PUSH2 0x3B3F DUP6 DUP6 DUP6 DUP6 PUSH2 0x443E JUMP JUMPDEST PUSH1 0x1 PUSH1 0x1 PUSH1 0xA0 SHL SUB DUP6 AND PUSH1 0x0 SWAP1 DUP2 MSTORE PUSH1 0x69 PUSH1 0x20 MSTORE PUSH1 0x40 SWAP1 KECCAK256 SLOAD PUSH1 0xFF AND DUP1 ISZERO PUSH2 0x3C28 JUMPI POP PUSH1 0x1 PUSH1 0x1 PUSH1 0xA0 SHL SUB DUP5 AND PUSH1 0x0 SWAP1 DUP2 MSTORE PUSH1 0x69 PUSH1 0x20 MSTORE PUSH1 0x40 SWAP1 KECCAK256 SLOAD PUSH1 0xFF AND JUMPDEST ISZERO PUSH2 0x3C39 JUMPI PUSH2 0x3C39 DUP6 DUP6 DUP6 DUP6 PUSH2 0x4527 JUMP JUMPDEST DUP1 PUSH2 0x3960 JUMPI PUSH2 0x3960 PUSH2 0x464F JUMP JUMPDEST PUSH1 0x0 DUP1 PUSH1 0x6E SLOAD PUSH1 0x96 SLOAD GT DUP1 PUSH2 0x3C5E JUMPI POP PUSH1 0x6D SLOAD PUSH1 0x97 SLOAD GT JUMPDEST ISZERO PUSH2 0x3C70 JUMPI POP POP PUSH1 0x6E SLOAD PUSH1 0x6D SLOAD PUSH2 0x3CDB JUMP JUMPDEST PUSH1 0x0 PUSH2 0x3C89 PUSH1 0x96 SLOAD PUSH1 0x6E SLOAD PUSH2 0x31A4 SWAP1 SWAP2 SWAP1 PUSH4 0xFFFFFFFF AND JUMP JUMPDEST SWAP1 POP PUSH1 0x0 PUSH2 0x3CA4 PUSH1 0x97 SLOAD PUSH1 0x6D SLOAD PUSH2 0x31A4 SWAP1 SWAP2 SWAP1 PUSH4 0xFFFFFFFF AND JUMP JUMPDEST SWAP1 POP PUSH2 0x3CBD PUSH1 0x6D SLOAD PUSH1 0x6E SLOAD PUSH2 0x3105 SWAP1 SWAP2 SWAP1 PUSH4 0xFFFFFFFF AND JUMP JUMPDEST DUP3 LT ISZERO PUSH2 0x3CD5 JUMPI PUSH1 0x6E SLOAD PUSH1 0x6D SLOAD SWAP4 POP SWAP4 POP POP POP PUSH2 0x3CDB JUMP JUMPDEST SWAP1 SWAP3 POP SWAP1 POP JUMPDEST SWAP1 SWAP2 JUMP JUMPDEST PUSH2 0x3CE7 PUSH2 0x48FC JUMP JUMPDEST PUSH1 0x0 PUSH2 0x3D1C DUP4 PUSH1 0x80 ADD MLOAD PUSH2 0x3174 DUP6 PUSH1 0x60 ADD MLOAD PUSH2 0x3174 DUP8 PUSH1 0x40 ADD MLOAD PUSH2 0x3174 DUP10 PUSH1 0x20 ADD MLOAD DUP11 PUSH1 0x0 ADD MLOAD PUSH2 0x31CC SWAP1 SWAP2 SWAP1 PUSH4 0xFFFFFFFF AND JUMP JUMPDEST SWAP1 POP PUSH1 0x70 SLOAD DUP2 GT ISZERO PUSH2 0x3D40 JUMPI PUSH1 0x40 MLOAD PUSH3 0x461BCD PUSH1 0xE5 SHL DUP2 MSTORE PUSH1 0x4 ADD PUSH2 0xBE6 SWAP1 PUSH2 0x53CB JUMP JUMPDEST POP SWAP1 SWAP2 SWAP1 POP JUMP JUMPDEST EXTCODESIZE ISZERO ISZERO SWAP1 JUMP JUMPDEST PUSH1 0x0 SLOAD PUSH2 0x100 SWAP1 DIV PUSH1 0xFF AND DUP1 PUSH2 0x3D66 JUMPI POP PUSH2 0x3D66 PUSH2 0x33CB JUMP JUMPDEST DUP1 PUSH2 0x3D74 JUMPI POP PUSH1 0x0 SLOAD PUSH1 0xFF AND ISZERO JUMPDEST PUSH2 0x3D90 JUMPI PUSH1 0x40 MLOAD PUSH3 0x461BCD PUSH1 0xE5 SHL DUP2 MSTORE PUSH1 0x4 ADD PUSH2 0xBE6 SWAP1 PUSH2 0x5096 JUMP JUMPDEST PUSH1 0x0 SLOAD PUSH2 0x100 SWAP1 DIV PUSH1 0xFF AND ISZERO DUP1 ISZERO PUSH2 0x3DBB JUMPI PUSH1 0x0 DUP1 SLOAD PUSH1 0xFF NOT PUSH2 0xFF00 NOT SWAP1 SWAP2 AND PUSH2 0x100 OR AND PUSH1 0x1 OR SWAP1 SSTORE JUMPDEST PUSH2 0x3DCF PUSH1 0x0 PUSH2 0x1F4 DUP1 PUSH1 0x0 DUP1 PUSH1 0x0 DUP1 PUSH2 0x31F1 JUMP JUMPDEST DUP1 MLOAD PUSH1 0x74 SSTORE PUSH1 0x20 DUP2 ADD MLOAD PUSH1 0x75 SSTORE PUSH1 0x40 DUP2 ADD MLOAD PUSH1 0x76 SSTORE PUSH1 0x60 DUP2 ADD MLOAD PUSH1 0x77 SSTORE PUSH1 0x80 DUP2 ADD MLOAD PUSH1 0x78 SSTORE PUSH1 0xA0 DUP2 ADD MLOAD PUSH1 0x79 DUP1 SLOAD PUSH1 0x1 PUSH1 0x1 PUSH1 0xA0 SHL SUB NOT SWAP1 DUP2 AND PUSH1 0x1 PUSH1 0x1 PUSH1 0xA0 SHL SUB SWAP4 DUP5 AND OR SWAP1 SWAP2 SSTORE PUSH1 0xC0 SWAP1 SWAP3 ADD MLOAD PUSH1 0x7A DUP1 SLOAD SWAP1 SWAP4 AND SWAP2 AND OR SWAP1 SSTORE PUSH2 0x3E3C PUSH1 0x32 DUP1 PUSH1 0x64 PUSH1 0x0 DUP1 DUP1 DUP1 PUSH2 0x31F1 JUMP JUMPDEST POP PUSH2 0x3E50 PUSH1 0x32 DUP1 PUSH1 0x64 DUP1 PUSH1 0x0 DUP1 PUSH1 0x0 PUSH2 0x31F1 JUMP JUMPDEST POP PUSH2 0x3E65 PUSH1 0x64 PUSH1 0x7D DUP1 PUSH1 0x96 PUSH1 0x0 DUP1 PUSH1 0x0 PUSH2 0x31F1 JUMP JUMPDEST POP DUP1 ISZERO PUSH2 0x19AF JUMPI PUSH1 0x0 DUP1 SLOAD PUSH2 0xFF00 NOT AND SWAP1 SSTORE POP JUMP JUMPDEST PUSH2 0x3E82 PUSH2 0x4A15 JUMP JUMPDEST PUSH2 0x3E8A PUSH2 0x48FC JUMP JUMPDEST PUSH1 0x89 DUP4 DUP2 SLOAD DUP2 LT PUSH2 0x3E97 JUMPI INVALID JUMPDEST PUSH1 0x0 SWAP2 DUP3 MSTORE PUSH1 0x20 SWAP2 DUP3 SWAP1 KECCAK256 PUSH1 0x40 DUP1 MLOAD PUSH1 0xE0 DUP2 ADD DUP3 MSTORE PUSH1 0x7 SWAP1 SWAP4 MUL SWAP1 SWAP2 ADD DUP1 SLOAD DUP4 MSTORE PUSH1 0x1 DUP2 ADD SLOAD SWAP4 DUP4 ADD SWAP4 SWAP1 SWAP4 MSTORE PUSH1 0x2 DUP4 ADD SLOAD SWAP1 DUP3 ADD MSTORE PUSH1 0x3 DUP3 ADD SLOAD PUSH1 0x60 DUP3 ADD MSTORE PUSH1 0x4 DUP3 ADD SLOAD PUSH1 0x80 DUP3 ADD MSTORE PUSH1 0x5 DUP3 ADD SLOAD PUSH1 0x1 PUSH1 0x1 PUSH1 0xA0 SHL SUB SWAP1 DUP2 AND PUSH1 0xA0 DUP4 ADD MSTORE PUSH1 0x6 SWAP1 SWAP3 ADD SLOAD SWAP1 SWAP2 AND PUSH1 0xC0 DUP3 ADD MSTORE SWAP1 POP PUSH2 0x3F0E PUSH2 0x4A15 JUMP JUMPDEST PUSH1 0x40 MLOAD DUP1 PUSH1 0xC0 ADD PUSH1 0x40 MSTORE DUP1 PUSH1 0x0 DUP2 MSTORE PUSH1 0x20 ADD PUSH2 0x3F2E DUP8 DUP6 PUSH1 0x0 ADD MLOAD PUSH2 0x465F JUMP JUMPDEST DUP2 MSTORE PUSH1 0x20 ADD PUSH2 0x3F41 DUP8 DUP6 PUSH1 0x20 ADD MLOAD PUSH2 0x465F JUMP JUMPDEST DUP2 MSTORE PUSH1 0x20 ADD PUSH2 0x3F54 DUP8 DUP6 PUSH1 0x40 ADD MLOAD PUSH2 0x465F JUMP JUMPDEST DUP2 MSTORE PUSH1 0x20 ADD PUSH2 0x3F67 DUP8 DUP6 PUSH1 0x60 ADD MLOAD PUSH2 0x465F JUMP JUMPDEST DUP2 MSTORE PUSH1 0x20 ADD PUSH2 0x3F7A DUP8 DUP6 PUSH1 0x80 ADD MLOAD PUSH2 0x465F JUMP JUMPDEST DUP2 MSTORE POP SWAP1 POP PUSH2 0x3FB6 DUP2 PUSH1 0xA0 ADD MLOAD PUSH2 0x317A DUP4 PUSH1 0x80 ADD MLOAD PUSH2 0x317A DUP6 PUSH1 0x40 ADD MLOAD PUSH2 0x317A DUP8 PUSH1 0x60 ADD MLOAD PUSH2 0x317A DUP10 PUSH1 0x20 ADD MLOAD DUP15 PUSH2 0x31A4 SWAP1 SWAP2 SWAP1 PUSH4 0xFFFFFFFF AND JUMP JUMPDEST DUP2 MSTORE SWAP5 SWAP4 POP POP POP POP JUMP JUMPDEST PUSH1 0x0 DUP1 DUP1 DUP1 PUSH2 0x3FCF DUP9 DUP7 PUSH2 0x3A79 JUMP JUMPDEST SWAP1 POP PUSH1 0x0 PUSH2 0x3FDD DUP9 DUP8 PUSH2 0x3A79 JUMP JUMPDEST SWAP1 POP PUSH1 0x0 PUSH2 0x3FEB DUP9 DUP9 PUSH2 0x3A79 JUMP JUMPDEST SWAP1 POP PUSH1 0x0 PUSH2 0x3FFD DUP3 PUSH2 0x317A DUP7 DUP7 PUSH2 0x31A4 JUMP JUMPDEST SWAP4 SWAP12 SWAP4 SWAP11 POP SWAP2 SWAP9 POP SWAP2 SWAP7 POP POP POP POP POP POP POP JUMP JUMPDEST PUSH1 0x40 DUP1 MLOAD PUSH1 0x2 DUP1 DUP3 MSTORE PUSH1 0x60 DUP1 DUP4 ADD DUP5 MSTORE SWAP3 PUSH1 0x20 DUP4 ADD SWAP1 DUP1 CALLDATASIZE DUP4 CALLDATACOPY ADD SWAP1 POP POP SWAP1 POP ADDRESS DUP2 PUSH1 0x0 DUP2 MLOAD DUP2 LT PUSH2 0x403E JUMPI INVALID JUMPDEST PUSH1 0x1 PUSH1 0x1 PUSH1 0xA0 SHL SUB SWAP3 DUP4 AND PUSH1 0x20 SWAP2 DUP3 MUL SWAP3 SWAP1 SWAP3 ADD DUP2 ADD SWAP2 SWAP1 SWAP2 MSTORE PUSH1 0x8A SLOAD PUSH1 0x40 DUP1 MLOAD PUSH4 0x15AB88C9 PUSH1 0xE3 SHL DUP2 MSTORE SWAP1 MLOAD SWAP2 SWAP1 SWAP4 AND SWAP3 PUSH4 0xAD5C4648 SWAP3 PUSH1 0x4 DUP1 DUP4 ADD SWAP4 SWAP2 SWAP3 DUP3 SWAP1 SUB ADD DUP2 DUP7 DUP1 EXTCODESIZE ISZERO DUP1 ISZERO PUSH2 0x4092 JUMPI PUSH1 0x0 DUP1 REVERT JUMPDEST POP GAS STATICCALL ISZERO DUP1 ISZERO PUSH2 0x40A6 JUMPI RETURNDATASIZE PUSH1 0x0 DUP1 RETURNDATACOPY RETURNDATASIZE PUSH1 0x0 REVERT JUMPDEST POP POP POP POP PUSH1 0x40 MLOAD RETURNDATASIZE PUSH1 0x1F NOT PUSH1 0x1F DUP3 ADD AND DUP3 ADD DUP1 PUSH1 0x40 MSTORE POP DUP2 ADD SWAP1 PUSH2 0x40CA SWAP2 SWAP1 PUSH2 0x4A7C JUMP JUMPDEST DUP2 PUSH1 0x1 DUP2 MLOAD DUP2 LT PUSH2 0x40D7 JUMPI INVALID JUMPDEST PUSH1 0x1 PUSH1 0x1 PUSH1 0xA0 SHL SUB SWAP3 DUP4 AND PUSH1 0x20 SWAP2 DUP3 MUL SWAP3 SWAP1 SWAP3 ADD ADD MSTORE PUSH1 0x8A SLOAD PUSH2 0x40FD SWAP2 ADDRESS SWAP2 AND DUP5 PUSH2 0x2B3D JUMP JUMPDEST PUSH1 0x8A SLOAD PUSH1 0x40 MLOAD PUSH4 0x791AC947 PUSH1 0xE0 SHL DUP2 MSTORE PUSH1 0x1 PUSH1 0x1 PUSH1 0xA0 SHL SUB SWAP1 SWAP2 AND SWAP1 PUSH4 0x791AC947 SWAP1 PUSH2 0x4136 SWAP1 DUP6 SWAP1 PUSH1 0x0 SWAP1 DUP7 SWAP1 ADDRESS SWAP1 TIMESTAMP SWAP1 PUSH1 0x4 ADD PUSH2 0x54B4 JUMP JUMPDEST PUSH1 0x0 PUSH1 0x40 MLOAD DUP1 DUP4 SUB DUP2 PUSH1 0x0 DUP8 DUP1 EXTCODESIZE ISZERO DUP1 ISZERO PUSH2 0x4150 JUMPI PUSH1 0x0 DUP1 REVERT JUMPDEST POP GAS CALL ISZERO DUP1 ISZERO PUSH2 0x4164 JUMPI RETURNDATASIZE PUSH1 0x0 DUP1 RETURNDATACOPY RETURNDATASIZE PUSH1 0x0 REVERT JUMPDEST POP POP POP POP POP POP JUMP JUMPDEST PUSH1 0x89 PUSH1 0x0 DUP2 SLOAD DUP2 LT PUSH2 0x417A JUMPI INVALID JUMPDEST PUSH1 0x0 SWAP2 DUP3 MSTORE PUSH1 0x20 DUP3 KECCAK256 PUSH1 0x7 SWAP1 SWAP2 MUL ADD DUP1 SLOAD PUSH1 0x7B SSTORE PUSH1 0x1 DUP2 ADD SLOAD PUSH1 0x7C SSTORE PUSH1 0x2 DUP2 ADD SLOAD PUSH1 0x7D SSTORE PUSH1 0x3 DUP2 ADD SLOAD PUSH1 0x7E SSTORE PUSH1 0x4 DUP2 ADD SLOAD PUSH1 0x7F SSTORE PUSH1 0x5 DUP2 ADD SLOAD PUSH1 0x80 DUP1 SLOAD PUSH1 0x1 PUSH1 0x1 PUSH1 0xA0 SHL SUB NOT SWAP1 DUP2 AND PUSH1 0x1 PUSH1 0x1 PUSH1 0xA0 SHL SUB SWAP4 DUP5 AND OR SWAP1 SWAP2 SSTORE PUSH1 0x6 SWAP1 SWAP3 ADD SLOAD PUSH1 0x81 DUP1 SLOAD SWAP1 SWAP4 AND SWAP2 AND OR SWAP1 SSTORE PUSH1 0x89 DUP1 SLOAD PUSH1 0x82 SWAP3 SWAP1 PUSH2 0x41F2 JUMPI INVALID JUMPDEST PUSH1 0x0 SWAP2 DUP3 MSTORE PUSH1 0x20 SWAP1 SWAP2 KECCAK256 DUP3 SLOAD PUSH1 0x7 SWAP1 SWAP3 MUL ADD SWAP1 DUP2 SSTORE PUSH1 0x1 DUP1 DUP4 ADD SLOAD SWAP1 DUP3 ADD SSTORE PUSH1 0x2 DUP1 DUP4 ADD SLOAD SWAP1 DUP3 ADD SSTORE PUSH1 0x3 DUP1 DUP4 ADD SLOAD SWAP1 DUP3 ADD SSTORE PUSH1 0x4 DUP1 DUP4 ADD SLOAD SWAP1 DUP3 ADD SSTORE PUSH1 0x5 DUP1 DUP4 ADD SLOAD SWAP1 DUP3 ADD DUP1 SLOAD PUSH1 0x1 PUSH1 0x1 PUSH1 0xA0 SHL SUB NOT SWAP1 DUP2 AND PUSH1 0x1 PUSH1 0x1 PUSH1 0xA0 SHL SUB SWAP4 DUP5 AND OR SWAP1 SWAP2 SSTORE PUSH1 0x6 SWAP4 DUP5 ADD SLOAD SWAP4 SWAP1 SWAP3 ADD DUP1 SLOAD SWAP1 SWAP3 AND SWAP3 AND SWAP2 SWAP1 SWAP2 OR SWAP1 SSTORE JUMP JUMPDEST PUSH2 0x4276 PUSH2 0x494B JUMP JUMPDEST PUSH2 0x4280 DUP4 DUP4 PUSH2 0x39A7 JUMP JUMPDEST DUP1 MLOAD PUSH1 0x1 PUSH1 0x1 PUSH1 0xA0 SHL SUB DUP8 AND PUSH1 0x0 SWAP1 DUP2 MSTORE PUSH1 0x65 PUSH1 0x20 MSTORE PUSH1 0x40 SWAP1 KECCAK256 SLOAD SWAP2 SWAP3 POP PUSH2 0x42A8 SWAP2 SWAP1 PUSH2 0x31A4 JUMP JUMPDEST PUSH1 0x1 PUSH1 0x1 PUSH1 0xA0 SHL SUB DUP1 DUP8 AND PUSH1 0x0 SWAP1 DUP2 MSTORE PUSH1 0x65 PUSH1 0x20 SWAP1 DUP2 MSTORE PUSH1 0x40 DUP1 DUP4 KECCAK256 SWAP5 SWAP1 SWAP5 SSTORE DUP5 ADD MLOAD SWAP2 DUP8 AND DUP2 MSTORE SWAP2 SWAP1 SWAP2 KECCAK256 SLOAD PUSH2 0x42DE SWAP2 PUSH2 0x31CC JUMP JUMPDEST PUSH1 0x1 PUSH1 0x1 PUSH1 0xA0 SHL SUB DUP6 AND PUSH1 0x0 SWAP1 DUP2 MSTORE PUSH1 0x65 PUSH1 0x20 MSTORE PUSH1 0x40 SWAP1 KECCAK256 SSTORE PUSH2 0x4302 DUP6 DUP3 DUP5 PUSH2 0x467E JUMP JUMPDEST PUSH2 0x4314 DUP2 PUSH1 0x40 ADD MLOAD DUP3 PUSH1 0xC0 ADD MLOAD PUSH2 0x470C JUMP JUMPDEST DUP4 PUSH1 0x1 PUSH1 0x1 PUSH1 0xA0 SHL SUB AND DUP6 PUSH1 0x1 PUSH1 0x1 PUSH1 0xA0 SHL SUB AND PUSH1 0x0 DUP1 MLOAD PUSH1 0x20 PUSH2 0x5652 DUP4 CODECOPY DUP2 MLOAD SWAP2 MSTORE DUP4 PUSH1 0x60 ADD MLOAD PUSH1 0x40 MLOAD PUSH2 0x4349 SWAP2 SWAP1 PUSH2 0x54AB JUMP JUMPDEST PUSH1 0x40 MLOAD DUP1 SWAP2 SUB SWAP1 LOG3 POP POP POP POP POP JUMP JUMPDEST PUSH2 0x4360 PUSH2 0x494B JUMP JUMPDEST PUSH2 0x436A DUP4 DUP4 PUSH2 0x39A7 JUMP JUMPDEST PUSH1 0x1 PUSH1 0x1 PUSH1 0xA0 SHL SUB DUP7 AND PUSH1 0x0 SWAP1 DUP2 MSTORE PUSH1 0x66 PUSH1 0x20 MSTORE PUSH1 0x40 SWAP1 KECCAK256 SLOAD SWAP1 SWAP2 POP PUSH2 0x4390 SWAP1 DUP5 PUSH2 0x31A4 JUMP JUMPDEST PUSH1 0x1 PUSH1 0x1 PUSH1 0xA0 SHL SUB DUP7 AND PUSH1 0x0 SWAP1 DUP2 MSTORE PUSH1 0x66 PUSH1 0x20 SWAP1 DUP2 MSTORE PUSH1 0x40 DUP1 DUP4 KECCAK256 SWAP4 SWAP1 SWAP4 SSTORE DUP4 MLOAD PUSH1 0x65 SWAP1 SWAP2 MSTORE SWAP2 SWAP1 KECCAK256 SLOAD PUSH2 0x43C3 SWAP2 PUSH2 0x31A4 JUMP JUMPDEST PUSH1 0x1 PUSH1 0x1 PUSH1 0xA0 SHL SUB DUP1 DUP8 AND PUSH1 0x0 SWAP1 DUP2 MSTORE PUSH1 0x65 PUSH1 0x20 SWAP1 DUP2 MSTORE PUSH1 0x40 DUP1 DUP4 KECCAK256 SWAP5 SWAP1 SWAP5 SSTORE DUP5 ADD MLOAD SWAP2 DUP8 AND DUP2 MSTORE SWAP2 SWAP1 SWAP2 KECCAK256 SLOAD PUSH2 0x43F9 SWAP2 PUSH2 0x31CC JUMP JUMPDEST PUSH1 0x1 PUSH1 0x1 PUSH1 0xA0 SHL SUB DUP6 AND PUSH1 0x0 SWAP1 DUP2 MSTORE PUSH1 0x65 PUSH1 0x20 MSTORE PUSH1 0x40 SWAP1 KECCAK256 SSTORE PUSH1 0x97 SLOAD PUSH2 0x441F SWAP1 DUP5 PUSH2 0x31A4 JUMP JUMPDEST PUSH1 0x97 SSTORE DUP1 MLOAD PUSH1 0x96 SLOAD PUSH2 0x4430 SWAP2 PUSH2 0x31A4 JUMP JUMPDEST PUSH1 0x96 SSTORE PUSH2 0x4302 DUP6 DUP3 DUP5 PUSH2 0x467E JUMP JUMPDEST PUSH2 0x4446 PUSH2 0x494B JUMP JUMPDEST PUSH2 0x4450 DUP4 DUP4 PUSH2 0x39A7 JUMP JUMPDEST DUP1 MLOAD PUSH1 0x1 PUSH1 0x1 PUSH1 0xA0 SHL SUB DUP8 AND PUSH1 0x0 SWAP1 DUP2 MSTORE PUSH1 0x65 PUSH1 0x20 MSTORE PUSH1 0x40 SWAP1 KECCAK256 SLOAD SWAP2 SWAP3 POP PUSH2 0x4478 SWAP2 SWAP1 PUSH2 0x31A4 JUMP JUMPDEST PUSH1 0x1 PUSH1 0x1 PUSH1 0xA0 SHL SUB DUP1 DUP8 AND PUSH1 0x0 SWAP1 DUP2 MSTORE PUSH1 0x65 PUSH1 0x20 SWAP1 DUP2 MSTORE PUSH1 0x40 DUP1 DUP4 KECCAK256 SWAP5 SWAP1 SWAP5 SSTORE PUSH1 0x60 DUP6 ADD MLOAD SWAP3 DUP9 AND DUP3 MSTORE PUSH1 0x66 SWAP1 MSTORE SWAP2 SWAP1 SWAP2 KECCAK256 SLOAD PUSH2 0x44B4 SWAP2 PUSH2 0x31CC JUMP JUMPDEST PUSH1 0x1 PUSH1 0x1 PUSH1 0xA0 SHL SUB DUP6 AND PUSH1 0x0 SWAP1 DUP2 MSTORE PUSH1 0x66 PUSH1 0x20 SWAP1 DUP2 MSTORE PUSH1 0x40 DUP1 DUP4 KECCAK256 SWAP4 SWAP1 SWAP4 SSTORE DUP4 DUP2 ADD MLOAD PUSH1 0x65 SWAP1 SWAP2 MSTORE SWAP2 SWAP1 KECCAK256 SLOAD PUSH2 0x44E9 SWAP2 PUSH2 0x31CC JUMP JUMPDEST PUSH1 0x1 PUSH1 0x1 PUSH1 0xA0 SHL SUB DUP6 AND PUSH1 0x0 SWAP1 DUP2 MSTORE PUSH1 0x65 PUSH1 0x20 MSTORE PUSH1 0x40 SWAP1 KECCAK256 SSTORE PUSH1 0x60 DUP2 ADD MLOAD PUSH1 0x97 SLOAD PUSH2 0x4513 SWAP2 PUSH2 0x31CC JUMP JUMPDEST PUSH1 0x97 SSTORE PUSH1 0x20 DUP2 ADD MLOAD PUSH1 0x96 SLOAD PUSH2 0x4430 SWAP2 PUSH2 0x31CC JUMP JUMPDEST PUSH2 0x452F PUSH2 0x494B JUMP JUMPDEST PUSH2 0x4539 DUP4 DUP4 PUSH2 0x39A7 JUMP JUMPDEST PUSH1 0x1 PUSH1 0x1 PUSH1 0xA0 SHL SUB DUP7 AND PUSH1 0x0 SWAP1 DUP2 MSTORE PUSH1 0x66 PUSH1 0x20 MSTORE PUSH1 0x40 SWAP1 KECCAK256 SLOAD SWAP1 SWAP2 POP PUSH2 0x455F SWAP1 DUP5 PUSH2 0x31A4 JUMP JUMPDEST PUSH1 0x1 PUSH1 0x1 PUSH1 0xA0 SHL SUB DUP7 AND PUSH1 0x0 SWAP1 DUP2 MSTORE PUSH1 0x66 PUSH1 0x20 SWAP1 DUP2 MSTORE PUSH1 0x40 DUP1 DUP4 KECCAK256 SWAP4 SWAP1 SWAP4 SSTORE DUP4 MLOAD PUSH1 0x65 SWAP1 SWAP2 MSTORE SWAP2 SWAP1 KECCAK256 SLOAD PUSH2 0x4592 SWAP2 PUSH2 0x31A4 JUMP JUMPDEST PUSH1 0x1 PUSH1 0x1 PUSH1 0xA0 SHL SUB DUP1 DUP8 AND PUSH1 0x0 SWAP1 DUP2 MSTORE PUSH1 0x65 PUSH1 0x20 SWAP1 DUP2 MSTORE PUSH1 0x40 DUP1 DUP4 KECCAK256 SWAP5 SWAP1 SWAP5 SSTORE PUSH1 0x60 DUP6 ADD MLOAD SWAP3 DUP9 AND DUP3 MSTORE PUSH1 0x66 SWAP1 MSTORE SWAP2 SWAP1 SWAP2 KECCAK256 SLOAD PUSH2 0x45CE SWAP2 PUSH2 0x31CC JUMP JUMPDEST PUSH1 0x1 PUSH1 0x1 PUSH1 0xA0 SHL SUB DUP6 AND PUSH1 0x0 SWAP1 DUP2 MSTORE PUSH1 0x66 PUSH1 0x20 SWAP1 DUP2 MSTORE PUSH1 0x40 DUP1 DUP4 KECCAK256 SWAP4 SWAP1 SWAP4 SSTORE DUP4 DUP2 ADD MLOAD PUSH1 0x65 SWAP1 SWAP2 MSTORE SWAP2 SWAP1 KECCAK256 SLOAD PUSH2 0x4603 SWAP2 PUSH2 0x31CC JUMP JUMPDEST PUSH1 0x1 PUSH1 0x1 PUSH1 0xA0 SHL SUB DUP6 AND PUSH1 0x0 SWAP1 DUP2 MSTORE PUSH1 0x65 PUSH1 0x20 MSTORE PUSH1 0x40 SWAP1 KECCAK256 SSTORE PUSH1 0x60 DUP2 ADD MLOAD PUSH1 0x97 SLOAD PUSH2 0x4633 SWAP2 DUP6 SWAP2 PUSH2 0x317A SWAP2 PUSH2 0x31CC JUMP JUMPDEST PUSH1 0x97 SSTORE DUP1 MLOAD PUSH1 0x20 DUP3 ADD MLOAD PUSH1 0x96 SLOAD PUSH2 0x4430 SWAP3 SWAP2 PUSH2 0x317A SWAP2 SWAP1 PUSH2 0x31CC JUMP JUMPDEST PUSH1 0x7B PUSH1 0x89 PUSH1 0x0 DUP2 SLOAD DUP2 LT PUSH2 0x41F2 JUMPI INVALID JUMPDEST PUSH1 0x0 DUP2 PUSH2 0x466E JUMPI POP PUSH1 0x0 PUSH2 0xBA1 JUMP JUMPDEST PUSH2 0xF0E PUSH2 0x2710 PUSH2 0x24A7 DUP6 DUP6 PUSH2 0x3A79 JUMP JUMPDEST PUSH2 0x468D DUP4 DUP4 PUSH1 0xA0 ADD MLOAD ADDRESS PUSH2 0x4730 JUMP JUMPDEST PUSH2 0x46C5 DUP4 DUP4 PUSH1 0x80 ADD MLOAD PUSH1 0x89 DUP5 DUP2 SLOAD DUP2 LT PUSH2 0x46A3 JUMPI INVALID JUMPDEST PUSH1 0x0 SWAP2 DUP3 MSTORE PUSH1 0x20 SWAP1 SWAP2 KECCAK256 PUSH1 0x5 PUSH1 0x7 SWAP1 SWAP3 MUL ADD ADD SLOAD PUSH1 0x1 PUSH1 0x1 PUSH1 0xA0 SHL SUB AND PUSH2 0x4730 JUMP JUMPDEST PUSH2 0x46FD DUP4 DUP4 PUSH1 0xE0 ADD MLOAD PUSH1 0x89 DUP5 DUP2 SLOAD DUP2 LT PUSH2 0x46DB JUMPI INVALID JUMPDEST PUSH1 0x0 SWAP2 DUP3 MSTORE PUSH1 0x20 SWAP1 SWAP2 KECCAK256 PUSH1 0x6 PUSH1 0x7 SWAP1 SWAP3 MUL ADD ADD SLOAD PUSH1 0x1 PUSH1 0x1 PUSH1 0xA0 SHL SUB AND PUSH2 0x4730 JUMP JUMPDEST PUSH2 0x1B9A DUP4 DUP4 PUSH2 0x100 ADD MLOAD PUSH2 0x4846 JUMP JUMPDEST PUSH1 0x6E SLOAD PUSH2 0x4719 SWAP1 DUP4 PUSH2 0x31A4 JUMP JUMPDEST PUSH1 0x6E SSTORE PUSH1 0x6F SLOAD PUSH2 0x4729 SWAP1 DUP3 PUSH2 0x31CC JUMP JUMPDEST PUSH1 0x6F SSTORE POP POP JUMP JUMPDEST PUSH1 0x1 PUSH1 0x1 PUSH1 0xA0 SHL SUB DUP2 AND PUSH2 0x4743 JUMPI PUSH2 0x1B9A JUMP JUMPDEST DUP2 PUSH2 0x474D JUMPI PUSH2 0x1B9A JUMP JUMPDEST PUSH1 0x0 PUSH2 0x4757 PUSH2 0x30E2 JUMP JUMPDEST SWAP1 POP PUSH1 0x0 PUSH2 0x4765 DUP5 DUP4 PUSH2 0x3A79 JUMP JUMPDEST PUSH1 0x1 PUSH1 0x1 PUSH1 0xA0 SHL SUB DUP5 AND PUSH1 0x0 SWAP1 DUP2 MSTORE PUSH1 0x65 PUSH1 0x20 MSTORE PUSH1 0x40 SWAP1 KECCAK256 SLOAD SWAP1 SWAP2 POP PUSH2 0x478B SWAP1 DUP3 PUSH2 0x31CC JUMP JUMPDEST PUSH1 0x1 PUSH1 0x1 PUSH1 0xA0 SHL SUB DUP5 AND PUSH1 0x0 SWAP1 DUP2 MSTORE PUSH1 0x65 PUSH1 0x20 SWAP1 DUP2 MSTORE PUSH1 0x40 DUP1 DUP4 KECCAK256 SWAP4 SWAP1 SWAP4 SSTORE PUSH1 0x69 SWAP1 MSTORE KECCAK256 SLOAD PUSH1 0xFF AND ISZERO PUSH2 0x4815 JUMPI PUSH1 0x1 PUSH1 0x1 PUSH1 0xA0 SHL SUB DUP4 AND PUSH1 0x0 SWAP1 DUP2 MSTORE PUSH1 0x66 PUSH1 0x20 MSTORE PUSH1 0x40 SWAP1 KECCAK256 SLOAD PUSH2 0x47DB SWAP1 DUP6 PUSH2 0x31CC JUMP JUMPDEST PUSH1 0x1 PUSH1 0x1 PUSH1 0xA0 SHL SUB DUP5 AND PUSH1 0x0 SWAP1 DUP2 MSTORE PUSH1 0x66 PUSH1 0x20 MSTORE PUSH1 0x40 SWAP1 KECCAK256 SSTORE PUSH1 0x97 SLOAD PUSH2 0x4801 SWAP1 DUP6 PUSH2 0x31CC JUMP JUMPDEST PUSH1 0x97 SSTORE PUSH1 0x96 SLOAD PUSH2 0x4811 SWAP1 DUP3 PUSH2 0x31CC JUMP JUMPDEST PUSH1 0x96 SSTORE JUMPDEST DUP3 PUSH1 0x1 PUSH1 0x1 PUSH1 0xA0 SHL SUB AND DUP6 PUSH1 0x1 PUSH1 0x1 PUSH1 0xA0 SHL SUB AND PUSH1 0x0 DUP1 MLOAD PUSH1 0x20 PUSH2 0x5652 DUP4 CODECOPY DUP2 MLOAD SWAP2 MSTORE DUP7 PUSH1 0x40 MLOAD PUSH2 0x4349 SWAP2 SWAP1 PUSH2 0x54AB JUMP JUMPDEST DUP1 PUSH2 0x4850 JUMPI PUSH2 0x1343 JUMP JUMPDEST PUSH1 0x8F SLOAD PUSH1 0x1 PUSH1 0x1 PUSH1 0xA0 SHL SUB AND PUSH1 0x0 SWAP1 DUP2 MSTORE PUSH1 0x66 PUSH1 0x20 MSTORE PUSH1 0x40 SWAP1 KECCAK256 SLOAD PUSH2 0x4875 SWAP1 DUP3 PUSH2 0x31CC JUMP JUMPDEST PUSH1 0x8F DUP1 SLOAD PUSH1 0x1 PUSH1 0x1 PUSH1 0xA0 SHL SUB SWAP1 DUP2 AND PUSH1 0x0 SWAP1 DUP2 MSTORE PUSH1 0x66 PUSH1 0x20 SWAP1 DUP2 MSTORE PUSH1 0x40 DUP1 DUP4 KECCAK256 SWAP6 SWAP1 SWAP6 SSTORE SWAP3 SLOAD SWAP1 SWAP2 AND DUP2 MSTORE PUSH1 0x69 SWAP1 SWAP2 MSTORE KECCAK256 SLOAD PUSH1 0xFF AND ISZERO PUSH2 0x48C0 JUMPI PUSH1 0x97 SLOAD PUSH2 0x48BC SWAP1 DUP3 PUSH2 0x31CC JUMP JUMPDEST PUSH1 0x97 SSTORE JUMPDEST PUSH1 0x8F SLOAD PUSH1 0x40 MLOAD PUSH1 0x1 PUSH1 0x1 PUSH1 0xA0 SHL SUB SWAP2 DUP3 AND SWAP2 DUP5 AND SWAP1 PUSH1 0x0 DUP1 MLOAD PUSH1 0x20 PUSH2 0x5652 DUP4 CODECOPY DUP2 MLOAD SWAP2 MSTORE SWAP1 PUSH2 0x48F0 SWAP1 DUP6 SWAP1 PUSH2 0x54AB JUMP JUMPDEST PUSH1 0x40 MLOAD DUP1 SWAP2 SUB SWAP1 LOG3 POP POP JUMP JUMPDEST PUSH1 0x40 MLOAD DUP1 PUSH1 0xE0 ADD PUSH1 0x40 MSTORE DUP1 PUSH1 0x0 DUP2 MSTORE PUSH1 0x20 ADD PUSH1 0x0 DUP2 MSTORE PUSH1 0x20 ADD PUSH1 0x0 DUP2 MSTORE PUSH1 0x20 ADD PUSH1 0x0 DUP2 MSTORE PUSH1 0x20 ADD PUSH1 0x0 DUP2 MSTORE PUSH1 0x20 ADD PUSH1 0x0 PUSH1 0x1 PUSH1 0x1 PUSH1 0xA0 SHL SUB AND DUP2 MSTORE PUSH1 0x20 ADD PUSH1 0x0 PUSH1 0x1 PUSH1 0x1 PUSH1 0xA0 SHL SUB AND DUP2 MSTORE POP SWAP1 JUMP JUMPDEST PUSH1 0x40 MLOAD DUP1 PUSH2 0x120 ADD PUSH1 0x40 MSTORE DUP1 PUSH1 0x0 DUP2 MSTORE PUSH1 0x20 ADD PUSH1 0x0 DUP2 MSTORE PUSH1 0x20 ADD PUSH1 0x0 DUP2 MSTORE PUSH1 0x20 ADD PUSH1 0x0 DUP2 MSTORE PUSH1 0x20 ADD PUSH1 0x0 DUP2 MSTORE PUSH1 0x20 ADD PUSH1 0x0 DUP2 MSTORE PUSH1 0x20 ADD PUSH1 0x0 DUP2 MSTORE PUSH1 0x20 ADD PUSH1 0x0 DUP2 MSTORE PUSH1 0x20 ADD PUSH1 0x0 DUP2 MSTORE POP SWAP1 JUMP JUMPDEST DUP3 DUP1 SLOAD PUSH1 0x1 DUP2 PUSH1 0x1 AND ISZERO PUSH2 0x100 MUL SUB AND PUSH1 0x2 SWAP1 DIV SWAP1 PUSH1 0x0 MSTORE PUSH1 0x20 PUSH1 0x0 KECCAK256 SWAP1 PUSH1 0x1F ADD PUSH1 0x20 SWAP1 DIV DUP2 ADD SWAP3 DUP3 PUSH1 0x1F LT PUSH2 0x49D8 JUMPI DUP1 MLOAD PUSH1 0xFF NOT AND DUP4 DUP1 ADD OR DUP6 SSTORE PUSH2 0x4A05 JUMP JUMPDEST DUP3 DUP1 ADD PUSH1 0x1 ADD DUP6 SSTORE DUP3 ISZERO PUSH2 0x4A05 JUMPI SWAP2 DUP3 ADD JUMPDEST DUP3 DUP2 GT ISZERO PUSH2 0x4A05 JUMPI DUP3 MLOAD DUP3 SSTORE SWAP2 PUSH1 0x20 ADD SWAP2 SWAP1 PUSH1 0x1 ADD SWAP1 PUSH2 0x49EA JUMP JUMPDEST POP PUSH2 0x4A11 SWAP3 SWAP2 POP PUSH2 0x4A4B JUMP JUMPDEST POP SWAP1 JUMP JUMPDEST PUSH1 0x40 MLOAD DUP1 PUSH1 0xC0 ADD PUSH1 0x40 MSTORE DUP1 PUSH1 0x0 DUP2 MSTORE PUSH1 0x20 ADD PUSH1 0x0 DUP2 MSTORE PUSH1 0x20 ADD PUSH1 0x0 DUP2 MSTORE PUSH1 0x20 ADD PUSH1 0x0 DUP2 MSTORE PUSH1 0x20 ADD PUSH1 0x0 DUP2 MSTORE PUSH1 0x20 ADD PUSH1 0x0 DUP2 MSTORE POP SWAP1 JUMP JUMPDEST JUMPDEST DUP1 DUP3 GT ISZERO PUSH2 0x4A11 JUMPI PUSH1 0x0 DUP2 SSTORE PUSH1 0x1 ADD PUSH2 0x4A4C JUMP JUMPDEST PUSH1 0x0 PUSH1 0x20 DUP3 DUP5 SUB SLT ISZERO PUSH2 0x4A71 JUMPI DUP1 DUP2 REVERT JUMPDEST DUP2 CALLDATALOAD PUSH2 0xF0E DUP2 PUSH2 0x5550 JUMP JUMPDEST PUSH1 0x0 PUSH1 0x20 DUP3 DUP5 SUB SLT ISZERO PUSH2 0x4A8D JUMPI DUP1 DUP2 REVERT JUMPDEST DUP2 MLOAD PUSH2 0xF0E DUP2 PUSH2 0x5550 JUMP JUMPDEST PUSH1 0x0 DUP1 PUSH1 0x40 DUP4 DUP6 SUB SLT ISZERO PUSH2 0x4AAA JUMPI DUP1 DUP2 REVERT JUMPDEST DUP3 CALLDATALOAD PUSH2 0x4AB5 DUP2 PUSH2 0x5550 JUMP JUMPDEST SWAP2 POP PUSH1 0x20 DUP4 ADD CALLDATALOAD PUSH2 0x4AC5 DUP2 PUSH2 0x5550 JUMP JUMPDEST DUP1 SWAP2 POP POP SWAP3 POP SWAP3 SWAP1 POP JUMP JUMPDEST PUSH1 0x0 DUP1 PUSH1 0x0 PUSH1 0x60 DUP5 DUP7 SUB SLT ISZERO PUSH2 0x4AE4 JUMPI DUP1 DUP2 REVERT JUMPDEST DUP4 CALLDATALOAD PUSH2 0x4AEF DUP2 PUSH2 0x5550 JUMP JUMPDEST SWAP3 POP PUSH1 0x20 DUP5 ADD CALLDATALOAD PUSH2 0x4AFF DUP2 PUSH2 0x5550 JUMP JUMPDEST SWAP3 SWAP6 SWAP3 SWAP5 POP POP POP PUSH1 0x40 SWAP2 SWAP1 SWAP2 ADD CALLDATALOAD SWAP1 JUMP JUMPDEST PUSH1 0x0 DUP1 PUSH1 0x40 DUP4 DUP6 SUB SLT ISZERO PUSH2 0x4B22 JUMPI DUP2 DUP3 REVERT JUMPDEST DUP3 CALLDATALOAD PUSH2 0x4B2D DUP2 PUSH2 0x5550 JUMP JUMPDEST SWAP5 PUSH1 0x20 SWAP4 SWAP1 SWAP4 ADD CALLDATALOAD SWAP4 POP POP POP JUMP JUMPDEST PUSH1 0x0 PUSH1 0x20 DUP3 DUP5 SUB SLT ISZERO PUSH2 0x4B4C JUMPI DUP1 DUP2 REVERT JUMPDEST DUP2 CALLDATALOAD PUSH2 0xF0E DUP2 PUSH2 0x5565 JUMP JUMPDEST PUSH1 0x0 PUSH1 0x20 DUP3 DUP5 SUB SLT ISZERO PUSH2 0x4B68 JUMPI DUP1 DUP2 REVERT JUMPDEST DUP2 MLOAD PUSH2 0xF0E DUP2 PUSH2 0x5565 JUMP JUMPDEST PUSH1 0x0 PUSH1 0x20 DUP3 DUP5 SUB SLT ISZERO PUSH2 0x4B84 JUMPI DUP1 DUP2 REVERT JUMPDEST POP CALLDATALOAD SWAP2 SWAP1 POP JUMP JUMPDEST PUSH1 0x0 PUSH1 0x20 DUP3 DUP5 SUB SLT ISZERO PUSH2 0x4B9C JUMPI DUP1 DUP2 REVERT JUMPDEST POP MLOAD SWAP2 SWAP1 POP JUMP JUMPDEST PUSH1 0x0 DUP1 PUSH1 0x40 DUP4 DUP6 SUB SLT ISZERO PUSH2 0x4BB5 JUMPI DUP2 DUP3 REVERT JUMPDEST DUP3 CALLDATALOAD SWAP2 POP PUSH1 0x20 DUP4 ADD CALLDATALOAD PUSH2 0x4AC5 DUP2 PUSH2 0x5550 JUMP JUMPDEST PUSH1 0x0 DUP1 PUSH1 0x40 DUP4 DUP6 SUB SLT ISZERO PUSH2 0x4BD9 JUMPI DUP2 DUP3 REVERT JUMPDEST DUP3 CALLDATALOAD SWAP2 POP PUSH1 0x20 DUP4 ADD CALLDATALOAD PUSH2 0x4AC5 DUP2 PUSH2 0x5565 JUMP JUMPDEST PUSH1 0x0 DUP1 PUSH1 0x40 DUP4 DUP6 SUB SLT ISZERO PUSH2 0x4BFD JUMPI DUP2 DUP3 REVERT JUMPDEST POP POP DUP1 CALLDATALOAD SWAP3 PUSH1 0x20 SWAP1 SWAP2 ADD CALLDATALOAD SWAP2 POP JUMP JUMPDEST PUSH1 0x0 DUP1 PUSH1 0x0 PUSH1 0x60 DUP5 DUP7 SUB SLT ISZERO PUSH2 0x4C20 JUMPI DUP3 DUP4 REVERT JUMPDEST DUP4 CALLDATALOAD SWAP3 POP PUSH1 0x20 DUP5 ADD CALLDATALOAD SWAP2 POP PUSH1 0x40 DUP5 ADD CALLDATALOAD PUSH2 0x4C39 DUP2 PUSH2 0x5565 JUMP JUMPDEST DUP1 SWAP2 POP POP SWAP3 POP SWAP3 POP SWAP3 JUMP JUMPDEST PUSH1 0x0 DUP1 PUSH1 0x0 PUSH1 0x60 DUP5 DUP7 SUB SLT ISZERO PUSH2 0x4C58 JUMPI DUP3 DUP4 REVERT JUMPDEST DUP4 MLOAD SWAP3 POP PUSH1 0x20 DUP5 ADD MLOAD SWAP2 POP PUSH1 0x40 DUP5 ADD MLOAD SWAP1 POP SWAP3 POP SWAP3 POP SWAP3 JUMP JUMPDEST PUSH1 0x0 DUP1 PUSH1 0x0 DUP1 PUSH1 0x0 DUP1 PUSH1 0x0 PUSH1 0xE0 DUP9 DUP11 SUB SLT ISZERO PUSH2 0x4C8B JUMPI DUP3 DUP4 REVERT JUMPDEST DUP8 CALLDATALOAD SWAP7 POP PUSH1 0x20 DUP9 ADD CALLDATALOAD SWAP6 POP PUSH1 0x40 DUP9 ADD CALLDATALOAD SWAP5 POP PUSH1 0x60 DUP9 ADD CALLDATALOAD SWAP4 POP PUSH1 0x80 DUP9 ADD CALLDATALOAD SWAP3 POP PUSH1 0xA0 DUP9 ADD CALLDATALOAD PUSH2 0x4CB9 DUP2 PUSH2 0x5550 JUMP JUMPDEST SWAP2 POP PUSH1 0xC0 DUP9 ADD CALLDATALOAD PUSH2 0x4CC9 DUP2 PUSH2 0x5550 JUMP JUMPDEST DUP1 SWAP2 POP POP SWAP3 SWAP6 SWAP9 SWAP2 SWAP5 SWAP8 POP SWAP3 SWAP6 POP JUMP JUMPDEST PUSH1 0x0 DUP2 MLOAD DUP1 DUP5 MSTORE PUSH1 0x20 DUP1 DUP6 ADD SWAP5 POP DUP1 DUP5 ADD DUP4 JUMPDEST DUP4 DUP2 LT ISZERO PUSH2 0x4D11 JUMPI DUP2 MLOAD PUSH1 0x1 PUSH1 0x1 PUSH1 0xA0 SHL SUB AND DUP8 MSTORE SWAP6 DUP3 ADD SWAP6 SWAP1 DUP3 ADD SWAP1 PUSH1 0x1 ADD PUSH2 0x4CEC JUMP JUMPDEST POP SWAP5 SWAP6 SWAP5 POP POP POP POP POP JUMP JUMPDEST PUSH1 0x1 PUSH1 0x1 PUSH1 0xA0 SHL SUB SWAP2 SWAP1 SWAP2 AND DUP2 MSTORE PUSH1 0x20 ADD SWAP1 JUMP JUMPDEST PUSH1 0x1 PUSH1 0x1 PUSH1 0xA0 SHL SUB SWAP4 DUP5 AND DUP2 MSTORE SWAP2 SWAP1 SWAP3 AND PUSH1 0x20 DUP3 ADD MSTORE PUSH1 0x40 DUP2 ADD SWAP2 SWAP1 SWAP2 MSTORE PUSH1 0x60 ADD SWAP1 JUMP JUMPDEST PUSH1 0x1 PUSH1 0x1 PUSH1 0xA0 SHL SUB SWAP4 DUP5 AND DUP2 MSTORE SWAP2 DUP4 AND PUSH1 0x20 DUP4 ADD MSTORE SWAP1 SWAP2 AND PUSH1 0x40 DUP3 ADD MSTORE PUSH1 0x60 ADD SWAP1 JUMP JUMPDEST PUSH1 0x1 PUSH1 0x1 PUSH1 0xA0 SHL SUB SWAP3 SWAP1 SWAP3 AND DUP3 MSTORE PUSH1 0x20 DUP3 ADD MSTORE PUSH1 0x40 ADD SWAP1 JUMP JUMPDEST PUSH1 0x1 PUSH1 0x1 PUSH1 0xA0 SHL SUB SWAP7 DUP8 AND DUP2 MSTORE PUSH1 0x20 DUP2 ADD SWAP6 SWAP1 SWAP6 MSTORE PUSH1 0x40 DUP6 ADD SWAP4 SWAP1 SWAP4 MSTORE PUSH1 0x60 DUP5 ADD SWAP2 SWAP1 SWAP2 MSTORE SWAP1 SWAP3 AND PUSH1 0x80 DUP3 ADD MSTORE PUSH1 0xA0 DUP2 ADD SWAP2 SWAP1 SWAP2 MSTORE PUSH1 0xC0 ADD SWAP1 JUMP JUMPDEST SWAP1 ISZERO ISZERO DUP2 MSTORE PUSH1 0x20 ADD SWAP1 JUMP JUMPDEST PUSH1 0x0 DUP6 DUP3 MSTORE PUSH1 0x80 PUSH1 0x20 DUP4 ADD MSTORE PUSH2 0x4DEF PUSH1 0x80 DUP4 ADD DUP7 PUSH2 0x4CD9 JUMP JUMPDEST PUSH1 0x1 PUSH1 0x1 PUSH1 0xA0 SHL SUB SWAP5 SWAP1 SWAP5 AND PUSH1 0x40 DUP4 ADD MSTORE POP PUSH1 0x60 ADD MSTORE SWAP3 SWAP2 POP POP JUMP JUMPDEST PUSH1 0x0 PUSH1 0x20 DUP1 DUP4 MSTORE DUP4 MLOAD DUP1 DUP3 DUP6 ADD MSTORE DUP3 JUMPDEST DUP2 DUP2 LT ISZERO PUSH2 0x4E37 JUMPI DUP6 DUP2 ADD DUP4 ADD MLOAD DUP6 DUP3 ADD PUSH1 0x40 ADD MSTORE DUP3 ADD PUSH2 0x4E1B JUMP JUMPDEST DUP2 DUP2 GT ISZERO PUSH2 0x4E48 JUMPI DUP4 PUSH1 0x40 DUP4 DUP8 ADD ADD MSTORE JUMPDEST POP PUSH1 0x1F ADD PUSH1 0x1F NOT AND SWAP3 SWAP1 SWAP3 ADD PUSH1 0x40 ADD SWAP4 SWAP3 POP POP POP JUMP JUMPDEST PUSH1 0x20 DUP1 DUP3 MSTORE PUSH1 0x25 SWAP1 DUP3 ADD MSTORE PUSH32 0x42455032303A207472616E736665722066726F6D20746865207A65726F206164 PUSH1 0x40 DUP3 ADD MSTORE PUSH5 0x6472657373 PUSH1 0xD8 SHL PUSH1 0x60 DUP3 ADD MSTORE PUSH1 0x80 ADD SWAP1 JUMP JUMPDEST PUSH1 0x20 DUP1 DUP3 MSTORE PUSH1 0x24 SWAP1 DUP3 ADD MSTORE PUSH32 0x42455032303A20617070726F76652066726F6D20746865207A65726F20616464 PUSH1 0x40 DUP3 ADD MSTORE PUSH4 0x72657373 PUSH1 0xE0 SHL PUSH1 0x60 DUP3 ADD MSTORE PUSH1 0x80 ADD SWAP1 JUMP JUMPDEST PUSH1 0x20 DUP1 DUP3 MSTORE PUSH1 0x2A SWAP1 DUP3 ADD MSTORE PUSH32 0x416D6F756E74206D757374206265206C657373207468616E20746F74616C2072 PUSH1 0x40 DUP3 ADD MSTORE PUSH10 0x65666C656374696F6E73 PUSH1 0xB0 SHL PUSH1 0x60 DUP3 ADD MSTORE PUSH1 0x80 ADD SWAP1 JUMP JUMPDEST PUSH1 0x20 DUP1 DUP3 MSTORE PUSH1 0x26 SWAP1 DUP3 ADD MSTORE PUSH32 0x4F776E61626C653A206E6577206F776E657220697320746865207A65726F2061 PUSH1 0x40 DUP3 ADD MSTORE PUSH6 0x646472657373 PUSH1 0xD0 SHL PUSH1 0x60 DUP3 ADD MSTORE PUSH1 0x80 ADD SWAP1 JUMP JUMPDEST PUSH1 0x20 DUP1 DUP3 MSTORE PUSH1 0x1B SWAP1 DUP3 ADD MSTORE PUSH27 0x536166654D6174683A206164646974696F6E206F766572666C6F77 PUSH1 0x28 SHL PUSH1 0x40 DUP3 ADD MSTORE PUSH1 0x60 ADD SWAP1 JUMP JUMPDEST PUSH1 0x20 DUP1 DUP3 MSTORE PUSH1 0x1E SWAP1 DUP3 ADD MSTORE PUSH32 0x536166654D6174683A207375627472616374696F6E206F766572666C6F770000 PUSH1 0x40 DUP3 ADD MSTORE PUSH1 0x60 ADD SWAP1 JUMP JUMPDEST PUSH1 0x20 DUP1 DUP3 MSTORE PUSH1 0x1A SWAP1 DUP3 ADD MSTORE PUSH26 0x536166654D6174683A206469766973696F6E206279207A65726F PUSH1 0x30 SHL PUSH1 0x40 DUP3 ADD MSTORE PUSH1 0x60 ADD SWAP1 JUMP JUMPDEST PUSH1 0x20 DUP1 DUP3 MSTORE PUSH1 0x1F SWAP1 DUP3 ADD MSTORE PUSH32 0x416D6F756E74206D757374206265206C657373207468616E20737570706C7900 PUSH1 0x40 DUP3 ADD MSTORE PUSH1 0x60 ADD SWAP1 JUMP JUMPDEST PUSH1 0x20 DUP1 DUP3 MSTORE PUSH1 0x28 SWAP1 DUP3 ADD MSTORE PUSH32 0x5472616E7366657220616D6F756E74206578636565647320746865206D617854 PUSH1 0x40 DUP3 ADD MSTORE PUSH8 0x3C20B6B7BAB73A17 PUSH1 0xC1 SHL PUSH1 0x60 DUP3 ADD MSTORE PUSH1 0x80 ADD SWAP1 JUMP JUMPDEST PUSH1 0x20 DUP1 DUP3 MSTORE PUSH1 0x2E SWAP1 DUP3 ADD MSTORE PUSH32 0x496E697469616C697A61626C653A20636F6E747261637420697320616C726561 PUSH1 0x40 DUP3 ADD MSTORE PUSH14 0x191E481A5B9A5D1A585B1A5E9959 PUSH1 0x92 SHL PUSH1 0x60 DUP3 ADD MSTORE PUSH1 0x80 ADD SWAP1 JUMP JUMPDEST PUSH1 0x20 DUP1 DUP3 MSTORE PUSH1 0x15 SWAP1 DUP3 ADD MSTORE PUSH21 0x14D859995B5BDBDB8E88139BDD08105B1B1BDDD959 PUSH1 0x5A SHL PUSH1 0x40 DUP3 ADD MSTORE PUSH1 0x60 ADD SWAP1 JUMP JUMPDEST PUSH1 0x20 DUP1 DUP3 MSTORE PUSH1 0x1C SWAP1 DUP3 ADD MSTORE PUSH28 0xA6C2CCCADADEDEDC744092DCECC2D8D2C840E8D2CAE440D2DCC8CAF PUSH1 0x23 SHL PUSH1 0x40 DUP3 ADD MSTORE PUSH1 0x60 ADD SWAP1 JUMP JUMPDEST PUSH1 0x20 DUP1 DUP3 MSTORE PUSH1 0x21 SWAP1 DUP3 ADD MSTORE PUSH32 0x536166654D6174683A206D756C7469706C69636174696F6E206F766572666C6F PUSH1 0x40 DUP3 ADD MSTORE PUSH1 0x77 PUSH1 0xF8 SHL PUSH1 0x60 DUP3 ADD MSTORE PUSH1 0x80 ADD SWAP1 JUMP JUMPDEST PUSH1 0x20 DUP1 DUP3 MSTORE PUSH1 0x1F SWAP1 DUP3 ADD MSTORE PUSH32 0x42455032303A206D696E7420746F20746865207A65726F206164647265737300 PUSH1 0x40 DUP3 ADD MSTORE PUSH1 0x60 ADD SWAP1 JUMP JUMPDEST PUSH1 0x20 DUP1 DUP3 MSTORE DUP2 DUP2 ADD MSTORE PUSH32 0x4F776E61626C653A2063616C6C6572206973206E6F7420746865206F776E6572 PUSH1 0x40 DUP3 ADD MSTORE PUSH1 0x60 ADD SWAP1 JUMP JUMPDEST PUSH1 0x20 DUP1 DUP3 MSTORE PUSH1 0x19 SWAP1 DUP3 ADD MSTORE PUSH25 0x536166656D6F6F6E3A20496E76616C69642061646472657373 PUSH1 0x38 SHL PUSH1 0x40 DUP3 ADD MSTORE PUSH1 0x60 ADD SWAP1 JUMP JUMPDEST PUSH1 0x20 DUP1 DUP3 MSTORE PUSH1 0x29 SWAP1 DUP3 ADD MSTORE PUSH32 0x5472616E7366657220616D6F756E74206D757374206265206772656174657220 PUSH1 0x40 DUP3 ADD MSTORE PUSH9 0x7468616E207A65726F PUSH1 0xB8 SHL PUSH1 0x60 DUP3 ADD MSTORE PUSH1 0x80 ADD SWAP1 JUMP JUMPDEST PUSH1 0x20 DUP1 DUP3 MSTORE PUSH1 0x22 SWAP1 DUP3 ADD MSTORE PUSH32 0x536166656D6F6F6E3A204D6967726174696F6E206973206E6F74207374617274 PUSH1 0x40 DUP3 ADD MSTORE PUSH2 0x1959 PUSH1 0xF2 SHL PUSH1 0x60 DUP3 ADD MSTORE PUSH1 0x80 ADD SWAP1 JUMP JUMPDEST PUSH1 0x20 DUP1 DUP3 MSTORE PUSH1 0x25 SWAP1 DUP3 ADD MSTORE PUSH32 0x536166656D6F6F6E3A2041646472657373205A65726F206973206E6F7420616C PUSH1 0x40 DUP3 ADD MSTORE PUSH5 0x1B1BDDD959 PUSH1 0xDA SHL PUSH1 0x60 DUP3 ADD MSTORE PUSH1 0x80 ADD SWAP1 JUMP JUMPDEST PUSH1 0x20 DUP1 DUP3 MSTORE PUSH1 0x23 SWAP1 DUP3 ADD MSTORE PUSH32 0x42455032303A207472616E7366657220746F20746865207A65726F2061646472 PUSH1 0x40 DUP3 ADD MSTORE PUSH3 0x657373 PUSH1 0xE8 SHL PUSH1 0x60 DUP3 ADD MSTORE PUSH1 0x80 ADD SWAP1 JUMP JUMPDEST PUSH1 0x20 DUP1 DUP3 MSTORE PUSH1 0x2A SWAP1 DUP3 ADD MSTORE PUSH32 0x424E422062616C616E6365206973206E6F7420726561636820666F7220532645 PUSH1 0x40 DUP3 ADD MSTORE PUSH10 0x8151A1C995CDA1BDB19 PUSH1 0xB2 SHL PUSH1 0x60 DUP3 ADD MSTORE PUSH1 0x80 ADD SWAP1 JUMP JUMPDEST PUSH1 0x20 DUP1 DUP3 MSTORE PUSH1 0x25 SWAP1 DUP3 ADD MSTORE PUSH32 0x536166656D6F6F6E3A204163636F756E74206973206E6F7420696E2077686974 PUSH1 0x40 DUP3 ADD MSTORE PUSH5 0x195B1A5CDD PUSH1 0xDA SHL PUSH1 0x60 DUP3 ADD MSTORE PUSH1 0x80 ADD SWAP1 JUMP JUMPDEST PUSH1 0x20 DUP1 DUP3 MSTORE PUSH1 0x26 SWAP1 DUP3 ADD MSTORE PUSH32 0x536166656D6F6F6E3A2046656573206578636565646564206D6178206C696D69 PUSH1 0x40 DUP3 ADD MSTORE PUSH6 0x3A30BA34B7B7 PUSH1 0xD1 SHL PUSH1 0x60 DUP3 ADD MSTORE PUSH1 0x80 ADD SWAP1 JUMP JUMPDEST PUSH1 0x20 DUP1 DUP3 MSTORE PUSH1 0x22 SWAP1 DUP3 ADD MSTORE PUSH32 0x42455032303A20617070726F766520746F20746865207A65726F206164647265 PUSH1 0x40 DUP3 ADD MSTORE PUSH2 0x7373 PUSH1 0xF0 SHL PUSH1 0x60 DUP3 ADD MSTORE PUSH1 0x80 ADD SWAP1 JUMP JUMPDEST DUP2 MLOAD DUP2 MSTORE PUSH1 0x20 DUP1 DUP4 ADD MLOAD SWAP1 DUP3 ADD MSTORE PUSH1 0x40 DUP1 DUP4 ADD MLOAD SWAP1 DUP3 ADD MSTORE PUSH1 0x60 DUP1 DUP4 ADD MLOAD SWAP1 DUP3 ADD MSTORE PUSH1 0x80 DUP1 DUP4 ADD MLOAD SWAP1 DUP3 ADD MSTORE PUSH1 0xA0 DUP1 DUP4 ADD MLOAD PUSH1 0x1 PUSH1 0x1 PUSH1 0xA0 SHL SUB SWAP1 DUP2 AND SWAP2 DUP4 ADD SWAP2 SWAP1 SWAP2 MSTORE PUSH1 0xC0 SWAP3 DUP4 ADD MLOAD AND SWAP2 DUP2 ADD SWAP2 SWAP1 SWAP2 MSTORE PUSH1 0xE0 ADD SWAP1 JUMP JUMPDEST SWAP1 DUP2 MSTORE PUSH1 0x20 ADD SWAP1 JUMP JUMPDEST PUSH1 0x0 DUP7 DUP3 MSTORE DUP6 PUSH1 0x20 DUP4 ADD MSTORE PUSH1 0xA0 PUSH1 0x40 DUP4 ADD MSTORE PUSH2 0x54D3 PUSH1 0xA0 DUP4 ADD DUP7 PUSH2 0x4CD9 JUMP JUMPDEST PUSH1 0x1 PUSH1 0x1 PUSH1 0xA0 SHL SUB SWAP5 SWAP1 SWAP5 AND PUSH1 0x60 DUP4 ADD MSTORE POP PUSH1 0x80 ADD MSTORE SWAP4 SWAP3 POP POP POP JUMP JUMPDEST SWAP3 DUP4 MSTORE PUSH1 0x20 DUP4 ADD SWAP2 SWAP1 SWAP2 MSTORE PUSH1 0x40 DUP3 ADD MSTORE PUSH1 0x60 ADD SWAP1 JUMP JUMPDEST SWAP7 DUP8 MSTORE PUSH1 0x20 DUP8 ADD SWAP6 SWAP1 SWAP6 MSTORE PUSH1 0x40 DUP7 ADD SWAP4 SWAP1 SWAP4 MSTORE PUSH1 0x60 DUP6 ADD SWAP2 SWAP1 SWAP2 MSTORE PUSH1 0x80 DUP5 ADD MSTORE PUSH1 0x1 PUSH1 0x1 PUSH1 0xA0 SHL SUB SWAP1 DUP2 AND PUSH1 0xA0 DUP5 ADD MSTORE AND PUSH1 0xC0 DUP3 ADD MSTORE PUSH1 0xE0 ADD SWAP1 JUMP JUMPDEST PUSH1 0xFF SWAP2 SWAP1 SWAP2 AND DUP2 MSTORE PUSH1 0x20 ADD SWAP1 JUMP JUMPDEST PUSH1 0x1 PUSH1 0x1 PUSH1 0xA0 SHL SUB DUP2 AND DUP2 EQ PUSH2 0x19AF JUMPI PUSH1 0x0 DUP1 REVERT JUMPDEST DUP1 ISZERO ISZERO DUP2 EQ PUSH2 0x19AF JUMPI PUSH1 0x0 DUP1 REVERT INVALID MSTORE8 PUSH2 0x6665 PUSH14 0x6F6F6E3A2046726F6D2061646472 PUSH6 0x737320697320 PUSH3 0x6C6163 PUSH12 0x6C6973746564536166656D6F PUSH16 0x6E3A205370656E646572206164647265 PUSH20 0x7320697320626C61636B6C697374656442455032 ADDRESS GASPRICE KECCAK256 PUSH21 0x72616E7366657220616D6F756E7420657863656564 PUSH20 0x20616C6C6F77616E6365536166656D6F6F6E3A20 SLOAD PUSH16 0x206164647265737320697320626C6163 PUSH12 0x6C6973746564536166656D6F PUSH16 0x6E3A204F776E65722061646472657373 KECCAK256 PUSH10 0x7320626C61636B6C6973 PUSH21 0x65648BE0079C531659141344CD1FD0A4F28419497F SWAP8 0x22 LOG3 0xDA 0xAF 0xE3 0xB4 XOR PUSH16 0x6B6457E0DDF252AD1BE2C89B69C2B068 0xFC CALLDATACOPY DUP14 0xAA SWAP6 0x2B 0xA7 CALL PUSH4 0xC4A11628 CREATE2 GAS 0x4D CREATE2 0x23 0xB3 0xEF TIMESTAMP GASLIMIT POP ORIGIN ADDRESS GASPRICE KECCAK256 PUSH5 0x6563726561 PUSH20 0x656420616C6C6F77616E63652062656C6F77207A PUSH6 0x726F53616665 PUSH14 0x6F6F6E3A204D6967726174656420 PUSH2 0x6363 PUSH16 0x756E7420697320626C61636B6C697374 PUSH6 0x64536166656D PUSH16 0x6F6E3A2053656C656374656420616363 PUSH16 0x756E7420697320696E20626C61636B6C PUSH10 0x7374A264697066735822 SLT KECCAK256 0xDF DIFFICULTY PUSH25 0xFCCA677B1FD7D0299C4CC39828B18AE8FAB95F19BFA83E62AA 0xCA PUSH5 0x57EF64736F PUSH13 0x634300060C0033000000000000 "
        },
        "gasEstimates": {
          "creation": {
            "codeDepositCost": "4460600",
            "executionCost": "5181",
            "totalCost": "4465781"
          },
          "external": {
            "WBNB()": "2060",
            "_burnAddress()": "2214",
            "_defaultFees()": "7314",
            "_maxTxAmount()": "1842",
            "accountTier(address)": "8700",
            "addTier(uint256,uint256,uint256,uint256,uint256,address,address)": "infinite",
            "allowance(address,address)": "infinite",
            "approve(address,uint256)": "infinite",
            "balanceOf(address)": "infinite",
            "blacklistAddress(address)": "28586",
            "decimals()": "1332",
            "decreaseAllowance(address,uint256)": "infinite",
            "excludeFromFee(address)": "22574",
            "excludeFromReward(address)": "infinite",
            "excludeWhitelistedAddress(address)": "7274",
            "feeTier(uint256)": "8428",
            "feeTiersLength()": "1072",
            "getBNBBalance()": "1638",
            "getContractBalance()": "infinite",
            "includeInFee(address)": "23426",
            "includeInReward(address)": "infinite",
            "increaseAllowance(address,uint256)": "infinite",
            "initRouterAndPair(address)": "infinite",
            "initialize()": "infinite",
            "isBlacklisted(address)": "2706",
            "isExcludedFromFee(address)": "1892",
            "isExcludedFromReward(address)": "2156",
            "isMigrationStarted()": "1718",
            "isWhitelisted(address)": "1672",
            "migrate(address,uint256)": "infinite",
            "name()": "infinite",
            "numOfBnbToSwapAndEvolve()": "1930",
            "numTokensToCollectBNB()": "1710",
            "owner()": "2038",
            "reflectionFromToken(uint256,bool)": "infinite",
            "reflectionFromTokenInTiers(uint256,uint256,bool)": "infinite",
            "renounceOwnership()": "25077",
            "setBurnFeePercent(uint256,uint256)": "infinite",
            "setDefaultSettings()": "42810",
            "setEcoSystemFeeAddress(uint256,address)": "infinite",
            "setEcoSystemFeePercent(uint256,uint256)": "infinite",
            "setLiquidityFeePercent(uint256,uint256)": "infinite",
            "setMaxTxPercent(uint256)": "infinite",
            "setMigrationAddress(address)": "22601",
            "setNumOfBnbToSwapAndEvolve(uint256)": "22606",
            "setNumberOfTokenToCollectBNB(uint256)": "21858",
            "setOwnerFeeAddress(uint256,address)": "infinite",
            "setOwnerFeePercent(uint256,uint256)": "infinite",
            "setSwapAndEvolveEnabled(bool)": "23461",
            "setTaxFeePercent(uint256,uint256)": "infinite",
            "swapAndEvolve()": "infinite",
            "swapAndEvolveEnabled()": "1689",
            "swapAndLiquifyEnabled()": "1607",
            "symbol()": "infinite",
            "tokenFromReflection(uint256)": "infinite",
            "totalFees()": "1094",
            "totalSupply()": "1182",
            "transfer(address,uint256)": "infinite",
            "transferFrom(address,address,uint256)": "infinite",
            "transferOwnership(address)": "25881",
            "unBlacklistAddress(address)": "23316",
            "uniswapV2Pair()": "1598",
            "uniswapV2Router()": "1202",
            "updateBurnAddress(address)": "infinite",
            "updateRouterAndPair(address,address)": "infinite",
            "whitelistAddress(address,uint256)": "infinite",
            "withdrawBnb(uint256)": "infinite",
            "withdrawToken(address,uint256)": "infinite"
          },
          "internal": {
            "__Safemoon_tiers_init()": "infinite",
            "__Safemoon_v2_init_unchained()": "infinite",
            "_addTier(uint256,uint256,uint256,uint256,uint256,address,address)": "infinite",
            "_approve(address,address,uint256)": "infinite",
            "_getCurrentSupply()": "infinite",
            "_getRValues(uint256,uint256,uint256,uint256)": "infinite",
            "_getRate()": "infinite",
            "_getTValues(uint256,uint256)": "infinite",
            "_getValues(uint256,uint256)": "infinite",
            "_migrate(address,uint256)": "infinite",
            "_reflectFee(uint256,uint256)": "infinite",
            "_takeBurn(address,uint256)": "infinite",
            "_takeFee(address,uint256,address)": "infinite",
            "_takeFees(address,struct Safemoon.FeeValues memory,uint256)": "infinite",
            "_tokenTransfer(address,address,uint256,uint256,bool)": "infinite",
            "_transfer(address,address,uint256)": "infinite",
            "_transferBothExcluded(address,address,uint256,uint256)": "infinite",
            "_transferFromExcluded(address,address,uint256,uint256)": "infinite",
            "_transferStandard(address,address,uint256,uint256)": "infinite",
            "_transferToExcluded(address,address,uint256,uint256)": "infinite",
            "addLiquidity(uint256,uint256)": "infinite",
            "calculateFee(uint256,uint256)": "infinite",
            "checkFees(struct Safemoon.FeeTier memory)": "infinite",
            "checkFeesChanged(struct Safemoon.FeeTier memory,uint256,uint256)": "infinite",
            "collectBNB(uint256)": "infinite",
            "removeAllFee()": "296617",
            "restoreAllFee()": "148352",
            "swapBnbForTokens(uint256)": "infinite",
            "swapTokensForBnb(uint256)": "infinite"
          }
        },
        "methodIdentifiers": {
          "WBNB()": "8dd95002",
          "_burnAddress()": "bd3900c0",
          "_defaultFees()": "dfd66cb3",
          "_maxTxAmount()": "7d1db4a5",
          "accountTier(address)": "30127334",
          "addTier(uint256,uint256,uint256,uint256,uint256,address,address)": "4ffc1425",
          "allowance(address,address)": "dd62ed3e",
          "approve(address,uint256)": "095ea7b3",
          "balanceOf(address)": "70a08231",
          "blacklistAddress(address)": "f3290d75",
          "decimals()": "313ce567",
          "decreaseAllowance(address,uint256)": "a457c2d7",
          "excludeFromFee(address)": "437823ec",
          "excludeFromReward(address)": "52390c02",
          "excludeWhitelistedAddress(address)": "10844953",
          "feeTier(uint256)": "140c5759",
          "feeTiersLength()": "11b32601",
          "getBNBBalance()": "f89879aa",
          "getContractBalance()": "6f9fb98a",
          "includeInFee(address)": "ea2f0b37",
          "includeInReward(address)": "3685d419",
          "increaseAllowance(address,uint256)": "39509351",
          "initRouterAndPair(address)": "ee280881",
          "initialize()": "8129fc1c",
          "isBlacklisted(address)": "fe575a87",
          "isExcludedFromFee(address)": "5342acb4",
          "isExcludedFromReward(address)": "88f82020",
          "isMigrationStarted()": "60d0eb73",
          "isWhitelisted(address)": "3af32abf",
          "migrate(address,uint256)": "ad68ebf7",
          "name()": "06fdde03",
          "numOfBnbToSwapAndEvolve()": "8abec606",
          "numTokensToCollectBNB()": "6531c58c",
          "owner()": "8da5cb5b",
          "reflectionFromToken(uint256,bool)": "4549b039",
          "reflectionFromTokenInTiers(uint256,uint256,bool)": "bf266469",
          "renounceOwnership()": "715018a6",
          "setBurnFeePercent(uint256,uint256)": "8fc3d4b8",
          "setDefaultSettings()": "132af75c",
          "setEcoSystemFeeAddress(uint256,address)": "7ed948f7",
          "setEcoSystemFeePercent(uint256,uint256)": "39aa1bba",
          "setLiquidityFeePercent(uint256,uint256)": "f2d58c23",
          "setMaxTxPercent(uint256)": "d543dbeb",
          "setMigrationAddress(address)": "4732a7dc",
          "setNumOfBnbToSwapAndEvolve(uint256)": "fff3e1ba",
          "setNumberOfTokenToCollectBNB(uint256)": "674a3112",
          "setOwnerFeeAddress(uint256,address)": "8af319c7",
          "setOwnerFeePercent(uint256,uint256)": "d66329b0",
          "setSwapAndEvolveEnabled(bool)": "32c2d90c",
          "setTaxFeePercent(uint256,uint256)": "30b263ba",
          "swapAndEvolve()": "8d50d499",
          "swapAndEvolveEnabled()": "55724b3a",
          "swapAndLiquifyEnabled()": "4a74bb02",
          "symbol()": "95d89b41",
          "tokenFromReflection(uint256)": "2d838119",
          "totalFees()": "13114a9d",
          "totalSupply()": "18160ddd",
          "transfer(address,uint256)": "a9059cbb",
          "transferFrom(address,address,uint256)": "23b872dd",
          "transferOwnership(address)": "f2fde38b",
          "unBlacklistAddress(address)": "d40cf659",
          "uniswapV2Pair()": "49bd5a5e",
          "uniswapV2Router()": "1694505e",
          "updateBurnAddress(address)": "6bd89cdd",
          "updateRouterAndPair(address,address)": "40b28c2f",
          "whitelistAddress(address,uint256)": "200c7295",
          "withdrawBnb(uint256)": "459c979b",
          "withdrawToken(address,uint256)": "9e281a98"
        }
      },
      "storageLayout": {
        "storage": [
          {
            "astId": 3961,
            "contract": "contracts/SFMMock/Safemoon.sol:Safemoon",
            "label": "_initialized",
            "offset": 0,
            "slot": "0",
            "type": "t_bool"
          },
          {
            "astId": 3964,
            "contract": "contracts/SFMMock/Safemoon.sol:Safemoon",
            "label": "_initializing",
            "offset": 1,
            "slot": "0",
            "type": "t_bool"
          },
          {
            "astId": 4061,
            "contract": "contracts/SFMMock/Safemoon.sol:Safemoon",
            "label": "__gap",
            "offset": 0,
            "slot": "1",
            "type": "t_array(t_uint256)50_storage"
          },
          {
            "astId": 4068,
            "contract": "contracts/SFMMock/Safemoon.sol:Safemoon",
            "label": "_owner",
            "offset": 0,
            "slot": "51",
            "type": "t_address"
          },
          {
            "astId": 4187,
            "contract": "contracts/SFMMock/Safemoon.sol:Safemoon",
            "label": "__gap",
            "offset": 0,
            "slot": "52",
            "type": "t_array(t_uint256)49_storage"
          },
          {
            "astId": 68,
            "contract": "contracts/SFMMock/Safemoon.sol:Safemoon",
            "label": "_rOwned",
            "offset": 0,
            "slot": "101",
            "type": "t_mapping(t_address,t_uint256)"
          },
          {
            "astId": 72,
            "contract": "contracts/SFMMock/Safemoon.sol:Safemoon",
            "label": "_tOwned",
            "offset": 0,
            "slot": "102",
            "type": "t_mapping(t_address,t_uint256)"
          },
          {
            "astId": 78,
            "contract": "contracts/SFMMock/Safemoon.sol:Safemoon",
            "label": "_allowances",
            "offset": 0,
            "slot": "103",
            "type": "t_mapping(t_address,t_mapping(t_address,t_uint256))"
          },
          {
            "astId": 82,
            "contract": "contracts/SFMMock/Safemoon.sol:Safemoon",
            "label": "_isExcludedFromFee",
            "offset": 0,
            "slot": "104",
            "type": "t_mapping(t_address,t_bool)"
          },
          {
            "astId": 86,
            "contract": "contracts/SFMMock/Safemoon.sol:Safemoon",
            "label": "_isExcluded",
            "offset": 0,
            "slot": "105",
            "type": "t_mapping(t_address,t_bool)"
          },
          {
            "astId": 90,
            "contract": "contracts/SFMMock/Safemoon.sol:Safemoon",
            "label": "_isBlacklisted",
            "offset": 0,
            "slot": "106",
            "type": "t_mapping(t_address,t_bool)"
          },
          {
            "astId": 94,
            "contract": "contracts/SFMMock/Safemoon.sol:Safemoon",
            "label": "_accountsTier",
            "offset": 0,
            "slot": "107",
            "type": "t_mapping(t_address,t_uint256)"
          },
          {
            "astId": 97,
            "contract": "contracts/SFMMock/Safemoon.sol:Safemoon",
            "label": "_excluded",
            "offset": 0,
            "slot": "108",
            "type": "t_array(t_address)dyn_storage"
          },
          {
            "astId": 106,
            "contract": "contracts/SFMMock/Safemoon.sol:Safemoon",
            "label": "_tTotal",
            "offset": 0,
            "slot": "109",
            "type": "t_uint256"
          },
          {
            "astId": 108,
            "contract": "contracts/SFMMock/Safemoon.sol:Safemoon",
            "label": "_rTotal",
            "offset": 0,
            "slot": "110",
            "type": "t_uint256"
          },
          {
            "astId": 110,
            "contract": "contracts/SFMMock/Safemoon.sol:Safemoon",
            "label": "_tFeeTotal",
            "offset": 0,
            "slot": "111",
            "type": "t_uint256"
          },
          {
            "astId": 112,
            "contract": "contracts/SFMMock/Safemoon.sol:Safemoon",
            "label": "_maxFee",
            "offset": 0,
            "slot": "112",
            "type": "t_uint256"
          },
          {
            "astId": 114,
            "contract": "contracts/SFMMock/Safemoon.sol:Safemoon",
            "label": "_name",
            "offset": 0,
            "slot": "113",
            "type": "t_string_storage"
          },
          {
            "astId": 116,
            "contract": "contracts/SFMMock/Safemoon.sol:Safemoon",
            "label": "_symbol",
            "offset": 0,
            "slot": "114",
            "type": "t_string_storage"
          },
          {
            "astId": 118,
            "contract": "contracts/SFMMock/Safemoon.sol:Safemoon",
            "label": "_decimals",
            "offset": 0,
            "slot": "115",
            "type": "t_uint8"
          },
          {
            "astId": 120,
            "contract": "contracts/SFMMock/Safemoon.sol:Safemoon",
            "label": "_defaultFees",
            "offset": 0,
            "slot": "116",
            "type": "t_struct(FeeTier)32_storage"
          },
          {
            "astId": 122,
            "contract": "contracts/SFMMock/Safemoon.sol:Safemoon",
            "label": "_previousFees",
            "offset": 0,
            "slot": "123",
            "type": "t_struct(FeeTier)32_storage"
          },
          {
            "astId": 124,
            "contract": "contracts/SFMMock/Safemoon.sol:Safemoon",
            "label": "_emptyFees",
            "offset": 0,
            "slot": "130",
            "type": "t_struct(FeeTier)32_storage"
          },
          {
            "astId": 127,
            "contract": "contracts/SFMMock/Safemoon.sol:Safemoon",
            "label": "feeTiers",
            "offset": 0,
            "slot": "137",
            "type": "t_array(t_struct(FeeTier)32_storage)dyn_storage"
          },
          {
            "astId": 129,
            "contract": "contracts/SFMMock/Safemoon.sol:Safemoon",
            "label": "uniswapV2Router",
            "offset": 0,
            "slot": "138",
            "type": "t_contract(IUniswapV2Router02)4970"
          },
          {
            "astId": 131,
            "contract": "contracts/SFMMock/Safemoon.sol:Safemoon",
            "label": "uniswapV2Pair",
            "offset": 0,
            "slot": "139",
            "type": "t_address"
          },
          {
            "astId": 133,
            "contract": "contracts/SFMMock/Safemoon.sol:Safemoon",
            "label": "WBNB",
            "offset": 0,
            "slot": "140",
            "type": "t_address"
          },
          {
            "astId": 135,
            "contract": "contracts/SFMMock/Safemoon.sol:Safemoon",
            "label": "migration",
            "offset": 0,
            "slot": "141",
            "type": "t_address"
          },
          {
            "astId": 137,
            "contract": "contracts/SFMMock/Safemoon.sol:Safemoon",
            "label": "_initializerAccount",
            "offset": 0,
            "slot": "142",
            "type": "t_address"
          },
          {
            "astId": 139,
            "contract": "contracts/SFMMock/Safemoon.sol:Safemoon",
            "label": "_burnAddress",
            "offset": 0,
            "slot": "143",
            "type": "t_address"
          },
          {
            "astId": 141,
            "contract": "contracts/SFMMock/Safemoon.sol:Safemoon",
            "label": "inSwapAndLiquify",
            "offset": 20,
            "slot": "143",
            "type": "t_bool"
          },
          {
            "astId": 143,
            "contract": "contracts/SFMMock/Safemoon.sol:Safemoon",
            "label": "swapAndLiquifyEnabled",
            "offset": 21,
            "slot": "143",
            "type": "t_bool"
          },
          {
            "astId": 145,
            "contract": "contracts/SFMMock/Safemoon.sol:Safemoon",
            "label": "_maxTxAmount",
            "offset": 0,
            "slot": "144",
            "type": "t_uint256"
          },
          {
            "astId": 147,
            "contract": "contracts/SFMMock/Safemoon.sol:Safemoon",
            "label": "numTokensSellToAddToLiquidity",
            "offset": 0,
            "slot": "145",
            "type": "t_uint256"
          },
          {
            "astId": 149,
            "contract": "contracts/SFMMock/Safemoon.sol:Safemoon",
            "label": "_upgraded",
            "offset": 0,
            "slot": "146",
            "type": "t_bool"
          },
          {
            "astId": 261,
            "contract": "contracts/SFMMock/Safemoon.sol:Safemoon",
            "label": "numTokensToCollectBNB",
            "offset": 0,
            "slot": "147",
            "type": "t_uint256"
          },
          {
            "astId": 263,
            "contract": "contracts/SFMMock/Safemoon.sol:Safemoon",
            "label": "numOfBnbToSwapAndEvolve",
            "offset": 0,
            "slot": "148",
            "type": "t_uint256"
          },
          {
            "astId": 265,
            "contract": "contracts/SFMMock/Safemoon.sol:Safemoon",
            "label": "inSwapAndEvolve",
            "offset": 0,
            "slot": "149",
            "type": "t_bool"
          },
          {
            "astId": 267,
            "contract": "contracts/SFMMock/Safemoon.sol:Safemoon",
            "label": "swapAndEvolveEnabled",
            "offset": 1,
            "slot": "149",
            "type": "t_bool"
          },
          {
            "astId": 270,
            "contract": "contracts/SFMMock/Safemoon.sol:Safemoon",
            "label": "_rTotalExcluded",
            "offset": 0,
            "slot": "150",
            "type": "t_uint256"
          },
          {
            "astId": 272,
            "contract": "contracts/SFMMock/Safemoon.sol:Safemoon",
            "label": "_tTotalExcluded",
            "offset": 0,
            "slot": "151",
            "type": "t_uint256"
          }
        ],
        "types": {
          "t_address": {
            "encoding": "inplace",
            "label": "address",
            "numberOfBytes": "20"
          },
          "t_array(t_address)dyn_storage": {
            "base": "t_address",
            "encoding": "dynamic_array",
            "label": "address[]",
            "numberOfBytes": "32"
          },
          "t_array(t_struct(FeeTier)32_storage)dyn_storage": {
            "base": "t_struct(FeeTier)32_storage",
            "encoding": "dynamic_array",
            "label": "struct Safemoon.FeeTier[]",
            "numberOfBytes": "32"
          },
          "t_array(t_uint256)49_storage": {
            "base": "t_uint256",
            "encoding": "inplace",
            "label": "uint256[49]",
            "numberOfBytes": "1568"
          },
          "t_array(t_uint256)50_storage": {
            "base": "t_uint256",
            "encoding": "inplace",
            "label": "uint256[50]",
            "numberOfBytes": "1600"
          },
          "t_bool": {
            "encoding": "inplace",
            "label": "bool",
            "numberOfBytes": "1"
          },
          "t_contract(IUniswapV2Router02)4970": {
            "encoding": "inplace",
            "label": "contract IUniswapV2Router02",
            "numberOfBytes": "20"
          },
          "t_mapping(t_address,t_bool)": {
            "encoding": "mapping",
            "key": "t_address",
            "label": "mapping(address => bool)",
            "numberOfBytes": "32",
            "value": "t_bool"
          },
          "t_mapping(t_address,t_mapping(t_address,t_uint256))": {
            "encoding": "mapping",
            "key": "t_address",
            "label": "mapping(address => mapping(address => uint256))",
            "numberOfBytes": "32",
            "value": "t_mapping(t_address,t_uint256)"
          },
          "t_mapping(t_address,t_uint256)": {
            "encoding": "mapping",
            "key": "t_address",
            "label": "mapping(address => uint256)",
            "numberOfBytes": "32",
            "value": "t_uint256"
          },
          "t_string_storage": {
            "encoding": "bytes",
            "label": "string",
            "numberOfBytes": "32"
          },
          "t_struct(FeeTier)32_storage": {
            "encoding": "inplace",
            "label": "struct Safemoon.FeeTier",
            "members": [
              {
                "astId": 19,
                "contract": "contracts/SFMMock/Safemoon.sol:Safemoon",
                "label": "ecoSystemFee",
                "offset": 0,
                "slot": "0",
                "type": "t_uint256"
              },
              {
                "astId": 21,
                "contract": "contracts/SFMMock/Safemoon.sol:Safemoon",
                "label": "liquidityFee",
                "offset": 0,
                "slot": "1",
                "type": "t_uint256"
              },
              {
                "astId": 23,
                "contract": "contracts/SFMMock/Safemoon.sol:Safemoon",
                "label": "taxFee",
                "offset": 0,
                "slot": "2",
                "type": "t_uint256"
              },
              {
                "astId": 25,
                "contract": "contracts/SFMMock/Safemoon.sol:Safemoon",
                "label": "ownerFee",
                "offset": 0,
                "slot": "3",
                "type": "t_uint256"
              },
              {
                "astId": 27,
                "contract": "contracts/SFMMock/Safemoon.sol:Safemoon",
                "label": "burnFee",
                "offset": 0,
                "slot": "4",
                "type": "t_uint256"
              },
              {
                "astId": 29,
                "contract": "contracts/SFMMock/Safemoon.sol:Safemoon",
                "label": "ecoSystem",
                "offset": 0,
                "slot": "5",
                "type": "t_address"
              },
              {
                "astId": 31,
                "contract": "contracts/SFMMock/Safemoon.sol:Safemoon",
                "label": "owner",
                "offset": 0,
                "slot": "6",
                "type": "t_address"
              }
            ],
            "numberOfBytes": "224"
          },
          "t_uint256": {
            "encoding": "inplace",
            "label": "uint256",
            "numberOfBytes": "32"
          },
          "t_uint8": {
            "encoding": "inplace",
            "label": "uint8",
            "numberOfBytes": "1"
          }
        }
      },
      "userdoc": {
        "kind": "user",
        "methods": {},
        "version": 1
      }
    }
  }
}