{
  "contracts/OptimizedTransparentUpgradeableProxy.sol": {
    "OptimizedTransparentUpgradeableProxy": {
      "abi": [
        {
          "inputs": [
            {
              "internalType": "address",
              "name": "_logic",
              "type": "address"
            },
            {
              "internalType": "address",
              "name": "admin_",
              "type": "address"
            },
            {
              "internalType": "bytes",
              "name": "_data",
              "type": "bytes"
            }
          ],
          "stateMutability": "payable",
          "type": "constructor"
        },
        {
          "anonymous": false,
          "inputs": [
            {
              "indexed": false,
              "internalType": "address",
              "name": "previousAdmin",
              "type": "address"
            },
            {
              "indexed": false,
              "internalType": "address",
              "name": "newAdmin",
              "type": "address"
            }
          ],
          "name": "AdminChanged",
          "type": "event"
        },
        {
          "anonymous": false,
          "inputs": [
            {
              "indexed": true,
              "internalType": "address",
              "name": "beacon",
              "type": "address"
            }
          ],
          "name": "BeaconUpgraded",
          "type": "event"
        },
        {
          "anonymous": false,
          "inputs": [
            {
              "indexed": true,
              "internalType": "address",
              "name": "implementation",
              "type": "address"
            }
          ],
          "name": "Upgraded",
          "type": "event"
        },
        {
          "stateMutability": "payable",
          "type": "fallback"
        },
        {
          "inputs": [],
          "name": "admin",
          "outputs": [
            {
              "internalType": "address",
              "name": "admin_",
              "type": "address"
            }
          ],
          "stateMutability": "nonpayable",
          "type": "function"
        },
        {
          "inputs": [],
          "name": "implementation",
          "outputs": [
            {
              "internalType": "address",
              "name": "implementation_",
              "type": "address"
            }
          ],
          "stateMutability": "nonpayable",
          "type": "function"
        },
        {
          "inputs": [
            {
              "internalType": "address",
              "name": "newImplementation",
              "type": "address"
            }
          ],
          "name": "upgradeTo",
          "outputs": [],
          "stateMutability": "nonpayable",
          "type": "function"
        },
        {
          "inputs": [
            {
              "internalType": "address",
              "name": "newImplementation",
              "type": "address"
            },
            {
              "internalType": "bytes",
              "name": "data",
              "type": "bytes"
            }
          ],
          "name": "upgradeToAndCall",
          "outputs": [],
          "stateMutability": "payable",
          "type": "function"
        },
        {
          "stateMutability": "payable",
          "type": "receive"
        }
      ],
      "devdoc": {
        "details": "This contract implements a proxy that is upgradeable by an admin. To avoid https://medium.com/nomic-labs-blog/malicious-backdoors-in-ethereum-proxies-62629adf3357[proxy selector clashing], which can potentially be used in an attack, this contract uses the https://blog.openzeppelin.com/the-transparent-proxy-pattern/[transparent proxy pattern]. This pattern implies two things that go hand in hand: 1. If any account other than the admin calls the proxy, the call will be forwarded to the implementation, even if that call matches one of the admin functions exposed by the proxy itself. 2. If the admin calls the proxy, it can access the admin functions, but its calls will never be forwarded to the implementation. If the admin tries to call a function on the implementation it will fail with an error that says \"admin cannot fallback to proxy target\". These properties mean that the admin account can only be used for admin actions like upgrading the proxy or changing the admin, so it's best if it's a dedicated account that is not used for anything else. This will avoid headaches due to sudden errors when trying to call a function from the proxy implementation. Our recommendation is for the dedicated account to be an instance of the {ProxyAdmin} contract. If set up this way, you should think of the `ProxyAdmin` instance as the real administrative interface of your proxy.",
        "kind": "dev",
        "methods": {
          "admin()": {
            "details": "Returns the current admin. NOTE: Only the admin can call this function. See {ProxyAdmin-getProxyAdmin}. TIP: To get this value clients can read directly from the storage slot shown below (specified by EIP1967) using the https://eth.wiki/json-rpc/API#eth_getstorageat[`eth_getStorageAt`] RPC call. `0xb53127684a568b3173ae13b9f8a6016e243e63b6e8ee1178d6a717850b5d6103`"
          },
          "constructor": {
            "details": "Initializes an upgradeable proxy managed by `_admin`, backed by the implementation at `_logic`, and optionally initialized with `_data` as explained in {ERC1967Proxy-constructor}."
          },
          "implementation()": {
            "details": "Returns the current implementation. NOTE: Only the admin can call this function. See {ProxyAdmin-getProxyImplementation}. TIP: To get this value clients can read directly from the storage slot shown below (specified by EIP1967) using the https://eth.wiki/json-rpc/API#eth_getstorageat[`eth_getStorageAt`] RPC call. `0x360894a13ba1a3210667c828492db98dca3e2076cc3735a920a3ca505d382bbc`"
          },
          "upgradeTo(address)": {
            "details": "Upgrade the implementation of the proxy. NOTE: Only the admin can call this function. See {ProxyAdmin-upgrade}."
          },
          "upgradeToAndCall(address,bytes)": {
            "details": "Upgrade the implementation of the proxy, and then call a function from the new implementation as specified by `data`, which should be an encoded function call. This is useful to initialize new storage variables in the proxied contract. NOTE: Only the admin can call this function. See {ProxyAdmin-upgradeAndCall}."
          }
        },
        "version": 1
      },
      "evm": {
        "bytecode": {
          "linkReferences": {},
          "object": "60a060405260405162000d5438038062000d5483398101604081905262000026916200044a565b82816200005560017f360894a13ba1a3210667c828492db98dca3e2076cc3735a920a3ca505d382bbd6200052a565b60008051602062000d0d8339815191521462000075576200007562000550565b62000083828260006200013c565b50620000b3905060017fb53127684a568b3173ae13b9f8a6016e243e63b6e8ee1178d6a717850b5d61046200052a565b60008051602062000ced83398151915214620000d357620000d362000550565b6001600160a01b038216608081905260008051602062000ced8339815191528381556040805160008152602081019390935290917f7e644d79422f17c01e4894b5f4f588d331ebfa28653d42ae832dc59e38c9798f910160405180910390a150505050620005b9565b620001478362000179565b600082511180620001555750805b156200017457620001728383620001bb60201b6200020b1760201c565b505b505050565b6200018481620001ea565b6040516001600160a01b038216907fbc7cd75a20ee27fd9adebab32041f755214dbc6bffa90cc0225b39da2e5c2d3b90600090a250565b6060620001e3838360405180606001604052806027815260200162000d2d60279139620002b2565b9392505050565b62000200816200039860201b620002371760201c565b620002685760405162461bcd60e51b815260206004820152602d60248201527f455243313936373a206e657720696d706c656d656e746174696f6e206973206e60448201526c1bdd08184818dbdb9d1c9858dd609a1b60648201526084015b60405180910390fd5b806200029160008051602062000d0d83398151915260001b620003a760201b620001dd1760201c565b80546001600160a01b0319166001600160a01b039290921691909117905550565b6060620002bf8462000398565b6200031c5760405162461bcd60e51b815260206004820152602660248201527f416464726573733a2064656c65676174652063616c6c20746f206e6f6e2d636f6044820152651b9d1c9858dd60d21b60648201526084016200025f565b600080856001600160a01b03168560405162000339919062000566565b600060405180830381855af49150503d806000811462000376576040519150601f19603f3d011682016040523d82523d6000602084013e6200037b565b606091505b5090925090506200038e828286620003aa565b9695505050505050565b6001600160a01b03163b151590565b90565b60608315620003bb575081620001e3565b825115620003cc5782518084602001fd5b8160405162461bcd60e51b81526004016200025f919062000584565b80516001600160a01b03811681146200040057600080fd5b919050565b634e487b7160e01b600052604160045260246000fd5b60005b83811015620004385781810151838201526020016200041e565b83811115620001725750506000910152565b6000806000606084860312156200046057600080fd5b6200046b84620003e8565b92506200047b60208501620003e8565b60408501519092506001600160401b03808211156200049957600080fd5b818601915086601f830112620004ae57600080fd5b815181811115620004c357620004c362000405565b604051601f8201601f19908116603f01168101908382118183101715620004ee57620004ee62000405565b816040528281528960208487010111156200050857600080fd5b6200051b8360208301602088016200041b565b80955050505050509250925092565b6000828210156200054b57634e487b7160e01b600052601160045260246000fd5b500390565b634e487b7160e01b600052600160045260246000fd5b600082516200057a8184602087016200041b565b9190910192915050565b6020815260008251806020840152620005a58160408501602087016200041b565b601f01601f19169190910160400192915050565b608051610718620005d5600039600061032c01526107186000f3fe6080604052600436106100435760003560e01c80633659cfe61461005a5780634f1ef2861461007a5780635c60da1b1461008d578063f851a440146100be57610052565b36610052576100506100d3565b005b6100506100d3565b34801561006657600080fd5b50610050610075366004610583565b6100ed565b61005061008836600461059e565b610134565b34801561009957600080fd5b506100a26101a5565b6040516001600160a01b03909116815260200160405180910390f35b3480156100ca57600080fd5b506100a26101e0565b6100db610246565b6100eb6100e66102e5565b610306565b565b6100f561032a565b6001600160a01b0316336001600160a01b0316141561012c576101298160405180602001604052806000815250600061034e565b50565b6101296100d3565b61013c61032a565b6001600160a01b0316336001600160a01b0316141561019d576101988383838080601f0160208091040260200160405190810160405280939291908181526020018383808284376000920191909152506001925061034e915050565b505050565b6101986100d3565b60006101af61032a565b6001600160a01b0316336001600160a01b031614156101d5576101d06102e5565b905090565b6101dd6100d3565b90565b60006101ea61032a565b6001600160a01b0316336001600160a01b031614156101d5576101d061032a565b606061023083836040518060600160405280602781526020016106bc60279139610379565b9392505050565b6001600160a01b03163b151590565b61024e61032a565b6001600160a01b0316336001600160a01b031614156100eb5760405162461bcd60e51b815260206004820152604260248201527f5472616e73706172656e745570677261646561626c6550726f78793a2061646d60448201527f696e2063616e6e6f742066616c6c6261636b20746f2070726f78792074617267606482015261195d60f21b608482015260a4015b60405180910390fd5b60006101d060008051602061069c833981519152546001600160a01b031690565b3660008037600080366000845af43d6000803e808015610325573d6000f35b3d6000fd5b7f000000000000000000000000000000000000000000000000000000000000000090565b61035783610454565b6000825111806103645750805b1561019857610373838361020b565b50505050565b606061038484610237565b6103df5760405162461bcd60e51b815260206004820152602660248201527f416464726573733a2064656c65676174652063616c6c20746f206e6f6e2d636f6044820152651b9d1c9858dd60d21b60648201526084016102dc565b600080856001600160a01b0316856040516103fa919061064c565b600060405180830381855af49150503d8060008114610435576040519150601f19603f3d011682016040523d82523d6000602084013e61043a565b606091505b509150915061044a828286610494565b9695505050505050565b61045d816104cd565b6040516001600160a01b038216907fbc7cd75a20ee27fd9adebab32041f755214dbc6bffa90cc0225b39da2e5c2d3b90600090a250565b606083156104a3575081610230565b8251156104b35782518084602001fd5b8160405162461bcd60e51b81526004016102dc9190610668565b6104d681610237565b6105385760405162461bcd60e51b815260206004820152602d60248201527f455243313936373a206e657720696d706c656d656e746174696f6e206973206e60448201526c1bdd08184818dbdb9d1c9858dd609a1b60648201526084016102dc565b60008051602061069c83398151915280546001600160a01b0319166001600160a01b0392909216919091179055565b80356001600160a01b038116811461057e57600080fd5b919050565b60006020828403121561059557600080fd5b61023082610567565b6000806000604084860312156105b357600080fd5b6105bc84610567565b925060208401356001600160401b03808211156105d857600080fd5b818601915086601f8301126105ec57600080fd5b8135818111156105fb57600080fd5b87602082850101111561060d57600080fd5b6020830194508093505050509250925092565b60005b8381101561063b578181015183820152602001610623565b838111156103735750506000910152565b6000825161065e818460208701610620565b9190910192915050565b6020815260008251806020840152610687816040850160208701610620565b601f01601f1916919091016040019291505056fe360894a13ba1a3210667c828492db98dca3e2076cc3735a920a3ca505d382bbc416464726573733a206c6f772d6c6576656c2064656c65676174652063616c6c206661696c6564a26469706673582212209f3708499b40f8cee72fa0c6c0581b88f2f09e977b80a1c8f34db596bd52951e64736f6c634300080b0033b53127684a568b3173ae13b9f8a6016e243e63b6e8ee1178d6a717850b5d6103360894a13ba1a3210667c828492db98dca3e2076cc3735a920a3ca505d382bbc416464726573733a206c6f772d6c6576656c2064656c65676174652063616c6c206661696c6564",
          "opcodes": "PUSH1 0xA0 PUSH1 0x40 MSTORE PUSH1 0x40 MLOAD PUSH3 0xD54 CODESIZE SUB DUP1 PUSH3 0xD54 DUP4 CODECOPY DUP2 ADD PUSH1 0x40 DUP2 SWAP1 MSTORE PUSH3 0x26 SWAP2 PUSH3 0x44A JUMP JUMPDEST DUP3 DUP2 PUSH3 0x55 PUSH1 0x1 PUSH32 0x360894A13BA1A3210667C828492DB98DCA3E2076CC3735A920A3CA505D382BBD PUSH3 0x52A JUMP JUMPDEST PUSH1 0x0 DUP1 MLOAD PUSH1 0x20 PUSH3 0xD0D DUP4 CODECOPY DUP2 MLOAD SWAP2 MSTORE EQ PUSH3 0x75 JUMPI PUSH3 0x75 PUSH3 0x550 JUMP JUMPDEST PUSH3 0x83 DUP3 DUP3 PUSH1 0x0 PUSH3 0x13C JUMP JUMPDEST POP PUSH3 0xB3 SWAP1 POP PUSH1 0x1 PUSH32 0xB53127684A568B3173AE13B9F8A6016E243E63B6E8EE1178D6A717850B5D6104 PUSH3 0x52A JUMP JUMPDEST PUSH1 0x0 DUP1 MLOAD PUSH1 0x20 PUSH3 0xCED DUP4 CODECOPY DUP2 MLOAD SWAP2 MSTORE EQ PUSH3 0xD3 JUMPI PUSH3 0xD3 PUSH3 0x550 JUMP JUMPDEST PUSH1 0x1 PUSH1 0x1 PUSH1 0xA0 SHL SUB DUP3 AND PUSH1 0x80 DUP2 SWAP1 MSTORE PUSH1 0x0 DUP1 MLOAD PUSH1 0x20 PUSH3 0xCED DUP4 CODECOPY DUP2 MLOAD SWAP2 MSTORE DUP4 DUP2 SSTORE PUSH1 0x40 DUP1 MLOAD PUSH1 0x0 DUP2 MSTORE PUSH1 0x20 DUP2 ADD SWAP4 SWAP1 SWAP4 MSTORE SWAP1 SWAP2 PUSH32 0x7E644D79422F17C01E4894B5F4F588D331EBFA28653D42AE832DC59E38C9798F SWAP2 ADD PUSH1 0x40 MLOAD DUP1 SWAP2 SUB SWAP1 LOG1 POP POP POP POP PUSH3 0x5B9 JUMP JUMPDEST PUSH3 0x147 DUP4 PUSH3 0x179 JUMP JUMPDEST PUSH1 0x0 DUP3 MLOAD GT DUP1 PUSH3 0x155 JUMPI POP DUP1 JUMPDEST ISZERO PUSH3 0x174 JUMPI PUSH3 0x172 DUP4 DUP4 PUSH3 0x1BB PUSH1 0x20 SHL PUSH3 0x20B OR PUSH1 0x20 SHR JUMP JUMPDEST POP JUMPDEST POP POP POP JUMP JUMPDEST PUSH3 0x184 DUP2 PUSH3 0x1EA JUMP JUMPDEST PUSH1 0x40 MLOAD PUSH1 0x1 PUSH1 0x1 PUSH1 0xA0 SHL SUB DUP3 AND SWAP1 PUSH32 0xBC7CD75A20EE27FD9ADEBAB32041F755214DBC6BFFA90CC0225B39DA2E5C2D3B SWAP1 PUSH1 0x0 SWAP1 LOG2 POP JUMP JUMPDEST PUSH1 0x60 PUSH3 0x1E3 DUP4 DUP4 PUSH1 0x40 MLOAD DUP1 PUSH1 0x60 ADD PUSH1 0x40 MSTORE DUP1 PUSH1 0x27 DUP2 MSTORE PUSH1 0x20 ADD PUSH3 0xD2D PUSH1 0x27 SWAP2 CODECOPY PUSH3 0x2B2 JUMP JUMPDEST SWAP4 SWAP3 POP POP POP JUMP JUMPDEST PUSH3 0x200 DUP2 PUSH3 0x398 PUSH1 0x20 SHL PUSH3 0x237 OR PUSH1 0x20 SHR JUMP JUMPDEST PUSH3 0x268 JUMPI PUSH1 0x40 MLOAD PUSH3 0x461BCD PUSH1 0xE5 SHL DUP2 MSTORE PUSH1 0x20 PUSH1 0x4 DUP3 ADD MSTORE PUSH1 0x2D PUSH1 0x24 DUP3 ADD MSTORE PUSH32 0x455243313936373A206E657720696D706C656D656E746174696F6E206973206E PUSH1 0x44 DUP3 ADD MSTORE PUSH13 0x1BDD08184818DBDB9D1C9858DD PUSH1 0x9A SHL PUSH1 0x64 DUP3 ADD MSTORE PUSH1 0x84 ADD JUMPDEST PUSH1 0x40 MLOAD DUP1 SWAP2 SUB SWAP1 REVERT JUMPDEST DUP1 PUSH3 0x291 PUSH1 0x0 DUP1 MLOAD PUSH1 0x20 PUSH3 0xD0D DUP4 CODECOPY DUP2 MLOAD SWAP2 MSTORE PUSH1 0x0 SHL PUSH3 0x3A7 PUSH1 0x20 SHL PUSH3 0x1DD OR PUSH1 0x20 SHR JUMP JUMPDEST DUP1 SLOAD PUSH1 0x1 PUSH1 0x1 PUSH1 0xA0 SHL SUB NOT AND PUSH1 0x1 PUSH1 0x1 PUSH1 0xA0 SHL SUB SWAP3 SWAP1 SWAP3 AND SWAP2 SWAP1 SWAP2 OR SWAP1 SSTORE POP JUMP JUMPDEST PUSH1 0x60 PUSH3 0x2BF DUP5 PUSH3 0x398 JUMP JUMPDEST PUSH3 0x31C JUMPI PUSH1 0x40 MLOAD PUSH3 0x461BCD PUSH1 0xE5 SHL DUP2 MSTORE PUSH1 0x20 PUSH1 0x4 DUP3 ADD MSTORE PUSH1 0x26 PUSH1 0x24 DUP3 ADD MSTORE PUSH32 0x416464726573733A2064656C65676174652063616C6C20746F206E6F6E2D636F PUSH1 0x44 DUP3 ADD MSTORE PUSH6 0x1B9D1C9858DD PUSH1 0xD2 SHL PUSH1 0x64 DUP3 ADD MSTORE PUSH1 0x84 ADD PUSH3 0x25F JUMP JUMPDEST PUSH1 0x0 DUP1 DUP6 PUSH1 0x1 PUSH1 0x1 PUSH1 0xA0 SHL SUB AND DUP6 PUSH1 0x40 MLOAD PUSH3 0x339 SWAP2 SWAP1 PUSH3 0x566 JUMP JUMPDEST PUSH1 0x0 PUSH1 0x40 MLOAD DUP1 DUP4 SUB DUP2 DUP6 GAS DELEGATECALL SWAP2 POP POP RETURNDATASIZE DUP1 PUSH1 0x0 DUP2 EQ PUSH3 0x376 JUMPI PUSH1 0x40 MLOAD SWAP2 POP PUSH1 0x1F NOT PUSH1 0x3F RETURNDATASIZE ADD AND DUP3 ADD PUSH1 0x40 MSTORE RETURNDATASIZE DUP3 MSTORE RETURNDATASIZE PUSH1 0x0 PUSH1 0x20 DUP5 ADD RETURNDATACOPY PUSH3 0x37B JUMP JUMPDEST PUSH1 0x60 SWAP2 POP JUMPDEST POP SWAP1 SWAP3 POP SWAP1 POP PUSH3 0x38E DUP3 DUP3 DUP7 PUSH3 0x3AA JUMP JUMPDEST SWAP7 SWAP6 POP POP POP POP POP POP JUMP JUMPDEST PUSH1 0x1 PUSH1 0x1 PUSH1 0xA0 SHL SUB AND EXTCODESIZE ISZERO ISZERO SWAP1 JUMP JUMPDEST SWAP1 JUMP JUMPDEST PUSH1 0x60 DUP4 ISZERO PUSH3 0x3BB JUMPI POP DUP2 PUSH3 0x1E3 JUMP JUMPDEST DUP3 MLOAD ISZERO PUSH3 0x3CC JUMPI DUP3 MLOAD DUP1 DUP5 PUSH1 0x20 ADD REVERT JUMPDEST DUP2 PUSH1 0x40 MLOAD PUSH3 0x461BCD PUSH1 0xE5 SHL DUP2 MSTORE PUSH1 0x4 ADD PUSH3 0x25F SWAP2 SWAP1 PUSH3 0x584 JUMP JUMPDEST DUP1 MLOAD PUSH1 0x1 PUSH1 0x1 PUSH1 0xA0 SHL SUB DUP2 AND DUP2 EQ PUSH3 0x400 JUMPI PUSH1 0x0 DUP1 REVERT JUMPDEST SWAP2 SWAP1 POP JUMP JUMPDEST PUSH4 0x4E487B71 PUSH1 0xE0 SHL PUSH1 0x0 MSTORE PUSH1 0x41 PUSH1 0x4 MSTORE PUSH1 0x24 PUSH1 0x0 REVERT JUMPDEST PUSH1 0x0 JUMPDEST DUP4 DUP2 LT ISZERO PUSH3 0x438 JUMPI DUP2 DUP2 ADD MLOAD DUP4 DUP3 ADD MSTORE PUSH1 0x20 ADD PUSH3 0x41E JUMP JUMPDEST DUP4 DUP2 GT ISZERO PUSH3 0x172 JUMPI POP POP PUSH1 0x0 SWAP2 ADD MSTORE JUMP JUMPDEST PUSH1 0x0 DUP1 PUSH1 0x0 PUSH1 0x60 DUP5 DUP7 SUB SLT ISZERO PUSH3 0x460 JUMPI PUSH1 0x0 DUP1 REVERT JUMPDEST PUSH3 0x46B DUP5 PUSH3 0x3E8 JUMP JUMPDEST SWAP3 POP PUSH3 0x47B PUSH1 0x20 DUP6 ADD PUSH3 0x3E8 JUMP JUMPDEST PUSH1 0x40 DUP6 ADD MLOAD SWAP1 SWAP3 POP PUSH1 0x1 PUSH1 0x1 PUSH1 0x40 SHL SUB DUP1 DUP3 GT ISZERO PUSH3 0x499 JUMPI PUSH1 0x0 DUP1 REVERT JUMPDEST DUP2 DUP7 ADD SWAP2 POP DUP7 PUSH1 0x1F DUP4 ADD SLT PUSH3 0x4AE JUMPI PUSH1 0x0 DUP1 REVERT JUMPDEST DUP2 MLOAD DUP2 DUP2 GT ISZERO PUSH3 0x4C3 JUMPI PUSH3 0x4C3 PUSH3 0x405 JUMP JUMPDEST PUSH1 0x40 MLOAD PUSH1 0x1F DUP3 ADD PUSH1 0x1F NOT SWAP1 DUP2 AND PUSH1 0x3F ADD AND DUP2 ADD SWAP1 DUP4 DUP3 GT DUP2 DUP4 LT OR ISZERO PUSH3 0x4EE JUMPI PUSH3 0x4EE PUSH3 0x405 JUMP JUMPDEST DUP2 PUSH1 0x40 MSTORE DUP3 DUP2 MSTORE DUP10 PUSH1 0x20 DUP5 DUP8 ADD ADD GT ISZERO PUSH3 0x508 JUMPI PUSH1 0x0 DUP1 REVERT JUMPDEST PUSH3 0x51B DUP4 PUSH1 0x20 DUP4 ADD PUSH1 0x20 DUP9 ADD PUSH3 0x41B JUMP JUMPDEST DUP1 SWAP6 POP POP POP POP POP POP SWAP3 POP SWAP3 POP SWAP3 JUMP JUMPDEST PUSH1 0x0 DUP3 DUP3 LT ISZERO PUSH3 0x54B JUMPI PUSH4 0x4E487B71 PUSH1 0xE0 SHL PUSH1 0x0 MSTORE PUSH1 0x11 PUSH1 0x4 MSTORE PUSH1 0x24 PUSH1 0x0 REVERT JUMPDEST POP SUB SWAP1 JUMP JUMPDEST PUSH4 0x4E487B71 PUSH1 0xE0 SHL PUSH1 0x0 MSTORE PUSH1 0x1 PUSH1 0x4 MSTORE PUSH1 0x24 PUSH1 0x0 REVERT JUMPDEST PUSH1 0x0 DUP3 MLOAD PUSH3 0x57A DUP2 DUP5 PUSH1 0x20 DUP8 ADD PUSH3 0x41B JUMP JUMPDEST SWAP2 SWAP1 SWAP2 ADD SWAP3 SWAP2 POP POP JUMP JUMPDEST PUSH1 0x20 DUP2 MSTORE PUSH1 0x0 DUP3 MLOAD DUP1 PUSH1 0x20 DUP5 ADD MSTORE PUSH3 0x5A5 DUP2 PUSH1 0x40 DUP6 ADD PUSH1 0x20 DUP8 ADD PUSH3 0x41B JUMP JUMPDEST PUSH1 0x1F ADD PUSH1 0x1F NOT AND SWAP2 SWAP1 SWAP2 ADD PUSH1 0x40 ADD SWAP3 SWAP2 POP POP JUMP JUMPDEST PUSH1 0x80 MLOAD PUSH2 0x718 PUSH3 0x5D5 PUSH1 0x0 CODECOPY PUSH1 0x0 PUSH2 0x32C ADD MSTORE PUSH2 0x718 PUSH1 0x0 RETURN INVALID PUSH1 0x80 PUSH1 0x40 MSTORE PUSH1 0x4 CALLDATASIZE LT PUSH2 0x43 JUMPI PUSH1 0x0 CALLDATALOAD PUSH1 0xE0 SHR DUP1 PUSH4 0x3659CFE6 EQ PUSH2 0x5A JUMPI DUP1 PUSH4 0x4F1EF286 EQ PUSH2 0x7A JUMPI DUP1 PUSH4 0x5C60DA1B EQ PUSH2 0x8D JUMPI DUP1 PUSH4 0xF851A440 EQ PUSH2 0xBE JUMPI PUSH2 0x52 JUMP JUMPDEST CALLDATASIZE PUSH2 0x52 JUMPI PUSH2 0x50 PUSH2 0xD3 JUMP JUMPDEST STOP JUMPDEST PUSH2 0x50 PUSH2 0xD3 JUMP JUMPDEST CALLVALUE DUP1 ISZERO PUSH2 0x66 JUMPI PUSH1 0x0 DUP1 REVERT JUMPDEST POP PUSH2 0x50 PUSH2 0x75 CALLDATASIZE PUSH1 0x4 PUSH2 0x583 JUMP JUMPDEST PUSH2 0xED JUMP JUMPDEST PUSH2 0x50 PUSH2 0x88 CALLDATASIZE PUSH1 0x4 PUSH2 0x59E JUMP JUMPDEST PUSH2 0x134 JUMP JUMPDEST CALLVALUE DUP1 ISZERO PUSH2 0x99 JUMPI PUSH1 0x0 DUP1 REVERT JUMPDEST POP PUSH2 0xA2 PUSH2 0x1A5 JUMP JUMPDEST PUSH1 0x40 MLOAD PUSH1 0x1 PUSH1 0x1 PUSH1 0xA0 SHL SUB SWAP1 SWAP2 AND DUP2 MSTORE PUSH1 0x20 ADD PUSH1 0x40 MLOAD DUP1 SWAP2 SUB SWAP1 RETURN JUMPDEST CALLVALUE DUP1 ISZERO PUSH2 0xCA JUMPI PUSH1 0x0 DUP1 REVERT JUMPDEST POP PUSH2 0xA2 PUSH2 0x1E0 JUMP JUMPDEST PUSH2 0xDB PUSH2 0x246 JUMP JUMPDEST PUSH2 0xEB PUSH2 0xE6 PUSH2 0x2E5 JUMP JUMPDEST PUSH2 0x306 JUMP JUMPDEST JUMP JUMPDEST PUSH2 0xF5 PUSH2 0x32A JUMP JUMPDEST PUSH1 0x1 PUSH1 0x1 PUSH1 0xA0 SHL SUB AND CALLER PUSH1 0x1 PUSH1 0x1 PUSH1 0xA0 SHL SUB AND EQ ISZERO PUSH2 0x12C JUMPI PUSH2 0x129 DUP2 PUSH1 0x40 MLOAD DUP1 PUSH1 0x20 ADD PUSH1 0x40 MSTORE DUP1 PUSH1 0x0 DUP2 MSTORE POP PUSH1 0x0 PUSH2 0x34E JUMP JUMPDEST POP JUMP JUMPDEST PUSH2 0x129 PUSH2 0xD3 JUMP JUMPDEST PUSH2 0x13C PUSH2 0x32A JUMP JUMPDEST PUSH1 0x1 PUSH1 0x1 PUSH1 0xA0 SHL SUB AND CALLER PUSH1 0x1 PUSH1 0x1 PUSH1 0xA0 SHL SUB AND EQ ISZERO PUSH2 0x19D JUMPI PUSH2 0x198 DUP4 DUP4 DUP4 DUP1 DUP1 PUSH1 0x1F ADD PUSH1 0x20 DUP1 SWAP2 DIV MUL PUSH1 0x20 ADD PUSH1 0x40 MLOAD SWAP1 DUP2 ADD PUSH1 0x40 MSTORE DUP1 SWAP4 SWAP3 SWAP2 SWAP1 DUP2 DUP2 MSTORE PUSH1 0x20 ADD DUP4 DUP4 DUP1 DUP3 DUP5 CALLDATACOPY PUSH1 0x0 SWAP3 ADD SWAP2 SWAP1 SWAP2 MSTORE POP PUSH1 0x1 SWAP3 POP PUSH2 0x34E SWAP2 POP POP JUMP JUMPDEST POP POP POP JUMP JUMPDEST PUSH2 0x198 PUSH2 0xD3 JUMP JUMPDEST PUSH1 0x0 PUSH2 0x1AF PUSH2 0x32A JUMP JUMPDEST PUSH1 0x1 PUSH1 0x1 PUSH1 0xA0 SHL SUB AND CALLER PUSH1 0x1 PUSH1 0x1 PUSH1 0xA0 SHL SUB AND EQ ISZERO PUSH2 0x1D5 JUMPI PUSH2 0x1D0 PUSH2 0x2E5 JUMP JUMPDEST SWAP1 POP SWAP1 JUMP JUMPDEST PUSH2 0x1DD PUSH2 0xD3 JUMP JUMPDEST SWAP1 JUMP JUMPDEST PUSH1 0x0 PUSH2 0x1EA PUSH2 0x32A JUMP JUMPDEST PUSH1 0x1 PUSH1 0x1 PUSH1 0xA0 SHL SUB AND CALLER PUSH1 0x1 PUSH1 0x1 PUSH1 0xA0 SHL SUB AND EQ ISZERO PUSH2 0x1D5 JUMPI PUSH2 0x1D0 PUSH2 0x32A JUMP JUMPDEST PUSH1 0x60 PUSH2 0x230 DUP4 DUP4 PUSH1 0x40 MLOAD DUP1 PUSH1 0x60 ADD PUSH1 0x40 MSTORE DUP1 PUSH1 0x27 DUP2 MSTORE PUSH1 0x20 ADD PUSH2 0x6BC PUSH1 0x27 SWAP2 CODECOPY PUSH2 0x379 JUMP JUMPDEST SWAP4 SWAP3 POP POP POP JUMP JUMPDEST PUSH1 0x1 PUSH1 0x1 PUSH1 0xA0 SHL SUB AND EXTCODESIZE ISZERO ISZERO SWAP1 JUMP JUMPDEST PUSH2 0x24E PUSH2 0x32A JUMP JUMPDEST PUSH1 0x1 PUSH1 0x1 PUSH1 0xA0 SHL SUB AND CALLER PUSH1 0x1 PUSH1 0x1 PUSH1 0xA0 SHL SUB AND EQ ISZERO PUSH2 0xEB JUMPI PUSH1 0x40 MLOAD PUSH3 0x461BCD PUSH1 0xE5 SHL DUP2 MSTORE PUSH1 0x20 PUSH1 0x4 DUP3 ADD MSTORE PUSH1 0x42 PUSH1 0x24 DUP3 ADD MSTORE PUSH32 0x5472616E73706172656E745570677261646561626C6550726F78793A2061646D PUSH1 0x44 DUP3 ADD MSTORE PUSH32 0x696E2063616E6E6F742066616C6C6261636B20746F2070726F78792074617267 PUSH1 0x64 DUP3 ADD MSTORE PUSH2 0x195D PUSH1 0xF2 SHL PUSH1 0x84 DUP3 ADD MSTORE PUSH1 0xA4 ADD JUMPDEST PUSH1 0x40 MLOAD DUP1 SWAP2 SUB SWAP1 REVERT JUMPDEST PUSH1 0x0 PUSH2 0x1D0 PUSH1 0x0 DUP1 MLOAD PUSH1 0x20 PUSH2 0x69C DUP4 CODECOPY DUP2 MLOAD SWAP2 MSTORE SLOAD PUSH1 0x1 PUSH1 0x1 PUSH1 0xA0 SHL SUB AND SWAP1 JUMP JUMPDEST CALLDATASIZE PUSH1 0x0 DUP1 CALLDATACOPY PUSH1 0x0 DUP1 CALLDATASIZE PUSH1 0x0 DUP5 GAS DELEGATECALL RETURNDATASIZE PUSH1 0x0 DUP1 RETURNDATACOPY DUP1 DUP1 ISZERO PUSH2 0x325 JUMPI RETURNDATASIZE PUSH1 0x0 RETURN JUMPDEST RETURNDATASIZE PUSH1 0x0 REVERT JUMPDEST PUSH32 0x0 SWAP1 JUMP JUMPDEST PUSH2 0x357 DUP4 PUSH2 0x454 JUMP JUMPDEST PUSH1 0x0 DUP3 MLOAD GT DUP1 PUSH2 0x364 JUMPI POP DUP1 JUMPDEST ISZERO PUSH2 0x198 JUMPI PUSH2 0x373 DUP4 DUP4 PUSH2 0x20B JUMP JUMPDEST POP POP POP POP JUMP JUMPDEST PUSH1 0x60 PUSH2 0x384 DUP5 PUSH2 0x237 JUMP JUMPDEST PUSH2 0x3DF JUMPI PUSH1 0x40 MLOAD PUSH3 0x461BCD PUSH1 0xE5 SHL DUP2 MSTORE PUSH1 0x20 PUSH1 0x4 DUP3 ADD MSTORE PUSH1 0x26 PUSH1 0x24 DUP3 ADD MSTORE PUSH32 0x416464726573733A2064656C65676174652063616C6C20746F206E6F6E2D636F PUSH1 0x44 DUP3 ADD MSTORE PUSH6 0x1B9D1C9858DD PUSH1 0xD2 SHL PUSH1 0x64 DUP3 ADD MSTORE PUSH1 0x84 ADD PUSH2 0x2DC JUMP JUMPDEST PUSH1 0x0 DUP1 DUP6 PUSH1 0x1 PUSH1 0x1 PUSH1 0xA0 SHL SUB AND DUP6 PUSH1 0x40 MLOAD PUSH2 0x3FA SWAP2 SWAP1 PUSH2 0x64C JUMP JUMPDEST PUSH1 0x0 PUSH1 0x40 MLOAD DUP1 DUP4 SUB DUP2 DUP6 GAS DELEGATECALL SWAP2 POP POP RETURNDATASIZE DUP1 PUSH1 0x0 DUP2 EQ PUSH2 0x435 JUMPI PUSH1 0x40 MLOAD SWAP2 POP PUSH1 0x1F NOT PUSH1 0x3F RETURNDATASIZE ADD AND DUP3 ADD PUSH1 0x40 MSTORE RETURNDATASIZE DUP3 MSTORE RETURNDATASIZE PUSH1 0x0 PUSH1 0x20 DUP5 ADD RETURNDATACOPY PUSH2 0x43A JUMP JUMPDEST PUSH1 0x60 SWAP2 POP JUMPDEST POP SWAP2 POP SWAP2 POP PUSH2 0x44A DUP3 DUP3 DUP7 PUSH2 0x494 JUMP JUMPDEST SWAP7 SWAP6 POP POP POP POP POP POP JUMP JUMPDEST PUSH2 0x45D DUP2 PUSH2 0x4CD JUMP JUMPDEST PUSH1 0x40 MLOAD PUSH1 0x1 PUSH1 0x1 PUSH1 0xA0 SHL SUB DUP3 AND SWAP1 PUSH32 0xBC7CD75A20EE27FD9ADEBAB32041F755214DBC6BFFA90CC0225B39DA2E5C2D3B SWAP1 PUSH1 0x0 SWAP1 LOG2 POP JUMP JUMPDEST PUSH1 0x60 DUP4 ISZERO PUSH2 0x4A3 JUMPI POP DUP2 PUSH2 0x230 JUMP JUMPDEST DUP3 MLOAD ISZERO PUSH2 0x4B3 JUMPI DUP3 MLOAD DUP1 DUP5 PUSH1 0x20 ADD REVERT JUMPDEST DUP2 PUSH1 0x40 MLOAD PUSH3 0x461BCD PUSH1 0xE5 SHL DUP2 MSTORE PUSH1 0x4 ADD PUSH2 0x2DC SWAP2 SWAP1 PUSH2 0x668 JUMP JUMPDEST PUSH2 0x4D6 DUP2 PUSH2 0x237 JUMP JUMPDEST PUSH2 0x538 JUMPI PUSH1 0x40 MLOAD PUSH3 0x461BCD PUSH1 0xE5 SHL DUP2 MSTORE PUSH1 0x20 PUSH1 0x4 DUP3 ADD MSTORE PUSH1 0x2D PUSH1 0x24 DUP3 ADD MSTORE PUSH32 0x455243313936373A206E657720696D706C656D656E746174696F6E206973206E PUSH1 0x44 DUP3 ADD MSTORE PUSH13 0x1BDD08184818DBDB9D1C9858DD PUSH1 0x9A SHL PUSH1 0x64 DUP3 ADD MSTORE PUSH1 0x84 ADD PUSH2 0x2DC JUMP JUMPDEST PUSH1 0x0 DUP1 MLOAD PUSH1 0x20 PUSH2 0x69C DUP4 CODECOPY DUP2 MLOAD SWAP2 MSTORE DUP1 SLOAD PUSH1 0x1 PUSH1 0x1 PUSH1 0xA0 SHL SUB NOT AND PUSH1 0x1 PUSH1 0x1 PUSH1 0xA0 SHL SUB SWAP3 SWAP1 SWAP3 AND SWAP2 SWAP1 SWAP2 OR SWAP1 SSTORE JUMP JUMPDEST DUP1 CALLDATALOAD PUSH1 0x1 PUSH1 0x1 PUSH1 0xA0 SHL SUB DUP2 AND DUP2 EQ PUSH2 0x57E JUMPI PUSH1 0x0 DUP1 REVERT JUMPDEST SWAP2 SWAP1 POP JUMP JUMPDEST PUSH1 0x0 PUSH1 0x20 DUP3 DUP5 SUB SLT ISZERO PUSH2 0x595 JUMPI PUSH1 0x0 DUP1 REVERT JUMPDEST PUSH2 0x230 DUP3 PUSH2 0x567 JUMP JUMPDEST PUSH1 0x0 DUP1 PUSH1 0x0 PUSH1 0x40 DUP5 DUP7 SUB SLT ISZERO PUSH2 0x5B3 JUMPI PUSH1 0x0 DUP1 REVERT JUMPDEST PUSH2 0x5BC DUP5 PUSH2 0x567 JUMP JUMPDEST SWAP3 POP PUSH1 0x20 DUP5 ADD CALLDATALOAD PUSH1 0x1 PUSH1 0x1 PUSH1 0x40 SHL SUB DUP1 DUP3 GT ISZERO PUSH2 0x5D8 JUMPI PUSH1 0x0 DUP1 REVERT JUMPDEST DUP2 DUP7 ADD SWAP2 POP DUP7 PUSH1 0x1F DUP4 ADD SLT PUSH2 0x5EC JUMPI PUSH1 0x0 DUP1 REVERT JUMPDEST DUP2 CALLDATALOAD DUP2 DUP2 GT ISZERO PUSH2 0x5FB JUMPI PUSH1 0x0 DUP1 REVERT JUMPDEST DUP8 PUSH1 0x20 DUP3 DUP6 ADD ADD GT ISZERO PUSH2 0x60D JUMPI PUSH1 0x0 DUP1 REVERT JUMPDEST PUSH1 0x20 DUP4 ADD SWAP5 POP DUP1 SWAP4 POP POP POP POP SWAP3 POP SWAP3 POP SWAP3 JUMP JUMPDEST PUSH1 0x0 JUMPDEST DUP4 DUP2 LT ISZERO PUSH2 0x63B JUMPI DUP2 DUP2 ADD MLOAD DUP4 DUP3 ADD MSTORE PUSH1 0x20 ADD PUSH2 0x623 JUMP JUMPDEST DUP4 DUP2 GT ISZERO PUSH2 0x373 JUMPI POP POP PUSH1 0x0 SWAP2 ADD MSTORE JUMP JUMPDEST PUSH1 0x0 DUP3 MLOAD PUSH2 0x65E DUP2 DUP5 PUSH1 0x20 DUP8 ADD PUSH2 0x620 JUMP JUMPDEST SWAP2 SWAP1 SWAP2 ADD SWAP3 SWAP2 POP POP JUMP JUMPDEST PUSH1 0x20 DUP2 MSTORE PUSH1 0x0 DUP3 MLOAD DUP1 PUSH1 0x20 DUP5 ADD MSTORE PUSH2 0x687 DUP2 PUSH1 0x40 DUP6 ADD PUSH1 0x20 DUP8 ADD PUSH2 0x620 JUMP JUMPDEST PUSH1 0x1F ADD PUSH1 0x1F NOT AND SWAP2 SWAP1 SWAP2 ADD PUSH1 0x40 ADD SWAP3 SWAP2 POP POP JUMP INVALID CALLDATASIZE ADDMOD SWAP5 LOG1 EXTCODESIZE LOG1 LOG3 0x21 MOD PUSH8 0xC828492DB98DCA3E KECCAK256 PUSH23 0xCC3735A920A3CA505D382BBC416464726573733A206C6F PUSH24 0x2D6C6576656C2064656C65676174652063616C6C20666169 PUSH13 0x6564A26469706673582212209F CALLDATACOPY ADDMOD 0x49 SWAP12 BLOCKHASH 0xF8 0xCE 0xE7 0x2F LOG0 0xC6 0xC0 PC SHL DUP9 CALLCODE CREATE SWAP15 SWAP8 PUSH28 0x80A1C8F34DB596BD52951E64736F6C634300080B0033B53127684A56 DUP12 BALANCE PUSH20 0xAE13B9F8A6016E243E63B6E8EE1178D6A717850B 0x5D PUSH2 0x336 ADDMOD SWAP5 LOG1 EXTCODESIZE LOG1 LOG3 0x21 MOD PUSH8 0xC828492DB98DCA3E KECCAK256 PUSH23 0xCC3735A920A3CA505D382BBC416464726573733A206C6F PUSH24 0x2D6C6576656C2064656C65676174652063616C6C20666169 PUSH13 0x65640000000000000000000000 "
        },
        "gasEstimates": {
          "creation": {
            "codeDepositCost": "363200",
            "executionCost": "infinite",
            "totalCost": "infinite"
          },
          "external": {
            "": "infinite",
            "admin()": "infinite",
            "implementation()": "infinite",
            "upgradeTo(address)": "infinite",
            "upgradeToAndCall(address,bytes)": "infinite"
          },
          "internal": {
            "_admin()": "infinite",
            "_beforeFallback()": "infinite",
            "_getAdmin()": "infinite"
          }
        },
        "methodIdentifiers": {
          "admin()": "f851a440",
          "implementation()": "5c60da1b",
          "upgradeTo(address)": "3659cfe6",
          "upgradeToAndCall(address,bytes)": "4f1ef286"
        }
      },
      "storageLayout": {
        "storage": [],
        "types": null
      },
      "userdoc": {
        "kind": "user",
        "methods": {},
        "version": 1
      }
    }
  }
}