{
  "contracts/router_v2/libraries/RouterStorageLib.sol": {
    "RouterStorageLib": {
      "abi": [
        {
          "inputs": [],
          "name": "ONE",
          "outputs": [
            {
              "internalType": "uint256",
              "name": "",
              "type": "uint256"
            }
          ],
          "stateMutability": "view",
          "type": "function"
        }
      ],
      "devdoc": {
        "kind": "dev",
        "methods": {},
        "version": 1
      },
      "evm": {
        "bytecode": {
          "linkReferences": {},
          "object": "608e610038600b82828239805160001a607314602b57634e487b7160e01b600052600060045260246000fd5b30600052607381538281f3fe730000000000000000000000000000000000000000301460806040526004361060335760003560e01c8063c2ee3a08146038575b600080fd5b6046670de0b6b3a764000081565b60405190815260200160405180910390f3fea2646970667358221220cd66e8fd09d3850d9b2985572fb93c383016926cbb366559638fcf6d1fd0682264736f6c634300080b0033",
          "opcodes": "PUSH1 0x8E PUSH2 0x38 PUSH1 0xB DUP3 DUP3 DUP3 CODECOPY DUP1 MLOAD PUSH1 0x0 BYTE PUSH1 0x73 EQ PUSH1 0x2B JUMPI PUSH4 0x4E487B71 PUSH1 0xE0 SHL PUSH1 0x0 MSTORE PUSH1 0x0 PUSH1 0x4 MSTORE PUSH1 0x24 PUSH1 0x0 REVERT JUMPDEST ADDRESS PUSH1 0x0 MSTORE PUSH1 0x73 DUP2 MSTORE8 DUP3 DUP2 RETURN INVALID PUSH20 0x0 ADDRESS EQ PUSH1 0x80 PUSH1 0x40 MSTORE PUSH1 0x4 CALLDATASIZE LT PUSH1 0x33 JUMPI PUSH1 0x0 CALLDATALOAD PUSH1 0xE0 SHR DUP1 PUSH4 0xC2EE3A08 EQ PUSH1 0x38 JUMPI JUMPDEST PUSH1 0x0 DUP1 REVERT JUMPDEST PUSH1 0x46 PUSH8 0xDE0B6B3A7640000 DUP2 JUMP JUMPDEST PUSH1 0x40 MLOAD SWAP1 DUP2 MSTORE PUSH1 0x20 ADD PUSH1 0x40 MLOAD DUP1 SWAP2 SUB SWAP1 RETURN INVALID LOG2 PUSH5 0x6970667358 0x22 SLT KECCAK256 0xCD PUSH7 0xE8FD09D3850D9B 0x29 DUP6 JUMPI 0x2F 0xB9 EXTCODECOPY CODESIZE ADDRESS AND SWAP3 PUSH13 0xBB366559638FCF6D1FD0682264 PUSH20 0x6F6C634300080B00330000000000000000000000 "
        },
        "gasEstimates": {
          "creation": {
            "codeDepositCost": "28400",
            "executionCost": "112",
            "totalCost": "28512"
          },
          "external": {
            "ONE()": "145"
          },
          "internal": {
            "diamondStorage()": "infinite",
            "getAdminAddress()": "infinite",
            "getFactoryAddress()": "infinite",
            "getIdToAddress(uint256)": "infinite",
            "getKillSwitch()": "infinite",
            "getLockTime(address)": "infinite",
            "getLpTokenStatus(address)": "infinite",
            "getNameToTokenInfo(address)": "infinite",
            "getRouterTrade()": "infinite",
            "getTokensCount()": "infinite",
            "getWETHAddress()": "infinite",
            "getWhitelistAccess(address)": "infinite",
            "setAdminAddress(address)": "infinite",
            "setFactoryAddress(address)": "infinite",
            "setIdToAddress(uint256,address)": "infinite",
            "setKillSwitch(bool)": "infinite",
            "setLockTime(address,uint256)": "infinite",
            "setLpTokenStatus(address,bool)": "infinite",
            "setNameToTokenInfo(address,struct RouterStorageLib.TokenInfo memory)": "infinite",
            "setRouterTrade(address)": "infinite",
            "setTokensCount(uint256)": "infinite",
            "setWETHAddress(address)": "infinite",
            "setWhitelistAccess(address,bool)": "infinite"
          }
        },
        "methodIdentifiers": {
          "ONE()": "c2ee3a08"
        }
      },
      "storageLayout": {
        "storage": [],
        "types": null
      },
      "userdoc": {
        "kind": "user",
        "methods": {},
        "version": 1
      }
    }
  }
}