{
  "_format": "hh-sol-artifact-1",
  "contractName": "OptimizedTransparentUpgradeableProxy",
  "sourceName": "contracts/OptimizedTransparentUpgradeableProxy.sol",
  "abi": [
    {
      "inputs": [
        {
          "internalType": "address",
          "name": "_logic",
          "type": "address"
        },
        {
          "internalType": "address",
          "name": "admin_",
          "type": "address"
        },
        {
          "internalType": "bytes",
          "name": "_data",
          "type": "bytes"
        }
      ],
      "stateMutability": "payable",
      "type": "constructor"
    },
    {
      "anonymous": false,
      "inputs": [
        {
          "indexed": false,
          "internalType": "address",
          "name": "previousAdmin",
          "type": "address"
        },
        {
          "indexed": false,
          "internalType": "address",
          "name": "newAdmin",
          "type": "address"
        }
      ],
      "name": "AdminChanged",
      "type": "event"
    },
    {
      "anonymous": false,
      "inputs": [
        {
          "indexed": true,
          "internalType": "address",
          "name": "beacon",
          "type": "address"
        }
      ],
      "name": "BeaconUpgraded",
      "type": "event"
    },
    {
      "anonymous": false,
      "inputs": [
        {
          "indexed": true,
          "internalType": "address",
          "name": "implementation",
          "type": "address"
        }
      ],
      "name": "Upgraded",
      "type": "event"
    },
    {
      "stateMutability": "payable",
      "type": "fallback"
    },
    {
      "inputs": [],
      "name": "admin",
      "outputs": [
        {
          "internalType": "address",
          "name": "admin_",
          "type": "address"
        }
      ],
      "stateMutability": "nonpayable",
      "type": "function"
    },
    {
      "inputs": [],
      "name": "implementation",
      "outputs": [
        {
          "internalType": "address",
          "name": "implementation_",
          "type": "address"
        }
      ],
      "stateMutability": "nonpayable",
      "type": "function"
    },
    {
      "inputs": [
        {
          "internalType": "address",
          "name": "newImplementation",
          "type": "address"
        }
      ],
      "name": "upgradeTo",
      "outputs": [],
      "stateMutability": "nonpayable",
      "type": "function"
    },
    {
      "inputs": [
        {
          "internalType": "address",
          "name": "newImplementation",
          "type": "address"
        },
        {
          "internalType": "bytes",
          "name": "data",
          "type": "bytes"
        }
      ],
      "name": "upgradeToAndCall",
      "outputs": [],
      "stateMutability": "payable",
      "type": "function"
    },
    {
      "stateMutability": "payable",
      "type": "receive"
    }
  ],
  "bytecode": "0x60a060405260405162000d5438038062000d5483398101604081905262000026916200044a565b82816200005560017f360894a13ba1a3210667c828492db98dca3e2076cc3735a920a3ca505d382bbd6200052a565b60008051602062000d0d8339815191521462000075576200007562000550565b62000083828260006200013c565b50620000b3905060017fb53127684a568b3173ae13b9f8a6016e243e63b6e8ee1178d6a717850b5d61046200052a565b60008051602062000ced83398151915214620000d357620000d362000550565b6001600160a01b038216608081905260008051602062000ced8339815191528381556040805160008152602081019390935290917f7e644d79422f17c01e4894b5f4f588d331ebfa28653d42ae832dc59e38c9798f910160405180910390a150505050620005b9565b620001478362000179565b600082511180620001555750805b156200017457620001728383620001bb60201b6200020b1760201c565b505b505050565b6200018481620001ea565b6040516001600160a01b038216907fbc7cd75a20ee27fd9adebab32041f755214dbc6bffa90cc0225b39da2e5c2d3b90600090a250565b6060620001e3838360405180606001604052806027815260200162000d2d60279139620002b2565b9392505050565b62000200816200039860201b620002371760201c565b620002685760405162461bcd60e51b815260206004820152602d60248201527f455243313936373a206e657720696d706c656d656e746174696f6e206973206e60448201526c1bdd08184818dbdb9d1c9858dd609a1b60648201526084015b60405180910390fd5b806200029160008051602062000d0d83398151915260001b620003a760201b620001dd1760201c565b80546001600160a01b0319166001600160a01b039290921691909117905550565b6060620002bf8462000398565b6200031c5760405162461bcd60e51b815260206004820152602660248201527f416464726573733a2064656c65676174652063616c6c20746f206e6f6e2d636f6044820152651b9d1c9858dd60d21b60648201526084016200025f565b600080856001600160a01b03168560405162000339919062000566565b600060405180830381855af49150503d806000811462000376576040519150601f19603f3d011682016040523d82523d6000602084013e6200037b565b606091505b5090925090506200038e828286620003aa565b9695505050505050565b6001600160a01b03163b151590565b90565b60608315620003bb575081620001e3565b825115620003cc5782518084602001fd5b8160405162461bcd60e51b81526004016200025f919062000584565b80516001600160a01b03811681146200040057600080fd5b919050565b634e487b7160e01b600052604160045260246000fd5b60005b83811015620004385781810151838201526020016200041e565b83811115620001725750506000910152565b6000806000606084860312156200046057600080fd5b6200046b84620003e8565b92506200047b60208501620003e8565b60408501519092506001600160401b03808211156200049957600080fd5b818601915086601f830112620004ae57600080fd5b815181811115620004c357620004c362000405565b604051601f8201601f19908116603f01168101908382118183101715620004ee57620004ee62000405565b816040528281528960208487010111156200050857600080fd5b6200051b8360208301602088016200041b565b80955050505050509250925092565b6000828210156200054b57634e487b7160e01b600052601160045260246000fd5b500390565b634e487b7160e01b600052600160045260246000fd5b600082516200057a8184602087016200041b565b9190910192915050565b6020815260008251806020840152620005a58160408501602087016200041b565b601f01601f19169190910160400192915050565b608051610718620005d5600039600061032c01526107186000f3fe6080604052600436106100435760003560e01c80633659cfe61461005a5780634f1ef2861461007a5780635c60da1b1461008d578063f851a440146100be57610052565b36610052576100506100d3565b005b6100506100d3565b34801561006657600080fd5b50610050610075366004610583565b6100ed565b61005061008836600461059e565b610134565b34801561009957600080fd5b506100a26101a5565b6040516001600160a01b03909116815260200160405180910390f35b3480156100ca57600080fd5b506100a26101e0565b6100db610246565b6100eb6100e66102e5565b610306565b565b6100f561032a565b6001600160a01b0316336001600160a01b0316141561012c576101298160405180602001604052806000815250600061034e565b50565b6101296100d3565b61013c61032a565b6001600160a01b0316336001600160a01b0316141561019d576101988383838080601f0160208091040260200160405190810160405280939291908181526020018383808284376000920191909152506001925061034e915050565b505050565b6101986100d3565b60006101af61032a565b6001600160a01b0316336001600160a01b031614156101d5576101d06102e5565b905090565b6101dd6100d3565b90565b60006101ea61032a565b6001600160a01b0316336001600160a01b031614156101d5576101d061032a565b606061023083836040518060600160405280602781526020016106bc60279139610379565b9392505050565b6001600160a01b03163b151590565b61024e61032a565b6001600160a01b0316336001600160a01b031614156100eb5760405162461bcd60e51b815260206004820152604260248201527f5472616e73706172656e745570677261646561626c6550726f78793a2061646d60448201527f696e2063616e6e6f742066616c6c6261636b20746f2070726f78792074617267606482015261195d60f21b608482015260a4015b60405180910390fd5b60006101d060008051602061069c833981519152546001600160a01b031690565b3660008037600080366000845af43d6000803e808015610325573d6000f35b3d6000fd5b7f000000000000000000000000000000000000000000000000000000000000000090565b61035783610454565b6000825111806103645750805b1561019857610373838361020b565b50505050565b606061038484610237565b6103df5760405162461bcd60e51b815260206004820152602660248201527f416464726573733a2064656c65676174652063616c6c20746f206e6f6e2d636f6044820152651b9d1c9858dd60d21b60648201526084016102dc565b600080856001600160a01b0316856040516103fa919061064c565b600060405180830381855af49150503d8060008114610435576040519150601f19603f3d011682016040523d82523d6000602084013e61043a565b606091505b509150915061044a828286610494565b9695505050505050565b61045d816104cd565b6040516001600160a01b038216907fbc7cd75a20ee27fd9adebab32041f755214dbc6bffa90cc0225b39da2e5c2d3b90600090a250565b606083156104a3575081610230565b8251156104b35782518084602001fd5b8160405162461bcd60e51b81526004016102dc9190610668565b6104d681610237565b6105385760405162461bcd60e51b815260206004820152602d60248201527f455243313936373a206e657720696d706c656d656e746174696f6e206973206e60448201526c1bdd08184818dbdb9d1c9858dd609a1b60648201526084016102dc565b60008051602061069c83398151915280546001600160a01b0319166001600160a01b0392909216919091179055565b80356001600160a01b038116811461057e57600080fd5b919050565b60006020828403121561059557600080fd5b61023082610567565b6000806000604084860312156105b357600080fd5b6105bc84610567565b925060208401356001600160401b03808211156105d857600080fd5b818601915086601f8301126105ec57600080fd5b8135818111156105fb57600080fd5b87602082850101111561060d57600080fd5b6020830194508093505050509250925092565b60005b8381101561063b578181015183820152602001610623565b838111156103735750506000910152565b6000825161065e818460208701610620565b9190910192915050565b6020815260008251806020840152610687816040850160208701610620565b601f01601f1916919091016040019291505056fe360894a13ba1a3210667c828492db98dca3e2076cc3735a920a3ca505d382bbc416464726573733a206c6f772d6c6576656c2064656c65676174652063616c6c206661696c6564a26469706673582212209f3708499b40f8cee72fa0c6c0581b88f2f09e977b80a1c8f34db596bd52951e64736f6c634300080b0033b53127684a568b3173ae13b9f8a6016e243e63b6e8ee1178d6a717850b5d6103360894a13ba1a3210667c828492db98dca3e2076cc3735a920a3ca505d382bbc416464726573733a206c6f772d6c6576656c2064656c65676174652063616c6c206661696c6564",
  "linkReferences": {},
  "deployedLinkReferences": {}
}