{
  "_format": "hh-sol-artifact-1",
  "contractName": "BaseNFTWithPresale",
  "sourceName": "contracts/Base/BaseNFTWithPresale.sol",
  "abi": [
    {
      "anonymous": false,
      "inputs": [
        {
          "indexed": true,
          "internalType": "address",
          "name": "account",
          "type": "address"
        },
        {
          "indexed": true,
          "internalType": "address",
          "name": "operator",
          "type": "address"
        },
        {
          "indexed": false,
          "internalType": "bool",
          "name": "approved",
          "type": "bool"
        }
      ],
      "name": "ApprovalForAll",
      "type": "event"
    },
    {
      "anonymous": false,
      "inputs": [
        {
          "indexed": false,
          "internalType": "uint8",
          "name": "version",
          "type": "uint8"
        }
      ],
      "name": "Initialized",
      "type": "event"
    },
    {
      "anonymous": false,
      "inputs": [
        {
          "indexed": true,
          "internalType": "address",
          "name": "previousOwner",
          "type": "address"
        },
        {
          "indexed": true,
          "internalType": "address",
          "name": "newOwner",
          "type": "address"
        }
      ],
      "name": "OwnershipTransferred",
      "type": "event"
    },
    {
      "anonymous": false,
      "inputs": [
        {
          "indexed": true,
          "internalType": "address",
          "name": "operator",
          "type": "address"
        },
        {
          "indexed": true,
          "internalType": "address",
          "name": "from",
          "type": "address"
        },
        {
          "indexed": true,
          "internalType": "address",
          "name": "to",
          "type": "address"
        },
        {
          "indexed": false,
          "internalType": "uint256[]",
          "name": "ids",
          "type": "uint256[]"
        },
        {
          "indexed": false,
          "internalType": "uint256[]",
          "name": "values",
          "type": "uint256[]"
        }
      ],
      "name": "TransferBatch",
      "type": "event"
    },
    {
      "anonymous": false,
      "inputs": [
        {
          "indexed": true,
          "internalType": "address",
          "name": "operator",
          "type": "address"
        },
        {
          "indexed": true,
          "internalType": "address",
          "name": "from",
          "type": "address"
        },
        {
          "indexed": true,
          "internalType": "address",
          "name": "to",
          "type": "address"
        },
        {
          "indexed": false,
          "internalType": "uint256",
          "name": "id",
          "type": "uint256"
        },
        {
          "indexed": false,
          "internalType": "uint256",
          "name": "value",
          "type": "uint256"
        }
      ],
      "name": "TransferSingle",
      "type": "event"
    },
    {
      "anonymous": false,
      "inputs": [
        {
          "indexed": false,
          "internalType": "string",
          "name": "uri",
          "type": "string"
        }
      ],
      "name": "URI",
      "type": "event"
    },
    {
      "anonymous": false,
      "inputs": [
        {
          "indexed": false,
          "internalType": "string",
          "name": "value",
          "type": "string"
        },
        {
          "indexed": true,
          "internalType": "uint256",
          "name": "id",
          "type": "uint256"
        }
      ],
      "name": "URI",
      "type": "event"
    },
    {
      "inputs": [
        {
          "internalType": "address",
          "name": "",
          "type": "address"
        }
      ],
      "name": "affiliatedUserBalance",
      "outputs": [
        {
          "internalType": "uint256",
          "name": "",
          "type": "uint256"
        }
      ],
      "stateMutability": "view",
      "type": "function"
    },
    {
      "inputs": [],
      "name": "affiliatedWei",
      "outputs": [
        {
          "internalType": "uint256",
          "name": "",
          "type": "uint256"
        }
      ],
      "stateMutability": "view",
      "type": "function"
    },
    {
      "inputs": [
        {
          "internalType": "address",
          "name": "account",
          "type": "address"
        },
        {
          "internalType": "uint256",
          "name": "id",
          "type": "uint256"
        }
      ],
      "name": "balanceOf",
      "outputs": [
        {
          "internalType": "uint256",
          "name": "",
          "type": "uint256"
        }
      ],
      "stateMutability": "view",
      "type": "function"
    },
    {
      "inputs": [
        {
          "internalType": "address[]",
          "name": "accounts",
          "type": "address[]"
        },
        {
          "internalType": "uint256[]",
          "name": "ids",
          "type": "uint256[]"
        }
      ],
      "name": "balanceOfBatch",
      "outputs": [
        {
          "internalType": "uint256[]",
          "name": "",
          "type": "uint256[]"
        }
      ],
      "stateMutability": "view",
      "type": "function"
    },
    {
      "inputs": [],
      "name": "baseUri",
      "outputs": [
        {
          "internalType": "string",
          "name": "",
          "type": "string"
        }
      ],
      "stateMutability": "view",
      "type": "function"
    },
    {
      "inputs": [
        {
          "internalType": "address[]",
          "name": "affiliatedUser",
          "type": "address[]"
        }
      ],
      "name": "checkAffiliatedFunds",
      "outputs": [],
      "stateMutability": "view",
      "type": "function"
    },
    {
      "inputs": [],
      "name": "dropFee",
      "outputs": [
        {
          "internalType": "uint256",
          "name": "",
          "type": "uint256"
        }
      ],
      "stateMutability": "view",
      "type": "function"
    },
    {
      "inputs": [],
      "name": "factory",
      "outputs": [
        {
          "internalType": "address",
          "name": "",
          "type": "address"
        }
      ],
      "stateMutability": "view",
      "type": "function"
    },
    {
      "inputs": [],
      "name": "feeReceiver",
      "outputs": [
        {
          "internalType": "address",
          "name": "",
          "type": "address"
        }
      ],
      "stateMutability": "view",
      "type": "function"
    },
    {
      "inputs": [],
      "name": "feesCollected",
      "outputs": [
        {
          "internalType": "uint256",
          "name": "",
          "type": "uint256"
        }
      ],
      "stateMutability": "view",
      "type": "function"
    },
    {
      "inputs": [
        {
          "internalType": "address",
          "name": "sender",
          "type": "address"
        },
        {
          "internalType": "uint256",
          "name": "tokenQuantity",
          "type": "uint256"
        }
      ],
      "name": "hashforPresale",
      "outputs": [
        {
          "internalType": "bytes32",
          "name": "",
          "type": "bytes32"
        }
      ],
      "stateMutability": "view",
      "type": "function"
    },
    {
      "inputs": [
        {
          "internalType": "address",
          "name": "sender",
          "type": "address"
        },
        {
          "internalType": "uint256",
          "name": "tokenQuantity",
          "type": "uint256"
        },
        {
          "internalType": "address",
          "name": "affiliatedUser",
          "type": "address"
        },
        {
          "internalType": "uint256",
          "name": "commission",
          "type": "uint256"
        }
      ],
      "name": "hashforPresaleAffiliated",
      "outputs": [
        {
          "internalType": "bytes32",
          "name": "",
          "type": "bytes32"
        }
      ],
      "stateMutability": "view",
      "type": "function"
    },
    {
      "inputs": [
        {
          "internalType": "address",
          "name": "sender",
          "type": "address"
        },
        {
          "internalType": "address",
          "name": "affiliatedUser",
          "type": "address"
        },
        {
          "internalType": "uint256",
          "name": "commission",
          "type": "uint256"
        }
      ],
      "name": "hashforPublicSaleAffiliated",
      "outputs": [
        {
          "internalType": "bytes32",
          "name": "",
          "type": "bytes32"
        }
      ],
      "stateMutability": "view",
      "type": "function"
    },
    {
      "inputs": [
        {
          "internalType": "address",
          "name": "account",
          "type": "address"
        },
        {
          "internalType": "address",
          "name": "operator",
          "type": "address"
        }
      ],
      "name": "isApprovedForAll",
      "outputs": [
        {
          "internalType": "bool",
          "name": "",
          "type": "bool"
        }
      ],
      "stateMutability": "view",
      "type": "function"
    },
    {
      "inputs": [],
      "name": "isDropApproved",
      "outputs": [
        {
          "internalType": "uint256",
          "name": "",
          "type": "uint256"
        }
      ],
      "stateMutability": "view",
      "type": "function"
    },
    {
      "inputs": [],
      "name": "isPreSaleLive",
      "outputs": [
        {
          "internalType": "bool",
          "name": "",
          "type": "bool"
        }
      ],
      "stateMutability": "view",
      "type": "function"
    },
    {
      "inputs": [],
      "name": "isPublicSaleLive",
      "outputs": [
        {
          "internalType": "bool",
          "name": "",
          "type": "bool"
        }
      ],
      "stateMutability": "view",
      "type": "function"
    },
    {
      "inputs": [],
      "name": "limitSupplyInPreSale",
      "outputs": [
        {
          "internalType": "uint256",
          "name": "",
          "type": "uint256"
        }
      ],
      "stateMutability": "view",
      "type": "function"
    },
    {
      "inputs": [
        {
          "internalType": "bytes32",
          "name": "hash",
          "type": "bytes32"
        },
        {
          "internalType": "bytes",
          "name": "signature",
          "type": "bytes"
        }
      ],
      "name": "matchAddressSigner",
      "outputs": [
        {
          "internalType": "bool",
          "name": "",
          "type": "bool"
        }
      ],
      "stateMutability": "view",
      "type": "function"
    },
    {
      "inputs": [],
      "name": "maxSupply",
      "outputs": [
        {
          "internalType": "uint256",
          "name": "",
          "type": "uint256"
        }
      ],
      "stateMutability": "view",
      "type": "function"
    },
    {
      "inputs": [],
      "name": "maxTokenPerMintPreSale",
      "outputs": [
        {
          "internalType": "uint256",
          "name": "",
          "type": "uint256"
        }
      ],
      "stateMutability": "view",
      "type": "function"
    },
    {
      "inputs": [],
      "name": "maxTokenPerMintPublicSale",
      "outputs": [
        {
          "internalType": "uint256",
          "name": "",
          "type": "uint256"
        }
      ],
      "stateMutability": "view",
      "type": "function"
    },
    {
      "inputs": [],
      "name": "maxTokenPerPersonPublicSale",
      "outputs": [
        {
          "internalType": "uint256",
          "name": "",
          "type": "uint256"
        }
      ],
      "stateMutability": "view",
      "type": "function"
    },
    {
      "inputs": [],
      "name": "name",
      "outputs": [
        {
          "internalType": "string",
          "name": "",
          "type": "string"
        }
      ],
      "stateMutability": "view",
      "type": "function"
    },
    {
      "inputs": [],
      "name": "owner",
      "outputs": [
        {
          "internalType": "address",
          "name": "",
          "type": "address"
        }
      ],
      "stateMutability": "view",
      "type": "function"
    },
    {
      "inputs": [],
      "name": "preSaleAirdropCount",
      "outputs": [
        {
          "internalType": "uint256",
          "name": "",
          "type": "uint256"
        }
      ],
      "stateMutability": "view",
      "type": "function"
    },
    {
      "inputs": [
        {
          "internalType": "uint256",
          "name": "tokenSignQuantity",
          "type": "uint256"
        },
        {
          "internalType": "uint256",
          "name": "tokenQuantity",
          "type": "uint256"
        },
        {
          "internalType": "bytes",
          "name": "signature",
          "type": "bytes"
        }
      ],
      "name": "preSaleBuy",
      "outputs": [],
      "stateMutability": "payable",
      "type": "function"
    },
    {
      "inputs": [
        {
          "internalType": "uint256",
          "name": "tokenSignQuantity",
          "type": "uint256"
        },
        {
          "internalType": "uint256",
          "name": "tokenQuantity",
          "type": "uint256"
        },
        {
          "internalType": "address",
          "name": "affiliatedUser",
          "type": "address"
        },
        {
          "internalType": "uint256",
          "name": "commission",
          "type": "uint256"
        },
        {
          "internalType": "bytes",
          "name": "signature",
          "type": "bytes"
        }
      ],
      "name": "preSaleBuyAffiliated",
      "outputs": [],
      "stateMutability": "payable",
      "type": "function"
    },
    {
      "inputs": [],
      "name": "preSaleEndTime",
      "outputs": [
        {
          "internalType": "uint256",
          "name": "",
          "type": "uint256"
        }
      ],
      "stateMutability": "view",
      "type": "function"
    },
    {
      "inputs": [],
      "name": "preSaleMintCost",
      "outputs": [
        {
          "internalType": "uint256",
          "name": "",
          "type": "uint256"
        }
      ],
      "stateMutability": "view",
      "type": "function"
    },
    {
      "inputs": [],
      "name": "preSaleStartTime",
      "outputs": [
        {
          "internalType": "uint256",
          "name": "",
          "type": "uint256"
        }
      ],
      "stateMutability": "view",
      "type": "function"
    },
    {
      "inputs": [
        {
          "internalType": "address",
          "name": "",
          "type": "address"
        }
      ],
      "name": "presalerListPurchases",
      "outputs": [
        {
          "internalType": "uint256",
          "name": "",
          "type": "uint256"
        }
      ],
      "stateMutability": "view",
      "type": "function"
    },
    {
      "inputs": [],
      "name": "publicSaleAirdropCount",
      "outputs": [
        {
          "internalType": "uint256",
          "name": "",
          "type": "uint256"
        }
      ],
      "stateMutability": "view",
      "type": "function"
    },
    {
      "inputs": [],
      "name": "publicSaleBufferDuration",
      "outputs": [
        {
          "internalType": "uint256",
          "name": "",
          "type": "uint256"
        }
      ],
      "stateMutability": "view",
      "type": "function"
    },
    {
      "inputs": [
        {
          "internalType": "uint256",
          "name": "tokenQuantity",
          "type": "uint256"
        }
      ],
      "name": "publicSaleBuy",
      "outputs": [],
      "stateMutability": "payable",
      "type": "function"
    },
    {
      "inputs": [
        {
          "internalType": "uint256",
          "name": "tokenQuantity",
          "type": "uint256"
        },
        {
          "internalType": "address",
          "name": "affiliatedUser",
          "type": "address"
        },
        {
          "internalType": "uint256",
          "name": "commission",
          "type": "uint256"
        },
        {
          "internalType": "bytes",
          "name": "signature",
          "type": "bytes"
        }
      ],
      "name": "publicSaleBuyAffiliated",
      "outputs": [],
      "stateMutability": "payable",
      "type": "function"
    },
    {
      "inputs": [],
      "name": "publicSaleEndTime",
      "outputs": [
        {
          "internalType": "uint256",
          "name": "",
          "type": "uint256"
        }
      ],
      "stateMutability": "view",
      "type": "function"
    },
    {
      "inputs": [],
      "name": "publicSaleMintCost",
      "outputs": [
        {
          "internalType": "uint256",
          "name": "",
          "type": "uint256"
        }
      ],
      "stateMutability": "view",
      "type": "function"
    },
    {
      "inputs": [],
      "name": "publicSaleStartTime",
      "outputs": [
        {
          "internalType": "uint256",
          "name": "",
          "type": "uint256"
        }
      ],
      "stateMutability": "view",
      "type": "function"
    },
    {
      "inputs": [
        {
          "internalType": "address",
          "name": "",
          "type": "address"
        }
      ],
      "name": "publicsalerListPurchases",
      "outputs": [
        {
          "internalType": "uint256",
          "name": "",
          "type": "uint256"
        }
      ],
      "stateMutability": "view",
      "type": "function"
    },
    {
      "inputs": [],
      "name": "renounceOwnership",
      "outputs": [],
      "stateMutability": "nonpayable",
      "type": "function"
    },
    {
      "inputs": [
        {
          "internalType": "address",
          "name": "from",
          "type": "address"
        },
        {
          "internalType": "address",
          "name": "to",
          "type": "address"
        },
        {
          "internalType": "uint256[]",
          "name": "ids",
          "type": "uint256[]"
        },
        {
          "internalType": "uint256[]",
          "name": "amounts",
          "type": "uint256[]"
        },
        {
          "internalType": "bytes",
          "name": "data",
          "type": "bytes"
        }
      ],
      "name": "safeBatchTransferFrom",
      "outputs": [],
      "stateMutability": "nonpayable",
      "type": "function"
    },
    {
      "inputs": [
        {
          "internalType": "address",
          "name": "from",
          "type": "address"
        },
        {
          "internalType": "address",
          "name": "to",
          "type": "address"
        },
        {
          "internalType": "uint256",
          "name": "id",
          "type": "uint256"
        },
        {
          "internalType": "uint256",
          "name": "amount",
          "type": "uint256"
        },
        {
          "internalType": "bytes",
          "name": "data",
          "type": "bytes"
        }
      ],
      "name": "safeTransferFrom",
      "outputs": [],
      "stateMutability": "nonpayable",
      "type": "function"
    },
    {
      "inputs": [],
      "name": "saleId",
      "outputs": [
        {
          "internalType": "string",
          "name": "",
          "type": "string"
        }
      ],
      "stateMutability": "view",
      "type": "function"
    },
    {
      "inputs": [
        {
          "internalType": "address",
          "name": "operator",
          "type": "address"
        },
        {
          "internalType": "bool",
          "name": "approved",
          "type": "bool"
        }
      ],
      "name": "setApprovalForAll",
      "outputs": [],
      "stateMutability": "nonpayable",
      "type": "function"
    },
    {
      "inputs": [],
      "name": "setDropApproval",
      "outputs": [],
      "stateMutability": "nonpayable",
      "type": "function"
    },
    {
      "inputs": [
        {
          "internalType": "uint256",
          "name": "_fee",
          "type": "uint256"
        },
        {
          "internalType": "address",
          "name": "_wallet",
          "type": "address"
        }
      ],
      "name": "setDropFee",
      "outputs": [],
      "stateMutability": "nonpayable",
      "type": "function"
    },
    {
      "inputs": [],
      "name": "signerAddress",
      "outputs": [
        {
          "internalType": "address",
          "name": "",
          "type": "address"
        }
      ],
      "stateMutability": "view",
      "type": "function"
    },
    {
      "inputs": [
        {
          "internalType": "bytes4",
          "name": "interfaceId",
          "type": "bytes4"
        }
      ],
      "name": "supportsInterface",
      "outputs": [
        {
          "internalType": "bool",
          "name": "",
          "type": "bool"
        }
      ],
      "stateMutability": "view",
      "type": "function"
    },
    {
      "inputs": [],
      "name": "symbol",
      "outputs": [
        {
          "internalType": "string",
          "name": "",
          "type": "string"
        }
      ],
      "stateMutability": "view",
      "type": "function"
    },
    {
      "inputs": [],
      "name": "totalMint",
      "outputs": [
        {
          "internalType": "uint256",
          "name": "",
          "type": "uint256"
        }
      ],
      "stateMutability": "view",
      "type": "function"
    },
    {
      "inputs": [],
      "name": "totalMintReferral",
      "outputs": [
        {
          "internalType": "uint256",
          "name": "",
          "type": "uint256"
        }
      ],
      "stateMutability": "view",
      "type": "function"
    },
    {
      "inputs": [
        {
          "internalType": "address[]",
          "name": "affiliatedUser",
          "type": "address[]"
        }
      ],
      "name": "transferAffiliatedFunds",
      "outputs": [],
      "stateMutability": "nonpayable",
      "type": "function"
    },
    {
      "inputs": [
        {
          "internalType": "address",
          "name": "newOwner",
          "type": "address"
        }
      ],
      "name": "transferOwnership",
      "outputs": [],
      "stateMutability": "nonpayable",
      "type": "function"
    },
    {
      "inputs": [
        {
          "internalType": "uint256",
          "name": "_preSaleMintCost",
          "type": "uint256"
        },
        {
          "internalType": "uint256",
          "name": "_preSaleStartTime",
          "type": "uint256"
        },
        {
          "internalType": "uint256",
          "name": "_preSaleDuration",
          "type": "uint256"
        },
        {
          "internalType": "uint256",
          "name": "_maxTokenPerMintPreSale",
          "type": "uint256"
        },
        {
          "internalType": "uint256",
          "name": "_limitSupplyInPreSale",
          "type": "uint256"
        },
        {
          "internalType": "uint256",
          "name": "_publicSaleMintCost",
          "type": "uint256"
        },
        {
          "internalType": "uint256",
          "name": "_publicSaleBufferDuration",
          "type": "uint256"
        },
        {
          "internalType": "uint256",
          "name": "_publicSaleDuration",
          "type": "uint256"
        },
        {
          "internalType": "uint256",
          "name": "_maxTokenPerMintPublicSale",
          "type": "uint256"
        },
        {
          "internalType": "uint256",
          "name": "_maxTokenPerPersonPublicSale",
          "type": "uint256"
        }
      ],
      "name": "updatePreSale",
      "outputs": [],
      "stateMutability": "nonpayable",
      "type": "function"
    },
    {
      "inputs": [
        {
          "internalType": "uint256",
          "name": "_publicSaleMintCost",
          "type": "uint256"
        },
        {
          "internalType": "uint256",
          "name": "_publicSaleBufferDuration",
          "type": "uint256"
        },
        {
          "internalType": "uint256",
          "name": "_publicSaleDuration",
          "type": "uint256"
        },
        {
          "internalType": "uint256",
          "name": "_maxTokenPerMintPublicSale",
          "type": "uint256"
        },
        {
          "internalType": "uint256",
          "name": "_maxTokenPerPersonPublicSale",
          "type": "uint256"
        }
      ],
      "name": "updatePublicSale",
      "outputs": [],
      "stateMutability": "nonpayable",
      "type": "function"
    },
    {
      "inputs": [
        {
          "internalType": "address",
          "name": "_signerAddress",
          "type": "address"
        }
      ],
      "name": "updateSignerAddress",
      "outputs": [],
      "stateMutability": "nonpayable",
      "type": "function"
    },
    {
      "inputs": [
        {
          "internalType": "string",
          "name": "_uri",
          "type": "string"
        }
      ],
      "name": "updateURI",
      "outputs": [],
      "stateMutability": "nonpayable",
      "type": "function"
    },
    {
      "inputs": [
        {
          "internalType": "uint256",
          "name": "_tokenId",
          "type": "uint256"
        }
      ],
      "name": "uri",
      "outputs": [
        {
          "internalType": "string",
          "name": "",
          "type": "string"
        }
      ],
      "stateMutability": "view",
      "type": "function"
    },
    {
      "inputs": [
        {
          "internalType": "address[]",
          "name": "affiliatedUser",
          "type": "address[]"
        }
      ],
      "name": "withdrawAffiliatedFunds",
      "outputs": [],
      "stateMutability": "nonpayable",
      "type": "function"
    },
    {
      "inputs": [
        {
          "internalType": "uint256",
          "name": "_amount",
          "type": "uint256"
        }
      ],
      "name": "withdrawWei",
      "outputs": [],
      "stateMutability": "nonpayable",
      "type": "function"
    }
  ],
  "bytecode": "0x608060405234801561001057600080fd5b5061454e806100206000396000f3fe6080604052600436106103a15760003560e01c8063887ce3ca116101e7578063c30f4a5a1161010d578063e985e9c5116100a0578063f2fde38b1161006f578063f2fde38b14610a34578063f32882cd14610a54578063f32a325614610a6b578063f7bc596d14610a9957600080fd5b8063e985e9c51461099f578063f071db5a146109e8578063f21852d0146109ff578063f242432a14610a1457600080fd5b8063cce29ea7116100dc578063cce29ea714610943578063d5abeb011461095a578063d70c764a14610971578063d994a8571461098857600080fd5b8063c30f4a5a146108da578063c45a0155146108fa578063c84c03871461091b578063cb8e74311461093057600080fd5b80639bf8031611610185578063b3f0067411610154578063b3f006741461087a578063ba1676e21461089b578063ba3c944e146108ae578063bacacaa0146108c557600080fd5b80639bf80316146107de578063a22cb4651461080c578063a7f463671461082c578063a829f0b51461084c57600080fd5b80638fa2a9f0116101c15780638fa2a9f01461077457806395d89b4114610794578063986646a7146107a95780639abc8320146107c957600080fd5b8063887ce3ca1461072857806388ba7aa01461073f5780638da5cb5b1461075657600080fd5b806340a6e3cd116102cc5780635d6837ca1161026a578063715018a611610239578063715018a6146106c75780637d25cf48146106dc578063829b917b146106f3578063862330711461071357600080fd5b80635d6837ca146106595780636433972b146106795780636bb7b1d9146106995780636c99a530146106b057600080fd5b806352188a39116102a657806352188a39146105e457806359a7715a146105f75780635a1171bd1461060d5780635b7633d01461062057600080fd5b806340a6e3cd14610580578063473c79fa146105975780634e1273f4146105b757600080fd5b80630e89341c116103445780632eb2c2d6116103135780632eb2c2d6146105125780633102b6d014610532578063347bd980146105495780633dad116a1461056057600080fd5b80630e89341c146104a4578063113cc219146104c45780631e4d185f146104db5780632340fac2146104f257600080fd5b806306fdde031161038057806306fdde031461042057806308674b35146104425780630b7c5c2f146104625780630d6f85631461048457600080fd5b8062fdd58e146103a657806301ffc9a7146103d957806306d65af314610409575b600080fd5b3480156103b257600080fd5b506103c66103c136600461368a565b610ab0565b6040519081526020015b60405180910390f35b3480156103e557600080fd5b506103f96103f43660046136ca565b610b4b565b60405190151581526020016103d0565b34801561041557600080fd5b506103c66101145481565b34801561042c57600080fd5b50610435610b9b565b6040516103d09190613737565b34801561044e57600080fd5b506103c661045d36600461368a565b610c29565b34801561046e57600080fd5b5061048261047d366004613827565b610cb0565b005b34801561049057600080fd5b5061048261049f36600461385b565b610e00565b3480156104b057600080fd5b506104356104bf36600461385b565b611013565b3480156104d057600080fd5b506103c66101175481565b3480156104e757600080fd5b506103c66101015481565b3480156104fe57600080fd5b5061048261050d366004613827565b611047565b34801561051e57600080fd5b5061048261052d366004613957565b6112ad565b34801561053e57600080fd5b506103c66101035481565b34801561055557600080fd5b506103c661010a5481565b34801561056c57600080fd5b506103c661057b366004613a00565b6112f9565b34801561058c57600080fd5b506103c66101105481565b3480156105a357600080fd5b506103c66105b2366004613a44565b611386565b3480156105c357600080fd5b506105d76105d2366004613a80565b611410565b6040516103d09190613b1e565b6104826105f236600461385b565b611539565b34801561060357600080fd5b506103c660fe5481565b61048261061b366004613b31565b61154d565b34801561062c57600080fd5b5061010b54610641906001600160a01b031681565b6040516001600160a01b0390911681526020016103d0565b34801561066557600080fd5b50610482610674366004613b80565b61171c565b34801561068557600080fd5b50610482610694366004613be8565b611a7e565b3480156106a557600080fd5b506103c66101005481565b3480156106bc57600080fd5b506103c66101185481565b3480156106d357600080fd5b50610482611c8a565b3480156106e857600080fd5b506103c66101135481565b3480156106ff57600080fd5b506103f961070e366004613c23565b611c9e565b34801561071f57600080fd5b506103f9611cc3565b34801561073457600080fd5b506103c66101055481565b34801561074b57600080fd5b506103c66101115481565b34801561076257600080fd5b506097546001600160a01b0316610641565b34801561078057600080fd5b5061048261078f366004613c5f565b611ce0565b3480156107a057600080fd5b50610435611d4b565b3480156107b557600080fd5b506104826107c4366004613827565b611d58565b3480156107d557600080fd5b50610435611f80565b3480156107ea57600080fd5b506103c66107f9366004613c5f565b6101196020526000908152604090205481565b34801561081857600080fd5b50610482610827366004613c7a565b611f8d565b34801561083857600080fd5b50610482610847366004613cb6565b611f98565b34801561085857600080fd5b506103c6610867366004613c5f565b6101086020526000908152604090205481565b34801561088657600080fd5b5061010c54610641906001600160a01b031681565b6104826108a9366004613ce2565b612004565b3480156108ba57600080fd5b506103c661010e5481565b3480156108d157600080fd5b50610482612066565b3480156108e657600080fd5b506104826108f5366004613d42565b6120f5565b34801561090657600080fd5b5061010d54610641906001600160a01b031681565b34801561092757600080fd5b50610435612106565b61048261093e366004613d8a565b612114565b34801561094f57600080fd5b506103c66101155481565b34801561096657600080fd5b506103c66101025481565b34801561097d57600080fd5b506103c66101075481565b34801561099457600080fd5b506103c66101065481565b3480156109ab57600080fd5b506103f96109ba366004613de7565b6001600160a01b03918216600090815260666020908152604080832093909416825291909152205460ff1690565b3480156109f457600080fd5b506103c661010f5481565b348015610a0b57600080fd5b506103f961237c565b348015610a2057600080fd5b50610482610a2f366004613e11565b612394565b348015610a4057600080fd5b50610482610a4f366004613c5f565b6123d9565b348015610a6057600080fd5b506103c66101125481565b348015610a7757600080fd5b506103c6610a86366004613c5f565b6101096020526000908152604090205481565b348015610aa557600080fd5b506103c66101165481565b60006001600160a01b038316610b205760405162461bcd60e51b815260206004820152602a60248201527f455243313135353a2061646472657373207a65726f206973206e6f742061207660448201526930b634b21037bbb732b960b11b60648201526084015b60405180910390fd5b5060008181526065602090815260408083206001600160a01b03861684529091529020545b92915050565b60006001600160e01b03198216636cdb3d1360e11b1480610b7c57506001600160e01b031982166303a24d0760e21b145b80610b4557506301ffc9a760e01b6001600160e01b0319831614610b45565b60fb8054610ba890613e69565b80601f0160208091040260200160405190810160405280929190818152602001828054610bd490613e69565b8015610c215780601f10610bf657610100808354040283529160200191610c21565b820191906000526020600020905b815481529060010190602001808311610c0457829003601f168201915b505050505081565b60008083468461010430604051602001610c47959493929190613f16565b60408051601f198184030181529082905280516020918201207f19457468657265756d205369676e6564204d6573736167653a0a33320000000091830191909152603c820152605c0160408051808303601f190181529190528051602090910120949350505050565b610cc681516000141561010a546000141561244f565b610d085760405162461bcd60e51b81526020600482015260136024820152724e6f7468696e6720746f20776974686472617760681b6044820152606401610b17565b60005b8151811015610dfc576000828281518110610d2857610d28613f58565b6020026020010151604051602001610d7e91907f4e6f2062616c616e636520746f207472616e7366657220666f72200000000000815260609190911b6bffffffffffffffffffffffff1916601b820152602f0190565b60405160208183030381529060405290506101096000848481518110610da657610da6613f58565b60200260200101516001600160a01b03166001600160a01b0316815260200190815260200160002054600014158190610df25760405162461bcd60e51b8152600401610b179190613737565b5050600101610d0b565b5050565b610e08612462565b600260c95403610e5a5760405162461bcd60e51b815260206004820152601f60248201527f5265656e7472616e637947756172643a207265656e7472616e742063616c6c006044820152606401610b17565b600260c95580610e975760405162461bcd60e51b81526020600482015260086024820152670416d6f756e743e360c41b6044820152606401610b17565b60008161010a5447031015610edf5760405162461bcd60e51b815260206004820152600e60248201526d09cdee840cadcdeeaced040cae8d60931b6044820152606401610b17565b61271061010e54830281610ef557610ef5613f6e565b049050600033610f058385613f9a565b604051600081818185875af1925050503d8060008114610f41576040519150601f19603f3d011682016040523d82523d6000602084013e610f46565b606091505b5050905080610f845760405162461bcd60e51b815260206004820152600a6024820152692a3c103330b4b632b21760b11b6044820152606401610b17565b81156110095761010c546040516000916001600160a01b03169084908381818185875af1925050503d8060008114610fd8576040519150601f19603f3d011682016040523d82523d6000602084013e610fdd565b606091505b5050905080610ffe5760405162461bcd60e51b8152600401610b1790613fad565b5061010f8054830190555b5050600160c95550565b606060fd611020836124bc565b604051602001611031929190613fd5565b6040516020818303038152906040529050919050565b61104f612462565b6110576125c4565b600260c954036110a95760405162461bcd60e51b815260206004820152601f60248201527f5265656e7472616e637947756172643a207265656e7472616e742063616c6c006044820152606401610b17565b600260c9556110b781610cb0565b60008060008060005b85518110156112115761010960008783815181106110e0576110e0613f58565b60200260200101516001600160a01b03166001600160a01b0316815260200190815260200160002054945061271061010e5486028161112157611121613f6e565b0491506000610109600088848151811061113d5761113d613f58565b60200260200101516001600160a01b03166001600160a01b03168152602001908152602001600020819055506000336001600160a01b031683876111819190613f9a565b604051600081818185875af1925050503d80600081146111bd576040519150601f19603f3d011682016040523d82523d6000602084013e6111c2565b606091505b50509050806112005760405162461bcd60e51b815260206004820152600a6024820152692a3c103330b4b632b21760b11b6044820152606401610b17565b5092840192918101916001016110c0565b5061010a8054849003905581156112a15761010c546040516000916001600160a01b03169084908381818185875af1925050503d8060008114611270576040519150601f19603f3d011682016040523d82523d6000602084013e611275565b606091505b50509050806112965760405162461bcd60e51b8152600401610b1790613fad565b5061010f8054830190555b5050600160c955505050565b6001600160a01b0385163314806112c957506112c985336109ba565b6112e55760405162461bcd60e51b8152600401610b1790613ffa565b6112f28585858585612617565b5050505050565b60008085468686866101043060405160200161131b9796959493929190614049565b60408051601f198184030181529082905280516020918201207f19457468657265756d205369676e6564204d6573736167653a0a33320000000091830191909152603c820152605c0160408051808303601f1901815291905280516020909101209695505050505050565b60008084468585610104306040516020016113a69695949392919061409e565b60408051601f198184030181529082905280516020918201207f19457468657265756d205369676e6564204d6573736167653a0a33320000000091830191909152603c820152605c0160408051808303601f19018152919052805160209091012095945050505050565b606081518351146114755760405162461bcd60e51b815260206004820152602960248201527f455243313135353a206163636f756e747320616e6420696473206c656e677468604482015268040dad2e6dac2e8c6d60bb1b6064820152608401610b17565b600083516001600160401b038111156114905761149061374a565b6040519080825280602002602001820160405280156114b9578160200160208202803683370190505b50905060005b8451811015611531576115048582815181106114dd576114dd613f58565b60200260200101518583815181106114f7576114f7613f58565b6020026020010151610ab0565b82828151811061151657611516613f58565b602090810291909101015261152a816140ec565b90506114bf565b509392505050565b6115416127f7565b61154a81612849565b50565b600161011054146115705760405162461bcd60e51b8152600401610b1790614105565b61157861237c565b6115ba5760405162461bcd60e51b815260206004820152601360248201527270726573616c65206973206e6f74206c69766560681b6044820152606401610b17565b60006115c63385610c29565b90506115d28183611c9e565b6115ee5760405162461bcd60e51b8152600401610b1790614128565b6115f7836128a0565b8360000361163f5760405162461bcd60e51b81526020600482015260156024820152740546f6b656e5369676e5175616e74697479203e203605c1b6044820152606401610b17565b336000908152610119602052604090205483018410156116a15760405162461bcd60e51b815260206004820152601d60248201527f65786365656473206d6178696d756d20616c6c6f776564206c696d69740000006044820152606401610b17565b3483610113540211156116f65760405162461bcd60e51b815260206004820152601860248201527f696e73756666696369656e7420416d6f756e74207061696400000000000000006044820152606401610b17565b6117003384612954565b5050336000908152610119602052604090208054909101905550565b611724612462565b611743611738610114544210428c1161244f565b8a61011454146129ab565b6117845760405162461bcd60e51b8152602060048201526012602482015271496e76616c69642053746172742054696d6560701b6044820152606401610b17565b6101155442106117c95760405162461bcd60e51b815260206004820152601060248201526f1c1c995cd85b19481a5cc8195b99195960821b6044820152606401610b17565b6117f96101125460fe546117dd9190613f9a565b871161011254610102546117f19190613f9a565b88111561244f565b6118455760405162461bcd60e51b815260206004820152601e60248201527f696e636f72726563742070726573616c65206c696d697420737570706c7900006044820152606401610b17565b61185560648b116064871161244f565b6118975760405162461bcd60e51b8152602060048201526013602482015272546f6b656e20636f73743e203130302077656960681b6044820152606401610b17565b6118a7600089116000851161244f565b6118e55760405162461bcd60e51b815260206004820152600f60248201526e073616c65206475726174696f6e3e3608c1b6044820152606401610b17565b6118f5600088118789111561244f565b6119535760405162461bcd60e51b815260206004820152602960248201527f496e76616c6964206d6178696d756d20746f6b656e20706572206d696e7420696044820152686e2070726573616c6560b81b6064820152608401610b17565b600082116119b55760405162461bcd60e51b815260206004820152602960248201527f4d6178696d756d20746f6b656e20706572206d696e7420696e207075626c696360448201526802073616c65203e20360bc1b6064820152608401610b17565b6119c8610102548211158383101561244f565b611a2f5760405162461bcd60e51b815260206004820152603260248201527f496e76616c6964204d617820546f6b656e206d696e7465642070657220706572604482015271736f6e20696e207075626c69632073616c6560701b6064820152608401610b17565b6101139990995561010593909355610117949094556101189290925561011485905592909301610115819055610116849055601e93018381016101005501909101610101556101065561010755565b611a86612462565b600084601e6101155401019050611ab2611aa761010054421042841161244f565b8261010054146129ab565b611af35760405162461bcd60e51b8152602060048201526012602482015271496e76616c69642053746172742054696d6560701b6044820152606401610b17565b610101544210611b3c5760405162461bcd60e51b8152602060048201526014602482015273141d589b1a58c81cd85b19481a5cc8195b99195960621b6044820152606401610b17565b60648611611b815760405162461bcd60e51b8152602060048201526012602482015271125b9d985b1a5908151bdad95b8818dbdcdd60721b6044820152606401610b17565b60008411611bd15760405162461bcd60e51b815260206004820152601860248201527f5075626c69632073616c65206475726174696f6e203e203000000000000000006044820152606401610b17565b611bf060008411611beb610102548511158686101561244f565b61244f565b611c595760405162461bcd60e51b815260206004820152603460248201527f4d6178696d756d20746f6b656e206d696e7465642070657220706572736f6e2f6044820152731c195c881b5a5b9d081b9bdd0818dbdc9c9958dd60621b6064820152608401610b17565b610105869055610116859055610100819055611c758482614153565b61010155506101069190915561010755505050565b611c92612462565b611c9c60006129bb565b565b6000611caa8383612a0d565b61010b546001600160a01b039182169116149392505050565b6000611cdb610100544210156101015442111561244f565b905090565b611ce8612462565b6001600160a01b038116611d285760405162461bcd60e51b815260206004820152600760248201526610b9b4b3b732b960c91b6044820152606401610b17565b61010b80546001600160a01b0319166001600160a01b0392909216919091179055565b60fc8054610ba890613e69565b611d60612462565b611d686125c4565b611d7181610cb0565b60008060008060005b8551811015611eea576101096000878381518110611d9a57611d9a613f58565b60200260200101516001600160a01b03166001600160a01b0316815260200190815260200160002054945061271061010e54860281611ddb57611ddb613f6e565b04915060006101096000888481518110611df757611df7613f58565b60200260200101516001600160a01b03166001600160a01b03168152602001908152602001600020819055506000868281518110611e3757611e37613f58565b60200260200101516001600160a01b03168387611e549190613f9a565b604051600081818185875af1925050503d8060008114611e90576040519150601f19603f3d011682016040523d82523d6000602084013e611e95565b606091505b5050905080611ed95760405162461bcd60e51b815260206004820152601060248201526f2a3930b739b332b9103330b4b632b21760811b6044820152606401610b17565b509284019291810191600101611d7a565b5061010a8054849003905581156112f25761010c546040516000916001600160a01b03169084908381818185875af1925050503d8060008114611f49576040519150601f19603f3d011682016040523d82523d6000602084013e611f4e565b606091505b5050905080611f6f5760405162461bcd60e51b8152600401610b1790613fad565b5061010f8054830190555050505050565b60fd8054610ba890613e69565b610dfc338383612a29565b61010d546001600160a01b03163314611fdb5760405162461bcd60e51b8152602060048201526005602482015264042c2eae8d60db1b6044820152606401610b17565b61010e9190915561010c80546001600160a01b0319166001600160a01b03909216919091179055565b61200c6127f7565b6001600160a01b0383166120545760405162461bcd60e51b815260206004820152600f60248201526e496e76616c6964206164647265737360881b6044820152606401610b17565b61206084848484612b09565b50505050565b61010d546001600160a01b031633146120a95760405162461bcd60e51b8152602060048201526005602482015264042c2eae8d60db1b6044820152606401610b17565b61011054156120ed5760405162461bcd60e51b815260206004820152601060248201526f185b1c9958591e48185c1c1c9bdd995960821b6044820152606401610b17565b600161011055565b6120fd612462565b61154a81612c1a565b6101048054610ba890613e69565b600161011054146121375760405162461bcd60e51b8152600401610b1790614105565b61213f61237c565b6121815760405162461bcd60e51b815260206004820152601360248201527270726573616c65206973206e6f74206c69766560681b6044820152606401610b17565b6001600160a01b0383166121d75760405162461bcd60e51b815260206004820152601760248201527f496e76616c696420416666696c696174656420757365720000000000000000006044820152606401610b17565b60006121e5338786866112f9565b90506121f18183611c9e565b61220d5760405162461bcd60e51b8152600401610b1790614128565b612216856128a0565b8560000361225e5760405162461bcd60e51b81526020600482015260156024820152740546f6b656e5369676e5175616e74697479203e203605c1b6044820152606401610b17565b336000908152610119602052604090205485018610156122c05760405162461bcd60e51b815260206004820152601d60248201527f65786365656473206d6178696d756d20616c6c6f776564206c696d69740000006044820152606401610b17565b3485610113540211156123155760405162461bcd60e51b815260206004820152601860248201527f696e73756666696369656e7420616d6f756e74207061696400000000000000006044820152606401610b17565b61231f3386612954565b505061010380548401905533600090815261011960209081526040808320805487019055610113546001600160a01b03959095168352610109909152902080546064929093029093020490810190915561010a8054909101905550565b6000611cdb610114544210156101155442111561244f565b6001600160a01b0385163314806123b057506123b085336109ba565b6123cc5760405162461bcd60e51b8152600401610b1790613ffa565b6112f28585858585612c6a565b6123e1612462565b6001600160a01b0381166124465760405162461bcd60e51b815260206004820152602660248201527f4f776e61626c653a206e6577206f776e657220697320746865207a65726f206160448201526564647265737360d01b6064820152608401610b17565b61154a816129bb565b600082801561245b5750815b9392505050565b6097546001600160a01b03163314611c9c5760405162461bcd60e51b815260206004820181905260248201527f4f776e61626c653a2063616c6c6572206973206e6f7420746865206f776e65726044820152606401610b17565b6060816000036124e35750506040805180820190915260018152600360fc1b602082015290565b8160005b811561250d57806124f7816140ec565b91506125069050600a83614166565b91506124e7565b6000816001600160401b038111156125275761252761374a565b6040519080825280601f01601f191660200182016040528015612551576020820181803683370190505b5090505b84156125bc57612566600183613f9a565b9150612573600a8661417a565b61257e906030614153565b60f81b81838151811061259357612593613f58565b60200101906001600160f81b031916908160001a9053506125b5600a86614166565b9450612555565b949350505050565b61010154421015611c9c5760405162461bcd60e51b815260206004820152601960248201527f7075626c69632073616c65206e6f742079657420656e646564000000000000006044820152606401610b17565b81518351146126795760405162461bcd60e51b815260206004820152602860248201527f455243313135353a2069647320616e6420616d6f756e7473206c656e677468206044820152670dad2e6dac2e8c6d60c31b6064820152608401610b17565b6001600160a01b03841661269f5760405162461bcd60e51b8152600401610b179061418e565b3360005b84518110156127895760008582815181106126c0576126c0613f58565b6020026020010151905060008583815181106126de576126de613f58565b60209081029190910181015160008481526065835260408082206001600160a01b038e16835290935291909120549091508181101561272f5760405162461bcd60e51b8152600401610b17906141d3565b60008381526065602090815260408083206001600160a01b038e8116855292528083208585039055908b1682528120805484929061276e908490614153565b9250508190555050505080612782906140ec565b90506126a3565b50846001600160a01b0316866001600160a01b0316826001600160a01b03167f4a39dc06d4c0dbc64b70af90fd698a233a518aa5d07e595d983b8c0526c8f7fb87876040516127d992919061421d565b60405180910390a46127ef818787878787612d98565b505050505050565b610115544211611c9c5760405162461bcd60e51b815260206004820152601d60248201527f746865207072652d73616c65206973206e6f742079657420656e6465640000006044820152606401610b17565b6001610110541461286c5760405162461bcd60e51b8152600401610b1790614105565b612874612efc565b61287d81612f47565b6128873382612954565b3360009081526101086020526040902080549091019055565b6128b3600082116101175483111561244f565b6128f85760405162461bcd60e51b8152602060048201526016602482015275496e76616c696420546f6b656e205175616e7469747960501b6044820152606401610b17565b61011254610118540160fe548201111561154a5760405162461bcd60e51b815260206004820152601860248201527f657863656564696e672070726573616c6520737570706c7900000000000000006044820152606401610b17565b6000805b82811015612060576129686130a5565b915061297660fe5460010190565b60fe819055506129a38483600160405180604001604052806002815260200161060f60f31b815250613105565b600101612958565b6000828061245b57509092915050565b609780546001600160a01b038381166001600160a01b0319831681179093556040519116919082907f8be0079c531659141344cd1fd0a4f28419497f9722a3daafe3b4186f6b6457e090600090a35050565b6000806000612a1c8585613212565b9150915061153181613280565b816001600160a01b0316836001600160a01b031603612a9c5760405162461bcd60e51b815260206004820152602960248201527f455243313135353a2073657474696e6720617070726f76616c20737461747573604482015268103337b91039b2b63360b91b6064820152608401610b17565b6001600160a01b03838116600081815260666020908152604080832094871680845294825291829020805460ff191686151590811790915591519182527f17307eab39ab6107e8899845ad3d59bd9653f200f220920489ca2b5937696c31910160405180910390a3505050565b60016101105414612b2c5760405162461bcd60e51b8152600401610b1790614105565b612b34612efc565b6001600160a01b038316612b725760405162461bcd60e51b815260206004820152600560248201526410bab9b2b960d91b6044820152606401610b17565b6000612b7f338585611386565b9050612b8b8183611c9e565b612ba75760405162461bcd60e51b8152600401610b1790614128565b612bb085612f47565b612bba3386612954565b5050610103805484019055610105546001600160a01b0392909216600090815261010960209081526040808320805460649590960287029490940494850190935561010a8054909401909355338152610108909252902080549091019055565b612c2381613436565b60fd612c2f8282614296565b507f3d7a9962f6da134f6896430d6867bd08e3546dbf9570df877e7cec39ba4305f081604051612c5f9190613737565b60405180910390a150565b6001600160a01b038416612c905760405162461bcd60e51b8152600401610b179061418e565b336000612c9c85613442565b90506000612ca985613442565b905060008681526065602090815260408083206001600160a01b038c16845290915290205485811015612cee5760405162461bcd60e51b8152600401610b17906141d3565b60008781526065602090815260408083206001600160a01b038d8116855292528083208985039055908a16825281208054889290612d2d908490614153565b909155505060408051888152602081018890526001600160a01b03808b16928c821692918816917fc3d58168c5ae7397731d063d5bbf3d657854427343f4c083240f7aacaa2d0f62910160405180910390a4612d8d848a8a8a8a8a61348d565b505050505050505050565b6001600160a01b0384163b156127ef5760405163bc197c8160e01b81526001600160a01b0385169063bc197c8190612ddc9089908990889088908890600401614355565b6020604051808303816000875af1925050508015612e17575060408051601f3d908101601f19168201909252612e14918101906143b3565b60015b612ec357612e236143d0565b806308c379a003612e5c5750612e376143ec565b80612e425750612e5e565b8060405162461bcd60e51b8152600401610b179190613737565b505b60405162461bcd60e51b815260206004820152603460248201527f455243313135353a207472616e7366657220746f206e6f6e20455243313135356044820152732932b1b2b4bb32b91034b6b83632b6b2b73a32b960611b6064820152608401610b17565b6001600160e01b0319811663bc197c8160e01b14612ef35760405162461bcd60e51b8152600401610b1790614475565b50505050505050565b612f04611cc3565b611c9c5760405162461bcd60e51b81526020600482015260146024820152735075626c69632053616c652d6e6f74206c69766560601b6044820152606401610b17565b612f5a600082116101065483111561244f565b612f9f5760405162461bcd60e51b8152602060048201526016602482015275496e76616c696420546f6b656e205175616e7469747960501b6044820152606401610b17565b610102548160fe54011115612feb5760405162461bcd60e51b815260206004820152601260248201527132bc31b2b2b21036b0bc1039bab838363c9760711b6044820152606401610b17565b3481610105540211156130405760405162461bcd60e51b815260206004820152601760248201527f706179206d696e696d756d20746f6b656e2070726963650000000000000000006044820152606401610b17565b6101075433600090815261010860205260409020548201111561154a5760405162461bcd60e51b815260206004820152601c60248201527f657863656564206d6178696d756d20616c6c6f776564206c696d6974000000006044820152606401610b17565b60006101025460fe5411156130f05760405162461bcd60e51b8152602060048201526011602482015270657863656564206d617820537570706c7960781b6044820152606401610b17565b6130fe60ff80546001019055565b5060ff5490565b6001600160a01b0384166131655760405162461bcd60e51b815260206004820152602160248201527f455243313135353a206d696e7420746f20746865207a65726f206164647265736044820152607360f81b6064820152608401610b17565b33600061317185613442565b9050600061317e85613442565b905060008681526065602090815260408083206001600160a01b038b168452909152812080548792906131b2908490614153565b909155505060408051878152602081018790526001600160a01b03808a1692600092918716917fc3d58168c5ae7397731d063d5bbf3d657854427343f4c083240f7aacaa2d0f62910160405180910390a4612ef38360008989898961348d565b60008082516041036132485760208301516040840151606085015160001a61323c87828585613548565b94509450505050613279565b82516040036132715760208301516040840151613266868383613635565b935093505050613279565b506000905060025b9250929050565b6000816004811115613294576132946144bd565b0361329c5750565b60018160048111156132b0576132b06144bd565b036132fd5760405162461bcd60e51b815260206004820152601860248201527f45434453413a20696e76616c6964207369676e617475726500000000000000006044820152606401610b17565b6002816004811115613311576133116144bd565b0361335e5760405162461bcd60e51b815260206004820152601f60248201527f45434453413a20696e76616c6964207369676e6174757265206c656e677468006044820152606401610b17565b6003816004811115613372576133726144bd565b036133ca5760405162461bcd60e51b815260206004820152602260248201527f45434453413a20696e76616c6964207369676e6174757265202773272076616c604482015261756560f01b6064820152608401610b17565b60048160048111156133de576133de6144bd565b0361154a5760405162461bcd60e51b815260206004820152602260248201527f45434453413a20696e76616c6964207369676e6174757265202776272076616c604482015261756560f01b6064820152608401610b17565b6067610dfc8282614296565b6040805160018082528183019092526060916000919060208083019080368337019050509050828160008151811061347c5761347c613f58565b602090810291909101015292915050565b6001600160a01b0384163b156127ef5760405163f23a6e6160e01b81526001600160a01b0385169063f23a6e61906134d190899089908890889088906004016144d3565b6020604051808303816000875af192505050801561350c575060408051601f3d908101601f19168201909252613509918101906143b3565b60015b61351857612e236143d0565b6001600160e01b0319811663f23a6e6160e01b14612ef35760405162461bcd60e51b8152600401610b1790614475565b6000807f7fffffffffffffffffffffffffffffff5d576e7357a4501ddfe92f46681b20a083111561357f575060009050600361362c565b8460ff16601b1415801561359757508460ff16601c14155b156135a8575060009050600461362c565b6040805160008082526020820180845289905260ff881692820192909252606081018690526080810185905260019060a0016020604051602081039080840390855afa1580156135fc573d6000803e3d6000fd5b5050604051601f1901519150506001600160a01b0381166136255760006001925092505061362c565b9150600090505b94509492505050565b6000806001600160ff1b0383168161365260ff86901c601b614153565b905061366087828885613548565b935093505050935093915050565b80356001600160a01b038116811461368557600080fd5b919050565b6000806040838503121561369d57600080fd5b6136a68361366e565b946020939093013593505050565b6001600160e01b03198116811461154a57600080fd5b6000602082840312156136dc57600080fd5b813561245b816136b4565b60005b838110156137025781810151838201526020016136ea565b50506000910152565b600081518084526137238160208601602086016136e7565b601f01601f19169290920160200192915050565b60208152600061245b602083018461370b565b634e487b7160e01b600052604160045260246000fd5b601f8201601f191681016001600160401b03811182821017156137855761378561374a565b6040525050565b60006001600160401b038211156137a5576137a561374a565b5060051b60200190565b600082601f8301126137c057600080fd5b813560206137cd8261378c565b6040516137da8282613760565b83815260059390931b85018201928281019150868411156137fa57600080fd5b8286015b8481101561381c5761380f8161366e565b83529183019183016137fe565b509695505050505050565b60006020828403121561383957600080fd5b81356001600160401b0381111561384f57600080fd5b6125bc848285016137af565b60006020828403121561386d57600080fd5b5035919050565b600082601f83011261388557600080fd5b813560206138928261378c565b60405161389f8282613760565b83815260059390931b85018201928281019150868411156138bf57600080fd5b8286015b8481101561381c57803583529183019183016138c3565b60006001600160401b038311156138f3576138f361374a565b60405161390a601f8501601f191660200182613760565b80915083815284848401111561391f57600080fd5b83836020830137600060208583010152509392505050565b600082601f83011261394857600080fd5b61245b838335602085016138da565b600080600080600060a0868803121561396f57600080fd5b6139788661366e565b94506139866020870161366e565b935060408601356001600160401b03808211156139a257600080fd5b6139ae89838a01613874565b945060608801359150808211156139c457600080fd5b6139d089838a01613874565b935060808801359150808211156139e657600080fd5b506139f388828901613937565b9150509295509295909350565b60008060008060808587031215613a1657600080fd5b613a1f8561366e565b935060208501359250613a346040860161366e565b9396929550929360600135925050565b600080600060608486031215613a5957600080fd5b613a628461366e565b9250613a706020850161366e565b9150604084013590509250925092565b60008060408385031215613a9357600080fd5b82356001600160401b0380821115613aaa57600080fd5b613ab6868387016137af565b93506020850135915080821115613acc57600080fd5b50613ad985828601613874565b9150509250929050565b600081518084526020808501945080840160005b83811015613b1357815187529582019590820190600101613af7565b509495945050505050565b60208152600061245b6020830184613ae3565b600080600060608486031215613b4657600080fd5b833592506020840135915060408401356001600160401b03811115613b6a57600080fd5b613b7686828701613937565b9150509250925092565b6000806000806000806000806000806101408b8d031215613ba057600080fd5b505088359a60208a01359a5060408a013599606081013599506080810135985060a0810135975060c0810135965060e081013595506101008101359450610120013592509050565b600080600080600060a08688031215613c0057600080fd5b505083359560208501359550604085013594606081013594506080013592509050565b60008060408385031215613c3657600080fd5b8235915060208301356001600160401b03811115613c5357600080fd5b613ad985828601613937565b600060208284031215613c7157600080fd5b61245b8261366e565b60008060408385031215613c8d57600080fd5b613c968361366e565b915060208301358015158114613cab57600080fd5b809150509250929050565b60008060408385031215613cc957600080fd5b82359150613cd96020840161366e565b90509250929050565b60008060008060808587031215613cf857600080fd5b84359350613d086020860161366e565b92506040850135915060608501356001600160401b03811115613d2a57600080fd5b613d3687828801613937565b91505092959194509250565b600060208284031215613d5457600080fd5b81356001600160401b03811115613d6a57600080fd5b8201601f81018413613d7b57600080fd5b6125bc848235602084016138da565b600080600080600060a08688031215613da257600080fd5b8535945060208601359350613db96040870161366e565b92506060860135915060808601356001600160401b03811115613ddb57600080fd5b6139f388828901613937565b60008060408385031215613dfa57600080fd5b613e038361366e565b9150613cd96020840161366e565b600080600080600060a08688031215613e2957600080fd5b613e328661366e565b9450613e406020870161366e565b9350604086013592506060860135915060808601356001600160401b03811115613ddb57600080fd5b600181811c90821680613e7d57607f821691505b602082108103613e9d57634e487b7160e01b600052602260045260246000fd5b50919050565b60008154613eb081613e69565b60018281168015613ec85760018114613edd57613f0c565b60ff1984168752821515830287019450613f0c565b8560005260208060002060005b85811015613f035781548a820152908401908201613eea565b50505082870194505b5050505092915050565b60006001600160601b0319808860601b168352866014840152856034840152613f426054840186613ea3565b60609490941b1683525050601401949350505050565b634e487b7160e01b600052603260045260246000fd5b634e487b7160e01b600052601260045260246000fd5b634e487b7160e01b600052601160045260246000fd5b81810381811115610b4557610b45613f84565b6020808252600e908201526d2332b29d2a3c103330b4b632b21760911b604082015260600190565b6000613fe18285613ea3565b8351613ff18183602088016136e7565b01949350505050565b6020808252602f908201527f455243313135353a2063616c6c6572206973206e6f7420746f6b656e206f776e60408201526e195c881b9bdc88185c1c1c9bdd9959608a1b606082015260800190565b60006001600160601b0319808a60601b168352886014840152876034840152808760601b1660548401528560688401526140866088840186613ea3565b60609490941b16835250506014019695505050505050565b60006001600160601b0319808960601b168352876014840152808760601b1660348401528560488401526140d56068840186613ea3565b60609490941b168352505060140195945050505050565b6000600182016140fe576140fe613f84565b5060010190565b60208082526009908201526808585c1c1c9bdd995960ba1b604082015260600190565b602080825260119082015270696e76616c69642d7369676e617475726560781b604082015260600190565b80820180821115610b4557610b45613f84565b60008261417557614175613f6e565b500490565b60008261418957614189613f6e565b500690565b60208082526025908201527f455243313135353a207472616e7366657220746f20746865207a65726f206164604082015264647265737360d81b606082015260800190565b6020808252602a908201527f455243313135353a20696e73756666696369656e742062616c616e636520666f60408201526939103a3930b739b332b960b11b606082015260800190565b6040815260006142306040830185613ae3565b82810360208401526142428185613ae3565b95945050505050565b601f82111561429157600081815260208120601f850160051c810160208610156142725750805b601f850160051c820191505b818110156127ef5782815560010161427e565b505050565b81516001600160401b038111156142af576142af61374a565b6142c3816142bd8454613e69565b8461424b565b602080601f8311600181146142f857600084156142e05750858301515b600019600386901b1c1916600185901b1785556127ef565b600085815260208120601f198616915b8281101561432757888601518255948401946001909101908401614308565b50858210156143455787850151600019600388901b60f8161c191681555b5050505050600190811b01905550565b6001600160a01b0386811682528516602082015260a06040820181905260009061438190830186613ae3565b82810360608401526143938186613ae3565b905082810360808401526143a7818561370b565b98975050505050505050565b6000602082840312156143c557600080fd5b815161245b816136b4565b600060033d11156143e95760046000803e5060005160e01c5b90565b600060443d10156143fa5790565b6040516003193d81016004833e81513d6001600160401b03816024840111818411171561442957505050505090565b82850191508151818111156144415750505050505090565b843d870101602082850101111561445b5750505050505090565b61446a60208286010187613760565b509095945050505050565b60208082526028908201527f455243313135353a204552433131353552656365697665722072656a656374656040820152676420746f6b656e7360c01b606082015260800190565b634e487b7160e01b600052602160045260246000fd5b6001600160a01b03868116825285166020820152604081018490526060810183905260a06080820181905260009061450d9083018461370b565b97965050505050505056fea2646970667358221220a94790de0d893b40f5dd6498f848884ebd7976f033154a89c1ebcefdb0475f8f64736f6c63430008110033",
  "linkReferences": {},
  "deployedLinkReferences": {}
}