{
  "_format": "hh-sol-artifact-1",
  "contractName": "StandardToken",
  "sourceName": "contracts/Base/mocks/LinkToken.sol",
  "abi": [
    {
      "anonymous": false,
      "inputs": [
        {
          "indexed": true,
          "internalType": "address",
          "name": "owner",
          "type": "address"
        },
        {
          "indexed": true,
          "internalType": "address",
          "name": "spender",
          "type": "address"
        },
        {
          "indexed": false,
          "internalType": "uint256",
          "name": "value",
          "type": "uint256"
        }
      ],
      "name": "Approval",
      "type": "event"
    },
    {
      "anonymous": false,
      "inputs": [
        {
          "indexed": true,
          "internalType": "address",
          "name": "from",
          "type": "address"
        },
        {
          "indexed": true,
          "internalType": "address",
          "name": "to",
          "type": "address"
        },
        {
          "indexed": false,
          "internalType": "uint256",
          "name": "value",
          "type": "uint256"
        }
      ],
      "name": "Transfer",
      "type": "event"
    },
    {
      "inputs": [
        {
          "internalType": "address",
          "name": "_owner",
          "type": "address"
        },
        {
          "internalType": "address",
          "name": "_spender",
          "type": "address"
        }
      ],
      "name": "allowance",
      "outputs": [
        {
          "internalType": "uint256",
          "name": "remaining",
          "type": "uint256"
        }
      ],
      "stateMutability": "view",
      "type": "function"
    },
    {
      "inputs": [
        {
          "internalType": "address",
          "name": "_spender",
          "type": "address"
        },
        {
          "internalType": "uint256",
          "name": "_value",
          "type": "uint256"
        }
      ],
      "name": "approve",
      "outputs": [
        {
          "internalType": "bool",
          "name": "",
          "type": "bool"
        }
      ],
      "stateMutability": "nonpayable",
      "type": "function"
    },
    {
      "inputs": [
        {
          "internalType": "address",
          "name": "_owner",
          "type": "address"
        }
      ],
      "name": "balanceOf",
      "outputs": [
        {
          "internalType": "uint256",
          "name": "balance",
          "type": "uint256"
        }
      ],
      "stateMutability": "view",
      "type": "function"
    },
    {
      "inputs": [
        {
          "internalType": "address",
          "name": "_spender",
          "type": "address"
        },
        {
          "internalType": "uint256",
          "name": "_subtractedValue",
          "type": "uint256"
        }
      ],
      "name": "decreaseApproval",
      "outputs": [
        {
          "internalType": "bool",
          "name": "success",
          "type": "bool"
        }
      ],
      "stateMutability": "nonpayable",
      "type": "function"
    },
    {
      "inputs": [
        {
          "internalType": "address",
          "name": "_spender",
          "type": "address"
        },
        {
          "internalType": "uint256",
          "name": "_addedValue",
          "type": "uint256"
        }
      ],
      "name": "increaseApproval",
      "outputs": [
        {
          "internalType": "bool",
          "name": "success",
          "type": "bool"
        }
      ],
      "stateMutability": "nonpayable",
      "type": "function"
    },
    {
      "inputs": [
        {
          "internalType": "address",
          "name": "_to",
          "type": "address"
        },
        {
          "internalType": "uint256",
          "name": "_value",
          "type": "uint256"
        }
      ],
      "name": "transfer",
      "outputs": [
        {
          "internalType": "bool",
          "name": "",
          "type": "bool"
        }
      ],
      "stateMutability": "nonpayable",
      "type": "function"
    },
    {
      "inputs": [
        {
          "internalType": "address",
          "name": "_from",
          "type": "address"
        },
        {
          "internalType": "address",
          "name": "_to",
          "type": "address"
        },
        {
          "internalType": "uint256",
          "name": "_value",
          "type": "uint256"
        }
      ],
      "name": "transferFrom",
      "outputs": [
        {
          "internalType": "bool",
          "name": "",
          "type": "bool"
        }
      ],
      "stateMutability": "nonpayable",
      "type": "function"
    }
  ],
  "bytecode": "0x608060405234801561001057600080fd5b50610664806100206000396000f3fe608060405234801561001057600080fd5b506004361061007d5760003560e01c806370a082311161005b57806370a08231146100d0578063a9059cbb14610107578063d73dd6231461011a578063dd62ed3e1461012d57600080fd5b8063095ea7b31461008257806323b872dd146100aa57806366188463146100bd575b600080fd5b610095610090366004610528565b610166565b60405190151581526020015b60405180910390f35b6100956100b8366004610552565b6101d3565b6100956100cb366004610528565b6102c9565b6100f96100de36600461058e565b6001600160a01b031660009081526020819052604090205490565b6040519081526020016100a1565b610095610115366004610528565b6103b1565b610095610128366004610528565b610445565b6100f961013b3660046105a9565b6001600160a01b03918216600090815260016020908152604080832093909416825291909152205490565b3360008181526001602090815260408083206001600160a01b038716808552925280832085905551919290917f8c5be1e5ebec7d5bd14f71427d1e84f3dd0314c0f7b2291e5b200ac8c7c3b925906101c19086815260200190565b60405180910390a35060015b92915050565b6001600160a01b03831660008181526001602090815260408083203384528252808320549383529082905281205490919061020e90846104ca565b6001600160a01b03808716600090815260208190526040808220939093559086168152205461023d90846104ed565b6001600160a01b03851660009081526020819052604090205561026081846104ca565b6001600160a01b03868116600081815260016020908152604080832033845282529182902094909455518681529187169290917fddf252ad1be2c89b69c2b068fc378daa952ba7f163c4a11628f55a4df523b3ef910160405180910390a3506001949350505050565b3360009081526001602090815260408083206001600160a01b03861684529091528120548083111561031e573360009081526001602090815260408083206001600160a01b038816845290915281205561034d565b61032881846104ca565b3360009081526001602090815260408083206001600160a01b03891684529091529020555b3360008181526001602090815260408083206001600160a01b038916808552908352928190205490519081529192917f8c5be1e5ebec7d5bd14f71427d1e84f3dd0314c0f7b2291e5b200ac8c7c3b925910160405180910390a35060019392505050565b336000908152602081905260408120546103cb90836104ca565b33600090815260208190526040808220929092556001600160a01b038516815220546103f790836104ed565b6001600160a01b038416600081815260208181526040918290209390935551848152909133917fddf252ad1be2c89b69c2b068fc378daa952ba7f163c4a11628f55a4df523b3ef91016101c1565b3360009081526001602090815260408083206001600160a01b038616845290915281205461047390836104ed565b3360008181526001602090815260408083206001600160a01b038916808552908352928190208590555193845290927f8c5be1e5ebec7d5bd14f71427d1e84f3dd0314c0f7b2291e5b200ac8c7c3b92591016101c1565b6000828211156104dc576104dc6105dc565b6104e68284610608565b9392505050565b6000806104fa838561061b565b9050838110156104e6576104e66105dc565b80356001600160a01b038116811461052357600080fd5b919050565b6000806040838503121561053b57600080fd5b6105448361050c565b946020939093013593505050565b60008060006060848603121561056757600080fd5b6105708461050c565b925061057e6020850161050c565b9150604084013590509250925092565b6000602082840312156105a057600080fd5b6104e68261050c565b600080604083850312156105bc57600080fd5b6105c58361050c565b91506105d36020840161050c565b90509250929050565b634e487b7160e01b600052600160045260246000fd5b634e487b7160e01b600052601160045260246000fd5b818103818111156101cd576101cd6105f2565b808201808211156101cd576101cd6105f256fea2646970667358221220ac4923a9fc8c10550b6ca7a376f80d0b4103206deeb3db9bbd62064ef380d1c864736f6c63430008110033",
  "linkReferences": {},
  "deployedLinkReferences": {}
}