{
  "_format": "hh-sol-artifact-1",
  "contractName": "NFTWithoutPresaleWithRandomDelayed",
  "sourceName": "contracts/Sales/NFTWithoutPresaleWithRandomDelayed.sol",
  "abi": [
    {
      "anonymous": false,
      "inputs": [
        {
          "indexed": true,
          "internalType": "address",
          "name": "account",
          "type": "address"
        },
        {
          "indexed": true,
          "internalType": "address",
          "name": "operator",
          "type": "address"
        },
        {
          "indexed": false,
          "internalType": "bool",
          "name": "approved",
          "type": "bool"
        }
      ],
      "name": "ApprovalForAll",
      "type": "event"
    },
    {
      "anonymous": false,
      "inputs": [
        {
          "indexed": false,
          "internalType": "uint8",
          "name": "version",
          "type": "uint8"
        }
      ],
      "name": "Initialized",
      "type": "event"
    },
    {
      "anonymous": false,
      "inputs": [
        {
          "indexed": true,
          "internalType": "address",
          "name": "previousOwner",
          "type": "address"
        },
        {
          "indexed": true,
          "internalType": "address",
          "name": "newOwner",
          "type": "address"
        }
      ],
      "name": "OwnershipTransferred",
      "type": "event"
    },
    {
      "anonymous": false,
      "inputs": [
        {
          "indexed": true,
          "internalType": "bytes32",
          "name": "requestId",
          "type": "bytes32"
        },
        {
          "indexed": false,
          "internalType": "uint256",
          "name": "randomNumber",
          "type": "uint256"
        }
      ],
      "name": "RandomNumberCompleted",
      "type": "event"
    },
    {
      "anonymous": false,
      "inputs": [
        {
          "indexed": true,
          "internalType": "address",
          "name": "sender",
          "type": "address"
        },
        {
          "indexed": true,
          "internalType": "bytes32",
          "name": "vrfRequestId",
          "type": "bytes32"
        }
      ],
      "name": "RandomNumberRequested",
      "type": "event"
    },
    {
      "anonymous": false,
      "inputs": [
        {
          "indexed": false,
          "internalType": "uint256",
          "name": "time",
          "type": "uint256"
        }
      ],
      "name": "TokensRevealed",
      "type": "event"
    },
    {
      "anonymous": false,
      "inputs": [
        {
          "indexed": true,
          "internalType": "address",
          "name": "operator",
          "type": "address"
        },
        {
          "indexed": true,
          "internalType": "address",
          "name": "from",
          "type": "address"
        },
        {
          "indexed": true,
          "internalType": "address",
          "name": "to",
          "type": "address"
        },
        {
          "indexed": false,
          "internalType": "uint256[]",
          "name": "ids",
          "type": "uint256[]"
        },
        {
          "indexed": false,
          "internalType": "uint256[]",
          "name": "values",
          "type": "uint256[]"
        }
      ],
      "name": "TransferBatch",
      "type": "event"
    },
    {
      "anonymous": false,
      "inputs": [
        {
          "indexed": true,
          "internalType": "address",
          "name": "operator",
          "type": "address"
        },
        {
          "indexed": true,
          "internalType": "address",
          "name": "from",
          "type": "address"
        },
        {
          "indexed": true,
          "internalType": "address",
          "name": "to",
          "type": "address"
        },
        {
          "indexed": false,
          "internalType": "uint256",
          "name": "id",
          "type": "uint256"
        },
        {
          "indexed": false,
          "internalType": "uint256",
          "name": "value",
          "type": "uint256"
        }
      ],
      "name": "TransferSingle",
      "type": "event"
    },
    {
      "anonymous": false,
      "inputs": [
        {
          "indexed": false,
          "internalType": "string",
          "name": "uri",
          "type": "string"
        }
      ],
      "name": "URI",
      "type": "event"
    },
    {
      "anonymous": false,
      "inputs": [
        {
          "indexed": false,
          "internalType": "string",
          "name": "value",
          "type": "string"
        },
        {
          "indexed": true,
          "internalType": "uint256",
          "name": "id",
          "type": "uint256"
        }
      ],
      "name": "URI",
      "type": "event"
    },
    {
      "inputs": [
        {
          "internalType": "string",
          "name": "_name",
          "type": "string"
        },
        {
          "internalType": "string",
          "name": "_symbol",
          "type": "string"
        },
        {
          "internalType": "string",
          "name": "_saleType",
          "type": "string"
        },
        {
          "internalType": "string",
          "name": "_baseUri",
          "type": "string"
        },
        {
          "internalType": "uint256",
          "name": "_maxSupply",
          "type": "uint256"
        },
        {
          "internalType": "string",
          "name": "_saleId",
          "type": "string"
        },
        {
          "components": [
            {
              "internalType": "uint256",
              "name": "_publicSaleMintCost",
              "type": "uint256"
            },
            {
              "internalType": "uint256",
              "name": "_publicSaleStartTime",
              "type": "uint256"
            },
            {
              "internalType": "uint256",
              "name": "_publicSaleDuration",
              "type": "uint256"
            },
            {
              "internalType": "uint256",
              "name": "_maxTokenPerMintPublicSale",
              "type": "uint256"
            },
            {
              "internalType": "uint256",
              "name": "_maxTokenPerPersonPublicSale",
              "type": "uint256"
            }
          ],
          "internalType": "struct BaseNFTWithoutPresale.publicSaleConfig",
          "name": "_publicSaleConfig",
          "type": "tuple"
        },
        {
          "internalType": "address",
          "name": "_signerAddress",
          "type": "address"
        },
        {
          "components": [
            {
              "internalType": "address",
              "name": "vrfCoordinator",
              "type": "address"
            },
            {
              "internalType": "address",
              "name": "link",
              "type": "address"
            },
            {
              "internalType": "bytes32",
              "name": "keyHash",
              "type": "bytes32"
            },
            {
              "internalType": "uint256",
              "name": "fee",
              "type": "uint256"
            }
          ],
          "internalType": "struct BaseNFTWithRandom.randomConfig",
          "name": "_randomConfig",
          "type": "tuple"
        }
      ],
      "name": "__NFTWithoutPresaleWithRandomDelayed_init",
      "outputs": [],
      "stateMutability": "nonpayable",
      "type": "function"
    },
    {
      "inputs": [
        {
          "internalType": "address",
          "name": "",
          "type": "address"
        }
      ],
      "name": "affiliatedUserBalance",
      "outputs": [
        {
          "internalType": "uint256",
          "name": "",
          "type": "uint256"
        }
      ],
      "stateMutability": "view",
      "type": "function"
    },
    {
      "inputs": [],
      "name": "affiliatedWei",
      "outputs": [
        {
          "internalType": "uint256",
          "name": "",
          "type": "uint256"
        }
      ],
      "stateMutability": "view",
      "type": "function"
    },
    {
      "inputs": [
        {
          "internalType": "address",
          "name": "account",
          "type": "address"
        },
        {
          "internalType": "uint256",
          "name": "id",
          "type": "uint256"
        }
      ],
      "name": "balanceOf",
      "outputs": [
        {
          "internalType": "uint256",
          "name": "",
          "type": "uint256"
        }
      ],
      "stateMutability": "view",
      "type": "function"
    },
    {
      "inputs": [
        {
          "internalType": "address[]",
          "name": "accounts",
          "type": "address[]"
        },
        {
          "internalType": "uint256[]",
          "name": "ids",
          "type": "uint256[]"
        }
      ],
      "name": "balanceOfBatch",
      "outputs": [
        {
          "internalType": "uint256[]",
          "name": "",
          "type": "uint256[]"
        }
      ],
      "stateMutability": "view",
      "type": "function"
    },
    {
      "inputs": [],
      "name": "baseUri",
      "outputs": [
        {
          "internalType": "string",
          "name": "",
          "type": "string"
        }
      ],
      "stateMutability": "view",
      "type": "function"
    },
    {
      "inputs": [
        {
          "internalType": "address[]",
          "name": "affiliatedUser",
          "type": "address[]"
        }
      ],
      "name": "checkAffiliatedFunds",
      "outputs": [],
      "stateMutability": "view",
      "type": "function"
    },
    {
      "inputs": [
        {
          "internalType": "address[]",
          "name": "_list",
          "type": "address[]"
        },
        {
          "internalType": "uint256[2]",
          "name": "_shares",
          "type": "uint256[2]"
        }
      ],
      "name": "createAirdrop",
      "outputs": [],
      "stateMutability": "nonpayable",
      "type": "function"
    },
    {
      "inputs": [],
      "name": "dropFee",
      "outputs": [
        {
          "internalType": "uint256",
          "name": "",
          "type": "uint256"
        }
      ],
      "stateMutability": "view",
      "type": "function"
    },
    {
      "inputs": [],
      "name": "factory",
      "outputs": [
        {
          "internalType": "address",
          "name": "",
          "type": "address"
        }
      ],
      "stateMutability": "view",
      "type": "function"
    },
    {
      "inputs": [],
      "name": "fee",
      "outputs": [
        {
          "internalType": "uint256",
          "name": "",
          "type": "uint256"
        }
      ],
      "stateMutability": "view",
      "type": "function"
    },
    {
      "inputs": [],
      "name": "feeReceiver",
      "outputs": [
        {
          "internalType": "address",
          "name": "",
          "type": "address"
        }
      ],
      "stateMutability": "view",
      "type": "function"
    },
    {
      "inputs": [],
      "name": "feesCollected",
      "outputs": [
        {
          "internalType": "uint256",
          "name": "",
          "type": "uint256"
        }
      ],
      "stateMutability": "view",
      "type": "function"
    },
    {
      "inputs": [
        {
          "internalType": "uint256",
          "name": "_tokenID",
          "type": "uint256"
        }
      ],
      "name": "getAssetId",
      "outputs": [
        {
          "internalType": "uint256",
          "name": "",
          "type": "uint256"
        }
      ],
      "stateMutability": "view",
      "type": "function"
    },
    {
      "inputs": [],
      "name": "getLinkAddress",
      "outputs": [
        {
          "internalType": "address",
          "name": "",
          "type": "address"
        }
      ],
      "stateMutability": "view",
      "type": "function"
    },
    {
      "inputs": [],
      "name": "getRandomNumber",
      "outputs": [
        {
          "internalType": "uint256",
          "name": "",
          "type": "uint256"
        }
      ],
      "stateMutability": "view",
      "type": "function"
    },
    {
      "inputs": [
        {
          "internalType": "address",
          "name": "sender",
          "type": "address"
        },
        {
          "internalType": "uint256",
          "name": "tokenQuantity",
          "type": "uint256"
        }
      ],
      "name": "hashforPresale",
      "outputs": [
        {
          "internalType": "bytes32",
          "name": "",
          "type": "bytes32"
        }
      ],
      "stateMutability": "view",
      "type": "function"
    },
    {
      "inputs": [
        {
          "internalType": "address",
          "name": "sender",
          "type": "address"
        },
        {
          "internalType": "uint256",
          "name": "tokenQuantity",
          "type": "uint256"
        },
        {
          "internalType": "address",
          "name": "affiliatedUser",
          "type": "address"
        },
        {
          "internalType": "uint256",
          "name": "commission",
          "type": "uint256"
        }
      ],
      "name": "hashforPresaleAffiliated",
      "outputs": [
        {
          "internalType": "bytes32",
          "name": "",
          "type": "bytes32"
        }
      ],
      "stateMutability": "view",
      "type": "function"
    },
    {
      "inputs": [
        {
          "internalType": "address",
          "name": "sender",
          "type": "address"
        },
        {
          "internalType": "address",
          "name": "affiliatedUser",
          "type": "address"
        },
        {
          "internalType": "uint256",
          "name": "commission",
          "type": "uint256"
        }
      ],
      "name": "hashforPublicSaleAffiliated",
      "outputs": [
        {
          "internalType": "bytes32",
          "name": "",
          "type": "bytes32"
        }
      ],
      "stateMutability": "view",
      "type": "function"
    },
    {
      "inputs": [
        {
          "internalType": "address",
          "name": "account",
          "type": "address"
        },
        {
          "internalType": "address",
          "name": "operator",
          "type": "address"
        }
      ],
      "name": "isApprovedForAll",
      "outputs": [
        {
          "internalType": "bool",
          "name": "",
          "type": "bool"
        }
      ],
      "stateMutability": "view",
      "type": "function"
    },
    {
      "inputs": [],
      "name": "isDropApproved",
      "outputs": [
        {
          "internalType": "uint256",
          "name": "",
          "type": "uint256"
        }
      ],
      "stateMutability": "view",
      "type": "function"
    },
    {
      "inputs": [],
      "name": "isPublicSaleLive",
      "outputs": [
        {
          "internalType": "bool",
          "name": "",
          "type": "bool"
        }
      ],
      "stateMutability": "view",
      "type": "function"
    },
    {
      "inputs": [
        {
          "internalType": "bytes32",
          "name": "hash",
          "type": "bytes32"
        },
        {
          "internalType": "bytes",
          "name": "signature",
          "type": "bytes"
        }
      ],
      "name": "matchAddressSigner",
      "outputs": [
        {
          "internalType": "bool",
          "name": "",
          "type": "bool"
        }
      ],
      "stateMutability": "view",
      "type": "function"
    },
    {
      "inputs": [],
      "name": "maxSupply",
      "outputs": [
        {
          "internalType": "uint256",
          "name": "",
          "type": "uint256"
        }
      ],
      "stateMutability": "view",
      "type": "function"
    },
    {
      "inputs": [],
      "name": "maxTokenPerMintPublicSale",
      "outputs": [
        {
          "internalType": "uint256",
          "name": "",
          "type": "uint256"
        }
      ],
      "stateMutability": "view",
      "type": "function"
    },
    {
      "inputs": [],
      "name": "maxTokenPerPersonPublicSale",
      "outputs": [
        {
          "internalType": "uint256",
          "name": "",
          "type": "uint256"
        }
      ],
      "stateMutability": "view",
      "type": "function"
    },
    {
      "inputs": [],
      "name": "name",
      "outputs": [
        {
          "internalType": "string",
          "name": "",
          "type": "string"
        }
      ],
      "stateMutability": "view",
      "type": "function"
    },
    {
      "inputs": [],
      "name": "owner",
      "outputs": [
        {
          "internalType": "address",
          "name": "",
          "type": "address"
        }
      ],
      "stateMutability": "view",
      "type": "function"
    },
    {
      "inputs": [],
      "name": "preSaleAirdropCount",
      "outputs": [
        {
          "internalType": "uint256",
          "name": "",
          "type": "uint256"
        }
      ],
      "stateMutability": "view",
      "type": "function"
    },
    {
      "inputs": [],
      "name": "publicSaleAirdropCount",
      "outputs": [
        {
          "internalType": "uint256",
          "name": "",
          "type": "uint256"
        }
      ],
      "stateMutability": "view",
      "type": "function"
    },
    {
      "inputs": [
        {
          "internalType": "uint256",
          "name": "tokenQuantity",
          "type": "uint256"
        }
      ],
      "name": "publicSaleBuy",
      "outputs": [],
      "stateMutability": "payable",
      "type": "function"
    },
    {
      "inputs": [
        {
          "internalType": "uint256",
          "name": "tokenQuantity",
          "type": "uint256"
        },
        {
          "internalType": "address",
          "name": "affiliatedUser",
          "type": "address"
        },
        {
          "internalType": "uint256",
          "name": "commission",
          "type": "uint256"
        },
        {
          "internalType": "bytes",
          "name": "signature",
          "type": "bytes"
        }
      ],
      "name": "publicSaleBuyAffiliated",
      "outputs": [],
      "stateMutability": "payable",
      "type": "function"
    },
    {
      "inputs": [],
      "name": "publicSaleEndTime",
      "outputs": [
        {
          "internalType": "uint256",
          "name": "",
          "type": "uint256"
        }
      ],
      "stateMutability": "view",
      "type": "function"
    },
    {
      "inputs": [],
      "name": "publicSaleMintCost",
      "outputs": [
        {
          "internalType": "uint256",
          "name": "",
          "type": "uint256"
        }
      ],
      "stateMutability": "view",
      "type": "function"
    },
    {
      "inputs": [],
      "name": "publicSaleStartTime",
      "outputs": [
        {
          "internalType": "uint256",
          "name": "",
          "type": "uint256"
        }
      ],
      "stateMutability": "view",
      "type": "function"
    },
    {
      "inputs": [
        {
          "internalType": "address",
          "name": "",
          "type": "address"
        }
      ],
      "name": "publicsalerListPurchases",
      "outputs": [
        {
          "internalType": "uint256",
          "name": "",
          "type": "uint256"
        }
      ],
      "stateMutability": "view",
      "type": "function"
    },
    {
      "inputs": [
        {
          "internalType": "bytes32",
          "name": "requestId",
          "type": "bytes32"
        },
        {
          "internalType": "uint256",
          "name": "randomness",
          "type": "uint256"
        }
      ],
      "name": "rawFulfillRandomness",
      "outputs": [],
      "stateMutability": "nonpayable",
      "type": "function"
    },
    {
      "inputs": [],
      "name": "renounceOwnership",
      "outputs": [],
      "stateMutability": "nonpayable",
      "type": "function"
    },
    {
      "inputs": [],
      "name": "requestRandomNumber",
      "outputs": [
        {
          "internalType": "bytes32",
          "name": "",
          "type": "bytes32"
        },
        {
          "internalType": "uint32",
          "name": "",
          "type": "uint32"
        }
      ],
      "stateMutability": "nonpayable",
      "type": "function"
    },
    {
      "inputs": [
        {
          "internalType": "string",
          "name": "_uri",
          "type": "string"
        }
      ],
      "name": "revealTokens",
      "outputs": [],
      "stateMutability": "nonpayable",
      "type": "function"
    },
    {
      "inputs": [],
      "name": "revealed",
      "outputs": [
        {
          "internalType": "bool",
          "name": "",
          "type": "bool"
        }
      ],
      "stateMutability": "view",
      "type": "function"
    },
    {
      "inputs": [
        {
          "internalType": "address",
          "name": "from",
          "type": "address"
        },
        {
          "internalType": "address",
          "name": "to",
          "type": "address"
        },
        {
          "internalType": "uint256[]",
          "name": "ids",
          "type": "uint256[]"
        },
        {
          "internalType": "uint256[]",
          "name": "amounts",
          "type": "uint256[]"
        },
        {
          "internalType": "bytes",
          "name": "data",
          "type": "bytes"
        }
      ],
      "name": "safeBatchTransferFrom",
      "outputs": [],
      "stateMutability": "nonpayable",
      "type": "function"
    },
    {
      "inputs": [
        {
          "internalType": "address",
          "name": "from",
          "type": "address"
        },
        {
          "internalType": "address",
          "name": "to",
          "type": "address"
        },
        {
          "internalType": "uint256",
          "name": "id",
          "type": "uint256"
        },
        {
          "internalType": "uint256",
          "name": "amount",
          "type": "uint256"
        },
        {
          "internalType": "bytes",
          "name": "data",
          "type": "bytes"
        }
      ],
      "name": "safeTransferFrom",
      "outputs": [],
      "stateMutability": "nonpayable",
      "type": "function"
    },
    {
      "inputs": [],
      "name": "saleId",
      "outputs": [
        {
          "internalType": "string",
          "name": "",
          "type": "string"
        }
      ],
      "stateMutability": "view",
      "type": "function"
    },
    {
      "inputs": [],
      "name": "saleType",
      "outputs": [
        {
          "internalType": "string",
          "name": "",
          "type": "string"
        }
      ],
      "stateMutability": "view",
      "type": "function"
    },
    {
      "inputs": [
        {
          "internalType": "address",
          "name": "operator",
          "type": "address"
        },
        {
          "internalType": "bool",
          "name": "approved",
          "type": "bool"
        }
      ],
      "name": "setApprovalForAll",
      "outputs": [],
      "stateMutability": "nonpayable",
      "type": "function"
    },
    {
      "inputs": [],
      "name": "setDropApproval",
      "outputs": [],
      "stateMutability": "nonpayable",
      "type": "function"
    },
    {
      "inputs": [
        {
          "internalType": "uint256",
          "name": "_fee",
          "type": "uint256"
        },
        {
          "internalType": "address",
          "name": "_wallet",
          "type": "address"
        }
      ],
      "name": "setDropFee",
      "outputs": [],
      "stateMutability": "nonpayable",
      "type": "function"
    },
    {
      "inputs": [
        {
          "internalType": "uint256",
          "name": "_version",
          "type": "uint256"
        }
      ],
      "name": "setVersion",
      "outputs": [],
      "stateMutability": "nonpayable",
      "type": "function"
    },
    {
      "inputs": [],
      "name": "signerAddress",
      "outputs": [
        {
          "internalType": "address",
          "name": "",
          "type": "address"
        }
      ],
      "stateMutability": "view",
      "type": "function"
    },
    {
      "inputs": [
        {
          "internalType": "bytes4",
          "name": "interfaceId",
          "type": "bytes4"
        }
      ],
      "name": "supportsInterface",
      "outputs": [
        {
          "internalType": "bool",
          "name": "",
          "type": "bool"
        }
      ],
      "stateMutability": "view",
      "type": "function"
    },
    {
      "inputs": [],
      "name": "symbol",
      "outputs": [
        {
          "internalType": "string",
          "name": "",
          "type": "string"
        }
      ],
      "stateMutability": "view",
      "type": "function"
    },
    {
      "inputs": [],
      "name": "totalMint",
      "outputs": [
        {
          "internalType": "uint256",
          "name": "",
          "type": "uint256"
        }
      ],
      "stateMutability": "view",
      "type": "function"
    },
    {
      "inputs": [],
      "name": "totalMintReferral",
      "outputs": [
        {
          "internalType": "uint256",
          "name": "",
          "type": "uint256"
        }
      ],
      "stateMutability": "view",
      "type": "function"
    },
    {
      "inputs": [
        {
          "internalType": "address[]",
          "name": "affiliatedUser",
          "type": "address[]"
        }
      ],
      "name": "transferAffiliatedFunds",
      "outputs": [],
      "stateMutability": "nonpayable",
      "type": "function"
    },
    {
      "inputs": [
        {
          "internalType": "address",
          "name": "newOwner",
          "type": "address"
        }
      ],
      "name": "transferOwnership",
      "outputs": [],
      "stateMutability": "nonpayable",
      "type": "function"
    },
    {
      "inputs": [
        {
          "internalType": "uint256",
          "name": "_publicSaleMintCost",
          "type": "uint256"
        },
        {
          "internalType": "uint256",
          "name": "_publicSaleStartTime",
          "type": "uint256"
        },
        {
          "internalType": "uint256",
          "name": "_publicSaleDuration",
          "type": "uint256"
        },
        {
          "internalType": "uint256",
          "name": "_maxTokenPerMintPublicSale",
          "type": "uint256"
        },
        {
          "internalType": "uint256",
          "name": "_maxTokenPerPersonPublicSale",
          "type": "uint256"
        }
      ],
      "name": "updatePublicSale",
      "outputs": [],
      "stateMutability": "nonpayable",
      "type": "function"
    },
    {
      "inputs": [
        {
          "internalType": "address",
          "name": "_signerAddress",
          "type": "address"
        }
      ],
      "name": "updateSignerAddress",
      "outputs": [],
      "stateMutability": "nonpayable",
      "type": "function"
    },
    {
      "inputs": [
        {
          "internalType": "string",
          "name": "_uri",
          "type": "string"
        }
      ],
      "name": "updateURI",
      "outputs": [],
      "stateMutability": "nonpayable",
      "type": "function"
    },
    {
      "inputs": [
        {
          "internalType": "uint256",
          "name": "_tokenId",
          "type": "uint256"
        }
      ],
      "name": "uri",
      "outputs": [
        {
          "internalType": "string",
          "name": "",
          "type": "string"
        }
      ],
      "stateMutability": "view",
      "type": "function"
    },
    {
      "inputs": [],
      "name": "version",
      "outputs": [
        {
          "internalType": "uint256",
          "name": "",
          "type": "uint256"
        }
      ],
      "stateMutability": "view",
      "type": "function"
    },
    {
      "inputs": [
        {
          "internalType": "address[]",
          "name": "affiliatedUser",
          "type": "address[]"
        }
      ],
      "name": "withdrawAffiliatedFunds",
      "outputs": [],
      "stateMutability": "nonpayable",
      "type": "function"
    },
    {
      "inputs": [
        {
          "internalType": "uint256",
          "name": "_amount",
          "type": "uint256"
        }
      ],
      "name": "withdrawLink",
      "outputs": [],
      "stateMutability": "nonpayable",
      "type": "function"
    },
    {
      "inputs": [
        {
          "internalType": "uint256",
          "name": "_amount",
          "type": "uint256"
        }
      ],
      "name": "withdrawWei",
      "outputs": [],
      "stateMutability": "nonpayable",
      "type": "function"
    }
  ],
  "bytecode": "0x608060405234801561001057600080fd5b50615019806100206000396000f3fe6080604052600436106103c25760003560e01c8063887ce3ca116101f2578063c30f4a5a1161010d578063dbdff2c1116100a0578063f242432a1161006f578063f242432a14610adf578063f2fde38b14610aff578063f32882cd14610b1f578063f32a325614610b3657600080fd5b8063dbdff2c114610a53578063ddca3f4314610a68578063e985e9c514610a7f578063f071db5a14610ac857600080fd5b8063d50cf08e116100dc578063d50cf08e146109ee578063d5abeb0114610a0e578063d70c764a14610a25578063d994a85714610a3c57600080fd5b8063c30f4a5a14610974578063c45a015514610994578063c84c0387146109b5578063ca30e603146109ca57600080fd5b8063a22cb46511610185578063b3f0067411610154578063b3f0067414610914578063ba1676e214610935578063ba3c944e14610948578063bacacaa01461095f57600080fd5b8063a22cb46514610886578063a25a2b4b146108a6578063a7f46367146108c6578063a829f0b5146108e657600080fd5b806394985ddd116101c157806394985ddd1461081c57806395d89b411461083c578063986646a7146108515780639abc83201461087157600080fd5b8063887ce3ca146107b057806388ba7aa0146107c75780638da5cb5b146107de5780638fa2a9f0146107fc57600080fd5b8063473c79fa116102e257806361f547fd116102755780637a8042bd116102445780637a8042bd1461072c578063829b917b1461074c578063862330711461076c5780638678a7b21461078157600080fd5b806361f547fd146106c05780636433972b146106e05780636bb7b1d914610700578063715018a61461071757600080fd5b806354fd4d50116102b157806354fd4d501461064557806359a7715a1461065c5780635b7633d0146106725780635bcc7928146106ab57600080fd5b8063473c79fa146105ca5780634e1273f4146105ea578063518302271461061757806352188a391461063257600080fd5b806323287efe1161035a578063347bd98011610329578063347bd9801461055c5780633dad116a14610573578063408def1e1461059357806340a6e3cd146105b357600080fd5b806323287efe146104e55780632340fac2146105055780632eb2c2d6146105255780633102b6d01461054557600080fd5b80630b7c5c2f116103965780630b7c5c2f1461046c5780630d6f85631461048e5780630e89341c146104ae5780631e4d185f146104ce57600080fd5b8062fdd58e146103c757806301ffc9a7146103fa57806306fdde031461042a57806308674b351461044c575b600080fd5b3480156103d357600080fd5b506103e76103e2366004613ec1565b610b64565b6040519081526020015b60405180910390f35b34801561040657600080fd5b5061041a610415366004613f01565b610bff565b60405190151581526020016103f1565b34801561043657600080fd5b5061043f610c4f565b6040516103f19190613f6e565b34801561045857600080fd5b506103e7610467366004613ec1565b610cdd565b34801561047857600080fd5b5061048c61048736600461405e565b610d64565b005b34801561049a57600080fd5b5061048c6104a9366004614092565b610eb4565b3480156104ba57600080fd5b5061043f6104c9366004614092565b611097565b3480156104da57600080fd5b506103e76101015481565b3480156104f157600080fd5b5061048c6105003660046141fe565b6110cb565b34801561051157600080fd5b5061048c61052036600461405e565b61155d565b34801561053157600080fd5b5061048c610540366004614374565b611793565b34801561055157600080fd5b506103e76101035481565b34801561056857600080fd5b506103e761010a5481565b34801561057f57600080fd5b506103e761058e36600461441d565b6117df565b34801561059f57600080fd5b5061048c6105ae366004614092565b61186c565b3480156105bf57600080fd5b506103e76101105481565b3480156105d657600080fd5b506103e76105e5366004614461565b61187a565b3480156105f657600080fd5b5061060a61060536600461449d565b611904565b6040516103f1919061453b565b34801561062357600080fd5b506101135461041a9060ff1681565b61048c610640366004614092565b611a2d565b34801561065157600080fd5b506103e761011c5481565b34801561066857600080fd5b506103e760fe5481565b34801561067e57600080fd5b5061010b54610693906001600160a01b031681565b6040516001600160a01b0390911681526020016103f1565b3480156106b757600080fd5b5061043f611a39565b3480156106cc57600080fd5b506103e76106db366004614092565b611a47565b3480156106ec57600080fd5b5061048c6106fb36600461454e565b611a9f565b34801561070c57600080fd5b506103e76101005481565b34801561072357600080fd5b5061048c611ca8565b34801561073857600080fd5b5061048c610747366004614092565b611cbc565b34801561075857600080fd5b5061041a610767366004614589565b611e6b565b34801561077857600080fd5b5061041a611e90565b34801561078d57600080fd5b50610796611ead565b6040805192835263ffffffff9091166020830152016103f1565b3480156107bc57600080fd5b506103e76101055481565b3480156107d357600080fd5b506103e76101115481565b3480156107ea57600080fd5b506097546001600160a01b0316610693565b34801561080857600080fd5b5061048c6108173660046145c5565b612065565b34801561082857600080fd5b5061048c6108373660046145e0565b6120d0565b34801561084857600080fd5b5061043f612135565b34801561085d57600080fd5b5061048c61086c36600461405e565b612142565b34801561087d57600080fd5b5061043f61236a565b34801561089257600080fd5b5061048c6108a1366004614610565b612377565b3480156108b257600080fd5b5061048c6108c1366004614647565b612382565b3480156108d257600080fd5b5061048c6108e13660046146d4565b61241d565b3480156108f257600080fd5b506103e76109013660046145c5565b6101086020526000908152604090205481565b34801561092057600080fd5b5061010c54610693906001600160a01b031681565b61048c610943366004614700565b612489565b34801561095457600080fd5b506103e761010e5481565b34801561096b57600080fd5b5061048c61249b565b34801561098057600080fd5b5061048c61098f366004614760565b61252a565b3480156109a057600080fd5b5061010d54610693906001600160a01b031681565b3480156109c157600080fd5b5061043f61253b565b3480156109d657600080fd5b506101135461010090046001600160a01b0316610693565b3480156109fa57600080fd5b5061048c610a09366004614760565b612549565b348015610a1a57600080fd5b506103e76101025481565b348015610a3157600080fd5b506103e76101075481565b348015610a4857600080fd5b506103e76101065481565b348015610a5f57600080fd5b506103e76125b4565b348015610a7457600080fd5b506103e76101175481565b348015610a8b57600080fd5b5061041a610a9a366004614794565b6001600160a01b03918216600090815260666020908152604080832093909416825291909152205460ff1690565b348015610ad457600080fd5b506103e761010f5481565b348015610aeb57600080fd5b5061048c610afa3660046147be565b6125e2565b348015610b0b57600080fd5b5061048c610b1a3660046145c5565b612627565b348015610b2b57600080fd5b506103e76101125481565b348015610b4257600080fd5b506103e7610b513660046145c5565b6101096020526000908152604090205481565b60006001600160a01b038316610bd45760405162461bcd60e51b815260206004820152602a60248201527f455243313135353a2061646472657373207a65726f206973206e6f742061207660448201526930b634b21037bbb732b960b11b60648201526084015b60405180910390fd5b5060008181526065602090815260408083206001600160a01b03861684529091529020545b92915050565b60006001600160e01b03198216636cdb3d1360e11b1480610c3057506001600160e01b031982166303a24d0760e21b145b80610bf957506301ffc9a760e01b6001600160e01b0319831614610bf9565b60fb8054610c5c90614822565b80601f0160208091040260200160405190810160405280929190818152602001828054610c8890614822565b8015610cd55780601f10610caa57610100808354040283529160200191610cd5565b820191906000526020600020905b815481529060010190602001808311610cb857829003601f168201915b505050505081565b60008083468461010430604051602001610cfb9594939291906148cf565b60408051601f198184030181529082905280516020918201207f19457468657265756d205369676e6564204d6573736167653a0a33320000000091830191909152603c820152605c0160408051808303601f190181529190528051602090910120949350505050565b610d7a81516000141561010a546000141561269d565b610dbc5760405162461bcd60e51b81526020600482015260136024820152724e6f7468696e6720746f20776974686472617760681b6044820152606401610bcb565b60005b8151811015610eb0576000828281518110610ddc57610ddc614911565b6020026020010151604051602001610e3291907f4e6f2062616c616e636520746f207472616e7366657220666f72200000000000815260609190911b6bffffffffffffffffffffffff1916601b820152602f0190565b60405160208183030381529060405290506101096000848481518110610e5a57610e5a614911565b60200260200101516001600160a01b03166001600160a01b0316815260200190815260200160002054600014158190610ea65760405162461bcd60e51b8152600401610bcb9190613f6e565b5050600101610dbf565b5050565b610ebc6126b0565b600260c95403610ede5760405162461bcd60e51b8152600401610bcb90614927565b600260c95580610f1b5760405162461bcd60e51b81526020600482015260086024820152670416d6f756e743e360c41b6044820152606401610bcb565b60008161010a5447031015610f635760405162461bcd60e51b815260206004820152600e60248201526d09cdee840cadcdeeaced040cae8d60931b6044820152606401610bcb565b61271061010e54830281610f7957610f7961495e565b049050600033610f89838561498a565b604051600081818185875af1925050503d8060008114610fc5576040519150601f19603f3d011682016040523d82523d6000602084013e610fca565b606091505b50509050806110085760405162461bcd60e51b815260206004820152600a6024820152692a3c103330b4b632b21760b11b6044820152606401610bcb565b811561108d5761010c546040516000916001600160a01b03169084908381818185875af1925050503d806000811461105c576040519150601f19603f3d011682016040523d82523d6000602084013e611061565b606091505b50509050806110825760405162461bcd60e51b8152600401610bcb9061499d565b5061010f8054830190555b5050600160c95550565b606060fd6110a48361270a565b6040516020016110b59291906149c5565b6040516020818303038152906040529050919050565b600054610100900460ff16158080156110eb5750600054600160ff909116105b806111055750303b158015611105575060005460ff166001145b6111685760405162461bcd60e51b815260206004820152602e60248201527f496e697469616c697a61626c653a20636f6e747261637420697320616c72656160448201526d191e481a5b9a5d1a585b1a5e995960921b6064820152608401610bcb565b6000805460ff19166001179055801561118b576000805461ff0019166101001790555b6111a160008711620186a061010254111561269d565b6111ed5760405162461bcd60e51b815260206004820152601860248201527f496e69743a20496e76616c6964206d617820737570706c7900000000000000006044820152606401610bcb565b835160641061123e5760405162461bcd60e51b815260206004820152601860248201527f496e69743a20496e76616c696420546f6b656e20636f737400000000000000006044820152606401610bcb565b83602001514211156112925760405162461bcd60e51b815260206004820152601860248201527f496e69743a20496e76616c69642053746172742054696d6500000000000000006044820152606401610bcb565b60008460400151116112e65760405162461bcd60e51b815260206004820152601760248201527f496e69743a2073616c65206475726174696f6e203e20300000000000000000006044820152606401610bcb565b60008460600151116113525760405162461bcd60e51b815260206004820152602f60248201527f496e69743a204d6178696d756d20746f6b656e20706572206d696e7420696e2060448201526e07075626c69632073616c65203e203608c1b6064820152608401610bcb565b61136e846060015185608001511015878660800151111561269d565b6113d15760405162461bcd60e51b815260206004820152602e60248201527f496e69743a20496e76616c6964204d6178546f6b656e506572506572736f6e2060448201526d6f66207075626c69632073616c6560901b6064820152608401610bcb565b6001600160a01b0383166114275760405162461bcd60e51b815260206004820152601b60248201527f496e69743a20496e76616c6964205369676e65724164647265737300000000006044820152606401610bcb565b61143087612812565b611438612842565b61144a82600001518360200151612871565b60fb6114568b82614a30565b5060fc6114638a82614a30565b5061011b6114718982614a30565b5060fd61147e8882614a30565b506101028690556101046114928682614a30565b50604080830151610119556060830151610117558451610105556020850151610100819055908501516114c491614aef565b6101015560608401516101065560808401516101075561010b80546001600160a01b0385166001600160a01b031991821617909155600161011c5561010d8054909116331790558015611551576000805461ff0019169055604051600181527f7f26b83ff96e1f2b6a682f133852f6798a09c465da95921460cefb38474024989060200160405180910390a15b50505050505050505050565b6115656126b0565b61156d6128d6565b600260c9540361158f5760405162461bcd60e51b8152600401610bcb90614927565b600260c95561159d81610d64565b60008060008060005b85518110156116f75761010960008783815181106115c6576115c6614911565b60200260200101516001600160a01b03166001600160a01b0316815260200190815260200160002054945061271061010e548602816116075761160761495e565b0491506000610109600088848151811061162357611623614911565b60200260200101516001600160a01b03166001600160a01b03168152602001908152602001600020819055506000336001600160a01b03168387611667919061498a565b604051600081818185875af1925050503d80600081146116a3576040519150601f19603f3d011682016040523d82523d6000602084013e6116a8565b606091505b50509050806116e65760405162461bcd60e51b815260206004820152600a6024820152692a3c103330b4b632b21760b11b6044820152606401610bcb565b5092840192918101916001016115a6565b5061010a8054849003905581156117875761010c546040516000916001600160a01b03169084908381818185875af1925050503d8060008114611756576040519150601f19603f3d011682016040523d82523d6000602084013e61175b565b606091505b505090508061177c5760405162461bcd60e51b8152600401610bcb9061499d565b5061010f8054830190555b5050600160c955505050565b6001600160a01b0385163314806117af57506117af8533610a9a565b6117cb5760405162461bcd60e51b8152600401610bcb90614b02565b6117d88585858585612929565b5050505050565b6000808546868686610104306040516020016118019796959493929190614b51565b60408051601f198184030181529082905280516020918201207f19457468657265756d205369676e6564204d6573736167653a0a33320000000091830191909152603c820152605c0160408051808303601f1901815291905280516020909101209695505050505050565b6118746126b0565b61011c55565b600080844685856101043060405160200161189a96959493929190614ba6565b60408051601f198184030181529082905280516020918201207f19457468657265756d205369676e6564204d6573736167653a0a33320000000091830191909152603c820152605c0160408051808303601f19018152919052805160209091012095945050505050565b606081518351146119695760405162461bcd60e51b815260206004820152602960248201527f455243313135353a206163636f756e747320616e6420696473206c656e677468604482015268040dad2e6dac2e8c6d60bb1b6064820152608401610bcb565b600083516001600160401b0381111561198457611984613f81565b6040519080825280602002602001820160405280156119ad578160200160208202803683370190505b50905060005b8451811015611a25576119f88582815181106119d1576119d1614911565b60200260200101518583815181106119eb576119eb614911565b6020026020010151610b64565b828281518110611a0a57611a0a614911565b6020908102919091010152611a1e81614bf4565b90506119b3565b509392505050565b611a3681612b09565b50565b61011b8054610c5c90614822565b6101135460009060ff16611a965760405162461bcd60e51b81526020600482015260166024820152751c995d99585b081d1a19481d1bdad95b88199a5c9cdd60521b6044820152606401610bcb565b610bf982612b60565b611aa76126b0565b611ac6611abb61010054421042871161269d565b856101005414612c24565b611b075760405162461bcd60e51b8152602060048201526012602482015271496e76616c69642053746172742054696d6560701b6044820152606401610bcb565b610101544210611b685760405162461bcd60e51b815260206004820152602660248201527f546865207075626c69632073616c6520697320656e6465642063616e6e6f742060448201526575706461746560d01b6064820152608401610bcb565b60648511611bad5760405162461bcd60e51b8152602060048201526012602482015271125b9d985b1a5908151bdad95b8818dbdcdd60721b6044820152606401610bcb565b60008311611bf65760405162461bcd60e51b815260206004820152601660248201527505075626c69632073616c65206475726174696f6e3e360541b6044820152606401610bcb565b611c1560008311611c10610102548411158585101561269d565b61269d565b611c7e5760405162461bcd60e51b815260206004820152603460248201527f4d6178696d756d20746f6b656e206d696e7465642070657220706572736f6e2f6044820152731c195c881b5a5b9d081b9bdd0818dbdc9c9958dd60621b6064820152608401610bcb565b610105859055610100849055611c948385614aef565b610101556101069190915561010755505050565b611cb06126b0565b611cba6000612c34565b565b611cc46126b0565b600260c95403611ce65760405162461bcd60e51b8152600401610bcb90614927565b600260c955610113546040516370a0823160e01b8152306004820152611d6c9183151591849161010090046001600160a01b0316906370a0823190602401602060405180830381865afa158015611d41573d6000803e3d6000fd5b505050506040513d601f19601f82011682018060405250810190611d659190614c0d565b101561269d565b611daa5760405162461bcd60e51b815260206004820152600f60248201526e4e6f7420656e6f756768204c494e4b60881b6044820152606401610bcb565b6101135460405163a9059cbb60e01b8152336004820152602481018390526101009091046001600160a01b03169063a9059cbb906044016020604051808303816000875af1158015611e00573d6000803e3d6000fd5b505050506040513d601f19601f82011682018060405250810190611e249190614c26565b611e635760405162461bcd60e51b815260206004820152601060248201526f2a3930b739b332b9103330b4b632b21760811b6044820152606401610bcb565b50600160c955565b6000611e778383612c86565b61010b546001600160a01b039182169116149392505050565b6000611ea8610100544210156101015442111561269d565b905090565b600080611eb86126b0565b61010154421015611f0b5760405162461bcd60e51b815260206004820152601c60248201527f5075626c69632073616c65206973206e6f742079657420656e646564000000006044820152606401610bcb565b6101165460ff1615611f5f5760405162461bcd60e51b815260206004820152601e60248201527f416c7265616479206f627461696e65642072616e646f6d206e756d62657200006044820152606401610bcb565b61011754610113546040516370a0823160e01b81523060048201526101009091046001600160a01b0316906370a0823190602401602060405180830381865afa158015611fb0573d6000803e3d6000fd5b505050506040513d601f19601f82011682018060405250810190611fd49190614c0d565b10156120155760405162461bcd60e51b815260206004820152601060248201526f4c494e4b2042616c616e63653e66656560801b6044820152606401610bcb565b6101195461011754439161202891612ca2565b61011a81905560405133907ffb9e6931d074560e7cb254d248daf84079f54f66558a6ba8b9eccb9442a642ce90600090a361011a54925090509091565b61206d6126b0565b6001600160a01b0381166120ad5760405162461bcd60e51b815260206004820152600760248201526610b9b4b3b732b960c91b6044820152606401610bcb565b61010b80546001600160a01b0319166001600160a01b0392909216919091179055565b610114546001600160a01b0316331461212b5760405162461bcd60e51b815260206004820152601f60248201527f4f6e6c7920565246436f6f7264696e61746f722063616e2066756c66696c6c006044820152606401610bcb565b610eb08282612de6565b60fc8054610c5c90614822565b61214a6126b0565b6121526128d6565b61215b81610d64565b60008060008060005b85518110156122d457610109600087838151811061218457612184614911565b60200260200101516001600160a01b03166001600160a01b0316815260200190815260200160002054945061271061010e548602816121c5576121c561495e565b049150600061010960008884815181106121e1576121e1614911565b60200260200101516001600160a01b03166001600160a01b0316815260200190815260200160002081905550600086828151811061222157612221614911565b60200260200101516001600160a01b0316838761223e919061498a565b604051600081818185875af1925050503d806000811461227a576040519150601f19603f3d011682016040523d82523d6000602084013e61227f565b606091505b50509050806122c35760405162461bcd60e51b815260206004820152601060248201526f2a3930b739b332b9103330b4b632b21760811b6044820152606401610bcb565b509284019291810191600101612164565b5061010a8054849003905581156117d85761010c546040516000916001600160a01b03169084908381818185875af1925050503d8060008114612333576040519150601f19603f3d011682016040523d82523d6000602084013e612338565b606091505b50509050806123595760405162461bcd60e51b8152600401610bcb9061499d565b5061010f8054830190555050505050565b60fd8054610c5c90614822565b610eb0338383612e3a565b600161011054146123a55760405162461bcd60e51b8152600401610bcb90614c43565b6123ad6126b0565b6101135460ff161561240d5760405162461bcd60e51b8152602060048201526024808201527f41697264726f703a20496e76616c696420616374696f6e2061667465722072656044820152631d99585b60e21b6064820152608401610bcb565b612418838383612f1a565b505050565b61010d546001600160a01b031633146124605760405162461bcd60e51b8152602060048201526005602482015264042c2eae8d60db1b6044820152606401610bcb565b61010e9190915561010c80546001600160a01b0319166001600160a01b03909216919091179055565b61249584848484612f75565b50505050565b61010d546001600160a01b031633146124de5760405162461bcd60e51b8152602060048201526005602482015264042c2eae8d60db1b6044820152606401610bcb565b61011054156125225760405162461bcd60e51b815260206004820152601060248201526f185b1c9958591e48185c1c1c9bdd995960821b6044820152606401610bcb565b600161011055565b6125326126b0565b611a36816130aa565b6101048054610c5c90614822565b6125516126b0565b6125596128d6565b6101165460ff166125ac5760405162461bcd60e51b815260206004820152601c60248201527f72616e646f6d206e756d62657220746f2062652061737369676e6564000000006044820152606401610bcb565b6125326130fa565b6101165460009060ff166125da5760405162461bcd60e51b8152600401610bcb90614c66565b506101185490565b6001600160a01b0385163314806125fe57506125fe8533610a9a565b61261a5760405162461bcd60e51b8152600401610bcb90614b02565b6117d8858585858561318b565b61262f6126b0565b6001600160a01b0381166126945760405162461bcd60e51b815260206004820152602660248201527f4f776e61626c653a206e6577206f776e657220697320746865207a65726f206160448201526564647265737360d01b6064820152608401610bcb565b611a3681612c34565b60008280156126a95750815b9392505050565b6097546001600160a01b03163314611cba5760405162461bcd60e51b815260206004820181905260248201527f4f776e61626c653a2063616c6c6572206973206e6f7420746865206f776e65726044820152606401610bcb565b6060816000036127315750506040805180820190915260018152600360fc1b602082015290565b8160005b811561275b578061274581614bf4565b91506127549050600a83614cb2565b9150612735565b6000816001600160401b0381111561277557612775613f81565b6040519080825280601f01601f19166020018201604052801561279f576020820181803683370190505b5090505b841561280a576127b460018361498a565b91506127c1600a86614cc6565b6127cc906030614aef565b60f81b8183815181106127e1576127e1614911565b60200101906001600160f81b031916908160001a905350612803600a86614cb2565b94506127a3565b949350505050565b600054610100900460ff166128395760405162461bcd60e51b8152600401610bcb90614cda565b611a36816132b9565b600054610100900460ff166128695760405162461bcd60e51b8152600401610bcb90614cda565b611cba6132e9565b600054610100900460ff166128985760405162461bcd60e51b8152600401610bcb90614cda565b61011480546001600160a01b039384166001600160a01b031990911617905561011380549190921661010002610100600160a81b0319909116179055565b61010154421015611cba5760405162461bcd60e51b815260206004820152601960248201527f7075626c69632073616c65206e6f742079657420656e646564000000000000006044820152606401610bcb565b815183511461298b5760405162461bcd60e51b815260206004820152602860248201527f455243313135353a2069647320616e6420616d6f756e7473206c656e677468206044820152670dad2e6dac2e8c6d60c31b6064820152608401610bcb565b6001600160a01b0384166129b15760405162461bcd60e51b8152600401610bcb90614d25565b3360005b8451811015612a9b5760008582815181106129d2576129d2614911565b6020026020010151905060008583815181106129f0576129f0614911565b60209081029190910181015160008481526065835260408082206001600160a01b038e168352909352919091205490915081811015612a415760405162461bcd60e51b8152600401610bcb90614d6a565b60008381526065602090815260408083206001600160a01b038e8116855292528083208585039055908b16825281208054849290612a80908490614aef565b9250508190555050505080612a9490614bf4565b90506129b5565b50846001600160a01b0316866001600160a01b0316826001600160a01b03167f4a39dc06d4c0dbc64b70af90fd698a233a518aa5d07e595d983b8c0526c8f7fb8787604051612aeb929190614db4565b60405180910390a4612b01818787878787613319565b505050505050565b60016101105414612b2c5760405162461bcd60e51b8152600401610bcb90614c43565b612b3461347d565b612b3d816134c8565b612b473382613626565b3360009081526101086020526040902080549091019055565b60008082118015612b73575060fe548211155b612bb25760405162461bcd60e51b815260206004820152601060248201526f125b9d985b1a59081d1bdad95b88125960821b6044820152606401610bcb565b6101165460ff16612bd55760405162461bcd60e51b8152600401610bcb90614c66565b60006201b20f61011854612be99190614cc6565b612bf6846201b20f614de2565b612c009190614aef565b905060fe5481612c109190614cc6565b905080600003610bf9575060fe5492915050565b600082806126a957509092915050565b609780546001600160a01b038381166001600160a01b0319831681179093556040519116919082907f8be0079c531659141344cd1fd0a4f28419497f9722a3daafe3b4186f6b6457e090600090a35050565b6000806000612c95858561367d565b91509150611a25816136eb565b6101135461011454604080516020810186905260008183018190528251808303840181526060830193849052630200057560e51b909352936001600160a01b03610100909104811693634000aea093612d05939290911691879190606401614df9565b6020604051808303816000875af1158015612d24573d6000803e3d6000fd5b505050506040513d601f19601f82011682018060405250810190612d489190614c26565b5060008381526101156020818152604080842054815180840189905280830186905230606082015260808082018390528351808303909101815260a090910190925281519183019190912093879052919052612da5906001614aef565b6000858152610115602052604090205561280a8482604080516020808201949094528082019290925280518083038201815260609092019052805191012090565b610118819055610116805460ff1916600117905560405182907ffb6cd07fbeb11b44106860d622b9f060079f790fa9ee013da16efb6e9b5b167f90612e2e9084815260200190565b60405180910390a25050565b816001600160a01b0316836001600160a01b031603612ead5760405162461bcd60e51b815260206004820152602960248201527f455243313135353a2073657474696e6720617070726f76616c20737461747573604482015268103337b91039b2b63360b91b6064820152608401610bcb565b6001600160a01b03838116600081815260666020908152604080832094871680845294825291829020805460ff191686151590811790915591519182527f17307eab39ab6107e8899845ad3d59bd9653f200f220920489ca2b5937696c31910160405180910390a3505050565b612f226138a1565b803515612f6a5760405162461bcd60e51b815260206004820152601660248201527541697264726f703a496e76616c69642073686172657360501b6044820152606401610bcb565b6124188383836138f8565b60016101105414612f985760405162461bcd60e51b8152600401610bcb90614c43565b612fa061347d565b6001600160a01b038316612fde5760405162461bcd60e51b815260206004820152600560248201526410bab9b2b960d91b6044820152606401610bcb565b6000612feb33858561187a565b9050612ff78183611e6b565b6130375760405162461bcd60e51b8152602060048201526011602482015270696e76616c69642d7369676e617475726560781b6044820152606401610bcb565b613040856134c8565b61304a3386613626565b5050610103805484019055610105546001600160a01b0392909216600090815261010960209081526040808320805460649590960287029490940494850190935561010a8054909401909355338152610108909252902080549091019055565b6130b381613a97565b60fd6130bf8282614a30565b507f3d7a9962f6da134f6896430d6867bd08e3546dbf9570df877e7cec39ba4305f0816040516130ef9190613f6e565b60405180910390a150565b6101135460ff16156131415760405162461bcd60e51b815260206004820152601060248201526f105b1c9958591e481c995d99585b195960821b6044820152606401610bcb565b610113805460ff191660011790556040517f5d9f916a9a2e7f5c0c1bc09b661f04bbc60a7f742cafa1e7f1a9a4db055c4d39906131819042815260200190565b60405180910390a1565b6001600160a01b0384166131b15760405162461bcd60e51b8152600401610bcb90614d25565b3360006131bd85613aa3565b905060006131ca85613aa3565b905060008681526065602090815260408083206001600160a01b038c1684529091529020548581101561320f5760405162461bcd60e51b8152600401610bcb90614d6a565b60008781526065602090815260408083206001600160a01b038d8116855292528083208985039055908a1682528120805488929061324e908490614aef565b909155505060408051888152602081018890526001600160a01b03808b16928c821692918816917fc3d58168c5ae7397731d063d5bbf3d657854427343f4c083240f7aacaa2d0f62910160405180910390a46132ae848a8a8a8a8a613aee565b505050505050505050565b600054610100900460ff166132e05760405162461bcd60e51b8152600401610bcb90614cda565b611a3681613a97565b600054610100900460ff166133105760405162461bcd60e51b8152600401610bcb90614cda565b611cba33612c34565b6001600160a01b0384163b15612b015760405163bc197c8160e01b81526001600160a01b0385169063bc197c819061335d9089908990889088908890600401614e20565b6020604051808303816000875af1925050508015613398575060408051601f3d908101601f1916820190925261339591810190614e7e565b60015b613444576133a4614e9b565b806308c379a0036133dd57506133b8614eb7565b806133c357506133df565b8060405162461bcd60e51b8152600401610bcb9190613f6e565b505b60405162461bcd60e51b815260206004820152603460248201527f455243313135353a207472616e7366657220746f206e6f6e20455243313135356044820152732932b1b2b4bb32b91034b6b83632b6b2b73a32b960611b6064820152608401610bcb565b6001600160e01b0319811663bc197c8160e01b146134745760405162461bcd60e51b8152600401610bcb90614f40565b50505050505050565b613485611e90565b611cba5760405162461bcd60e51b81526020600482015260146024820152735075626c69632053616c652d6e6f74206c69766560601b6044820152606401610bcb565b6134db600082116101065483111561269d565b6135205760405162461bcd60e51b8152602060048201526016602482015275496e76616c696420546f6b656e205175616e7469747960501b6044820152606401610bcb565b610102548160fe5401111561356c5760405162461bcd60e51b815260206004820152601260248201527132bc31b2b2b21036b0bc1039bab838363c9760711b6044820152606401610bcb565b3481610105540211156135c15760405162461bcd60e51b815260206004820152601760248201527f706179206d696e696d756d20746f6b656e2070726963650000000000000000006044820152606401610bcb565b61010754336000908152610108602052604090205482011115611a365760405162461bcd60e51b815260206004820152601c60248201527f657863656564206d6178696d756d20616c6c6f776564206c696d6974000000006044820152606401610bcb565b6000805b828110156124955761363a613ba9565b915061364860fe5460010190565b60fe819055506136758483600160405180604001604052806002815260200161060f60f31b815250613c09565b60010161362a565b60008082516041036136b35760208301516040840151606085015160001a6136a787828585613d16565b945094505050506136e4565b82516040036136dc57602083015160408401516136d1868383613e03565b9350935050506136e4565b506000905060025b9250929050565b60008160048111156136ff576136ff614f88565b036137075750565b600181600481111561371b5761371b614f88565b036137685760405162461bcd60e51b815260206004820152601860248201527f45434453413a20696e76616c6964207369676e617475726500000000000000006044820152606401610bcb565b600281600481111561377c5761377c614f88565b036137c95760405162461bcd60e51b815260206004820152601f60248201527f45434453413a20696e76616c6964207369676e6174757265206c656e677468006044820152606401610bcb565b60038160048111156137dd576137dd614f88565b036138355760405162461bcd60e51b815260206004820152602260248201527f45434453413a20696e76616c6964207369676e6174757265202773272076616c604482015261756560f01b6064820152608401610bcb565b600481600481111561384957613849614f88565b03611a365760405162461bcd60e51b815260206004820152602260248201527f45434453413a20696e76616c6964207369676e6174757265202776272076616c604482015261756560f01b6064820152608401610bcb565b6138b5610100544210610101544211612c24565b611cba5760405162461bcd60e51b815260206004820152601460248201527341697264726f703a496e76616c69642054696d6560601b6044820152606401610bcb565b8161390e8115158335602085013501831461269d565b61395a5760405162461bcd60e51b815260206004820152601760248201527f41697264726f703a204d69736d617463682d496e7075740000000000000000006044820152606401610bcb565b6101025460fe54820111156139b15760405162461bcd60e51b815260206004820152601b60248201527f41697264726f703a2065786365656473206d617820537570706c7900000000006044820152606401610bcb565b60005b818110156117d85760008585838181106139d0576139d0614911565b90506020020160208101906139e591906145c5565b6001600160a01b031603613a2f5760405162461bcd60e51b8152602060048201526011602482015270125b9d985b1a59081c9958da5c1a595b9d607a1b6044820152606401610bcb565b613a37613e3c565b60fe5460010160fe55613a8f858583818110613a5557613a55614911565b9050602002016020810190613a6a91906145c5565b60ff54600160405180604001604052806002815260200161060f60f31b815250613c09565b6001016139b4565b6067610eb08282614a30565b60408051600180825281830190925260609160009190602080830190803683370190505090508281600081518110613add57613add614911565b602090810291909101015292915050565b6001600160a01b0384163b15612b015760405163f23a6e6160e01b81526001600160a01b0385169063f23a6e6190613b329089908990889088908890600401614f9e565b6020604051808303816000875af1925050508015613b6d575060408051601f3d908101601f19168201909252613b6a91810190614e7e565b60015b613b79576133a4614e9b565b6001600160e01b0319811663f23a6e6160e01b146134745760405162461bcd60e51b8152600401610bcb90614f40565b60006101025460fe541115613bf45760405162461bcd60e51b8152602060048201526011602482015270657863656564206d617820537570706c7960781b6044820152606401610bcb565b613c0260ff80546001019055565b5060ff5490565b6001600160a01b038416613c695760405162461bcd60e51b815260206004820152602160248201527f455243313135353a206d696e7420746f20746865207a65726f206164647265736044820152607360f81b6064820152608401610bcb565b336000613c7585613aa3565b90506000613c8285613aa3565b905060008681526065602090815260408083206001600160a01b038b16845290915281208054879290613cb6908490614aef565b909155505060408051878152602081018790526001600160a01b03808a1692600092918716917fc3d58168c5ae7397731d063d5bbf3d657854427343f4c083240f7aacaa2d0f62910160405180910390a461347483600089898989613aee565b6000807f7fffffffffffffffffffffffffffffff5d576e7357a4501ddfe92f46681b20a0831115613d4d5750600090506003613dfa565b8460ff16601b14158015613d6557508460ff16601c14155b15613d765750600090506004613dfa565b6040805160008082526020820180845289905260ff881692820192909252606081018690526080810185905260019060a0016020604051602081039080840390855afa158015613dca573d6000803e3d6000fd5b5050604051601f1901519150506001600160a01b038116613df357600060019250925050613dfa565b9150600090505b94509492505050565b6000806001600160ff1b03831681613e2060ff86901c601b614aef565b9050613e2e87828885613d16565b935093505050935093915050565b613e556101025460fe5411156101025460ff541061269d565b613e975760405162461bcd60e51b8152602060048201526013602482015272105b1b0815985b1d595cc8185cdcda59db9959606a1b6044820152606401610bcb565b611cba60ff80546001019055565b80356001600160a01b0381168114613ebc57600080fd5b919050565b60008060408385031215613ed457600080fd5b613edd83613ea5565b946020939093013593505050565b6001600160e01b031981168114611a3657600080fd5b600060208284031215613f1357600080fd5b81356126a981613eeb565b60005b83811015613f39578181015183820152602001613f21565b50506000910152565b60008151808452613f5a816020860160208601613f1e565b601f01601f19169290920160200192915050565b6020815260006126a96020830184613f42565b634e487b7160e01b600052604160045260246000fd5b601f8201601f191681016001600160401b0381118282101715613fbc57613fbc613f81565b6040525050565b60006001600160401b03821115613fdc57613fdc613f81565b5060051b60200190565b600082601f830112613ff757600080fd5b8135602061400482613fc3565b6040516140118282613f97565b83815260059390931b850182019282810191508684111561403157600080fd5b8286015b848110156140535761404681613ea5565b8352918301918301614035565b509695505050505050565b60006020828403121561407057600080fd5b81356001600160401b0381111561408657600080fd5b61280a84828501613fe6565b6000602082840312156140a457600080fd5b5035919050565b600082601f8301126140bc57600080fd5b81356001600160401b038111156140d5576140d5613f81565b6040516140ec601f8301601f191660200182613f97565b81815284602083860101111561410157600080fd5b816020850160208301376000918101602001919091529392505050565b600060a0828403121561413057600080fd5b60405160a081018181106001600160401b038211171561415257614152613f81565b806040525080915082358152602083013560208201526040830135604082015260608301356060820152608083013560808201525092915050565b60006080828403121561419f57600080fd5b604051608081018181106001600160401b03821117156141c1576141c1613f81565b6040529050806141d083613ea5565b81526141de60208401613ea5565b602082015260408301356040820152606083013560608201525092915050565b60008060008060008060008060006102008a8c03121561421d57600080fd5b89356001600160401b038082111561423457600080fd5b6142408d838e016140ab565b9a5060208c013591508082111561425657600080fd5b6142628d838e016140ab565b995060408c013591508082111561427857600080fd5b6142848d838e016140ab565b985060608c013591508082111561429a57600080fd5b6142a68d838e016140ab565b975060808c0135965060a08c01359150808211156142c357600080fd5b506142d08c828d016140ab565b9450506142e08b60c08c0161411e565b92506142ef6101608b01613ea5565b91506142ff8b6101808c0161418d565b90509295985092959850929598565b600082601f83011261431f57600080fd5b8135602061432c82613fc3565b6040516143398282613f97565b83815260059390931b850182019282810191508684111561435957600080fd5b8286015b84811015614053578035835291830191830161435d565b600080600080600060a0868803121561438c57600080fd5b61439586613ea5565b94506143a360208701613ea5565b935060408601356001600160401b03808211156143bf57600080fd5b6143cb89838a0161430e565b945060608801359150808211156143e157600080fd5b6143ed89838a0161430e565b9350608088013591508082111561440357600080fd5b50614410888289016140ab565b9150509295509295909350565b6000806000806080858703121561443357600080fd5b61443c85613ea5565b93506020850135925061445160408601613ea5565b9396929550929360600135925050565b60008060006060848603121561447657600080fd5b61447f84613ea5565b925061448d60208501613ea5565b9150604084013590509250925092565b600080604083850312156144b057600080fd5b82356001600160401b03808211156144c757600080fd5b6144d386838701613fe6565b935060208501359150808211156144e957600080fd5b506144f68582860161430e565b9150509250929050565b600081518084526020808501945080840160005b8381101561453057815187529582019590820190600101614514565b509495945050505050565b6020815260006126a96020830184614500565b600080600080600060a0868803121561456657600080fd5b505083359560208501359550604085013594606081013594506080013592509050565b6000806040838503121561459c57600080fd5b8235915060208301356001600160401b038111156145b957600080fd5b6144f6858286016140ab565b6000602082840312156145d757600080fd5b6126a982613ea5565b600080604083850312156145f357600080fd5b50508035926020909101359150565b8015158114611a3657600080fd5b6000806040838503121561462357600080fd5b61462c83613ea5565b9150602083013561463c81614602565b809150509250929050565b60008060006060848603121561465c57600080fd5b83356001600160401b038082111561467357600080fd5b818601915086601f83011261468757600080fd5b81358181111561469657600080fd5b8760208260051b85010111156146ab57600080fd5b602083019550809450505050846060850111156146c757600080fd5b6020840190509250925092565b600080604083850312156146e757600080fd5b823591506146f760208401613ea5565b90509250929050565b6000806000806080858703121561471657600080fd5b8435935061472660208601613ea5565b92506040850135915060608501356001600160401b0381111561474857600080fd5b614754878288016140ab565b91505092959194509250565b60006020828403121561477257600080fd5b81356001600160401b0381111561478857600080fd5b61280a848285016140ab565b600080604083850312156147a757600080fd5b6147b083613ea5565b91506146f760208401613ea5565b600080600080600060a086880312156147d657600080fd5b6147df86613ea5565b94506147ed60208701613ea5565b9350604086013592506060860135915060808601356001600160401b0381111561481657600080fd5b614410888289016140ab565b600181811c9082168061483657607f821691505b60208210810361485657634e487b7160e01b600052602260045260246000fd5b50919050565b6000815461486981614822565b600182811680156148815760018114614896576148c5565b60ff19841687528215158302870194506148c5565b8560005260208060002060005b858110156148bc5781548a8201529084019082016148a3565b50505082870194505b5050505092915050565b60006001600160601b0319808860601b1683528660148401528560348401526148fb605484018661485c565b60609490941b1683525050601401949350505050565b634e487b7160e01b600052603260045260246000fd5b6020808252601f908201527f5265656e7472616e637947756172643a207265656e7472616e742063616c6c00604082015260600190565b634e487b7160e01b600052601260045260246000fd5b634e487b7160e01b600052601160045260246000fd5b81810381811115610bf957610bf9614974565b6020808252600e908201526d2332b29d2a3c103330b4b632b21760911b604082015260600190565b60006149d1828561485c565b83516149e1818360208801613f1e565b01949350505050565b601f82111561241857600081815260208120601f850160051c81016020861015614a115750805b601f850160051c820191505b81811015612b0157828155600101614a1d565b81516001600160401b03811115614a4957614a49613f81565b614a5d81614a578454614822565b846149ea565b602080601f831160018114614a925760008415614a7a5750858301515b600019600386901b1c1916600185901b178555612b01565b600085815260208120601f198616915b82811015614ac157888601518255948401946001909101908401614aa2565b5085821015614adf5787850151600019600388901b60f8161c191681555b5050505050600190811b01905550565b80820180821115610bf957610bf9614974565b6020808252602f908201527f455243313135353a2063616c6c6572206973206e6f7420746f6b656e206f776e60408201526e195c881b9bdc88185c1c1c9bdd9959608a1b606082015260800190565b60006001600160601b0319808a60601b168352886014840152876034840152808760601b166054840152856068840152614b8e608884018661485c565b60609490941b16835250506014019695505050505050565b60006001600160601b0319808960601b168352876014840152808760601b166034840152856048840152614bdd606884018661485c565b60609490941b168352505060140195945050505050565b600060018201614c0657614c06614974565b5060010190565b600060208284031215614c1f57600080fd5b5051919050565b600060208284031215614c3857600080fd5b81516126a981614602565b60208082526009908201526808585c1c1c9bdd995960ba1b604082015260600190565b6020808252602c908201527f506c65617365207761697420666f722072616e646f6d206e756d62657220746f60408201526b08189948185cdcda59db995960a21b606082015260800190565b600082614cc157614cc161495e565b500490565b600082614cd557614cd561495e565b500690565b6020808252602b908201527f496e697469616c697a61626c653a20636f6e7472616374206973206e6f74206960408201526a6e697469616c697a696e6760a81b606082015260800190565b60208082526025908201527f455243313135353a207472616e7366657220746f20746865207a65726f206164604082015264647265737360d81b606082015260800190565b6020808252602a908201527f455243313135353a20696e73756666696369656e742062616c616e636520666f60408201526939103a3930b739b332b960b11b606082015260800190565b604081526000614dc76040830185614500565b8281036020840152614dd98185614500565b95945050505050565b8082028115828204841417610bf957610bf9614974565b60018060a01b0384168152826020820152606060408201526000614dd96060830184613f42565b6001600160a01b0386811682528516602082015260a060408201819052600090614e4c90830186614500565b8281036060840152614e5e8186614500565b90508281036080840152614e728185613f42565b98975050505050505050565b600060208284031215614e9057600080fd5b81516126a981613eeb565b600060033d1115614eb45760046000803e5060005160e01c5b90565b600060443d1015614ec55790565b6040516003193d81016004833e81513d6001600160401b038160248401118184111715614ef457505050505090565b8285019150815181811115614f0c5750505050505090565b843d8701016020828501011115614f265750505050505090565b614f3560208286010187613f97565b509095945050505050565b60208082526028908201527f455243313135353a204552433131353552656365697665722072656a656374656040820152676420746f6b656e7360c01b606082015260800190565b634e487b7160e01b600052602160045260246000fd5b6001600160a01b03868116825285166020820152604081018490526060810183905260a060808201819052600090614fd890830184613f42565b97965050505050505056fea264697066735822122015f9a3cc31586d58b9427945da7eeab9d3568d301949b6b9a6757e7981bcb2ce64736f6c63430008110033",
  "linkReferences": {},
  "deployedLinkReferences": {}
}