{
  "address": "0x47eAD9514474081A65345694bE885349bf441c37",
  "abi": [
    {
      "anonymous": false,
      "inputs": [
        {
          "indexed": true,
          "internalType": "address",
          "name": "previousOwner",
          "type": "address"
        },
        {
          "indexed": true,
          "internalType": "address",
          "name": "newOwner",
          "type": "address"
        }
      ],
      "name": "OwnershipTransferred",
      "type": "event"
    },
    {
      "inputs": [],
      "name": "__OperatorRole_init",
      "outputs": [],
      "stateMutability": "nonpayable",
      "type": "function"
    },
    {
      "inputs": [
        {
          "internalType": "address",
          "name": "operator",
          "type": "address"
        }
      ],
      "name": "addOperator",
      "outputs": [],
      "stateMutability": "nonpayable",
      "type": "function"
    },
    {
      "inputs": [],
      "name": "owner",
      "outputs": [
        {
          "internalType": "address",
          "name": "",
          "type": "address"
        }
      ],
      "stateMutability": "view",
      "type": "function"
    },
    {
      "inputs": [
        {
          "internalType": "address",
          "name": "operator",
          "type": "address"
        }
      ],
      "name": "removeOperator",
      "outputs": [],
      "stateMutability": "nonpayable",
      "type": "function"
    },
    {
      "inputs": [],
      "name": "renounceOwnership",
      "outputs": [],
      "stateMutability": "nonpayable",
      "type": "function"
    },
    {
      "inputs": [
        {
          "components": [
            {
              "components": [
                {
                  "internalType": "bytes4",
                  "name": "assetClass",
                  "type": "bytes4"
                },
                {
                  "internalType": "bytes",
                  "name": "data",
                  "type": "bytes"
                }
              ],
              "internalType": "struct LibAsset.AssetType",
              "name": "assetType",
              "type": "tuple"
            },
            {
              "internalType": "uint256",
              "name": "value",
              "type": "uint256"
            }
          ],
          "internalType": "struct LibAsset.Asset",
          "name": "asset",
          "type": "tuple"
        },
        {
          "internalType": "address",
          "name": "from",
          "type": "address"
        },
        {
          "internalType": "address",
          "name": "to",
          "type": "address"
        }
      ],
      "name": "transfer",
      "outputs": [],
      "stateMutability": "nonpayable",
      "type": "function"
    },
    {
      "inputs": [
        {
          "internalType": "address",
          "name": "newOwner",
          "type": "address"
        }
      ],
      "name": "transferOwnership",
      "outputs": [],
      "stateMutability": "nonpayable",
      "type": "function"
    }
  ],
  "transactionHash": "0x5b9955c8399e6f679ff0ceb57ce2b4d66ecc017eacd2bd107b2050e439309be4",
  "args": [],
  "numDeployments": 1,
  "solcInputHash": "98e834214e4504b01cb1b5733ec8c355",
  "bytecode": "0x608060405234801561001057600080fd5b50610dfe806100206000396000f3fe608060405234801561001057600080fd5b506004361061006d5760003560e01c80632ff26a0a1461007257806354bc0cf11461007c578063715018a61461008f5780638da5cb5b146100975780639870d7fe146100b5578063ac8a584a146100c8578063f2fde38b146100db575b600080fd5b61007a6100ee565b005b61007a61008a366004610992565b6101a0565b61007a610296565b61009f610330565b6040516100ac9190610b56565b60405180910390f35b61007a6100c3366004610878565b61033f565b61007a6100d6366004610878565b6103c5565b61007a6100e9366004610878565b610448565b600054610100900460ff16806101075750610107610539565b80610115575060005460ff16155b6101505760405162461bcd60e51b815260040180806020018281038252602e815260200180610d33602e913960400191505060405180910390fd5b600054610100900460ff1615801561017b576000805460ff1961ff0019909116610100171660011790555b61018361054a565b61018b6105ea565b801561019d576000805461ff00191690555b50565b606560006101ac6106d1565b6001600160a01b0316815260208101919091526040016000205460ff166102045760405162461bcd60e51b8152600401808060200182810382526028815260200180610da16028913960400191505060405180910390fd5b6000808460000151602001518060200190518101906102239190610894565b91509150816001600160a01b031663ffc4e0a782868689602001516040518563ffffffff1660e01b815260040161025d9493929190610b6a565b600060405180830381600087803b15801561027757600080fd5b505af115801561028b573d6000803e3d6000fd5b505050505050505050565b61029e6106d1565b6001600160a01b03166102af610330565b6001600160a01b0316146102f8576040805162461bcd60e51b81526020600482018190526024820152600080516020610d61833981519152604482015290519081900360640190fd5b6033546040516000916001600160a01b031690600080516020610d81833981519152908390a3603380546001600160a01b0319169055565b6033546001600160a01b031690565b6103476106d1565b6001600160a01b0316610358610330565b6001600160a01b0316146103a1576040805162461bcd60e51b81526020600482018190526024820152600080516020610d61833981519152604482015290519081900360640190fd5b6001600160a01b03166000908152606560205260409020805460ff19166001179055565b6103cd6106d1565b6001600160a01b03166103de610330565b6001600160a01b031614610427576040805162461bcd60e51b81526020600482018190526024820152600080516020610d61833981519152604482015290519081900360640190fd5b6001600160a01b03166000908152606560205260409020805460ff19169055565b6104506106d1565b6001600160a01b0316610461610330565b6001600160a01b0316146104aa576040805162461bcd60e51b81526020600482018190526024820152600080516020610d61833981519152604482015290519081900360640190fd5b6001600160a01b0381166104ef5760405162461bcd60e51b8152600401808060200182810382526026815260200180610d0d6026913960400191505060405180910390fd5b6033546040516001600160a01b03808416921690600080516020610d8183398151915290600090a3603380546001600160a01b0319166001600160a01b0392909216919091179055565b6000610544306106d5565b15905090565b600054610100900460ff16806105635750610563610539565b80610571575060005460ff16155b6105ac5760405162461bcd60e51b815260040180806020018281038252602e815260200180610d33602e913960400191505060405180910390fd5b600054610100900460ff1615801561018b576000805460ff1961ff001990911661010017166001179055801561019d576000805461ff001916905550565b600054610100900460ff16806106035750610603610539565b80610611575060005460ff16155b61064c5760405162461bcd60e51b815260040180806020018281038252602e815260200180610d33602e913960400191505060405180910390fd5b600054610100900460ff16158015610677576000805460ff1961ff0019909116610100171660011790555b60006106816106d1565b603380546001600160a01b0319166001600160a01b03831690811790915560405191925090600090600080516020610d81833981519152908290a350801561019d576000805461ff001916905550565b3390565b803b15155b919050565b60006106f26106ed84610ca5565b610c63565b905082815283838301111561070657600080fd5b610714836020830184610cc7565b9392505050565b80356106da81610cf7565b600082601f830112610736578081fd5b815160206107466106ed83610c87565b82815281810190858301855b85811015610790578151880189603f82011261076c578788fd5b61077d8a87830151604084016106df565b8552509284019290840190600101610752565b5090979650505050505050565b600082601f8301126107ad578081fd5b815160206107bd6106ed83610c87565b828152818101908583016040808602880185018910156107db578687fd5b865b8681101561084b5781838b0312156107f3578788fd5b815182810181811067ffffffffffffffff8211171561080e57fe5b8352835161081b81610cf7565b8152838701516001600160601b038116811461083557898afd5b81880152855293850193918101916001016107dd565b509198975050505050505050565b600082601f830112610869578081fd5b610714838351602085016106df565b600060208284031215610889578081fd5b813561071481610cf7565b600080604083850312156108a6578081fd5b82516108b181610cf7565b602084015190925067ffffffffffffffff808211156108ce578283fd5b9084019060c082870312156108e1578283fd5b6108eb60c0610c63565b82518152602083015182811115610900578485fd5b61090c88828601610859565b6020830152506040830151604082015260608301518281111561092d578485fd5b6109398882860161079d565b606083015250608083015182811115610950578485fd5b61095c8882860161079d565b60808301525060a083015182811115610973578485fd5b61097f88828601610726565b60a0830152508093505050509250929050565b6000806000606084860312156109a6578081fd5b833567ffffffffffffffff808211156109bd578283fd5b818601915060408083890312156109d2578384fd5b805181810181811084821117156109e557fe5b8083528435848111156109f6578687fd5b8501808b03841315610a06578687fd5b608083018281108682111715610a1857fe5b845280356001600160e01b031981168114610a31578788fd5b825260208181013586811115610a45578889fd5b82019550601f86018c13610a57578788fd5b85359150610a676106ed83610ca5565b8281528c82848901011115610a7a578889fd5b828288018383013788828483010152806060860152508284528087013581850152839950610aa9818c0161071b565b985050505050610aba81880161071b565b93505050509250925092565b6001600160a01b03169052565b6000815180845260208085019450808401835b83811015610b1f57815180516001600160a01b031688528301516001600160601b03168388015260409096019590820190600101610ae6565b509495945050505050565b60008151808452610b42816020860160208601610cc7565b601f01601f19169290920160200192915050565b6001600160a01b0391909116815260200190565b6000608082528551608083015260208087015160c060a0850152610b92610140850182610b2a565b9050604088015160c08501526060880151607f19808684030160e0870152610bba8383610ad3565b925060808a015191508086840301610100870152610bd88383610ad3565b60a08b0151878203909201610120880152815180825290935090840191508383019084810284018501865b82811015610c3157601f19868303018452610c1f828651610b2a565b94870194938701939150600101610c03565b508096505050505050610c4681840187610ac6565b50610c546040830185610ac6565b82606083015295945050505050565b60405181810167ffffffffffffffff81118282101715610c7f57fe5b604052919050565b600067ffffffffffffffff821115610c9b57fe5b5060209081020190565b600067ffffffffffffffff821115610cb957fe5b50601f01601f191660200190565b60005b83811015610ce2578181015183820152602001610cca565b83811115610cf1576000848401525b50505050565b6001600160a01b038116811461019d57600080fdfe4f776e61626c653a206e6577206f776e657220697320746865207a65726f2061646472657373496e697469616c697a61626c653a20636f6e747261637420697320616c726561647920696e697469616c697a65644f776e61626c653a2063616c6c6572206973206e6f7420746865206f776e65728be0079c531659141344cd1fd0a4f28419497f9722a3daafe3b4186f6b6457e04f70657261746f72526f6c653a2063616c6c6572206973206e6f7420746865206f70657261746f72a26469706673582212204754460a76191db92d6e1f0d97dd2cecf91d48ea3641bba95475aefff1525e6c64736f6c63430007060033",
  "devdoc": {
    "kind": "dev",
    "methods": {
      "owner()": {
        "details": "Returns the address of the current owner."
      },
      "renounceOwnership()": {
        "details": "Leaves the contract without owner. It will not be possible to call `onlyOwner` functions anymore. Can only be called by the current owner. NOTE: Renouncing ownership will leave the contract without an owner, thereby removing any functionality that is only available to the owner."
      },
      "transferOwnership(address)": {
        "details": "Transfers ownership of the contract to a new account (`newOwner`). Can only be called by the current owner."
      }
    },
    "version": 1
  },
  "userdoc": {
    "kind": "user",
    "methods": {},
    "version": 1
  },
  "storageLayout": {
    "storage": [
      {
        "astId": 812,
        "contract": "@rarible/transfer-proxy/contracts/lazy-mint/erc1155/ERC1155LazyMintTransferProxy.sol:ERC1155LazyMintTransferProxy",
        "label": "_initialized",
        "offset": 0,
        "slot": "0",
        "type": "t_bool"
      },
      {
        "astId": 815,
        "contract": "@rarible/transfer-proxy/contracts/lazy-mint/erc1155/ERC1155LazyMintTransferProxy.sol:ERC1155LazyMintTransferProxy",
        "label": "_initializing",
        "offset": 1,
        "slot": "0",
        "type": "t_bool"
      },
      {
        "astId": 2697,
        "contract": "@rarible/transfer-proxy/contracts/lazy-mint/erc1155/ERC1155LazyMintTransferProxy.sol:ERC1155LazyMintTransferProxy",
        "label": "__gap",
        "offset": 0,
        "slot": "1",
        "type": "t_array(t_uint256)50_storage"
      },
      {
        "astId": 10,
        "contract": "@rarible/transfer-proxy/contracts/lazy-mint/erc1155/ERC1155LazyMintTransferProxy.sol:ERC1155LazyMintTransferProxy",
        "label": "_owner",
        "offset": 0,
        "slot": "51",
        "type": "t_address"
      },
      {
        "astId": 129,
        "contract": "@rarible/transfer-proxy/contracts/lazy-mint/erc1155/ERC1155LazyMintTransferProxy.sol:ERC1155LazyMintTransferProxy",
        "label": "__gap",
        "offset": 0,
        "slot": "52",
        "type": "t_array(t_uint256)49_storage"
      },
      {
        "astId": 9044,
        "contract": "@rarible/transfer-proxy/contracts/lazy-mint/erc1155/ERC1155LazyMintTransferProxy.sol:ERC1155LazyMintTransferProxy",
        "label": "operators",
        "offset": 0,
        "slot": "101",
        "type": "t_mapping(t_address,t_bool)"
      }
    ],
    "types": {
      "t_address": {
        "encoding": "inplace",
        "label": "address",
        "numberOfBytes": "20"
      },
      "t_array(t_uint256)49_storage": {
        "base": "t_uint256",
        "encoding": "inplace",
        "label": "uint256[49]",
        "numberOfBytes": "1568"
      },
      "t_array(t_uint256)50_storage": {
        "base": "t_uint256",
        "encoding": "inplace",
        "label": "uint256[50]",
        "numberOfBytes": "1600"
      },
      "t_bool": {
        "encoding": "inplace",
        "label": "bool",
        "numberOfBytes": "1"
      },
      "t_mapping(t_address,t_bool)": {
        "encoding": "mapping",
        "key": "t_address",
        "label": "mapping(address => bool)",
        "numberOfBytes": "32",
        "value": "t_bool"
      },
      "t_uint256": {
        "encoding": "inplace",
        "label": "uint256",
        "numberOfBytes": "32"
      }
    }
  }
}