{
  "address": "0xDb4B26F1839FD41d224da5a21763A56764D5f8cc",
  "abi": [
    {
      "anonymous": false,
      "inputs": [
        {
          "indexed": true,
          "internalType": "address",
          "name": "previousOwner",
          "type": "address"
        },
        {
          "indexed": true,
          "internalType": "address",
          "name": "newOwner",
          "type": "address"
        }
      ],
      "name": "OwnershipTransferred",
      "type": "event"
    },
    {
      "inputs": [],
      "name": "__OperatorRole_init",
      "outputs": [],
      "stateMutability": "nonpayable",
      "type": "function"
    },
    {
      "inputs": [
        {
          "internalType": "address",
          "name": "operator",
          "type": "address"
        }
      ],
      "name": "addOperator",
      "outputs": [],
      "stateMutability": "nonpayable",
      "type": "function"
    },
    {
      "inputs": [],
      "name": "owner",
      "outputs": [
        {
          "internalType": "address",
          "name": "",
          "type": "address"
        }
      ],
      "stateMutability": "view",
      "type": "function"
    },
    {
      "inputs": [
        {
          "internalType": "address",
          "name": "operator",
          "type": "address"
        }
      ],
      "name": "removeOperator",
      "outputs": [],
      "stateMutability": "nonpayable",
      "type": "function"
    },
    {
      "inputs": [],
      "name": "renounceOwnership",
      "outputs": [],
      "stateMutability": "nonpayable",
      "type": "function"
    },
    {
      "inputs": [
        {
          "components": [
            {
              "components": [
                {
                  "internalType": "bytes4",
                  "name": "assetClass",
                  "type": "bytes4"
                },
                {
                  "internalType": "bytes",
                  "name": "data",
                  "type": "bytes"
                }
              ],
              "internalType": "struct LibAsset.AssetType",
              "name": "assetType",
              "type": "tuple"
            },
            {
              "internalType": "uint256",
              "name": "value",
              "type": "uint256"
            }
          ],
          "internalType": "struct LibAsset.Asset",
          "name": "asset",
          "type": "tuple"
        },
        {
          "internalType": "address",
          "name": "from",
          "type": "address"
        },
        {
          "internalType": "address",
          "name": "to",
          "type": "address"
        }
      ],
      "name": "transfer",
      "outputs": [],
      "stateMutability": "nonpayable",
      "type": "function"
    },
    {
      "inputs": [
        {
          "internalType": "address",
          "name": "newOwner",
          "type": "address"
        }
      ],
      "name": "transferOwnership",
      "outputs": [],
      "stateMutability": "nonpayable",
      "type": "function"
    }
  ],
  "transactionHash": "0x46187739ca82880cce4ff0477b8e60bc3b3facf34248d2f68259442b2a311166",
  "args": [],
  "numDeployments": 1,
  "solcInputHash": "98e834214e4504b01cb1b5733ec8c355",
  "bytecode": "0x608060405234801561001057600080fd5b50610e35806100206000396000f3fe608060405234801561001057600080fd5b506004361061006d5760003560e01c80632ff26a0a1461007257806354bc0cf11461007c578063715018a61461008f5780638da5cb5b146100975780639870d7fe146100b5578063ac8a584a146100c8578063f2fde38b146100db575b600080fd5b61007a6100ee565b005b61007a61008a3660046109b0565b6101a0565b61007a6102be565b61009f610358565b6040516100ac9190610b74565b60405180910390f35b61007a6100c33660046108a0565b610367565b61007a6100d63660046108a0565b6103ed565b61007a6100e93660046108a0565b610470565b600054610100900460ff16806101075750610107610561565b80610115575060005460ff16155b6101505760405162461bcd60e51b815260040180806020018281038252602e815260200180610d6a602e913960400191505060405180910390fd5b600054610100900460ff1615801561017b576000805460ff1961ff0019909116610100171660011790555b610183610572565b61018b610612565b801561019d576000805461ff00191690555b50565b606560006101ac6106f9565b6001600160a01b0316815260208101919091526040016000205460ff166102045760405162461bcd60e51b8152600401808060200182810382526028815260200180610dd86028913960400191505060405180910390fd5b82602001516001146102315760405162461bcd60e51b815260040161022890610b88565b60405180910390fd5b60008084600001516020015180602001905181019061025091906108bc565b60405163832fbb2960e01b815291935091506001600160a01b0383169063832fbb299061028590849088908890600401610bb4565b600060405180830381600087803b15801561029f57600080fd5b505af11580156102b3573d6000803e3d6000fd5b505050505050505050565b6102c66106f9565b6001600160a01b03166102d7610358565b6001600160a01b031614610320576040805162461bcd60e51b81526020600482018190526024820152600080516020610d98833981519152604482015290519081900360640190fd5b6033546040516000916001600160a01b031690600080516020610db8833981519152908390a3603380546001600160a01b0319169055565b6033546001600160a01b031690565b61036f6106f9565b6001600160a01b0316610380610358565b6001600160a01b0316146103c9576040805162461bcd60e51b81526020600482018190526024820152600080516020610d98833981519152604482015290519081900360640190fd5b6001600160a01b03166000908152606560205260409020805460ff19166001179055565b6103f56106f9565b6001600160a01b0316610406610358565b6001600160a01b03161461044f576040805162461bcd60e51b81526020600482018190526024820152600080516020610d98833981519152604482015290519081900360640190fd5b6001600160a01b03166000908152606560205260409020805460ff19169055565b6104786106f9565b6001600160a01b0316610489610358565b6001600160a01b0316146104d2576040805162461bcd60e51b81526020600482018190526024820152600080516020610d98833981519152604482015290519081900360640190fd5b6001600160a01b0381166105175760405162461bcd60e51b8152600401808060200182810382526026815260200180610d446026913960400191505060405180910390fd5b6033546040516001600160a01b03808416921690600080516020610db883398151915290600090a3603380546001600160a01b0319166001600160a01b0392909216919091179055565b600061056c306106fd565b15905090565b600054610100900460ff168061058b575061058b610561565b80610599575060005460ff16155b6105d45760405162461bcd60e51b815260040180806020018281038252602e815260200180610d6a602e913960400191505060405180910390fd5b600054610100900460ff1615801561018b576000805460ff1961ff001990911661010017166001179055801561019d576000805461ff001916905550565b600054610100900460ff168061062b575061062b610561565b80610639575060005460ff16155b6106745760405162461bcd60e51b815260040180806020018281038252602e815260200180610d6a602e913960400191505060405180910390fd5b600054610100900460ff1615801561069f576000805460ff1961ff0019909116610100171660011790555b60006106a96106f9565b603380546001600160a01b0319166001600160a01b03831690811790915560405191925090600090600080516020610db8833981519152908290a350801561019d576000805461ff001916905550565b3390565b803b15155b919050565b600061071a61071584610cdc565b610c9a565b905082815283838301111561072e57600080fd5b61073c836020830184610cfe565b9392505050565b803561070281610d2e565b600082601f83011261075e578081fd5b8151602061076e61071583610cbe565b82815281810190858301855b858110156107b8578151880189603f820112610794578788fd5b6107a58a8783015160408401610707565b855250928401929084019060010161077a565b5090979650505050505050565b600082601f8301126107d5578081fd5b815160206107e561071583610cbe565b82815281810190858301604080860288018501891015610803578687fd5b865b868110156108735781838b03121561081b578788fd5b815182810181811067ffffffffffffffff8211171561083657fe5b8352835161084381610d2e565b8152838701516001600160601b038116811461085d57898afd5b8188015285529385019391810191600101610805565b509198975050505050505050565b600082601f830112610891578081fd5b61073c83835160208501610707565b6000602082840312156108b1578081fd5b813561073c81610d2e565b600080604083850312156108ce578081fd5b82516108d981610d2e565b602084015190925067ffffffffffffffff808211156108f6578283fd5b9084019060a08287031215610909578283fd5b61091360a0610c9a565b82518152602083015182811115610928578485fd5b61093488828601610881565b60208301525060408301518281111561094b578485fd5b610957888286016107c5565b60408301525060608301518281111561096e578485fd5b61097a888286016107c5565b606083015250608083015182811115610991578485fd5b61099d8882860161074e565b6080830152508093505050509250929050565b6000806000606084860312156109c4578081fd5b833567ffffffffffffffff808211156109db578283fd5b818601915060408083890312156109f0578384fd5b80518181018181108482111715610a0357fe5b808352843584811115610a14578687fd5b8501808b03841315610a24578687fd5b608083018281108682111715610a3657fe5b845280356001600160e01b031981168114610a4f578788fd5b825260208181013586811115610a63578889fd5b82019550601f86018c13610a75578788fd5b85359150610a8561071583610cdc565b8281528c82848901011115610a98578889fd5b828288018383013788828483010152806060860152508284528087013581850152839950610ac7818c01610743565b985050505050610ad8818801610743565b93505050509250925092565b6001600160a01b03169052565b6000815180845260208085019450808401835b83811015610b3d57815180516001600160a01b031688528301516001600160601b03168388015260409096019590820190600101610b04565b509495945050505050565b60008151808452610b60816020860160208601610cfe565b601f01601f19169290920160200192915050565b6001600160a01b0391909116815260200190565b60208082526012908201527132b9319b9918903b30b63ab29032b93937b960711b604082015260600190565b6000606082528451606083015260208086015160a06080850152610bdc610100850182610b48565b90506040870151605f19808684030160a0870152610bfa8383610af1565b925060608901519150808684030160c0870152610c178383610af1565b60808a015187820390920160e0880152815180825290935090840191508383019084810284018501865b82811015610c6f57601f19868303018452610c5d828651610b48565b94870194938701939150600101610c41565b508096505050505050610c8481840186610ae4565b50610c926040830184610ae4565b949350505050565b60405181810167ffffffffffffffff81118282101715610cb657fe5b604052919050565b600067ffffffffffffffff821115610cd257fe5b5060209081020190565b600067ffffffffffffffff821115610cf057fe5b50601f01601f191660200190565b60005b83811015610d19578181015183820152602001610d01565b83811115610d28576000848401525b50505050565b6001600160a01b038116811461019d57600080fdfe4f776e61626c653a206e6577206f776e657220697320746865207a65726f2061646472657373496e697469616c697a61626c653a20636f6e747261637420697320616c726561647920696e697469616c697a65644f776e61626c653a2063616c6c6572206973206e6f7420746865206f776e65728be0079c531659141344cd1fd0a4f28419497f9722a3daafe3b4186f6b6457e04f70657261746f72526f6c653a2063616c6c6572206973206e6f7420746865206f70657261746f72a26469706673582212207a1dd6ee4dbaae28d193e03edbb02d50cef1a0297506a9b5214ec69fbce3e67164736f6c63430007060033",
  "devdoc": {
    "kind": "dev",
    "methods": {
      "owner()": {
        "details": "Returns the address of the current owner."
      },
      "renounceOwnership()": {
        "details": "Leaves the contract without owner. It will not be possible to call `onlyOwner` functions anymore. Can only be called by the current owner. NOTE: Renouncing ownership will leave the contract without an owner, thereby removing any functionality that is only available to the owner."
      },
      "transferOwnership(address)": {
        "details": "Transfers ownership of the contract to a new account (`newOwner`). Can only be called by the current owner."
      }
    },
    "version": 1
  },
  "userdoc": {
    "kind": "user",
    "methods": {},
    "version": 1
  },
  "storageLayout": {
    "storage": [
      {
        "astId": 812,
        "contract": "@rarible/transfer-proxy/contracts/lazy-mint/erc721/ERC721LazyMintTransferProxy.sol:ERC721LazyMintTransferProxy",
        "label": "_initialized",
        "offset": 0,
        "slot": "0",
        "type": "t_bool"
      },
      {
        "astId": 815,
        "contract": "@rarible/transfer-proxy/contracts/lazy-mint/erc721/ERC721LazyMintTransferProxy.sol:ERC721LazyMintTransferProxy",
        "label": "_initializing",
        "offset": 1,
        "slot": "0",
        "type": "t_bool"
      },
      {
        "astId": 2697,
        "contract": "@rarible/transfer-proxy/contracts/lazy-mint/erc721/ERC721LazyMintTransferProxy.sol:ERC721LazyMintTransferProxy",
        "label": "__gap",
        "offset": 0,
        "slot": "1",
        "type": "t_array(t_uint256)50_storage"
      },
      {
        "astId": 10,
        "contract": "@rarible/transfer-proxy/contracts/lazy-mint/erc721/ERC721LazyMintTransferProxy.sol:ERC721LazyMintTransferProxy",
        "label": "_owner",
        "offset": 0,
        "slot": "51",
        "type": "t_address"
      },
      {
        "astId": 129,
        "contract": "@rarible/transfer-proxy/contracts/lazy-mint/erc721/ERC721LazyMintTransferProxy.sol:ERC721LazyMintTransferProxy",
        "label": "__gap",
        "offset": 0,
        "slot": "52",
        "type": "t_array(t_uint256)49_storage"
      },
      {
        "astId": 9044,
        "contract": "@rarible/transfer-proxy/contracts/lazy-mint/erc721/ERC721LazyMintTransferProxy.sol:ERC721LazyMintTransferProxy",
        "label": "operators",
        "offset": 0,
        "slot": "101",
        "type": "t_mapping(t_address,t_bool)"
      }
    ],
    "types": {
      "t_address": {
        "encoding": "inplace",
        "label": "address",
        "numberOfBytes": "20"
      },
      "t_array(t_uint256)49_storage": {
        "base": "t_uint256",
        "encoding": "inplace",
        "label": "uint256[49]",
        "numberOfBytes": "1568"
      },
      "t_array(t_uint256)50_storage": {
        "base": "t_uint256",
        "encoding": "inplace",
        "label": "uint256[50]",
        "numberOfBytes": "1600"
      },
      "t_bool": {
        "encoding": "inplace",
        "label": "bool",
        "numberOfBytes": "1"
      },
      "t_mapping(t_address,t_bool)": {
        "encoding": "mapping",
        "key": "t_address",
        "label": "mapping(address => bool)",
        "numberOfBytes": "32",
        "value": "t_bool"
      },
      "t_uint256": {
        "encoding": "inplace",
        "label": "uint256",
        "numberOfBytes": "32"
      }
    }
  }
}