{
  "_format": "hh-sol-artifact-1",
  "contractName": "NFTWithPresaleWithoutRandomInstant",
  "sourceName": "contracts/Sales/NFTWithPresaleWithoutRandomInstant.sol",
  "abi": [
    {
      "anonymous": false,
      "inputs": [
        {
          "indexed": true,
          "internalType": "address",
          "name": "account",
          "type": "address"
        },
        {
          "indexed": true,
          "internalType": "address",
          "name": "operator",
          "type": "address"
        },
        {
          "indexed": false,
          "internalType": "bool",
          "name": "approved",
          "type": "bool"
        }
      ],
      "name": "ApprovalForAll",
      "type": "event"
    },
    {
      "anonymous": false,
      "inputs": [
        {
          "indexed": false,
          "internalType": "uint8",
          "name": "version",
          "type": "uint8"
        }
      ],
      "name": "Initialized",
      "type": "event"
    },
    {
      "anonymous": false,
      "inputs": [
        {
          "indexed": true,
          "internalType": "address",
          "name": "previousOwner",
          "type": "address"
        },
        {
          "indexed": true,
          "internalType": "address",
          "name": "newOwner",
          "type": "address"
        }
      ],
      "name": "OwnershipTransferred",
      "type": "event"
    },
    {
      "anonymous": false,
      "inputs": [
        {
          "indexed": true,
          "internalType": "address",
          "name": "operator",
          "type": "address"
        },
        {
          "indexed": true,
          "internalType": "address",
          "name": "from",
          "type": "address"
        },
        {
          "indexed": true,
          "internalType": "address",
          "name": "to",
          "type": "address"
        },
        {
          "indexed": false,
          "internalType": "uint256[]",
          "name": "ids",
          "type": "uint256[]"
        },
        {
          "indexed": false,
          "internalType": "uint256[]",
          "name": "values",
          "type": "uint256[]"
        }
      ],
      "name": "TransferBatch",
      "type": "event"
    },
    {
      "anonymous": false,
      "inputs": [
        {
          "indexed": true,
          "internalType": "address",
          "name": "operator",
          "type": "address"
        },
        {
          "indexed": true,
          "internalType": "address",
          "name": "from",
          "type": "address"
        },
        {
          "indexed": true,
          "internalType": "address",
          "name": "to",
          "type": "address"
        },
        {
          "indexed": false,
          "internalType": "uint256",
          "name": "id",
          "type": "uint256"
        },
        {
          "indexed": false,
          "internalType": "uint256",
          "name": "value",
          "type": "uint256"
        }
      ],
      "name": "TransferSingle",
      "type": "event"
    },
    {
      "anonymous": false,
      "inputs": [
        {
          "indexed": false,
          "internalType": "string",
          "name": "uri",
          "type": "string"
        }
      ],
      "name": "URI",
      "type": "event"
    },
    {
      "anonymous": false,
      "inputs": [
        {
          "indexed": false,
          "internalType": "string",
          "name": "value",
          "type": "string"
        },
        {
          "indexed": true,
          "internalType": "uint256",
          "name": "id",
          "type": "uint256"
        }
      ],
      "name": "URI",
      "type": "event"
    },
    {
      "inputs": [
        {
          "internalType": "string",
          "name": "_name",
          "type": "string"
        },
        {
          "internalType": "string",
          "name": "_symbol",
          "type": "string"
        },
        {
          "internalType": "string",
          "name": "_saleType",
          "type": "string"
        },
        {
          "internalType": "string",
          "name": "_baseUri",
          "type": "string"
        },
        {
          "internalType": "uint256",
          "name": "_maxSupply",
          "type": "uint256"
        },
        {
          "internalType": "string",
          "name": "_saleId",
          "type": "string"
        },
        {
          "components": [
            {
              "internalType": "uint256",
              "name": "_preSaleMintCost",
              "type": "uint256"
            },
            {
              "internalType": "uint256",
              "name": "_preSaleStartTime",
              "type": "uint256"
            },
            {
              "internalType": "uint256",
              "name": "_preSaleDuration",
              "type": "uint256"
            },
            {
              "internalType": "uint256",
              "name": "_maxTokenPerMintPreSale",
              "type": "uint256"
            },
            {
              "internalType": "uint256",
              "name": "_limitSupplyInPreSale",
              "type": "uint256"
            }
          ],
          "internalType": "struct BaseNFTWithPresale.preSaleConfig",
          "name": "_preSaleConfig",
          "type": "tuple"
        },
        {
          "components": [
            {
              "internalType": "uint256",
              "name": "_publicSaleMintCost",
              "type": "uint256"
            },
            {
              "internalType": "uint256",
              "name": "_publicSaleBufferDuration",
              "type": "uint256"
            },
            {
              "internalType": "uint256",
              "name": "_publicSaleDuration",
              "type": "uint256"
            },
            {
              "internalType": "uint256",
              "name": "_maxTokenPerMintPublicSale",
              "type": "uint256"
            },
            {
              "internalType": "uint256",
              "name": "_maxTokenPerPersonPublicSale",
              "type": "uint256"
            }
          ],
          "internalType": "struct BaseNFTWithPresale.publicSaleConfig",
          "name": "_publicSaleConfig",
          "type": "tuple"
        },
        {
          "internalType": "address",
          "name": "_signerAddress",
          "type": "address"
        }
      ],
      "name": "__NFTWithPresaleWithoutRandomInstant_init",
      "outputs": [],
      "stateMutability": "nonpayable",
      "type": "function"
    },
    {
      "inputs": [
        {
          "internalType": "address",
          "name": "",
          "type": "address"
        }
      ],
      "name": "affiliatedUserBalance",
      "outputs": [
        {
          "internalType": "uint256",
          "name": "",
          "type": "uint256"
        }
      ],
      "stateMutability": "view",
      "type": "function"
    },
    {
      "inputs": [],
      "name": "affiliatedWei",
      "outputs": [
        {
          "internalType": "uint256",
          "name": "",
          "type": "uint256"
        }
      ],
      "stateMutability": "view",
      "type": "function"
    },
    {
      "inputs": [
        {
          "internalType": "address",
          "name": "account",
          "type": "address"
        },
        {
          "internalType": "uint256",
          "name": "id",
          "type": "uint256"
        }
      ],
      "name": "balanceOf",
      "outputs": [
        {
          "internalType": "uint256",
          "name": "",
          "type": "uint256"
        }
      ],
      "stateMutability": "view",
      "type": "function"
    },
    {
      "inputs": [
        {
          "internalType": "address[]",
          "name": "accounts",
          "type": "address[]"
        },
        {
          "internalType": "uint256[]",
          "name": "ids",
          "type": "uint256[]"
        }
      ],
      "name": "balanceOfBatch",
      "outputs": [
        {
          "internalType": "uint256[]",
          "name": "",
          "type": "uint256[]"
        }
      ],
      "stateMutability": "view",
      "type": "function"
    },
    {
      "inputs": [],
      "name": "baseUri",
      "outputs": [
        {
          "internalType": "string",
          "name": "",
          "type": "string"
        }
      ],
      "stateMutability": "view",
      "type": "function"
    },
    {
      "inputs": [
        {
          "internalType": "address[]",
          "name": "affiliatedUser",
          "type": "address[]"
        }
      ],
      "name": "checkAffiliatedFunds",
      "outputs": [],
      "stateMutability": "view",
      "type": "function"
    },
    {
      "inputs": [
        {
          "internalType": "address[]",
          "name": "_list",
          "type": "address[]"
        },
        {
          "internalType": "uint256[2]",
          "name": "shares",
          "type": "uint256[2]"
        }
      ],
      "name": "createAirdrop",
      "outputs": [],
      "stateMutability": "nonpayable",
      "type": "function"
    },
    {
      "inputs": [],
      "name": "dropFee",
      "outputs": [
        {
          "internalType": "uint256",
          "name": "",
          "type": "uint256"
        }
      ],
      "stateMutability": "view",
      "type": "function"
    },
    {
      "inputs": [],
      "name": "factory",
      "outputs": [
        {
          "internalType": "address",
          "name": "",
          "type": "address"
        }
      ],
      "stateMutability": "view",
      "type": "function"
    },
    {
      "inputs": [],
      "name": "feeReceiver",
      "outputs": [
        {
          "internalType": "address",
          "name": "",
          "type": "address"
        }
      ],
      "stateMutability": "view",
      "type": "function"
    },
    {
      "inputs": [],
      "name": "feesCollected",
      "outputs": [
        {
          "internalType": "uint256",
          "name": "",
          "type": "uint256"
        }
      ],
      "stateMutability": "view",
      "type": "function"
    },
    {
      "inputs": [
        {
          "internalType": "address",
          "name": "sender",
          "type": "address"
        },
        {
          "internalType": "uint256",
          "name": "tokenQuantity",
          "type": "uint256"
        }
      ],
      "name": "hashforPresale",
      "outputs": [
        {
          "internalType": "bytes32",
          "name": "",
          "type": "bytes32"
        }
      ],
      "stateMutability": "view",
      "type": "function"
    },
    {
      "inputs": [
        {
          "internalType": "address",
          "name": "sender",
          "type": "address"
        },
        {
          "internalType": "uint256",
          "name": "tokenQuantity",
          "type": "uint256"
        },
        {
          "internalType": "address",
          "name": "affiliatedUser",
          "type": "address"
        },
        {
          "internalType": "uint256",
          "name": "commission",
          "type": "uint256"
        }
      ],
      "name": "hashforPresaleAffiliated",
      "outputs": [
        {
          "internalType": "bytes32",
          "name": "",
          "type": "bytes32"
        }
      ],
      "stateMutability": "view",
      "type": "function"
    },
    {
      "inputs": [
        {
          "internalType": "address",
          "name": "sender",
          "type": "address"
        },
        {
          "internalType": "address",
          "name": "affiliatedUser",
          "type": "address"
        },
        {
          "internalType": "uint256",
          "name": "commission",
          "type": "uint256"
        }
      ],
      "name": "hashforPublicSaleAffiliated",
      "outputs": [
        {
          "internalType": "bytes32",
          "name": "",
          "type": "bytes32"
        }
      ],
      "stateMutability": "view",
      "type": "function"
    },
    {
      "inputs": [
        {
          "internalType": "address",
          "name": "account",
          "type": "address"
        },
        {
          "internalType": "address",
          "name": "operator",
          "type": "address"
        }
      ],
      "name": "isApprovedForAll",
      "outputs": [
        {
          "internalType": "bool",
          "name": "",
          "type": "bool"
        }
      ],
      "stateMutability": "view",
      "type": "function"
    },
    {
      "inputs": [],
      "name": "isDropApproved",
      "outputs": [
        {
          "internalType": "uint256",
          "name": "",
          "type": "uint256"
        }
      ],
      "stateMutability": "view",
      "type": "function"
    },
    {
      "inputs": [],
      "name": "isPreSaleLive",
      "outputs": [
        {
          "internalType": "bool",
          "name": "",
          "type": "bool"
        }
      ],
      "stateMutability": "view",
      "type": "function"
    },
    {
      "inputs": [],
      "name": "isPublicSaleLive",
      "outputs": [
        {
          "internalType": "bool",
          "name": "",
          "type": "bool"
        }
      ],
      "stateMutability": "view",
      "type": "function"
    },
    {
      "inputs": [],
      "name": "limitSupplyInPreSale",
      "outputs": [
        {
          "internalType": "uint256",
          "name": "",
          "type": "uint256"
        }
      ],
      "stateMutability": "view",
      "type": "function"
    },
    {
      "inputs": [
        {
          "internalType": "bytes32",
          "name": "hash",
          "type": "bytes32"
        },
        {
          "internalType": "bytes",
          "name": "signature",
          "type": "bytes"
        }
      ],
      "name": "matchAddressSigner",
      "outputs": [
        {
          "internalType": "bool",
          "name": "",
          "type": "bool"
        }
      ],
      "stateMutability": "view",
      "type": "function"
    },
    {
      "inputs": [],
      "name": "maxSupply",
      "outputs": [
        {
          "internalType": "uint256",
          "name": "",
          "type": "uint256"
        }
      ],
      "stateMutability": "view",
      "type": "function"
    },
    {
      "inputs": [],
      "name": "maxTokenPerMintPreSale",
      "outputs": [
        {
          "internalType": "uint256",
          "name": "",
          "type": "uint256"
        }
      ],
      "stateMutability": "view",
      "type": "function"
    },
    {
      "inputs": [],
      "name": "maxTokenPerMintPublicSale",
      "outputs": [
        {
          "internalType": "uint256",
          "name": "",
          "type": "uint256"
        }
      ],
      "stateMutability": "view",
      "type": "function"
    },
    {
      "inputs": [],
      "name": "maxTokenPerPersonPublicSale",
      "outputs": [
        {
          "internalType": "uint256",
          "name": "",
          "type": "uint256"
        }
      ],
      "stateMutability": "view",
      "type": "function"
    },
    {
      "inputs": [],
      "name": "name",
      "outputs": [
        {
          "internalType": "string",
          "name": "",
          "type": "string"
        }
      ],
      "stateMutability": "view",
      "type": "function"
    },
    {
      "inputs": [],
      "name": "owner",
      "outputs": [
        {
          "internalType": "address",
          "name": "",
          "type": "address"
        }
      ],
      "stateMutability": "view",
      "type": "function"
    },
    {
      "inputs": [],
      "name": "preSaleAirdropCount",
      "outputs": [
        {
          "internalType": "uint256",
          "name": "",
          "type": "uint256"
        }
      ],
      "stateMutability": "view",
      "type": "function"
    },
    {
      "inputs": [
        {
          "internalType": "uint256",
          "name": "tokenSignQuantity",
          "type": "uint256"
        },
        {
          "internalType": "uint256",
          "name": "tokenQuantity",
          "type": "uint256"
        },
        {
          "internalType": "bytes",
          "name": "signature",
          "type": "bytes"
        }
      ],
      "name": "preSaleBuy",
      "outputs": [],
      "stateMutability": "payable",
      "type": "function"
    },
    {
      "inputs": [
        {
          "internalType": "uint256",
          "name": "tokenSignQuantity",
          "type": "uint256"
        },
        {
          "internalType": "uint256",
          "name": "tokenQuantity",
          "type": "uint256"
        },
        {
          "internalType": "address",
          "name": "affiliatedUser",
          "type": "address"
        },
        {
          "internalType": "uint256",
          "name": "commission",
          "type": "uint256"
        },
        {
          "internalType": "bytes",
          "name": "signature",
          "type": "bytes"
        }
      ],
      "name": "preSaleBuyAffiliated",
      "outputs": [],
      "stateMutability": "payable",
      "type": "function"
    },
    {
      "inputs": [],
      "name": "preSaleEndTime",
      "outputs": [
        {
          "internalType": "uint256",
          "name": "",
          "type": "uint256"
        }
      ],
      "stateMutability": "view",
      "type": "function"
    },
    {
      "inputs": [],
      "name": "preSaleMintCost",
      "outputs": [
        {
          "internalType": "uint256",
          "name": "",
          "type": "uint256"
        }
      ],
      "stateMutability": "view",
      "type": "function"
    },
    {
      "inputs": [],
      "name": "preSaleStartTime",
      "outputs": [
        {
          "internalType": "uint256",
          "name": "",
          "type": "uint256"
        }
      ],
      "stateMutability": "view",
      "type": "function"
    },
    {
      "inputs": [
        {
          "internalType": "address",
          "name": "",
          "type": "address"
        }
      ],
      "name": "presalerListPurchases",
      "outputs": [
        {
          "internalType": "uint256",
          "name": "",
          "type": "uint256"
        }
      ],
      "stateMutability": "view",
      "type": "function"
    },
    {
      "inputs": [],
      "name": "publicSaleAirdropCount",
      "outputs": [
        {
          "internalType": "uint256",
          "name": "",
          "type": "uint256"
        }
      ],
      "stateMutability": "view",
      "type": "function"
    },
    {
      "inputs": [],
      "name": "publicSaleBufferDuration",
      "outputs": [
        {
          "internalType": "uint256",
          "name": "",
          "type": "uint256"
        }
      ],
      "stateMutability": "view",
      "type": "function"
    },
    {
      "inputs": [
        {
          "internalType": "uint256",
          "name": "tokenQuantity",
          "type": "uint256"
        }
      ],
      "name": "publicSaleBuy",
      "outputs": [],
      "stateMutability": "payable",
      "type": "function"
    },
    {
      "inputs": [
        {
          "internalType": "uint256",
          "name": "tokenQuantity",
          "type": "uint256"
        },
        {
          "internalType": "address",
          "name": "affiliatedUser",
          "type": "address"
        },
        {
          "internalType": "uint256",
          "name": "commission",
          "type": "uint256"
        },
        {
          "internalType": "bytes",
          "name": "signature",
          "type": "bytes"
        }
      ],
      "name": "publicSaleBuyAffiliated",
      "outputs": [],
      "stateMutability": "payable",
      "type": "function"
    },
    {
      "inputs": [],
      "name": "publicSaleEndTime",
      "outputs": [
        {
          "internalType": "uint256",
          "name": "",
          "type": "uint256"
        }
      ],
      "stateMutability": "view",
      "type": "function"
    },
    {
      "inputs": [],
      "name": "publicSaleMintCost",
      "outputs": [
        {
          "internalType": "uint256",
          "name": "",
          "type": "uint256"
        }
      ],
      "stateMutability": "view",
      "type": "function"
    },
    {
      "inputs": [],
      "name": "publicSaleStartTime",
      "outputs": [
        {
          "internalType": "uint256",
          "name": "",
          "type": "uint256"
        }
      ],
      "stateMutability": "view",
      "type": "function"
    },
    {
      "inputs": [
        {
          "internalType": "address",
          "name": "",
          "type": "address"
        }
      ],
      "name": "publicsalerListPurchases",
      "outputs": [
        {
          "internalType": "uint256",
          "name": "",
          "type": "uint256"
        }
      ],
      "stateMutability": "view",
      "type": "function"
    },
    {
      "inputs": [],
      "name": "renounceOwnership",
      "outputs": [],
      "stateMutability": "nonpayable",
      "type": "function"
    },
    {
      "inputs": [
        {
          "internalType": "address",
          "name": "from",
          "type": "address"
        },
        {
          "internalType": "address",
          "name": "to",
          "type": "address"
        },
        {
          "internalType": "uint256[]",
          "name": "ids",
          "type": "uint256[]"
        },
        {
          "internalType": "uint256[]",
          "name": "amounts",
          "type": "uint256[]"
        },
        {
          "internalType": "bytes",
          "name": "data",
          "type": "bytes"
        }
      ],
      "name": "safeBatchTransferFrom",
      "outputs": [],
      "stateMutability": "nonpayable",
      "type": "function"
    },
    {
      "inputs": [
        {
          "internalType": "address",
          "name": "from",
          "type": "address"
        },
        {
          "internalType": "address",
          "name": "to",
          "type": "address"
        },
        {
          "internalType": "uint256",
          "name": "id",
          "type": "uint256"
        },
        {
          "internalType": "uint256",
          "name": "amount",
          "type": "uint256"
        },
        {
          "internalType": "bytes",
          "name": "data",
          "type": "bytes"
        }
      ],
      "name": "safeTransferFrom",
      "outputs": [],
      "stateMutability": "nonpayable",
      "type": "function"
    },
    {
      "inputs": [],
      "name": "saleId",
      "outputs": [
        {
          "internalType": "string",
          "name": "",
          "type": "string"
        }
      ],
      "stateMutability": "view",
      "type": "function"
    },
    {
      "inputs": [],
      "name": "saleType",
      "outputs": [
        {
          "internalType": "string",
          "name": "",
          "type": "string"
        }
      ],
      "stateMutability": "view",
      "type": "function"
    },
    {
      "inputs": [
        {
          "internalType": "address",
          "name": "operator",
          "type": "address"
        },
        {
          "internalType": "bool",
          "name": "approved",
          "type": "bool"
        }
      ],
      "name": "setApprovalForAll",
      "outputs": [],
      "stateMutability": "nonpayable",
      "type": "function"
    },
    {
      "inputs": [],
      "name": "setDropApproval",
      "outputs": [],
      "stateMutability": "nonpayable",
      "type": "function"
    },
    {
      "inputs": [
        {
          "internalType": "uint256",
          "name": "_fee",
          "type": "uint256"
        },
        {
          "internalType": "address",
          "name": "_wallet",
          "type": "address"
        }
      ],
      "name": "setDropFee",
      "outputs": [],
      "stateMutability": "nonpayable",
      "type": "function"
    },
    {
      "inputs": [
        {
          "internalType": "uint256",
          "name": "_version",
          "type": "uint256"
        }
      ],
      "name": "setVersion",
      "outputs": [],
      "stateMutability": "nonpayable",
      "type": "function"
    },
    {
      "inputs": [],
      "name": "signerAddress",
      "outputs": [
        {
          "internalType": "address",
          "name": "",
          "type": "address"
        }
      ],
      "stateMutability": "view",
      "type": "function"
    },
    {
      "inputs": [
        {
          "internalType": "bytes4",
          "name": "interfaceId",
          "type": "bytes4"
        }
      ],
      "name": "supportsInterface",
      "outputs": [
        {
          "internalType": "bool",
          "name": "",
          "type": "bool"
        }
      ],
      "stateMutability": "view",
      "type": "function"
    },
    {
      "inputs": [],
      "name": "symbol",
      "outputs": [
        {
          "internalType": "string",
          "name": "",
          "type": "string"
        }
      ],
      "stateMutability": "view",
      "type": "function"
    },
    {
      "inputs": [],
      "name": "totalMint",
      "outputs": [
        {
          "internalType": "uint256",
          "name": "",
          "type": "uint256"
        }
      ],
      "stateMutability": "view",
      "type": "function"
    },
    {
      "inputs": [],
      "name": "totalMintReferral",
      "outputs": [
        {
          "internalType": "uint256",
          "name": "",
          "type": "uint256"
        }
      ],
      "stateMutability": "view",
      "type": "function"
    },
    {
      "inputs": [
        {
          "internalType": "address[]",
          "name": "affiliatedUser",
          "type": "address[]"
        }
      ],
      "name": "transferAffiliatedFunds",
      "outputs": [],
      "stateMutability": "nonpayable",
      "type": "function"
    },
    {
      "inputs": [
        {
          "internalType": "address",
          "name": "newOwner",
          "type": "address"
        }
      ],
      "name": "transferOwnership",
      "outputs": [],
      "stateMutability": "nonpayable",
      "type": "function"
    },
    {
      "inputs": [
        {
          "internalType": "uint256",
          "name": "_preSaleMintCost",
          "type": "uint256"
        },
        {
          "internalType": "uint256",
          "name": "_preSaleStartTime",
          "type": "uint256"
        },
        {
          "internalType": "uint256",
          "name": "_preSaleDuration",
          "type": "uint256"
        },
        {
          "internalType": "uint256",
          "name": "_maxTokenPerMintPreSale",
          "type": "uint256"
        },
        {
          "internalType": "uint256",
          "name": "_limitSupplyInPreSale",
          "type": "uint256"
        },
        {
          "internalType": "uint256",
          "name": "_publicSaleMintCost",
          "type": "uint256"
        },
        {
          "internalType": "uint256",
          "name": "_publicSaleBufferDuration",
          "type": "uint256"
        },
        {
          "internalType": "uint256",
          "name": "_publicSaleDuration",
          "type": "uint256"
        },
        {
          "internalType": "uint256",
          "name": "_maxTokenPerMintPublicSale",
          "type": "uint256"
        },
        {
          "internalType": "uint256",
          "name": "_maxTokenPerPersonPublicSale",
          "type": "uint256"
        }
      ],
      "name": "updatePreSale",
      "outputs": [],
      "stateMutability": "nonpayable",
      "type": "function"
    },
    {
      "inputs": [
        {
          "internalType": "uint256",
          "name": "_publicSaleMintCost",
          "type": "uint256"
        },
        {
          "internalType": "uint256",
          "name": "_publicSaleBufferDuration",
          "type": "uint256"
        },
        {
          "internalType": "uint256",
          "name": "_publicSaleDuration",
          "type": "uint256"
        },
        {
          "internalType": "uint256",
          "name": "_maxTokenPerMintPublicSale",
          "type": "uint256"
        },
        {
          "internalType": "uint256",
          "name": "_maxTokenPerPersonPublicSale",
          "type": "uint256"
        }
      ],
      "name": "updatePublicSale",
      "outputs": [],
      "stateMutability": "nonpayable",
      "type": "function"
    },
    {
      "inputs": [
        {
          "internalType": "address",
          "name": "_signerAddress",
          "type": "address"
        }
      ],
      "name": "updateSignerAddress",
      "outputs": [],
      "stateMutability": "nonpayable",
      "type": "function"
    },
    {
      "inputs": [
        {
          "internalType": "string",
          "name": "_uri",
          "type": "string"
        }
      ],
      "name": "updateURI",
      "outputs": [],
      "stateMutability": "nonpayable",
      "type": "function"
    },
    {
      "inputs": [
        {
          "internalType": "uint256",
          "name": "_tokenId",
          "type": "uint256"
        }
      ],
      "name": "uri",
      "outputs": [
        {
          "internalType": "string",
          "name": "",
          "type": "string"
        }
      ],
      "stateMutability": "view",
      "type": "function"
    },
    {
      "inputs": [],
      "name": "version",
      "outputs": [
        {
          "internalType": "uint256",
          "name": "",
          "type": "uint256"
        }
      ],
      "stateMutability": "view",
      "type": "function"
    },
    {
      "inputs": [
        {
          "internalType": "address[]",
          "name": "affiliatedUser",
          "type": "address[]"
        }
      ],
      "name": "withdrawAffiliatedFunds",
      "outputs": [],
      "stateMutability": "nonpayable",
      "type": "function"
    },
    {
      "inputs": [
        {
          "internalType": "uint256",
          "name": "_amount",
          "type": "uint256"
        }
      ],
      "name": "withdrawWei",
      "outputs": [],
      "stateMutability": "nonpayable",
      "type": "function"
    }
  ],
  "bytecode": "0x608060405234801561001057600080fd5b50615290806100206000396000f3fe6080604052600436106103d85760003560e01c806386233071116101fd578063bacacaa011610118578063d994a857116100ab578063f242432a1161007a578063f242432a14610ad7578063f2fde38b14610af7578063f32882cd14610b17578063f32a325614610b2e578063f7bc596d14610b5c57600080fd5b8063d994a85714610a4b578063e985e9c514610a62578063f071db5a14610aab578063f21852d014610ac257600080fd5b8063cb8e7431116100e7578063cb8e7431146109f3578063cce29ea714610a06578063d5abeb0114610a1d578063d70c764a14610a3457600080fd5b8063bacacaa014610988578063c30f4a5a1461099d578063c45a0155146109bd578063c84c0387146109de57600080fd5b80639bf8031611610190578063a829f0b51161015f578063a829f0b51461090f578063b3f006741461093d578063ba1676e21461095e578063ba3c944e1461097157600080fd5b80639bf8031614610881578063a22cb465146108af578063a25a2b4b146108cf578063a7f46367146108ef57600080fd5b80638fa2a9f0116101cc5780638fa2a9f01461081757806395d89b4114610837578063986646a71461084c5780639abc83201461086c57600080fd5b806386233071146107b6578063887ce3ca146107cb57806388ba7aa0146107e25780638da5cb5b146107f957600080fd5b8063408def1e116102f85780635b7633d01161028b5780636bb7b1d91161025a5780636bb7b1d91461073c5780636c99a53014610753578063715018a61461076a5780637d25cf481461077f578063829b917b1461079657600080fd5b80635b7633d0146106ae5780635bcc7928146106e75780635d6837ca146106fc5780636433972b1461071c57600080fd5b806352188a39116102c757806352188a391461065b57806354fd4d501461066e57806359a7715a146106855780635a1171bd1461069b57600080fd5b8063408def1e146105d757806340a6e3cd146105f7578063473c79fa1461060e5780634e1273f41461062e57600080fd5b8063113cc219116103705780632eb2c2d61161033f5780632eb2c2d6146105695780633102b6d014610589578063347bd980146105a05780633dad116a146105b757600080fd5b8063113cc219146104fb5780631e4d185f146105125780632340fac214610529578063290211741461054957600080fd5b806308674b35116103ac57806308674b35146104795780630b7c5c2f146104995780630d6f8563146104bb5780630e89341c146104db57600080fd5b8062fdd58e146103dd57806301ffc9a71461041057806306d65af31461044057806306fdde0314610457575b600080fd5b3480156103e957600080fd5b506103fd6103f8366004614198565b610b73565b6040519081526020015b60405180910390f35b34801561041c57600080fd5b5061043061042b3660046141d8565b610c0e565b6040519015158152602001610407565b34801561044c57600080fd5b506103fd6101145481565b34801561046357600080fd5b5061046c610c5e565b6040516104079190614245565b34801561048557600080fd5b506103fd610494366004614198565b610cec565b3480156104a557600080fd5b506104b96104b4366004614335565b610d73565b005b3480156104c757600080fd5b506104b96104d6366004614369565b610ec3565b3480156104e757600080fd5b5061046c6104f6366004614369565b6110d6565b34801561050757600080fd5b506103fd6101175481565b34801561051e57600080fd5b506103fd6101015481565b34801561053557600080fd5b506104b9610544366004614335565b61110a565b34801561055557600080fd5b506104b9610564366004614464565b611370565b34801561057557600080fd5b506104b96105843660046145da565b611938565b34801561059557600080fd5b506103fd6101035481565b3480156105ac57600080fd5b506103fd61010a5481565b3480156105c357600080fd5b506103fd6105d2366004614683565b611984565b3480156105e357600080fd5b506104b96105f2366004614369565b611a11565b34801561060357600080fd5b506103fd6101105481565b34801561061a57600080fd5b506103fd6106293660046146c7565b611a1f565b34801561063a57600080fd5b5061064e610649366004614703565b611aa9565b60405161040791906147a1565b6104b9610669366004614369565b611bd2565b34801561067a57600080fd5b506103fd61011b5481565b34801561069157600080fd5b506103fd60fe5481565b6104b96106a93660046147b4565b611be6565b3480156106ba57600080fd5b5061010b546106cf906001600160a01b031681565b6040516001600160a01b039091168152602001610407565b3480156106f357600080fd5b5061046c611db5565b34801561070857600080fd5b506104b9610717366004614803565b611dc3565b34801561072857600080fd5b506104b961073736600461486b565b612125565b34801561074857600080fd5b506103fd6101005481565b34801561075f57600080fd5b506103fd6101185481565b34801561077657600080fd5b506104b9612331565b34801561078b57600080fd5b506103fd6101135481565b3480156107a257600080fd5b506104306107b13660046148a6565b612345565b3480156107c257600080fd5b5061043061236a565b3480156107d757600080fd5b506103fd6101055481565b3480156107ee57600080fd5b506103fd6101115481565b34801561080557600080fd5b506097546001600160a01b03166106cf565b34801561082357600080fd5b506104b96108323660046148e2565b612387565b34801561084357600080fd5b5061046c6123f2565b34801561085857600080fd5b506104b9610867366004614335565b6123ff565b34801561087857600080fd5b5061046c612627565b34801561088d57600080fd5b506103fd61089c3660046148e2565b6101196020526000908152604090205481565b3480156108bb57600080fd5b506104b96108ca3660046148fd565b612634565b3480156108db57600080fd5b506104b96108ea366004614939565b61263f565b3480156108fb57600080fd5b506104b961090a3660046149c6565b61267a565b34801561091b57600080fd5b506103fd61092a3660046148e2565b6101086020526000908152604090205481565b34801561094957600080fd5b5061010c546106cf906001600160a01b031681565b6104b961096c3660046149f2565b6126e6565b34801561097d57600080fd5b506103fd61010e5481565b34801561099457600080fd5b506104b9612748565b3480156109a957600080fd5b506104b96109b8366004614a52565b6127d7565b3480156109c957600080fd5b5061010d546106cf906001600160a01b031681565b3480156109ea57600080fd5b5061046c6127e8565b6104b9610a01366004614a86565b6127f6565b348015610a1257600080fd5b506103fd6101155481565b348015610a2957600080fd5b506103fd6101025481565b348015610a4057600080fd5b506103fd6101075481565b348015610a5757600080fd5b506103fd6101065481565b348015610a6e57600080fd5b50610430610a7d366004614ae3565b6001600160a01b03918216600090815260666020908152604080832093909416825291909152205460ff1690565b348015610ab757600080fd5b506103fd61010f5481565b348015610ace57600080fd5b50610430612a5e565b348015610ae357600080fd5b506104b9610af2366004614b0d565b612a76565b348015610b0357600080fd5b506104b9610b123660046148e2565b612abb565b348015610b2357600080fd5b506103fd6101125481565b348015610b3a57600080fd5b506103fd610b493660046148e2565b6101096020526000908152604090205481565b348015610b6857600080fd5b506103fd6101165481565b60006001600160a01b038316610be35760405162461bcd60e51b815260206004820152602a60248201527f455243313135353a2061646472657373207a65726f206973206e6f742061207660448201526930b634b21037bbb732b960b11b60648201526084015b60405180910390fd5b5060008181526065602090815260408083206001600160a01b03861684529091529020545b92915050565b60006001600160e01b03198216636cdb3d1360e11b1480610c3f57506001600160e01b031982166303a24d0760e21b145b80610c0857506301ffc9a760e01b6001600160e01b0319831614610c08565b60fb8054610c6b90614b65565b80601f0160208091040260200160405190810160405280929190818152602001828054610c9790614b65565b8015610ce45780601f10610cb957610100808354040283529160200191610ce4565b820191906000526020600020905b815481529060010190602001808311610cc757829003601f168201915b505050505081565b60008083468461010430604051602001610d0a959493929190614c12565b60408051601f198184030181529082905280516020918201207f19457468657265756d205369676e6564204d6573736167653a0a33320000000091830191909152603c820152605c0160408051808303601f190181529190528051602090910120949350505050565b610d8981516000141561010a5460001415612b31565b610dcb5760405162461bcd60e51b81526020600482015260136024820152724e6f7468696e6720746f20776974686472617760681b6044820152606401610bda565b60005b8151811015610ebf576000828281518110610deb57610deb614c54565b6020026020010151604051602001610e4191907f4e6f2062616c616e636520746f207472616e7366657220666f72200000000000815260609190911b6bffffffffffffffffffffffff1916601b820152602f0190565b60405160208183030381529060405290506101096000848481518110610e6957610e69614c54565b60200260200101516001600160a01b03166001600160a01b0316815260200190815260200160002054600014158190610eb55760405162461bcd60e51b8152600401610bda9190614245565b5050600101610dce565b5050565b610ecb612b44565b600260c95403610f1d5760405162461bcd60e51b815260206004820152601f60248201527f5265656e7472616e637947756172643a207265656e7472616e742063616c6c006044820152606401610bda565b600260c95580610f5a5760405162461bcd60e51b81526020600482015260086024820152670416d6f756e743e360c41b6044820152606401610bda565b60008161010a5447031015610fa25760405162461bcd60e51b815260206004820152600e60248201526d09cdee840cadcdeeaced040cae8d60931b6044820152606401610bda565b61271061010e54830281610fb857610fb8614c6a565b049050600033610fc88385614c96565b604051600081818185875af1925050503d8060008114611004576040519150601f19603f3d011682016040523d82523d6000602084013e611009565b606091505b50509050806110475760405162461bcd60e51b815260206004820152600a6024820152692a3c103330b4b632b21760b11b6044820152606401610bda565b81156110cc5761010c546040516000916001600160a01b03169084908381818185875af1925050503d806000811461109b576040519150601f19603f3d011682016040523d82523d6000602084013e6110a0565b606091505b50509050806110c15760405162461bcd60e51b8152600401610bda90614ca9565b5061010f8054830190555b5050600160c95550565b606060fd6110e383612b9e565b6040516020016110f4929190614cd1565b6040516020818303038152906040529050919050565b611112612b44565b61111a612ca6565b600260c9540361116c5760405162461bcd60e51b815260206004820152601f60248201527f5265656e7472616e637947756172643a207265656e7472616e742063616c6c006044820152606401610bda565b600260c95561117a81610d73565b60008060008060005b85518110156112d45761010960008783815181106111a3576111a3614c54565b60200260200101516001600160a01b03166001600160a01b0316815260200190815260200160002054945061271061010e548602816111e4576111e4614c6a565b0491506000610109600088848151811061120057611200614c54565b60200260200101516001600160a01b03166001600160a01b03168152602001908152602001600020819055506000336001600160a01b031683876112449190614c96565b604051600081818185875af1925050503d8060008114611280576040519150601f19603f3d011682016040523d82523d6000602084013e611285565b606091505b50509050806112c35760405162461bcd60e51b815260206004820152600a6024820152692a3c103330b4b632b21760b11b6044820152606401610bda565b509284019291810191600101611183565b5061010a8054849003905581156113645761010c546040516000916001600160a01b03169084908381818185875af1925050503d8060008114611333576040519150601f19603f3d011682016040523d82523d6000602084013e611338565b606091505b50509050806113595760405162461bcd60e51b8152600401610bda90614ca9565b5061010f8054830190555b5050600160c955505050565b600054610100900460ff16158080156113905750600054600160ff909116105b806113aa5750303b1580156113aa575060005460ff166001145b61140d5760405162461bcd60e51b815260206004820152602e60248201527f496e697469616c697a61626c653a20636f6e747261637420697320616c72656160448201526d191e481a5b9a5d1a585b1a5e995960921b6064820152608401610bda565b6000805460ff191660011790558015611430576000805461ff0019166101001790555b61144360008711620186a0881115612b31565b61148f5760405162461bcd60e51b815260206004820152601860248201527f496e69743a20496e76616c6964206d617820537570706c7900000000000000006044820152606401610bda565b6114a760008560800151118786608001511115612b31565b6114f35760405162461bcd60e51b815260206004820152601c60248201527f496e69743a20496e76616c69642070726573616c6520737570706c79000000006044820152606401610bda565b61150d606485600001511015606485600001511015612b31565b6115595760405162461bcd60e51b815260206004820152601860248201527f496e69743a20496e76616c696420546f6b656e20436f737400000000000000006044820152606401610bda565b83602001514211156115ad5760405162461bcd60e51b815260206004820181905260248201527f496e69743a20496e76616c69642050726553616c652053746172742054696d656044820152606401610bda565b6115c560008560400151116000856040015111612b31565b6116095760405162461bcd60e51b81526020600482015260156024820152740496e69743a2053616c65206475726174696f6e3e3605c1b6044820152606401610bda565b6116256000856060015111856080015186606001511115612b31565b6116825760405162461bcd60e51b815260206004820152602860248201527f496e69743a20496e76616c6964206d6178546f6b656e5065724d696e7420696e6044820152672070726573616c6560c01b6064820152608401610bda565b60008360600151116116eb5760405162461bcd60e51b815260206004820152602c60248201527f496e69743a20496e76616c6964204d6178546f6b656e5065724d696e74206f6660448201526b207075626c69632073616c6560a01b6064820152608401610bda565b6117078684608001511115846060015185608001511015612b31565b61176a5760405162461bcd60e51b815260206004820152602e60248201527f496e69743a20496e76616c6964204d6178546f6b656e506572506572736f6e2060448201526d6f66207075626c69632073616c6560901b6064820152608401610bda565b6001600160a01b0382166117c05760405162461bcd60e51b815260206004820152601b60248201527f496e69743a20496e76616c6964205369676e65724164647265737300000000006044820152606401610bda565b6117c987612cf9565b6117d1612d29565b60fb6117dd8b82614d3c565b5060fc6117ea8a82614d3c565b5061011a6117f88982614d3c565b5060fd6118058882614d3c565b506101028690556101046118198682614d3c565b508351610113558251610105556020840151610114819055604085015161183f91614dfb565b610115556020808401516101168190556040860151918601519091601e916118679190614dfb565b6118719190614dfb565b61187b9190614dfb565b610100819055604084015161188f91614dfb565b610101556060808501516101175583015161010655608080840151610107558401516101185561010b80546001600160a01b0384166001600160a01b031991821617909155600161011b5561010d805490911633179055801561192c576000805461ff0019169055604051600181527f7f26b83ff96e1f2b6a682f133852f6798a09c465da95921460cefb38474024989060200160405180910390a15b50505050505050505050565b6001600160a01b03851633148061195457506119548533610a7d565b6119705760405162461bcd60e51b8152600401610bda90614e0e565b61197d8585858585612d58565b5050505050565b6000808546868686610104306040516020016119a69796959493929190614e5d565b60408051601f198184030181529082905280516020918201207f19457468657265756d205369676e6564204d6573736167653a0a33320000000091830191909152603c820152605c0160408051808303601f1901815291905280516020909101209695505050505050565b611a19612b44565b61011b55565b6000808446858561010430604051602001611a3f96959493929190614eb2565b60408051601f198184030181529082905280516020918201207f19457468657265756d205369676e6564204d6573736167653a0a33320000000091830191909152603c820152605c0160408051808303601f19018152919052805160209091012095945050505050565b60608151835114611b0e5760405162461bcd60e51b815260206004820152602960248201527f455243313135353a206163636f756e747320616e6420696473206c656e677468604482015268040dad2e6dac2e8c6d60bb1b6064820152608401610bda565b600083516001600160401b03811115611b2957611b29614258565b604051908082528060200260200182016040528015611b52578160200160208202803683370190505b50905060005b8451811015611bca57611b9d858281518110611b7657611b76614c54565b6020026020010151858381518110611b9057611b90614c54565b6020026020010151610b73565b828281518110611baf57611baf614c54565b6020908102919091010152611bc381614f00565b9050611b58565b509392505050565b611bda612f38565b611be381612f8a565b50565b60016101105414611c095760405162461bcd60e51b8152600401610bda90614f19565b611c11612a5e565b611c535760405162461bcd60e51b815260206004820152601360248201527270726573616c65206973206e6f74206c69766560681b6044820152606401610bda565b6000611c5f3385610cec565b9050611c6b8183612345565b611c875760405162461bcd60e51b8152600401610bda90614f3c565b611c9083612fe1565b83600003611cd85760405162461bcd60e51b81526020600482015260156024820152740546f6b656e5369676e5175616e74697479203e203605c1b6044820152606401610bda565b33600090815261011960205260409020548301841015611d3a5760405162461bcd60e51b815260206004820152601d60248201527f65786365656473206d6178696d756d20616c6c6f776564206c696d69740000006044820152606401610bda565b348361011354021115611d8f5760405162461bcd60e51b815260206004820152601860248201527f696e73756666696369656e7420416d6f756e74207061696400000000000000006044820152606401610bda565b611d993384613095565b5050336000908152610119602052604090208054909101905550565b61011a8054610c6b90614b65565b611dcb612b44565b611dea611ddf610114544210428c11612b31565b8a61011454146130ec565b611e2b5760405162461bcd60e51b8152602060048201526012602482015271496e76616c69642053746172742054696d6560701b6044820152606401610bda565b610115544210611e705760405162461bcd60e51b815260206004820152601060248201526f1c1c995cd85b19481a5cc8195b99195960821b6044820152606401610bda565b611ea06101125460fe54611e849190614c96565b87116101125461010254611e989190614c96565b881115612b31565b611eec5760405162461bcd60e51b815260206004820152601e60248201527f696e636f72726563742070726573616c65206c696d697420737570706c7900006044820152606401610bda565b611efc60648b1160648711612b31565b611f3e5760405162461bcd60e51b8152602060048201526013602482015272546f6b656e20636f73743e203130302077656960681b6044820152606401610bda565b611f4e6000891160008511612b31565b611f8c5760405162461bcd60e51b815260206004820152600f60248201526e073616c65206475726174696f6e3e3608c1b6044820152606401610bda565b611f9c6000881187891115612b31565b611ffa5760405162461bcd60e51b815260206004820152602960248201527f496e76616c6964206d6178696d756d20746f6b656e20706572206d696e7420696044820152686e2070726573616c6560b81b6064820152608401610bda565b6000821161205c5760405162461bcd60e51b815260206004820152602960248201527f4d6178696d756d20746f6b656e20706572206d696e7420696e207075626c696360448201526802073616c65203e20360bc1b6064820152608401610bda565b61206f6101025482111583831015612b31565b6120d65760405162461bcd60e51b815260206004820152603260248201527f496e76616c6964204d617820546f6b656e206d696e7465642070657220706572604482015271736f6e20696e207075626c69632073616c6560701b6064820152608401610bda565b6101139990995561010593909355610117949094556101189290925561011485905592909301610115819055610116849055601e93018381016101005501909101610101556101065561010755565b61212d612b44565b600084601e610115540101905061215961214e610100544210428411612b31565b8261010054146130ec565b61219a5760405162461bcd60e51b8152602060048201526012602482015271496e76616c69642053746172742054696d6560701b6044820152606401610bda565b6101015442106121e35760405162461bcd60e51b8152602060048201526014602482015273141d589b1a58c81cd85b19481a5cc8195b99195960621b6044820152606401610bda565b606486116122285760405162461bcd60e51b8152602060048201526012602482015271125b9d985b1a5908151bdad95b8818dbdcdd60721b6044820152606401610bda565b600084116122785760405162461bcd60e51b815260206004820152601860248201527f5075626c69632073616c65206475726174696f6e203e203000000000000000006044820152606401610bda565b612297600084116122926101025485111586861015612b31565b612b31565b6123005760405162461bcd60e51b815260206004820152603460248201527f4d6178696d756d20746f6b656e206d696e7465642070657220706572736f6e2f6044820152731c195c881b5a5b9d081b9bdd0818dbdc9c9958dd60621b6064820152608401610bda565b61010586905561011685905561010081905561231c8482614dfb565b61010155506101069190915561010755505050565b612339612b44565b61234360006130fc565b565b6000612351838361314e565b61010b546001600160a01b039182169116149392505050565b60006123826101005442101561010154421115612b31565b905090565b61238f612b44565b6001600160a01b0381166123cf5760405162461bcd60e51b815260206004820152600760248201526610b9b4b3b732b960c91b6044820152606401610bda565b61010b80546001600160a01b0319166001600160a01b0392909216919091179055565b60fc8054610c6b90614b65565b612407612b44565b61240f612ca6565b61241881610d73565b60008060008060005b855181101561259157610109600087838151811061244157612441614c54565b60200260200101516001600160a01b03166001600160a01b0316815260200190815260200160002054945061271061010e5486028161248257612482614c6a565b0491506000610109600088848151811061249e5761249e614c54565b60200260200101516001600160a01b03166001600160a01b031681526020019081526020016000208190555060008682815181106124de576124de614c54565b60200260200101516001600160a01b031683876124fb9190614c96565b604051600081818185875af1925050503d8060008114612537576040519150601f19603f3d011682016040523d82523d6000602084013e61253c565b606091505b50509050806125805760405162461bcd60e51b815260206004820152601060248201526f2a3930b739b332b9103330b4b632b21760811b6044820152606401610bda565b509284019291810191600101612421565b5061010a80548490039055811561197d5761010c546040516000916001600160a01b03169084908381818185875af1925050503d80600081146125f0576040519150601f19603f3d011682016040523d82523d6000602084013e6125f5565b606091505b50509050806126165760405162461bcd60e51b8152600401610bda90614ca9565b5061010f8054830190555050505050565b60fd8054610c6b90614b65565b610ebf33838361316a565b600161011054146126625760405162461bcd60e51b8152600401610bda90614f19565b61266a612b44565b61267583838361324a565b505050565b61010d546001600160a01b031633146126bd5760405162461bcd60e51b8152602060048201526005602482015264042c2eae8d60db1b6044820152606401610bda565b61010e9190915561010c80546001600160a01b0319166001600160a01b03909216919091179055565b6126ee612f38565b6001600160a01b0383166127365760405162461bcd60e51b815260206004820152600f60248201526e496e76616c6964206164647265737360881b6044820152606401610bda565b61274284848484613341565b50505050565b61010d546001600160a01b0316331461278b5760405162461bcd60e51b8152602060048201526005602482015264042c2eae8d60db1b6044820152606401610bda565b61011054156127cf5760405162461bcd60e51b815260206004820152601060248201526f185b1c9958591e48185c1c1c9bdd995960821b6044820152606401610bda565b600161011055565b6127df612b44565b611be381613452565b6101048054610c6b90614b65565b600161011054146128195760405162461bcd60e51b8152600401610bda90614f19565b612821612a5e565b6128635760405162461bcd60e51b815260206004820152601360248201527270726573616c65206973206e6f74206c69766560681b6044820152606401610bda565b6001600160a01b0383166128b95760405162461bcd60e51b815260206004820152601760248201527f496e76616c696420416666696c696174656420757365720000000000000000006044820152606401610bda565b60006128c733878686611984565b90506128d38183612345565b6128ef5760405162461bcd60e51b8152600401610bda90614f3c565b6128f885612fe1565b856000036129405760405162461bcd60e51b81526020600482015260156024820152740546f6b656e5369676e5175616e74697479203e203605c1b6044820152606401610bda565b336000908152610119602052604090205485018610156129a25760405162461bcd60e51b815260206004820152601d60248201527f65786365656473206d6178696d756d20616c6c6f776564206c696d69740000006044820152606401610bda565b3485610113540211156129f75760405162461bcd60e51b815260206004820152601860248201527f696e73756666696369656e7420616d6f756e74207061696400000000000000006044820152606401610bda565b612a013386613095565b505061010380548401905533600090815261011960209081526040808320805487019055610113546001600160a01b03959095168352610109909152902080546064929093029093020490810190915561010a8054909101905550565b60006123826101145442101561011554421115612b31565b6001600160a01b038516331480612a925750612a928533610a7d565b612aae5760405162461bcd60e51b8152600401610bda90614e0e565b61197d85858585856134a2565b612ac3612b44565b6001600160a01b038116612b285760405162461bcd60e51b815260206004820152602660248201527f4f776e61626c653a206e6577206f776e657220697320746865207a65726f206160448201526564647265737360d01b6064820152608401610bda565b611be3816130fc565b6000828015612b3d5750815b9392505050565b6097546001600160a01b031633146123435760405162461bcd60e51b815260206004820181905260248201527f4f776e61626c653a2063616c6c6572206973206e6f7420746865206f776e65726044820152606401610bda565b606081600003612bc55750506040805180820190915260018152600360fc1b602082015290565b8160005b8115612bef5780612bd981614f00565b9150612be89050600a83614f67565b9150612bc9565b6000816001600160401b03811115612c0957612c09614258565b6040519080825280601f01601f191660200182016040528015612c33576020820181803683370190505b5090505b8415612c9e57612c48600183614c96565b9150612c55600a86614f7b565b612c60906030614dfb565b60f81b818381518110612c7557612c75614c54565b60200101906001600160f81b031916908160001a905350612c97600a86614f67565b9450612c37565b949350505050565b610101544210156123435760405162461bcd60e51b815260206004820152601960248201527f7075626c69632073616c65206e6f742079657420656e646564000000000000006044820152606401610bda565b600054610100900460ff16612d205760405162461bcd60e51b8152600401610bda90614f8f565b611be3816135d0565b600054610100900460ff16612d505760405162461bcd60e51b8152600401610bda90614f8f565b612343613600565b8151835114612dba5760405162461bcd60e51b815260206004820152602860248201527f455243313135353a2069647320616e6420616d6f756e7473206c656e677468206044820152670dad2e6dac2e8c6d60c31b6064820152608401610bda565b6001600160a01b038416612de05760405162461bcd60e51b8152600401610bda90614fda565b3360005b8451811015612eca576000858281518110612e0157612e01614c54565b602002602001015190506000858381518110612e1f57612e1f614c54565b60209081029190910181015160008481526065835260408082206001600160a01b038e168352909352919091205490915081811015612e705760405162461bcd60e51b8152600401610bda9061501f565b60008381526065602090815260408083206001600160a01b038e8116855292528083208585039055908b16825281208054849290612eaf908490614dfb565b9250508190555050505080612ec390614f00565b9050612de4565b50846001600160a01b0316866001600160a01b0316826001600160a01b03167f4a39dc06d4c0dbc64b70af90fd698a233a518aa5d07e595d983b8c0526c8f7fb8787604051612f1a929190615069565b60405180910390a4612f30818787878787613630565b505050505050565b6101155442116123435760405162461bcd60e51b815260206004820152601d60248201527f746865207072652d73616c65206973206e6f742079657420656e6465640000006044820152606401610bda565b60016101105414612fad5760405162461bcd60e51b8152600401610bda90614f19565b612fb5613794565b612fbe816137df565b612fc83382613095565b3360009081526101086020526040902080549091019055565b612ff46000821161011754831115612b31565b6130395760405162461bcd60e51b8152602060048201526016602482015275496e76616c696420546f6b656e205175616e7469747960501b6044820152606401610bda565b61011254610118540160fe5482011115611be35760405162461bcd60e51b815260206004820152601860248201527f657863656564696e672070726573616c6520737570706c7900000000000000006044820152606401610bda565b6000805b82811015612742576130a961393d565b91506130b760fe5460010190565b60fe819055506130e48483600160405180604001604052806002815260200161060f60f31b81525061399d565b600101613099565b60008280612b3d57509092915050565b609780546001600160a01b038381166001600160a01b0319831681179093556040519116919082907f8be0079c531659141344cd1fd0a4f28419497f9722a3daafe3b4186f6b6457e090600090a35050565b600080600061315d8585613aaa565b91509150611bca81613b18565b816001600160a01b0316836001600160a01b0316036131dd5760405162461bcd60e51b815260206004820152602960248201527f455243313135353a2073657474696e6720617070726f76616c20737461747573604482015268103337b91039b2b63360b91b6064820152608401610bda565b6001600160a01b03838116600081815260666020908152604080832094871680845294825291829020805460ff191686151590811790915591519182527f17307eab39ab6107e8899845ad3d59bd9653f200f220920489ca2b5937696c31910160405180910390a3505050565b613252613cce565b6101145442106132ab578035156132ab5760405162461bcd60e51b815260206004820152601e60248201527f41697264726f703a20496e76616c69642050726573616c6520536861726500006044820152606401610bda565b61011854610111546132be908335614dfb565b11156133185760405162461bcd60e51b815260206004820152602360248201527f41697264726f703a2050726573616c65207368617265206e6f7420696e2072616044820152626e676560e81b6064820152608401610bda565b613323838383613d3c565b61011180548235019055610112805460209092013590910190555050565b600161011054146133645760405162461bcd60e51b8152600401610bda90614f19565b61336c613794565b6001600160a01b0383166133aa5760405162461bcd60e51b815260206004820152600560248201526410bab9b2b960d91b6044820152606401610bda565b60006133b7338585611a1f565b90506133c38183612345565b6133df5760405162461bcd60e51b8152600401610bda90614f3c565b6133e8856137df565b6133f23386613095565b5050610103805484019055610105546001600160a01b0392909216600090815261010960209081526040808320805460649590960287029490940494850190935561010a8054909401909355338152610108909252902080549091019055565b61345b81613edb565b60fd6134678282614d3c565b507f3d7a9962f6da134f6896430d6867bd08e3546dbf9570df877e7cec39ba4305f0816040516134979190614245565b60405180910390a150565b6001600160a01b0384166134c85760405162461bcd60e51b8152600401610bda90614fda565b3360006134d485613ee7565b905060006134e185613ee7565b905060008681526065602090815260408083206001600160a01b038c168452909152902054858110156135265760405162461bcd60e51b8152600401610bda9061501f565b60008781526065602090815260408083206001600160a01b038d8116855292528083208985039055908a16825281208054889290613565908490614dfb565b909155505060408051888152602081018890526001600160a01b03808b16928c821692918816917fc3d58168c5ae7397731d063d5bbf3d657854427343f4c083240f7aacaa2d0f62910160405180910390a46135c5848a8a8a8a8a613f32565b505050505050505050565b600054610100900460ff166135f75760405162461bcd60e51b8152600401610bda90614f8f565b611be381613edb565b600054610100900460ff166136275760405162461bcd60e51b8152600401610bda90614f8f565b612343336130fc565b6001600160a01b0384163b15612f305760405163bc197c8160e01b81526001600160a01b0385169063bc197c81906136749089908990889088908890600401615097565b6020604051808303816000875af19250505080156136af575060408051601f3d908101601f191682019092526136ac918101906150f5565b60015b61375b576136bb615112565b806308c379a0036136f457506136cf61512e565b806136da57506136f6565b8060405162461bcd60e51b8152600401610bda9190614245565b505b60405162461bcd60e51b815260206004820152603460248201527f455243313135353a207472616e7366657220746f206e6f6e20455243313135356044820152732932b1b2b4bb32b91034b6b83632b6b2b73a32b960611b6064820152608401610bda565b6001600160e01b0319811663bc197c8160e01b1461378b5760405162461bcd60e51b8152600401610bda906151b7565b50505050505050565b61379c61236a565b6123435760405162461bcd60e51b81526020600482015260146024820152735075626c69632053616c652d6e6f74206c69766560601b6044820152606401610bda565b6137f26000821161010654831115612b31565b6138375760405162461bcd60e51b8152602060048201526016602482015275496e76616c696420546f6b656e205175616e7469747960501b6044820152606401610bda565b610102548160fe540111156138835760405162461bcd60e51b815260206004820152601260248201527132bc31b2b2b21036b0bc1039bab838363c9760711b6044820152606401610bda565b3481610105540211156138d85760405162461bcd60e51b815260206004820152601760248201527f706179206d696e696d756d20746f6b656e2070726963650000000000000000006044820152606401610bda565b61010754336000908152610108602052604090205482011115611be35760405162461bcd60e51b815260206004820152601c60248201527f657863656564206d6178696d756d20616c6c6f776564206c696d6974000000006044820152606401610bda565b60006101025460fe5411156139885760405162461bcd60e51b8152602060048201526011602482015270657863656564206d617820537570706c7960781b6044820152606401610bda565b61399660ff80546001019055565b5060ff5490565b6001600160a01b0384166139fd5760405162461bcd60e51b815260206004820152602160248201527f455243313135353a206d696e7420746f20746865207a65726f206164647265736044820152607360f81b6064820152608401610bda565b336000613a0985613ee7565b90506000613a1685613ee7565b905060008681526065602090815260408083206001600160a01b038b16845290915281208054879290613a4a908490614dfb565b909155505060408051878152602081018790526001600160a01b03808a1692600092918716917fc3d58168c5ae7397731d063d5bbf3d657854427343f4c083240f7aacaa2d0f62910160405180910390a461378b83600089898989613f32565b6000808251604103613ae05760208301516040840151606085015160001a613ad487828585613fed565b94509450505050613b11565b8251604003613b095760208301516040840151613afe8683836140da565b935093505050613b11565b506000905060025b9250929050565b6000816004811115613b2c57613b2c6151ff565b03613b345750565b6001816004811115613b4857613b486151ff565b03613b955760405162461bcd60e51b815260206004820152601860248201527f45434453413a20696e76616c6964207369676e617475726500000000000000006044820152606401610bda565b6002816004811115613ba957613ba96151ff565b03613bf65760405162461bcd60e51b815260206004820152601f60248201527f45434453413a20696e76616c6964207369676e6174757265206c656e677468006044820152606401610bda565b6003816004811115613c0a57613c0a6151ff565b03613c625760405162461bcd60e51b815260206004820152602260248201527f45434453413a20696e76616c6964207369676e6174757265202773272076616c604482015261756560f01b6064820152608401610bda565b6004816004811115613c7657613c766151ff565b03611be35760405162461bcd60e51b815260206004820152602260248201527f45434453413a20696e76616c6964207369676e6174757265202776272076616c604482015261756560f01b6064820152608401610bda565b613cf9613ce56101005442106101015442116130ec565b6122926101145442106101155442116130ec565b6123435760405162461bcd60e51b815260206004820152601460248201527341697264726f703a496e76616c69642054696d6560601b6044820152606401610bda565b81613d5281151583356020850135018314612b31565b613d9e5760405162461bcd60e51b815260206004820152601760248201527f41697264726f703a204d69736d617463682d496e7075740000000000000000006044820152606401610bda565b6101025460fe5482011115613df55760405162461bcd60e51b815260206004820152601b60248201527f41697264726f703a2065786365656473206d617820537570706c7900000000006044820152606401610bda565b60005b8181101561197d576000858583818110613e1457613e14614c54565b9050602002016020810190613e2991906148e2565b6001600160a01b031603613e735760405162461bcd60e51b8152602060048201526011602482015270125b9d985b1a59081c9958da5c1a595b9d607a1b6044820152606401610bda565b613e7b614113565b60fe5460010160fe55613ed3858583818110613e9957613e99614c54565b9050602002016020810190613eae91906148e2565b60ff54600160405180604001604052806002815260200161060f60f31b81525061399d565b600101613df8565b6067610ebf8282614d3c565b60408051600180825281830190925260609160009190602080830190803683370190505090508281600081518110613f2157613f21614c54565b602090810291909101015292915050565b6001600160a01b0384163b15612f305760405163f23a6e6160e01b81526001600160a01b0385169063f23a6e6190613f769089908990889088908890600401615215565b6020604051808303816000875af1925050508015613fb1575060408051601f3d908101601f19168201909252613fae918101906150f5565b60015b613fbd576136bb615112565b6001600160e01b0319811663f23a6e6160e01b1461378b5760405162461bcd60e51b8152600401610bda906151b7565b6000807f7fffffffffffffffffffffffffffffff5d576e7357a4501ddfe92f46681b20a083111561402457506000905060036140d1565b8460ff16601b1415801561403c57508460ff16601c14155b1561404d57506000905060046140d1565b6040805160008082526020820180845289905260ff881692820192909252606081018690526080810185905260019060a0016020604051602081039080840390855afa1580156140a1573d6000803e3d6000fd5b5050604051601f1901519150506001600160a01b0381166140ca576000600192509250506140d1565b9150600090505b94509492505050565b6000806001600160ff1b038316816140f760ff86901c601b614dfb565b905061410587828885613fed565b935093505050935093915050565b61412c6101025460fe5411156101025460ff5410612b31565b61416e5760405162461bcd60e51b8152602060048201526013602482015272105b1b0815985b1d595cc8185cdcda59db9959606a1b6044820152606401610bda565b61234360ff80546001019055565b80356001600160a01b038116811461419357600080fd5b919050565b600080604083850312156141ab57600080fd5b6141b48361417c565b946020939093013593505050565b6001600160e01b031981168114611be357600080fd5b6000602082840312156141ea57600080fd5b8135612b3d816141c2565b60005b838110156142105781810151838201526020016141f8565b50506000910152565b600081518084526142318160208601602086016141f5565b601f01601f19169290920160200192915050565b602081526000612b3d6020830184614219565b634e487b7160e01b600052604160045260246000fd5b601f8201601f191681016001600160401b038111828210171561429357614293614258565b6040525050565b60006001600160401b038211156142b3576142b3614258565b5060051b60200190565b600082601f8301126142ce57600080fd5b813560206142db8261429a565b6040516142e8828261426e565b83815260059390931b850182019282810191508684111561430857600080fd5b8286015b8481101561432a5761431d8161417c565b835291830191830161430c565b509695505050505050565b60006020828403121561434757600080fd5b81356001600160401b0381111561435d57600080fd5b612c9e848285016142bd565b60006020828403121561437b57600080fd5b5035919050565b600082601f83011261439357600080fd5b81356001600160401b038111156143ac576143ac614258565b6040516143c3601f8301601f19166020018261426e565b8181528460208386010111156143d857600080fd5b816020850160208301376000918101602001919091529392505050565b600060a0828403121561440757600080fd5b60405160a081018181106001600160401b038211171561442957614429614258565b806040525080915082358152602083013560208201526040830135604082015260608301356060820152608083013560808201525092915050565b60008060008060008060008060006102208a8c03121561448357600080fd5b89356001600160401b038082111561449a57600080fd5b6144a68d838e01614382565b9a5060208c01359150808211156144bc57600080fd5b6144c88d838e01614382565b995060408c01359150808211156144de57600080fd5b6144ea8d838e01614382565b985060608c013591508082111561450057600080fd5b61450c8d838e01614382565b975060808c0135965060a08c013591508082111561452957600080fd5b506145368c828d01614382565b9450506145468b60c08c016143f5565b92506145568b6101608c016143f5565b91506145656102008b0161417c565b90509295985092959850929598565b600082601f83011261458557600080fd5b813560206145928261429a565b60405161459f828261426e565b83815260059390931b85018201928281019150868411156145bf57600080fd5b8286015b8481101561432a57803583529183019183016145c3565b600080600080600060a086880312156145f257600080fd5b6145fb8661417c565b94506146096020870161417c565b935060408601356001600160401b038082111561462557600080fd5b61463189838a01614574565b9450606088013591508082111561464757600080fd5b61465389838a01614574565b9350608088013591508082111561466957600080fd5b5061467688828901614382565b9150509295509295909350565b6000806000806080858703121561469957600080fd5b6146a28561417c565b9350602085013592506146b76040860161417c565b9396929550929360600135925050565b6000806000606084860312156146dc57600080fd5b6146e58461417c565b92506146f36020850161417c565b9150604084013590509250925092565b6000806040838503121561471657600080fd5b82356001600160401b038082111561472d57600080fd5b614739868387016142bd565b9350602085013591508082111561474f57600080fd5b5061475c85828601614574565b9150509250929050565b600081518084526020808501945080840160005b838110156147965781518752958201959082019060010161477a565b509495945050505050565b602081526000612b3d6020830184614766565b6000806000606084860312156147c957600080fd5b833592506020840135915060408401356001600160401b038111156147ed57600080fd5b6147f986828701614382565b9150509250925092565b6000806000806000806000806000806101408b8d03121561482357600080fd5b505088359a60208a01359a5060408a013599606081013599506080810135985060a0810135975060c0810135965060e081013595506101008101359450610120013592509050565b600080600080600060a0868803121561488357600080fd5b505083359560208501359550604085013594606081013594506080013592509050565b600080604083850312156148b957600080fd5b8235915060208301356001600160401b038111156148d657600080fd5b61475c85828601614382565b6000602082840312156148f457600080fd5b612b3d8261417c565b6000806040838503121561491057600080fd5b6149198361417c565b91506020830135801515811461492e57600080fd5b809150509250929050565b60008060006060848603121561494e57600080fd5b83356001600160401b038082111561496557600080fd5b818601915086601f83011261497957600080fd5b81358181111561498857600080fd5b8760208260051b850101111561499d57600080fd5b602083019550809450505050846060850111156149b957600080fd5b6020840190509250925092565b600080604083850312156149d957600080fd5b823591506149e96020840161417c565b90509250929050565b60008060008060808587031215614a0857600080fd5b84359350614a186020860161417c565b92506040850135915060608501356001600160401b03811115614a3a57600080fd5b614a4687828801614382565b91505092959194509250565b600060208284031215614a6457600080fd5b81356001600160401b03811115614a7a57600080fd5b612c9e84828501614382565b600080600080600060a08688031215614a9e57600080fd5b8535945060208601359350614ab56040870161417c565b92506060860135915060808601356001600160401b03811115614ad757600080fd5b61467688828901614382565b60008060408385031215614af657600080fd5b614aff8361417c565b91506149e96020840161417c565b600080600080600060a08688031215614b2557600080fd5b614b2e8661417c565b9450614b3c6020870161417c565b9350604086013592506060860135915060808601356001600160401b03811115614ad757600080fd5b600181811c90821680614b7957607f821691505b602082108103614b9957634e487b7160e01b600052602260045260246000fd5b50919050565b60008154614bac81614b65565b60018281168015614bc45760018114614bd957614c08565b60ff1984168752821515830287019450614c08565b8560005260208060002060005b85811015614bff5781548a820152908401908201614be6565b50505082870194505b5050505092915050565b60006001600160601b0319808860601b168352866014840152856034840152614c3e6054840186614b9f565b60609490941b1683525050601401949350505050565b634e487b7160e01b600052603260045260246000fd5b634e487b7160e01b600052601260045260246000fd5b634e487b7160e01b600052601160045260246000fd5b81810381811115610c0857610c08614c80565b6020808252600e908201526d2332b29d2a3c103330b4b632b21760911b604082015260600190565b6000614cdd8285614b9f565b8351614ced8183602088016141f5565b01949350505050565b601f82111561267557600081815260208120601f850160051c81016020861015614d1d5750805b601f850160051c820191505b81811015612f3057828155600101614d29565b81516001600160401b03811115614d5557614d55614258565b614d6981614d638454614b65565b84614cf6565b602080601f831160018114614d9e5760008415614d865750858301515b600019600386901b1c1916600185901b178555612f30565b600085815260208120601f198616915b82811015614dcd57888601518255948401946001909101908401614dae565b5085821015614deb5787850151600019600388901b60f8161c191681555b5050505050600190811b01905550565b80820180821115610c0857610c08614c80565b6020808252602f908201527f455243313135353a2063616c6c6572206973206e6f7420746f6b656e206f776e60408201526e195c881b9bdc88185c1c1c9bdd9959608a1b606082015260800190565b60006001600160601b0319808a60601b168352886014840152876034840152808760601b166054840152856068840152614e9a6088840186614b9f565b60609490941b16835250506014019695505050505050565b60006001600160601b0319808960601b168352876014840152808760601b166034840152856048840152614ee96068840186614b9f565b60609490941b168352505060140195945050505050565b600060018201614f1257614f12614c80565b5060010190565b60208082526009908201526808585c1c1c9bdd995960ba1b604082015260600190565b602080825260119082015270696e76616c69642d7369676e617475726560781b604082015260600190565b600082614f7657614f76614c6a565b500490565b600082614f8a57614f8a614c6a565b500690565b6020808252602b908201527f496e697469616c697a61626c653a20636f6e7472616374206973206e6f74206960408201526a6e697469616c697a696e6760a81b606082015260800190565b60208082526025908201527f455243313135353a207472616e7366657220746f20746865207a65726f206164604082015264647265737360d81b606082015260800190565b6020808252602a908201527f455243313135353a20696e73756666696369656e742062616c616e636520666f60408201526939103a3930b739b332b960b11b606082015260800190565b60408152600061507c6040830185614766565b828103602084015261508e8185614766565b95945050505050565b6001600160a01b0386811682528516602082015260a0604082018190526000906150c390830186614766565b82810360608401526150d58186614766565b905082810360808401526150e98185614219565b98975050505050505050565b60006020828403121561510757600080fd5b8151612b3d816141c2565b600060033d111561512b5760046000803e5060005160e01c5b90565b600060443d101561513c5790565b6040516003193d81016004833e81513d6001600160401b03816024840111818411171561516b57505050505090565b82850191508151818111156151835750505050505090565b843d870101602082850101111561519d5750505050505090565b6151ac6020828601018761426e565b509095945050505050565b60208082526028908201527f455243313135353a204552433131353552656365697665722072656a656374656040820152676420746f6b656e7360c01b606082015260800190565b634e487b7160e01b600052602160045260246000fd5b6001600160a01b03868116825285166020820152604081018490526060810183905260a06080820181905260009061524f90830184614219565b97965050505050505056fea264697066735822122083372c6dd0826b38dd85ba50bd74e3923ad02b9dc9f9bd9b795e70232e7a584564736f6c63430008110033",
  "linkReferences": {},
  "deployedLinkReferences": {}
}