{
  "_format": "hh-sol-artifact-1",
  "contractName": "NFTWithPresaleWithRandomDelayed",
  "sourceName": "contracts/Sales/NFTWithPresaleWithRandomDelayed.sol",
  "abi": [
    {
      "anonymous": false,
      "inputs": [
        {
          "indexed": true,
          "internalType": "address",
          "name": "account",
          "type": "address"
        },
        {
          "indexed": true,
          "internalType": "address",
          "name": "operator",
          "type": "address"
        },
        {
          "indexed": false,
          "internalType": "bool",
          "name": "approved",
          "type": "bool"
        }
      ],
      "name": "ApprovalForAll",
      "type": "event"
    },
    {
      "anonymous": false,
      "inputs": [
        {
          "indexed": false,
          "internalType": "uint8",
          "name": "version",
          "type": "uint8"
        }
      ],
      "name": "Initialized",
      "type": "event"
    },
    {
      "anonymous": false,
      "inputs": [
        {
          "indexed": true,
          "internalType": "address",
          "name": "previousOwner",
          "type": "address"
        },
        {
          "indexed": true,
          "internalType": "address",
          "name": "newOwner",
          "type": "address"
        }
      ],
      "name": "OwnershipTransferred",
      "type": "event"
    },
    {
      "anonymous": false,
      "inputs": [
        {
          "indexed": true,
          "internalType": "bytes32",
          "name": "requestId",
          "type": "bytes32"
        },
        {
          "indexed": false,
          "internalType": "uint256",
          "name": "randomNumber",
          "type": "uint256"
        }
      ],
      "name": "RandomNumberCompleted",
      "type": "event"
    },
    {
      "anonymous": false,
      "inputs": [
        {
          "indexed": true,
          "internalType": "address",
          "name": "sender",
          "type": "address"
        },
        {
          "indexed": true,
          "internalType": "bytes32",
          "name": "vrfRequestId",
          "type": "bytes32"
        }
      ],
      "name": "RandomNumberRequested",
      "type": "event"
    },
    {
      "anonymous": false,
      "inputs": [
        {
          "indexed": false,
          "internalType": "uint256",
          "name": "time",
          "type": "uint256"
        }
      ],
      "name": "TokensRevealed",
      "type": "event"
    },
    {
      "anonymous": false,
      "inputs": [
        {
          "indexed": true,
          "internalType": "address",
          "name": "operator",
          "type": "address"
        },
        {
          "indexed": true,
          "internalType": "address",
          "name": "from",
          "type": "address"
        },
        {
          "indexed": true,
          "internalType": "address",
          "name": "to",
          "type": "address"
        },
        {
          "indexed": false,
          "internalType": "uint256[]",
          "name": "ids",
          "type": "uint256[]"
        },
        {
          "indexed": false,
          "internalType": "uint256[]",
          "name": "values",
          "type": "uint256[]"
        }
      ],
      "name": "TransferBatch",
      "type": "event"
    },
    {
      "anonymous": false,
      "inputs": [
        {
          "indexed": true,
          "internalType": "address",
          "name": "operator",
          "type": "address"
        },
        {
          "indexed": true,
          "internalType": "address",
          "name": "from",
          "type": "address"
        },
        {
          "indexed": true,
          "internalType": "address",
          "name": "to",
          "type": "address"
        },
        {
          "indexed": false,
          "internalType": "uint256",
          "name": "id",
          "type": "uint256"
        },
        {
          "indexed": false,
          "internalType": "uint256",
          "name": "value",
          "type": "uint256"
        }
      ],
      "name": "TransferSingle",
      "type": "event"
    },
    {
      "anonymous": false,
      "inputs": [
        {
          "indexed": false,
          "internalType": "string",
          "name": "uri",
          "type": "string"
        }
      ],
      "name": "URI",
      "type": "event"
    },
    {
      "anonymous": false,
      "inputs": [
        {
          "indexed": false,
          "internalType": "string",
          "name": "value",
          "type": "string"
        },
        {
          "indexed": true,
          "internalType": "uint256",
          "name": "id",
          "type": "uint256"
        }
      ],
      "name": "URI",
      "type": "event"
    },
    {
      "inputs": [
        {
          "internalType": "string",
          "name": "_name",
          "type": "string"
        },
        {
          "internalType": "string",
          "name": "_symbol",
          "type": "string"
        },
        {
          "internalType": "string",
          "name": "_saleType",
          "type": "string"
        },
        {
          "internalType": "string",
          "name": "_baseUri",
          "type": "string"
        },
        {
          "internalType": "uint256",
          "name": "_maxSupply",
          "type": "uint256"
        },
        {
          "internalType": "string",
          "name": "_saleId",
          "type": "string"
        },
        {
          "components": [
            {
              "internalType": "uint256",
              "name": "_preSaleMintCost",
              "type": "uint256"
            },
            {
              "internalType": "uint256",
              "name": "_preSaleStartTime",
              "type": "uint256"
            },
            {
              "internalType": "uint256",
              "name": "_preSaleDuration",
              "type": "uint256"
            },
            {
              "internalType": "uint256",
              "name": "_maxTokenPerMintPreSale",
              "type": "uint256"
            },
            {
              "internalType": "uint256",
              "name": "_limitSupplyInPreSale",
              "type": "uint256"
            }
          ],
          "internalType": "struct BaseNFTWithPresale.preSaleConfig",
          "name": "_preSaleConfig",
          "type": "tuple"
        },
        {
          "components": [
            {
              "internalType": "uint256",
              "name": "_publicSaleMintCost",
              "type": "uint256"
            },
            {
              "internalType": "uint256",
              "name": "_publicSaleBufferDuration",
              "type": "uint256"
            },
            {
              "internalType": "uint256",
              "name": "_publicSaleDuration",
              "type": "uint256"
            },
            {
              "internalType": "uint256",
              "name": "_maxTokenPerMintPublicSale",
              "type": "uint256"
            },
            {
              "internalType": "uint256",
              "name": "_maxTokenPerPersonPublicSale",
              "type": "uint256"
            }
          ],
          "internalType": "struct BaseNFTWithPresale.publicSaleConfig",
          "name": "_publicSaleConfig",
          "type": "tuple"
        },
        {
          "internalType": "address",
          "name": "_signerAddress",
          "type": "address"
        },
        {
          "components": [
            {
              "internalType": "address",
              "name": "vrfCoordinator",
              "type": "address"
            },
            {
              "internalType": "address",
              "name": "link",
              "type": "address"
            },
            {
              "internalType": "bytes32",
              "name": "keyHash",
              "type": "bytes32"
            },
            {
              "internalType": "uint256",
              "name": "fee",
              "type": "uint256"
            }
          ],
          "internalType": "struct BaseNFTWithRandom.randomConfig",
          "name": "_randomConfig",
          "type": "tuple"
        }
      ],
      "name": "__NFTWithPresaleWithRandomDelayed_init",
      "outputs": [],
      "stateMutability": "nonpayable",
      "type": "function"
    },
    {
      "inputs": [
        {
          "internalType": "address",
          "name": "",
          "type": "address"
        }
      ],
      "name": "affiliatedUserBalance",
      "outputs": [
        {
          "internalType": "uint256",
          "name": "",
          "type": "uint256"
        }
      ],
      "stateMutability": "view",
      "type": "function"
    },
    {
      "inputs": [],
      "name": "affiliatedWei",
      "outputs": [
        {
          "internalType": "uint256",
          "name": "",
          "type": "uint256"
        }
      ],
      "stateMutability": "view",
      "type": "function"
    },
    {
      "inputs": [
        {
          "internalType": "address",
          "name": "account",
          "type": "address"
        },
        {
          "internalType": "uint256",
          "name": "id",
          "type": "uint256"
        }
      ],
      "name": "balanceOf",
      "outputs": [
        {
          "internalType": "uint256",
          "name": "",
          "type": "uint256"
        }
      ],
      "stateMutability": "view",
      "type": "function"
    },
    {
      "inputs": [
        {
          "internalType": "address[]",
          "name": "accounts",
          "type": "address[]"
        },
        {
          "internalType": "uint256[]",
          "name": "ids",
          "type": "uint256[]"
        }
      ],
      "name": "balanceOfBatch",
      "outputs": [
        {
          "internalType": "uint256[]",
          "name": "",
          "type": "uint256[]"
        }
      ],
      "stateMutability": "view",
      "type": "function"
    },
    {
      "inputs": [],
      "name": "baseUri",
      "outputs": [
        {
          "internalType": "string",
          "name": "",
          "type": "string"
        }
      ],
      "stateMutability": "view",
      "type": "function"
    },
    {
      "inputs": [
        {
          "internalType": "address[]",
          "name": "affiliatedUser",
          "type": "address[]"
        }
      ],
      "name": "checkAffiliatedFunds",
      "outputs": [],
      "stateMutability": "view",
      "type": "function"
    },
    {
      "inputs": [
        {
          "internalType": "address[]",
          "name": "_list",
          "type": "address[]"
        },
        {
          "internalType": "uint256[2]",
          "name": "_shares",
          "type": "uint256[2]"
        }
      ],
      "name": "createAirdrop",
      "outputs": [],
      "stateMutability": "nonpayable",
      "type": "function"
    },
    {
      "inputs": [],
      "name": "dropFee",
      "outputs": [
        {
          "internalType": "uint256",
          "name": "",
          "type": "uint256"
        }
      ],
      "stateMutability": "view",
      "type": "function"
    },
    {
      "inputs": [],
      "name": "factory",
      "outputs": [
        {
          "internalType": "address",
          "name": "",
          "type": "address"
        }
      ],
      "stateMutability": "view",
      "type": "function"
    },
    {
      "inputs": [],
      "name": "fee",
      "outputs": [
        {
          "internalType": "uint256",
          "name": "",
          "type": "uint256"
        }
      ],
      "stateMutability": "view",
      "type": "function"
    },
    {
      "inputs": [],
      "name": "feeReceiver",
      "outputs": [
        {
          "internalType": "address",
          "name": "",
          "type": "address"
        }
      ],
      "stateMutability": "view",
      "type": "function"
    },
    {
      "inputs": [],
      "name": "feesCollected",
      "outputs": [
        {
          "internalType": "uint256",
          "name": "",
          "type": "uint256"
        }
      ],
      "stateMutability": "view",
      "type": "function"
    },
    {
      "inputs": [
        {
          "internalType": "uint256",
          "name": "_tokenID",
          "type": "uint256"
        }
      ],
      "name": "getAssetId",
      "outputs": [
        {
          "internalType": "uint256",
          "name": "",
          "type": "uint256"
        }
      ],
      "stateMutability": "view",
      "type": "function"
    },
    {
      "inputs": [],
      "name": "getLinkAddress",
      "outputs": [
        {
          "internalType": "address",
          "name": "",
          "type": "address"
        }
      ],
      "stateMutability": "view",
      "type": "function"
    },
    {
      "inputs": [],
      "name": "getRandomNumber",
      "outputs": [
        {
          "internalType": "uint256",
          "name": "",
          "type": "uint256"
        }
      ],
      "stateMutability": "view",
      "type": "function"
    },
    {
      "inputs": [
        {
          "internalType": "address",
          "name": "sender",
          "type": "address"
        },
        {
          "internalType": "uint256",
          "name": "tokenQuantity",
          "type": "uint256"
        }
      ],
      "name": "hashforPresale",
      "outputs": [
        {
          "internalType": "bytes32",
          "name": "",
          "type": "bytes32"
        }
      ],
      "stateMutability": "view",
      "type": "function"
    },
    {
      "inputs": [
        {
          "internalType": "address",
          "name": "sender",
          "type": "address"
        },
        {
          "internalType": "uint256",
          "name": "tokenQuantity",
          "type": "uint256"
        },
        {
          "internalType": "address",
          "name": "affiliatedUser",
          "type": "address"
        },
        {
          "internalType": "uint256",
          "name": "commission",
          "type": "uint256"
        }
      ],
      "name": "hashforPresaleAffiliated",
      "outputs": [
        {
          "internalType": "bytes32",
          "name": "",
          "type": "bytes32"
        }
      ],
      "stateMutability": "view",
      "type": "function"
    },
    {
      "inputs": [
        {
          "internalType": "address",
          "name": "sender",
          "type": "address"
        },
        {
          "internalType": "address",
          "name": "affiliatedUser",
          "type": "address"
        },
        {
          "internalType": "uint256",
          "name": "commission",
          "type": "uint256"
        }
      ],
      "name": "hashforPublicSaleAffiliated",
      "outputs": [
        {
          "internalType": "bytes32",
          "name": "",
          "type": "bytes32"
        }
      ],
      "stateMutability": "view",
      "type": "function"
    },
    {
      "inputs": [
        {
          "internalType": "address",
          "name": "account",
          "type": "address"
        },
        {
          "internalType": "address",
          "name": "operator",
          "type": "address"
        }
      ],
      "name": "isApprovedForAll",
      "outputs": [
        {
          "internalType": "bool",
          "name": "",
          "type": "bool"
        }
      ],
      "stateMutability": "view",
      "type": "function"
    },
    {
      "inputs": [],
      "name": "isDropApproved",
      "outputs": [
        {
          "internalType": "uint256",
          "name": "",
          "type": "uint256"
        }
      ],
      "stateMutability": "view",
      "type": "function"
    },
    {
      "inputs": [],
      "name": "isPreSaleLive",
      "outputs": [
        {
          "internalType": "bool",
          "name": "",
          "type": "bool"
        }
      ],
      "stateMutability": "view",
      "type": "function"
    },
    {
      "inputs": [],
      "name": "isPublicSaleLive",
      "outputs": [
        {
          "internalType": "bool",
          "name": "",
          "type": "bool"
        }
      ],
      "stateMutability": "view",
      "type": "function"
    },
    {
      "inputs": [],
      "name": "limitSupplyInPreSale",
      "outputs": [
        {
          "internalType": "uint256",
          "name": "",
          "type": "uint256"
        }
      ],
      "stateMutability": "view",
      "type": "function"
    },
    {
      "inputs": [
        {
          "internalType": "bytes32",
          "name": "hash",
          "type": "bytes32"
        },
        {
          "internalType": "bytes",
          "name": "signature",
          "type": "bytes"
        }
      ],
      "name": "matchAddressSigner",
      "outputs": [
        {
          "internalType": "bool",
          "name": "",
          "type": "bool"
        }
      ],
      "stateMutability": "view",
      "type": "function"
    },
    {
      "inputs": [],
      "name": "maxSupply",
      "outputs": [
        {
          "internalType": "uint256",
          "name": "",
          "type": "uint256"
        }
      ],
      "stateMutability": "view",
      "type": "function"
    },
    {
      "inputs": [],
      "name": "maxTokenPerMintPreSale",
      "outputs": [
        {
          "internalType": "uint256",
          "name": "",
          "type": "uint256"
        }
      ],
      "stateMutability": "view",
      "type": "function"
    },
    {
      "inputs": [],
      "name": "maxTokenPerMintPublicSale",
      "outputs": [
        {
          "internalType": "uint256",
          "name": "",
          "type": "uint256"
        }
      ],
      "stateMutability": "view",
      "type": "function"
    },
    {
      "inputs": [],
      "name": "maxTokenPerPersonPublicSale",
      "outputs": [
        {
          "internalType": "uint256",
          "name": "",
          "type": "uint256"
        }
      ],
      "stateMutability": "view",
      "type": "function"
    },
    {
      "inputs": [],
      "name": "name",
      "outputs": [
        {
          "internalType": "string",
          "name": "",
          "type": "string"
        }
      ],
      "stateMutability": "view",
      "type": "function"
    },
    {
      "inputs": [],
      "name": "owner",
      "outputs": [
        {
          "internalType": "address",
          "name": "",
          "type": "address"
        }
      ],
      "stateMutability": "view",
      "type": "function"
    },
    {
      "inputs": [],
      "name": "preSaleAirdropCount",
      "outputs": [
        {
          "internalType": "uint256",
          "name": "",
          "type": "uint256"
        }
      ],
      "stateMutability": "view",
      "type": "function"
    },
    {
      "inputs": [
        {
          "internalType": "uint256",
          "name": "tokenSignQuantity",
          "type": "uint256"
        },
        {
          "internalType": "uint256",
          "name": "tokenQuantity",
          "type": "uint256"
        },
        {
          "internalType": "bytes",
          "name": "signature",
          "type": "bytes"
        }
      ],
      "name": "preSaleBuy",
      "outputs": [],
      "stateMutability": "payable",
      "type": "function"
    },
    {
      "inputs": [
        {
          "internalType": "uint256",
          "name": "tokenSignQuantity",
          "type": "uint256"
        },
        {
          "internalType": "uint256",
          "name": "tokenQuantity",
          "type": "uint256"
        },
        {
          "internalType": "address",
          "name": "affiliatedUser",
          "type": "address"
        },
        {
          "internalType": "uint256",
          "name": "commission",
          "type": "uint256"
        },
        {
          "internalType": "bytes",
          "name": "signature",
          "type": "bytes"
        }
      ],
      "name": "preSaleBuyAffiliated",
      "outputs": [],
      "stateMutability": "payable",
      "type": "function"
    },
    {
      "inputs": [],
      "name": "preSaleEndTime",
      "outputs": [
        {
          "internalType": "uint256",
          "name": "",
          "type": "uint256"
        }
      ],
      "stateMutability": "view",
      "type": "function"
    },
    {
      "inputs": [],
      "name": "preSaleMintCost",
      "outputs": [
        {
          "internalType": "uint256",
          "name": "",
          "type": "uint256"
        }
      ],
      "stateMutability": "view",
      "type": "function"
    },
    {
      "inputs": [],
      "name": "preSaleStartTime",
      "outputs": [
        {
          "internalType": "uint256",
          "name": "",
          "type": "uint256"
        }
      ],
      "stateMutability": "view",
      "type": "function"
    },
    {
      "inputs": [
        {
          "internalType": "address",
          "name": "",
          "type": "address"
        }
      ],
      "name": "presalerListPurchases",
      "outputs": [
        {
          "internalType": "uint256",
          "name": "",
          "type": "uint256"
        }
      ],
      "stateMutability": "view",
      "type": "function"
    },
    {
      "inputs": [],
      "name": "publicSaleAirdropCount",
      "outputs": [
        {
          "internalType": "uint256",
          "name": "",
          "type": "uint256"
        }
      ],
      "stateMutability": "view",
      "type": "function"
    },
    {
      "inputs": [],
      "name": "publicSaleBufferDuration",
      "outputs": [
        {
          "internalType": "uint256",
          "name": "",
          "type": "uint256"
        }
      ],
      "stateMutability": "view",
      "type": "function"
    },
    {
      "inputs": [
        {
          "internalType": "uint256",
          "name": "tokenQuantity",
          "type": "uint256"
        }
      ],
      "name": "publicSaleBuy",
      "outputs": [],
      "stateMutability": "payable",
      "type": "function"
    },
    {
      "inputs": [
        {
          "internalType": "uint256",
          "name": "tokenQuantity",
          "type": "uint256"
        },
        {
          "internalType": "address",
          "name": "affiliatedUser",
          "type": "address"
        },
        {
          "internalType": "uint256",
          "name": "commission",
          "type": "uint256"
        },
        {
          "internalType": "bytes",
          "name": "signature",
          "type": "bytes"
        }
      ],
      "name": "publicSaleBuyAffiliated",
      "outputs": [],
      "stateMutability": "payable",
      "type": "function"
    },
    {
      "inputs": [],
      "name": "publicSaleEndTime",
      "outputs": [
        {
          "internalType": "uint256",
          "name": "",
          "type": "uint256"
        }
      ],
      "stateMutability": "view",
      "type": "function"
    },
    {
      "inputs": [],
      "name": "publicSaleMintCost",
      "outputs": [
        {
          "internalType": "uint256",
          "name": "",
          "type": "uint256"
        }
      ],
      "stateMutability": "view",
      "type": "function"
    },
    {
      "inputs": [],
      "name": "publicSaleStartTime",
      "outputs": [
        {
          "internalType": "uint256",
          "name": "",
          "type": "uint256"
        }
      ],
      "stateMutability": "view",
      "type": "function"
    },
    {
      "inputs": [
        {
          "internalType": "address",
          "name": "",
          "type": "address"
        }
      ],
      "name": "publicsalerListPurchases",
      "outputs": [
        {
          "internalType": "uint256",
          "name": "",
          "type": "uint256"
        }
      ],
      "stateMutability": "view",
      "type": "function"
    },
    {
      "inputs": [
        {
          "internalType": "bytes32",
          "name": "requestId",
          "type": "bytes32"
        },
        {
          "internalType": "uint256",
          "name": "randomness",
          "type": "uint256"
        }
      ],
      "name": "rawFulfillRandomness",
      "outputs": [],
      "stateMutability": "nonpayable",
      "type": "function"
    },
    {
      "inputs": [],
      "name": "renounceOwnership",
      "outputs": [],
      "stateMutability": "nonpayable",
      "type": "function"
    },
    {
      "inputs": [],
      "name": "requestRandomNumber",
      "outputs": [
        {
          "internalType": "bytes32",
          "name": "",
          "type": "bytes32"
        },
        {
          "internalType": "uint32",
          "name": "",
          "type": "uint32"
        }
      ],
      "stateMutability": "nonpayable",
      "type": "function"
    },
    {
      "inputs": [
        {
          "internalType": "string",
          "name": "_uri",
          "type": "string"
        }
      ],
      "name": "revealTokens",
      "outputs": [],
      "stateMutability": "nonpayable",
      "type": "function"
    },
    {
      "inputs": [],
      "name": "revealed",
      "outputs": [
        {
          "internalType": "bool",
          "name": "",
          "type": "bool"
        }
      ],
      "stateMutability": "view",
      "type": "function"
    },
    {
      "inputs": [
        {
          "internalType": "address",
          "name": "from",
          "type": "address"
        },
        {
          "internalType": "address",
          "name": "to",
          "type": "address"
        },
        {
          "internalType": "uint256[]",
          "name": "ids",
          "type": "uint256[]"
        },
        {
          "internalType": "uint256[]",
          "name": "amounts",
          "type": "uint256[]"
        },
        {
          "internalType": "bytes",
          "name": "data",
          "type": "bytes"
        }
      ],
      "name": "safeBatchTransferFrom",
      "outputs": [],
      "stateMutability": "nonpayable",
      "type": "function"
    },
    {
      "inputs": [
        {
          "internalType": "address",
          "name": "from",
          "type": "address"
        },
        {
          "internalType": "address",
          "name": "to",
          "type": "address"
        },
        {
          "internalType": "uint256",
          "name": "id",
          "type": "uint256"
        },
        {
          "internalType": "uint256",
          "name": "amount",
          "type": "uint256"
        },
        {
          "internalType": "bytes",
          "name": "data",
          "type": "bytes"
        }
      ],
      "name": "safeTransferFrom",
      "outputs": [],
      "stateMutability": "nonpayable",
      "type": "function"
    },
    {
      "inputs": [],
      "name": "saleId",
      "outputs": [
        {
          "internalType": "string",
          "name": "",
          "type": "string"
        }
      ],
      "stateMutability": "view",
      "type": "function"
    },
    {
      "inputs": [],
      "name": "saleType",
      "outputs": [
        {
          "internalType": "string",
          "name": "",
          "type": "string"
        }
      ],
      "stateMutability": "view",
      "type": "function"
    },
    {
      "inputs": [
        {
          "internalType": "address",
          "name": "operator",
          "type": "address"
        },
        {
          "internalType": "bool",
          "name": "approved",
          "type": "bool"
        }
      ],
      "name": "setApprovalForAll",
      "outputs": [],
      "stateMutability": "nonpayable",
      "type": "function"
    },
    {
      "inputs": [],
      "name": "setDropApproval",
      "outputs": [],
      "stateMutability": "nonpayable",
      "type": "function"
    },
    {
      "inputs": [
        {
          "internalType": "uint256",
          "name": "_fee",
          "type": "uint256"
        },
        {
          "internalType": "address",
          "name": "_wallet",
          "type": "address"
        }
      ],
      "name": "setDropFee",
      "outputs": [],
      "stateMutability": "nonpayable",
      "type": "function"
    },
    {
      "inputs": [
        {
          "internalType": "uint256",
          "name": "_version",
          "type": "uint256"
        }
      ],
      "name": "setVersion",
      "outputs": [],
      "stateMutability": "nonpayable",
      "type": "function"
    },
    {
      "inputs": [],
      "name": "signerAddress",
      "outputs": [
        {
          "internalType": "address",
          "name": "",
          "type": "address"
        }
      ],
      "stateMutability": "view",
      "type": "function"
    },
    {
      "inputs": [
        {
          "internalType": "bytes4",
          "name": "interfaceId",
          "type": "bytes4"
        }
      ],
      "name": "supportsInterface",
      "outputs": [
        {
          "internalType": "bool",
          "name": "",
          "type": "bool"
        }
      ],
      "stateMutability": "view",
      "type": "function"
    },
    {
      "inputs": [],
      "name": "symbol",
      "outputs": [
        {
          "internalType": "string",
          "name": "",
          "type": "string"
        }
      ],
      "stateMutability": "view",
      "type": "function"
    },
    {
      "inputs": [],
      "name": "totalMint",
      "outputs": [
        {
          "internalType": "uint256",
          "name": "",
          "type": "uint256"
        }
      ],
      "stateMutability": "view",
      "type": "function"
    },
    {
      "inputs": [],
      "name": "totalMintReferral",
      "outputs": [
        {
          "internalType": "uint256",
          "name": "",
          "type": "uint256"
        }
      ],
      "stateMutability": "view",
      "type": "function"
    },
    {
      "inputs": [
        {
          "internalType": "address[]",
          "name": "affiliatedUser",
          "type": "address[]"
        }
      ],
      "name": "transferAffiliatedFunds",
      "outputs": [],
      "stateMutability": "nonpayable",
      "type": "function"
    },
    {
      "inputs": [
        {
          "internalType": "address",
          "name": "newOwner",
          "type": "address"
        }
      ],
      "name": "transferOwnership",
      "outputs": [],
      "stateMutability": "nonpayable",
      "type": "function"
    },
    {
      "inputs": [
        {
          "internalType": "uint256",
          "name": "_preSaleMintCost",
          "type": "uint256"
        },
        {
          "internalType": "uint256",
          "name": "_preSaleStartTime",
          "type": "uint256"
        },
        {
          "internalType": "uint256",
          "name": "_preSaleDuration",
          "type": "uint256"
        },
        {
          "internalType": "uint256",
          "name": "_maxTokenPerMintPreSale",
          "type": "uint256"
        },
        {
          "internalType": "uint256",
          "name": "_limitSupplyInPreSale",
          "type": "uint256"
        },
        {
          "internalType": "uint256",
          "name": "_publicSaleMintCost",
          "type": "uint256"
        },
        {
          "internalType": "uint256",
          "name": "_publicSaleBufferDuration",
          "type": "uint256"
        },
        {
          "internalType": "uint256",
          "name": "_publicSaleDuration",
          "type": "uint256"
        },
        {
          "internalType": "uint256",
          "name": "_maxTokenPerMintPublicSale",
          "type": "uint256"
        },
        {
          "internalType": "uint256",
          "name": "_maxTokenPerPersonPublicSale",
          "type": "uint256"
        }
      ],
      "name": "updatePreSale",
      "outputs": [],
      "stateMutability": "nonpayable",
      "type": "function"
    },
    {
      "inputs": [
        {
          "internalType": "uint256",
          "name": "_publicSaleMintCost",
          "type": "uint256"
        },
        {
          "internalType": "uint256",
          "name": "_publicSaleBufferDuration",
          "type": "uint256"
        },
        {
          "internalType": "uint256",
          "name": "_publicSaleDuration",
          "type": "uint256"
        },
        {
          "internalType": "uint256",
          "name": "_maxTokenPerMintPublicSale",
          "type": "uint256"
        },
        {
          "internalType": "uint256",
          "name": "_maxTokenPerPersonPublicSale",
          "type": "uint256"
        }
      ],
      "name": "updatePublicSale",
      "outputs": [],
      "stateMutability": "nonpayable",
      "type": "function"
    },
    {
      "inputs": [
        {
          "internalType": "address",
          "name": "_signerAddress",
          "type": "address"
        }
      ],
      "name": "updateSignerAddress",
      "outputs": [],
      "stateMutability": "nonpayable",
      "type": "function"
    },
    {
      "inputs": [
        {
          "internalType": "string",
          "name": "_uri",
          "type": "string"
        }
      ],
      "name": "updateURI",
      "outputs": [],
      "stateMutability": "nonpayable",
      "type": "function"
    },
    {
      "inputs": [
        {
          "internalType": "uint256",
          "name": "_tokenId",
          "type": "uint256"
        }
      ],
      "name": "uri",
      "outputs": [
        {
          "internalType": "string",
          "name": "",
          "type": "string"
        }
      ],
      "stateMutability": "view",
      "type": "function"
    },
    {
      "inputs": [],
      "name": "version",
      "outputs": [
        {
          "internalType": "uint256",
          "name": "",
          "type": "uint256"
        }
      ],
      "stateMutability": "view",
      "type": "function"
    },
    {
      "inputs": [
        {
          "internalType": "address[]",
          "name": "affiliatedUser",
          "type": "address[]"
        }
      ],
      "name": "withdrawAffiliatedFunds",
      "outputs": [],
      "stateMutability": "nonpayable",
      "type": "function"
    },
    {
      "inputs": [
        {
          "internalType": "uint256",
          "name": "_amount",
          "type": "uint256"
        }
      ],
      "name": "withdrawLink",
      "outputs": [],
      "stateMutability": "nonpayable",
      "type": "function"
    },
    {
      "inputs": [
        {
          "internalType": "uint256",
          "name": "_amount",
          "type": "uint256"
        }
      ],
      "name": "withdrawWei",
      "outputs": [],
      "stateMutability": "nonpayable",
      "type": "function"
    }
  ],
  "bytecode": "0x608060405234801561001057600080fd5b50615dad80620000216000396000f3fe60806040526004361061043b5760003560e01c80638678a7b211610234578063c45a01551161012e578063dbdff2c1116100b6578063f242432a1161007a578063f242432a14610c54578063f2fde38b14610c74578063f32882cd14610c94578063f32a325614610cab578063f7bc596d14610cd957600080fd5b8063dbdff2c114610bb3578063ddca3f4314610bc8578063e985e9c514610bdf578063f071db5a14610c28578063f21852d014610c3f57600080fd5b8063cce29ea7116100fd578063cce29ea714610b37578063d50cf08e14610b4e578063d5abeb0114610b6e578063d70c764a14610b85578063d994a85714610b9c57600080fd5b8063c45a015514610aca578063c84c038714610aeb578063ca30e60314610b00578063cb8e743114610b2457600080fd5b80639bf80316116101bc578063b3f0067411610180578063b3f0067414610a4a578063ba1676e214610a6b578063ba3c944e14610a7e578063bacacaa014610a95578063c30f4a5a14610aaa57600080fd5b80639bf803161461098e578063a22cb465146109bc578063a25a2b4b146109dc578063a7f46367146109fc578063a829f0b514610a1c57600080fd5b80638fa2a9f0116102035780638fa2a9f01461090457806394985ddd1461092457806395d89b4114610944578063986646a7146109595780639abc83201461097957600080fd5b80638678a7b214610889578063887ce3ca146108b857806388ba7aa0146108cf5780638da5cb5b146108e657600080fd5b8063473c79fa116103455780635d6837ca116102cd578063715018a611610291578063715018a6146108085780637a8042bd1461081d5780637d25cf481461083d578063829b917b14610854578063862330711461087457600080fd5b80635d6837ca1461077a57806361f547fd1461079a5780636433972b146107ba5780636bb7b1d9146107da5780636c99a530146107f157600080fd5b806354fd4d501161031457806354fd4d50146106ec57806359a7715a146107035780635a1171bd146107195780635b7633d01461072c5780635bcc79281461076557600080fd5b8063473c79fa146106715780634e1273f41461069157806351830227146106be57806352188a39146106d957600080fd5b80631e4d185f116103c85780633102b6d0116103975780633102b6d0146105ec578063347bd980146106035780633dad116a1461061a578063408def1e1461063a57806340a6e3cd1461065a57600080fd5b80631e4d185f146105755780632340fac21461058c5780632982baaa146105ac5780632eb2c2d6146105cc57600080fd5b806308674b351161040f57806308674b35146104dc5780630b7c5c2f146104fc5780630d6f85631461051e5780630e89341c1461053e578063113cc2191461055e57600080fd5b8062fdd58e1461044057806301ffc9a71461047357806306d65af3146104a357806306fdde03146104ba575b600080fd5b34801561044c57600080fd5b5061046061045b366004614b0f565b610cf0565b6040519081526020015b60405180910390f35b34801561047f57600080fd5b5061049361048e366004614b4f565b610d8b565b604051901515815260200161046a565b3480156104af57600080fd5b506104606101145481565b3480156104c657600080fd5b506104cf610ddb565b60405161046a9190614bbc565b3480156104e857600080fd5b506104606104f7366004614b0f565b610e69565b34801561050857600080fd5b5061051c610517366004614cac565b610ef0565b005b34801561052a57600080fd5b5061051c610539366004614ce0565b611040565b34801561054a57600080fd5b506104cf610559366004614ce0565b611223565b34801561056a57600080fd5b506104606101175481565b34801561058157600080fd5b506104606101015481565b34801561059857600080fd5b5061051c6105a7366004614cac565b611257565b3480156105b857600080fd5b5061051c6105c7366004614e4c565b61148d565b3480156105d857600080fd5b5061051c6105e7366004614fd5565b611a44565b3480156105f857600080fd5b506104606101035481565b34801561060f57600080fd5b5061046061010a5481565b34801561062657600080fd5b5061046061063536600461507e565b611a90565b34801561064657600080fd5b5061051c610655366004614ce0565b611b1d565b34801561066657600080fd5b506104606101105481565b34801561067d57600080fd5b5061046061068c3660046150c2565b611b2b565b34801561069d57600080fd5b506106b16106ac3660046150fe565b611bb5565b60405161046a919061519c565b3480156106ca57600080fd5b5061011a546104939060ff1681565b61051c6106e7366004614ce0565b611cde565b3480156106f857600080fd5b506104606101235481565b34801561070f57600080fd5b5061046060fe5481565b61051c6107273660046151af565b611cf2565b34801561073857600080fd5b5061010b5461074d906001600160a01b031681565b6040516001600160a01b03909116815260200161046a565b34801561077157600080fd5b506104cf611ec1565b34801561078657600080fd5b5061051c6107953660046151fe565b611ecf565b3480156107a657600080fd5b506104606107b5366004614ce0565b612231565b3480156107c657600080fd5b5061051c6107d5366004615266565b612285565b3480156107e657600080fd5b506104606101005481565b3480156107fd57600080fd5b506104606101185481565b34801561081457600080fd5b5061051c612491565b34801561082957600080fd5b5061051c610838366004614ce0565b6124a5565b34801561084957600080fd5b506104606101135481565b34801561086057600080fd5b5061049361086f3660046152a1565b612654565b34801561088057600080fd5b50610493612679565b34801561089557600080fd5b5061089e612696565b6040805192835263ffffffff90911660208301520161046a565b3480156108c457600080fd5b506104606101055481565b3480156108db57600080fd5b506104606101115481565b3480156108f257600080fd5b506097546001600160a01b031661074d565b34801561091057600080fd5b5061051c61091f3660046152dd565b61284e565b34801561093057600080fd5b5061051c61093f3660046152f8565b6128b9565b34801561095057600080fd5b506104cf61291e565b34801561096557600080fd5b5061051c610974366004614cac565b61292b565b34801561098557600080fd5b506104cf612b53565b34801561099a57600080fd5b506104606109a93660046152dd565b6101196020526000908152604090205481565b3480156109c857600080fd5b5061051c6109d7366004615328565b612b60565b3480156109e857600080fd5b5061051c6109f736600461535f565b612b6b565b348015610a0857600080fd5b5061051c610a173660046153ec565b612c06565b348015610a2857600080fd5b50610460610a373660046152dd565b6101086020526000908152604090205481565b348015610a5657600080fd5b5061010c5461074d906001600160a01b031681565b61051c610a79366004615418565b612c72565b348015610a8a57600080fd5b5061046061010e5481565b348015610aa157600080fd5b5061051c612cd4565b348015610ab657600080fd5b5061051c610ac5366004615478565b612d63565b348015610ad657600080fd5b5061010d5461074d906001600160a01b031681565b348015610af757600080fd5b506104cf612d74565b348015610b0c57600080fd5b5061011a5461010090046001600160a01b031661074d565b61051c610b323660046154ac565b612d82565b348015610b4357600080fd5b506104606101155481565b348015610b5a57600080fd5b5061051c610b69366004615478565b612fea565b348015610b7a57600080fd5b506104606101025481565b348015610b9157600080fd5b506104606101075481565b348015610ba857600080fd5b506104606101065481565b348015610bbf57600080fd5b50610460613055565b348015610bd457600080fd5b5061046061011e5481565b348015610beb57600080fd5b50610493610bfa366004615509565b6001600160a01b03918216600090815260666020908152604080832093909416825291909152205460ff1690565b348015610c3457600080fd5b5061046061010f5481565b348015610c4b57600080fd5b50610493613083565b348015610c6057600080fd5b5061051c610c6f366004615533565b61309b565b348015610c8057600080fd5b5061051c610c8f3660046152dd565b6130e0565b348015610ca057600080fd5b506104606101125481565b348015610cb757600080fd5b50610460610cc63660046152dd565b6101096020526000908152604090205481565b348015610ce557600080fd5b506104606101165481565b60006001600160a01b038316610d605760405162461bcd60e51b815260206004820152602a60248201527f455243313135353a2061646472657373207a65726f206973206e6f742061207660448201526930b634b21037bbb732b960b11b60648201526084015b60405180910390fd5b5060008181526065602090815260408083206001600160a01b03861684529091529020545b92915050565b60006001600160e01b03198216636cdb3d1360e11b1480610dbc57506001600160e01b031982166303a24d0760e21b145b80610d8557506301ffc9a760e01b6001600160e01b0319831614610d85565b60fb8054610de89061558b565b80601f0160208091040260200160405190810160405280929190818152602001828054610e149061558b565b8015610e615780601f10610e3657610100808354040283529160200191610e61565b820191906000526020600020905b815481529060010190602001808311610e4457829003601f168201915b505050505081565b60008083468461010430604051602001610e87959493929190615638565b60408051601f198184030181529082905280516020918201207f19457468657265756d205369676e6564204d6573736167653a0a33320000000091830191909152603c820152605c0160408051808303601f190181529190528051602090910120949350505050565b610f0681516000141561010a5460001415613156565b610f485760405162461bcd60e51b81526020600482015260136024820152724e6f7468696e6720746f20776974686472617760681b6044820152606401610d57565b60005b815181101561103c576000828281518110610f6857610f6861567a565b6020026020010151604051602001610fbe91907f4e6f2062616c616e636520746f207472616e7366657220666f72200000000000815260609190911b6bffffffffffffffffffffffff1916601b820152602f0190565b60405160208183030381529060405290506101096000848481518110610fe657610fe661567a565b60200260200101516001600160a01b03166001600160a01b03168152602001908152602001600020546000141581906110325760405162461bcd60e51b8152600401610d579190614bbc565b5050600101610f4b565b5050565b611048613169565b600260c9540361106a5760405162461bcd60e51b8152600401610d5790615690565b600260c955806110a75760405162461bcd60e51b81526020600482015260086024820152670416d6f756e743e360c41b6044820152606401610d57565b60008161010a54470310156110ef5760405162461bcd60e51b815260206004820152600e60248201526d09cdee840cadcdeeaced040cae8d60931b6044820152606401610d57565b61271061010e54830281611105576111056156c7565b04905060003361111583856156f3565b604051600081818185875af1925050503d8060008114611151576040519150601f19603f3d011682016040523d82523d6000602084013e611156565b606091505b50509050806111945760405162461bcd60e51b815260206004820152600a6024820152692a3c103330b4b632b21760b11b6044820152606401610d57565b81156112195761010c546040516000916001600160a01b03169084908381818185875af1925050503d80600081146111e8576040519150601f19603f3d011682016040523d82523d6000602084013e6111ed565b606091505b505090508061120e5760405162461bcd60e51b8152600401610d5790615706565b5061010f8054830190555b5050600160c95550565b606060fd611230836131c3565b60405160200161124192919061572e565b6040516020818303038152906040529050919050565b61125f613169565b6112676132cb565b600260c954036112895760405162461bcd60e51b8152600401610d5790615690565b600260c95561129781610ef0565b60008060008060005b85518110156113f15761010960008783815181106112c0576112c061567a565b60200260200101516001600160a01b03166001600160a01b0316815260200190815260200160002054945061271061010e54860281611301576113016156c7565b0491506000610109600088848151811061131d5761131d61567a565b60200260200101516001600160a01b03166001600160a01b03168152602001908152602001600020819055506000336001600160a01b0316838761136191906156f3565b604051600081818185875af1925050503d806000811461139d576040519150601f19603f3d011682016040523d82523d6000602084013e6113a2565b606091505b50509050806113e05760405162461bcd60e51b815260206004820152600a6024820152692a3c103330b4b632b21760b11b6044820152606401610d57565b5092840192918101916001016112a0565b5061010a8054849003905581156114815761010c546040516000916001600160a01b03169084908381818185875af1925050503d8060008114611450576040519150601f19603f3d011682016040523d82523d6000602084013e611455565b606091505b50509050806114765760405162461bcd60e51b8152600401610d5790615706565b5061010f8054830190555b5050600160c955505050565b600054610100900460ff16158080156114ad5750600054600160ff909116105b806114c75750303b1580156114c7575060005460ff166001145b61152a5760405162461bcd60e51b815260206004820152602e60248201527f496e697469616c697a61626c653a20636f6e747261637420697320616c72656160448201526d191e481a5b9a5d1a585b1a5e995960921b6064820152608401610d57565b6000805460ff19166001179055801561154d576000805461ff0019166101001790555b61156060008811620186a0891115613156565b6115ac5760405162461bcd60e51b815260206004820152601860248201527f496e69743a20496e76616c6964206d617820737570706c7900000000000000006044820152606401610d57565b6115c460008660800151118887608001511115613156565b6116105760405162461bcd60e51b815260206004820152601c60248201527f496e69743a20496e76616c69642070726573616c6520737570706c79000000006044820152606401610d57565b84602001514211156116645760405162461bcd60e51b815260206004820181905260248201527f496e69743a20496e76616c69642050726553616c652053746172742054696d656044820152606401610d57565b61167c60008660400151116000866040015111613156565b6116c05760405162461bcd60e51b81526020600482015260156024820152740496e69743a2053616c65206475726174696f6e3e3605c1b6044820152606401610d57565b6116da606486600001511015606486600001511015613156565b6117265760405162461bcd60e51b815260206004820152601860248201527f496e69743a20496e76616c696420546f6b656e20436f737400000000000000006044820152606401610d57565b6117426000866060015111866080015187606001511115613156565b61179f5760405162461bcd60e51b815260206004820152602860248201527f496e69743a20496e76616c6964206d6178546f6b656e5065724d696e7420696e6044820152672070726573616c6560c01b6064820152608401610d57565b60008460600151116118085760405162461bcd60e51b815260206004820152602c60248201527f496e69743a20496e76616c6964204d6178546f6b656e5065724d696e74206f6660448201526b207075626c69632073616c6560a01b6064820152608401610d57565b6118248460600151856080015110158886608001511115613156565b6118875760405162461bcd60e51b815260206004820152602e60248201527f496e69743a20496e76616c6964204d6178546f6b656e506572506572736f6e2060448201526d6f66207075626c69632073616c6560901b6064820152608401610d57565b6001600160a01b0383166118dd5760405162461bcd60e51b815260206004820152601b60248201527f496e69743a20496e76616c6964205369676e65724164647265737300000000006044820152606401610d57565b6118e68861331e565b6118ee61334e565b6119008260000151836020015161337d565b60fb61190c8c82615799565b5060fc6119198b82615799565b506101226119278a82615799565b5060fd6119348982615799565b506101028790556101046119488782615799565b506040808301516101205560608084015161011e5586516101135585516101055560208088015161011481905588840151016101158190559087015161011681905501601e81810161010055928701510190910161010155858101516101175584015161010655608080850151610107558501516101185561010b80546001600160a01b0385166001600160a01b03199182161790915560016101235561010d8054909116331790558015611a37576000805461ff0019169055604051600181527f7f26b83ff96e1f2b6a682f133852f6798a09c465da95921460cefb38474024989060200160405180910390a15b5050505050505050505050565b6001600160a01b038516331480611a605750611a608533610bfa565b611a7c5760405162461bcd60e51b8152600401610d5790615858565b611a8985858585856133e2565b5050505050565b600080854686868661010430604051602001611ab297969594939291906158a7565b60408051601f198184030181529082905280516020918201207f19457468657265756d205369676e6564204d6573736167653a0a33320000000091830191909152603c820152605c0160408051808303601f1901815291905280516020909101209695505050505050565b611b25613169565b61012355565b6000808446858561010430604051602001611b4b969594939291906158fc565b60408051601f198184030181529082905280516020918201207f19457468657265756d205369676e6564204d6573736167653a0a33320000000091830191909152603c820152605c0160408051808303601f19018152919052805160209091012095945050505050565b60608151835114611c1a5760405162461bcd60e51b815260206004820152602960248201527f455243313135353a206163636f756e747320616e6420696473206c656e677468604482015268040dad2e6dac2e8c6d60bb1b6064820152608401610d57565b600083516001600160401b03811115611c3557611c35614bcf565b604051908082528060200260200182016040528015611c5e578160200160208202803683370190505b50905060005b8451811015611cd657611ca9858281518110611c8257611c8261567a565b6020026020010151858381518110611c9c57611c9c61567a565b6020026020010151610cf0565b828281518110611cbb57611cbb61567a565b6020908102919091010152611ccf8161594a565b9050611c64565b509392505050565b611ce66135c2565b611cef81613614565b50565b60016101105414611d155760405162461bcd60e51b8152600401610d5790615963565b611d1d613083565b611d5f5760405162461bcd60e51b815260206004820152601360248201527270726573616c65206973206e6f74206c69766560681b6044820152606401610d57565b6000611d6b3385610e69565b9050611d778183612654565b611d935760405162461bcd60e51b8152600401610d5790615986565b611d9c8361366b565b83600003611de45760405162461bcd60e51b81526020600482015260156024820152740546f6b656e5369676e5175616e74697479203e203605c1b6044820152606401610d57565b33600090815261011960205260409020548301841015611e465760405162461bcd60e51b815260206004820152601d60248201527f65786365656473206d6178696d756d20616c6c6f776564206c696d69740000006044820152606401610d57565b348361011354021115611e9b5760405162461bcd60e51b815260206004820152601860248201527f696e73756666696369656e7420416d6f756e74207061696400000000000000006044820152606401610d57565b611ea5338461371f565b5050336000908152610119602052604090208054909101905550565b6101228054610de89061558b565b611ed7613169565b611ef6611eeb610114544210428c11613156565b8a6101145414613776565b611f375760405162461bcd60e51b8152602060048201526012602482015271496e76616c69642053746172742054696d6560701b6044820152606401610d57565b610115544210611f7c5760405162461bcd60e51b815260206004820152601060248201526f1c1c995cd85b19481a5cc8195b99195960821b6044820152606401610d57565b611fac6101125460fe54611f9091906156f3565b87116101125461010254611fa491906156f3565b881115613156565b611ff85760405162461bcd60e51b815260206004820152601e60248201527f696e636f72726563742070726573616c65206c696d697420737570706c7900006044820152606401610d57565b61200860648b1160648711613156565b61204a5760405162461bcd60e51b8152602060048201526013602482015272546f6b656e20636f73743e203130302077656960681b6044820152606401610d57565b61205a6000891160008511613156565b6120985760405162461bcd60e51b815260206004820152600f60248201526e073616c65206475726174696f6e3e3608c1b6044820152606401610d57565b6120a86000881187891115613156565b6121065760405162461bcd60e51b815260206004820152602960248201527f496e76616c6964206d6178696d756d20746f6b656e20706572206d696e7420696044820152686e2070726573616c6560b81b6064820152608401610d57565b600082116121685760405162461bcd60e51b815260206004820152602960248201527f4d6178696d756d20746f6b656e20706572206d696e7420696e207075626c696360448201526802073616c65203e20360bc1b6064820152608401610d57565b61217b6101025482111583831015613156565b6121e25760405162461bcd60e51b815260206004820152603260248201527f496e76616c6964204d617820546f6b656e206d696e7465642070657220706572604482015271736f6e20696e207075626c69632073616c6560701b6064820152608401610d57565b6101139990995561010593909355610117949094556101189290925561011485905592909301610115819055610116849055601e93018381016101005501909101610101556101065561010755565b61011a5460009060ff1661227c5760405162461bcd60e51b81526020600482015260126024820152711c995d99585b081d1bdad95b88199a5c9cdd60721b6044820152606401610d57565b610d8582613786565b61228d613169565b600084601e61011554010190506122b96122ae610100544210428411613156565b826101005414613776565b6122fa5760405162461bcd60e51b8152602060048201526012602482015271496e76616c69642053746172742054696d6560701b6044820152606401610d57565b6101015442106123435760405162461bcd60e51b8152602060048201526014602482015273141d589b1a58c81cd85b19481a5cc8195b99195960621b6044820152606401610d57565b606486116123885760405162461bcd60e51b8152602060048201526012602482015271125b9d985b1a5908151bdad95b8818dbdcdd60721b6044820152606401610d57565b600084116123d85760405162461bcd60e51b815260206004820152601860248201527f5075626c69632073616c65206475726174696f6e203e203000000000000000006044820152606401610d57565b6123f7600084116123f26101025485111586861015613156565b613156565b6124605760405162461bcd60e51b815260206004820152603460248201527f4d6178696d756d20746f6b656e206d696e7465642070657220706572736f6e2f6044820152731c195c881b5a5b9d081b9bdd0818dbdc9c9958dd60621b6064820152608401610d57565b61010586905561011685905561010081905561247c84826159b1565b61010155506101069190915561010755505050565b612499613169565b6124a3600061384a565b565b6124ad613169565b600260c954036124cf5760405162461bcd60e51b8152600401610d5790615690565b600260c95561011a546040516370a0823160e01b81523060048201526125559183151591849161010090046001600160a01b0316906370a0823190602401602060405180830381865afa15801561252a573d6000803e3d6000fd5b505050506040513d601f19601f8201168201806040525081019061254e91906159c4565b1015613156565b6125935760405162461bcd60e51b815260206004820152600f60248201526e4e6f7420656e6f756768204c494e4b60881b6044820152606401610d57565b61011a5460405163a9059cbb60e01b8152336004820152602481018390526101009091046001600160a01b03169063a9059cbb906044016020604051808303816000875af11580156125e9573d6000803e3d6000fd5b505050506040513d601f19601f8201168201806040525081019061260d91906159dd565b61264c5760405162461bcd60e51b815260206004820152601060248201526f2a3930b739b332b9103330b4b632b21760811b6044820152606401610d57565b50600160c955565b6000612660838361389c565b61010b546001600160a01b039182169116149392505050565b60006126916101005442101561010154421115613156565b905090565b6000806126a1613169565b610101544210156126f45760405162461bcd60e51b815260206004820152601c60248201527f5075626c69632073616c65206973206e6f742079657420656e646564000000006044820152606401610d57565b61011d5460ff16156127485760405162461bcd60e51b815260206004820152601e60248201527f416c7265616479206f627461696e65642072616e646f6d206e756d62657200006044820152606401610d57565b61011e5461011a546040516370a0823160e01b81523060048201526101009091046001600160a01b0316906370a0823190602401602060405180830381865afa158015612799573d6000803e3d6000fd5b505050506040513d601f19601f820116820180604052508101906127bd91906159c4565b10156127fe5760405162461bcd60e51b815260206004820152601060248201526f4c494e4b2042616c616e63653e66656560801b6044820152606401610d57565b6101205461011e544391612811916138b8565b61012181905560405133907ffb9e6931d074560e7cb254d248daf84079f54f66558a6ba8b9eccb9442a642ce90600090a361012154925090509091565b612856613169565b6001600160a01b0381166128965760405162461bcd60e51b815260206004820152600760248201526610b9b4b3b732b960c91b6044820152606401610d57565b61010b80546001600160a01b0319166001600160a01b0392909216919091179055565b61011b546001600160a01b031633146129145760405162461bcd60e51b815260206004820152601f60248201527f4f6e6c7920565246436f6f7264696e61746f722063616e2066756c66696c6c006044820152606401610d57565b61103c82826139fc565b60fc8054610de89061558b565b612933613169565b61293b6132cb565b61294481610ef0565b60008060008060005b8551811015612abd57610109600087838151811061296d5761296d61567a565b60200260200101516001600160a01b03166001600160a01b0316815260200190815260200160002054945061271061010e548602816129ae576129ae6156c7565b049150600061010960008884815181106129ca576129ca61567a565b60200260200101516001600160a01b03166001600160a01b03168152602001908152602001600020819055506000868281518110612a0a57612a0a61567a565b60200260200101516001600160a01b03168387612a2791906156f3565b604051600081818185875af1925050503d8060008114612a63576040519150601f19603f3d011682016040523d82523d6000602084013e612a68565b606091505b5050905080612aac5760405162461bcd60e51b815260206004820152601060248201526f2a3930b739b332b9103330b4b632b21760811b6044820152606401610d57565b50928401929181019160010161294d565b5061010a805484900390558115611a895761010c546040516000916001600160a01b03169084908381818185875af1925050503d8060008114612b1c576040519150601f19603f3d011682016040523d82523d6000602084013e612b21565b606091505b5050905080612b425760405162461bcd60e51b8152600401610d5790615706565b5061010f8054830190555050505050565b60fd8054610de89061558b565b61103c338383613a50565b60016101105414612b8e5760405162461bcd60e51b8152600401610d5790615963565b612b96613169565b61011a5460ff1615612bf65760405162461bcd60e51b8152602060048201526024808201527f41697264726f703a20496e76616c696420616374696f6e2061667465722072656044820152631d99585b60e21b6064820152608401610d57565b612c01838383613b30565b505050565b61010d546001600160a01b03163314612c495760405162461bcd60e51b8152602060048201526005602482015264042c2eae8d60db1b6044820152606401610d57565b61010e9190915561010c80546001600160a01b0319166001600160a01b03909216919091179055565b612c7a6135c2565b6001600160a01b038316612cc25760405162461bcd60e51b815260206004820152600f60248201526e496e76616c6964206164647265737360881b6044820152606401610d57565b612cce84848484613c27565b50505050565b61010d546001600160a01b03163314612d175760405162461bcd60e51b8152602060048201526005602482015264042c2eae8d60db1b6044820152606401610d57565b6101105415612d5b5760405162461bcd60e51b815260206004820152601060248201526f185b1c9958591e48185c1c1c9bdd995960821b6044820152606401610d57565b600161011055565b612d6b613169565b611cef81613d38565b6101048054610de89061558b565b60016101105414612da55760405162461bcd60e51b8152600401610d5790615963565b612dad613083565b612def5760405162461bcd60e51b815260206004820152601360248201527270726573616c65206973206e6f74206c69766560681b6044820152606401610d57565b6001600160a01b038316612e455760405162461bcd60e51b815260206004820152601760248201527f496e76616c696420416666696c696174656420757365720000000000000000006044820152606401610d57565b6000612e5333878686611a90565b9050612e5f8183612654565b612e7b5760405162461bcd60e51b8152600401610d5790615986565b612e848561366b565b85600003612ecc5760405162461bcd60e51b81526020600482015260156024820152740546f6b656e5369676e5175616e74697479203e203605c1b6044820152606401610d57565b33600090815261011960205260409020548501861015612f2e5760405162461bcd60e51b815260206004820152601d60248201527f65786365656473206d6178696d756d20616c6c6f776564206c696d69740000006044820152606401610d57565b348561011354021115612f835760405162461bcd60e51b815260206004820152601860248201527f696e73756666696369656e7420616d6f756e74207061696400000000000000006044820152606401610d57565b612f8d338661371f565b505061010380548401905533600090815261011960209081526040808320805487019055610113546001600160a01b03959095168352610109909152902080546064929093029093020490810190915561010a8054909101905550565b612ff2613169565b612ffa6132cb565b61011d5460ff1661304d5760405162461bcd60e51b815260206004820152601c60248201527f72616e646f6d206e756d62657220746f2062652061737369676e6564000000006044820152606401610d57565b612d6b613d88565b61011d5460009060ff1661307b5760405162461bcd60e51b8152600401610d57906159fa565b5061011f5490565b60006126916101145442101561011554421115613156565b6001600160a01b0385163314806130b757506130b78533610bfa565b6130d35760405162461bcd60e51b8152600401610d5790615858565b611a898585858585613e19565b6130e8613169565b6001600160a01b03811661314d5760405162461bcd60e51b815260206004820152602660248201527f4f776e61626c653a206e6577206f776e657220697320746865207a65726f206160448201526564647265737360d01b6064820152608401610d57565b611cef8161384a565b60008280156131625750815b9392505050565b6097546001600160a01b031633146124a35760405162461bcd60e51b815260206004820181905260248201527f4f776e61626c653a2063616c6c6572206973206e6f7420746865206f776e65726044820152606401610d57565b6060816000036131ea5750506040805180820190915260018152600360fc1b602082015290565b8160005b811561321457806131fe8161594a565b915061320d9050600a83615a46565b91506131ee565b6000816001600160401b0381111561322e5761322e614bcf565b6040519080825280601f01601f191660200182016040528015613258576020820181803683370190505b5090505b84156132c35761326d6001836156f3565b915061327a600a86615a5a565b6132859060306159b1565b60f81b81838151811061329a5761329a61567a565b60200101906001600160f81b031916908160001a9053506132bc600a86615a46565b945061325c565b949350505050565b610101544210156124a35760405162461bcd60e51b815260206004820152601960248201527f7075626c69632073616c65206e6f742079657420656e646564000000000000006044820152606401610d57565b600054610100900460ff166133455760405162461bcd60e51b8152600401610d5790615a6e565b611cef81613f47565b600054610100900460ff166133755760405162461bcd60e51b8152600401610d5790615a6e565b6124a3613f77565b600054610100900460ff166133a45760405162461bcd60e51b8152600401610d5790615a6e565b61011b80546001600160a01b039384166001600160a01b031990911617905561011a80549190921661010002610100600160a81b0319909116179055565b81518351146134445760405162461bcd60e51b815260206004820152602860248201527f455243313135353a2069647320616e6420616d6f756e7473206c656e677468206044820152670dad2e6dac2e8c6d60c31b6064820152608401610d57565b6001600160a01b03841661346a5760405162461bcd60e51b8152600401610d5790615ab9565b3360005b845181101561355457600085828151811061348b5761348b61567a565b6020026020010151905060008583815181106134a9576134a961567a565b60209081029190910181015160008481526065835260408082206001600160a01b038e1683529093529190912054909150818110156134fa5760405162461bcd60e51b8152600401610d5790615afe565b60008381526065602090815260408083206001600160a01b038e8116855292528083208585039055908b168252812080548492906135399084906159b1565b925050819055505050508061354d9061594a565b905061346e565b50846001600160a01b0316866001600160a01b0316826001600160a01b03167f4a39dc06d4c0dbc64b70af90fd698a233a518aa5d07e595d983b8c0526c8f7fb87876040516135a4929190615b48565b60405180910390a46135ba818787878787613fa7565b505050505050565b6101155442116124a35760405162461bcd60e51b815260206004820152601d60248201527f746865207072652d73616c65206973206e6f742079657420656e6465640000006044820152606401610d57565b600161011054146136375760405162461bcd60e51b8152600401610d5790615963565b61363f61410b565b61364881614156565b613652338261371f565b3360009081526101086020526040902080549091019055565b61367e6000821161011754831115613156565b6136c35760405162461bcd60e51b8152602060048201526016602482015275496e76616c696420546f6b656e205175616e7469747960501b6044820152606401610d57565b61011254610118540160fe5482011115611cef5760405162461bcd60e51b815260206004820152601860248201527f657863656564696e672070726573616c6520737570706c7900000000000000006044820152606401610d57565b6000805b82811015612cce576137336142b4565b915061374160fe5460010190565b60fe8190555061376e8483600160405180604001604052806002815260200161060f60f31b815250614314565b600101613723565b6000828061316257509092915050565b60008082118015613799575060fe548211155b6137d85760405162461bcd60e51b815260206004820152601060248201526f125b9d985b1a59081d1bdad95b88125960821b6044820152606401610d57565b61011d5460ff166137fb5760405162461bcd60e51b8152600401610d57906159fa565b60006201b20f61011f5461380f9190615a5a565b61381c846201b20f615b76565b61382691906159b1565b905060fe54816138369190615a5a565b905080600003610d85575060fe5492915050565b609780546001600160a01b038381166001600160a01b0319831681179093556040519116919082907f8be0079c531659141344cd1fd0a4f28419497f9722a3daafe3b4186f6b6457e090600090a35050565b60008060006138ab8585614421565b91509150611cd68161448f565b61011a5461011b54604080516020810186905260008183018190528251808303840181526060830193849052630200057560e51b909352936001600160a01b03610100909104811693634000aea09361391b939290911691879190606401615b8d565b6020604051808303816000875af115801561393a573d6000803e3d6000fd5b505050506040513d601f19601f8201168201806040525081019061395e91906159dd565b50600083815261011c6020818152604080842054815180840189905280830186905230606082015260808082018390528351808303909101815260a0909101909252815191830191909120938790529190526139bb9060016159b1565b600085815261011c60205260409020556132c38482604080516020808201949094528082019290925280518083038201815260609092019052805191012090565b61011f81905561011d805460ff1916600117905560405182907ffb6cd07fbeb11b44106860d622b9f060079f790fa9ee013da16efb6e9b5b167f90613a449084815260200190565b60405180910390a25050565b816001600160a01b0316836001600160a01b031603613ac35760405162461bcd60e51b815260206004820152602960248201527f455243313135353a2073657474696e6720617070726f76616c20737461747573604482015268103337b91039b2b63360b91b6064820152608401610d57565b6001600160a01b03838116600081815260666020908152604080832094871680845294825291829020805460ff191686151590811790915591519182527f17307eab39ab6107e8899845ad3d59bd9653f200f220920489ca2b5937696c31910160405180910390a3505050565b613b38614645565b610114544210613b9157803515613b915760405162461bcd60e51b815260206004820152601e60248201527f41697264726f703a20496e76616c69642050726573616c6520536861726500006044820152606401610d57565b6101185461011154613ba49083356159b1565b1115613bfe5760405162461bcd60e51b815260206004820152602360248201527f41697264726f703a2050726573616c65207368617265206e6f7420696e2072616044820152626e676560e81b6064820152608401610d57565b613c098383836146b3565b61011180548235019055610112805460209092013590910190555050565b60016101105414613c4a5760405162461bcd60e51b8152600401610d5790615963565b613c5261410b565b6001600160a01b038316613c905760405162461bcd60e51b815260206004820152600560248201526410bab9b2b960d91b6044820152606401610d57565b6000613c9d338585611b2b565b9050613ca98183612654565b613cc55760405162461bcd60e51b8152600401610d5790615986565b613cce85614156565b613cd8338661371f565b5050610103805484019055610105546001600160a01b0392909216600090815261010960209081526040808320805460649590960287029490940494850190935561010a8054909401909355338152610108909252902080549091019055565b613d4181614852565b60fd613d4d8282615799565b507f3d7a9962f6da134f6896430d6867bd08e3546dbf9570df877e7cec39ba4305f081604051613d7d9190614bbc565b60405180910390a150565b61011a5460ff1615613dcf5760405162461bcd60e51b815260206004820152601060248201526f105b1c9958591e481c995d99585b195960821b6044820152606401610d57565b61011a805460ff191660011790556040517f5d9f916a9a2e7f5c0c1bc09b661f04bbc60a7f742cafa1e7f1a9a4db055c4d3990613e0f9042815260200190565b60405180910390a1565b6001600160a01b038416613e3f5760405162461bcd60e51b8152600401610d5790615ab9565b336000613e4b8561485e565b90506000613e588561485e565b905060008681526065602090815260408083206001600160a01b038c16845290915290205485811015613e9d5760405162461bcd60e51b8152600401610d5790615afe565b60008781526065602090815260408083206001600160a01b038d8116855292528083208985039055908a16825281208054889290613edc9084906159b1565b909155505060408051888152602081018890526001600160a01b03808b16928c821692918816917fc3d58168c5ae7397731d063d5bbf3d657854427343f4c083240f7aacaa2d0f62910160405180910390a4613f3c848a8a8a8a8a6148a9565b505050505050505050565b600054610100900460ff16613f6e5760405162461bcd60e51b8152600401610d5790615a6e565b611cef81614852565b600054610100900460ff16613f9e5760405162461bcd60e51b8152600401610d5790615a6e565b6124a33361384a565b6001600160a01b0384163b156135ba5760405163bc197c8160e01b81526001600160a01b0385169063bc197c8190613feb9089908990889088908890600401615bb4565b6020604051808303816000875af1925050508015614026575060408051601f3d908101601f1916820190925261402391810190615c12565b60015b6140d257614032615c2f565b806308c379a00361406b5750614046615c4b565b80614051575061406d565b8060405162461bcd60e51b8152600401610d579190614bbc565b505b60405162461bcd60e51b815260206004820152603460248201527f455243313135353a207472616e7366657220746f206e6f6e20455243313135356044820152732932b1b2b4bb32b91034b6b83632b6b2b73a32b960611b6064820152608401610d57565b6001600160e01b0319811663bc197c8160e01b146141025760405162461bcd60e51b8152600401610d5790615cd4565b50505050505050565b614113612679565b6124a35760405162461bcd60e51b81526020600482015260146024820152735075626c69632053616c652d6e6f74206c69766560601b6044820152606401610d57565b6141696000821161010654831115613156565b6141ae5760405162461bcd60e51b8152602060048201526016602482015275496e76616c696420546f6b656e205175616e7469747960501b6044820152606401610d57565b610102548160fe540111156141fa5760405162461bcd60e51b815260206004820152601260248201527132bc31b2b2b21036b0bc1039bab838363c9760711b6044820152606401610d57565b34816101055402111561424f5760405162461bcd60e51b815260206004820152601760248201527f706179206d696e696d756d20746f6b656e2070726963650000000000000000006044820152606401610d57565b61010754336000908152610108602052604090205482011115611cef5760405162461bcd60e51b815260206004820152601c60248201527f657863656564206d6178696d756d20616c6c6f776564206c696d6974000000006044820152606401610d57565b60006101025460fe5411156142ff5760405162461bcd60e51b8152602060048201526011602482015270657863656564206d617820537570706c7960781b6044820152606401610d57565b61430d60ff80546001019055565b5060ff5490565b6001600160a01b0384166143745760405162461bcd60e51b815260206004820152602160248201527f455243313135353a206d696e7420746f20746865207a65726f206164647265736044820152607360f81b6064820152608401610d57565b3360006143808561485e565b9050600061438d8561485e565b905060008681526065602090815260408083206001600160a01b038b168452909152812080548792906143c19084906159b1565b909155505060408051878152602081018790526001600160a01b03808a1692600092918716917fc3d58168c5ae7397731d063d5bbf3d657854427343f4c083240f7aacaa2d0f62910160405180910390a4614102836000898989896148a9565b60008082516041036144575760208301516040840151606085015160001a61444b87828585614964565b94509450505050614488565b82516040036144805760208301516040840151614475868383614a51565b935093505050614488565b506000905060025b9250929050565b60008160048111156144a3576144a3615d1c565b036144ab5750565b60018160048111156144bf576144bf615d1c565b0361450c5760405162461bcd60e51b815260206004820152601860248201527f45434453413a20696e76616c6964207369676e617475726500000000000000006044820152606401610d57565b600281600481111561452057614520615d1c565b0361456d5760405162461bcd60e51b815260206004820152601f60248201527f45434453413a20696e76616c6964207369676e6174757265206c656e677468006044820152606401610d57565b600381600481111561458157614581615d1c565b036145d95760405162461bcd60e51b815260206004820152602260248201527f45434453413a20696e76616c6964207369676e6174757265202773272076616c604482015261756560f01b6064820152608401610d57565b60048160048111156145ed576145ed615d1c565b03611cef5760405162461bcd60e51b815260206004820152602260248201527f45434453413a20696e76616c6964207369676e6174757265202776272076616c604482015261756560f01b6064820152608401610d57565b61467061465c610100544210610101544211613776565b6123f2610114544210610115544211613776565b6124a35760405162461bcd60e51b815260206004820152601460248201527341697264726f703a496e76616c69642054696d6560601b6044820152606401610d57565b816146c981151583356020850135018314613156565b6147155760405162461bcd60e51b815260206004820152601760248201527f41697264726f703a204d69736d617463682d496e7075740000000000000000006044820152606401610d57565b6101025460fe548201111561476c5760405162461bcd60e51b815260206004820152601b60248201527f41697264726f703a2065786365656473206d617820537570706c7900000000006044820152606401610d57565b60005b81811015611a8957600085858381811061478b5761478b61567a565b90506020020160208101906147a091906152dd565b6001600160a01b0316036147ea5760405162461bcd60e51b8152602060048201526011602482015270125b9d985b1a59081c9958da5c1a595b9d607a1b6044820152606401610d57565b6147f2614a8a565b60fe5460010160fe5561484a8585838181106148105761481061567a565b905060200201602081019061482591906152dd565b60ff54600160405180604001604052806002815260200161060f60f31b815250614314565b60010161476f565b606761103c8282615799565b604080516001808252818301909252606091600091906020808301908036833701905050905082816000815181106148985761489861567a565b602090810291909101015292915050565b6001600160a01b0384163b156135ba5760405163f23a6e6160e01b81526001600160a01b0385169063f23a6e61906148ed9089908990889088908890600401615d32565b6020604051808303816000875af1925050508015614928575060408051601f3d908101601f1916820190925261492591810190615c12565b60015b61493457614032615c2f565b6001600160e01b0319811663f23a6e6160e01b146141025760405162461bcd60e51b8152600401610d5790615cd4565b6000807f7fffffffffffffffffffffffffffffff5d576e7357a4501ddfe92f46681b20a083111561499b5750600090506003614a48565b8460ff16601b141580156149b357508460ff16601c14155b156149c45750600090506004614a48565b6040805160008082526020820180845289905260ff881692820192909252606081018690526080810185905260019060a0016020604051602081039080840390855afa158015614a18573d6000803e3d6000fd5b5050604051601f1901519150506001600160a01b038116614a4157600060019250925050614a48565b9150600090505b94509492505050565b6000806001600160ff1b03831681614a6e60ff86901c601b6159b1565b9050614a7c87828885614964565b935093505050935093915050565b614aa36101025460fe5411156101025460ff5410613156565b614ae55760405162461bcd60e51b8152602060048201526013602482015272105b1b0815985b1d595cc8185cdcda59db9959606a1b6044820152606401610d57565b6124a360ff80546001019055565b80356001600160a01b0381168114614b0a57600080fd5b919050565b60008060408385031215614b2257600080fd5b614b2b83614af3565b946020939093013593505050565b6001600160e01b031981168114611cef57600080fd5b600060208284031215614b6157600080fd5b813561316281614b39565b60005b83811015614b87578181015183820152602001614b6f565b50506000910152565b60008151808452614ba8816020860160208601614b6c565b601f01601f19169290920160200192915050565b6020815260006131626020830184614b90565b634e487b7160e01b600052604160045260246000fd5b601f8201601f191681016001600160401b0381118282101715614c0a57614c0a614bcf565b6040525050565b60006001600160401b03821115614c2a57614c2a614bcf565b5060051b60200190565b600082601f830112614c4557600080fd5b81356020614c5282614c11565b604051614c5f8282614be5565b83815260059390931b8501820192828101915086841115614c7f57600080fd5b8286015b84811015614ca157614c9481614af3565b8352918301918301614c83565b509695505050505050565b600060208284031215614cbe57600080fd5b81356001600160401b03811115614cd457600080fd5b6132c384828501614c34565b600060208284031215614cf257600080fd5b5035919050565b600082601f830112614d0a57600080fd5b81356001600160401b03811115614d2357614d23614bcf565b604051614d3a601f8301601f191660200182614be5565b818152846020838601011115614d4f57600080fd5b816020850160208301376000918101602001919091529392505050565b600060a08284031215614d7e57600080fd5b60405160a081018181106001600160401b0382111715614da057614da0614bcf565b806040525080915082358152602083013560208201526040830135604082015260608301356060820152608083013560808201525092915050565b600060808284031215614ded57600080fd5b604051608081018181106001600160401b0382111715614e0f57614e0f614bcf565b604052905080614e1e83614af3565b8152614e2c60208401614af3565b602082015260408301356040820152606083013560608201525092915050565b6000806000806000806000806000806102a08b8d031215614e6c57600080fd5b8a356001600160401b0380821115614e8357600080fd5b614e8f8e838f01614cf9565b9b5060208d0135915080821115614ea557600080fd5b614eb18e838f01614cf9565b9a5060408d0135915080821115614ec757600080fd5b614ed38e838f01614cf9565b995060608d0135915080821115614ee957600080fd5b614ef58e838f01614cf9565b985060808d0135975060a08d0135915080821115614f1257600080fd5b50614f1f8d828e01614cf9565b955050614f2f8c60c08d01614d6c565b9350614f3f8c6101608d01614d6c565b9250614f4e6102008c01614af3565b9150614f5e8c6102208d01614ddb565b90509295989b9194979a5092959850565b600082601f830112614f8057600080fd5b81356020614f8d82614c11565b604051614f9a8282614be5565b83815260059390931b8501820192828101915086841115614fba57600080fd5b8286015b84811015614ca15780358352918301918301614fbe565b600080600080600060a08688031215614fed57600080fd5b614ff686614af3565b945061500460208701614af3565b935060408601356001600160401b038082111561502057600080fd5b61502c89838a01614f6f565b9450606088013591508082111561504257600080fd5b61504e89838a01614f6f565b9350608088013591508082111561506457600080fd5b5061507188828901614cf9565b9150509295509295909350565b6000806000806080858703121561509457600080fd5b61509d85614af3565b9350602085013592506150b260408601614af3565b9396929550929360600135925050565b6000806000606084860312156150d757600080fd5b6150e084614af3565b92506150ee60208501614af3565b9150604084013590509250925092565b6000806040838503121561511157600080fd5b82356001600160401b038082111561512857600080fd5b61513486838701614c34565b9350602085013591508082111561514a57600080fd5b5061515785828601614f6f565b9150509250929050565b600081518084526020808501945080840160005b8381101561519157815187529582019590820190600101615175565b509495945050505050565b6020815260006131626020830184615161565b6000806000606084860312156151c457600080fd5b833592506020840135915060408401356001600160401b038111156151e857600080fd5b6151f486828701614cf9565b9150509250925092565b6000806000806000806000806000806101408b8d03121561521e57600080fd5b505088359a60208a01359a5060408a013599606081013599506080810135985060a0810135975060c0810135965060e081013595506101008101359450610120013592509050565b600080600080600060a0868803121561527e57600080fd5b505083359560208501359550604085013594606081013594506080013592509050565b600080604083850312156152b457600080fd5b8235915060208301356001600160401b038111156152d157600080fd5b61515785828601614cf9565b6000602082840312156152ef57600080fd5b61316282614af3565b6000806040838503121561530b57600080fd5b50508035926020909101359150565b8015158114611cef57600080fd5b6000806040838503121561533b57600080fd5b61534483614af3565b915060208301356153548161531a565b809150509250929050565b60008060006060848603121561537457600080fd5b83356001600160401b038082111561538b57600080fd5b818601915086601f83011261539f57600080fd5b8135818111156153ae57600080fd5b8760208260051b85010111156153c357600080fd5b602083019550809450505050846060850111156153df57600080fd5b6020840190509250925092565b600080604083850312156153ff57600080fd5b8235915061540f60208401614af3565b90509250929050565b6000806000806080858703121561542e57600080fd5b8435935061543e60208601614af3565b92506040850135915060608501356001600160401b0381111561546057600080fd5b61546c87828801614cf9565b91505092959194509250565b60006020828403121561548a57600080fd5b81356001600160401b038111156154a057600080fd5b6132c384828501614cf9565b600080600080600060a086880312156154c457600080fd5b85359450602086013593506154db60408701614af3565b92506060860135915060808601356001600160401b038111156154fd57600080fd5b61507188828901614cf9565b6000806040838503121561551c57600080fd5b61552583614af3565b915061540f60208401614af3565b600080600080600060a0868803121561554b57600080fd5b61555486614af3565b945061556260208701614af3565b9350604086013592506060860135915060808601356001600160401b038111156154fd57600080fd5b600181811c9082168061559f57607f821691505b6020821081036155bf57634e487b7160e01b600052602260045260246000fd5b50919050565b600081546155d28161558b565b600182811680156155ea57600181146155ff5761562e565b60ff198416875282151583028701945061562e565b8560005260208060002060005b858110156156255781548a82015290840190820161560c565b50505082870194505b5050505092915050565b60006001600160601b0319808860601b16835286601484015285603484015261566460548401866155c5565b60609490941b1683525050601401949350505050565b634e487b7160e01b600052603260045260246000fd5b6020808252601f908201527f5265656e7472616e637947756172643a207265656e7472616e742063616c6c00604082015260600190565b634e487b7160e01b600052601260045260246000fd5b634e487b7160e01b600052601160045260246000fd5b81810381811115610d8557610d856156dd565b6020808252600e908201526d2332b29d2a3c103330b4b632b21760911b604082015260600190565b600061573a82856155c5565b835161574a818360208801614b6c565b01949350505050565b601f821115612c0157600081815260208120601f850160051c8101602086101561577a5750805b601f850160051c820191505b818110156135ba57828155600101615786565b81516001600160401b038111156157b2576157b2614bcf565b6157c6816157c0845461558b565b84615753565b602080601f8311600181146157fb57600084156157e35750858301515b600019600386901b1c1916600185901b1785556135ba565b600085815260208120601f198616915b8281101561582a5788860151825594840194600190910190840161580b565b50858210156158485787850151600019600388901b60f8161c191681555b5050505050600190811b01905550565b6020808252602f908201527f455243313135353a2063616c6c6572206973206e6f7420746f6b656e206f776e60408201526e195c881b9bdc88185c1c1c9bdd9959608a1b606082015260800190565b60006001600160601b0319808a60601b168352886014840152876034840152808760601b1660548401528560688401526158e460888401866155c5565b60609490941b16835250506014019695505050505050565b60006001600160601b0319808960601b168352876014840152808760601b16603484015285604884015261593360688401866155c5565b60609490941b168352505060140195945050505050565b60006001820161595c5761595c6156dd565b5060010190565b60208082526009908201526808585c1c1c9bdd995960ba1b604082015260600190565b602080825260119082015270696e76616c69642d7369676e617475726560781b604082015260600190565b80820180821115610d8557610d856156dd565b6000602082840312156159d657600080fd5b5051919050565b6000602082840312156159ef57600080fd5b81516131628161531a565b6020808252602c908201527f506c65617365207761697420666f722072616e646f6d206e756d62657220746f60408201526b08189948185cdcda59db995960a21b606082015260800190565b600082615a5557615a556156c7565b500490565b600082615a6957615a696156c7565b500690565b6020808252602b908201527f496e697469616c697a61626c653a20636f6e7472616374206973206e6f74206960408201526a6e697469616c697a696e6760a81b606082015260800190565b60208082526025908201527f455243313135353a207472616e7366657220746f20746865207a65726f206164604082015264647265737360d81b606082015260800190565b6020808252602a908201527f455243313135353a20696e73756666696369656e742062616c616e636520666f60408201526939103a3930b739b332b960b11b606082015260800190565b604081526000615b5b6040830185615161565b8281036020840152615b6d8185615161565b95945050505050565b8082028115828204841417610d8557610d856156dd565b60018060a01b0384168152826020820152606060408201526000615b6d6060830184614b90565b6001600160a01b0386811682528516602082015260a060408201819052600090615be090830186615161565b8281036060840152615bf28186615161565b90508281036080840152615c068185614b90565b98975050505050505050565b600060208284031215615c2457600080fd5b815161316281614b39565b600060033d1115615c485760046000803e5060005160e01c5b90565b600060443d1015615c595790565b6040516003193d81016004833e81513d6001600160401b038160248401118184111715615c8857505050505090565b8285019150815181811115615ca05750505050505090565b843d8701016020828501011115615cba5750505050505090565b615cc960208286010187614be5565b509095945050505050565b60208082526028908201527f455243313135353a204552433131353552656365697665722072656a656374656040820152676420746f6b656e7360c01b606082015260800190565b634e487b7160e01b600052602160045260246000fd5b6001600160a01b03868116825285166020820152604081018490526060810183905260a060808201819052600090615d6c90830184614b90565b97965050505050505056fea26469706673582212203ebc1132c3117cf7183d405d99987e8ecfd577e520339179f0d673f51d07c8d764736f6c63430008110033",
  "linkReferences": {},
  "deployedLinkReferences": {}
}