{
  "address": "0x624750701455Bf69Be7807fA0b700D8b202AC554",
  "abi": [
    {
      "anonymous": false,
      "inputs": [
        {
          "indexed": false,
          "internalType": "string",
          "name": "tokenName",
          "type": "string"
        },
        {
          "indexed": false,
          "internalType": "address",
          "name": "tokenAddress",
          "type": "address"
        },
        {
          "indexed": false,
          "internalType": "address",
          "name": "feesAddress",
          "type": "address"
        },
        {
          "indexed": false,
          "internalType": "uint256",
          "name": "buyFeePercent",
          "type": "uint256"
        },
        {
          "indexed": false,
          "internalType": "uint256",
          "name": "sellFeePercent",
          "type": "uint256"
        },
        {
          "indexed": false,
          "internalType": "bool",
          "name": "isUpdate",
          "type": "bool"
        }
      ],
      "name": "RegisterToken",
      "type": "event"
    },
    {
      "anonymous": false,
      "inputs": [
        {
          "indexed": false,
          "internalType": "address",
          "name": "tokenAddress",
          "type": "address"
        }
      ],
      "name": "UnregisterToken",
      "type": "event"
    },
    {
      "anonymous": false,
      "inputs": [
        {
          "indexed": false,
          "internalType": "bool",
          "name": "newSwitch",
          "type": "bool"
        }
      ],
      "name": "isSwiched",
      "type": "event"
    },
    {
      "stateMutability": "nonpayable",
      "type": "fallback"
    },
    {
      "inputs": [],
      "name": "ONE",
      "outputs": [
        {
          "internalType": "uint256",
          "name": "",
          "type": "uint256"
        }
      ],
      "stateMutability": "view",
      "type": "function"
    },
    {
      "inputs": [],
      "name": "WETH",
      "outputs": [
        {
          "internalType": "address",
          "name": "",
          "type": "address"
        }
      ],
      "stateMutability": "view",
      "type": "function"
    },
    {
      "inputs": [
        {
          "internalType": "address",
          "name": "tokenA",
          "type": "address"
        },
        {
          "internalType": "address",
          "name": "tokenB",
          "type": "address"
        },
        {
          "internalType": "uint256",
          "name": "amountADesired",
          "type": "uint256"
        },
        {
          "internalType": "uint256",
          "name": "amountBDesired",
          "type": "uint256"
        },
        {
          "internalType": "uint256",
          "name": "amountAMin",
          "type": "uint256"
        },
        {
          "internalType": "uint256",
          "name": "amountBMin",
          "type": "uint256"
        },
        {
          "internalType": "address",
          "name": "to",
          "type": "address"
        },
        {
          "internalType": "uint256",
          "name": "deadline",
          "type": "uint256"
        }
      ],
      "name": "addLiquidity",
      "outputs": [
        {
          "internalType": "uint256",
          "name": "amountA",
          "type": "uint256"
        },
        {
          "internalType": "uint256",
          "name": "amountB",
          "type": "uint256"
        },
        {
          "internalType": "uint256",
          "name": "liquidity",
          "type": "uint256"
        }
      ],
      "stateMutability": "nonpayable",
      "type": "function"
    },
    {
      "inputs": [
        {
          "internalType": "address",
          "name": "token",
          "type": "address"
        },
        {
          "internalType": "uint256",
          "name": "amountTokenDesired",
          "type": "uint256"
        },
        {
          "internalType": "uint256",
          "name": "amountTokenMin",
          "type": "uint256"
        },
        {
          "internalType": "uint256",
          "name": "amountETHMin",
          "type": "uint256"
        },
        {
          "internalType": "address",
          "name": "to",
          "type": "address"
        },
        {
          "internalType": "uint256",
          "name": "deadline",
          "type": "uint256"
        }
      ],
      "name": "addLiquidityETH",
      "outputs": [
        {
          "internalType": "uint256",
          "name": "amountToken",
          "type": "uint256"
        },
        {
          "internalType": "uint256",
          "name": "amountETH",
          "type": "uint256"
        },
        {
          "internalType": "uint256",
          "name": "liquidity",
          "type": "uint256"
        }
      ],
      "stateMutability": "payable",
      "type": "function"
    },
    {
      "inputs": [],
      "name": "admin",
      "outputs": [
        {
          "internalType": "address",
          "name": "",
          "type": "address"
        }
      ],
      "stateMutability": "view",
      "type": "function"
    },
    {
      "inputs": [],
      "name": "factory",
      "outputs": [
        {
          "internalType": "address",
          "name": "",
          "type": "address"
        }
      ],
      "stateMutability": "view",
      "type": "function"
    },
    {
      "inputs": [
        {
          "internalType": "uint256",
          "name": "amountOut",
          "type": "uint256"
        },
        {
          "internalType": "uint256",
          "name": "reserveIn",
          "type": "uint256"
        },
        {
          "internalType": "uint256",
          "name": "reserveOut",
          "type": "uint256"
        }
      ],
      "name": "getAmountIn",
      "outputs": [
        {
          "internalType": "uint256",
          "name": "amountIn",
          "type": "uint256"
        }
      ],
      "stateMutability": "pure",
      "type": "function"
    },
    {
      "inputs": [
        {
          "internalType": "uint256",
          "name": "amountIn",
          "type": "uint256"
        },
        {
          "internalType": "uint256",
          "name": "reserveIn",
          "type": "uint256"
        },
        {
          "internalType": "uint256",
          "name": "reserveOut",
          "type": "uint256"
        }
      ],
      "name": "getAmountOut",
      "outputs": [
        {
          "internalType": "uint256",
          "name": "amountOut",
          "type": "uint256"
        }
      ],
      "stateMutability": "pure",
      "type": "function"
    },
    {
      "inputs": [
        {
          "internalType": "uint256",
          "name": "amountOut",
          "type": "uint256"
        },
        {
          "internalType": "address[]",
          "name": "path",
          "type": "address[]"
        }
      ],
      "name": "getAmountsIn",
      "outputs": [
        {
          "internalType": "uint256[]",
          "name": "amounts",
          "type": "uint256[]"
        }
      ],
      "stateMutability": "view",
      "type": "function"
    },
    {
      "inputs": [
        {
          "internalType": "uint256",
          "name": "amountIn",
          "type": "uint256"
        },
        {
          "internalType": "address[]",
          "name": "path",
          "type": "address[]"
        }
      ],
      "name": "getAmountsOut",
      "outputs": [
        {
          "internalType": "uint256[]",
          "name": "amounts",
          "type": "uint256[]"
        }
      ],
      "stateMutability": "view",
      "type": "function"
    },
    {
      "inputs": [
        {
          "internalType": "uint256",
          "name": "",
          "type": "uint256"
        }
      ],
      "name": "idToAddress",
      "outputs": [
        {
          "internalType": "address",
          "name": "",
          "type": "address"
        }
      ],
      "stateMutability": "view",
      "type": "function"
    },
    {
      "inputs": [
        {
          "internalType": "uint256",
          "name": "",
          "type": "uint256"
        }
      ],
      "name": "impls",
      "outputs": [
        {
          "internalType": "address",
          "name": "",
          "type": "address"
        }
      ],
      "stateMutability": "view",
      "type": "function"
    },
    {
      "inputs": [
        {
          "internalType": "address",
          "name": "_factory",
          "type": "address"
        },
        {
          "internalType": "address",
          "name": "_WETH",
          "type": "address"
        }
      ],
      "name": "initialize",
      "outputs": [],
      "stateMutability": "nonpayable",
      "type": "function"
    },
    {
      "inputs": [
        {
          "internalType": "address",
          "name": "LPtoken",
          "type": "address"
        },
        {
          "internalType": "uint256",
          "name": "time",
          "type": "uint256"
        }
      ],
      "name": "lockLP",
      "outputs": [],
      "stateMutability": "nonpayable",
      "type": "function"
    },
    {
      "inputs": [
        {
          "internalType": "uint256",
          "name": "amountA",
          "type": "uint256"
        },
        {
          "internalType": "uint256",
          "name": "reserveA",
          "type": "uint256"
        },
        {
          "internalType": "uint256",
          "name": "reserveB",
          "type": "uint256"
        }
      ],
      "name": "quote",
      "outputs": [
        {
          "internalType": "uint256",
          "name": "amountB",
          "type": "uint256"
        }
      ],
      "stateMutability": "pure",
      "type": "function"
    },
    {
      "inputs": [
        {
          "internalType": "address",
          "name": "tokenA",
          "type": "address"
        },
        {
          "internalType": "address",
          "name": "tokenB",
          "type": "address"
        },
        {
          "internalType": "uint256",
          "name": "liquidity",
          "type": "uint256"
        },
        {
          "internalType": "uint256",
          "name": "amountAMin",
          "type": "uint256"
        },
        {
          "internalType": "uint256",
          "name": "amountBMin",
          "type": "uint256"
        },
        {
          "internalType": "address",
          "name": "to",
          "type": "address"
        },
        {
          "internalType": "uint256",
          "name": "deadline",
          "type": "uint256"
        }
      ],
      "name": "removeLiquidity",
      "outputs": [
        {
          "internalType": "uint256",
          "name": "amountA",
          "type": "uint256"
        },
        {
          "internalType": "uint256",
          "name": "amountB",
          "type": "uint256"
        }
      ],
      "stateMutability": "nonpayable",
      "type": "function"
    },
    {
      "inputs": [
        {
          "internalType": "address",
          "name": "token",
          "type": "address"
        },
        {
          "internalType": "uint256",
          "name": "liquidity",
          "type": "uint256"
        },
        {
          "internalType": "uint256",
          "name": "amountTokenMin",
          "type": "uint256"
        },
        {
          "internalType": "uint256",
          "name": "amountETHMin",
          "type": "uint256"
        },
        {
          "internalType": "address",
          "name": "to",
          "type": "address"
        },
        {
          "internalType": "uint256",
          "name": "deadline",
          "type": "uint256"
        }
      ],
      "name": "removeLiquidityETH",
      "outputs": [
        {
          "internalType": "uint256",
          "name": "amountToken",
          "type": "uint256"
        },
        {
          "internalType": "uint256",
          "name": "amountETH",
          "type": "uint256"
        }
      ],
      "stateMutability": "nonpayable",
      "type": "function"
    },
    {
      "inputs": [
        {
          "internalType": "address",
          "name": "token",
          "type": "address"
        },
        {
          "internalType": "uint256",
          "name": "liquidity",
          "type": "uint256"
        },
        {
          "internalType": "uint256",
          "name": "amountTokenMin",
          "type": "uint256"
        },
        {
          "internalType": "uint256",
          "name": "amountETHMin",
          "type": "uint256"
        },
        {
          "internalType": "address",
          "name": "to",
          "type": "address"
        },
        {
          "internalType": "uint256",
          "name": "deadline",
          "type": "uint256"
        }
      ],
      "name": "removeLiquidityETHSupportingFeeOnTransferTokens",
      "outputs": [
        {
          "internalType": "uint256",
          "name": "amountETH",
          "type": "uint256"
        }
      ],
      "stateMutability": "nonpayable",
      "type": "function"
    },
    {
      "inputs": [
        {
          "internalType": "address",
          "name": "token",
          "type": "address"
        },
        {
          "internalType": "uint256",
          "name": "liquidity",
          "type": "uint256"
        },
        {
          "internalType": "uint256",
          "name": "amountTokenMin",
          "type": "uint256"
        },
        {
          "internalType": "uint256",
          "name": "amountETHMin",
          "type": "uint256"
        },
        {
          "internalType": "address",
          "name": "to",
          "type": "address"
        },
        {
          "internalType": "uint256",
          "name": "deadline",
          "type": "uint256"
        },
        {
          "internalType": "bool",
          "name": "approveMax",
          "type": "bool"
        },
        {
          "internalType": "uint8",
          "name": "v",
          "type": "uint8"
        },
        {
          "internalType": "bytes32",
          "name": "r",
          "type": "bytes32"
        },
        {
          "internalType": "bytes32",
          "name": "s",
          "type": "bytes32"
        }
      ],
      "name": "removeLiquidityETHWithPermit",
      "outputs": [
        {
          "internalType": "uint256",
          "name": "amountToken",
          "type": "uint256"
        },
        {
          "internalType": "uint256",
          "name": "amountETH",
          "type": "uint256"
        }
      ],
      "stateMutability": "nonpayable",
      "type": "function"
    },
    {
      "inputs": [
        {
          "internalType": "address",
          "name": "token",
          "type": "address"
        },
        {
          "internalType": "uint256",
          "name": "liquidity",
          "type": "uint256"
        },
        {
          "internalType": "uint256",
          "name": "amountTokenMin",
          "type": "uint256"
        },
        {
          "internalType": "uint256",
          "name": "amountETHMin",
          "type": "uint256"
        },
        {
          "internalType": "address",
          "name": "to",
          "type": "address"
        },
        {
          "internalType": "uint256",
          "name": "deadline",
          "type": "uint256"
        },
        {
          "internalType": "bool",
          "name": "approveMax",
          "type": "bool"
        },
        {
          "internalType": "uint8",
          "name": "v",
          "type": "uint8"
        },
        {
          "internalType": "bytes32",
          "name": "r",
          "type": "bytes32"
        },
        {
          "internalType": "bytes32",
          "name": "s",
          "type": "bytes32"
        }
      ],
      "name": "removeLiquidityETHWithPermitSupportingFeeOnTransferTokens",
      "outputs": [
        {
          "internalType": "uint256",
          "name": "amountETH",
          "type": "uint256"
        }
      ],
      "stateMutability": "nonpayable",
      "type": "function"
    },
    {
      "inputs": [
        {
          "internalType": "address",
          "name": "tokenA",
          "type": "address"
        },
        {
          "internalType": "address",
          "name": "tokenB",
          "type": "address"
        },
        {
          "internalType": "uint256",
          "name": "liquidity",
          "type": "uint256"
        },
        {
          "internalType": "uint256",
          "name": "amountAMin",
          "type": "uint256"
        },
        {
          "internalType": "uint256",
          "name": "amountBMin",
          "type": "uint256"
        },
        {
          "internalType": "address",
          "name": "to",
          "type": "address"
        },
        {
          "internalType": "uint256",
          "name": "deadline",
          "type": "uint256"
        },
        {
          "internalType": "bool",
          "name": "approveMax",
          "type": "bool"
        },
        {
          "internalType": "uint8",
          "name": "v",
          "type": "uint8"
        },
        {
          "internalType": "bytes32",
          "name": "r",
          "type": "bytes32"
        },
        {
          "internalType": "bytes32",
          "name": "s",
          "type": "bytes32"
        }
      ],
      "name": "removeLiquidityWithPermit",
      "outputs": [
        {
          "internalType": "uint256",
          "name": "amountA",
          "type": "uint256"
        },
        {
          "internalType": "uint256",
          "name": "amountB",
          "type": "uint256"
        }
      ],
      "stateMutability": "nonpayable",
      "type": "function"
    },
    {
      "inputs": [],
      "name": "routerTrade",
      "outputs": [
        {
          "internalType": "address",
          "name": "",
          "type": "address"
        }
      ],
      "stateMutability": "view",
      "type": "function"
    },
    {
      "inputs": [
        {
          "internalType": "uint256",
          "name": "_implIndex",
          "type": "uint256"
        },
        {
          "internalType": "address",
          "name": "_impl",
          "type": "address"
        }
      ],
      "name": "setImpls",
      "outputs": [],
      "stateMutability": "nonpayable",
      "type": "function"
    },
    {
      "inputs": [
        {
          "internalType": "address",
          "name": "_routerTrade",
          "type": "address"
        }
      ],
      "name": "setRouterTrade",
      "outputs": [],
      "stateMutability": "nonpayable",
      "type": "function"
    },
    {
      "inputs": [
        {
          "internalType": "address",
          "name": "_weth",
          "type": "address"
        }
      ],
      "name": "setWETH",
      "outputs": [],
      "stateMutability": "nonpayable",
      "type": "function"
    },
    {
      "inputs": [
        {
          "internalType": "address",
          "name": "_user",
          "type": "address"
        },
        {
          "internalType": "bool",
          "name": "_status",
          "type": "bool"
        }
      ],
      "name": "setWhitelist",
      "outputs": [],
      "stateMutability": "nonpayable",
      "type": "function"
    },
    {
      "inputs": [
        {
          "internalType": "uint256",
          "name": "amountOut",
          "type": "uint256"
        },
        {
          "internalType": "address[]",
          "name": "path",
          "type": "address[]"
        },
        {
          "internalType": "address",
          "name": "to",
          "type": "address"
        },
        {
          "internalType": "uint256",
          "name": "deadline",
          "type": "uint256"
        }
      ],
      "name": "swapETHForExactTokens",
      "outputs": [
        {
          "internalType": "uint256[]",
          "name": "amounts",
          "type": "uint256[]"
        }
      ],
      "stateMutability": "payable",
      "type": "function"
    },
    {
      "inputs": [
        {
          "internalType": "uint256",
          "name": "amountOutMin",
          "type": "uint256"
        },
        {
          "internalType": "address[]",
          "name": "path",
          "type": "address[]"
        },
        {
          "internalType": "address",
          "name": "to",
          "type": "address"
        },
        {
          "internalType": "uint256",
          "name": "deadline",
          "type": "uint256"
        }
      ],
      "name": "swapExactETHForTokens",
      "outputs": [
        {
          "internalType": "uint256[]",
          "name": "amounts",
          "type": "uint256[]"
        }
      ],
      "stateMutability": "payable",
      "type": "function"
    },
    {
      "inputs": [
        {
          "internalType": "uint256",
          "name": "amountOutMin",
          "type": "uint256"
        },
        {
          "internalType": "address[]",
          "name": "path",
          "type": "address[]"
        },
        {
          "internalType": "address",
          "name": "to",
          "type": "address"
        },
        {
          "internalType": "uint256",
          "name": "deadline",
          "type": "uint256"
        }
      ],
      "name": "swapExactETHForTokensSupportingFeeOnTransferTokens",
      "outputs": [],
      "stateMutability": "payable",
      "type": "function"
    },
    {
      "inputs": [
        {
          "internalType": "uint256",
          "name": "amountIn",
          "type": "uint256"
        },
        {
          "internalType": "uint256",
          "name": "amountOutMin",
          "type": "uint256"
        },
        {
          "internalType": "address[]",
          "name": "path",
          "type": "address[]"
        },
        {
          "internalType": "address",
          "name": "from",
          "type": "address"
        },
        {
          "internalType": "address",
          "name": "to",
          "type": "address"
        },
        {
          "internalType": "uint256",
          "name": "deadline",
          "type": "uint256"
        }
      ],
      "name": "swapExactTokensForETH",
      "outputs": [
        {
          "internalType": "uint256[]",
          "name": "amounts",
          "type": "uint256[]"
        }
      ],
      "stateMutability": "nonpayable",
      "type": "function"
    },
    {
      "inputs": [
        {
          "internalType": "uint256",
          "name": "amountIn",
          "type": "uint256"
        },
        {
          "internalType": "uint256",
          "name": "amountOutMin",
          "type": "uint256"
        },
        {
          "internalType": "address[]",
          "name": "path",
          "type": "address[]"
        },
        {
          "internalType": "address",
          "name": "to",
          "type": "address"
        },
        {
          "internalType": "uint256",
          "name": "deadline",
          "type": "uint256"
        }
      ],
      "name": "swapExactTokensForETH",
      "outputs": [
        {
          "internalType": "uint256[]",
          "name": "amounts",
          "type": "uint256[]"
        }
      ],
      "stateMutability": "nonpayable",
      "type": "function"
    },
    {
      "inputs": [
        {
          "internalType": "uint256",
          "name": "amountIn",
          "type": "uint256"
        },
        {
          "internalType": "uint256",
          "name": "amountOutMin",
          "type": "uint256"
        },
        {
          "internalType": "address[]",
          "name": "path",
          "type": "address[]"
        },
        {
          "internalType": "address",
          "name": "from",
          "type": "address"
        },
        {
          "internalType": "address",
          "name": "to",
          "type": "address"
        },
        {
          "internalType": "uint256",
          "name": "deadline",
          "type": "uint256"
        }
      ],
      "name": "swapExactTokensForETHSupportingFeeOnTransferTokens",
      "outputs": [],
      "stateMutability": "nonpayable",
      "type": "function"
    },
    {
      "inputs": [
        {
          "internalType": "uint256",
          "name": "amountIn",
          "type": "uint256"
        },
        {
          "internalType": "uint256",
          "name": "amountOutMin",
          "type": "uint256"
        },
        {
          "internalType": "address[]",
          "name": "path",
          "type": "address[]"
        },
        {
          "internalType": "address",
          "name": "to",
          "type": "address"
        },
        {
          "internalType": "uint256",
          "name": "deadline",
          "type": "uint256"
        }
      ],
      "name": "swapExactTokensForETHSupportingFeeOnTransferTokens",
      "outputs": [],
      "stateMutability": "nonpayable",
      "type": "function"
    },
    {
      "inputs": [
        {
          "internalType": "uint256",
          "name": "amountOut",
          "type": "uint256"
        },
        {
          "internalType": "uint256",
          "name": "amountInMax",
          "type": "uint256"
        },
        {
          "internalType": "address[]",
          "name": "path",
          "type": "address[]"
        },
        {
          "internalType": "address",
          "name": "from",
          "type": "address"
        },
        {
          "internalType": "address",
          "name": "to",
          "type": "address"
        },
        {
          "internalType": "uint256",
          "name": "deadline",
          "type": "uint256"
        }
      ],
      "name": "swapTokensForExactETH",
      "outputs": [
        {
          "internalType": "uint256[]",
          "name": "amounts",
          "type": "uint256[]"
        }
      ],
      "stateMutability": "nonpayable",
      "type": "function"
    },
    {
      "inputs": [
        {
          "internalType": "uint256",
          "name": "amountOut",
          "type": "uint256"
        },
        {
          "internalType": "uint256",
          "name": "amountInMax",
          "type": "uint256"
        },
        {
          "internalType": "address[]",
          "name": "path",
          "type": "address[]"
        },
        {
          "internalType": "address",
          "name": "to",
          "type": "address"
        },
        {
          "internalType": "uint256",
          "name": "deadline",
          "type": "uint256"
        }
      ],
      "name": "swapTokensForExactETH",
      "outputs": [
        {
          "internalType": "uint256[]",
          "name": "amounts",
          "type": "uint256[]"
        }
      ],
      "stateMutability": "nonpayable",
      "type": "function"
    },
    {
      "inputs": [],
      "name": "version",
      "outputs": [
        {
          "internalType": "uint256",
          "name": "",
          "type": "uint256"
        }
      ],
      "stateMutability": "view",
      "type": "function"
    },
    {
      "inputs": [
        {
          "internalType": "address",
          "name": "",
          "type": "address"
        }
      ],
      "name": "whitelistAccess",
      "outputs": [
        {
          "internalType": "bool",
          "name": "",
          "type": "bool"
        }
      ],
      "stateMutability": "view",
      "type": "function"
    },
    {
      "stateMutability": "payable",
      "type": "receive"
    }
  ],
  "transactionHash": "0x594b56ee1ec1f74d6d0fcc0a91f0a6aa4c60470c1fbb170d6c61ca20586c7573",
  "args": [],
  "numDeployments": 1,
  "solcInputHash": "9bd1e1c77f79dfed0216f9a842d3455f",
  "bytecode": "0x608060405234801561001057600080fd5b506158f880620000216000396000f3fe6080604052600436106101ae5760003560e01c806302751cec14610202578063054d50d41461023c5780630782abdf1461026a57806318cbafe5146102975780631f00ca74146102b75780632195995c146102d75780632295c42d146102f75780632391dfe8146103175780632a2d0c4714610337578063485cc9551461037a5780634a25d94a1461039a57806352aa4c22146103ba57806353d6fd59146103da57806354fd4d50146103fa5780635b0d59841461040e5780635b769f3c1461042e57806374d3fef21461044e578063791ac947146104845780637ff36ab5146104a457806385f8c259146104b757806389312c8a146104d75780639ca21d03146104f7578063ad5c464814610537578063ad615dec14610557578063af2979eb14610577578063b6f9de9514610597578063baa2abde146105aa578063c2ee3a08146105ca578063c45a0155146105e6578063c6b06e2d1461060c578063d06ca61f1461062c578063ded9382a1461064c578063e8e337001461066c578063f305d719146106a7578063f851a440146106ba578063fb3bdb41146106da578063fbe4ebda146106ed576101b5565b366101b557005b3480156101c157600080fd5b506001600052600a6020527fbbc70db1b6c7afd11e79c0fb0051300458f1a3acb8ee9789d9b6b26c61ad9bc754610200906001600160a01b031661070d565b005b34801561020e57600080fd5b5061022261021d366004614d5d565b610736565b604080519283526020830191909152015b60405180910390f35b34801561024857600080fd5b5061025c610257366004614dbb565b6107e2565b604051908152602001610233565b34801561027657600080fd5b5061028a610285366004614e2b565b6107f9565b6040516102339190614eb1565b3480156102a357600080fd5b5061028a6102b2366004614ef5565b610ce9565b3480156102c357600080fd5b5061028a6102d2366004614f7d565b61113d565b3480156102e357600080fd5b506102226102f236600461506c565b61115d565b34801561030357600080fd5b50610200610312366004615116565b61122b565b34801561032357600080fd5b5061028a610332366004614e2b565b611280565b34801561034357600080fd5b5061036d610352366004615142565b6007602052600090815260409020546001600160a01b031681565b604051610233919061515b565b34801561038657600080fd5b5061020061039536600461516f565b6116db565b3480156103a657600080fd5b5061028a6103b5366004614ef5565b6117ef565b3480156103c657600080fd5b506102006103d5366004614e2b565b611c5e565b3480156103e657600080fd5b506102006103f53660046151a8565b611fa0565b34801561040657600080fd5b50600161025c565b34801561041a57600080fd5b5061025c6104293660046151d6565b611fd3565b34801561043a57600080fd5b5061020061044936600461526c565b612099565b34801561045a57600080fd5b5061036d610469366004615142565b600a602052600090815260409020546001600160a01b031681565b34801561049057600080fd5b5061020061049f366004614ef5565b6120c3565b61028a6104b2366004615289565b61242c565b3480156104c357600080fd5b5061025c6104d2366004614dbb565b612840565b3480156104e357600080fd5b506102006104f23660046152ef565b61284d565b34801561050357600080fd5b5061052761051236600461526c565b60096020526000908152604090205460ff1681565b6040519015158152602001610233565b34801561054357600080fd5b5060015461036d906001600160a01b031681565b34801561056357600080fd5b5061025c610572366004614dbb565b612883565b34801561058357600080fd5b5061025c610592366004614d5d565b612890565b6102006105a5366004615289565b612999565b3480156105b657600080fd5b506102226105c5366004615314565b612cbc565b3480156105d657600080fd5b5061025c670de0b6b3a764000081565b3480156105f257600080fd5b5060005461036d906201000090046001600160a01b031681565b34801561061857600080fd5b5060085461036d906001600160a01b031681565b34801561063857600080fd5b5061028a610647366004614f7d565b612e5b565b34801561065857600080fd5b506102226106673660046151d6565b612e7b565b34801561067857600080fd5b5061068c610687366004615386565b612f58565b60408051938452602084019290925290820152606001610233565b61068c6106b5366004614d5d565b613036565b3480156106c657600080fd5b5060025461036d906001600160a01b031681565b61028a6106e8366004615289565b61321f565b3480156106f957600080fd5b5061020061070836600461526c565b613668565b3660008037600080366000845af43d6000803e80801561072c573d6000f35b3d6000fd5b505050565b6000808261074381613692565b60015461075f908a906001600160a01b03168a8a8a308a612cbc565b600154604051632e1a7d4d60e01b8152600481018390529295509093506001600160a01b031690632e1a7d4d90602401600060405180830381600087803b1580156107a957600080fd5b505af11580156107bd573d6000803e3d6000fd5b505050506107cb85836136df565b6107d68986856137b9565b50965096945050505050565b60006107ef8484846138ec565b90505b9392505050565b60608161080581613692565b61080d6139ca565b600180546001600160a01b031690889088906108299082615418565b8181106108385761083861542f565b905060200201602081019061084d919061526c565b6001600160a01b03161461087c5760405162461bcd60e51b815260040161087390615445565b60405180910390fd5b60006108d1600060029054906101000a90046001600160a01b03168b8a8a80806020026020016040519081016040528093929190818152602001838360200280828437600092019190915250613a2b92505050565b90508881600183516108e39190615418565b815181106108f3576108f361542f565b602002602001015110156109195760405162461bcd60e51b81526004016108739061547b565b60066000898960008181106109305761093061542f565b9050602002016020810190610945919061526c565b6001600160a01b0316815260208101919091526040016000205460ff161515600114801561097d5750600154600160a01b900460ff16155b80156109d857506000600660008a8a600081811061099d5761099d61542f565b90506020020160208101906109b2919061526c565b6001600160a01b03166001600160a01b0316815260200190815260200160002060050154115b15610ad3576000670de0b6b3a7640000600660008b8b60008181106109ff576109ff61542f565b9050602002016020810190610a14919061526c565b6001600160a01b03168152602081019190915260400160002060050154610a3b908d6154c5565b610a4591906154e4565b9050610a51818c615418565b9a50610ad189896000818110610a6957610a6961542f565b9050602002016020810190610a7e919061526c565b88600660008d8d6000818110610a9657610a9661542f565b9050602002016020810190610aab919061526c565b6001600160a01b0390811682526020820192909252604001600020600301541684613b85565b505b610b26600060029054906101000a90046001600160a01b03168b8a8a80806020026020016040519081016040528093929190818152602001838360200280828437600092019190915250613a2b92505050565b9250610be288886000818110610b3e57610b3e61542f565b9050602002016020810190610b53919061526c565b87610bc2600060029054906101000a90046001600160a01b03168c8c6000818110610b8057610b8061542f565b9050602002016020810190610b95919061526c565b8d8d6001818110610ba857610ba861542f565b9050602002016020810190610bbd919061526c565b613cbf565b86600081518110610bd557610bd561542f565b6020026020010151613b85565b610c2183898980806020026020016040519081016040528093929190818152602001838360200280828437600092019190915250309250613d7c915050565b6001805484516001600160a01b0390911691632e1a7d4d918691610c4491615418565b81518110610c5457610c5461542f565b60200260200101516040518263ffffffff1660e01b8152600401610c7a91815260200190565b600060405180830381600087803b158015610c9457600080fd5b505af1158015610ca8573d6000803e3d6000fd5b50505050610cdc858460018651610cbf9190615418565b81518110610ccf57610ccf61542f565b60200260200101516136df565b5050979650505050505050565b606081610cf581613692565b610cfd6139ca565b600180546001600160a01b03169087908790610d199082615418565b818110610d2857610d2861542f565b9050602002016020810190610d3d919061526c565b6001600160a01b031614610d635760405162461bcd60e51b815260040161087390615445565b6000610db8600060029054906101000a90046001600160a01b03168a898980806020026020016040519081016040528093929190818152602001838360200280828437600092019190915250613a2b92505050565b9050878160018351610dca9190615418565b81518110610dda57610dda61542f565b60200260200101511015610e005760405162461bcd60e51b81526004016108739061547b565b6006600088886000818110610e1757610e1761542f565b9050602002016020810190610e2c919061526c565b6001600160a01b0316815260208101919091526040016000205460ff1615156001148015610e645750600154600160a01b900460ff16155b8015610ebf575060006006600089896000818110610e8457610e8461542f565b9050602002016020810190610e99919061526c565b6001600160a01b03166001600160a01b0316815260200190815260200160002060050154115b15610f7f576000670de0b6b3a7640000600660008a8a6000818110610ee657610ee661542f565b9050602002016020810190610efb919061526c565b6001600160a01b03168152602081019190915260400160002060050154610f22908c6154c5565b610f2c91906154e4565b9050610f38818b615418565b9950610f7d88886000818110610f5057610f5061542f565b9050602002016020810190610f65919061526c565b33600660008c8c6000818110610a9657610a9661542f565b505b610fd2600060029054906101000a90046001600160a01b03168a898980806020026020016040519081016040528093929190818152602001838360200280828437600092019190915250613a2b92505050565b925061105487876000818110610fea57610fea61542f565b9050602002016020810190610fff919061526c565b33610bc2600060029054906101000a90046001600160a01b03168b8b600081811061102c5761102c61542f565b9050602002016020810190611041919061526c565b8c8c6001818110610ba857610ba861542f565b61109383888880806020026020016040519081016040528093929190818152602001838360200280828437600092019190915250309250613d7c915050565b6001805484516001600160a01b0390911691632e1a7d4d9186916110b691615418565b815181106110c6576110c661542f565b60200260200101516040518263ffffffff1660e01b81526004016110ec91815260200190565b600060405180830381600087803b15801561110657600080fd5b505af115801561111a573d6000803e3d6000fd5b50505050611131858460018651610cbf9190615418565b50509695505050505050565b6000546060906107f2906201000090046001600160a01b03168484613f69565b6000806000611182600060029054906101000a90046001600160a01b03168f8f613cbf565b9050600087611191578c611195565b6000195b60405163d505accf60e01b81529091506001600160a01b0383169063d505accf906111d0903390309086908f908e908e908e90600401615506565b600060405180830381600087803b1580156111ea57600080fd5b505af11580156111fe573d6000803e3d6000fd5b505050506112118f8f8f8f8f8f8f612cbc565b809450819550505050509b509b9950505050505050505050565b6112336140b9565b6001600160a01b0382166000908152600460205260409020805460ff191660011790556112608142615547565b6001600160a01b0390921660009081526005602052604090209190915550565b60608161128c81613692565b6112946139ca565b600180546001600160a01b031690889088906112b09082615418565b8181106112bf576112bf61542f565b90506020020160208101906112d4919061526c565b6001600160a01b0316146112fa5760405162461bcd60e51b815260040161087390615445565b61134d600060029054906101000a90046001600160a01b03168a898980806020026020016040519081016040528093929190818152602001838360200280828437600092019190915250613f6992505050565b915087826000815181106113635761136361542f565b602002602001015111156113895760405162461bcd60e51b81526004016108739061555f565b60066000888860008181106113a0576113a061542f565b90506020020160208101906113b5919061526c565b6001600160a01b0316815260208101919091526040016000205460ff16151560011480156113ed5750600154600160a01b900460ff16155b801561144857506000600660008989600081811061140d5761140d61542f565b9050602002016020810190611422919061526c565b6001600160a01b03166001600160a01b0316815260200190815260200160002060050154115b15611518576000826000815181106114625761146261542f565b602002602001015190506000670de0b6b3a7640000600660008b8b600081811061148e5761148e61542f565b90506020020160208101906114a3919061526c565b6001600160a01b031681526020810191909152604001600020600501546114ca90846154c5565b6114d491906154e4565b90506114e08183615418565b846000815181106114f3576114f361542f565b60200260200101818152505061151589896000818110610a6957610a6961542f565b50505b611585600060029054906101000a90046001600160a01b0316836000815181106115445761154461542f565b6020026020010151898980806020026020016040519081016040528093929190818152602001838360200280828437600092019190915250613a2b92505050565b91506115f28787600081811061159d5761159d61542f565b90506020020160208101906115b2919061526c565b866115df600060029054906101000a90046001600160a01b03168b8b600081811061102c5761102c61542f565b85600081518110610bd557610bd561542f565b61163182888880806020026020016040519081016040528093929190818152602001838360200280828437600092019190915250309250613d7c915050565b6001805483516001600160a01b0390911691632e1a7d4d91859161165491615418565b815181106116645761166461542f565b60200260200101516040518263ffffffff1660e01b815260040161168a91815260200190565b600060405180830381600087803b1580156116a457600080fd5b505af11580156116b8573d6000803e3d6000fd5b505050506116cf848360018551610cbf9190615418565b50979650505050505050565b600054610100900460ff16806116f05750303b155b806116fe575060005460ff16155b6117615760405162461bcd60e51b815260206004820152602e60248201527f496e697469616c697a61626c653a20636f6e747261637420697320616c72656160448201526d191e481a5b9a5d1a585b1a5e995960921b6064820152608401610873565b600054610100900460ff16158015611783576000805461ffff19166101011790555b600080546001600160a01b03808616620100000262010000600160b01b031990921691909117825560018054600280546001600160a01b031916331790556003939093556001600160a81b03199092169084161790558015610731576000805461ff0019169055505050565b6060816117fb81613692565b6118036139ca565b600180546001600160a01b0316908790879061181f9082615418565b81811061182e5761182e61542f565b9050602002016020810190611843919061526c565b6001600160a01b0316146118695760405162461bcd60e51b815260040161087390615445565b6118bc600060029054906101000a90046001600160a01b031689888880806020026020016040519081016040528093929190818152602001838360200280828437600092019190915250613f6992505050565b915086826000815181106118d2576118d261542f565b602002602001015111156118f85760405162461bcd60e51b81526004016108739061555f565b600660008787600081811061190f5761190f61542f565b9050602002016020810190611924919061526c565b6001600160a01b0316815260208101919091526040016000205460ff161515600114801561195c5750600154600160a01b900460ff16155b80156119b757506000600660008888600081811061197c5761197c61542f565b9050602002016020810190611991919061526c565b6001600160a01b03166001600160a01b0316815260200190815260200160002060050154115b15611a87576000826000815181106119d1576119d161542f565b602002602001015190506000670de0b6b3a7640000600660008a8a60008181106119fd576119fd61542f565b9050602002016020810190611a12919061526c565b6001600160a01b03168152602081019190915260400160002060050154611a3990846154c5565b611a4391906154e4565b9050611a4f8183615418565b84600081518110611a6257611a6261542f565b602002602001018181525050611a8488886000818110610f5057610f5061542f565b50505b611af4600060029054906101000a90046001600160a01b031683600081518110611ab357611ab361542f565b6020026020010151888880806020026020016040519081016040528093929190818152602001838360200280828437600092019190915250613a2b92505050565b9150611b7686866000818110611b0c57611b0c61542f565b9050602002016020810190611b21919061526c565b336115df600060029054906101000a90046001600160a01b03168a8a6000818110611b4e57611b4e61542f565b9050602002016020810190611b63919061526c565b8b8b6001818110610ba857610ba861542f565b611bb582878780806020026020016040519081016040528093929190818152602001838360200280828437600092019190915250309250613d7c915050565b6001805483516001600160a01b0390911691632e1a7d4d918591611bd891615418565b81518110611be857611be861542f565b60200260200101516040518263ffffffff1660e01b8152600401611c0e91815260200190565b600060405180830381600087803b158015611c2857600080fd5b505af1158015611c3c573d6000803e3d6000fd5b50505050611c53848360018551610cbf9190615418565b509695505050505050565b80611c6881613692565b611c706139ca565b600180546001600160a01b03169087908790611c8c9082615418565b818110611c9b57611c9b61542f565b9050602002016020810190611cb0919061526c565b6001600160a01b031614611cd65760405162461bcd60e51b815260040161087390615445565b6006600087876000818110611ced57611ced61542f565b9050602002016020810190611d02919061526c565b6001600160a01b0316815260208101919091526040016000205460ff1615156001148015611d3a5750600154600160a01b900460ff16155b8015611d95575060006006600088886000818110611d5a57611d5a61542f565b9050602002016020810190611d6f919061526c565b6001600160a01b03166001600160a01b0316815260200190815260200160002060050154115b15611e55576000670de0b6b3a76400006006600089896000818110611dbc57611dbc61542f565b9050602002016020810190611dd1919061526c565b6001600160a01b03168152602081019190915260400160002060050154611df8908b6154c5565b611e0291906154e4565b9050611e0e818a615418565b9850611e5387876000818110611e2657611e2661542f565b9050602002016020810190611e3b919061526c565b86600660008b8b6000818110610a9657610a9661542f565b505b611eb386866000818110611e6b57611e6b61542f565b9050602002016020810190611e80919061526c565b85611ead600060029054906101000a90046001600160a01b03168a8a6000818110611b4e57611b4e61542f565b8b613b85565b600080611ef4888880806020026020016040519081016040528093929190818152602001838360200280828437600092019190915250309250614113915050565b915091506000808311611f075781611f09565b825b905089811015611f2b5760405162461bcd60e51b81526004016108739061547b565b600154604051632e1a7d4d60e01b8152600481018390526001600160a01b0390911690632e1a7d4d90602401600060405180830381600087803b158015611f7157600080fd5b505af1158015611f85573d6000803e3d6000fd5b50505050611f9386826136df565b5050505050505050505050565b611fa86140b9565b6001600160a01b03919091166000908152600960205260409020805460ff1916911515919091179055565b600080546001548291611ffa916001600160a01b03620100009092048216918f9116613cbf565b9050600086612009578b61200d565b6000195b60405163d505accf60e01b81529091506001600160a01b0383169063d505accf90612048903390309086908e908d908d908d90600401615506565b600060405180830381600087803b15801561206257600080fd5b505af1158015612076573d6000803e3d6000fd5b505050506120888d8d8d8d8d8d612890565b9d9c50505050505050505050505050565b6120a16140b9565b600180546001600160a01b0319166001600160a01b0392909216919091179055565b806120cd81613692565b6120d56139ca565b600180546001600160a01b031690869086906120f19082615418565b8181106121005761210061542f565b9050602002016020810190612115919061526c565b6001600160a01b03161461213b5760405162461bcd60e51b815260040161087390615445565b60066000868660008181106121525761215261542f565b9050602002016020810190612167919061526c565b6001600160a01b0316815260208101919091526040016000205460ff161515600114801561219f5750600154600160a01b900460ff16155b80156121fa5750600060066000878760008181106121bf576121bf61542f565b90506020020160208101906121d4919061526c565b6001600160a01b03166001600160a01b0316815260200190815260200160002060050154115b156122ba576000670de0b6b3a764000060066000888860008181106122215761222161542f565b9050602002016020810190612236919061526c565b6001600160a01b0316815260208101919091526040016000206005015461225d908a6154c5565b61226791906154e4565b90506122738189615418565b97506122b88686600081811061228b5761228b61542f565b90506020020160208101906122a0919061526c565b33600660008a8a6000818110610a9657610a9661542f565b505b612340858560008181106122d0576122d061542f565b90506020020160208101906122e5919061526c565b3361233a600060029054906101000a90046001600160a01b0316898960008181106123125761231261542f565b9050602002016020810190612327919061526c565b8a8a6001818110610ba857610ba861542f565b8a613b85565b60008061238187878080602002602001604051908101604052809392919081815260200183836020028082843760009201919091525030925061448c915050565b9150915060008083116123945781612396565b825b9050888110156123b85760405162461bcd60e51b81526004016108739061547b565b600154604051632e1a7d4d60e01b8152600481018390526001600160a01b0390911690632e1a7d4d90602401600060405180830381600087803b1580156123fe57600080fd5b505af1158015612412573d6000803e3d6000fd5b5050505061242086826136df565b50505050505050505050565b60608161243881613692565b6124406139ca565b6001546001600160a01b0316868660008161245d5761245d61542f565b9050602002016020810190612472919061526c565b6001600160a01b0316146124985760405162461bcd60e51b815260040161087390615445565b6124eb600060029054906101000a90046001600160a01b031634888880806020026020016040519081016040528093929190818152602001838360200280828437600092019190915250613a2b92505050565b91508682600184516124fd9190615418565b8151811061250d5761250d61542f565b602002602001015110156125335760405162461bcd60e51b81526004016108739061547b565b600660008787600181811061254a5761254a61542f565b905060200201602081019061255f919061526c565b6001600160a01b0316815260208101919091526040016000205460ff16151560011480156125975750600154600160a01b900460ff16155b80156125f25750600060066000888860018181106125b7576125b761542f565b90506020020160208101906125cc919061526c565b6001600160a01b03166001600160a01b0316815260200190815260200160002060040154115b156126c457600082600184516126089190615418565b815181106126185761261861542f565b602002602001015190506000670de0b6b3a7640000600660008a8a60018181106126445761264461542f565b9050602002016020810190612659919061526c565b6001600160a01b0316815260208101919091526040016000206004015461268090846154c5565b61268a91906154e4565b90506126968183615418565b84600186516126a59190615418565b815181106126b5576126b561542f565b60200260200101818152505050505b60015482516001600160a01b039091169063d0e30db09084906000906126ec576126ec61542f565b60200260200101516040518263ffffffff1660e01b81526004016000604051808303818588803b15801561271f57600080fd5b505af1158015612733573d6000803e3d6000fd5b5050600154600080546001600160a01b03928316955063a9059cbb94506127709350620100009004909116908a908a90816123125761231261542f565b846000815181106127835761278361542f565b60200260200101516040518363ffffffff1660e01b81526004016127a89291906155a5565b6020604051808303816000875af11580156127c7573d6000803e3d6000fd5b505050506040513d601f19601f820116820180604052508101906127eb91906155be565b6127f7576127f76155db565b61283682878780806020026020016040519081016040528093929190818152602001838360200280828437600092019190915250899250613d7c915050565b5095945050505050565b60006107ef8484846147fd565b6128556140b9565b6000918252600a602052604090912080546001600160a01b0319166001600160a01b03909216919091179055565b60006107ef8484846148e1565b60008161289c81613692565b6001546128b89089906001600160a01b03168989893089612cbc565b600154604051632e1a7d4d60e01b8152600481018390529194506001600160a01b03169150632e1a7d4d90602401600060405180830381600087803b15801561290057600080fd5b505af1158015612914573d6000803e3d6000fd5b5050505061292284836136df565b611c5388858a6001600160a01b03166370a08231306040518263ffffffff1660e01b8152600401612953919061515b565b602060405180830381865afa158015612970573d6000803e3d6000fd5b505050506040513d601f19601f8201168201806040525081019061299491906155f1565b6137b9565b806129a381613692565b6129ab6139ca565b6001546001600160a01b031685856000816129c8576129c861542f565b90506020020160208101906129dd919061526c565b6001600160a01b031614612a035760405162461bcd60e51b815260040161087390615445565b60015460408051630d0e30db60e41b8152905134926001600160a01b03169163d0e30db091849160048082019260009290919082900301818588803b158015612a4b57600080fd5b505af1158015612a5f573d6000803e3d6000fd5b5050600154600080546001600160a01b03928316955063a9059cbb9450612a9c9350620100009004909116908a908a90816123125761231261542f565b836040518363ffffffff1660e01b8152600401612aba9291906155a5565b6020604051808303816000875af1158015612ad9573d6000803e3d6000fd5b505050506040513d601f19601f82011682018060405250810190612afd91906155be565b612b0957612b096155db565b60008686612b18600182615418565b818110612b2757612b2761542f565b9050602002016020810190612b3c919061526c565b6001600160a01b03166370a08231866040518263ffffffff1660e01b8152600401612b67919061515b565b602060405180830381865afa158015612b84573d6000803e3d6000fd5b505050506040513d601f19601f82011682018060405250810190612ba891906155f1565b9050612be8878780806020026020016040519081016040528093929190818152602001838360200280828437600092019190915250899250614113915050565b50889050818888612bfa600182615418565b818110612c0957612c0961542f565b9050602002016020810190612c1e919061526c565b6001600160a01b03166370a08231886040518263ffffffff1660e01b8152600401612c49919061515b565b602060405180830381865afa158015612c66573d6000803e3d6000fd5b505050506040513d601f19601f82011682018060405250810190612c8a91906155f1565b612c949190615418565b1015612cb25760405162461bcd60e51b81526004016108739061547b565b5050505050505050565b60008082612cc981613692565b60008054612ce7906201000090046001600160a01b03168c8c613cbf565b6040516323b872dd60e01b81529091506001600160a01b038216906323b872dd90612d1a90339085908e9060040161560a565b6020604051808303816000875af1158015612d39573d6000803e3d6000fd5b505050506040513d601f19601f82011682018060405250810190612d5d91906155be565b50600080826001600160a01b03166389afcb44896040518263ffffffff1660e01b8152600401612d8d919061515b565b60408051808303816000875af1158015612dab573d6000803e3d6000fd5b505050506040513d601f19601f82011682018060405250810190612dcf919061562e565b915091506000612ddf8e8e61497f565b509050806001600160a01b03168e6001600160a01b031614612e02578183612e05565b82825b90975095508a871015612e2a5760405162461bcd60e51b815260040161087390615652565b89861015612e4a5760405162461bcd60e51b815260040161087390615697565b505050505097509795505050505050565b6000546060906107f2906201000090046001600160a01b03168484613a2b565b6000806000612eb5600060029054906101000a90046001600160a01b03168e600160009054906101000a90046001600160a01b0316613cbf565b9050600087612ec4578c612ec8565b6000195b60405163d505accf60e01b81529091506001600160a01b0383169063d505accf90612f03903390309086908f908e908e908e90600401615506565b600060405180830381600087803b158015612f1d57600080fd5b505af1158015612f31573d6000803e3d6000fd5b50505050612f438e8e8e8e8e8e610736565b909f909e509c50505050505050505050505050565b600080600083612f6781613692565b612f768c8c8c8c8c8c8c614a75565b6000805492965090945090612f9b906201000090046001600160a01b03168e8e613cbf565b9050612fa98d338388613b85565b612fb58c338387613b85565b6040516335313c2160e11b81526001600160a01b03821690636a62784290612fe1908a9060040161515b565b6020604051808303816000875af1158015613000573d6000803e3d6000fd5b505050506040513d601f19601f8201168201806040525081019061302491906155f1565b92505050985098509895505050505050565b60008060008361304581613692565b600154613061908b906001600160a01b03168b348c8c8c614a75565b600080546001549397509195509161308d916001600160a01b03620100009091048116918e9116613cbf565b905061309b8b338388613b85565b600160009054906101000a90046001600160a01b03166001600160a01b031663d0e30db0856040518263ffffffff1660e01b81526004016000604051808303818588803b1580156130eb57600080fd5b505af11580156130ff573d6000803e3d6000fd5b505060015460405163a9059cbb60e01b81526001600160a01b03909116935063a9059cbb92506131369150849088906004016155a5565b6020604051808303816000875af1158015613155573d6000803e3d6000fd5b505050506040513d601f19601f8201168201806040525081019061317991906155be565b613185576131856155db565b6040516335313c2160e11b81526001600160a01b03821690636a627842906131b1908a9060040161515b565b6020604051808303816000875af11580156131d0573d6000803e3d6000fd5b505050506040513d601f19601f820116820180604052508101906131f491906155f1565b925083341115613211576132113361320c8634615418565b6136df565b505096509650969350505050565b60608161322b81613692565b6132336139ca565b6001546001600160a01b031686866000816132505761325061542f565b9050602002016020810190613265919061526c565b6001600160a01b03161461328b5760405162461bcd60e51b815260040161087390615445565b6132de600060029054906101000a90046001600160a01b031688888880806020026020016040519081016040528093929190818152602001838360200280828437600092019190915250613f6992505050565b915034826000815181106132f4576132f461542f565b6020026020010151111561331a5760405162461bcd60e51b81526004016108739061555f565b60066000878760018181106133315761333161542f565b9050602002016020810190613346919061526c565b6001600160a01b0316815260208101919091526040016000205460ff161515600114801561337e5750600154600160a01b900460ff16155b80156133d957506000600660008888600181811061339e5761339e61542f565b90506020020160208101906133b3919061526c565b6001600160a01b03166001600160a01b0316815260200190815260200160002060040154115b15613456576000670de0b6b3a764000060066000898960018181106134005761340061542f565b9050602002016020810190613415919061526c565b6001600160a01b0316815260208101919091526040016000206004015461343c908a6154c5565b61344691906154e4565b90506134528189615418565b9750505b6134a9600060029054906101000a90046001600160a01b031688888880806020026020016040519081016040528093929190818152602001838360200280828437600092019190915250613f6992505050565b60015481519193506001600160a01b03169063d0e30db09084906000906134d2576134d261542f565b60200260200101516040518263ffffffff1660e01b81526004016000604051808303818588803b15801561350557600080fd5b505af1158015613519573d6000803e3d6000fd5b5050600154600080546001600160a01b03928316955063a9059cbb94506135569350620100009004909116908a908a90816123125761231261542f565b846000815181106135695761356961542f565b60200260200101516040518363ffffffff1660e01b815260040161358e9291906155a5565b6020604051808303816000875af11580156135ad573d6000803e3d6000fd5b505050506040513d601f19601f820116820180604052508101906135d191906155be565b6135dd576135dd6155db565b61361c82878780806020026020016040519081016040528093929190818152602001838360200280828437600092019190915250899250613d7c915050565b8160008151811061362f5761362f61542f565b60200260200101513411156128365761283684836000815181106136555761365561542f565b60200260200101513461320c9190615418565b6136706140b9565b600880546001600160a01b0319166001600160a01b0392909216919091179055565b428110156136dc5760405162461bcd60e51b815260206004820152601760248201527614d859995cddd85c149bdd5d195c8e8811561412549151604a1b6044820152606401610873565b50565b604080516000808252602082019092526001600160a01b0384169083906040516137099190615708565b60006040518083038185875af1925050503d8060008114613746576040519150601f19603f3d011682016040523d82523d6000602084013e61374b565b606091505b50509050806107315760405162461bcd60e51b815260206004820152603460248201527f5472616e7366657248656c7065723a3a736166655472616e736665724554483a60448201527308115512081d1c985b9cd9995c8819985a5b195960621b6064820152608401610873565b600080846001600160a01b031663a9059cbb85856040516024016137de9291906155a5565b6040516020818303038152906040529060e01b6020820180516001600160e01b0383818316178352505050506040516138179190615708565b6000604051808303816000865af19150503d8060008114613854576040519150601f19603f3d011682016040523d82523d6000602084013e613859565b606091505b509150915081801561388357508051158061388357508080602001905181019061388391906155be565b6138e55760405162461bcd60e51b815260206004820152602d60248201527f5472616e7366657248656c7065723a3a736166655472616e736665723a20747260448201526c185b9cd9995c8819985a5b1959609a1b6064820152608401610873565b5050505050565b60008084116139505760405162461bcd60e51b815260206004820152602a60248201527f53616665737761704c6962726172793a20494e53554646494349454e545f494e60448201526914155517d05353d5539560b21b6064820152608401610873565b6000831180156139605750600082115b61397c5760405162461bcd60e51b815260040161087390615724565b600061398a856103e66154c5565b9050600061399884836154c5565b90506000826139a9876103e86154c5565b6139b39190615547565b90506139bf81836154e4565b979650505050505050565b3360009081526009602052604090205460ff16613a295760405162461bcd60e51b815260206004820152601e60248201527f5361666573776170526f757465723a204f4e4c595f57484954454c49535400006044820152606401610873565b565b6060600282511015613a4f5760405162461bcd60e51b81526004016108739061576b565b81516001600160401b03811115613a6857613a68614f67565b604051908082528060200260200182016040528015613a91578160200160208202803683370190505b5090508281600081518110613aa857613aa861542f565b60200260200101818152505060005b60018351613ac59190615418565b811015613b7d57600080613b1887868581518110613ae557613ae561542f565b602002602001015187866001613afb9190615547565b81518110613b0b57613b0b61542f565b6020026020010151614c62565b91509150613b40848481518110613b3157613b3161542f565b602002602001015183836138ec565b84613b4c856001615547565b81518110613b5c57613b5c61542f565b60200260200101818152505050508080613b75906157a2565b915050613ab7565b509392505050565b600080856001600160a01b03166323b872dd868686604051602401613bac9392919061560a565b6040516020818303038152906040529060e01b6020820180516001600160e01b038381831617835250505050604051613be59190615708565b6000604051808303816000865af19150503d8060008114613c22576040519150601f19603f3d011682016040523d82523d6000602084013e613c27565b606091505b5091509150818015613c51575080511580613c51575080806020019051810190613c5191906155be565b613cb75760405162461bcd60e51b815260206004820152603160248201527f5472616e7366657248656c7065723a3a7472616e7366657246726f6d3a207472604482015270185b9cd9995c919c9bdb4819985a5b1959607a1b6064820152608401610873565b505050505050565b60405163e6a4390560e01b81526000906001600160a01b0385169063e6a4390590613cf090869086906004016157bd565b602060405180830381865afa158015613d0d573d6000803e3d6000fd5b505050506040513d601f19601f82011682018060405250810190613d3191906157d7565b90506001600160a01b0381166107f25760405162461bcd60e51b815260206004820152601060248201526f21b0b73737ba103334b732103830b4b960811b6044820152606401610873565b60005b60018351613d8d9190615418565b811015613f6357600080848381518110613da957613da961542f565b602002602001015185846001613dbf9190615547565b81518110613dcf57613dcf61542f565b6020026020010151915091506000613de7838361497f565b509050600087613df8866001615547565b81518110613e0857613e0861542f565b60200260200101519050600080836001600160a01b0316866001600160a01b031614613e3657826000613e3a565b6000835b91509150600060028a51613e4e9190615418565b8810613e5a5788613e9a565b600054613e9a906201000090046001600160a01b0316878c613e7d8c6002615547565b81518110613e8d57613e8d61542f565b6020026020010151613cbf565b600054909150613eba906201000090046001600160a01b03168888613cbf565b6001600160a01b031663022c0d9f84848460006040519080825280601f01601f191660200182016040528015613ef7576020820181803683370190505b506040518563ffffffff1660e01b8152600401613f1794939291906157f4565b600060405180830381600087803b158015613f3157600080fd5b505af1158015613f45573d6000803e3d6000fd5b50505050505050505050508080613f5b906157a2565b915050613d7f565b50505050565b6060600282511015613f8d5760405162461bcd60e51b81526004016108739061576b565b81516001600160401b03811115613fa657613fa6614f67565b604051908082528060200260200182016040528015613fcf578160200160208202803683370190505b509050828160018351613fe29190615418565b81518110613ff257613ff261542f565b60200260200101818152505060006001835161400e9190615418565b90505b8015613b7d57600080614054878661402a600187615418565b8151811061403a5761403a61542f565b6020026020010151878681518110613b0b57613b0b61542f565b9150915061407c84848151811061406d5761406d61542f565b602002602001015183836147fd565b84614088600186615418565b815181106140985761409861542f565b602002602001018181525050505080806140b190615844565b915050614011565b6002546001600160a01b03163314613a295760405162461bcd60e51b815260206004820181905260248201527f4f776e61626c653a2063616c6c6572206973206e6f7420746865206f776e65726044820152606401610873565b60008060005b600185516141279190615418565b811015614484576000808683815181106141435761414361542f565b6020026020010151878460016141599190615547565b815181106141695761416961542f565b6020026020010151915091506000614181838361497f565b50905060006141a6600060029054906101000a90046001600160a01b03168585613cbf565b9050600080600080846001600160a01b0316630902f1ac6040518163ffffffff1660e01b8152600401606060405180830381865afa1580156141ec573d6000803e3d6000fd5b505050506040513d601f19601f820116820180604052508101906142109190615872565b506001600160701b031691506001600160701b03169150600080876001600160a01b03168a6001600160a01b03161461424a57828461424d565b83835b91509150818a6001600160a01b03166370a08231896040518263ffffffff1660e01b815260040161427e919061515b565b602060405180830381865afa15801561429b573d6000803e3d6000fd5b505050506040513d601f19601f820116820180604052508101906142bf91906155f1565b6142c99190615418565b95506142d68683836138ec565b6001600160a01b038a1660009081526006602052604090205490955060ff1615156001149350508215915061431790505750600154600160a01b900460ff16155b801561433d57506001600160a01b03851660009081526006602052604090206004015415155b1561438c576001600160a01b038516600090815260066020526040812060040154670de0b6b3a76400009061437290846154c5565b61437c91906154e4565b90506143888183615418565b9150505b836001600160a01b0316866001600160a01b0316146143ad578060006143b1565b6000815b8c51919a5098506000906143c790600290615418565b88106143d3578a6143f6565b6000546143f6906201000090046001600160a01b0316878e613e7d8c6002615547565b6040805160008152602081019182905263022c0d9f60e01b9091529091506001600160a01b0385169063022c0d9f90614438908d908d908690602481016157f4565b600060405180830381600087803b15801561445257600080fd5b505af1158015614466573d6000803e3d6000fd5b5050505050505050505050808061447c906157a2565b915050614119565b509250929050565b60008060005b600185516144a09190615418565b811015614484576000808683815181106144bc576144bc61542f565b6020026020010151878460016144d29190615547565b815181106144e2576144e261542f565b60200260200101519150915060006144fa838361497f565b509050600061451f600060029054906101000a90046001600160a01b03168585613cbf565b9050600080600080846001600160a01b0316630902f1ac6040518163ffffffff1660e01b8152600401606060405180830381865afa158015614565573d6000803e3d6000fd5b505050506040513d601f19601f820116820180604052508101906145899190615872565b506001600160701b031691506001600160701b03169150600080876001600160a01b03168a6001600160a01b0316146145c35782846145c6565b83835b91509150818a6001600160a01b03166370a08231896040518263ffffffff1660e01b81526004016145f7919061515b565b602060405180830381865afa158015614614573d6000803e3d6000fd5b505050506040513d601f19601f8201168201806040525081019061463891906155f1565b6146429190615418565b955061464f8683836138ec565b6001600160a01b038a1660009081526006602052604090205490955060ff1615156001149350508215915061469090505750600154600160a01b900460ff16155b80156146b657506001600160a01b03851660009081526006602052604090206004015415155b15614705576001600160a01b038516600090815260066020526040812060040154670de0b6b3a7640000906146eb90846154c5565b6146f591906154e4565b90506147018183615418565b9150505b836001600160a01b0316866001600160a01b0316146147265780600061472a565b6000815b8c51919a50985060009061474090600290615418565b881061474c578a61476f565b60005461476f906201000090046001600160a01b0316878e613e7d8c6002615547565b6040805160008152602081019182905263022c0d9f60e01b9091529091506001600160a01b0385169063022c0d9f906147b1908d908d908690602481016157f4565b600060405180830381600087803b1580156147cb57600080fd5b505af11580156147df573d6000803e3d6000fd5b505050505050505050505080806147f5906157a2565b915050614492565b60008084116148625760405162461bcd60e51b815260206004820152602b60248201527f53616665737761704c6962726172793a20494e53554646494349454e545f4f5560448201526a1514155517d05353d5539560aa1b6064820152608401610873565b6000831180156148725750600082115b61488e5760405162461bcd60e51b815260040161087390615724565b600061489a85856154c5565b6148a6906103e86154c5565b905060006148b48685615418565b6148c0906103e66154c5565b90506148cc81836154e4565b6148d7906001615547565b9695505050505050565b600080841161493e5760405162461bcd60e51b8152602060048201526024808201527f53616665737761704c6962726172793a20494e53554646494349454e545f414d60448201526313d5539560e21b6064820152608401610873565b60008311801561494e5750600082115b61496a5760405162461bcd60e51b815260040161087390615724565b8261497583866154c5565b6107ef91906154e4565b600080826001600160a01b0316846001600160a01b031614156149f05760405162461bcd60e51b8152602060048201526024808201527f53616665737761704c6962726172793a204944454e544943414c5f41444452456044820152635353455360e01b6064820152608401610873565b826001600160a01b0316846001600160a01b031610614a10578284614a13565b83835b90925090506001600160a01b038216614a6e5760405162461bcd60e51b815260206004820152601d60248201527f53616665737761704c6962726172793a205a45524f5f414444524553530000006044820152606401610873565b9250929050565b6000805460405163e6a4390560e01b815282918291620100009091046001600160a01b03169063e6a4390590614ab1908d908d906004016157bd565b602060405180830381865afa158015614ace573d6000803e3d6000fd5b505050506040513d601f19601f82011682018060405250810190614af291906157d7565b6001600160a01b03161415614b8a57600054604051630edef2e760e31b81526001600160a01b038b811660048301528a81166024830152858116604483015262010000909204909116906376f79738906064016020604051808303816000875af1158015614b64573d6000803e3d6000fd5b505050506040513d601f19601f82011682018060405250810190614b8891906157d7565b505b600080548190614baa906201000090046001600160a01b03168c8c614c62565b91509150816000148015614bbc575080155b15614bcc57889350879250614c54565b6000614bd98a84846148e1565b9050888111614c0d5786811015614c025760405162461bcd60e51b815260040161087390615697565b899450925082614c52565b6000614c1a8a84866148e1565b90508a811115614c2c57614c2c6155db565b88811015614c4c5760405162461bcd60e51b815260040161087390615652565b94508893505b505b505097509795505050505050565b6000806000614c71858561497f565b509050614c7f868686613cbf565b50600080614c8e888888613cbf565b6001600160a01b0316630902f1ac6040518163ffffffff1660e01b8152600401606060405180830381865afa158015614ccb573d6000803e3d6000fd5b505050506040513d601f19601f82011682018060405250810190614cef9190615872565b506001600160701b031691506001600160701b03169150826001600160a01b0316876001600160a01b031614614d26578082614d29565b81815b90999098509650505050505050565b6001600160a01b03811681146136dc57600080fd5b8035614d5881614d38565b919050565b60008060008060008060c08789031215614d7657600080fd5b8635614d8181614d38565b95506020870135945060408701359350606087013592506080870135614da681614d38565b8092505060a087013590509295509295509295565b600080600060608486031215614dd057600080fd5b505081359360208301359350604090920135919050565b60008083601f840112614df957600080fd5b5081356001600160401b03811115614e1057600080fd5b6020830191508360208260051b8501011115614a6e57600080fd5b600080600080600080600060c0888a031215614e4657600080fd5b873596506020880135955060408801356001600160401b03811115614e6a57600080fd5b614e768a828b01614de7565b9096509450506060880135614e8a81614d38565b92506080880135614e9a81614d38565b8092505060a0880135905092959891949750929550565b6020808252825182820181905260009190848201906040850190845b81811015614ee957835183529284019291840191600101614ecd565b50909695505050505050565b60008060008060008060a08789031215614f0e57600080fd5b863595506020870135945060408701356001600160401b03811115614f3257600080fd5b614f3e89828a01614de7565b9095509350506060870135614f5281614d38565b80925050608087013590509295509295509295565b634e487b7160e01b600052604160045260246000fd5b60008060408385031215614f9057600080fd5b823591506020808401356001600160401b0380821115614faf57600080fd5b818601915086601f830112614fc357600080fd5b813581811115614fd557614fd5614f67565b8060051b604051601f19603f83011681018181108582111715614ffa57614ffa614f67565b60405291825284820192508381018501918983111561501857600080fd5b938501935b8285101561503d5761502e85614d4d565b8452938501939285019261501d565b8096505050505050509250929050565b80151581146136dc57600080fd5b803560ff81168114614d5857600080fd5b60008060008060008060008060008060006101608c8e03121561508e57600080fd5b8b3561509981614d38565b9a5060208c01356150a981614d38565b995060408c0135985060608c0135975060808c0135965060a08c01356150ce81614d38565b955060c08c0135945060e08c01356150e58161504d565b93506150f46101008d0161505b565b92506101208c013591506101408c013590509295989b509295989b9093969950565b6000806040838503121561512957600080fd5b823561513481614d38565b946020939093013593505050565b60006020828403121561515457600080fd5b5035919050565b6001600160a01b0391909116815260200190565b6000806040838503121561518257600080fd5b823561518d81614d38565b9150602083013561519d81614d38565b809150509250929050565b600080604083850312156151bb57600080fd5b82356151c681614d38565b9150602083013561519d8161504d565b6000806000806000806000806000806101408b8d0312156151f657600080fd5b8a3561520181614d38565b995060208b0135985060408b0135975060608b0135965060808b013561522681614d38565b955060a08b0135945060c08b013561523d8161504d565b935061524b60e08c0161505b565b92506101008b013591506101208b013590509295989b9194979a5092959850565b60006020828403121561527e57600080fd5b81356107f281614d38565b6000806000806000608086880312156152a157600080fd5b8535945060208601356001600160401b038111156152be57600080fd5b6152ca88828901614de7565b90955093505060408601356152de81614d38565b949793965091946060013592915050565b6000806040838503121561530257600080fd5b82359150602083013561519d81614d38565b600080600080600080600060e0888a03121561532f57600080fd5b873561533a81614d38565b9650602088013561534a81614d38565b955060408801359450606088013593506080880135925060a088013561536f81614d38565b8092505060c0880135905092959891949750929550565b600080600080600080600080610100898b0312156153a357600080fd5b88356153ae81614d38565b975060208901356153be81614d38565b965060408901359550606089013594506080890135935060a0890135925060c08901356153ea81614d38565b8092505060e089013590509295985092959890939650565b634e487b7160e01b600052601160045260246000fd5b60008282101561542a5761542a615402565b500390565b634e487b7160e01b600052603260045260246000fd5b6020808252601c908201527b0a6c2cccae6eec2e0a4deeae8cae47440929cac82989288bea082a8960231b604082015260600190565b6020808252602a908201527f5361666573776170526f757465723a20494e53554646494349454e545f4f555460408201526914155517d05353d5539560b21b606082015260800190565b60008160001904831182151516156154df576154df615402565b500290565b60008261550157634e487b7160e01b600052601260045260246000fd5b500490565b6001600160a01b0397881681529590961660208601526040850193909352606084019190915260ff16608083015260a082015260c081019190915260e00190565b6000821982111561555a5761555a615402565b500190565b60208082526026908201527f5361666573776170526f757465723a204558434553534956455f494e5055545f604082015265105353d5539560d21b606082015260800190565b6001600160a01b03929092168252602082015260400190565b6000602082840312156155d057600080fd5b81516107f28161504d565b634e487b7160e01b600052600160045260246000fd5b60006020828403121561560357600080fd5b5051919050565b6001600160a01b039384168152919092166020820152604081019190915260600190565b6000806040838503121561564157600080fd5b505080516020909101519092909150565b60208082526025908201527f5361666573776170526f757465723a20494e53554646494349454e545f415f416040820152641353d5539560da1b606082015260800190565b60208082526025908201527f5361666573776170526f757465723a20494e53554646494349454e545f425f416040820152641353d5539560da1b606082015260800190565b60005b838110156156f75781810151838201526020016156df565b83811115613f635750506000910152565b6000825161571a8184602087016156dc565b9190910192915050565b60208082526027908201527f53616665737761704c6962726172793a20494e53554646494349454e545f4c496040820152665155494449545960c81b606082015260800190565b6020808252601d908201527f53616665737761704c6962726172793a20494e56414c49445f50415448000000604082015260600190565b60006000198214156157b6576157b6615402565b5060010190565b6001600160a01b0392831681529116602082015260400190565b6000602082840312156157e957600080fd5b81516107f281614d38565b84815283602082015260018060a01b0383166040820152608060608201526000825180608084015261582d8160a08501602087016156dc565b601f01601f19169190910160a00195945050505050565b60008161585357615853615402565b506000190190565b80516001600160701b0381168114614d5857600080fd5b60008060006060848603121561588757600080fd5b6158908461585b565b925061589e6020850161585b565b9150604084015163ffffffff811681146158b757600080fd5b80915050925092509256fea2646970667358221220e0fcc46304d790ab910452b04526839a863cca0588de4423a349a89ba745bc1a64736f6c634300080b0033",
  "devdoc": {
    "kind": "dev",
    "methods": {},
    "version": 1
  },
  "userdoc": {
    "kind": "user",
    "methods": {},
    "version": 1
  },
  "storageLayout": {
    "storage": [
      {
        "astId": 8628,
        "contract": "contracts/SafeswapRouterProxy1.sol:SafeswapRouterProxy1",
        "label": "_initialized",
        "offset": 0,
        "slot": "0",
        "type": "t_bool"
      },
      {
        "astId": 8631,
        "contract": "contracts/SafeswapRouterProxy1.sol:SafeswapRouterProxy1",
        "label": "_initializing",
        "offset": 1,
        "slot": "0",
        "type": "t_bool"
      },
      {
        "astId": 2895,
        "contract": "contracts/SafeswapRouterProxy1.sol:SafeswapRouterProxy1",
        "label": "factory",
        "offset": 2,
        "slot": "0",
        "type": "t_address"
      },
      {
        "astId": 2898,
        "contract": "contracts/SafeswapRouterProxy1.sol:SafeswapRouterProxy1",
        "label": "WETH",
        "offset": 0,
        "slot": "1",
        "type": "t_address"
      },
      {
        "astId": 2900,
        "contract": "contracts/SafeswapRouterProxy1.sol:SafeswapRouterProxy1",
        "label": "killSwitch",
        "offset": 20,
        "slot": "1",
        "type": "t_bool"
      },
      {
        "astId": 2902,
        "contract": "contracts/SafeswapRouterProxy1.sol:SafeswapRouterProxy1",
        "label": "admin",
        "offset": 0,
        "slot": "2",
        "type": "t_address"
      },
      {
        "astId": 2904,
        "contract": "contracts/SafeswapRouterProxy1.sol:SafeswapRouterProxy1",
        "label": "tokensCount",
        "offset": 0,
        "slot": "3",
        "type": "t_uint256"
      },
      {
        "astId": 2908,
        "contract": "contracts/SafeswapRouterProxy1.sol:SafeswapRouterProxy1",
        "label": "_lpTokenLockStatus",
        "offset": 0,
        "slot": "4",
        "type": "t_mapping(t_address,t_bool)"
      },
      {
        "astId": 2912,
        "contract": "contracts/SafeswapRouterProxy1.sol:SafeswapRouterProxy1",
        "label": "_locktime",
        "offset": 0,
        "slot": "5",
        "type": "t_mapping(t_address,t_uint256)"
      },
      {
        "astId": 2917,
        "contract": "contracts/SafeswapRouterProxy1.sol:SafeswapRouterProxy1",
        "label": "nameToInfo",
        "offset": 0,
        "slot": "6",
        "type": "t_mapping(t_address,t_struct(TokenInfo)2968_storage)"
      },
      {
        "astId": 2921,
        "contract": "contracts/SafeswapRouterProxy1.sol:SafeswapRouterProxy1",
        "label": "idToAddress",
        "offset": 0,
        "slot": "7",
        "type": "t_mapping(t_uint256,t_address)"
      },
      {
        "astId": 2923,
        "contract": "contracts/SafeswapRouterProxy1.sol:SafeswapRouterProxy1",
        "label": "routerTrade",
        "offset": 0,
        "slot": "8",
        "type": "t_address"
      },
      {
        "astId": 2927,
        "contract": "contracts/SafeswapRouterProxy1.sol:SafeswapRouterProxy1",
        "label": "whitelistAccess",
        "offset": 0,
        "slot": "9",
        "type": "t_mapping(t_address,t_bool)"
      },
      {
        "astId": 2931,
        "contract": "contracts/SafeswapRouterProxy1.sol:SafeswapRouterProxy1",
        "label": "impls",
        "offset": 0,
        "slot": "10",
        "type": "t_mapping(t_uint256,t_address)"
      }
    ],
    "types": {
      "t_address": {
        "encoding": "inplace",
        "label": "address",
        "numberOfBytes": "20"
      },
      "t_bool": {
        "encoding": "inplace",
        "label": "bool",
        "numberOfBytes": "1"
      },
      "t_mapping(t_address,t_bool)": {
        "encoding": "mapping",
        "key": "t_address",
        "label": "mapping(address => bool)",
        "numberOfBytes": "32",
        "value": "t_bool"
      },
      "t_mapping(t_address,t_struct(TokenInfo)2968_storage)": {
        "encoding": "mapping",
        "key": "t_address",
        "label": "mapping(address => struct SafeswapRouterProxy1.TokenInfo)",
        "numberOfBytes": "32",
        "value": "t_struct(TokenInfo)2968_storage"
      },
      "t_mapping(t_address,t_uint256)": {
        "encoding": "mapping",
        "key": "t_address",
        "label": "mapping(address => uint256)",
        "numberOfBytes": "32",
        "value": "t_uint256"
      },
      "t_mapping(t_uint256,t_address)": {
        "encoding": "mapping",
        "key": "t_uint256",
        "label": "mapping(uint256 => address)",
        "numberOfBytes": "32",
        "value": "t_address"
      },
      "t_string_storage": {
        "encoding": "bytes",
        "label": "string",
        "numberOfBytes": "32"
      },
      "t_struct(TokenInfo)2968_storage": {
        "encoding": "inplace",
        "label": "struct SafeswapRouterProxy1.TokenInfo",
        "members": [
          {
            "astId": 2955,
            "contract": "contracts/SafeswapRouterProxy1.sol:SafeswapRouterProxy1",
            "label": "enabled",
            "offset": 0,
            "slot": "0",
            "type": "t_bool"
          },
          {
            "astId": 2957,
            "contract": "contracts/SafeswapRouterProxy1.sol:SafeswapRouterProxy1",
            "label": "isDeleted",
            "offset": 1,
            "slot": "0",
            "type": "t_bool"
          },
          {
            "astId": 2959,
            "contract": "contracts/SafeswapRouterProxy1.sol:SafeswapRouterProxy1",
            "label": "tokenName",
            "offset": 0,
            "slot": "1",
            "type": "t_string_storage"
          },
          {
            "astId": 2961,
            "contract": "contracts/SafeswapRouterProxy1.sol:SafeswapRouterProxy1",
            "label": "tokenAddress",
            "offset": 0,
            "slot": "2",
            "type": "t_address"
          },
          {
            "astId": 2963,
            "contract": "contracts/SafeswapRouterProxy1.sol:SafeswapRouterProxy1",
            "label": "feesAddress",
            "offset": 0,
            "slot": "3",
            "type": "t_address"
          },
          {
            "astId": 2965,
            "contract": "contracts/SafeswapRouterProxy1.sol:SafeswapRouterProxy1",
            "label": "buyFeePercent",
            "offset": 0,
            "slot": "4",
            "type": "t_uint256"
          },
          {
            "astId": 2967,
            "contract": "contracts/SafeswapRouterProxy1.sol:SafeswapRouterProxy1",
            "label": "sellFeePercent",
            "offset": 0,
            "slot": "5",
            "type": "t_uint256"
          }
        ],
        "numberOfBytes": "192"
      },
      "t_uint256": {
        "encoding": "inplace",
        "label": "uint256",
        "numberOfBytes": "32"
      }
    }
  }
}