{
  "_format": "hh-sol-artifact-1",
  "contractName": "RouterStorageLib",
  "sourceName": "contracts/router_v2/libraries/RouterStorageLib.sol",
  "abi": [
    {
      "inputs": [],
      "name": "ONE",
      "outputs": [
        {
          "internalType": "uint256",
          "name": "",
          "type": "uint256"
        }
      ],
      "stateMutability": "view",
      "type": "function"
    }
  ],
  "bytecode": "0x608e610038600b82828239805160001a607314602b57634e487b7160e01b600052600060045260246000fd5b30600052607381538281f3fe730000000000000000000000000000000000000000301460806040526004361060335760003560e01c8063c2ee3a08146038575b600080fd5b6046670de0b6b3a764000081565b60405190815260200160405180910390f3fea2646970667358221220cd66e8fd09d3850d9b2985572fb93c383016926cbb366559638fcf6d1fd0682264736f6c634300080b0033",
  "linkReferences": {},
  "deployedLinkReferences": {}
}