{
  "_format": "hh-sol-artifact-1",
  "contractName": "RewardDistributor",
  "sourceName": "contracts/Reward/RewardDistributor.sol",
  "abi": [
    {
      "anonymous": false,
      "inputs": [
        {
          "indexed": false,
          "internalType": "address",
          "name": "user",
          "type": "address"
        },
        {
          "indexed": false,
          "internalType": "uint256",
          "name": "claimedRewards",
          "type": "uint256"
        }
      ],
      "name": "Claim",
      "type": "event"
    },
    {
      "anonymous": false,
      "inputs": [
        {
          "indexed": false,
          "internalType": "uint8",
          "name": "version",
          "type": "uint8"
        }
      ],
      "name": "Initialized",
      "type": "event"
    },
    {
      "anonymous": false,
      "inputs": [
        {
          "indexed": true,
          "internalType": "address",
          "name": "previousOwner",
          "type": "address"
        },
        {
          "indexed": true,
          "internalType": "address",
          "name": "newOwner",
          "type": "address"
        }
      ],
      "name": "OwnershipTransferred",
      "type": "event"
    },
    {
      "anonymous": false,
      "inputs": [
        {
          "indexed": false,
          "internalType": "address",
          "name": "account",
          "type": "address"
        }
      ],
      "name": "Paused",
      "type": "event"
    },
    {
      "anonymous": false,
      "inputs": [
        {
          "indexed": false,
          "internalType": "uint256",
          "name": "amount",
          "type": "uint256"
        }
      ],
      "name": "TokenWithdrawnOwner",
      "type": "event"
    },
    {
      "anonymous": false,
      "inputs": [
        {
          "indexed": false,
          "internalType": "address",
          "name": "account",
          "type": "address"
        }
      ],
      "name": "Unpaused",
      "type": "event"
    },
    {
      "anonymous": false,
      "inputs": [
        {
          "indexed": false,
          "internalType": "address",
          "name": "signer",
          "type": "address"
        }
      ],
      "name": "UpdateSigner",
      "type": "event"
    },
    {
      "inputs": [],
      "name": "VERSION",
      "outputs": [
        {
          "internalType": "uint8",
          "name": "",
          "type": "uint8"
        }
      ],
      "stateMutability": "view",
      "type": "function"
    },
    {
      "inputs": [
        {
          "internalType": "uint256",
          "name": "earnedRewards",
          "type": "uint256"
        },
        {
          "internalType": "bytes",
          "name": "signature",
          "type": "bytes"
        }
      ],
      "name": "claim",
      "outputs": [],
      "stateMutability": "nonpayable",
      "type": "function"
    },
    {
      "inputs": [
        {
          "internalType": "address",
          "name": "",
          "type": "address"
        }
      ],
      "name": "claimed",
      "outputs": [
        {
          "internalType": "uint256",
          "name": "",
          "type": "uint256"
        }
      ],
      "stateMutability": "view",
      "type": "function"
    },
    {
      "inputs": [
        {
          "internalType": "bytes32",
          "name": "hash",
          "type": "bytes32"
        },
        {
          "internalType": "bytes",
          "name": "signature",
          "type": "bytes"
        }
      ],
      "name": "matchAddressSigner",
      "outputs": [
        {
          "internalType": "bool",
          "name": "",
          "type": "bool"
        }
      ],
      "stateMutability": "view",
      "type": "function"
    },
    {
      "inputs": [],
      "name": "owner",
      "outputs": [
        {
          "internalType": "address",
          "name": "",
          "type": "address"
        }
      ],
      "stateMutability": "view",
      "type": "function"
    },
    {
      "inputs": [],
      "name": "pauseDistribution",
      "outputs": [],
      "stateMutability": "nonpayable",
      "type": "function"
    },
    {
      "inputs": [],
      "name": "paused",
      "outputs": [
        {
          "internalType": "bool",
          "name": "",
          "type": "bool"
        }
      ],
      "stateMutability": "view",
      "type": "function"
    },
    {
      "inputs": [
        {
          "internalType": "address",
          "name": "sender",
          "type": "address"
        },
        {
          "internalType": "uint256",
          "name": "_amount",
          "type": "uint256"
        }
      ],
      "name": "prepareMessage",
      "outputs": [
        {
          "internalType": "bytes32",
          "name": "hash",
          "type": "bytes32"
        }
      ],
      "stateMutability": "view",
      "type": "function"
    },
    {
      "inputs": [],
      "name": "renounceOwnership",
      "outputs": [],
      "stateMutability": "nonpayable",
      "type": "function"
    },
    {
      "inputs": [
        {
          "internalType": "address",
          "name": "_rewardToken",
          "type": "address"
        },
        {
          "internalType": "address",
          "name": "_signer",
          "type": "address"
        }
      ],
      "name": "rewardDistributor_init",
      "outputs": [],
      "stateMutability": "nonpayable",
      "type": "function"
    },
    {
      "inputs": [],
      "name": "rewardToken",
      "outputs": [
        {
          "internalType": "contract IERC20Upgradeable",
          "name": "",
          "type": "address"
        }
      ],
      "stateMutability": "view",
      "type": "function"
    },
    {
      "inputs": [
        {
          "internalType": "address",
          "name": "_signer",
          "type": "address"
        }
      ],
      "name": "setNewSigner",
      "outputs": [],
      "stateMutability": "nonpayable",
      "type": "function"
    },
    {
      "inputs": [],
      "name": "signer",
      "outputs": [
        {
          "internalType": "address",
          "name": "",
          "type": "address"
        }
      ],
      "stateMutability": "view",
      "type": "function"
    },
    {
      "inputs": [
        {
          "internalType": "address",
          "name": "newOwner",
          "type": "address"
        }
      ],
      "name": "transferOwnership",
      "outputs": [],
      "stateMutability": "nonpayable",
      "type": "function"
    },
    {
      "inputs": [],
      "name": "unpauseDistribution",
      "outputs": [],
      "stateMutability": "nonpayable",
      "type": "function"
    },
    {
      "inputs": [
        {
          "internalType": "uint256",
          "name": "_amount",
          "type": "uint256"
        }
      ],
      "name": "withdrawRewardToken",
      "outputs": [],
      "stateMutability": "nonpayable",
      "type": "function"
    }
  ],
  "bytecode": "0x608060405234801561001057600080fd5b5061128f806100206000396000f3fe608060405234801561001057600080fd5b50600436106101005760003560e01c8063829b917b11610097578063c884ef8311610066578063c884ef83146101f7578063f2fde38b14610217578063f7c618c11461022a578063ffa1ad741461023d57600080fd5b8063829b917b146101b85780638da5cb5b146101cb5780639118dd0d146101dc578063b94ec9d0146101ef57600080fd5b806338926b6d116100d357806338926b6d146101655780633d5c83a5146101785780635c975abb14610199578063715018a6146101b057600080fd5b80630f9c5d9e14610105578063238ac9331461011a57806324d514241461014a57806331cec7a31461015d575b600080fd5b610118610113366004610fff565b610257565b005b60c95461012d906001600160a01b031681565b6040516001600160a01b0390911681526020015b60405180910390f35b610118610158366004611021565b610301565b610118610528565b6101186101733660046110dd565b610542565b61018b610186366004611124565b610732565b604051908152602001610141565b60335460ff165b6040519015158152602001610141565b6101186107d2565b6101a06101c63660046110dd565b6107e4565b6097546001600160a01b031661012d565b6101186101ea36600461114e565b61080a565b610118610955565b61018b610205366004610fff565b60cb6020526000908152604090205481565b610118610225366004610fff565b61096d565b60ca5461012d906001600160a01b031681565b610245600181565b60405160ff9091168152602001610141565b61025f6109e6565b60c9546001600160a01b03166102ad5760405162461bcd60e51b815260206004820152600e60248201526d34b73b30b634b21039b4b3b732b960911b60448201526064015b60405180910390fd5b60c980546001600160a01b0319166001600160a01b0383169081179091556040519081527fc58fcf255cfb5f40bd578a618869378f650ef76609640fa0818a31e0c6e7102a9060200160405180910390a150565b6103096109e6565b60026065540361035b5760405162461bcd60e51b815260206004820152601f60248201527f5265656e7472616e637947756172643a207265656e7472616e742063616c6c0060448201526064016102a4565b600260655560ca546040516370a0823160e01b81523060048201526000916001600160a01b0316906370a0823190602401602060405180830381865afa1580156103a9573d6000803e3d6000fd5b505050506040513d601f19601f820116820180604052508101906103cd9190611181565b116104105760405162461bcd60e51b81526020600482015260136024820152724e6f7468696e6720746f20576974686472617760681b60448201526064016102a4565b600081116104775760405162461bcd60e51b815260206004820152602e60248201527f5769746864726177696e6720616d6f756e742073686f756c642062652067726560448201526d61746572207468616e207a65726f60901b60648201526084016102a4565b60ca5460405163a9059cbb60e01b8152336004820152602481018390526001600160a01b039091169063a9059cbb906044016020604051808303816000875af11580156104c8573d6000803e3d6000fd5b505050506040513d601f19601f820116820180604052508101906104ec919061119a565b506040518181527fb4cd5c4a08bbed33abfe773ece179d156730e39629e065b7dcd8263027387c1d9060200160405180910390a1506001606555565b6105306109e6565b610538610a40565b610540610a86565b565b61054a610a40565b60006105563384610732565b905061056281836107e4565b6105ae5760405162461bcd60e51b815260206004820152601e60248201527f7369676e65722073686f756c64207369676e20746865206d657373616765000060448201526064016102a4565b33600090815260cb60205260409020548084116106005760405162461bcd60e51b815260206004820152601060248201526f4e6f7468696e6720746f20636c61696d60801b60448201526064016102a4565b600061060c82866111d2565b60ca5460405163a9059cbb60e01b8152336004820152602481018390529192506001600160a01b03169063a9059cbb906044016020604051808303816000875af115801561065e573d6000803e3d6000fd5b505050506040513d601f19601f82011682018060405250810190610682919061119a565b6106ce5760405162461bcd60e51b815260206004820152601a60248201527f5472616e73666572206973206e6f74207375636365737366756c00000000000060448201526064016102a4565b33600090815260cb6020526040812080548392906106ed9084906111e5565b909155505060408051338152602081018390527f47cee97cb7acd717b3c0aa1435d004cd5b3c8c57d70dbceb4e4458bbd60e39d4910160405180910390a15050505050565b6040516bffffffffffffffffffffffff19606084811b821660208401524660348401526054830184905230901b16607482015260009060880160408051601f198184030181529082905280516020918201207f19457468657265756d205369676e6564204d6573736167653a0a33320000000091830191909152603c820152605c0160405160208183030381529060405280519060200120905092915050565b6107da6109e6565b6105406000610ae0565b60006107f08383610b32565b60c9546001600160a01b0390811691161490505b92915050565b600054610100900460ff161580801561082a5750600054600160ff909116105b806108445750303b158015610844575060005460ff166001145b6108a75760405162461bcd60e51b815260206004820152602e60248201527f496e697469616c697a61626c653a20636f6e747261637420697320616c72656160448201526d191e481a5b9a5d1a585b1a5e995960921b60648201526084016102a4565b6000805460ff1916600117905580156108ca576000805461ff0019166101001790555b60ca80546001600160a01b038086166001600160a01b03199283161790925560c9805492851692909116919091179055610902610b56565b61090a610b85565b8015610950576000805461ff0019169055604051600181527f7f26b83ff96e1f2b6a682f133852f6798a09c465da95921460cefb38474024989060200160405180910390a15b505050565b61095d6109e6565b610965610bb4565b610540610bfd565b6109756109e6565b6001600160a01b0381166109da5760405162461bcd60e51b815260206004820152602660248201527f4f776e61626c653a206e6577206f776e657220697320746865207a65726f206160448201526564647265737360d01b60648201526084016102a4565b6109e381610ae0565b50565b6097546001600160a01b031633146105405760405162461bcd60e51b815260206004820181905260248201527f4f776e61626c653a2063616c6c6572206973206e6f7420746865206f776e657260448201526064016102a4565b60335460ff16156105405760405162461bcd60e51b815260206004820152601060248201526f14185d5cd8589b194e881c185d5cd95960821b60448201526064016102a4565b610a8e610a40565b6033805460ff191660011790557f62e78cea01bee320cd4e420270b5ea74000d11b0c9f74754ebdbfc544b05a258610ac33390565b6040516001600160a01b03909116815260200160405180910390a1565b609780546001600160a01b038381166001600160a01b0319831681179093556040519116919082907f8be0079c531659141344cd1fd0a4f28419497f9722a3daafe3b4186f6b6457e090600090a35050565b6000806000610b418585610c36565b91509150610b4e81610ca4565b509392505050565b600054610100900460ff16610b7d5760405162461bcd60e51b81526004016102a4906111f8565b610540610e5a565b600054610100900460ff16610bac5760405162461bcd60e51b81526004016102a4906111f8565b610540610e8a565b60335460ff166105405760405162461bcd60e51b815260206004820152601460248201527314185d5cd8589b194e881b9bdd081c185d5cd95960621b60448201526064016102a4565b610c05610bb4565b6033805460ff191690557f5db9ee0a495bf2e6ff9c91a7834c1ba4fdd244a5e8aa4e537bd38aeae4b073aa33610ac3565b6000808251604103610c6c5760208301516040840151606085015160001a610c6087828585610ebd565b94509450505050610c9d565b8251604003610c955760208301516040840151610c8a868383610faa565b935093505050610c9d565b506000905060025b9250929050565b6000816004811115610cb857610cb8611243565b03610cc05750565b6001816004811115610cd457610cd4611243565b03610d215760405162461bcd60e51b815260206004820152601860248201527f45434453413a20696e76616c6964207369676e6174757265000000000000000060448201526064016102a4565b6002816004811115610d3557610d35611243565b03610d825760405162461bcd60e51b815260206004820152601f60248201527f45434453413a20696e76616c6964207369676e6174757265206c656e6774680060448201526064016102a4565b6003816004811115610d9657610d96611243565b03610dee5760405162461bcd60e51b815260206004820152602260248201527f45434453413a20696e76616c6964207369676e6174757265202773272076616c604482015261756560f01b60648201526084016102a4565b6004816004811115610e0257610e02611243565b036109e35760405162461bcd60e51b815260206004820152602260248201527f45434453413a20696e76616c6964207369676e6174757265202776272076616c604482015261756560f01b60648201526084016102a4565b600054610100900460ff16610e815760405162461bcd60e51b81526004016102a4906111f8565b61054033610ae0565b600054610100900460ff16610eb15760405162461bcd60e51b81526004016102a4906111f8565b6033805460ff19169055565b6000807f7fffffffffffffffffffffffffffffff5d576e7357a4501ddfe92f46681b20a0831115610ef45750600090506003610fa1565b8460ff16601b14158015610f0c57508460ff16601c14155b15610f1d5750600090506004610fa1565b6040805160008082526020820180845289905260ff881692820192909252606081018690526080810185905260019060a0016020604051602081039080840390855afa158015610f71573d6000803e3d6000fd5b5050604051601f1901519150506001600160a01b038116610f9a57600060019250925050610fa1565b9150600090505b94509492505050565b6000806001600160ff1b03831681610fc760ff86901c601b6111e5565b9050610fd587828885610ebd565b935093505050935093915050565b80356001600160a01b0381168114610ffa57600080fd5b919050565b60006020828403121561101157600080fd5b61101a82610fe3565b9392505050565b60006020828403121561103357600080fd5b5035919050565b634e487b7160e01b600052604160045260246000fd5b600082601f83011261106157600080fd5b813567ffffffffffffffff8082111561107c5761107c61103a565b604051601f8301601f19908116603f011681019082821181831017156110a4576110a461103a565b816040528381528660208588010111156110bd57600080fd5b836020870160208301376000602085830101528094505050505092915050565b600080604083850312156110f057600080fd5b82359150602083013567ffffffffffffffff81111561110e57600080fd5b61111a85828601611050565b9150509250929050565b6000806040838503121561113757600080fd5b61114083610fe3565b946020939093013593505050565b6000806040838503121561116157600080fd5b61116a83610fe3565b915061117860208401610fe3565b90509250929050565b60006020828403121561119357600080fd5b5051919050565b6000602082840312156111ac57600080fd5b8151801515811461101a57600080fd5b634e487b7160e01b600052601160045260246000fd5b81810381811115610804576108046111bc565b80820180821115610804576108046111bc565b6020808252602b908201527f496e697469616c697a61626c653a20636f6e7472616374206973206e6f74206960408201526a6e697469616c697a696e6760a81b606082015260800190565b634e487b7160e01b600052602160045260246000fdfea26469706673582212203dffe63b3aa4a4b99297298cd5e2e1e2098fd2d2a43e13c66a75a18b74dd351864736f6c63430008110033",
  "linkReferences": {},
  "deployedLinkReferences": {}
}