{
  "contracts/SFMR.sol": {
    "SafemoonReward": {
      "abi": [
        {
          "anonymous": false,
          "inputs": [
            {
              "indexed": true,
              "internalType": "address",
              "name": "owner",
              "type": "address"
            },
            {
              "indexed": true,
              "internalType": "address",
              "name": "spender",
              "type": "address"
            },
            {
              "indexed": false,
              "internalType": "uint256",
              "name": "value",
              "type": "uint256"
            }
          ],
          "name": "Approval",
          "type": "event"
        },
        {
          "anonymous": false,
          "inputs": [
            {
              "indexed": false,
              "internalType": "uint256",
              "name": "minTokensBeforeSwap",
              "type": "uint256"
            }
          ],
          "name": "MinTokensBeforeSwapUpdated",
          "type": "event"
        },
        {
          "anonymous": false,
          "inputs": [
            {
              "indexed": true,
              "internalType": "address",
              "name": "previousOwner",
              "type": "address"
            },
            {
              "indexed": true,
              "internalType": "address",
              "name": "newOwner",
              "type": "address"
            }
          ],
          "name": "OwnershipTransferred",
          "type": "event"
        },
        {
          "anonymous": false,
          "inputs": [
            {
              "indexed": false,
              "internalType": "uint256",
              "name": "tokensSwapped",
              "type": "uint256"
            },
            {
              "indexed": false,
              "internalType": "uint256",
              "name": "bnbReceived",
              "type": "uint256"
            },
            {
              "indexed": false,
              "internalType": "uint256",
              "name": "tokensIntoLiquidity",
              "type": "uint256"
            }
          ],
          "name": "SwapAndLiquify",
          "type": "event"
        },
        {
          "anonymous": false,
          "inputs": [
            {
              "indexed": false,
              "internalType": "bool",
              "name": "enabled",
              "type": "bool"
            }
          ],
          "name": "SwapAndLiquifyEnabledUpdated",
          "type": "event"
        },
        {
          "anonymous": false,
          "inputs": [
            {
              "indexed": true,
              "internalType": "address",
              "name": "from",
              "type": "address"
            },
            {
              "indexed": true,
              "internalType": "address",
              "name": "to",
              "type": "address"
            },
            {
              "indexed": false,
              "internalType": "uint256",
              "name": "value",
              "type": "uint256"
            }
          ],
          "name": "Transfer",
          "type": "event"
        },
        {
          "inputs": [],
          "name": "WBNB",
          "outputs": [
            {
              "internalType": "address",
              "name": "",
              "type": "address"
            }
          ],
          "stateMutability": "view",
          "type": "function"
        },
        {
          "inputs": [],
          "name": "_burnAddress",
          "outputs": [
            {
              "internalType": "address",
              "name": "",
              "type": "address"
            }
          ],
          "stateMutability": "view",
          "type": "function"
        },
        {
          "inputs": [],
          "name": "_defaultFees",
          "outputs": [
            {
              "internalType": "uint256",
              "name": "ecoSystemFee",
              "type": "uint256"
            },
            {
              "internalType": "uint256",
              "name": "liquidityFee",
              "type": "uint256"
            },
            {
              "internalType": "uint256",
              "name": "taxFee",
              "type": "uint256"
            },
            {
              "internalType": "uint256",
              "name": "ownerFee",
              "type": "uint256"
            },
            {
              "internalType": "uint256",
              "name": "burnFee",
              "type": "uint256"
            },
            {
              "internalType": "address",
              "name": "ecoSystem",
              "type": "address"
            },
            {
              "internalType": "address",
              "name": "owner",
              "type": "address"
            }
          ],
          "stateMutability": "view",
          "type": "function"
        },
        {
          "inputs": [],
          "name": "_maxTxAmount",
          "outputs": [
            {
              "internalType": "uint256",
              "name": "",
              "type": "uint256"
            }
          ],
          "stateMutability": "view",
          "type": "function"
        },
        {
          "inputs": [
            {
              "internalType": "address",
              "name": "_account",
              "type": "address"
            }
          ],
          "name": "accountTier",
          "outputs": [
            {
              "components": [
                {
                  "internalType": "uint256",
                  "name": "ecoSystemFee",
                  "type": "uint256"
                },
                {
                  "internalType": "uint256",
                  "name": "liquidityFee",
                  "type": "uint256"
                },
                {
                  "internalType": "uint256",
                  "name": "taxFee",
                  "type": "uint256"
                },
                {
                  "internalType": "uint256",
                  "name": "ownerFee",
                  "type": "uint256"
                },
                {
                  "internalType": "uint256",
                  "name": "burnFee",
                  "type": "uint256"
                },
                {
                  "internalType": "address",
                  "name": "ecoSystem",
                  "type": "address"
                },
                {
                  "internalType": "address",
                  "name": "owner",
                  "type": "address"
                }
              ],
              "internalType": "struct SafemoonReward.FeeTier",
              "name": "",
              "type": "tuple"
            }
          ],
          "stateMutability": "view",
          "type": "function"
        },
        {
          "inputs": [
            {
              "internalType": "uint256",
              "name": "_ecoSystemFee",
              "type": "uint256"
            },
            {
              "internalType": "uint256",
              "name": "_liquidityFee",
              "type": "uint256"
            },
            {
              "internalType": "uint256",
              "name": "_taxFee",
              "type": "uint256"
            },
            {
              "internalType": "uint256",
              "name": "_ownerFee",
              "type": "uint256"
            },
            {
              "internalType": "uint256",
              "name": "_burnFee",
              "type": "uint256"
            },
            {
              "internalType": "address",
              "name": "_ecoSystem",
              "type": "address"
            },
            {
              "internalType": "address",
              "name": "_owner",
              "type": "address"
            }
          ],
          "name": "addTier",
          "outputs": [],
          "stateMutability": "nonpayable",
          "type": "function"
        },
        {
          "inputs": [
            {
              "internalType": "address",
              "name": "owner",
              "type": "address"
            },
            {
              "internalType": "address",
              "name": "spender",
              "type": "address"
            }
          ],
          "name": "allowance",
          "outputs": [
            {
              "internalType": "uint256",
              "name": "",
              "type": "uint256"
            }
          ],
          "stateMutability": "view",
          "type": "function"
        },
        {
          "inputs": [
            {
              "internalType": "address",
              "name": "spender",
              "type": "address"
            },
            {
              "internalType": "uint256",
              "name": "amount",
              "type": "uint256"
            }
          ],
          "name": "approve",
          "outputs": [
            {
              "internalType": "bool",
              "name": "",
              "type": "bool"
            }
          ],
          "stateMutability": "nonpayable",
          "type": "function"
        },
        {
          "inputs": [
            {
              "internalType": "address",
              "name": "account",
              "type": "address"
            }
          ],
          "name": "balanceOf",
          "outputs": [
            {
              "internalType": "uint256",
              "name": "",
              "type": "uint256"
            }
          ],
          "stateMutability": "view",
          "type": "function"
        },
        {
          "inputs": [
            {
              "internalType": "address",
              "name": "account",
              "type": "address"
            }
          ],
          "name": "blacklistAddress",
          "outputs": [],
          "stateMutability": "nonpayable",
          "type": "function"
        },
        {
          "inputs": [],
          "name": "decimals",
          "outputs": [
            {
              "internalType": "uint8",
              "name": "",
              "type": "uint8"
            }
          ],
          "stateMutability": "view",
          "type": "function"
        },
        {
          "inputs": [
            {
              "internalType": "address",
              "name": "spender",
              "type": "address"
            },
            {
              "internalType": "uint256",
              "name": "subtractedValue",
              "type": "uint256"
            }
          ],
          "name": "decreaseAllowance",
          "outputs": [
            {
              "internalType": "bool",
              "name": "",
              "type": "bool"
            }
          ],
          "stateMutability": "nonpayable",
          "type": "function"
        },
        {
          "inputs": [
            {
              "internalType": "address",
              "name": "account",
              "type": "address"
            }
          ],
          "name": "excludeFromFee",
          "outputs": [],
          "stateMutability": "nonpayable",
          "type": "function"
        },
        {
          "inputs": [
            {
              "internalType": "address",
              "name": "account",
              "type": "address"
            }
          ],
          "name": "excludeFromReward",
          "outputs": [],
          "stateMutability": "nonpayable",
          "type": "function"
        },
        {
          "inputs": [
            {
              "internalType": "address",
              "name": "_account",
              "type": "address"
            }
          ],
          "name": "excludeWhitelistedAddress",
          "outputs": [],
          "stateMutability": "nonpayable",
          "type": "function"
        },
        {
          "inputs": [
            {
              "internalType": "uint256",
              "name": "_tierIndex",
              "type": "uint256"
            }
          ],
          "name": "feeTier",
          "outputs": [
            {
              "components": [
                {
                  "internalType": "uint256",
                  "name": "ecoSystemFee",
                  "type": "uint256"
                },
                {
                  "internalType": "uint256",
                  "name": "liquidityFee",
                  "type": "uint256"
                },
                {
                  "internalType": "uint256",
                  "name": "taxFee",
                  "type": "uint256"
                },
                {
                  "internalType": "uint256",
                  "name": "ownerFee",
                  "type": "uint256"
                },
                {
                  "internalType": "uint256",
                  "name": "burnFee",
                  "type": "uint256"
                },
                {
                  "internalType": "address",
                  "name": "ecoSystem",
                  "type": "address"
                },
                {
                  "internalType": "address",
                  "name": "owner",
                  "type": "address"
                }
              ],
              "internalType": "struct SafemoonReward.FeeTier",
              "name": "",
              "type": "tuple"
            }
          ],
          "stateMutability": "view",
          "type": "function"
        },
        {
          "inputs": [],
          "name": "feeTiersLength",
          "outputs": [
            {
              "internalType": "uint256",
              "name": "",
              "type": "uint256"
            }
          ],
          "stateMutability": "view",
          "type": "function"
        },
        {
          "inputs": [
            {
              "internalType": "address",
              "name": "account",
              "type": "address"
            }
          ],
          "name": "includeInFee",
          "outputs": [],
          "stateMutability": "nonpayable",
          "type": "function"
        },
        {
          "inputs": [
            {
              "internalType": "address",
              "name": "account",
              "type": "address"
            }
          ],
          "name": "includeInReward",
          "outputs": [],
          "stateMutability": "nonpayable",
          "type": "function"
        },
        {
          "inputs": [
            {
              "internalType": "address",
              "name": "spender",
              "type": "address"
            },
            {
              "internalType": "uint256",
              "name": "addedValue",
              "type": "uint256"
            }
          ],
          "name": "increaseAllowance",
          "outputs": [
            {
              "internalType": "bool",
              "name": "",
              "type": "bool"
            }
          ],
          "stateMutability": "nonpayable",
          "type": "function"
        },
        {
          "inputs": [
            {
              "internalType": "address",
              "name": "_router",
              "type": "address"
            }
          ],
          "name": "initialize",
          "outputs": [],
          "stateMutability": "nonpayable",
          "type": "function"
        },
        {
          "inputs": [
            {
              "internalType": "address",
              "name": "account",
              "type": "address"
            }
          ],
          "name": "isBlacklisted",
          "outputs": [
            {
              "internalType": "bool",
              "name": "",
              "type": "bool"
            }
          ],
          "stateMutability": "view",
          "type": "function"
        },
        {
          "inputs": [
            {
              "internalType": "address",
              "name": "account",
              "type": "address"
            }
          ],
          "name": "isExcludedFromFee",
          "outputs": [
            {
              "internalType": "bool",
              "name": "",
              "type": "bool"
            }
          ],
          "stateMutability": "view",
          "type": "function"
        },
        {
          "inputs": [
            {
              "internalType": "address",
              "name": "account",
              "type": "address"
            }
          ],
          "name": "isExcludedFromReward",
          "outputs": [
            {
              "internalType": "bool",
              "name": "",
              "type": "bool"
            }
          ],
          "stateMutability": "view",
          "type": "function"
        },
        {
          "inputs": [],
          "name": "isMigrationStarted",
          "outputs": [
            {
              "internalType": "bool",
              "name": "",
              "type": "bool"
            }
          ],
          "stateMutability": "view",
          "type": "function"
        },
        {
          "inputs": [
            {
              "internalType": "address",
              "name": "_account",
              "type": "address"
            }
          ],
          "name": "isWhitelisted",
          "outputs": [
            {
              "internalType": "bool",
              "name": "",
              "type": "bool"
            }
          ],
          "stateMutability": "view",
          "type": "function"
        },
        {
          "inputs": [
            {
              "internalType": "address",
              "name": "account",
              "type": "address"
            },
            {
              "internalType": "uint256",
              "name": "amount",
              "type": "uint256"
            }
          ],
          "name": "migrate",
          "outputs": [],
          "stateMutability": "nonpayable",
          "type": "function"
        },
        {
          "inputs": [],
          "name": "name",
          "outputs": [
            {
              "internalType": "string",
              "name": "",
              "type": "string"
            }
          ],
          "stateMutability": "view",
          "type": "function"
        },
        {
          "inputs": [],
          "name": "owner",
          "outputs": [
            {
              "internalType": "address",
              "name": "",
              "type": "address"
            }
          ],
          "stateMutability": "view",
          "type": "function"
        },
        {
          "inputs": [
            {
              "internalType": "uint256",
              "name": "tAmount",
              "type": "uint256"
            },
            {
              "internalType": "bool",
              "name": "deductTransferFee",
              "type": "bool"
            }
          ],
          "name": "reflectionFromToken",
          "outputs": [
            {
              "internalType": "uint256",
              "name": "",
              "type": "uint256"
            }
          ],
          "stateMutability": "view",
          "type": "function"
        },
        {
          "inputs": [
            {
              "internalType": "uint256",
              "name": "tAmount",
              "type": "uint256"
            },
            {
              "internalType": "uint256",
              "name": "_tierIndex",
              "type": "uint256"
            },
            {
              "internalType": "bool",
              "name": "deductTransferFee",
              "type": "bool"
            }
          ],
          "name": "reflectionFromTokenInTiers",
          "outputs": [
            {
              "internalType": "uint256",
              "name": "",
              "type": "uint256"
            }
          ],
          "stateMutability": "view",
          "type": "function"
        },
        {
          "inputs": [],
          "name": "renounceOwnership",
          "outputs": [],
          "stateMutability": "nonpayable",
          "type": "function"
        },
        {
          "inputs": [
            {
              "internalType": "uint256",
              "name": "_tierIndex",
              "type": "uint256"
            },
            {
              "internalType": "uint256",
              "name": "_burnFee",
              "type": "uint256"
            }
          ],
          "name": "setBurnFeePercent",
          "outputs": [],
          "stateMutability": "nonpayable",
          "type": "function"
        },
        {
          "inputs": [],
          "name": "setDefaultSettings",
          "outputs": [],
          "stateMutability": "nonpayable",
          "type": "function"
        },
        {
          "inputs": [
            {
              "internalType": "uint256",
              "name": "_tierIndex",
              "type": "uint256"
            },
            {
              "internalType": "address",
              "name": "_ecoSystem",
              "type": "address"
            }
          ],
          "name": "setEcoSystemFeeAddress",
          "outputs": [],
          "stateMutability": "nonpayable",
          "type": "function"
        },
        {
          "inputs": [
            {
              "internalType": "uint256",
              "name": "_tierIndex",
              "type": "uint256"
            },
            {
              "internalType": "uint256",
              "name": "_ecoSystemFee",
              "type": "uint256"
            }
          ],
          "name": "setEcoSystemFeePercent",
          "outputs": [],
          "stateMutability": "nonpayable",
          "type": "function"
        },
        {
          "inputs": [
            {
              "internalType": "uint256",
              "name": "_tierIndex",
              "type": "uint256"
            },
            {
              "internalType": "uint256",
              "name": "_liquidityFee",
              "type": "uint256"
            }
          ],
          "name": "setLiquidityFeePercent",
          "outputs": [],
          "stateMutability": "nonpayable",
          "type": "function"
        },
        {
          "inputs": [
            {
              "internalType": "uint256",
              "name": "maxTxPercent",
              "type": "uint256"
            }
          ],
          "name": "setMaxTxPercent",
          "outputs": [],
          "stateMutability": "nonpayable",
          "type": "function"
        },
        {
          "inputs": [
            {
              "internalType": "address",
              "name": "_migration",
              "type": "address"
            }
          ],
          "name": "setMigrationAddress",
          "outputs": [],
          "stateMutability": "nonpayable",
          "type": "function"
        },
        {
          "inputs": [
            {
              "internalType": "uint256",
              "name": "_tierIndex",
              "type": "uint256"
            },
            {
              "internalType": "address",
              "name": "_owner",
              "type": "address"
            }
          ],
          "name": "setOwnerFeeAddress",
          "outputs": [],
          "stateMutability": "nonpayable",
          "type": "function"
        },
        {
          "inputs": [
            {
              "internalType": "uint256",
              "name": "_tierIndex",
              "type": "uint256"
            },
            {
              "internalType": "uint256",
              "name": "_ownerFee",
              "type": "uint256"
            }
          ],
          "name": "setOwnerFeePercent",
          "outputs": [],
          "stateMutability": "nonpayable",
          "type": "function"
        },
        {
          "inputs": [
            {
              "internalType": "bool",
              "name": "_enabled",
              "type": "bool"
            }
          ],
          "name": "setSwapAndLiquifyEnabled",
          "outputs": [],
          "stateMutability": "nonpayable",
          "type": "function"
        },
        {
          "inputs": [
            {
              "internalType": "uint256",
              "name": "_tierIndex",
              "type": "uint256"
            },
            {
              "internalType": "uint256",
              "name": "_taxFee",
              "type": "uint256"
            }
          ],
          "name": "setTaxFeePercent",
          "outputs": [],
          "stateMutability": "nonpayable",
          "type": "function"
        },
        {
          "inputs": [],
          "name": "swapAndLiquifyEnabled",
          "outputs": [
            {
              "internalType": "bool",
              "name": "",
              "type": "bool"
            }
          ],
          "stateMutability": "view",
          "type": "function"
        },
        {
          "inputs": [],
          "name": "symbol",
          "outputs": [
            {
              "internalType": "string",
              "name": "",
              "type": "string"
            }
          ],
          "stateMutability": "view",
          "type": "function"
        },
        {
          "inputs": [
            {
              "internalType": "uint256",
              "name": "rAmount",
              "type": "uint256"
            }
          ],
          "name": "tokenFromReflection",
          "outputs": [
            {
              "internalType": "uint256",
              "name": "",
              "type": "uint256"
            }
          ],
          "stateMutability": "view",
          "type": "function"
        },
        {
          "inputs": [],
          "name": "totalFees",
          "outputs": [
            {
              "internalType": "uint256",
              "name": "",
              "type": "uint256"
            }
          ],
          "stateMutability": "view",
          "type": "function"
        },
        {
          "inputs": [],
          "name": "totalSupply",
          "outputs": [
            {
              "internalType": "uint256",
              "name": "",
              "type": "uint256"
            }
          ],
          "stateMutability": "view",
          "type": "function"
        },
        {
          "inputs": [
            {
              "internalType": "address",
              "name": "recipient",
              "type": "address"
            },
            {
              "internalType": "uint256",
              "name": "amount",
              "type": "uint256"
            }
          ],
          "name": "transfer",
          "outputs": [
            {
              "internalType": "bool",
              "name": "",
              "type": "bool"
            }
          ],
          "stateMutability": "nonpayable",
          "type": "function"
        },
        {
          "inputs": [
            {
              "internalType": "address",
              "name": "sender",
              "type": "address"
            },
            {
              "internalType": "address",
              "name": "recipient",
              "type": "address"
            },
            {
              "internalType": "uint256",
              "name": "amount",
              "type": "uint256"
            }
          ],
          "name": "transferFrom",
          "outputs": [
            {
              "internalType": "bool",
              "name": "",
              "type": "bool"
            }
          ],
          "stateMutability": "nonpayable",
          "type": "function"
        },
        {
          "inputs": [
            {
              "internalType": "address",
              "name": "newOwner",
              "type": "address"
            }
          ],
          "name": "transferOwnership",
          "outputs": [],
          "stateMutability": "nonpayable",
          "type": "function"
        },
        {
          "inputs": [
            {
              "internalType": "address",
              "name": "account",
              "type": "address"
            }
          ],
          "name": "unBlacklistAddress",
          "outputs": [],
          "stateMutability": "nonpayable",
          "type": "function"
        },
        {
          "inputs": [],
          "name": "uniswapV2Pair",
          "outputs": [
            {
              "internalType": "address",
              "name": "",
              "type": "address"
            }
          ],
          "stateMutability": "view",
          "type": "function"
        },
        {
          "inputs": [],
          "name": "uniswapV2Router",
          "outputs": [
            {
              "internalType": "contract IUniswapV2Router02",
              "name": "",
              "type": "address"
            }
          ],
          "stateMutability": "view",
          "type": "function"
        },
        {
          "inputs": [
            {
              "internalType": "address",
              "name": "_newBurnAddress",
              "type": "address"
            }
          ],
          "name": "updateBurnAddress",
          "outputs": [],
          "stateMutability": "nonpayable",
          "type": "function"
        },
        {
          "inputs": [
            {
              "internalType": "address",
              "name": "_uniswapV2Router",
              "type": "address"
            },
            {
              "internalType": "address",
              "name": "_uniswapV2Pair",
              "type": "address"
            }
          ],
          "name": "updateRouterAndPair",
          "outputs": [],
          "stateMutability": "nonpayable",
          "type": "function"
        },
        {
          "inputs": [
            {
              "internalType": "address",
              "name": "_account",
              "type": "address"
            },
            {
              "internalType": "uint256",
              "name": "_tierIndex",
              "type": "uint256"
            }
          ],
          "name": "whitelistAddress",
          "outputs": [],
          "stateMutability": "nonpayable",
          "type": "function"
        },
        {
          "stateMutability": "payable",
          "type": "receive"
        }
      ],
      "evm": {
        "bytecode": {
          "linkReferences": {},
          "object": "608060405234801561001057600080fd5b5061505d806100206000396000f3fe60806040526004361061037a5760003560e01c806360d0eb73116101d1578063ad68ebf711610102578063d66329b0116100a0578063f2d58c231161006f578063f2d58c23146109d7578063f2fde38b146109f7578063f3290d7514610a17578063fe575a8714610a3757610381565b8063d66329b01461094f578063dd62ed3e1461096f578063dfd66cb31461098f578063ea2f0b37146109b757610381565b8063c49b9a80116100dc578063c49b9a80146108cf578063c4d66de8146108ef578063d40cf6591461090f578063d543dbeb1461092f57610381565b8063ad68ebf71461087a578063bd3900c01461089a578063bf266469146108af57610381565b80638af319c71161016f5780638fc3d4b8116101495780638fc3d4b81461080557806395d89b4114610825578063a457c2d71461083a578063a9059cbb1461085a57610381565b80638af319c7146107bb5780638da5cb5b146107db5780638dd95002146107f057610381565b8063715018a6116101ab578063715018a6146107515780637d1db4a5146107665780637ed948f71461077b57806388f820201461079b57610381565b806360d0eb73146106fc5780636bd89cdd1461071157806370a082311461073157610381565b8063313ce567116102ab5780634549b039116102495780634a74bb02116102235780634a74bb02146106875780634ffc14251461069c57806352390c02146106bc5780635342acb4146106dc57610381565b80634549b039146106325780634732a7dc1461065257806349bd5a5e1461067257610381565b806339aa1bba1161028557806339aa1bba146105b25780633af32abf146105d257806340b28c2f146105f2578063437823ec1461061257610381565b8063313ce567146105505780633685d41914610572578063395093511461059257610381565b80631694505e1161031857806323b872dd116102f257806323b872dd146104d05780632d838119146104f0578063301273341461051057806330b263ba1461053057610381565b80631694505e1461047957806318160ddd1461049b578063200c7295146104b057610381565b806311b326011161035457806311b326011461040057806313114a9d14610422578063132af75c14610437578063140c57591461044c57610381565b806306fdde0314610386578063095ea7b3146103b157806310844953146103de57610381565b3661038157005b600080fd5b34801561039257600080fd5b5061039b610a57565b6040516103a8919061466c565b60405180910390f35b3480156103bd57600080fd5b506103d16103cc366004614462565b610ae9565b6040516103a89190614661565b3480156103ea57600080fd5b506103fe6103f93660046143b2565b610b07565b005b34801561040c57600080fd5b50610415610bc4565b6040516103a89190614d3a565b34801561042e57600080fd5b50610415610bca565b34801561044357600080fd5b506103fe610bd0565b34801561045857600080fd5b5061046c6104673660046144a7565b610c24565b6040516103a89190614ce2565b34801561048557600080fd5b5061048e610ce6565b6040516103a891906145f8565b3480156104a757600080fd5b50610415610cf5565b3480156104bc57600080fd5b506103fe6104cb366004614462565b610cfb565b3480156104dc57600080fd5b506103d16104eb366004614422565b610df9565b3480156104fc57600080fd5b5061041561050b3660046144a7565b610e81565b34801561051c57600080fd5b5061046c61052b3660046143b2565b610ec4565b34801561053c57600080fd5b506103fe61054b36600461450e565b610f7c565b34801561055c57600080fd5b506105656110c5565b6040516103a89190614e05565b34801561057e57600080fd5b506103fe61058d3660046143b2565b6110ce565b34801561059e57600080fd5b506103d16105ad366004614462565b6112a3565b3480156105be57600080fd5b506103fe6105cd36600461450e565b6112f1565b3480156105de57600080fd5b506103d16105ed3660046143b2565b611433565b3480156105fe57600080fd5b506103fe61060d3660046143ea565b611450565b34801561061e57600080fd5b506103fe61062d3660046143b2565b611556565b34801561063e57600080fd5b5061041561064d3660046144e3565b6115b9565b34801561065e57600080fd5b506103fe61066d3660046143b2565b6115c7565b34801561067e57600080fd5b5061048e611628565b34801561069357600080fd5b506103d1611637565b3480156106a857600080fd5b506103fe6106b7366004614590565b611647565b3480156106c857600080fd5b506103fe6106d73660046143b2565b61169f565b3480156106e857600080fd5b506103d16106f73660046143b2565b6117d7565b34801561070857600080fd5b506103d16117f5565b34801561071d57600080fd5b506103fe61072c3660046143b2565b611806565b34801561073d57600080fd5b5061041561074c3660046143b2565b611867565b34801561075d57600080fd5b506103fe6118c9565b34801561077257600080fd5b50610415611952565b34801561078757600080fd5b506103fe6107963660046144bf565b611958565b3480156107a757600080fd5b506103d16107b63660046143b2565b611a61565b3480156107c757600080fd5b506103fe6107d63660046144bf565b611a7f565b3480156107e757600080fd5b5061048e611b89565b3480156107fc57600080fd5b5061048e611b98565b34801561081157600080fd5b506103fe61082036600461450e565b611ba7565b34801561083157600080fd5b5061039b611cec565b34801561084657600080fd5b506103d1610855366004614462565b611cfb565b34801561086657600080fd5b506103d1610875366004614462565b611d63565b34801561088657600080fd5b506103fe610895366004614462565b611d77565b3480156108a657600080fd5b5061048e611de3565b3480156108bb57600080fd5b506104156108ca36600461452f565b611df2565b3480156108db57600080fd5b506103fe6108ea36600461448d565b611e4a565b3480156108fb57600080fd5b506103fe61090a3660046143b2565b611edb565b34801561091b57600080fd5b506103fe61092a3660046143b2565b611f77565b34801561093b57600080fd5b506103fe61094a3660046144a7565b611fd7565b34801561095b57600080fd5b506103fe61096a36600461450e565b61203d565b34801561097b57600080fd5b5061041561098a3660046143ea565b612182565b34801561099b57600080fd5b506109a46121ad565b6040516103a89796959493929190614dc9565b3480156109c357600080fd5b506103fe6109d23660046143b2565b6121d2565b3480156109e357600080fd5b506103fe6109f236600461450e565b612232565b348015610a0357600080fd5b506103fe610a123660046143b2565b612375565b348015610a2357600080fd5b506103fe610a323660046143b2565b612436565b348015610a4357600080fd5b506103d1610a523660046143b2565b6124a4565b606060718054610a6690614e75565b80601f0160208091040260200160405190810160405280929190818152602001828054610a9290614e75565b8015610adf5780601f10610ab457610100808354040283529160200191610adf565b820191906000526020600020905b815481529060010190602001808311610ac257829003601f168201915b5050505050905090565b6000610afd610af66124c2565b84846124c6565b5060015b92915050565b610b0f6124c2565b6001600160a01b0316610b20611b89565b6001600160a01b031614610b4f5760405162461bcd60e51b8152600401610b4690614a96565b60405180910390fd5b6001600160a01b038116610b755760405162461bcd60e51b8152600401610b4690614acb565b6001600160a01b0381166000908152606b6020526040902054610baa5760405162461bcd60e51b8152600401610b4690614c15565b6001600160a01b03166000908152606b6020526040812055565b60895490565b606f5490565b610bd86124c2565b6001600160a01b0316610be9611b89565b6001600160a01b031614610c0f5760405162461bcd60e51b8152600401610b4690614a96565b608f805460ff60a81b1916600160a81b179055565b610c2c614238565b60895482908110610c4f5760405162461bcd60e51b8152600401610b46906149e7565b60898381548110610c7057634e487b7160e01b600052603260045260246000fd5b60009182526020918290206040805160e081018252600790930290910180548352600181015493830193909352600283015490820152600382015460608201526004820154608082015260058201546001600160a01b0390811660a083015260069092015490911660c082015291505b50919050565b608a546001600160a01b031681565b606d5490565b610d036124c2565b6001600160a01b0316610d14611b89565b6001600160a01b031614610d3a5760405162461bcd60e51b8152600401610b4690614a96565b60895481908110610d5d5760405162461bcd60e51b8152600401610b46906149e7565b826040518060600160405280602a8152602001614ffe602a91396001600160a01b0382166000908152606a6020526040902054819060ff1615610db35760405162461bcd60e51b8152600401610b46919061466c565b506001600160a01b038516610dda5760405162461bcd60e51b8152600401610b4690614acb565b5050506001600160a01b039091166000908152606b6020526040902055565b6000610e0684848461262c565b610e7684610e126124c2565b610e7185604051806060016040528060288152602001614f68602891396001600160a01b038a16600090815260676020526040812090610e506124c2565b6001600160a01b031681526020810191909152604001600020549190612972565b6124c6565b5060015b9392505050565b6000606e54821115610ea55760405162461bcd60e51b8152600401610b4690614748565b6000610eaf6129a9565b9050610ebb83826129cc565b9150505b919050565b610ecc614238565b6001600160a01b0382166000908152606b6020526040902054608980549091908110610f0857634e487b7160e01b600052603260045260246000fd5b60009182526020918290206040805160e081018252600790930290910180548352600181015493830193909352600283015490820152600382015460608201526004820154608082015260058201546001600160a01b0390811660a083015260069092015490911660c08201529050919050565b610f846124c2565b6001600160a01b0316610f95611b89565b6001600160a01b031614610fbb5760405162461bcd60e51b8152600401610b4690614a96565b60895482908110610fde5760405162461bcd60e51b8152600401610b46906149e7565b60006089848154811061100157634e487b7160e01b600052603260045260246000fd5b60009182526020918290206040805160e0810182526007909302909101805483526001810154938301939093526002830154908201819052600383015460608301526004830154608083015260058301546001600160a01b0390811660a084015260069093015490921660c0820152915061107e908290856129f7565b82608985815481106110a057634e487b7160e01b600052603260045260246000fd5b6000918252602090912060026007909202010155836110bf5760768390555b50505050565b60735460ff1690565b6110d66124c2565b6001600160a01b03166110e7611b89565b6001600160a01b03161461110d5760405162461bcd60e51b8152600401610b4690614a96565b6001600160a01b03811660009081526069602052604090205460ff166111455760405162461bcd60e51b8152600401610b469061487d565b60005b606c5481101561129f57816001600160a01b0316606c828154811061117d57634e487b7160e01b600052603260045260246000fd5b6000918252602090912001546001600160a01b0316141561128d57606c80546111a890600190614e5e565b815481106111c657634e487b7160e01b600052603260045260246000fd5b600091825260209091200154606c80546001600160a01b03909216918390811061120057634e487b7160e01b600052603260045260246000fd5b600091825260208083209190910180546001600160a01b0319166001600160a01b039485161790559184168152606682526040808220829055606990925220805460ff19169055606c80548061126657634e487b7160e01b600052603160045260246000fd5b600082815260209020810160001990810180546001600160a01b031916905501905561129f565b8061129781614eaa565b915050611148565b5050565b6000610afd6112b06124c2565b84610e7185606760006112c16124c2565b6001600160a01b03908116825260208083019390935260409182016000908120918c168152925290205490612a64565b6112f96124c2565b6001600160a01b031661130a611b89565b6001600160a01b0316146113305760405162461bcd60e51b8152600401610b4690614a96565b608954829081106113535760405162461bcd60e51b8152600401610b46906149e7565b60006089848154811061137657634e487b7160e01b600052603260045260246000fd5b60009182526020918290206040805160e08101825260079093029091018054808452600182015494840194909452600281015491830191909152600381015460608301526004810154608083015260058101546001600160a01b0390811660a08401526006909101541660c082015291506113f3908290856129f7565b826089858154811061141557634e487b7160e01b600052603260045260246000fd5b6000918252602090912060079091020155836110bf57505060745550565b6001600160a01b03166000908152606b6020526040902054151590565b6114586124c2565b6001600160a01b0316611469611b89565b6001600160a01b03161461148f5760405162461bcd60e51b8152600401610b4690614a96565b608a80546001600160a01b038085166001600160a01b03199283161792839055608b8054858316931692909217909155604080516315ab88c960e31b81529051929091169163ad5c464891600480820192602092909190829003018186803b1580156114fa57600080fd5b505afa15801561150e573d6000803e3d6000fd5b505050506040513d601f19601f8201168201806040525081019061153291906143ce565b608c80546001600160a01b0319166001600160a01b03929092169190911790555050565b61155e6124c2565b6001600160a01b031661156f611b89565b6001600160a01b0316146115955760405162461bcd60e51b8152600401610b4690614a96565b6001600160a01b03166000908152606860205260409020805460ff19166001179055565b6000610e7a83600084611df2565b6115cf6124c2565b6001600160a01b03166115e0611b89565b6001600160a01b0316146116065760405162461bcd60e51b8152600401610b4690614a96565b608d80546001600160a01b0319166001600160a01b0392909216919091179055565b608b546001600160a01b031681565b608f54600160a81b900460ff1681565b61164f6124c2565b6001600160a01b0316611660611b89565b6001600160a01b0316146116865760405162461bcd60e51b8152600401610b4690614a96565b61169587878787878787612a93565b5050505050505050565b6116a76124c2565b6001600160a01b03166116b8611b89565b6001600160a01b0316146116de5760405162461bcd60e51b8152600401610b4690614a96565b6001600160a01b03811660009081526069602052604090205460ff16156117175760405162461bcd60e51b8152600401610b469061480f565b6001600160a01b03811660009081526065602052604090205415611771576001600160a01b03811660009081526065602052604090205461175790610e81565b6001600160a01b0382166000908152606660205260409020555b6001600160a01b03166000818152606960205260408120805460ff19166001908117909155606c805491820181559091527f2b4a51ab505fc96a0952efda2ba61bcd3078d4c02c39a186ec16f21883fbe0160180546001600160a01b0319169091179055565b6001600160a01b031660009081526068602052604090205460ff1690565b608d546001600160a01b0316151590565b61180e6124c2565b6001600160a01b031661181f611b89565b6001600160a01b0316146118455760405162461bcd60e51b8152600401610b4690614a96565b608f80546001600160a01b0319166001600160a01b0392909216919091179055565b6001600160a01b03811660009081526069602052604081205460ff16156118a757506001600160a01b038116600090815260666020526040902054610ebf565b6001600160a01b038216600090815260656020526040902054610b0190610e81565b6118d16124c2565b6001600160a01b03166118e2611b89565b6001600160a01b0316146119085760405162461bcd60e51b8152600401610b4690614a96565b6033546040516000916001600160a01b0316907f8be0079c531659141344cd1fd0a4f28419497f9722a3daafe3b4186f6b6457e0908390a3603380546001600160a01b0319169055565b60905481565b6119606124c2565b6001600160a01b0316611971611b89565b6001600160a01b0316146119975760405162461bcd60e51b8152600401610b4690614a96565b608954829081106119ba5760405162461bcd60e51b8152600401610b46906149e7565b6001600160a01b0382166119e05760405162461bcd60e51b8152600401610b4690614b8d565b8160898481548110611a0257634e487b7160e01b600052603260045260246000fd5b906000526020600020906007020160050160006101000a8154816001600160a01b0302191690836001600160a01b031602179055508260001415611a5c57607980546001600160a01b0319166001600160a01b0384161790555b505050565b6001600160a01b031660009081526069602052604090205460ff1690565b611a876124c2565b6001600160a01b0316611a98611b89565b6001600160a01b031614611abe5760405162461bcd60e51b8152600401610b4690614a96565b60895482908110611ae15760405162461bcd60e51b8152600401610b46906149e7565b6001600160a01b038216611b075760405162461bcd60e51b8152600401610b4690614b8d565b8160898481548110611b2957634e487b7160e01b600052603260045260246000fd5b906000526020600020906007020160060160006101000a8154816001600160a01b0302191690836001600160a01b031602179055508260001415611a5c57607a80546001600160a01b0384166001600160a01b0319909116179055505050565b6033546001600160a01b031690565b608c546001600160a01b031681565b611baf6124c2565b6001600160a01b0316611bc0611b89565b6001600160a01b031614611be65760405162461bcd60e51b8152600401610b4690614a96565b60895482908110611c095760405162461bcd60e51b8152600401610b46906149e7565b600060898481548110611c2c57634e487b7160e01b600052603260045260246000fd5b60009182526020918290206040805160e0810182526007909302909101805483526001810154938301939093526002830154908201526003820154606082015260048201546080820181905260058301546001600160a01b0390811660a084015260069093015490921660c08201529150611ca9908290856129f7565b8260898581548110611ccb57634e487b7160e01b600052603260045260246000fd5b6000918252602090912060046007909202010155836110bf57505060785550565b606060728054610a6690614e75565b6000610afd611d086124c2565b84610e7185604051806060016040528060258152602001614fd96025913960676000611d326124c2565b6001600160a01b03908116825260208083019390935260409182016000908120918d16815292529020549190612972565b6000610afd611d706124c2565b848461262c565b608d546001600160a01b0316611d9f5760405162461bcd60e51b8152600401610b4690614b4b565b608d546001600160a01b0316611db36124c2565b6001600160a01b031614611dd95760405162461bcd60e51b8152600401610b46906149b8565b61129f8282612c54565b608f546001600160a01b031681565b6000606d54841115611e165760405162461bcd60e51b8152600401610b46906148eb565b81611e31576000611e278585612c94565b519150610e7a9050565b6000611e3d8585612c94565b602001519150610e7a9050565b611e526124c2565b6001600160a01b0316611e63611b89565b6001600160a01b031614611e895760405162461bcd60e51b8152600401610b4690614a96565b608f805460ff60a81b1916600160a81b831515021790556040517f53726dfcaf90650aa7eb35524f4d3220f07413c8d6cb404cc8c18bf5591bc15990611ed0908390614661565b60405180910390a150565b600054610100900460ff1680611ef45750611ef4612d60565b80611f02575060005460ff16155b611f1e5760405162461bcd60e51b8152600401610b469061496a565b600054610100900460ff16158015611f49576000805460ff1961ff0019909116610100171660011790555b611f51612d71565b611f59612df4565b611f6282612ece565b801561129f576000805461ff00191690555050565b611f7f6124c2565b6001600160a01b0316611f90611b89565b6001600160a01b031614611fb65760405162461bcd60e51b8152600401610b4690614a96565b6001600160a01b03166000908152606a60205260409020805460ff19169055565b611fdf6124c2565b6001600160a01b0316611ff0611b89565b6001600160a01b0316146120165760405162461bcd60e51b8152600401610b4690614a96565b61203761271061203183606d546132ce90919063ffffffff16565b906129cc565b60905550565b6120456124c2565b6001600160a01b0316612056611b89565b6001600160a01b03161461207c5760405162461bcd60e51b8152600401610b4690614a96565b6089548290811061209f5760405162461bcd60e51b8152600401610b46906149e7565b6000608984815481106120c257634e487b7160e01b600052603260045260246000fd5b60009182526020918290206040805160e0810182526007909302909101805483526001810154938301939093526002830154908201526003820154606082018190526004830154608083015260058301546001600160a01b0390811660a084015260069093015490921660c0820152915061213f908290856129f7565b826089858154811061216157634e487b7160e01b600052603260045260246000fd5b6000918252602090912060036007909202010155836110bf57505060775550565b6001600160a01b03918216600090815260676020908152604080832093909416825291909152205490565b607454607554607654607754607854607954607a546001600160a01b03918216911687565b6121da6124c2565b6001600160a01b03166121eb611b89565b6001600160a01b0316146122115760405162461bcd60e51b8152600401610b4690614a96565b6001600160a01b03166000908152606860205260409020805460ff19169055565b61223a6124c2565b6001600160a01b031661224b611b89565b6001600160a01b0316146122715760405162461bcd60e51b8152600401610b4690614a96565b608954829081106122945760405162461bcd60e51b8152600401610b46906149e7565b6000608984815481106122b757634e487b7160e01b600052603260045260246000fd5b60009182526020918290206040805160e0810182526007909302909101805483526001810154938301849052600281015491830191909152600381015460608301526004810154608083015260058101546001600160a01b0390811660a08401526006909101541660c08201529150612332908290856129f7565b826089858154811061235457634e487b7160e01b600052603260045260246000fd5b6000918252602090912060016007909202010155836110bf57505060755550565b61237d6124c2565b6001600160a01b031661238e611b89565b6001600160a01b0316146123b45760405162461bcd60e51b8152600401610b4690614a96565b6001600160a01b0381166123da5760405162461bcd60e51b8152600401610b4690614792565b6033546040516001600160a01b038084169216907f8be0079c531659141344cd1fd0a4f28419497f9722a3daafe3b4186f6b6457e090600090a3603380546001600160a01b0319166001600160a01b0392909216919091179055565b61243e6124c2565b6001600160a01b031661244f611b89565b6001600160a01b0316146124755760405162461bcd60e51b8152600401610b4690614a96565b6001600160a01b03166000908152606a60209081526040808320805460ff19166001179055606b909152812055565b6001600160a01b03166000908152606a602052604090205460ff1690565b3390565b82604051806060016040528060268152602001614fb3602691396001600160a01b0382166000908152606a6020526040902054819060ff161561251c5760405162461bcd60e51b8152600401610b46919061466c565b5083604051806060016040528060288152602001614f40602891396001600160a01b0382166000908152606a6020526040902054819060ff16156125735760405162461bcd60e51b8152600401610b46919061466c565b506001600160a01b03871661259a5760405162461bcd60e51b8152600401610b4690614704565b6001600160a01b0386166125c05760405162461bcd60e51b8152600401610b4690614ca0565b6001600160a01b038088166000818152606760209081526040808320948b168084529490915290819020889055517f8c5be1e5ebec7d5bd14f71427d1e84f3dd0314c0f7b2291e5b200ac8c7c3b9259061261b908990614d3a565b60405180910390a350505050505050565b6126346124c2565b60408051808201825260208082527f536166656d6f6f6e3a204164647265737320697320626c61636b6c6973746564818301526001600160a01b0384166000908152606a9091529190912054819060ff16156126a35760405162461bcd60e51b8152600401610b46919061466c565b5084604051806060016040528060258152602001614f1b602591396001600160a01b0382166000908152606a6020526040902054819060ff16156126fa5760405162461bcd60e51b8152600401610b46919061466c565b5085604051806060016040528060238152602001614f90602391396001600160a01b0382166000908152606a6020526040902054819060ff16156127515760405162461bcd60e51b8152600401610b46919061466c565b506001600160a01b0389166127785760405162461bcd60e51b8152600401610b46906146bf565b6001600160a01b03881661279e5760405162461bcd60e51b8152600401610b4690614bd2565b600087116127be5760405162461bcd60e51b8152600401610b4690614b02565b6127c6611b89565b6001600160a01b0316896001600160a01b03161415801561280057506127ea611b89565b6001600160a01b0316886001600160a01b031614155b15612827576090548711156128275760405162461bcd60e51b8152600401610b4690614922565b600061283230611867565b9050609054811061284257506090545b609154811080159081906128605750608f54600160a01b900460ff16155b801561287a5750608b546001600160a01b038c8116911614155b801561288f5750608f54600160a81b900460ff165b156128a25760915491506128a282613313565b6001600160a01b038b1660009081526068602052604090205460019060ff16806128e457506001600160a01b038b1660009081526068602052604090205460ff165b156128ed575060005b6000811561295657506001600160a01b038c166000818152606b6020526040902054906129186124c2565b6001600160a01b03161461295657606b60006129326124c2565b6001600160a01b03166001600160a01b031681526020019081526020016000205490505b6129638d8d8d84866133b4565b50505050505050505050505050565b600081848411156129965760405162461bcd60e51b8152600401610b46919061466c565b506129a18385614e5e565b949350505050565b60008060006129b661352e565b90925090506129c582826129cc565b9250505090565b60008082116129ed5760405162461bcd60e51b8152600401610b46906148b4565b610e7a8284614e2b565b6000612a4082612a3485612a3a8860800151612a348a60600151612a348c60400151612a348e602001518f60000151612a6490919063ffffffff16565b90612a64565b906136eb565b90506070548111156110bf5760405162461bcd60e51b8152600401610b4690614c5a565b600080612a718385614e13565b905083811015610e7a5760405162461bcd60e51b8152600401610b46906147d8565b612a9b614238565b6000612aea6040518060e001604052808b81526020018a8152602001898152602001888152602001878152602001866001600160a01b03168152602001856001600160a01b0316815250613717565b6089805460018101825560009190915281517f5bfa74c743914028161ae645d300d90bbdc659f169ca1469ec86b4960f7266cb60079092029182015560208201517f5bfa74c743914028161ae645d300d90bbdc659f169ca1469ec86b4960f7266cc82015560408201517f5bfa74c743914028161ae645d300d90bbdc659f169ca1469ec86b4960f7266cd82015560608201517f5bfa74c743914028161ae645d300d90bbdc659f169ca1469ec86b4960f7266ce82015560808201517f5bfa74c743914028161ae645d300d90bbdc659f169ca1469ec86b4960f7266cf82015560a08201517f5bfa74c743914028161ae645d300d90bbdc659f169ca1469ec86b4960f7266d0820180546001600160a01b03199081166001600160a01b039384161790915560c08401517f5bfa74c743914028161ae645d300d90bbdc659f169ca1469ec86b4960f7266d19093018054909116929091169190911790559998505050505050505050565b6001600160a01b038216612c7a5760405162461bcd60e51b8152600401610b4690614a5f565b608e5461129f906001600160a01b031683836000806133b4565b612c9c614287565b6000612ca8848461377f565b90506000612cd78260a00151612a348460800151612a3486602001518760400151612a6490919063ffffffff16565b90506000806000612cf588866060015186612cf06129a9565b6138c7565b92509250925060405180610120016040528084815260200183815260200182815260200186600001518152602001866020015181526020018660400151815260200186606001518152602001866080015181526020018660a001518152509550505050505092915050565b6000612d6b30613917565b15905090565b600054610100900460ff1680612d8a5750612d8a612d60565b80612d98575060005460ff16155b612db45760405162461bcd60e51b8152600401610b469061496a565b600054610100900460ff16158015612ddf576000805460ff1961ff0019909116610100171660011790555b8015612df1576000805461ff00191690555b50565b600054610100900460ff1680612e0d5750612e0d612d60565b80612e1b575060005460ff16155b612e375760405162461bcd60e51b8152600401610b469061496a565b600054610100900460ff16158015612e62576000805460ff1961ff0019909116610100171660011790555b6000612e6c6124c2565b603380546001600160a01b0319166001600160a01b038316908117909155604051919250906000907f8be0079c531659141344cd1fd0a4f28419497f9722a3daafe3b4186f6b6457e0908290a3508015612df1576000805461ff001916905550565b600054610100900460ff1680612ee75750612ee7612d60565b80612ef5575060005460ff16155b612f115760405162461bcd60e51b8152600401610b469061496a565b600054610100900460ff16158015612f3c576000805460ff1961ff0019909116610100171660011790555b60408051808201909152600f8082526e14d85999535bdbdb8814995dd85c99608a1b6020909201918252612f72916071916142d3565b506040805180820190915260048082526329a326a960e11b6020909201918252612f9e916072916142d3565b506073805460ff19166009179055683635c9adc5dea00000606d819055612fc790600019614ec5565b612fd390600019614e5e565b606e556103e8607055608f8054674563918244f400006090556706f05b59d3b200006091556001600160a01b031960ff60a81b19909116600160a81b171661dead17905561301f6124c2565b608e80546001600160a01b03199081166001600160a01b039384161791829055606e5491831660009081526065602090815260409182902093909355608a8054909216868516179182905580516315ab88c960e31b81529051919093169263ad5c4648926004808301939192829003018186803b15801561309f57600080fd5b505afa1580156130b3573d6000803e3d6000fd5b505050506040513d601f19601f820116820180604052508101906130d791906143ce565b608c80546001600160a01b0319166001600160a01b03928316179055608a546040805163c45a015560e01b81529051919092169163c45a0155916004808301926020929190829003018186803b15801561313057600080fd5b505afa158015613144573d6000803e3d6000fd5b505050506040513d601f19601f8201168201806040525081019061316891906143ce565b608c546040516364e329cb60e11b81526001600160a01b039283169263c9c653969261319c9230929091169060040161460c565b602060405180830381600087803b1580156131b657600080fd5b505af11580156131ca573d6000803e3d6000fd5b505050506040513d601f19601f820116820180604052508101906131ee91906143ce565b608b80546001600160a01b0319166001600160a01b039290921691909117905560016068600061321c611b89565b6001600160a01b0316815260208082019290925260409081016000908120805494151560ff19958616179055308152606890925290208054909116600117905561326461391d565b61326c6124c2565b6001600160a01b031660006001600160a01b03167fddf252ad1be2c89b69c2b068fc378daa952ba7f163c4a11628f55a4df523b3ef606d546040516132b19190614d3a565b60405180910390a3801561129f576000805461ff00191690555050565b6000826132dd57506000610b01565b60006132e98385614e3f565b9050826132f68583614e2b565b14610e7a5760405162461bcd60e51b8152600401610b4690614a1e565b608f805460ff60a01b1916600160a01b17905560006133338260026129cc565b9050600061334183836136eb565b90504761334d83613a4a565b600061335947836136eb565b90506133658382613bcf565b7f17bbfb9a6069321b6ded73bd96327c9e6b7212a5cd51ff219cd61370acafb56184828560405161339893929190614db3565b60405180910390a15050608f805460ff60a01b19169055505050565b806133c1576133c1613c7a565b6001600160a01b03851660009081526069602052604090205460ff16801561340257506001600160a01b03841660009081526069602052604090205460ff16155b156134185761341385858585613da4565b61351a565b6001600160a01b03851660009081526069602052604090205460ff1615801561345957506001600160a01b03841660009081526069602052604090205460ff165b1561346a5761341385858585613eca565b6001600160a01b03851660009081526069602052604090205460ff161580156134ac57506001600160a01b03841660009081526069602052604090205460ff16155b156134bd5761341385858585613f6f565b6001600160a01b03851660009081526069602052604090205460ff1680156134fd57506001600160a01b03841660009081526069602052604090205460ff165b1561350e5761341385858585613fa3565b61351a85858585613f6f565b8061352757613527614008565b5050505050565b606e54606d546000918291825b606c548110156136b9578260656000606c848154811061356b57634e487b7160e01b600052603260045260246000fd5b60009182526020808320909101546001600160a01b0316835282019290925260400190205411806135e457508160666000606c84815481106135bd57634e487b7160e01b600052603260045260246000fd5b60009182526020808320909101546001600160a01b03168352820192909252604001902054115b156135fb57606e54606d54945094505050506136e7565b61364f60656000606c848154811061362357634e487b7160e01b600052603260045260246000fd5b60009182526020808320909101546001600160a01b0316835282019290925260400190205484906136eb565b92506136a560666000606c848154811061367957634e487b7160e01b600052603260045260246000fd5b60009182526020808320909101546001600160a01b0316835282019290925260400190205483906136eb565b9150806136b181614eaa565b91505061353b565b50606d54606e546136c9916129cc565b8210156136e157606e54606d549350935050506136e7565b90925090505b9091565b60008282111561370d5760405162461bcd60e51b8152600401610b4690614846565b610e7a8284614e5e565b61371f614238565b60006137548360800151612a348560600151612a348760400151612a3489602001518a60000151612a6490919063ffffffff16565b90506070548111156137785760405162461bcd60e51b8152600401610b4690614c5a565b5090919050565b613787614357565b6000608983815481106137aa57634e487b7160e01b600052603260045260246000fd5b600091825260208083206040805160e081018252600790940290910180548452600181015484840152600281015484830152600381015460608501526004810154608085015260058101546001600160a01b0390811660a08601526006909101541660c08085019190915281519081019091528381528251929450919082019061383590889061402c565b815260200161384887856020015161402c565b815260200161385b87856040015161402c565b815260200161386e87856060015161402c565b815260200161388187856080015161402c565b81525090506138bd8160a00151612a3a8360800151612a3a8560400151612a3a8760600151612a3a89602001518e6136eb90919063ffffffff16565b8152949350505050565b60008080806138d688866132ce565b905060006138e488876132ce565b905060006138f288886132ce565b9050600061390482612a3a86866136eb565b939b939a50919850919650505050505050565b3b151590565b600054610100900460ff16806139365750613936612d60565b80613944575060005460ff16155b6139605760405162461bcd60e51b8152600401610b469061496a565b600054610100900460ff1615801561398b576000805460ff1961ff0019909116610100171660011790555b61399f60006101f480600080600080612a93565b8051607455602081015160755560408101516076556060810151607755608081015160785560a0810151607980546001600160a01b03199081166001600160a01b039384161790915560c090920151607a80549093169116179055613a0c60328060646000808080612a93565b50613a206032806064806000806000612a93565b50613a356064607d8060966000806000612a93565b508015612df1576000805461ff001916905550565b6040805160028082526060820183526000926020830190803683370190505090503081600081518110613a8d57634e487b7160e01b600052603260045260246000fd5b6001600160a01b03928316602091820292909201810191909152608a54604080516315ab88c960e31b81529051919093169263ad5c4648926004808301939192829003018186803b158015613ae157600080fd5b505afa158015613af5573d6000803e3d6000fd5b505050506040513d601f19601f82011682018060405250810190613b1991906143ce565b81600181518110613b3a57634e487b7160e01b600052603260045260246000fd5b6001600160a01b039283166020918202929092010152608a54613b6091309116846124c6565b608a5460405163791ac94760e01b81526001600160a01b039091169063791ac94790613b99908590600090869030904290600401614d43565b600060405180830381600087803b158015613bb357600080fd5b505af1158015613bc7573d6000803e3d6000fd5b505050505050565b608a54613be79030906001600160a01b0316846124c6565b608a546001600160a01b031663f305d719823085600080613c06611b89565b426040518863ffffffff1660e01b8152600401613c2896959493929190614626565b6060604051808303818588803b158015613c4157600080fd5b505af1158015613c55573d6000803e3d6000fd5b50505050506040513d601f19601f820116820180604052508101906135279190614563565b6089600081548110613c9c57634e487b7160e01b600052603260045260246000fd5b6000918252602082206007909102018054607b556001810154607c556002810154607d556003810154607e556004810154607f556005810154608080546001600160a01b03199081166001600160a01b03938416179091556006909201546081805490931691161790556089805460829290613d2857634e487b7160e01b600052603260045260246000fd5b6000918252602090912082546007909202019081556001808301549082015560028083015490820155600380830154908201556004808301549082015560058083015490820180546001600160a01b03199081166001600160a01b03938416179091556006938401549390920180549092169216919091179055565b6000613db08383612c94565b6001600160a01b038616600090815260666020526040902054909150613dd690846136eb565b6001600160a01b0386166000908152606660209081526040808320939093558351606590915291902054613e09916136eb565b6001600160a01b0380871660009081526065602090815260408083209490945584015191871681529190912054613e3f91612a64565b6001600160a01b038516600090815260656020526040902055613e62818361404b565b613e7481604001518260c001516140fd565b836001600160a01b0316856001600160a01b03167fddf252ad1be2c89b69c2b068fc378daa952ba7f163c4a11628f55a4df523b3ef8360600151604051613ebb9190614d3a565b60405180910390a35050505050565b6000613ed68383612c94565b80516001600160a01b038716600090815260656020526040902054919250613efe91906136eb565b6001600160a01b0380871660009081526065602090815260408083209490945560608501519288168252606690529190912054613f3a91612a64565b6001600160a01b03851660009081526066602090815260408083209390935583810151606590915291902054613e3f91612a64565b6000613f7b8383612c94565b80516001600160a01b038716600090815260656020526040902054919250613e0991906136eb565b6000613faf8383612c94565b6001600160a01b038616600090815260666020526040902054909150613fd590846136eb565b6001600160a01b0386166000908152606660209081526040808320939093558351606590915291902054613efe916136eb565b607b6089600081548110613d2857634e487b7160e01b600052603260045260246000fd5b60008161403b57506000610b01565b610e7a61271061203185856132ce565b6140598260a0015130614121565b6140a482608001516089838154811061408257634e487b7160e01b600052603260045260246000fd5b60009182526020909120600560079092020101546001600160a01b0316614121565b6140ef8260e00151608983815481106140cd57634e487b7160e01b600052603260045260246000fd5b60009182526020909120600660079092020101546001600160a01b0316614121565b61129f8261010001516141eb565b606e5461410a90836136eb565b606e55606f5461411a9082612a64565b606f555050565b6001600160a01b0381166141345761129f565b8161413e5761129f565b60006141486129a9565b9050600061415684836132ce565b6001600160a01b03841660009081526065602052604090205490915061417c9082612a64565b6001600160a01b03841660009081526065602090815260408083209390935560699052205460ff16156110bf576001600160a01b0383166000908152606660205260409020546141cc9085612a64565b6001600160a01b03841660009081526066602052604090205550505050565b806141f557612df1565b608f546001600160a01b031660009081526066602052604090205461421a9082612a64565b608f546001600160a01b031660009081526066602052604090205550565b6040518060e00160405280600081526020016000815260200160008152602001600081526020016000815260200160006001600160a01b0316815260200160006001600160a01b031681525090565b6040518061012001604052806000815260200160008152602001600081526020016000815260200160008152602001600081526020016000815260200160008152602001600081525090565b8280546142df90614e75565b90600052602060002090601f0160209004810192826143015760008555614347565b82601f1061431a57805160ff1916838001178555614347565b82800160010185558215614347579182015b8281111561434757825182559160200191906001019061432c565b5061435392915061438d565b5090565b6040518060c001604052806000815260200160008152602001600081526020016000815260200160008152602001600081525090565b5b80821115614353576000815560010161438e565b80358015158114610ebf57600080fd5b6000602082840312156143c3578081fd5b8135610e7a81614f05565b6000602082840312156143df578081fd5b8151610e7a81614f05565b600080604083850312156143fc578081fd5b823561440781614f05565b9150602083013561441781614f05565b809150509250929050565b600080600060608486031215614436578081fd5b833561444181614f05565b9250602084013561445181614f05565b929592945050506040919091013590565b60008060408385031215614474578182fd5b823561447f81614f05565b946020939093013593505050565b60006020828403121561449e578081fd5b610e7a826143a2565b6000602082840312156144b8578081fd5b5035919050565b600080604083850312156144d1578182fd5b82359150602083013561441781614f05565b600080604083850312156144f5578182fd5b82359150614505602084016143a2565b90509250929050565b60008060408385031215614520578182fd5b50508035926020909101359150565b600080600060608486031215614543578283fd5b833592506020840135915061455a604085016143a2565b90509250925092565b600080600060608486031215614577578283fd5b8351925060208401519150604084015190509250925092565b600080600080600080600060e0888a0312156145aa578283fd5b873596506020880135955060408801359450606088013593506080880135925060a08801356145d881614f05565b915060c08801356145e881614f05565b8091505092959891949750929550565b6001600160a01b0391909116815260200190565b6001600160a01b0392831681529116602082015260400190565b6001600160a01b039687168152602081019590955260408501939093526060840191909152909216608082015260a081019190915260c00190565b901515815260200190565b6000602080835283518082850152825b818110156146985785810183015185820160400152820161467c565b818111156146a95783604083870101525b50601f01601f1916929092016040019392505050565b60208082526025908201527f42455032303a207472616e736665722066726f6d20746865207a65726f206164604082015264647265737360d81b606082015260800190565b60208082526024908201527f42455032303a20617070726f76652066726f6d20746865207a65726f206164646040820152637265737360e01b606082015260800190565b6020808252602a908201527f416d6f756e74206d757374206265206c657373207468616e20746f74616c207260408201526965666c656374696f6e7360b01b606082015260800190565b60208082526026908201527f4f776e61626c653a206e6577206f776e657220697320746865207a65726f206160408201526564647265737360d01b606082015260800190565b6020808252601b908201527f536166654d6174683a206164646974696f6e206f766572666c6f770000000000604082015260600190565b6020808252601b908201527f4163636f756e7420697320616c7265616479206578636c756465640000000000604082015260600190565b6020808252601e908201527f536166654d6174683a207375627472616374696f6e206f766572666c6f770000604082015260600190565b6020808252601b908201527f4163636f756e7420697320616c726561647920696e636c756465640000000000604082015260600190565b6020808252601a908201527f536166654d6174683a206469766973696f6e206279207a65726f000000000000604082015260600190565b6020808252601f908201527f416d6f756e74206d757374206265206c657373207468616e20737570706c7900604082015260600190565b60208082526028908201527f5472616e7366657220616d6f756e74206578636565647320746865206d6178546040820152673c20b6b7bab73a1760c11b606082015260800190565b6020808252602e908201527f496e697469616c697a61626c653a20636f6e747261637420697320616c72656160408201526d191e481a5b9a5d1a585b1a5e995960921b606082015260800190565b60208082526015908201527414d859995b5bdbdb8e88139bdd08105b1b1bddd959605a1b604082015260600190565b6020808252601c908201527f536166656d6f6f6e3a20496e76616c6964207469657220696e64657800000000604082015260600190565b60208082526021908201527f536166654d6174683a206d756c7469706c69636174696f6e206f766572666c6f6040820152607760f81b606082015260800190565b6020808252601f908201527f42455032303a206d696e7420746f20746865207a65726f206164647265737300604082015260600190565b6020808252818101527f4f776e61626c653a2063616c6c6572206973206e6f7420746865206f776e6572604082015260600190565b60208082526019908201527f536166656d6f6f6e3a20496e76616c6964206164647265737300000000000000604082015260600190565b60208082526029908201527f5472616e7366657220616d6f756e74206d7573742062652067726561746572206040820152687468616e207a65726f60b81b606082015260800190565b60208082526022908201527f536166656d6f6f6e3a204d6967726174696f6e206973206e6f74207374617274604082015261195960f21b606082015260800190565b60208082526025908201527f536166656d6f6f6e3a2041646472657373205a65726f206973206e6f7420616c6040820152641b1bddd95960da1b606082015260800190565b60208082526023908201527f42455032303a207472616e7366657220746f20746865207a65726f206164647260408201526265737360e81b606082015260800190565b60208082526025908201527f536166656d6f6f6e3a204163636f756e74206973206e6f7420696e2077686974604082015264195b1a5cdd60da1b606082015260800190565b60208082526026908201527f536166656d6f6f6e3a2046656573206578636565646564206d6178206c696d696040820152653a30ba34b7b760d11b606082015260800190565b60208082526022908201527f42455032303a20617070726f766520746f20746865207a65726f206164647265604082015261737360f01b606082015260800190565b815181526020808301519082015260408083015190820152606080830151908201526080808301519082015260a0808301516001600160a01b039081169183019190915260c092830151169181019190915260e00190565b90815260200190565b600060a082018783526020878185015260a0604085015281875180845260c0860191508289019350845b81811015614d925784516001600160a01b031683529383019391830191600101614d6d565b50506001600160a01b03969096166060850152505050608001529392505050565b9283526020830191909152604082015260600190565b96875260208701959095526040860193909352606085019190915260808401526001600160a01b0390811660a08401521660c082015260e00190565b60ff91909116815260200190565b60008219821115614e2657614e26614ed9565b500190565b600082614e3a57614e3a614eef565b500490565b6000816000190483118215151615614e5957614e59614ed9565b500290565b600082821015614e7057614e70614ed9565b500390565b600281046001821680614e8957607f821691505b60208210811415610ce057634e487b7160e01b600052602260045260246000fd5b6000600019821415614ebe57614ebe614ed9565b5060010190565b600082614ed457614ed4614eef565b500690565b634e487b7160e01b600052601160045260246000fd5b634e487b7160e01b600052601260045260246000fd5b6001600160a01b0381168114612df157600080fdfe536166656d6f6f6e3a2046726f6d206164647265737320697320626c61636b6c6973746564536166656d6f6f6e3a205370656e646572206164647265737320697320626c61636b6c697374656442455032303a207472616e7366657220616d6f756e74206578636565647320616c6c6f77616e6365536166656d6f6f6e3a20546f206164647265737320697320626c61636b6c6973746564536166656d6f6f6e3a204f776e6572206164647265737320697320626c61636b6c697374656442455032303a2064656372656173656420616c6c6f77616e63652062656c6f77207a65726f536166656d6f6f6e3a2053656c6563746564206163636f756e7420697320696e20626c61636b6c697374a26469706673582212204f565ef6e578d307387a392803360c21aaf600bd2b8fa88559778c92f8cc766064736f6c63430008000033",
          "opcodes": "PUSH1 0x80 PUSH1 0x40 MSTORE CALLVALUE DUP1 ISZERO PUSH2 0x10 JUMPI PUSH1 0x0 DUP1 REVERT JUMPDEST POP PUSH2 0x505D DUP1 PUSH2 0x20 PUSH1 0x0 CODECOPY PUSH1 0x0 RETURN INVALID PUSH1 0x80 PUSH1 0x40 MSTORE PUSH1 0x4 CALLDATASIZE LT PUSH2 0x37A JUMPI PUSH1 0x0 CALLDATALOAD PUSH1 0xE0 SHR DUP1 PUSH4 0x60D0EB73 GT PUSH2 0x1D1 JUMPI DUP1 PUSH4 0xAD68EBF7 GT PUSH2 0x102 JUMPI DUP1 PUSH4 0xD66329B0 GT PUSH2 0xA0 JUMPI DUP1 PUSH4 0xF2D58C23 GT PUSH2 0x6F JUMPI DUP1 PUSH4 0xF2D58C23 EQ PUSH2 0x9D7 JUMPI DUP1 PUSH4 0xF2FDE38B EQ PUSH2 0x9F7 JUMPI DUP1 PUSH4 0xF3290D75 EQ PUSH2 0xA17 JUMPI DUP1 PUSH4 0xFE575A87 EQ PUSH2 0xA37 JUMPI PUSH2 0x381 JUMP JUMPDEST DUP1 PUSH4 0xD66329B0 EQ PUSH2 0x94F JUMPI DUP1 PUSH4 0xDD62ED3E EQ PUSH2 0x96F JUMPI DUP1 PUSH4 0xDFD66CB3 EQ PUSH2 0x98F JUMPI DUP1 PUSH4 0xEA2F0B37 EQ PUSH2 0x9B7 JUMPI PUSH2 0x381 JUMP JUMPDEST DUP1 PUSH4 0xC49B9A80 GT PUSH2 0xDC JUMPI DUP1 PUSH4 0xC49B9A80 EQ PUSH2 0x8CF JUMPI DUP1 PUSH4 0xC4D66DE8 EQ PUSH2 0x8EF JUMPI DUP1 PUSH4 0xD40CF659 EQ PUSH2 0x90F JUMPI DUP1 PUSH4 0xD543DBEB EQ PUSH2 0x92F JUMPI PUSH2 0x381 JUMP JUMPDEST DUP1 PUSH4 0xAD68EBF7 EQ PUSH2 0x87A JUMPI DUP1 PUSH4 0xBD3900C0 EQ PUSH2 0x89A JUMPI DUP1 PUSH4 0xBF266469 EQ PUSH2 0x8AF JUMPI PUSH2 0x381 JUMP JUMPDEST DUP1 PUSH4 0x8AF319C7 GT PUSH2 0x16F JUMPI DUP1 PUSH4 0x8FC3D4B8 GT PUSH2 0x149 JUMPI DUP1 PUSH4 0x8FC3D4B8 EQ PUSH2 0x805 JUMPI DUP1 PUSH4 0x95D89B41 EQ PUSH2 0x825 JUMPI DUP1 PUSH4 0xA457C2D7 EQ PUSH2 0x83A JUMPI DUP1 PUSH4 0xA9059CBB EQ PUSH2 0x85A JUMPI PUSH2 0x381 JUMP JUMPDEST DUP1 PUSH4 0x8AF319C7 EQ PUSH2 0x7BB JUMPI DUP1 PUSH4 0x8DA5CB5B EQ PUSH2 0x7DB JUMPI DUP1 PUSH4 0x8DD95002 EQ PUSH2 0x7F0 JUMPI PUSH2 0x381 JUMP JUMPDEST DUP1 PUSH4 0x715018A6 GT PUSH2 0x1AB JUMPI DUP1 PUSH4 0x715018A6 EQ PUSH2 0x751 JUMPI DUP1 PUSH4 0x7D1DB4A5 EQ PUSH2 0x766 JUMPI DUP1 PUSH4 0x7ED948F7 EQ PUSH2 0x77B JUMPI DUP1 PUSH4 0x88F82020 EQ PUSH2 0x79B JUMPI PUSH2 0x381 JUMP JUMPDEST DUP1 PUSH4 0x60D0EB73 EQ PUSH2 0x6FC JUMPI DUP1 PUSH4 0x6BD89CDD EQ PUSH2 0x711 JUMPI DUP1 PUSH4 0x70A08231 EQ PUSH2 0x731 JUMPI PUSH2 0x381 JUMP JUMPDEST DUP1 PUSH4 0x313CE567 GT PUSH2 0x2AB JUMPI DUP1 PUSH4 0x4549B039 GT PUSH2 0x249 JUMPI DUP1 PUSH4 0x4A74BB02 GT PUSH2 0x223 JUMPI DUP1 PUSH4 0x4A74BB02 EQ PUSH2 0x687 JUMPI DUP1 PUSH4 0x4FFC1425 EQ PUSH2 0x69C JUMPI DUP1 PUSH4 0x52390C02 EQ PUSH2 0x6BC JUMPI DUP1 PUSH4 0x5342ACB4 EQ PUSH2 0x6DC JUMPI PUSH2 0x381 JUMP JUMPDEST DUP1 PUSH4 0x4549B039 EQ PUSH2 0x632 JUMPI DUP1 PUSH4 0x4732A7DC EQ PUSH2 0x652 JUMPI DUP1 PUSH4 0x49BD5A5E EQ PUSH2 0x672 JUMPI PUSH2 0x381 JUMP JUMPDEST DUP1 PUSH4 0x39AA1BBA GT PUSH2 0x285 JUMPI DUP1 PUSH4 0x39AA1BBA EQ PUSH2 0x5B2 JUMPI DUP1 PUSH4 0x3AF32ABF EQ PUSH2 0x5D2 JUMPI DUP1 PUSH4 0x40B28C2F EQ PUSH2 0x5F2 JUMPI DUP1 PUSH4 0x437823EC EQ PUSH2 0x612 JUMPI PUSH2 0x381 JUMP JUMPDEST DUP1 PUSH4 0x313CE567 EQ PUSH2 0x550 JUMPI DUP1 PUSH4 0x3685D419 EQ PUSH2 0x572 JUMPI DUP1 PUSH4 0x39509351 EQ PUSH2 0x592 JUMPI PUSH2 0x381 JUMP JUMPDEST DUP1 PUSH4 0x1694505E GT PUSH2 0x318 JUMPI DUP1 PUSH4 0x23B872DD GT PUSH2 0x2F2 JUMPI DUP1 PUSH4 0x23B872DD EQ PUSH2 0x4D0 JUMPI DUP1 PUSH4 0x2D838119 EQ PUSH2 0x4F0 JUMPI DUP1 PUSH4 0x30127334 EQ PUSH2 0x510 JUMPI DUP1 PUSH4 0x30B263BA EQ PUSH2 0x530 JUMPI PUSH2 0x381 JUMP JUMPDEST DUP1 PUSH4 0x1694505E EQ PUSH2 0x479 JUMPI DUP1 PUSH4 0x18160DDD EQ PUSH2 0x49B JUMPI DUP1 PUSH4 0x200C7295 EQ PUSH2 0x4B0 JUMPI PUSH2 0x381 JUMP JUMPDEST DUP1 PUSH4 0x11B32601 GT PUSH2 0x354 JUMPI DUP1 PUSH4 0x11B32601 EQ PUSH2 0x400 JUMPI DUP1 PUSH4 0x13114A9D EQ PUSH2 0x422 JUMPI DUP1 PUSH4 0x132AF75C EQ PUSH2 0x437 JUMPI DUP1 PUSH4 0x140C5759 EQ PUSH2 0x44C JUMPI PUSH2 0x381 JUMP JUMPDEST DUP1 PUSH4 0x6FDDE03 EQ PUSH2 0x386 JUMPI DUP1 PUSH4 0x95EA7B3 EQ PUSH2 0x3B1 JUMPI DUP1 PUSH4 0x10844953 EQ PUSH2 0x3DE JUMPI PUSH2 0x381 JUMP JUMPDEST CALLDATASIZE PUSH2 0x381 JUMPI STOP JUMPDEST PUSH1 0x0 DUP1 REVERT JUMPDEST CALLVALUE DUP1 ISZERO PUSH2 0x392 JUMPI PUSH1 0x0 DUP1 REVERT JUMPDEST POP PUSH2 0x39B PUSH2 0xA57 JUMP JUMPDEST PUSH1 0x40 MLOAD PUSH2 0x3A8 SWAP2 SWAP1 PUSH2 0x466C JUMP JUMPDEST PUSH1 0x40 MLOAD DUP1 SWAP2 SUB SWAP1 RETURN JUMPDEST CALLVALUE DUP1 ISZERO PUSH2 0x3BD JUMPI PUSH1 0x0 DUP1 REVERT JUMPDEST POP PUSH2 0x3D1 PUSH2 0x3CC CALLDATASIZE PUSH1 0x4 PUSH2 0x4462 JUMP JUMPDEST PUSH2 0xAE9 JUMP JUMPDEST PUSH1 0x40 MLOAD PUSH2 0x3A8 SWAP2 SWAP1 PUSH2 0x4661 JUMP JUMPDEST CALLVALUE DUP1 ISZERO PUSH2 0x3EA JUMPI PUSH1 0x0 DUP1 REVERT JUMPDEST POP PUSH2 0x3FE PUSH2 0x3F9 CALLDATASIZE PUSH1 0x4 PUSH2 0x43B2 JUMP JUMPDEST PUSH2 0xB07 JUMP JUMPDEST STOP JUMPDEST CALLVALUE DUP1 ISZERO PUSH2 0x40C JUMPI PUSH1 0x0 DUP1 REVERT JUMPDEST POP PUSH2 0x415 PUSH2 0xBC4 JUMP JUMPDEST PUSH1 0x40 MLOAD PUSH2 0x3A8 SWAP2 SWAP1 PUSH2 0x4D3A JUMP JUMPDEST CALLVALUE DUP1 ISZERO PUSH2 0x42E JUMPI PUSH1 0x0 DUP1 REVERT JUMPDEST POP PUSH2 0x415 PUSH2 0xBCA JUMP JUMPDEST CALLVALUE DUP1 ISZERO PUSH2 0x443 JUMPI PUSH1 0x0 DUP1 REVERT JUMPDEST POP PUSH2 0x3FE PUSH2 0xBD0 JUMP JUMPDEST CALLVALUE DUP1 ISZERO PUSH2 0x458 JUMPI PUSH1 0x0 DUP1 REVERT JUMPDEST POP PUSH2 0x46C PUSH2 0x467 CALLDATASIZE PUSH1 0x4 PUSH2 0x44A7 JUMP JUMPDEST PUSH2 0xC24 JUMP JUMPDEST PUSH1 0x40 MLOAD PUSH2 0x3A8 SWAP2 SWAP1 PUSH2 0x4CE2 JUMP JUMPDEST CALLVALUE DUP1 ISZERO PUSH2 0x485 JUMPI PUSH1 0x0 DUP1 REVERT JUMPDEST POP PUSH2 0x48E PUSH2 0xCE6 JUMP JUMPDEST PUSH1 0x40 MLOAD PUSH2 0x3A8 SWAP2 SWAP1 PUSH2 0x45F8 JUMP JUMPDEST CALLVALUE DUP1 ISZERO PUSH2 0x4A7 JUMPI PUSH1 0x0 DUP1 REVERT JUMPDEST POP PUSH2 0x415 PUSH2 0xCF5 JUMP JUMPDEST CALLVALUE DUP1 ISZERO PUSH2 0x4BC JUMPI PUSH1 0x0 DUP1 REVERT JUMPDEST POP PUSH2 0x3FE PUSH2 0x4CB CALLDATASIZE PUSH1 0x4 PUSH2 0x4462 JUMP JUMPDEST PUSH2 0xCFB JUMP JUMPDEST CALLVALUE DUP1 ISZERO PUSH2 0x4DC JUMPI PUSH1 0x0 DUP1 REVERT JUMPDEST POP PUSH2 0x3D1 PUSH2 0x4EB CALLDATASIZE PUSH1 0x4 PUSH2 0x4422 JUMP JUMPDEST PUSH2 0xDF9 JUMP JUMPDEST CALLVALUE DUP1 ISZERO PUSH2 0x4FC JUMPI PUSH1 0x0 DUP1 REVERT JUMPDEST POP PUSH2 0x415 PUSH2 0x50B CALLDATASIZE PUSH1 0x4 PUSH2 0x44A7 JUMP JUMPDEST PUSH2 0xE81 JUMP JUMPDEST CALLVALUE DUP1 ISZERO PUSH2 0x51C JUMPI PUSH1 0x0 DUP1 REVERT JUMPDEST POP PUSH2 0x46C PUSH2 0x52B CALLDATASIZE PUSH1 0x4 PUSH2 0x43B2 JUMP JUMPDEST PUSH2 0xEC4 JUMP JUMPDEST CALLVALUE DUP1 ISZERO PUSH2 0x53C JUMPI PUSH1 0x0 DUP1 REVERT JUMPDEST POP PUSH2 0x3FE PUSH2 0x54B CALLDATASIZE PUSH1 0x4 PUSH2 0x450E JUMP JUMPDEST PUSH2 0xF7C JUMP JUMPDEST CALLVALUE DUP1 ISZERO PUSH2 0x55C JUMPI PUSH1 0x0 DUP1 REVERT JUMPDEST POP PUSH2 0x565 PUSH2 0x10C5 JUMP JUMPDEST PUSH1 0x40 MLOAD PUSH2 0x3A8 SWAP2 SWAP1 PUSH2 0x4E05 JUMP JUMPDEST CALLVALUE DUP1 ISZERO PUSH2 0x57E JUMPI PUSH1 0x0 DUP1 REVERT JUMPDEST POP PUSH2 0x3FE PUSH2 0x58D CALLDATASIZE PUSH1 0x4 PUSH2 0x43B2 JUMP JUMPDEST PUSH2 0x10CE JUMP JUMPDEST CALLVALUE DUP1 ISZERO PUSH2 0x59E JUMPI PUSH1 0x0 DUP1 REVERT JUMPDEST POP PUSH2 0x3D1 PUSH2 0x5AD CALLDATASIZE PUSH1 0x4 PUSH2 0x4462 JUMP JUMPDEST PUSH2 0x12A3 JUMP JUMPDEST CALLVALUE DUP1 ISZERO PUSH2 0x5BE JUMPI PUSH1 0x0 DUP1 REVERT JUMPDEST POP PUSH2 0x3FE PUSH2 0x5CD CALLDATASIZE PUSH1 0x4 PUSH2 0x450E JUMP JUMPDEST PUSH2 0x12F1 JUMP JUMPDEST CALLVALUE DUP1 ISZERO PUSH2 0x5DE JUMPI PUSH1 0x0 DUP1 REVERT JUMPDEST POP PUSH2 0x3D1 PUSH2 0x5ED CALLDATASIZE PUSH1 0x4 PUSH2 0x43B2 JUMP JUMPDEST PUSH2 0x1433 JUMP JUMPDEST CALLVALUE DUP1 ISZERO PUSH2 0x5FE JUMPI PUSH1 0x0 DUP1 REVERT JUMPDEST POP PUSH2 0x3FE PUSH2 0x60D CALLDATASIZE PUSH1 0x4 PUSH2 0x43EA JUMP JUMPDEST PUSH2 0x1450 JUMP JUMPDEST CALLVALUE DUP1 ISZERO PUSH2 0x61E JUMPI PUSH1 0x0 DUP1 REVERT JUMPDEST POP PUSH2 0x3FE PUSH2 0x62D CALLDATASIZE PUSH1 0x4 PUSH2 0x43B2 JUMP JUMPDEST PUSH2 0x1556 JUMP JUMPDEST CALLVALUE DUP1 ISZERO PUSH2 0x63E JUMPI PUSH1 0x0 DUP1 REVERT JUMPDEST POP PUSH2 0x415 PUSH2 0x64D CALLDATASIZE PUSH1 0x4 PUSH2 0x44E3 JUMP JUMPDEST PUSH2 0x15B9 JUMP JUMPDEST CALLVALUE DUP1 ISZERO PUSH2 0x65E JUMPI PUSH1 0x0 DUP1 REVERT JUMPDEST POP PUSH2 0x3FE PUSH2 0x66D CALLDATASIZE PUSH1 0x4 PUSH2 0x43B2 JUMP JUMPDEST PUSH2 0x15C7 JUMP JUMPDEST CALLVALUE DUP1 ISZERO PUSH2 0x67E JUMPI PUSH1 0x0 DUP1 REVERT JUMPDEST POP PUSH2 0x48E PUSH2 0x1628 JUMP JUMPDEST CALLVALUE DUP1 ISZERO PUSH2 0x693 JUMPI PUSH1 0x0 DUP1 REVERT JUMPDEST POP PUSH2 0x3D1 PUSH2 0x1637 JUMP JUMPDEST CALLVALUE DUP1 ISZERO PUSH2 0x6A8 JUMPI PUSH1 0x0 DUP1 REVERT JUMPDEST POP PUSH2 0x3FE PUSH2 0x6B7 CALLDATASIZE PUSH1 0x4 PUSH2 0x4590 JUMP JUMPDEST PUSH2 0x1647 JUMP JUMPDEST CALLVALUE DUP1 ISZERO PUSH2 0x6C8 JUMPI PUSH1 0x0 DUP1 REVERT JUMPDEST POP PUSH2 0x3FE PUSH2 0x6D7 CALLDATASIZE PUSH1 0x4 PUSH2 0x43B2 JUMP JUMPDEST PUSH2 0x169F JUMP JUMPDEST CALLVALUE DUP1 ISZERO PUSH2 0x6E8 JUMPI PUSH1 0x0 DUP1 REVERT JUMPDEST POP PUSH2 0x3D1 PUSH2 0x6F7 CALLDATASIZE PUSH1 0x4 PUSH2 0x43B2 JUMP JUMPDEST PUSH2 0x17D7 JUMP JUMPDEST CALLVALUE DUP1 ISZERO PUSH2 0x708 JUMPI PUSH1 0x0 DUP1 REVERT JUMPDEST POP PUSH2 0x3D1 PUSH2 0x17F5 JUMP JUMPDEST CALLVALUE DUP1 ISZERO PUSH2 0x71D JUMPI PUSH1 0x0 DUP1 REVERT JUMPDEST POP PUSH2 0x3FE PUSH2 0x72C CALLDATASIZE PUSH1 0x4 PUSH2 0x43B2 JUMP JUMPDEST PUSH2 0x1806 JUMP JUMPDEST CALLVALUE DUP1 ISZERO PUSH2 0x73D JUMPI PUSH1 0x0 DUP1 REVERT JUMPDEST POP PUSH2 0x415 PUSH2 0x74C CALLDATASIZE PUSH1 0x4 PUSH2 0x43B2 JUMP JUMPDEST PUSH2 0x1867 JUMP JUMPDEST CALLVALUE DUP1 ISZERO PUSH2 0x75D JUMPI PUSH1 0x0 DUP1 REVERT JUMPDEST POP PUSH2 0x3FE PUSH2 0x18C9 JUMP JUMPDEST CALLVALUE DUP1 ISZERO PUSH2 0x772 JUMPI PUSH1 0x0 DUP1 REVERT JUMPDEST POP PUSH2 0x415 PUSH2 0x1952 JUMP JUMPDEST CALLVALUE DUP1 ISZERO PUSH2 0x787 JUMPI PUSH1 0x0 DUP1 REVERT JUMPDEST POP PUSH2 0x3FE PUSH2 0x796 CALLDATASIZE PUSH1 0x4 PUSH2 0x44BF JUMP JUMPDEST PUSH2 0x1958 JUMP JUMPDEST CALLVALUE DUP1 ISZERO PUSH2 0x7A7 JUMPI PUSH1 0x0 DUP1 REVERT JUMPDEST POP PUSH2 0x3D1 PUSH2 0x7B6 CALLDATASIZE PUSH1 0x4 PUSH2 0x43B2 JUMP JUMPDEST PUSH2 0x1A61 JUMP JUMPDEST CALLVALUE DUP1 ISZERO PUSH2 0x7C7 JUMPI PUSH1 0x0 DUP1 REVERT JUMPDEST POP PUSH2 0x3FE PUSH2 0x7D6 CALLDATASIZE PUSH1 0x4 PUSH2 0x44BF JUMP JUMPDEST PUSH2 0x1A7F JUMP JUMPDEST CALLVALUE DUP1 ISZERO PUSH2 0x7E7 JUMPI PUSH1 0x0 DUP1 REVERT JUMPDEST POP PUSH2 0x48E PUSH2 0x1B89 JUMP JUMPDEST CALLVALUE DUP1 ISZERO PUSH2 0x7FC JUMPI PUSH1 0x0 DUP1 REVERT JUMPDEST POP PUSH2 0x48E PUSH2 0x1B98 JUMP JUMPDEST CALLVALUE DUP1 ISZERO PUSH2 0x811 JUMPI PUSH1 0x0 DUP1 REVERT JUMPDEST POP PUSH2 0x3FE PUSH2 0x820 CALLDATASIZE PUSH1 0x4 PUSH2 0x450E JUMP JUMPDEST PUSH2 0x1BA7 JUMP JUMPDEST CALLVALUE DUP1 ISZERO PUSH2 0x831 JUMPI PUSH1 0x0 DUP1 REVERT JUMPDEST POP PUSH2 0x39B PUSH2 0x1CEC JUMP JUMPDEST CALLVALUE DUP1 ISZERO PUSH2 0x846 JUMPI PUSH1 0x0 DUP1 REVERT JUMPDEST POP PUSH2 0x3D1 PUSH2 0x855 CALLDATASIZE PUSH1 0x4 PUSH2 0x4462 JUMP JUMPDEST PUSH2 0x1CFB JUMP JUMPDEST CALLVALUE DUP1 ISZERO PUSH2 0x866 JUMPI PUSH1 0x0 DUP1 REVERT JUMPDEST POP PUSH2 0x3D1 PUSH2 0x875 CALLDATASIZE PUSH1 0x4 PUSH2 0x4462 JUMP JUMPDEST PUSH2 0x1D63 JUMP JUMPDEST CALLVALUE DUP1 ISZERO PUSH2 0x886 JUMPI PUSH1 0x0 DUP1 REVERT JUMPDEST POP PUSH2 0x3FE PUSH2 0x895 CALLDATASIZE PUSH1 0x4 PUSH2 0x4462 JUMP JUMPDEST PUSH2 0x1D77 JUMP JUMPDEST CALLVALUE DUP1 ISZERO PUSH2 0x8A6 JUMPI PUSH1 0x0 DUP1 REVERT JUMPDEST POP PUSH2 0x48E PUSH2 0x1DE3 JUMP JUMPDEST CALLVALUE DUP1 ISZERO PUSH2 0x8BB JUMPI PUSH1 0x0 DUP1 REVERT JUMPDEST POP PUSH2 0x415 PUSH2 0x8CA CALLDATASIZE PUSH1 0x4 PUSH2 0x452F JUMP JUMPDEST PUSH2 0x1DF2 JUMP JUMPDEST CALLVALUE DUP1 ISZERO PUSH2 0x8DB JUMPI PUSH1 0x0 DUP1 REVERT JUMPDEST POP PUSH2 0x3FE PUSH2 0x8EA CALLDATASIZE PUSH1 0x4 PUSH2 0x448D JUMP JUMPDEST PUSH2 0x1E4A JUMP JUMPDEST CALLVALUE DUP1 ISZERO PUSH2 0x8FB JUMPI PUSH1 0x0 DUP1 REVERT JUMPDEST POP PUSH2 0x3FE PUSH2 0x90A CALLDATASIZE PUSH1 0x4 PUSH2 0x43B2 JUMP JUMPDEST PUSH2 0x1EDB JUMP JUMPDEST CALLVALUE DUP1 ISZERO PUSH2 0x91B JUMPI PUSH1 0x0 DUP1 REVERT JUMPDEST POP PUSH2 0x3FE PUSH2 0x92A CALLDATASIZE PUSH1 0x4 PUSH2 0x43B2 JUMP JUMPDEST PUSH2 0x1F77 JUMP JUMPDEST CALLVALUE DUP1 ISZERO PUSH2 0x93B JUMPI PUSH1 0x0 DUP1 REVERT JUMPDEST POP PUSH2 0x3FE PUSH2 0x94A CALLDATASIZE PUSH1 0x4 PUSH2 0x44A7 JUMP JUMPDEST PUSH2 0x1FD7 JUMP JUMPDEST CALLVALUE DUP1 ISZERO PUSH2 0x95B JUMPI PUSH1 0x0 DUP1 REVERT JUMPDEST POP PUSH2 0x3FE PUSH2 0x96A CALLDATASIZE PUSH1 0x4 PUSH2 0x450E JUMP JUMPDEST PUSH2 0x203D JUMP JUMPDEST CALLVALUE DUP1 ISZERO PUSH2 0x97B JUMPI PUSH1 0x0 DUP1 REVERT JUMPDEST POP PUSH2 0x415 PUSH2 0x98A CALLDATASIZE PUSH1 0x4 PUSH2 0x43EA JUMP JUMPDEST PUSH2 0x2182 JUMP JUMPDEST CALLVALUE DUP1 ISZERO PUSH2 0x99B JUMPI PUSH1 0x0 DUP1 REVERT JUMPDEST POP PUSH2 0x9A4 PUSH2 0x21AD JUMP JUMPDEST PUSH1 0x40 MLOAD PUSH2 0x3A8 SWAP8 SWAP7 SWAP6 SWAP5 SWAP4 SWAP3 SWAP2 SWAP1 PUSH2 0x4DC9 JUMP JUMPDEST CALLVALUE DUP1 ISZERO PUSH2 0x9C3 JUMPI PUSH1 0x0 DUP1 REVERT JUMPDEST POP PUSH2 0x3FE PUSH2 0x9D2 CALLDATASIZE PUSH1 0x4 PUSH2 0x43B2 JUMP JUMPDEST PUSH2 0x21D2 JUMP JUMPDEST CALLVALUE DUP1 ISZERO PUSH2 0x9E3 JUMPI PUSH1 0x0 DUP1 REVERT JUMPDEST POP PUSH2 0x3FE PUSH2 0x9F2 CALLDATASIZE PUSH1 0x4 PUSH2 0x450E JUMP JUMPDEST PUSH2 0x2232 JUMP JUMPDEST CALLVALUE DUP1 ISZERO PUSH2 0xA03 JUMPI PUSH1 0x0 DUP1 REVERT JUMPDEST POP PUSH2 0x3FE PUSH2 0xA12 CALLDATASIZE PUSH1 0x4 PUSH2 0x43B2 JUMP JUMPDEST PUSH2 0x2375 JUMP JUMPDEST CALLVALUE DUP1 ISZERO PUSH2 0xA23 JUMPI PUSH1 0x0 DUP1 REVERT JUMPDEST POP PUSH2 0x3FE PUSH2 0xA32 CALLDATASIZE PUSH1 0x4 PUSH2 0x43B2 JUMP JUMPDEST PUSH2 0x2436 JUMP JUMPDEST CALLVALUE DUP1 ISZERO PUSH2 0xA43 JUMPI PUSH1 0x0 DUP1 REVERT JUMPDEST POP PUSH2 0x3D1 PUSH2 0xA52 CALLDATASIZE PUSH1 0x4 PUSH2 0x43B2 JUMP JUMPDEST PUSH2 0x24A4 JUMP JUMPDEST PUSH1 0x60 PUSH1 0x71 DUP1 SLOAD PUSH2 0xA66 SWAP1 PUSH2 0x4E75 JUMP JUMPDEST DUP1 PUSH1 0x1F ADD PUSH1 0x20 DUP1 SWAP2 DIV MUL PUSH1 0x20 ADD PUSH1 0x40 MLOAD SWAP1 DUP2 ADD PUSH1 0x40 MSTORE DUP1 SWAP3 SWAP2 SWAP1 DUP2 DUP2 MSTORE PUSH1 0x20 ADD DUP3 DUP1 SLOAD PUSH2 0xA92 SWAP1 PUSH2 0x4E75 JUMP JUMPDEST DUP1 ISZERO PUSH2 0xADF JUMPI DUP1 PUSH1 0x1F LT PUSH2 0xAB4 JUMPI PUSH2 0x100 DUP1 DUP4 SLOAD DIV MUL DUP4 MSTORE SWAP2 PUSH1 0x20 ADD SWAP2 PUSH2 0xADF JUMP JUMPDEST DUP3 ADD SWAP2 SWAP1 PUSH1 0x0 MSTORE PUSH1 0x20 PUSH1 0x0 KECCAK256 SWAP1 JUMPDEST DUP2 SLOAD DUP2 MSTORE SWAP1 PUSH1 0x1 ADD SWAP1 PUSH1 0x20 ADD DUP1 DUP4 GT PUSH2 0xAC2 JUMPI DUP3 SWAP1 SUB PUSH1 0x1F AND DUP3 ADD SWAP2 JUMPDEST POP POP POP POP POP SWAP1 POP SWAP1 JUMP JUMPDEST PUSH1 0x0 PUSH2 0xAFD PUSH2 0xAF6 PUSH2 0x24C2 JUMP JUMPDEST DUP5 DUP5 PUSH2 0x24C6 JUMP JUMPDEST POP PUSH1 0x1 JUMPDEST SWAP3 SWAP2 POP POP JUMP JUMPDEST PUSH2 0xB0F PUSH2 0x24C2 JUMP JUMPDEST PUSH1 0x1 PUSH1 0x1 PUSH1 0xA0 SHL SUB AND PUSH2 0xB20 PUSH2 0x1B89 JUMP JUMPDEST PUSH1 0x1 PUSH1 0x1 PUSH1 0xA0 SHL SUB AND EQ PUSH2 0xB4F JUMPI PUSH1 0x40 MLOAD PUSH3 0x461BCD PUSH1 0xE5 SHL DUP2 MSTORE PUSH1 0x4 ADD PUSH2 0xB46 SWAP1 PUSH2 0x4A96 JUMP JUMPDEST PUSH1 0x40 MLOAD DUP1 SWAP2 SUB SWAP1 REVERT JUMPDEST PUSH1 0x1 PUSH1 0x1 PUSH1 0xA0 SHL SUB DUP2 AND PUSH2 0xB75 JUMPI PUSH1 0x40 MLOAD PUSH3 0x461BCD PUSH1 0xE5 SHL DUP2 MSTORE PUSH1 0x4 ADD PUSH2 0xB46 SWAP1 PUSH2 0x4ACB JUMP JUMPDEST PUSH1 0x1 PUSH1 0x1 PUSH1 0xA0 SHL SUB DUP2 AND PUSH1 0x0 SWAP1 DUP2 MSTORE PUSH1 0x6B PUSH1 0x20 MSTORE PUSH1 0x40 SWAP1 KECCAK256 SLOAD PUSH2 0xBAA JUMPI PUSH1 0x40 MLOAD PUSH3 0x461BCD PUSH1 0xE5 SHL DUP2 MSTORE PUSH1 0x4 ADD PUSH2 0xB46 SWAP1 PUSH2 0x4C15 JUMP JUMPDEST PUSH1 0x1 PUSH1 0x1 PUSH1 0xA0 SHL SUB AND PUSH1 0x0 SWAP1 DUP2 MSTORE PUSH1 0x6B PUSH1 0x20 MSTORE PUSH1 0x40 DUP2 KECCAK256 SSTORE JUMP JUMPDEST PUSH1 0x89 SLOAD SWAP1 JUMP JUMPDEST PUSH1 0x6F SLOAD SWAP1 JUMP JUMPDEST PUSH2 0xBD8 PUSH2 0x24C2 JUMP JUMPDEST PUSH1 0x1 PUSH1 0x1 PUSH1 0xA0 SHL SUB AND PUSH2 0xBE9 PUSH2 0x1B89 JUMP JUMPDEST PUSH1 0x1 PUSH1 0x1 PUSH1 0xA0 SHL SUB AND EQ PUSH2 0xC0F JUMPI PUSH1 0x40 MLOAD PUSH3 0x461BCD PUSH1 0xE5 SHL DUP2 MSTORE PUSH1 0x4 ADD PUSH2 0xB46 SWAP1 PUSH2 0x4A96 JUMP JUMPDEST PUSH1 0x8F DUP1 SLOAD PUSH1 0xFF PUSH1 0xA8 SHL NOT AND PUSH1 0x1 PUSH1 0xA8 SHL OR SWAP1 SSTORE JUMP JUMPDEST PUSH2 0xC2C PUSH2 0x4238 JUMP JUMPDEST PUSH1 0x89 SLOAD DUP3 SWAP1 DUP2 LT PUSH2 0xC4F JUMPI PUSH1 0x40 MLOAD PUSH3 0x461BCD PUSH1 0xE5 SHL DUP2 MSTORE PUSH1 0x4 ADD PUSH2 0xB46 SWAP1 PUSH2 0x49E7 JUMP JUMPDEST PUSH1 0x89 DUP4 DUP2 SLOAD DUP2 LT PUSH2 0xC70 JUMPI PUSH4 0x4E487B71 PUSH1 0xE0 SHL PUSH1 0x0 MSTORE PUSH1 0x32 PUSH1 0x4 MSTORE PUSH1 0x24 PUSH1 0x0 REVERT JUMPDEST PUSH1 0x0 SWAP2 DUP3 MSTORE PUSH1 0x20 SWAP2 DUP3 SWAP1 KECCAK256 PUSH1 0x40 DUP1 MLOAD PUSH1 0xE0 DUP2 ADD DUP3 MSTORE PUSH1 0x7 SWAP1 SWAP4 MUL SWAP1 SWAP2 ADD DUP1 SLOAD DUP4 MSTORE PUSH1 0x1 DUP2 ADD SLOAD SWAP4 DUP4 ADD SWAP4 SWAP1 SWAP4 MSTORE PUSH1 0x2 DUP4 ADD SLOAD SWAP1 DUP3 ADD MSTORE PUSH1 0x3 DUP3 ADD SLOAD PUSH1 0x60 DUP3 ADD MSTORE PUSH1 0x4 DUP3 ADD SLOAD PUSH1 0x80 DUP3 ADD MSTORE PUSH1 0x5 DUP3 ADD SLOAD PUSH1 0x1 PUSH1 0x1 PUSH1 0xA0 SHL SUB SWAP1 DUP2 AND PUSH1 0xA0 DUP4 ADD MSTORE PUSH1 0x6 SWAP1 SWAP3 ADD SLOAD SWAP1 SWAP2 AND PUSH1 0xC0 DUP3 ADD MSTORE SWAP2 POP JUMPDEST POP SWAP2 SWAP1 POP JUMP JUMPDEST PUSH1 0x8A SLOAD PUSH1 0x1 PUSH1 0x1 PUSH1 0xA0 SHL SUB AND DUP2 JUMP JUMPDEST PUSH1 0x6D SLOAD SWAP1 JUMP JUMPDEST PUSH2 0xD03 PUSH2 0x24C2 JUMP JUMPDEST PUSH1 0x1 PUSH1 0x1 PUSH1 0xA0 SHL SUB AND PUSH2 0xD14 PUSH2 0x1B89 JUMP JUMPDEST PUSH1 0x1 PUSH1 0x1 PUSH1 0xA0 SHL SUB AND EQ PUSH2 0xD3A JUMPI PUSH1 0x40 MLOAD PUSH3 0x461BCD PUSH1 0xE5 SHL DUP2 MSTORE PUSH1 0x4 ADD PUSH2 0xB46 SWAP1 PUSH2 0x4A96 JUMP JUMPDEST PUSH1 0x89 SLOAD DUP2 SWAP1 DUP2 LT PUSH2 0xD5D JUMPI PUSH1 0x40 MLOAD PUSH3 0x461BCD PUSH1 0xE5 SHL DUP2 MSTORE PUSH1 0x4 ADD PUSH2 0xB46 SWAP1 PUSH2 0x49E7 JUMP JUMPDEST DUP3 PUSH1 0x40 MLOAD DUP1 PUSH1 0x60 ADD PUSH1 0x40 MSTORE DUP1 PUSH1 0x2A DUP2 MSTORE PUSH1 0x20 ADD PUSH2 0x4FFE PUSH1 0x2A SWAP2 CODECOPY PUSH1 0x1 PUSH1 0x1 PUSH1 0xA0 SHL SUB DUP3 AND PUSH1 0x0 SWAP1 DUP2 MSTORE PUSH1 0x6A PUSH1 0x20 MSTORE PUSH1 0x40 SWAP1 KECCAK256 SLOAD DUP2 SWAP1 PUSH1 0xFF AND ISZERO PUSH2 0xDB3 JUMPI PUSH1 0x40 MLOAD PUSH3 0x461BCD PUSH1 0xE5 SHL DUP2 MSTORE PUSH1 0x4 ADD PUSH2 0xB46 SWAP2 SWAP1 PUSH2 0x466C JUMP JUMPDEST POP PUSH1 0x1 PUSH1 0x1 PUSH1 0xA0 SHL SUB DUP6 AND PUSH2 0xDDA JUMPI PUSH1 0x40 MLOAD PUSH3 0x461BCD PUSH1 0xE5 SHL DUP2 MSTORE PUSH1 0x4 ADD PUSH2 0xB46 SWAP1 PUSH2 0x4ACB JUMP JUMPDEST POP POP POP PUSH1 0x1 PUSH1 0x1 PUSH1 0xA0 SHL SUB SWAP1 SWAP2 AND PUSH1 0x0 SWAP1 DUP2 MSTORE PUSH1 0x6B PUSH1 0x20 MSTORE PUSH1 0x40 SWAP1 KECCAK256 SSTORE JUMP JUMPDEST PUSH1 0x0 PUSH2 0xE06 DUP5 DUP5 DUP5 PUSH2 0x262C JUMP JUMPDEST PUSH2 0xE76 DUP5 PUSH2 0xE12 PUSH2 0x24C2 JUMP JUMPDEST PUSH2 0xE71 DUP6 PUSH1 0x40 MLOAD DUP1 PUSH1 0x60 ADD PUSH1 0x40 MSTORE DUP1 PUSH1 0x28 DUP2 MSTORE PUSH1 0x20 ADD PUSH2 0x4F68 PUSH1 0x28 SWAP2 CODECOPY PUSH1 0x1 PUSH1 0x1 PUSH1 0xA0 SHL SUB DUP11 AND PUSH1 0x0 SWAP1 DUP2 MSTORE PUSH1 0x67 PUSH1 0x20 MSTORE PUSH1 0x40 DUP2 KECCAK256 SWAP1 PUSH2 0xE50 PUSH2 0x24C2 JUMP JUMPDEST PUSH1 0x1 PUSH1 0x1 PUSH1 0xA0 SHL SUB AND DUP2 MSTORE PUSH1 0x20 DUP2 ADD SWAP2 SWAP1 SWAP2 MSTORE PUSH1 0x40 ADD PUSH1 0x0 KECCAK256 SLOAD SWAP2 SWAP1 PUSH2 0x2972 JUMP JUMPDEST PUSH2 0x24C6 JUMP JUMPDEST POP PUSH1 0x1 JUMPDEST SWAP4 SWAP3 POP POP POP JUMP JUMPDEST PUSH1 0x0 PUSH1 0x6E SLOAD DUP3 GT ISZERO PUSH2 0xEA5 JUMPI PUSH1 0x40 MLOAD PUSH3 0x461BCD PUSH1 0xE5 SHL DUP2 MSTORE PUSH1 0x4 ADD PUSH2 0xB46 SWAP1 PUSH2 0x4748 JUMP JUMPDEST PUSH1 0x0 PUSH2 0xEAF PUSH2 0x29A9 JUMP JUMPDEST SWAP1 POP PUSH2 0xEBB DUP4 DUP3 PUSH2 0x29CC JUMP JUMPDEST SWAP2 POP POP JUMPDEST SWAP2 SWAP1 POP JUMP JUMPDEST PUSH2 0xECC PUSH2 0x4238 JUMP JUMPDEST PUSH1 0x1 PUSH1 0x1 PUSH1 0xA0 SHL SUB DUP3 AND PUSH1 0x0 SWAP1 DUP2 MSTORE PUSH1 0x6B PUSH1 0x20 MSTORE PUSH1 0x40 SWAP1 KECCAK256 SLOAD PUSH1 0x89 DUP1 SLOAD SWAP1 SWAP2 SWAP1 DUP2 LT PUSH2 0xF08 JUMPI PUSH4 0x4E487B71 PUSH1 0xE0 SHL PUSH1 0x0 MSTORE PUSH1 0x32 PUSH1 0x4 MSTORE PUSH1 0x24 PUSH1 0x0 REVERT JUMPDEST PUSH1 0x0 SWAP2 DUP3 MSTORE PUSH1 0x20 SWAP2 DUP3 SWAP1 KECCAK256 PUSH1 0x40 DUP1 MLOAD PUSH1 0xE0 DUP2 ADD DUP3 MSTORE PUSH1 0x7 SWAP1 SWAP4 MUL SWAP1 SWAP2 ADD DUP1 SLOAD DUP4 MSTORE PUSH1 0x1 DUP2 ADD SLOAD SWAP4 DUP4 ADD SWAP4 SWAP1 SWAP4 MSTORE PUSH1 0x2 DUP4 ADD SLOAD SWAP1 DUP3 ADD MSTORE PUSH1 0x3 DUP3 ADD SLOAD PUSH1 0x60 DUP3 ADD MSTORE PUSH1 0x4 DUP3 ADD SLOAD PUSH1 0x80 DUP3 ADD MSTORE PUSH1 0x5 DUP3 ADD SLOAD PUSH1 0x1 PUSH1 0x1 PUSH1 0xA0 SHL SUB SWAP1 DUP2 AND PUSH1 0xA0 DUP4 ADD MSTORE PUSH1 0x6 SWAP1 SWAP3 ADD SLOAD SWAP1 SWAP2 AND PUSH1 0xC0 DUP3 ADD MSTORE SWAP1 POP SWAP2 SWAP1 POP JUMP JUMPDEST PUSH2 0xF84 PUSH2 0x24C2 JUMP JUMPDEST PUSH1 0x1 PUSH1 0x1 PUSH1 0xA0 SHL SUB AND PUSH2 0xF95 PUSH2 0x1B89 JUMP JUMPDEST PUSH1 0x1 PUSH1 0x1 PUSH1 0xA0 SHL SUB AND EQ PUSH2 0xFBB JUMPI PUSH1 0x40 MLOAD PUSH3 0x461BCD PUSH1 0xE5 SHL DUP2 MSTORE PUSH1 0x4 ADD PUSH2 0xB46 SWAP1 PUSH2 0x4A96 JUMP JUMPDEST PUSH1 0x89 SLOAD DUP3 SWAP1 DUP2 LT PUSH2 0xFDE JUMPI PUSH1 0x40 MLOAD PUSH3 0x461BCD PUSH1 0xE5 SHL DUP2 MSTORE PUSH1 0x4 ADD PUSH2 0xB46 SWAP1 PUSH2 0x49E7 JUMP JUMPDEST PUSH1 0x0 PUSH1 0x89 DUP5 DUP2 SLOAD DUP2 LT PUSH2 0x1001 JUMPI PUSH4 0x4E487B71 PUSH1 0xE0 SHL PUSH1 0x0 MSTORE PUSH1 0x32 PUSH1 0x4 MSTORE PUSH1 0x24 PUSH1 0x0 REVERT JUMPDEST PUSH1 0x0 SWAP2 DUP3 MSTORE PUSH1 0x20 SWAP2 DUP3 SWAP1 KECCAK256 PUSH1 0x40 DUP1 MLOAD PUSH1 0xE0 DUP2 ADD DUP3 MSTORE PUSH1 0x7 SWAP1 SWAP4 MUL SWAP1 SWAP2 ADD DUP1 SLOAD DUP4 MSTORE PUSH1 0x1 DUP2 ADD SLOAD SWAP4 DUP4 ADD SWAP4 SWAP1 SWAP4 MSTORE PUSH1 0x2 DUP4 ADD SLOAD SWAP1 DUP3 ADD DUP2 SWAP1 MSTORE PUSH1 0x3 DUP4 ADD SLOAD PUSH1 0x60 DUP4 ADD MSTORE PUSH1 0x4 DUP4 ADD SLOAD PUSH1 0x80 DUP4 ADD MSTORE PUSH1 0x5 DUP4 ADD SLOAD PUSH1 0x1 PUSH1 0x1 PUSH1 0xA0 SHL SUB SWAP1 DUP2 AND PUSH1 0xA0 DUP5 ADD MSTORE PUSH1 0x6 SWAP1 SWAP4 ADD SLOAD SWAP1 SWAP3 AND PUSH1 0xC0 DUP3 ADD MSTORE SWAP2 POP PUSH2 0x107E SWAP1 DUP3 SWAP1 DUP6 PUSH2 0x29F7 JUMP JUMPDEST DUP3 PUSH1 0x89 DUP6 DUP2 SLOAD DUP2 LT PUSH2 0x10A0 JUMPI PUSH4 0x4E487B71 PUSH1 0xE0 SHL PUSH1 0x0 MSTORE PUSH1 0x32 PUSH1 0x4 MSTORE PUSH1 0x24 PUSH1 0x0 REVERT JUMPDEST PUSH1 0x0 SWAP2 DUP3 MSTORE PUSH1 0x20 SWAP1 SWAP2 KECCAK256 PUSH1 0x2 PUSH1 0x7 SWAP1 SWAP3 MUL ADD ADD SSTORE DUP4 PUSH2 0x10BF JUMPI PUSH1 0x76 DUP4 SWAP1 SSTORE JUMPDEST POP POP POP POP JUMP JUMPDEST PUSH1 0x73 SLOAD PUSH1 0xFF AND SWAP1 JUMP JUMPDEST PUSH2 0x10D6 PUSH2 0x24C2 JUMP JUMPDEST PUSH1 0x1 PUSH1 0x1 PUSH1 0xA0 SHL SUB AND PUSH2 0x10E7 PUSH2 0x1B89 JUMP JUMPDEST PUSH1 0x1 PUSH1 0x1 PUSH1 0xA0 SHL SUB AND EQ PUSH2 0x110D JUMPI PUSH1 0x40 MLOAD PUSH3 0x461BCD PUSH1 0xE5 SHL DUP2 MSTORE PUSH1 0x4 ADD PUSH2 0xB46 SWAP1 PUSH2 0x4A96 JUMP JUMPDEST PUSH1 0x1 PUSH1 0x1 PUSH1 0xA0 SHL SUB DUP2 AND PUSH1 0x0 SWAP1 DUP2 MSTORE PUSH1 0x69 PUSH1 0x20 MSTORE PUSH1 0x40 SWAP1 KECCAK256 SLOAD PUSH1 0xFF AND PUSH2 0x1145 JUMPI PUSH1 0x40 MLOAD PUSH3 0x461BCD PUSH1 0xE5 SHL DUP2 MSTORE PUSH1 0x4 ADD PUSH2 0xB46 SWAP1 PUSH2 0x487D JUMP JUMPDEST PUSH1 0x0 JUMPDEST PUSH1 0x6C SLOAD DUP2 LT ISZERO PUSH2 0x129F JUMPI DUP2 PUSH1 0x1 PUSH1 0x1 PUSH1 0xA0 SHL SUB AND PUSH1 0x6C DUP3 DUP2 SLOAD DUP2 LT PUSH2 0x117D JUMPI PUSH4 0x4E487B71 PUSH1 0xE0 SHL PUSH1 0x0 MSTORE PUSH1 0x32 PUSH1 0x4 MSTORE PUSH1 0x24 PUSH1 0x0 REVERT JUMPDEST PUSH1 0x0 SWAP2 DUP3 MSTORE PUSH1 0x20 SWAP1 SWAP2 KECCAK256 ADD SLOAD PUSH1 0x1 PUSH1 0x1 PUSH1 0xA0 SHL SUB AND EQ ISZERO PUSH2 0x128D JUMPI PUSH1 0x6C DUP1 SLOAD PUSH2 0x11A8 SWAP1 PUSH1 0x1 SWAP1 PUSH2 0x4E5E JUMP JUMPDEST DUP2 SLOAD DUP2 LT PUSH2 0x11C6 JUMPI PUSH4 0x4E487B71 PUSH1 0xE0 SHL PUSH1 0x0 MSTORE PUSH1 0x32 PUSH1 0x4 MSTORE PUSH1 0x24 PUSH1 0x0 REVERT JUMPDEST PUSH1 0x0 SWAP2 DUP3 MSTORE PUSH1 0x20 SWAP1 SWAP2 KECCAK256 ADD SLOAD PUSH1 0x6C DUP1 SLOAD PUSH1 0x1 PUSH1 0x1 PUSH1 0xA0 SHL SUB SWAP1 SWAP3 AND SWAP2 DUP4 SWAP1 DUP2 LT PUSH2 0x1200 JUMPI PUSH4 0x4E487B71 PUSH1 0xE0 SHL PUSH1 0x0 MSTORE PUSH1 0x32 PUSH1 0x4 MSTORE PUSH1 0x24 PUSH1 0x0 REVERT JUMPDEST PUSH1 0x0 SWAP2 DUP3 MSTORE PUSH1 0x20 DUP1 DUP4 KECCAK256 SWAP2 SWAP1 SWAP2 ADD DUP1 SLOAD PUSH1 0x1 PUSH1 0x1 PUSH1 0xA0 SHL SUB NOT AND PUSH1 0x1 PUSH1 0x1 PUSH1 0xA0 SHL SUB SWAP5 DUP6 AND OR SWAP1 SSTORE SWAP2 DUP5 AND DUP2 MSTORE PUSH1 0x66 DUP3 MSTORE PUSH1 0x40 DUP1 DUP3 KECCAK256 DUP3 SWAP1 SSTORE PUSH1 0x69 SWAP1 SWAP3 MSTORE KECCAK256 DUP1 SLOAD PUSH1 0xFF NOT AND SWAP1 SSTORE PUSH1 0x6C DUP1 SLOAD DUP1 PUSH2 0x1266 JUMPI PUSH4 0x4E487B71 PUSH1 0xE0 SHL PUSH1 0x0 MSTORE PUSH1 0x31 PUSH1 0x4 MSTORE PUSH1 0x24 PUSH1 0x0 REVERT JUMPDEST PUSH1 0x0 DUP3 DUP2 MSTORE PUSH1 0x20 SWAP1 KECCAK256 DUP2 ADD PUSH1 0x0 NOT SWAP1 DUP2 ADD DUP1 SLOAD PUSH1 0x1 PUSH1 0x1 PUSH1 0xA0 SHL SUB NOT AND SWAP1 SSTORE ADD SWAP1 SSTORE PUSH2 0x129F JUMP JUMPDEST DUP1 PUSH2 0x1297 DUP2 PUSH2 0x4EAA JUMP JUMPDEST SWAP2 POP POP PUSH2 0x1148 JUMP JUMPDEST POP POP JUMP JUMPDEST PUSH1 0x0 PUSH2 0xAFD PUSH2 0x12B0 PUSH2 0x24C2 JUMP JUMPDEST DUP5 PUSH2 0xE71 DUP6 PUSH1 0x67 PUSH1 0x0 PUSH2 0x12C1 PUSH2 0x24C2 JUMP JUMPDEST PUSH1 0x1 PUSH1 0x1 PUSH1 0xA0 SHL SUB SWAP1 DUP2 AND DUP3 MSTORE PUSH1 0x20 DUP1 DUP4 ADD SWAP4 SWAP1 SWAP4 MSTORE PUSH1 0x40 SWAP2 DUP3 ADD PUSH1 0x0 SWAP1 DUP2 KECCAK256 SWAP2 DUP13 AND DUP2 MSTORE SWAP3 MSTORE SWAP1 KECCAK256 SLOAD SWAP1 PUSH2 0x2A64 JUMP JUMPDEST PUSH2 0x12F9 PUSH2 0x24C2 JUMP JUMPDEST PUSH1 0x1 PUSH1 0x1 PUSH1 0xA0 SHL SUB AND PUSH2 0x130A PUSH2 0x1B89 JUMP JUMPDEST PUSH1 0x1 PUSH1 0x1 PUSH1 0xA0 SHL SUB AND EQ PUSH2 0x1330 JUMPI PUSH1 0x40 MLOAD PUSH3 0x461BCD PUSH1 0xE5 SHL DUP2 MSTORE PUSH1 0x4 ADD PUSH2 0xB46 SWAP1 PUSH2 0x4A96 JUMP JUMPDEST PUSH1 0x89 SLOAD DUP3 SWAP1 DUP2 LT PUSH2 0x1353 JUMPI PUSH1 0x40 MLOAD PUSH3 0x461BCD PUSH1 0xE5 SHL DUP2 MSTORE PUSH1 0x4 ADD PUSH2 0xB46 SWAP1 PUSH2 0x49E7 JUMP JUMPDEST PUSH1 0x0 PUSH1 0x89 DUP5 DUP2 SLOAD DUP2 LT PUSH2 0x1376 JUMPI PUSH4 0x4E487B71 PUSH1 0xE0 SHL PUSH1 0x0 MSTORE PUSH1 0x32 PUSH1 0x4 MSTORE PUSH1 0x24 PUSH1 0x0 REVERT JUMPDEST PUSH1 0x0 SWAP2 DUP3 MSTORE PUSH1 0x20 SWAP2 DUP3 SWAP1 KECCAK256 PUSH1 0x40 DUP1 MLOAD PUSH1 0xE0 DUP2 ADD DUP3 MSTORE PUSH1 0x7 SWAP1 SWAP4 MUL SWAP1 SWAP2 ADD DUP1 SLOAD DUP1 DUP5 MSTORE PUSH1 0x1 DUP3 ADD SLOAD SWAP5 DUP5 ADD SWAP5 SWAP1 SWAP5 MSTORE PUSH1 0x2 DUP2 ADD SLOAD SWAP2 DUP4 ADD SWAP2 SWAP1 SWAP2 MSTORE PUSH1 0x3 DUP2 ADD SLOAD PUSH1 0x60 DUP4 ADD MSTORE PUSH1 0x4 DUP2 ADD SLOAD PUSH1 0x80 DUP4 ADD MSTORE PUSH1 0x5 DUP2 ADD SLOAD PUSH1 0x1 PUSH1 0x1 PUSH1 0xA0 SHL SUB SWAP1 DUP2 AND PUSH1 0xA0 DUP5 ADD MSTORE PUSH1 0x6 SWAP1 SWAP2 ADD SLOAD AND PUSH1 0xC0 DUP3 ADD MSTORE SWAP2 POP PUSH2 0x13F3 SWAP1 DUP3 SWAP1 DUP6 PUSH2 0x29F7 JUMP JUMPDEST DUP3 PUSH1 0x89 DUP6 DUP2 SLOAD DUP2 LT PUSH2 0x1415 JUMPI PUSH4 0x4E487B71 PUSH1 0xE0 SHL PUSH1 0x0 MSTORE PUSH1 0x32 PUSH1 0x4 MSTORE PUSH1 0x24 PUSH1 0x0 REVERT JUMPDEST PUSH1 0x0 SWAP2 DUP3 MSTORE PUSH1 0x20 SWAP1 SWAP2 KECCAK256 PUSH1 0x7 SWAP1 SWAP2 MUL ADD SSTORE DUP4 PUSH2 0x10BF JUMPI POP POP PUSH1 0x74 SSTORE POP JUMP JUMPDEST PUSH1 0x1 PUSH1 0x1 PUSH1 0xA0 SHL SUB AND PUSH1 0x0 SWAP1 DUP2 MSTORE PUSH1 0x6B PUSH1 0x20 MSTORE PUSH1 0x40 SWAP1 KECCAK256 SLOAD ISZERO ISZERO SWAP1 JUMP JUMPDEST PUSH2 0x1458 PUSH2 0x24C2 JUMP JUMPDEST PUSH1 0x1 PUSH1 0x1 PUSH1 0xA0 SHL SUB AND PUSH2 0x1469 PUSH2 0x1B89 JUMP JUMPDEST PUSH1 0x1 PUSH1 0x1 PUSH1 0xA0 SHL SUB AND EQ PUSH2 0x148F JUMPI PUSH1 0x40 MLOAD PUSH3 0x461BCD PUSH1 0xE5 SHL DUP2 MSTORE PUSH1 0x4 ADD PUSH2 0xB46 SWAP1 PUSH2 0x4A96 JUMP JUMPDEST PUSH1 0x8A DUP1 SLOAD PUSH1 0x1 PUSH1 0x1 PUSH1 0xA0 SHL SUB DUP1 DUP6 AND PUSH1 0x1 PUSH1 0x1 PUSH1 0xA0 SHL SUB NOT SWAP3 DUP4 AND OR SWAP3 DUP4 SWAP1 SSTORE PUSH1 0x8B DUP1 SLOAD DUP6 DUP4 AND SWAP4 AND SWAP3 SWAP1 SWAP3 OR SWAP1 SWAP2 SSTORE PUSH1 0x40 DUP1 MLOAD PUSH4 0x15AB88C9 PUSH1 0xE3 SHL DUP2 MSTORE SWAP1 MLOAD SWAP3 SWAP1 SWAP2 AND SWAP2 PUSH4 0xAD5C4648 SWAP2 PUSH1 0x4 DUP1 DUP3 ADD SWAP3 PUSH1 0x20 SWAP3 SWAP1 SWAP2 SWAP1 DUP3 SWAP1 SUB ADD DUP2 DUP7 DUP1 EXTCODESIZE ISZERO DUP1 ISZERO PUSH2 0x14FA JUMPI PUSH1 0x0 DUP1 REVERT JUMPDEST POP GAS STATICCALL ISZERO DUP1 ISZERO PUSH2 0x150E JUMPI RETURNDATASIZE PUSH1 0x0 DUP1 RETURNDATACOPY RETURNDATASIZE PUSH1 0x0 REVERT JUMPDEST POP POP POP POP PUSH1 0x40 MLOAD RETURNDATASIZE PUSH1 0x1F NOT PUSH1 0x1F DUP3 ADD AND DUP3 ADD DUP1 PUSH1 0x40 MSTORE POP DUP2 ADD SWAP1 PUSH2 0x1532 SWAP2 SWAP1 PUSH2 0x43CE JUMP JUMPDEST PUSH1 0x8C DUP1 SLOAD PUSH1 0x1 PUSH1 0x1 PUSH1 0xA0 SHL SUB NOT AND PUSH1 0x1 PUSH1 0x1 PUSH1 0xA0 SHL SUB SWAP3 SWAP1 SWAP3 AND SWAP2 SWAP1 SWAP2 OR SWAP1 SSTORE POP POP JUMP JUMPDEST PUSH2 0x155E PUSH2 0x24C2 JUMP JUMPDEST PUSH1 0x1 PUSH1 0x1 PUSH1 0xA0 SHL SUB AND PUSH2 0x156F PUSH2 0x1B89 JUMP JUMPDEST PUSH1 0x1 PUSH1 0x1 PUSH1 0xA0 SHL SUB AND EQ PUSH2 0x1595 JUMPI PUSH1 0x40 MLOAD PUSH3 0x461BCD PUSH1 0xE5 SHL DUP2 MSTORE PUSH1 0x4 ADD PUSH2 0xB46 SWAP1 PUSH2 0x4A96 JUMP JUMPDEST PUSH1 0x1 PUSH1 0x1 PUSH1 0xA0 SHL SUB AND PUSH1 0x0 SWAP1 DUP2 MSTORE PUSH1 0x68 PUSH1 0x20 MSTORE PUSH1 0x40 SWAP1 KECCAK256 DUP1 SLOAD PUSH1 0xFF NOT AND PUSH1 0x1 OR SWAP1 SSTORE JUMP JUMPDEST PUSH1 0x0 PUSH2 0xE7A DUP4 PUSH1 0x0 DUP5 PUSH2 0x1DF2 JUMP JUMPDEST PUSH2 0x15CF PUSH2 0x24C2 JUMP JUMPDEST PUSH1 0x1 PUSH1 0x1 PUSH1 0xA0 SHL SUB AND PUSH2 0x15E0 PUSH2 0x1B89 JUMP JUMPDEST PUSH1 0x1 PUSH1 0x1 PUSH1 0xA0 SHL SUB AND EQ PUSH2 0x1606 JUMPI PUSH1 0x40 MLOAD PUSH3 0x461BCD PUSH1 0xE5 SHL DUP2 MSTORE PUSH1 0x4 ADD PUSH2 0xB46 SWAP1 PUSH2 0x4A96 JUMP JUMPDEST PUSH1 0x8D DUP1 SLOAD PUSH1 0x1 PUSH1 0x1 PUSH1 0xA0 SHL SUB NOT AND PUSH1 0x1 PUSH1 0x1 PUSH1 0xA0 SHL SUB SWAP3 SWAP1 SWAP3 AND SWAP2 SWAP1 SWAP2 OR SWAP1 SSTORE JUMP JUMPDEST PUSH1 0x8B SLOAD PUSH1 0x1 PUSH1 0x1 PUSH1 0xA0 SHL SUB AND DUP2 JUMP JUMPDEST PUSH1 0x8F SLOAD PUSH1 0x1 PUSH1 0xA8 SHL SWAP1 DIV PUSH1 0xFF AND DUP2 JUMP JUMPDEST PUSH2 0x164F PUSH2 0x24C2 JUMP JUMPDEST PUSH1 0x1 PUSH1 0x1 PUSH1 0xA0 SHL SUB AND PUSH2 0x1660 PUSH2 0x1B89 JUMP JUMPDEST PUSH1 0x1 PUSH1 0x1 PUSH1 0xA0 SHL SUB AND EQ PUSH2 0x1686 JUMPI PUSH1 0x40 MLOAD PUSH3 0x461BCD PUSH1 0xE5 SHL DUP2 MSTORE PUSH1 0x4 ADD PUSH2 0xB46 SWAP1 PUSH2 0x4A96 JUMP JUMPDEST PUSH2 0x1695 DUP8 DUP8 DUP8 DUP8 DUP8 DUP8 DUP8 PUSH2 0x2A93 JUMP JUMPDEST POP POP POP POP POP POP POP POP JUMP JUMPDEST PUSH2 0x16A7 PUSH2 0x24C2 JUMP JUMPDEST PUSH1 0x1 PUSH1 0x1 PUSH1 0xA0 SHL SUB AND PUSH2 0x16B8 PUSH2 0x1B89 JUMP JUMPDEST PUSH1 0x1 PUSH1 0x1 PUSH1 0xA0 SHL SUB AND EQ PUSH2 0x16DE JUMPI PUSH1 0x40 MLOAD PUSH3 0x461BCD PUSH1 0xE5 SHL DUP2 MSTORE PUSH1 0x4 ADD PUSH2 0xB46 SWAP1 PUSH2 0x4A96 JUMP JUMPDEST PUSH1 0x1 PUSH1 0x1 PUSH1 0xA0 SHL SUB DUP2 AND PUSH1 0x0 SWAP1 DUP2 MSTORE PUSH1 0x69 PUSH1 0x20 MSTORE PUSH1 0x40 SWAP1 KECCAK256 SLOAD PUSH1 0xFF AND ISZERO PUSH2 0x1717 JUMPI PUSH1 0x40 MLOAD PUSH3 0x461BCD PUSH1 0xE5 SHL DUP2 MSTORE PUSH1 0x4 ADD PUSH2 0xB46 SWAP1 PUSH2 0x480F JUMP JUMPDEST PUSH1 0x1 PUSH1 0x1 PUSH1 0xA0 SHL SUB DUP2 AND PUSH1 0x0 SWAP1 DUP2 MSTORE PUSH1 0x65 PUSH1 0x20 MSTORE PUSH1 0x40 SWAP1 KECCAK256 SLOAD ISZERO PUSH2 0x1771 JUMPI PUSH1 0x1 PUSH1 0x1 PUSH1 0xA0 SHL SUB DUP2 AND PUSH1 0x0 SWAP1 DUP2 MSTORE PUSH1 0x65 PUSH1 0x20 MSTORE PUSH1 0x40 SWAP1 KECCAK256 SLOAD PUSH2 0x1757 SWAP1 PUSH2 0xE81 JUMP JUMPDEST PUSH1 0x1 PUSH1 0x1 PUSH1 0xA0 SHL SUB DUP3 AND PUSH1 0x0 SWAP1 DUP2 MSTORE PUSH1 0x66 PUSH1 0x20 MSTORE PUSH1 0x40 SWAP1 KECCAK256 SSTORE JUMPDEST PUSH1 0x1 PUSH1 0x1 PUSH1 0xA0 SHL SUB AND PUSH1 0x0 DUP2 DUP2 MSTORE PUSH1 0x69 PUSH1 0x20 MSTORE PUSH1 0x40 DUP2 KECCAK256 DUP1 SLOAD PUSH1 0xFF NOT AND PUSH1 0x1 SWAP1 DUP2 OR SWAP1 SWAP2 SSTORE PUSH1 0x6C DUP1 SLOAD SWAP2 DUP3 ADD DUP2 SSTORE SWAP1 SWAP2 MSTORE PUSH32 0x2B4A51AB505FC96A0952EFDA2BA61BCD3078D4C02C39A186EC16F21883FBE016 ADD DUP1 SLOAD PUSH1 0x1 PUSH1 0x1 PUSH1 0xA0 SHL SUB NOT AND SWAP1 SWAP2 OR SWAP1 SSTORE JUMP JUMPDEST PUSH1 0x1 PUSH1 0x1 PUSH1 0xA0 SHL SUB AND PUSH1 0x0 SWAP1 DUP2 MSTORE PUSH1 0x68 PUSH1 0x20 MSTORE PUSH1 0x40 SWAP1 KECCAK256 SLOAD PUSH1 0xFF AND SWAP1 JUMP JUMPDEST PUSH1 0x8D SLOAD PUSH1 0x1 PUSH1 0x1 PUSH1 0xA0 SHL SUB AND ISZERO ISZERO SWAP1 JUMP JUMPDEST PUSH2 0x180E PUSH2 0x24C2 JUMP JUMPDEST PUSH1 0x1 PUSH1 0x1 PUSH1 0xA0 SHL SUB AND PUSH2 0x181F PUSH2 0x1B89 JUMP JUMPDEST PUSH1 0x1 PUSH1 0x1 PUSH1 0xA0 SHL SUB AND EQ PUSH2 0x1845 JUMPI PUSH1 0x40 MLOAD PUSH3 0x461BCD PUSH1 0xE5 SHL DUP2 MSTORE PUSH1 0x4 ADD PUSH2 0xB46 SWAP1 PUSH2 0x4A96 JUMP JUMPDEST PUSH1 0x8F DUP1 SLOAD PUSH1 0x1 PUSH1 0x1 PUSH1 0xA0 SHL SUB NOT AND PUSH1 0x1 PUSH1 0x1 PUSH1 0xA0 SHL SUB SWAP3 SWAP1 SWAP3 AND SWAP2 SWAP1 SWAP2 OR SWAP1 SSTORE JUMP JUMPDEST PUSH1 0x1 PUSH1 0x1 PUSH1 0xA0 SHL SUB DUP2 AND PUSH1 0x0 SWAP1 DUP2 MSTORE PUSH1 0x69 PUSH1 0x20 MSTORE PUSH1 0x40 DUP2 KECCAK256 SLOAD PUSH1 0xFF AND ISZERO PUSH2 0x18A7 JUMPI POP PUSH1 0x1 PUSH1 0x1 PUSH1 0xA0 SHL SUB DUP2 AND PUSH1 0x0 SWAP1 DUP2 MSTORE PUSH1 0x66 PUSH1 0x20 MSTORE PUSH1 0x40 SWAP1 KECCAK256 SLOAD PUSH2 0xEBF JUMP JUMPDEST PUSH1 0x1 PUSH1 0x1 PUSH1 0xA0 SHL SUB DUP3 AND PUSH1 0x0 SWAP1 DUP2 MSTORE PUSH1 0x65 PUSH1 0x20 MSTORE PUSH1 0x40 SWAP1 KECCAK256 SLOAD PUSH2 0xB01 SWAP1 PUSH2 0xE81 JUMP JUMPDEST PUSH2 0x18D1 PUSH2 0x24C2 JUMP JUMPDEST PUSH1 0x1 PUSH1 0x1 PUSH1 0xA0 SHL SUB AND PUSH2 0x18E2 PUSH2 0x1B89 JUMP JUMPDEST PUSH1 0x1 PUSH1 0x1 PUSH1 0xA0 SHL SUB AND EQ PUSH2 0x1908 JUMPI PUSH1 0x40 MLOAD PUSH3 0x461BCD PUSH1 0xE5 SHL DUP2 MSTORE PUSH1 0x4 ADD PUSH2 0xB46 SWAP1 PUSH2 0x4A96 JUMP JUMPDEST PUSH1 0x33 SLOAD PUSH1 0x40 MLOAD PUSH1 0x0 SWAP2 PUSH1 0x1 PUSH1 0x1 PUSH1 0xA0 SHL SUB AND SWAP1 PUSH32 0x8BE0079C531659141344CD1FD0A4F28419497F9722A3DAAFE3B4186F6B6457E0 SWAP1 DUP4 SWAP1 LOG3 PUSH1 0x33 DUP1 SLOAD PUSH1 0x1 PUSH1 0x1 PUSH1 0xA0 SHL SUB NOT AND SWAP1 SSTORE JUMP JUMPDEST PUSH1 0x90 SLOAD DUP2 JUMP JUMPDEST PUSH2 0x1960 PUSH2 0x24C2 JUMP JUMPDEST PUSH1 0x1 PUSH1 0x1 PUSH1 0xA0 SHL SUB AND PUSH2 0x1971 PUSH2 0x1B89 JUMP JUMPDEST PUSH1 0x1 PUSH1 0x1 PUSH1 0xA0 SHL SUB AND EQ PUSH2 0x1997 JUMPI PUSH1 0x40 MLOAD PUSH3 0x461BCD PUSH1 0xE5 SHL DUP2 MSTORE PUSH1 0x4 ADD PUSH2 0xB46 SWAP1 PUSH2 0x4A96 JUMP JUMPDEST PUSH1 0x89 SLOAD DUP3 SWAP1 DUP2 LT PUSH2 0x19BA JUMPI PUSH1 0x40 MLOAD PUSH3 0x461BCD PUSH1 0xE5 SHL DUP2 MSTORE PUSH1 0x4 ADD PUSH2 0xB46 SWAP1 PUSH2 0x49E7 JUMP JUMPDEST PUSH1 0x1 PUSH1 0x1 PUSH1 0xA0 SHL SUB DUP3 AND PUSH2 0x19E0 JUMPI PUSH1 0x40 MLOAD PUSH3 0x461BCD PUSH1 0xE5 SHL DUP2 MSTORE PUSH1 0x4 ADD PUSH2 0xB46 SWAP1 PUSH2 0x4B8D JUMP JUMPDEST DUP2 PUSH1 0x89 DUP5 DUP2 SLOAD DUP2 LT PUSH2 0x1A02 JUMPI PUSH4 0x4E487B71 PUSH1 0xE0 SHL PUSH1 0x0 MSTORE PUSH1 0x32 PUSH1 0x4 MSTORE PUSH1 0x24 PUSH1 0x0 REVERT JUMPDEST SWAP1 PUSH1 0x0 MSTORE PUSH1 0x20 PUSH1 0x0 KECCAK256 SWAP1 PUSH1 0x7 MUL ADD PUSH1 0x5 ADD PUSH1 0x0 PUSH2 0x100 EXP DUP2 SLOAD DUP2 PUSH1 0x1 PUSH1 0x1 PUSH1 0xA0 SHL SUB MUL NOT AND SWAP1 DUP4 PUSH1 0x1 PUSH1 0x1 PUSH1 0xA0 SHL SUB AND MUL OR SWAP1 SSTORE POP DUP3 PUSH1 0x0 EQ ISZERO PUSH2 0x1A5C JUMPI PUSH1 0x79 DUP1 SLOAD PUSH1 0x1 PUSH1 0x1 PUSH1 0xA0 SHL SUB NOT AND PUSH1 0x1 PUSH1 0x1 PUSH1 0xA0 SHL SUB DUP5 AND OR SWAP1 SSTORE JUMPDEST POP POP POP JUMP JUMPDEST PUSH1 0x1 PUSH1 0x1 PUSH1 0xA0 SHL SUB AND PUSH1 0x0 SWAP1 DUP2 MSTORE PUSH1 0x69 PUSH1 0x20 MSTORE PUSH1 0x40 SWAP1 KECCAK256 SLOAD PUSH1 0xFF AND SWAP1 JUMP JUMPDEST PUSH2 0x1A87 PUSH2 0x24C2 JUMP JUMPDEST PUSH1 0x1 PUSH1 0x1 PUSH1 0xA0 SHL SUB AND PUSH2 0x1A98 PUSH2 0x1B89 JUMP JUMPDEST PUSH1 0x1 PUSH1 0x1 PUSH1 0xA0 SHL SUB AND EQ PUSH2 0x1ABE JUMPI PUSH1 0x40 MLOAD PUSH3 0x461BCD PUSH1 0xE5 SHL DUP2 MSTORE PUSH1 0x4 ADD PUSH2 0xB46 SWAP1 PUSH2 0x4A96 JUMP JUMPDEST PUSH1 0x89 SLOAD DUP3 SWAP1 DUP2 LT PUSH2 0x1AE1 JUMPI PUSH1 0x40 MLOAD PUSH3 0x461BCD PUSH1 0xE5 SHL DUP2 MSTORE PUSH1 0x4 ADD PUSH2 0xB46 SWAP1 PUSH2 0x49E7 JUMP JUMPDEST PUSH1 0x1 PUSH1 0x1 PUSH1 0xA0 SHL SUB DUP3 AND PUSH2 0x1B07 JUMPI PUSH1 0x40 MLOAD PUSH3 0x461BCD PUSH1 0xE5 SHL DUP2 MSTORE PUSH1 0x4 ADD PUSH2 0xB46 SWAP1 PUSH2 0x4B8D JUMP JUMPDEST DUP2 PUSH1 0x89 DUP5 DUP2 SLOAD DUP2 LT PUSH2 0x1B29 JUMPI PUSH4 0x4E487B71 PUSH1 0xE0 SHL PUSH1 0x0 MSTORE PUSH1 0x32 PUSH1 0x4 MSTORE PUSH1 0x24 PUSH1 0x0 REVERT JUMPDEST SWAP1 PUSH1 0x0 MSTORE PUSH1 0x20 PUSH1 0x0 KECCAK256 SWAP1 PUSH1 0x7 MUL ADD PUSH1 0x6 ADD PUSH1 0x0 PUSH2 0x100 EXP DUP2 SLOAD DUP2 PUSH1 0x1 PUSH1 0x1 PUSH1 0xA0 SHL SUB MUL NOT AND SWAP1 DUP4 PUSH1 0x1 PUSH1 0x1 PUSH1 0xA0 SHL SUB AND MUL OR SWAP1 SSTORE POP DUP3 PUSH1 0x0 EQ ISZERO PUSH2 0x1A5C JUMPI PUSH1 0x7A DUP1 SLOAD PUSH1 0x1 PUSH1 0x1 PUSH1 0xA0 SHL SUB DUP5 AND PUSH1 0x1 PUSH1 0x1 PUSH1 0xA0 SHL SUB NOT SWAP1 SWAP2 AND OR SWAP1 SSTORE POP POP POP JUMP JUMPDEST PUSH1 0x33 SLOAD PUSH1 0x1 PUSH1 0x1 PUSH1 0xA0 SHL SUB AND SWAP1 JUMP JUMPDEST PUSH1 0x8C SLOAD PUSH1 0x1 PUSH1 0x1 PUSH1 0xA0 SHL SUB AND DUP2 JUMP JUMPDEST PUSH2 0x1BAF PUSH2 0x24C2 JUMP JUMPDEST PUSH1 0x1 PUSH1 0x1 PUSH1 0xA0 SHL SUB AND PUSH2 0x1BC0 PUSH2 0x1B89 JUMP JUMPDEST PUSH1 0x1 PUSH1 0x1 PUSH1 0xA0 SHL SUB AND EQ PUSH2 0x1BE6 JUMPI PUSH1 0x40 MLOAD PUSH3 0x461BCD PUSH1 0xE5 SHL DUP2 MSTORE PUSH1 0x4 ADD PUSH2 0xB46 SWAP1 PUSH2 0x4A96 JUMP JUMPDEST PUSH1 0x89 SLOAD DUP3 SWAP1 DUP2 LT PUSH2 0x1C09 JUMPI PUSH1 0x40 MLOAD PUSH3 0x461BCD PUSH1 0xE5 SHL DUP2 MSTORE PUSH1 0x4 ADD PUSH2 0xB46 SWAP1 PUSH2 0x49E7 JUMP JUMPDEST PUSH1 0x0 PUSH1 0x89 DUP5 DUP2 SLOAD DUP2 LT PUSH2 0x1C2C JUMPI PUSH4 0x4E487B71 PUSH1 0xE0 SHL PUSH1 0x0 MSTORE PUSH1 0x32 PUSH1 0x4 MSTORE PUSH1 0x24 PUSH1 0x0 REVERT JUMPDEST PUSH1 0x0 SWAP2 DUP3 MSTORE PUSH1 0x20 SWAP2 DUP3 SWAP1 KECCAK256 PUSH1 0x40 DUP1 MLOAD PUSH1 0xE0 DUP2 ADD DUP3 MSTORE PUSH1 0x7 SWAP1 SWAP4 MUL SWAP1 SWAP2 ADD DUP1 SLOAD DUP4 MSTORE PUSH1 0x1 DUP2 ADD SLOAD SWAP4 DUP4 ADD SWAP4 SWAP1 SWAP4 MSTORE PUSH1 0x2 DUP4 ADD SLOAD SWAP1 DUP3 ADD MSTORE PUSH1 0x3 DUP3 ADD SLOAD PUSH1 0x60 DUP3 ADD MSTORE PUSH1 0x4 DUP3 ADD SLOAD PUSH1 0x80 DUP3 ADD DUP2 SWAP1 MSTORE PUSH1 0x5 DUP4 ADD SLOAD PUSH1 0x1 PUSH1 0x1 PUSH1 0xA0 SHL SUB SWAP1 DUP2 AND PUSH1 0xA0 DUP5 ADD MSTORE PUSH1 0x6 SWAP1 SWAP4 ADD SLOAD SWAP1 SWAP3 AND PUSH1 0xC0 DUP3 ADD MSTORE SWAP2 POP PUSH2 0x1CA9 SWAP1 DUP3 SWAP1 DUP6 PUSH2 0x29F7 JUMP JUMPDEST DUP3 PUSH1 0x89 DUP6 DUP2 SLOAD DUP2 LT PUSH2 0x1CCB JUMPI PUSH4 0x4E487B71 PUSH1 0xE0 SHL PUSH1 0x0 MSTORE PUSH1 0x32 PUSH1 0x4 MSTORE PUSH1 0x24 PUSH1 0x0 REVERT JUMPDEST PUSH1 0x0 SWAP2 DUP3 MSTORE PUSH1 0x20 SWAP1 SWAP2 KECCAK256 PUSH1 0x4 PUSH1 0x7 SWAP1 SWAP3 MUL ADD ADD SSTORE DUP4 PUSH2 0x10BF JUMPI POP POP PUSH1 0x78 SSTORE POP JUMP JUMPDEST PUSH1 0x60 PUSH1 0x72 DUP1 SLOAD PUSH2 0xA66 SWAP1 PUSH2 0x4E75 JUMP JUMPDEST PUSH1 0x0 PUSH2 0xAFD PUSH2 0x1D08 PUSH2 0x24C2 JUMP JUMPDEST DUP5 PUSH2 0xE71 DUP6 PUSH1 0x40 MLOAD DUP1 PUSH1 0x60 ADD PUSH1 0x40 MSTORE DUP1 PUSH1 0x25 DUP2 MSTORE PUSH1 0x20 ADD PUSH2 0x4FD9 PUSH1 0x25 SWAP2 CODECOPY PUSH1 0x67 PUSH1 0x0 PUSH2 0x1D32 PUSH2 0x24C2 JUMP JUMPDEST PUSH1 0x1 PUSH1 0x1 PUSH1 0xA0 SHL SUB SWAP1 DUP2 AND DUP3 MSTORE PUSH1 0x20 DUP1 DUP4 ADD SWAP4 SWAP1 SWAP4 MSTORE PUSH1 0x40 SWAP2 DUP3 ADD PUSH1 0x0 SWAP1 DUP2 KECCAK256 SWAP2 DUP14 AND DUP2 MSTORE SWAP3 MSTORE SWAP1 KECCAK256 SLOAD SWAP2 SWAP1 PUSH2 0x2972 JUMP JUMPDEST PUSH1 0x0 PUSH2 0xAFD PUSH2 0x1D70 PUSH2 0x24C2 JUMP JUMPDEST DUP5 DUP5 PUSH2 0x262C JUMP JUMPDEST PUSH1 0x8D SLOAD PUSH1 0x1 PUSH1 0x1 PUSH1 0xA0 SHL SUB AND PUSH2 0x1D9F JUMPI PUSH1 0x40 MLOAD PUSH3 0x461BCD PUSH1 0xE5 SHL DUP2 MSTORE PUSH1 0x4 ADD PUSH2 0xB46 SWAP1 PUSH2 0x4B4B JUMP JUMPDEST PUSH1 0x8D SLOAD PUSH1 0x1 PUSH1 0x1 PUSH1 0xA0 SHL SUB AND PUSH2 0x1DB3 PUSH2 0x24C2 JUMP JUMPDEST PUSH1 0x1 PUSH1 0x1 PUSH1 0xA0 SHL SUB AND EQ PUSH2 0x1DD9 JUMPI PUSH1 0x40 MLOAD PUSH3 0x461BCD PUSH1 0xE5 SHL DUP2 MSTORE PUSH1 0x4 ADD PUSH2 0xB46 SWAP1 PUSH2 0x49B8 JUMP JUMPDEST PUSH2 0x129F DUP3 DUP3 PUSH2 0x2C54 JUMP JUMPDEST PUSH1 0x8F SLOAD PUSH1 0x1 PUSH1 0x1 PUSH1 0xA0 SHL SUB AND DUP2 JUMP JUMPDEST PUSH1 0x0 PUSH1 0x6D SLOAD DUP5 GT ISZERO PUSH2 0x1E16 JUMPI PUSH1 0x40 MLOAD PUSH3 0x461BCD PUSH1 0xE5 SHL DUP2 MSTORE PUSH1 0x4 ADD PUSH2 0xB46 SWAP1 PUSH2 0x48EB JUMP JUMPDEST DUP2 PUSH2 0x1E31 JUMPI PUSH1 0x0 PUSH2 0x1E27 DUP6 DUP6 PUSH2 0x2C94 JUMP JUMPDEST MLOAD SWAP2 POP PUSH2 0xE7A SWAP1 POP JUMP JUMPDEST PUSH1 0x0 PUSH2 0x1E3D DUP6 DUP6 PUSH2 0x2C94 JUMP JUMPDEST PUSH1 0x20 ADD MLOAD SWAP2 POP PUSH2 0xE7A SWAP1 POP JUMP JUMPDEST PUSH2 0x1E52 PUSH2 0x24C2 JUMP JUMPDEST PUSH1 0x1 PUSH1 0x1 PUSH1 0xA0 SHL SUB AND PUSH2 0x1E63 PUSH2 0x1B89 JUMP JUMPDEST PUSH1 0x1 PUSH1 0x1 PUSH1 0xA0 SHL SUB AND EQ PUSH2 0x1E89 JUMPI PUSH1 0x40 MLOAD PUSH3 0x461BCD PUSH1 0xE5 SHL DUP2 MSTORE PUSH1 0x4 ADD PUSH2 0xB46 SWAP1 PUSH2 0x4A96 JUMP JUMPDEST PUSH1 0x8F DUP1 SLOAD PUSH1 0xFF PUSH1 0xA8 SHL NOT AND PUSH1 0x1 PUSH1 0xA8 SHL DUP4 ISZERO ISZERO MUL OR SWAP1 SSTORE PUSH1 0x40 MLOAD PUSH32 0x53726DFCAF90650AA7EB35524F4D3220F07413C8D6CB404CC8C18BF5591BC159 SWAP1 PUSH2 0x1ED0 SWAP1 DUP4 SWAP1 PUSH2 0x4661 JUMP JUMPDEST PUSH1 0x40 MLOAD DUP1 SWAP2 SUB SWAP1 LOG1 POP JUMP JUMPDEST PUSH1 0x0 SLOAD PUSH2 0x100 SWAP1 DIV PUSH1 0xFF AND DUP1 PUSH2 0x1EF4 JUMPI POP PUSH2 0x1EF4 PUSH2 0x2D60 JUMP JUMPDEST DUP1 PUSH2 0x1F02 JUMPI POP PUSH1 0x0 SLOAD PUSH1 0xFF AND ISZERO JUMPDEST PUSH2 0x1F1E JUMPI PUSH1 0x40 MLOAD PUSH3 0x461BCD PUSH1 0xE5 SHL DUP2 MSTORE PUSH1 0x4 ADD PUSH2 0xB46 SWAP1 PUSH2 0x496A JUMP JUMPDEST PUSH1 0x0 SLOAD PUSH2 0x100 SWAP1 DIV PUSH1 0xFF AND ISZERO DUP1 ISZERO PUSH2 0x1F49 JUMPI PUSH1 0x0 DUP1 SLOAD PUSH1 0xFF NOT PUSH2 0xFF00 NOT SWAP1 SWAP2 AND PUSH2 0x100 OR AND PUSH1 0x1 OR SWAP1 SSTORE JUMPDEST PUSH2 0x1F51 PUSH2 0x2D71 JUMP JUMPDEST PUSH2 0x1F59 PUSH2 0x2DF4 JUMP JUMPDEST PUSH2 0x1F62 DUP3 PUSH2 0x2ECE JUMP JUMPDEST DUP1 ISZERO PUSH2 0x129F JUMPI PUSH1 0x0 DUP1 SLOAD PUSH2 0xFF00 NOT AND SWAP1 SSTORE POP POP JUMP JUMPDEST PUSH2 0x1F7F PUSH2 0x24C2 JUMP JUMPDEST PUSH1 0x1 PUSH1 0x1 PUSH1 0xA0 SHL SUB AND PUSH2 0x1F90 PUSH2 0x1B89 JUMP JUMPDEST PUSH1 0x1 PUSH1 0x1 PUSH1 0xA0 SHL SUB AND EQ PUSH2 0x1FB6 JUMPI PUSH1 0x40 MLOAD PUSH3 0x461BCD PUSH1 0xE5 SHL DUP2 MSTORE PUSH1 0x4 ADD PUSH2 0xB46 SWAP1 PUSH2 0x4A96 JUMP JUMPDEST PUSH1 0x1 PUSH1 0x1 PUSH1 0xA0 SHL SUB AND PUSH1 0x0 SWAP1 DUP2 MSTORE PUSH1 0x6A PUSH1 0x20 MSTORE PUSH1 0x40 SWAP1 KECCAK256 DUP1 SLOAD PUSH1 0xFF NOT AND SWAP1 SSTORE JUMP JUMPDEST PUSH2 0x1FDF PUSH2 0x24C2 JUMP JUMPDEST PUSH1 0x1 PUSH1 0x1 PUSH1 0xA0 SHL SUB AND PUSH2 0x1FF0 PUSH2 0x1B89 JUMP JUMPDEST PUSH1 0x1 PUSH1 0x1 PUSH1 0xA0 SHL SUB AND EQ PUSH2 0x2016 JUMPI PUSH1 0x40 MLOAD PUSH3 0x461BCD PUSH1 0xE5 SHL DUP2 MSTORE PUSH1 0x4 ADD PUSH2 0xB46 SWAP1 PUSH2 0x4A96 JUMP JUMPDEST PUSH2 0x2037 PUSH2 0x2710 PUSH2 0x2031 DUP4 PUSH1 0x6D SLOAD PUSH2 0x32CE SWAP1 SWAP2 SWAP1 PUSH4 0xFFFFFFFF AND JUMP JUMPDEST SWAP1 PUSH2 0x29CC JUMP JUMPDEST PUSH1 0x90 SSTORE POP JUMP JUMPDEST PUSH2 0x2045 PUSH2 0x24C2 JUMP JUMPDEST PUSH1 0x1 PUSH1 0x1 PUSH1 0xA0 SHL SUB AND PUSH2 0x2056 PUSH2 0x1B89 JUMP JUMPDEST PUSH1 0x1 PUSH1 0x1 PUSH1 0xA0 SHL SUB AND EQ PUSH2 0x207C JUMPI PUSH1 0x40 MLOAD PUSH3 0x461BCD PUSH1 0xE5 SHL DUP2 MSTORE PUSH1 0x4 ADD PUSH2 0xB46 SWAP1 PUSH2 0x4A96 JUMP JUMPDEST PUSH1 0x89 SLOAD DUP3 SWAP1 DUP2 LT PUSH2 0x209F JUMPI PUSH1 0x40 MLOAD PUSH3 0x461BCD PUSH1 0xE5 SHL DUP2 MSTORE PUSH1 0x4 ADD PUSH2 0xB46 SWAP1 PUSH2 0x49E7 JUMP JUMPDEST PUSH1 0x0 PUSH1 0x89 DUP5 DUP2 SLOAD DUP2 LT PUSH2 0x20C2 JUMPI PUSH4 0x4E487B71 PUSH1 0xE0 SHL PUSH1 0x0 MSTORE PUSH1 0x32 PUSH1 0x4 MSTORE PUSH1 0x24 PUSH1 0x0 REVERT JUMPDEST PUSH1 0x0 SWAP2 DUP3 MSTORE PUSH1 0x20 SWAP2 DUP3 SWAP1 KECCAK256 PUSH1 0x40 DUP1 MLOAD PUSH1 0xE0 DUP2 ADD DUP3 MSTORE PUSH1 0x7 SWAP1 SWAP4 MUL SWAP1 SWAP2 ADD DUP1 SLOAD DUP4 MSTORE PUSH1 0x1 DUP2 ADD SLOAD SWAP4 DUP4 ADD SWAP4 SWAP1 SWAP4 MSTORE PUSH1 0x2 DUP4 ADD SLOAD SWAP1 DUP3 ADD MSTORE PUSH1 0x3 DUP3 ADD SLOAD PUSH1 0x60 DUP3 ADD DUP2 SWAP1 MSTORE PUSH1 0x4 DUP4 ADD SLOAD PUSH1 0x80 DUP4 ADD MSTORE PUSH1 0x5 DUP4 ADD SLOAD PUSH1 0x1 PUSH1 0x1 PUSH1 0xA0 SHL SUB SWAP1 DUP2 AND PUSH1 0xA0 DUP5 ADD MSTORE PUSH1 0x6 SWAP1 SWAP4 ADD SLOAD SWAP1 SWAP3 AND PUSH1 0xC0 DUP3 ADD MSTORE SWAP2 POP PUSH2 0x213F SWAP1 DUP3 SWAP1 DUP6 PUSH2 0x29F7 JUMP JUMPDEST DUP3 PUSH1 0x89 DUP6 DUP2 SLOAD DUP2 LT PUSH2 0x2161 JUMPI PUSH4 0x4E487B71 PUSH1 0xE0 SHL PUSH1 0x0 MSTORE PUSH1 0x32 PUSH1 0x4 MSTORE PUSH1 0x24 PUSH1 0x0 REVERT JUMPDEST PUSH1 0x0 SWAP2 DUP3 MSTORE PUSH1 0x20 SWAP1 SWAP2 KECCAK256 PUSH1 0x3 PUSH1 0x7 SWAP1 SWAP3 MUL ADD ADD SSTORE DUP4 PUSH2 0x10BF JUMPI POP POP PUSH1 0x77 SSTORE POP JUMP JUMPDEST PUSH1 0x1 PUSH1 0x1 PUSH1 0xA0 SHL SUB SWAP2 DUP3 AND PUSH1 0x0 SWAP1 DUP2 MSTORE PUSH1 0x67 PUSH1 0x20 SWAP1 DUP2 MSTORE PUSH1 0x40 DUP1 DUP4 KECCAK256 SWAP4 SWAP1 SWAP5 AND DUP3 MSTORE SWAP2 SWAP1 SWAP2 MSTORE KECCAK256 SLOAD SWAP1 JUMP JUMPDEST PUSH1 0x74 SLOAD PUSH1 0x75 SLOAD PUSH1 0x76 SLOAD PUSH1 0x77 SLOAD PUSH1 0x78 SLOAD PUSH1 0x79 SLOAD PUSH1 0x7A SLOAD PUSH1 0x1 PUSH1 0x1 PUSH1 0xA0 SHL SUB SWAP2 DUP3 AND SWAP2 AND DUP8 JUMP JUMPDEST PUSH2 0x21DA PUSH2 0x24C2 JUMP JUMPDEST PUSH1 0x1 PUSH1 0x1 PUSH1 0xA0 SHL SUB AND PUSH2 0x21EB PUSH2 0x1B89 JUMP JUMPDEST PUSH1 0x1 PUSH1 0x1 PUSH1 0xA0 SHL SUB AND EQ PUSH2 0x2211 JUMPI PUSH1 0x40 MLOAD PUSH3 0x461BCD PUSH1 0xE5 SHL DUP2 MSTORE PUSH1 0x4 ADD PUSH2 0xB46 SWAP1 PUSH2 0x4A96 JUMP JUMPDEST PUSH1 0x1 PUSH1 0x1 PUSH1 0xA0 SHL SUB AND PUSH1 0x0 SWAP1 DUP2 MSTORE PUSH1 0x68 PUSH1 0x20 MSTORE PUSH1 0x40 SWAP1 KECCAK256 DUP1 SLOAD PUSH1 0xFF NOT AND SWAP1 SSTORE JUMP JUMPDEST PUSH2 0x223A PUSH2 0x24C2 JUMP JUMPDEST PUSH1 0x1 PUSH1 0x1 PUSH1 0xA0 SHL SUB AND PUSH2 0x224B PUSH2 0x1B89 JUMP JUMPDEST PUSH1 0x1 PUSH1 0x1 PUSH1 0xA0 SHL SUB AND EQ PUSH2 0x2271 JUMPI PUSH1 0x40 MLOAD PUSH3 0x461BCD PUSH1 0xE5 SHL DUP2 MSTORE PUSH1 0x4 ADD PUSH2 0xB46 SWAP1 PUSH2 0x4A96 JUMP JUMPDEST PUSH1 0x89 SLOAD DUP3 SWAP1 DUP2 LT PUSH2 0x2294 JUMPI PUSH1 0x40 MLOAD PUSH3 0x461BCD PUSH1 0xE5 SHL DUP2 MSTORE PUSH1 0x4 ADD PUSH2 0xB46 SWAP1 PUSH2 0x49E7 JUMP JUMPDEST PUSH1 0x0 PUSH1 0x89 DUP5 DUP2 SLOAD DUP2 LT PUSH2 0x22B7 JUMPI PUSH4 0x4E487B71 PUSH1 0xE0 SHL PUSH1 0x0 MSTORE PUSH1 0x32 PUSH1 0x4 MSTORE PUSH1 0x24 PUSH1 0x0 REVERT JUMPDEST PUSH1 0x0 SWAP2 DUP3 MSTORE PUSH1 0x20 SWAP2 DUP3 SWAP1 KECCAK256 PUSH1 0x40 DUP1 MLOAD PUSH1 0xE0 DUP2 ADD DUP3 MSTORE PUSH1 0x7 SWAP1 SWAP4 MUL SWAP1 SWAP2 ADD DUP1 SLOAD DUP4 MSTORE PUSH1 0x1 DUP2 ADD SLOAD SWAP4 DUP4 ADD DUP5 SWAP1 MSTORE PUSH1 0x2 DUP2 ADD SLOAD SWAP2 DUP4 ADD SWAP2 SWAP1 SWAP2 MSTORE PUSH1 0x3 DUP2 ADD SLOAD PUSH1 0x60 DUP4 ADD MSTORE PUSH1 0x4 DUP2 ADD SLOAD PUSH1 0x80 DUP4 ADD MSTORE PUSH1 0x5 DUP2 ADD SLOAD PUSH1 0x1 PUSH1 0x1 PUSH1 0xA0 SHL SUB SWAP1 DUP2 AND PUSH1 0xA0 DUP5 ADD MSTORE PUSH1 0x6 SWAP1 SWAP2 ADD SLOAD AND PUSH1 0xC0 DUP3 ADD MSTORE SWAP2 POP PUSH2 0x2332 SWAP1 DUP3 SWAP1 DUP6 PUSH2 0x29F7 JUMP JUMPDEST DUP3 PUSH1 0x89 DUP6 DUP2 SLOAD DUP2 LT PUSH2 0x2354 JUMPI PUSH4 0x4E487B71 PUSH1 0xE0 SHL PUSH1 0x0 MSTORE PUSH1 0x32 PUSH1 0x4 MSTORE PUSH1 0x24 PUSH1 0x0 REVERT JUMPDEST PUSH1 0x0 SWAP2 DUP3 MSTORE PUSH1 0x20 SWAP1 SWAP2 KECCAK256 PUSH1 0x1 PUSH1 0x7 SWAP1 SWAP3 MUL ADD ADD SSTORE DUP4 PUSH2 0x10BF JUMPI POP POP PUSH1 0x75 SSTORE POP JUMP JUMPDEST PUSH2 0x237D PUSH2 0x24C2 JUMP JUMPDEST PUSH1 0x1 PUSH1 0x1 PUSH1 0xA0 SHL SUB AND PUSH2 0x238E PUSH2 0x1B89 JUMP JUMPDEST PUSH1 0x1 PUSH1 0x1 PUSH1 0xA0 SHL SUB AND EQ PUSH2 0x23B4 JUMPI PUSH1 0x40 MLOAD PUSH3 0x461BCD PUSH1 0xE5 SHL DUP2 MSTORE PUSH1 0x4 ADD PUSH2 0xB46 SWAP1 PUSH2 0x4A96 JUMP JUMPDEST PUSH1 0x1 PUSH1 0x1 PUSH1 0xA0 SHL SUB DUP2 AND PUSH2 0x23DA JUMPI PUSH1 0x40 MLOAD PUSH3 0x461BCD PUSH1 0xE5 SHL DUP2 MSTORE PUSH1 0x4 ADD PUSH2 0xB46 SWAP1 PUSH2 0x4792 JUMP JUMPDEST PUSH1 0x33 SLOAD PUSH1 0x40 MLOAD PUSH1 0x1 PUSH1 0x1 PUSH1 0xA0 SHL SUB DUP1 DUP5 AND SWAP3 AND SWAP1 PUSH32 0x8BE0079C531659141344CD1FD0A4F28419497F9722A3DAAFE3B4186F6B6457E0 SWAP1 PUSH1 0x0 SWAP1 LOG3 PUSH1 0x33 DUP1 SLOAD PUSH1 0x1 PUSH1 0x1 PUSH1 0xA0 SHL SUB NOT AND PUSH1 0x1 PUSH1 0x1 PUSH1 0xA0 SHL SUB SWAP3 SWAP1 SWAP3 AND SWAP2 SWAP1 SWAP2 OR SWAP1 SSTORE JUMP JUMPDEST PUSH2 0x243E PUSH2 0x24C2 JUMP JUMPDEST PUSH1 0x1 PUSH1 0x1 PUSH1 0xA0 SHL SUB AND PUSH2 0x244F PUSH2 0x1B89 JUMP JUMPDEST PUSH1 0x1 PUSH1 0x1 PUSH1 0xA0 SHL SUB AND EQ PUSH2 0x2475 JUMPI PUSH1 0x40 MLOAD PUSH3 0x461BCD PUSH1 0xE5 SHL DUP2 MSTORE PUSH1 0x4 ADD PUSH2 0xB46 SWAP1 PUSH2 0x4A96 JUMP JUMPDEST PUSH1 0x1 PUSH1 0x1 PUSH1 0xA0 SHL SUB AND PUSH1 0x0 SWAP1 DUP2 MSTORE PUSH1 0x6A PUSH1 0x20 SWAP1 DUP2 MSTORE PUSH1 0x40 DUP1 DUP4 KECCAK256 DUP1 SLOAD PUSH1 0xFF NOT AND PUSH1 0x1 OR SWAP1 SSTORE PUSH1 0x6B SWAP1 SWAP2 MSTORE DUP2 KECCAK256 SSTORE JUMP JUMPDEST PUSH1 0x1 PUSH1 0x1 PUSH1 0xA0 SHL SUB AND PUSH1 0x0 SWAP1 DUP2 MSTORE PUSH1 0x6A PUSH1 0x20 MSTORE PUSH1 0x40 SWAP1 KECCAK256 SLOAD PUSH1 0xFF AND SWAP1 JUMP JUMPDEST CALLER SWAP1 JUMP JUMPDEST DUP3 PUSH1 0x40 MLOAD DUP1 PUSH1 0x60 ADD PUSH1 0x40 MSTORE DUP1 PUSH1 0x26 DUP2 MSTORE PUSH1 0x20 ADD PUSH2 0x4FB3 PUSH1 0x26 SWAP2 CODECOPY PUSH1 0x1 PUSH1 0x1 PUSH1 0xA0 SHL SUB DUP3 AND PUSH1 0x0 SWAP1 DUP2 MSTORE PUSH1 0x6A PUSH1 0x20 MSTORE PUSH1 0x40 SWAP1 KECCAK256 SLOAD DUP2 SWAP1 PUSH1 0xFF AND ISZERO PUSH2 0x251C JUMPI PUSH1 0x40 MLOAD PUSH3 0x461BCD PUSH1 0xE5 SHL DUP2 MSTORE PUSH1 0x4 ADD PUSH2 0xB46 SWAP2 SWAP1 PUSH2 0x466C JUMP JUMPDEST POP DUP4 PUSH1 0x40 MLOAD DUP1 PUSH1 0x60 ADD PUSH1 0x40 MSTORE DUP1 PUSH1 0x28 DUP2 MSTORE PUSH1 0x20 ADD PUSH2 0x4F40 PUSH1 0x28 SWAP2 CODECOPY PUSH1 0x1 PUSH1 0x1 PUSH1 0xA0 SHL SUB DUP3 AND PUSH1 0x0 SWAP1 DUP2 MSTORE PUSH1 0x6A PUSH1 0x20 MSTORE PUSH1 0x40 SWAP1 KECCAK256 SLOAD DUP2 SWAP1 PUSH1 0xFF AND ISZERO PUSH2 0x2573 JUMPI PUSH1 0x40 MLOAD PUSH3 0x461BCD PUSH1 0xE5 SHL DUP2 MSTORE PUSH1 0x4 ADD PUSH2 0xB46 SWAP2 SWAP1 PUSH2 0x466C JUMP JUMPDEST POP PUSH1 0x1 PUSH1 0x1 PUSH1 0xA0 SHL SUB DUP8 AND PUSH2 0x259A JUMPI PUSH1 0x40 MLOAD PUSH3 0x461BCD PUSH1 0xE5 SHL DUP2 MSTORE PUSH1 0x4 ADD PUSH2 0xB46 SWAP1 PUSH2 0x4704 JUMP JUMPDEST PUSH1 0x1 PUSH1 0x1 PUSH1 0xA0 SHL SUB DUP7 AND PUSH2 0x25C0 JUMPI PUSH1 0x40 MLOAD PUSH3 0x461BCD PUSH1 0xE5 SHL DUP2 MSTORE PUSH1 0x4 ADD PUSH2 0xB46 SWAP1 PUSH2 0x4CA0 JUMP JUMPDEST PUSH1 0x1 PUSH1 0x1 PUSH1 0xA0 SHL SUB DUP1 DUP9 AND PUSH1 0x0 DUP2 DUP2 MSTORE PUSH1 0x67 PUSH1 0x20 SWAP1 DUP2 MSTORE PUSH1 0x40 DUP1 DUP4 KECCAK256 SWAP5 DUP12 AND DUP1 DUP5 MSTORE SWAP5 SWAP1 SWAP2 MSTORE SWAP1 DUP2 SWAP1 KECCAK256 DUP9 SWAP1 SSTORE MLOAD PUSH32 0x8C5BE1E5EBEC7D5BD14F71427D1E84F3DD0314C0F7B2291E5B200AC8C7C3B925 SWAP1 PUSH2 0x261B SWAP1 DUP10 SWAP1 PUSH2 0x4D3A JUMP JUMPDEST PUSH1 0x40 MLOAD DUP1 SWAP2 SUB SWAP1 LOG3 POP POP POP POP POP POP POP JUMP JUMPDEST PUSH2 0x2634 PUSH2 0x24C2 JUMP JUMPDEST PUSH1 0x40 DUP1 MLOAD DUP1 DUP3 ADD DUP3 MSTORE PUSH1 0x20 DUP1 DUP3 MSTORE PUSH32 0x536166656D6F6F6E3A204164647265737320697320626C61636B6C6973746564 DUP2 DUP4 ADD MSTORE PUSH1 0x1 PUSH1 0x1 PUSH1 0xA0 SHL SUB DUP5 AND PUSH1 0x0 SWAP1 DUP2 MSTORE PUSH1 0x6A SWAP1 SWAP2 MSTORE SWAP2 SWAP1 SWAP2 KECCAK256 SLOAD DUP2 SWAP1 PUSH1 0xFF AND ISZERO PUSH2 0x26A3 JUMPI PUSH1 0x40 MLOAD PUSH3 0x461BCD PUSH1 0xE5 SHL DUP2 MSTORE PUSH1 0x4 ADD PUSH2 0xB46 SWAP2 SWAP1 PUSH2 0x466C JUMP JUMPDEST POP DUP5 PUSH1 0x40 MLOAD DUP1 PUSH1 0x60 ADD PUSH1 0x40 MSTORE DUP1 PUSH1 0x25 DUP2 MSTORE PUSH1 0x20 ADD PUSH2 0x4F1B PUSH1 0x25 SWAP2 CODECOPY PUSH1 0x1 PUSH1 0x1 PUSH1 0xA0 SHL SUB DUP3 AND PUSH1 0x0 SWAP1 DUP2 MSTORE PUSH1 0x6A PUSH1 0x20 MSTORE PUSH1 0x40 SWAP1 KECCAK256 SLOAD DUP2 SWAP1 PUSH1 0xFF AND ISZERO PUSH2 0x26FA JUMPI PUSH1 0x40 MLOAD PUSH3 0x461BCD PUSH1 0xE5 SHL DUP2 MSTORE PUSH1 0x4 ADD PUSH2 0xB46 SWAP2 SWAP1 PUSH2 0x466C JUMP JUMPDEST POP DUP6 PUSH1 0x40 MLOAD DUP1 PUSH1 0x60 ADD PUSH1 0x40 MSTORE DUP1 PUSH1 0x23 DUP2 MSTORE PUSH1 0x20 ADD PUSH2 0x4F90 PUSH1 0x23 SWAP2 CODECOPY PUSH1 0x1 PUSH1 0x1 PUSH1 0xA0 SHL SUB DUP3 AND PUSH1 0x0 SWAP1 DUP2 MSTORE PUSH1 0x6A PUSH1 0x20 MSTORE PUSH1 0x40 SWAP1 KECCAK256 SLOAD DUP2 SWAP1 PUSH1 0xFF AND ISZERO PUSH2 0x2751 JUMPI PUSH1 0x40 MLOAD PUSH3 0x461BCD PUSH1 0xE5 SHL DUP2 MSTORE PUSH1 0x4 ADD PUSH2 0xB46 SWAP2 SWAP1 PUSH2 0x466C JUMP JUMPDEST POP PUSH1 0x1 PUSH1 0x1 PUSH1 0xA0 SHL SUB DUP10 AND PUSH2 0x2778 JUMPI PUSH1 0x40 MLOAD PUSH3 0x461BCD PUSH1 0xE5 SHL DUP2 MSTORE PUSH1 0x4 ADD PUSH2 0xB46 SWAP1 PUSH2 0x46BF JUMP JUMPDEST PUSH1 0x1 PUSH1 0x1 PUSH1 0xA0 SHL SUB DUP9 AND PUSH2 0x279E JUMPI PUSH1 0x40 MLOAD PUSH3 0x461BCD PUSH1 0xE5 SHL DUP2 MSTORE PUSH1 0x4 ADD PUSH2 0xB46 SWAP1 PUSH2 0x4BD2 JUMP JUMPDEST PUSH1 0x0 DUP8 GT PUSH2 0x27BE JUMPI PUSH1 0x40 MLOAD PUSH3 0x461BCD PUSH1 0xE5 SHL DUP2 MSTORE PUSH1 0x4 ADD PUSH2 0xB46 SWAP1 PUSH2 0x4B02 JUMP JUMPDEST PUSH2 0x27C6 PUSH2 0x1B89 JUMP JUMPDEST PUSH1 0x1 PUSH1 0x1 PUSH1 0xA0 SHL SUB AND DUP10 PUSH1 0x1 PUSH1 0x1 PUSH1 0xA0 SHL SUB AND EQ ISZERO DUP1 ISZERO PUSH2 0x2800 JUMPI POP PUSH2 0x27EA PUSH2 0x1B89 JUMP JUMPDEST PUSH1 0x1 PUSH1 0x1 PUSH1 0xA0 SHL SUB AND DUP9 PUSH1 0x1 PUSH1 0x1 PUSH1 0xA0 SHL SUB AND EQ ISZERO JUMPDEST ISZERO PUSH2 0x2827 JUMPI PUSH1 0x90 SLOAD DUP8 GT ISZERO PUSH2 0x2827 JUMPI PUSH1 0x40 MLOAD PUSH3 0x461BCD PUSH1 0xE5 SHL DUP2 MSTORE PUSH1 0x4 ADD PUSH2 0xB46 SWAP1 PUSH2 0x4922 JUMP JUMPDEST PUSH1 0x0 PUSH2 0x2832 ADDRESS PUSH2 0x1867 JUMP JUMPDEST SWAP1 POP PUSH1 0x90 SLOAD DUP2 LT PUSH2 0x2842 JUMPI POP PUSH1 0x90 SLOAD JUMPDEST PUSH1 0x91 SLOAD DUP2 LT DUP1 ISZERO SWAP1 DUP2 SWAP1 PUSH2 0x2860 JUMPI POP PUSH1 0x8F SLOAD PUSH1 0x1 PUSH1 0xA0 SHL SWAP1 DIV PUSH1 0xFF AND ISZERO JUMPDEST DUP1 ISZERO PUSH2 0x287A JUMPI POP PUSH1 0x8B SLOAD PUSH1 0x1 PUSH1 0x1 PUSH1 0xA0 SHL SUB DUP13 DUP2 AND SWAP2 AND EQ ISZERO JUMPDEST DUP1 ISZERO PUSH2 0x288F JUMPI POP PUSH1 0x8F SLOAD PUSH1 0x1 PUSH1 0xA8 SHL SWAP1 DIV PUSH1 0xFF AND JUMPDEST ISZERO PUSH2 0x28A2 JUMPI PUSH1 0x91 SLOAD SWAP2 POP PUSH2 0x28A2 DUP3 PUSH2 0x3313 JUMP JUMPDEST PUSH1 0x1 PUSH1 0x1 PUSH1 0xA0 SHL SUB DUP12 AND PUSH1 0x0 SWAP1 DUP2 MSTORE PUSH1 0x68 PUSH1 0x20 MSTORE PUSH1 0x40 SWAP1 KECCAK256 SLOAD PUSH1 0x1 SWAP1 PUSH1 0xFF AND DUP1 PUSH2 0x28E4 JUMPI POP PUSH1 0x1 PUSH1 0x1 PUSH1 0xA0 SHL SUB DUP12 AND PUSH1 0x0 SWAP1 DUP2 MSTORE PUSH1 0x68 PUSH1 0x20 MSTORE PUSH1 0x40 SWAP1 KECCAK256 SLOAD PUSH1 0xFF AND JUMPDEST ISZERO PUSH2 0x28ED JUMPI POP PUSH1 0x0 JUMPDEST PUSH1 0x0 DUP2 ISZERO PUSH2 0x2956 JUMPI POP PUSH1 0x1 PUSH1 0x1 PUSH1 0xA0 SHL SUB DUP13 AND PUSH1 0x0 DUP2 DUP2 MSTORE PUSH1 0x6B PUSH1 0x20 MSTORE PUSH1 0x40 SWAP1 KECCAK256 SLOAD SWAP1 PUSH2 0x2918 PUSH2 0x24C2 JUMP JUMPDEST PUSH1 0x1 PUSH1 0x1 PUSH1 0xA0 SHL SUB AND EQ PUSH2 0x2956 JUMPI PUSH1 0x6B PUSH1 0x0 PUSH2 0x2932 PUSH2 0x24C2 JUMP JUMPDEST PUSH1 0x1 PUSH1 0x1 PUSH1 0xA0 SHL SUB AND PUSH1 0x1 PUSH1 0x1 PUSH1 0xA0 SHL SUB AND DUP2 MSTORE PUSH1 0x20 ADD SWAP1 DUP2 MSTORE PUSH1 0x20 ADD PUSH1 0x0 KECCAK256 SLOAD SWAP1 POP JUMPDEST PUSH2 0x2963 DUP14 DUP14 DUP14 DUP5 DUP7 PUSH2 0x33B4 JUMP JUMPDEST POP POP POP POP POP POP POP POP POP POP POP POP POP JUMP JUMPDEST PUSH1 0x0 DUP2 DUP5 DUP5 GT ISZERO PUSH2 0x2996 JUMPI PUSH1 0x40 MLOAD PUSH3 0x461BCD PUSH1 0xE5 SHL DUP2 MSTORE PUSH1 0x4 ADD PUSH2 0xB46 SWAP2 SWAP1 PUSH2 0x466C JUMP JUMPDEST POP PUSH2 0x29A1 DUP4 DUP6 PUSH2 0x4E5E JUMP JUMPDEST SWAP5 SWAP4 POP POP POP POP JUMP JUMPDEST PUSH1 0x0 DUP1 PUSH1 0x0 PUSH2 0x29B6 PUSH2 0x352E JUMP JUMPDEST SWAP1 SWAP3 POP SWAP1 POP PUSH2 0x29C5 DUP3 DUP3 PUSH2 0x29CC JUMP JUMPDEST SWAP3 POP POP POP SWAP1 JUMP JUMPDEST PUSH1 0x0 DUP1 DUP3 GT PUSH2 0x29ED JUMPI PUSH1 0x40 MLOAD PUSH3 0x461BCD PUSH1 0xE5 SHL DUP2 MSTORE PUSH1 0x4 ADD PUSH2 0xB46 SWAP1 PUSH2 0x48B4 JUMP JUMPDEST PUSH2 0xE7A DUP3 DUP5 PUSH2 0x4E2B JUMP JUMPDEST PUSH1 0x0 PUSH2 0x2A40 DUP3 PUSH2 0x2A34 DUP6 PUSH2 0x2A3A DUP9 PUSH1 0x80 ADD MLOAD PUSH2 0x2A34 DUP11 PUSH1 0x60 ADD MLOAD PUSH2 0x2A34 DUP13 PUSH1 0x40 ADD MLOAD PUSH2 0x2A34 DUP15 PUSH1 0x20 ADD MLOAD DUP16 PUSH1 0x0 ADD MLOAD PUSH2 0x2A64 SWAP1 SWAP2 SWAP1 PUSH4 0xFFFFFFFF AND JUMP JUMPDEST SWAP1 PUSH2 0x2A64 JUMP JUMPDEST SWAP1 PUSH2 0x36EB JUMP JUMPDEST SWAP1 POP PUSH1 0x70 SLOAD DUP2 GT ISZERO PUSH2 0x10BF JUMPI PUSH1 0x40 MLOAD PUSH3 0x461BCD PUSH1 0xE5 SHL DUP2 MSTORE PUSH1 0x4 ADD PUSH2 0xB46 SWAP1 PUSH2 0x4C5A JUMP JUMPDEST PUSH1 0x0 DUP1 PUSH2 0x2A71 DUP4 DUP6 PUSH2 0x4E13 JUMP JUMPDEST SWAP1 POP DUP4 DUP2 LT ISZERO PUSH2 0xE7A JUMPI PUSH1 0x40 MLOAD PUSH3 0x461BCD PUSH1 0xE5 SHL DUP2 MSTORE PUSH1 0x4 ADD PUSH2 0xB46 SWAP1 PUSH2 0x47D8 JUMP JUMPDEST PUSH2 0x2A9B PUSH2 0x4238 JUMP JUMPDEST PUSH1 0x0 PUSH2 0x2AEA PUSH1 0x40 MLOAD DUP1 PUSH1 0xE0 ADD PUSH1 0x40 MSTORE DUP1 DUP12 DUP2 MSTORE PUSH1 0x20 ADD DUP11 DUP2 MSTORE PUSH1 0x20 ADD DUP10 DUP2 MSTORE PUSH1 0x20 ADD DUP9 DUP2 MSTORE PUSH1 0x20 ADD DUP8 DUP2 MSTORE PUSH1 0x20 ADD DUP7 PUSH1 0x1 PUSH1 0x1 PUSH1 0xA0 SHL SUB AND DUP2 MSTORE PUSH1 0x20 ADD DUP6 PUSH1 0x1 PUSH1 0x1 PUSH1 0xA0 SHL SUB AND DUP2 MSTORE POP PUSH2 0x3717 JUMP JUMPDEST PUSH1 0x89 DUP1 SLOAD PUSH1 0x1 DUP2 ADD DUP3 SSTORE PUSH1 0x0 SWAP2 SWAP1 SWAP2 MSTORE DUP2 MLOAD PUSH32 0x5BFA74C743914028161AE645D300D90BBDC659F169CA1469EC86B4960F7266CB PUSH1 0x7 SWAP1 SWAP3 MUL SWAP2 DUP3 ADD SSTORE PUSH1 0x20 DUP3 ADD MLOAD PUSH32 0x5BFA74C743914028161AE645D300D90BBDC659F169CA1469EC86B4960F7266CC DUP3 ADD SSTORE PUSH1 0x40 DUP3 ADD MLOAD PUSH32 0x5BFA74C743914028161AE645D300D90BBDC659F169CA1469EC86B4960F7266CD DUP3 ADD SSTORE PUSH1 0x60 DUP3 ADD MLOAD PUSH32 0x5BFA74C743914028161AE645D300D90BBDC659F169CA1469EC86B4960F7266CE DUP3 ADD SSTORE PUSH1 0x80 DUP3 ADD MLOAD PUSH32 0x5BFA74C743914028161AE645D300D90BBDC659F169CA1469EC86B4960F7266CF DUP3 ADD SSTORE PUSH1 0xA0 DUP3 ADD MLOAD PUSH32 0x5BFA74C743914028161AE645D300D90BBDC659F169CA1469EC86B4960F7266D0 DUP3 ADD DUP1 SLOAD PUSH1 0x1 PUSH1 0x1 PUSH1 0xA0 SHL SUB NOT SWAP1 DUP2 AND PUSH1 0x1 PUSH1 0x1 PUSH1 0xA0 SHL SUB SWAP4 DUP5 AND OR SWAP1 SWAP2 SSTORE PUSH1 0xC0 DUP5 ADD MLOAD PUSH32 0x5BFA74C743914028161AE645D300D90BBDC659F169CA1469EC86B4960F7266D1 SWAP1 SWAP4 ADD DUP1 SLOAD SWAP1 SWAP2 AND SWAP3 SWAP1 SWAP2 AND SWAP2 SWAP1 SWAP2 OR SWAP1 SSTORE SWAP10 SWAP9 POP POP POP POP POP POP POP POP POP JUMP JUMPDEST PUSH1 0x1 PUSH1 0x1 PUSH1 0xA0 SHL SUB DUP3 AND PUSH2 0x2C7A JUMPI PUSH1 0x40 MLOAD PUSH3 0x461BCD PUSH1 0xE5 SHL DUP2 MSTORE PUSH1 0x4 ADD PUSH2 0xB46 SWAP1 PUSH2 0x4A5F JUMP JUMPDEST PUSH1 0x8E SLOAD PUSH2 0x129F SWAP1 PUSH1 0x1 PUSH1 0x1 PUSH1 0xA0 SHL SUB AND DUP4 DUP4 PUSH1 0x0 DUP1 PUSH2 0x33B4 JUMP JUMPDEST PUSH2 0x2C9C PUSH2 0x4287 JUMP JUMPDEST PUSH1 0x0 PUSH2 0x2CA8 DUP5 DUP5 PUSH2 0x377F JUMP JUMPDEST SWAP1 POP PUSH1 0x0 PUSH2 0x2CD7 DUP3 PUSH1 0xA0 ADD MLOAD PUSH2 0x2A34 DUP5 PUSH1 0x80 ADD MLOAD PUSH2 0x2A34 DUP7 PUSH1 0x20 ADD MLOAD DUP8 PUSH1 0x40 ADD MLOAD PUSH2 0x2A64 SWAP1 SWAP2 SWAP1 PUSH4 0xFFFFFFFF AND JUMP JUMPDEST SWAP1 POP PUSH1 0x0 DUP1 PUSH1 0x0 PUSH2 0x2CF5 DUP9 DUP7 PUSH1 0x60 ADD MLOAD DUP7 PUSH2 0x2CF0 PUSH2 0x29A9 JUMP JUMPDEST PUSH2 0x38C7 JUMP JUMPDEST SWAP3 POP SWAP3 POP SWAP3 POP PUSH1 0x40 MLOAD DUP1 PUSH2 0x120 ADD PUSH1 0x40 MSTORE DUP1 DUP5 DUP2 MSTORE PUSH1 0x20 ADD DUP4 DUP2 MSTORE PUSH1 0x20 ADD DUP3 DUP2 MSTORE PUSH1 0x20 ADD DUP7 PUSH1 0x0 ADD MLOAD DUP2 MSTORE PUSH1 0x20 ADD DUP7 PUSH1 0x20 ADD MLOAD DUP2 MSTORE PUSH1 0x20 ADD DUP7 PUSH1 0x40 ADD MLOAD DUP2 MSTORE PUSH1 0x20 ADD DUP7 PUSH1 0x60 ADD MLOAD DUP2 MSTORE PUSH1 0x20 ADD DUP7 PUSH1 0x80 ADD MLOAD DUP2 MSTORE PUSH1 0x20 ADD DUP7 PUSH1 0xA0 ADD MLOAD DUP2 MSTORE POP SWAP6 POP POP POP POP POP POP SWAP3 SWAP2 POP POP JUMP JUMPDEST PUSH1 0x0 PUSH2 0x2D6B ADDRESS PUSH2 0x3917 JUMP JUMPDEST ISZERO SWAP1 POP SWAP1 JUMP JUMPDEST PUSH1 0x0 SLOAD PUSH2 0x100 SWAP1 DIV PUSH1 0xFF AND DUP1 PUSH2 0x2D8A JUMPI POP PUSH2 0x2D8A PUSH2 0x2D60 JUMP JUMPDEST DUP1 PUSH2 0x2D98 JUMPI POP PUSH1 0x0 SLOAD PUSH1 0xFF AND ISZERO JUMPDEST PUSH2 0x2DB4 JUMPI PUSH1 0x40 MLOAD PUSH3 0x461BCD PUSH1 0xE5 SHL DUP2 MSTORE PUSH1 0x4 ADD PUSH2 0xB46 SWAP1 PUSH2 0x496A JUMP JUMPDEST PUSH1 0x0 SLOAD PUSH2 0x100 SWAP1 DIV PUSH1 0xFF AND ISZERO DUP1 ISZERO PUSH2 0x2DDF JUMPI PUSH1 0x0 DUP1 SLOAD PUSH1 0xFF NOT PUSH2 0xFF00 NOT SWAP1 SWAP2 AND PUSH2 0x100 OR AND PUSH1 0x1 OR SWAP1 SSTORE JUMPDEST DUP1 ISZERO PUSH2 0x2DF1 JUMPI PUSH1 0x0 DUP1 SLOAD PUSH2 0xFF00 NOT AND SWAP1 SSTORE JUMPDEST POP JUMP JUMPDEST PUSH1 0x0 SLOAD PUSH2 0x100 SWAP1 DIV PUSH1 0xFF AND DUP1 PUSH2 0x2E0D JUMPI POP PUSH2 0x2E0D PUSH2 0x2D60 JUMP JUMPDEST DUP1 PUSH2 0x2E1B JUMPI POP PUSH1 0x0 SLOAD PUSH1 0xFF AND ISZERO JUMPDEST PUSH2 0x2E37 JUMPI PUSH1 0x40 MLOAD PUSH3 0x461BCD PUSH1 0xE5 SHL DUP2 MSTORE PUSH1 0x4 ADD PUSH2 0xB46 SWAP1 PUSH2 0x496A JUMP JUMPDEST PUSH1 0x0 SLOAD PUSH2 0x100 SWAP1 DIV PUSH1 0xFF AND ISZERO DUP1 ISZERO PUSH2 0x2E62 JUMPI PUSH1 0x0 DUP1 SLOAD PUSH1 0xFF NOT PUSH2 0xFF00 NOT SWAP1 SWAP2 AND PUSH2 0x100 OR AND PUSH1 0x1 OR SWAP1 SSTORE JUMPDEST PUSH1 0x0 PUSH2 0x2E6C PUSH2 0x24C2 JUMP JUMPDEST PUSH1 0x33 DUP1 SLOAD PUSH1 0x1 PUSH1 0x1 PUSH1 0xA0 SHL SUB NOT AND PUSH1 0x1 PUSH1 0x1 PUSH1 0xA0 SHL SUB DUP4 AND SWAP1 DUP2 OR SWAP1 SWAP2 SSTORE PUSH1 0x40 MLOAD SWAP2 SWAP3 POP SWAP1 PUSH1 0x0 SWAP1 PUSH32 0x8BE0079C531659141344CD1FD0A4F28419497F9722A3DAAFE3B4186F6B6457E0 SWAP1 DUP3 SWAP1 LOG3 POP DUP1 ISZERO PUSH2 0x2DF1 JUMPI PUSH1 0x0 DUP1 SLOAD PUSH2 0xFF00 NOT AND SWAP1 SSTORE POP JUMP JUMPDEST PUSH1 0x0 SLOAD PUSH2 0x100 SWAP1 DIV PUSH1 0xFF AND DUP1 PUSH2 0x2EE7 JUMPI POP PUSH2 0x2EE7 PUSH2 0x2D60 JUMP JUMPDEST DUP1 PUSH2 0x2EF5 JUMPI POP PUSH1 0x0 SLOAD PUSH1 0xFF AND ISZERO JUMPDEST PUSH2 0x2F11 JUMPI PUSH1 0x40 MLOAD PUSH3 0x461BCD PUSH1 0xE5 SHL DUP2 MSTORE PUSH1 0x4 ADD PUSH2 0xB46 SWAP1 PUSH2 0x496A JUMP JUMPDEST PUSH1 0x0 SLOAD PUSH2 0x100 SWAP1 DIV PUSH1 0xFF AND ISZERO DUP1 ISZERO PUSH2 0x2F3C JUMPI PUSH1 0x0 DUP1 SLOAD PUSH1 0xFF NOT PUSH2 0xFF00 NOT SWAP1 SWAP2 AND PUSH2 0x100 OR AND PUSH1 0x1 OR SWAP1 SSTORE JUMPDEST PUSH1 0x40 DUP1 MLOAD DUP1 DUP3 ADD SWAP1 SWAP2 MSTORE PUSH1 0xF DUP1 DUP3 MSTORE PUSH15 0x14D85999535BDBDB8814995DD85C99 PUSH1 0x8A SHL PUSH1 0x20 SWAP1 SWAP3 ADD SWAP2 DUP3 MSTORE PUSH2 0x2F72 SWAP2 PUSH1 0x71 SWAP2 PUSH2 0x42D3 JUMP JUMPDEST POP PUSH1 0x40 DUP1 MLOAD DUP1 DUP3 ADD SWAP1 SWAP2 MSTORE PUSH1 0x4 DUP1 DUP3 MSTORE PUSH4 0x29A326A9 PUSH1 0xE1 SHL PUSH1 0x20 SWAP1 SWAP3 ADD SWAP2 DUP3 MSTORE PUSH2 0x2F9E SWAP2 PUSH1 0x72 SWAP2 PUSH2 0x42D3 JUMP JUMPDEST POP PUSH1 0x73 DUP1 SLOAD PUSH1 0xFF NOT AND PUSH1 0x9 OR SWAP1 SSTORE PUSH9 0x3635C9ADC5DEA00000 PUSH1 0x6D DUP2 SWAP1 SSTORE PUSH2 0x2FC7 SWAP1 PUSH1 0x0 NOT PUSH2 0x4EC5 JUMP JUMPDEST PUSH2 0x2FD3 SWAP1 PUSH1 0x0 NOT PUSH2 0x4E5E JUMP JUMPDEST PUSH1 0x6E SSTORE PUSH2 0x3E8 PUSH1 0x70 SSTORE PUSH1 0x8F DUP1 SLOAD PUSH8 0x4563918244F40000 PUSH1 0x90 SSTORE PUSH8 0x6F05B59D3B20000 PUSH1 0x91 SSTORE PUSH1 0x1 PUSH1 0x1 PUSH1 0xA0 SHL SUB NOT PUSH1 0xFF PUSH1 0xA8 SHL NOT SWAP1 SWAP2 AND PUSH1 0x1 PUSH1 0xA8 SHL OR AND PUSH2 0xDEAD OR SWAP1 SSTORE PUSH2 0x301F PUSH2 0x24C2 JUMP JUMPDEST PUSH1 0x8E DUP1 SLOAD PUSH1 0x1 PUSH1 0x1 PUSH1 0xA0 SHL SUB NOT SWAP1 DUP2 AND PUSH1 0x1 PUSH1 0x1 PUSH1 0xA0 SHL SUB SWAP4 DUP5 AND OR SWAP2 DUP3 SWAP1 SSTORE PUSH1 0x6E SLOAD SWAP2 DUP4 AND PUSH1 0x0 SWAP1 DUP2 MSTORE PUSH1 0x65 PUSH1 0x20 SWAP1 DUP2 MSTORE PUSH1 0x40 SWAP2 DUP3 SWAP1 KECCAK256 SWAP4 SWAP1 SWAP4 SSTORE PUSH1 0x8A DUP1 SLOAD SWAP1 SWAP3 AND DUP7 DUP6 AND OR SWAP2 DUP3 SWAP1 SSTORE DUP1 MLOAD PUSH4 0x15AB88C9 PUSH1 0xE3 SHL DUP2 MSTORE SWAP1 MLOAD SWAP2 SWAP1 SWAP4 AND SWAP3 PUSH4 0xAD5C4648 SWAP3 PUSH1 0x4 DUP1 DUP4 ADD SWAP4 SWAP2 SWAP3 DUP3 SWAP1 SUB ADD DUP2 DUP7 DUP1 EXTCODESIZE ISZERO DUP1 ISZERO PUSH2 0x309F JUMPI PUSH1 0x0 DUP1 REVERT JUMPDEST POP GAS STATICCALL ISZERO DUP1 ISZERO PUSH2 0x30B3 JUMPI RETURNDATASIZE PUSH1 0x0 DUP1 RETURNDATACOPY RETURNDATASIZE PUSH1 0x0 REVERT JUMPDEST POP POP POP POP PUSH1 0x40 MLOAD RETURNDATASIZE PUSH1 0x1F NOT PUSH1 0x1F DUP3 ADD AND DUP3 ADD DUP1 PUSH1 0x40 MSTORE POP DUP2 ADD SWAP1 PUSH2 0x30D7 SWAP2 SWAP1 PUSH2 0x43CE JUMP JUMPDEST PUSH1 0x8C DUP1 SLOAD PUSH1 0x1 PUSH1 0x1 PUSH1 0xA0 SHL SUB NOT AND PUSH1 0x1 PUSH1 0x1 PUSH1 0xA0 SHL SUB SWAP3 DUP4 AND OR SWAP1 SSTORE PUSH1 0x8A SLOAD PUSH1 0x40 DUP1 MLOAD PUSH4 0xC45A0155 PUSH1 0xE0 SHL DUP2 MSTORE SWAP1 MLOAD SWAP2 SWAP1 SWAP3 AND SWAP2 PUSH4 0xC45A0155 SWAP2 PUSH1 0x4 DUP1 DUP4 ADD SWAP3 PUSH1 0x20 SWAP3 SWAP2 SWAP1 DUP3 SWAP1 SUB ADD DUP2 DUP7 DUP1 EXTCODESIZE ISZERO DUP1 ISZERO PUSH2 0x3130 JUMPI PUSH1 0x0 DUP1 REVERT JUMPDEST POP GAS STATICCALL ISZERO DUP1 ISZERO PUSH2 0x3144 JUMPI RETURNDATASIZE PUSH1 0x0 DUP1 RETURNDATACOPY RETURNDATASIZE PUSH1 0x0 REVERT JUMPDEST POP POP POP POP PUSH1 0x40 MLOAD RETURNDATASIZE PUSH1 0x1F NOT PUSH1 0x1F DUP3 ADD AND DUP3 ADD DUP1 PUSH1 0x40 MSTORE POP DUP2 ADD SWAP1 PUSH2 0x3168 SWAP2 SWAP1 PUSH2 0x43CE JUMP JUMPDEST PUSH1 0x8C SLOAD PUSH1 0x40 MLOAD PUSH4 0x64E329CB PUSH1 0xE1 SHL DUP2 MSTORE PUSH1 0x1 PUSH1 0x1 PUSH1 0xA0 SHL SUB SWAP3 DUP4 AND SWAP3 PUSH4 0xC9C65396 SWAP3 PUSH2 0x319C SWAP3 ADDRESS SWAP3 SWAP1 SWAP2 AND SWAP1 PUSH1 0x4 ADD PUSH2 0x460C JUMP JUMPDEST PUSH1 0x20 PUSH1 0x40 MLOAD DUP1 DUP4 SUB DUP2 PUSH1 0x0 DUP8 DUP1 EXTCODESIZE ISZERO DUP1 ISZERO PUSH2 0x31B6 JUMPI PUSH1 0x0 DUP1 REVERT JUMPDEST POP GAS CALL ISZERO DUP1 ISZERO PUSH2 0x31CA JUMPI RETURNDATASIZE PUSH1 0x0 DUP1 RETURNDATACOPY RETURNDATASIZE PUSH1 0x0 REVERT JUMPDEST POP POP POP POP PUSH1 0x40 MLOAD RETURNDATASIZE PUSH1 0x1F NOT PUSH1 0x1F DUP3 ADD AND DUP3 ADD DUP1 PUSH1 0x40 MSTORE POP DUP2 ADD SWAP1 PUSH2 0x31EE SWAP2 SWAP1 PUSH2 0x43CE JUMP JUMPDEST PUSH1 0x8B DUP1 SLOAD PUSH1 0x1 PUSH1 0x1 PUSH1 0xA0 SHL SUB NOT AND PUSH1 0x1 PUSH1 0x1 PUSH1 0xA0 SHL SUB SWAP3 SWAP1 SWAP3 AND SWAP2 SWAP1 SWAP2 OR SWAP1 SSTORE PUSH1 0x1 PUSH1 0x68 PUSH1 0x0 PUSH2 0x321C PUSH2 0x1B89 JUMP JUMPDEST PUSH1 0x1 PUSH1 0x1 PUSH1 0xA0 SHL SUB AND DUP2 MSTORE PUSH1 0x20 DUP1 DUP3 ADD SWAP3 SWAP1 SWAP3 MSTORE PUSH1 0x40 SWAP1 DUP2 ADD PUSH1 0x0 SWAP1 DUP2 KECCAK256 DUP1 SLOAD SWAP5 ISZERO ISZERO PUSH1 0xFF NOT SWAP6 DUP7 AND OR SWAP1 SSTORE ADDRESS DUP2 MSTORE PUSH1 0x68 SWAP1 SWAP3 MSTORE SWAP1 KECCAK256 DUP1 SLOAD SWAP1 SWAP2 AND PUSH1 0x1 OR SWAP1 SSTORE PUSH2 0x3264 PUSH2 0x391D JUMP JUMPDEST PUSH2 0x326C PUSH2 0x24C2 JUMP JUMPDEST PUSH1 0x1 PUSH1 0x1 PUSH1 0xA0 SHL SUB AND PUSH1 0x0 PUSH1 0x1 PUSH1 0x1 PUSH1 0xA0 SHL SUB AND PUSH32 0xDDF252AD1BE2C89B69C2B068FC378DAA952BA7F163C4A11628F55A4DF523B3EF PUSH1 0x6D SLOAD PUSH1 0x40 MLOAD PUSH2 0x32B1 SWAP2 SWAP1 PUSH2 0x4D3A JUMP JUMPDEST PUSH1 0x40 MLOAD DUP1 SWAP2 SUB SWAP1 LOG3 DUP1 ISZERO PUSH2 0x129F JUMPI PUSH1 0x0 DUP1 SLOAD PUSH2 0xFF00 NOT AND SWAP1 SSTORE POP POP JUMP JUMPDEST PUSH1 0x0 DUP3 PUSH2 0x32DD JUMPI POP PUSH1 0x0 PUSH2 0xB01 JUMP JUMPDEST PUSH1 0x0 PUSH2 0x32E9 DUP4 DUP6 PUSH2 0x4E3F JUMP JUMPDEST SWAP1 POP DUP3 PUSH2 0x32F6 DUP6 DUP4 PUSH2 0x4E2B JUMP JUMPDEST EQ PUSH2 0xE7A JUMPI PUSH1 0x40 MLOAD PUSH3 0x461BCD PUSH1 0xE5 SHL DUP2 MSTORE PUSH1 0x4 ADD PUSH2 0xB46 SWAP1 PUSH2 0x4A1E JUMP JUMPDEST PUSH1 0x8F DUP1 SLOAD PUSH1 0xFF PUSH1 0xA0 SHL NOT AND PUSH1 0x1 PUSH1 0xA0 SHL OR SWAP1 SSTORE PUSH1 0x0 PUSH2 0x3333 DUP3 PUSH1 0x2 PUSH2 0x29CC JUMP JUMPDEST SWAP1 POP PUSH1 0x0 PUSH2 0x3341 DUP4 DUP4 PUSH2 0x36EB JUMP JUMPDEST SWAP1 POP SELFBALANCE PUSH2 0x334D DUP4 PUSH2 0x3A4A JUMP JUMPDEST PUSH1 0x0 PUSH2 0x3359 SELFBALANCE DUP4 PUSH2 0x36EB JUMP JUMPDEST SWAP1 POP PUSH2 0x3365 DUP4 DUP3 PUSH2 0x3BCF JUMP JUMPDEST PUSH32 0x17BBFB9A6069321B6DED73BD96327C9E6B7212A5CD51FF219CD61370ACAFB561 DUP5 DUP3 DUP6 PUSH1 0x40 MLOAD PUSH2 0x3398 SWAP4 SWAP3 SWAP2 SWAP1 PUSH2 0x4DB3 JUMP JUMPDEST PUSH1 0x40 MLOAD DUP1 SWAP2 SUB SWAP1 LOG1 POP POP PUSH1 0x8F DUP1 SLOAD PUSH1 0xFF PUSH1 0xA0 SHL NOT AND SWAP1 SSTORE POP POP POP JUMP JUMPDEST DUP1 PUSH2 0x33C1 JUMPI PUSH2 0x33C1 PUSH2 0x3C7A JUMP JUMPDEST PUSH1 0x1 PUSH1 0x1 PUSH1 0xA0 SHL SUB DUP6 AND PUSH1 0x0 SWAP1 DUP2 MSTORE PUSH1 0x69 PUSH1 0x20 MSTORE PUSH1 0x40 SWAP1 KECCAK256 SLOAD PUSH1 0xFF AND DUP1 ISZERO PUSH2 0x3402 JUMPI POP PUSH1 0x1 PUSH1 0x1 PUSH1 0xA0 SHL SUB DUP5 AND PUSH1 0x0 SWAP1 DUP2 MSTORE PUSH1 0x69 PUSH1 0x20 MSTORE PUSH1 0x40 SWAP1 KECCAK256 SLOAD PUSH1 0xFF AND ISZERO JUMPDEST ISZERO PUSH2 0x3418 JUMPI PUSH2 0x3413 DUP6 DUP6 DUP6 DUP6 PUSH2 0x3DA4 JUMP JUMPDEST PUSH2 0x351A JUMP JUMPDEST PUSH1 0x1 PUSH1 0x1 PUSH1 0xA0 SHL SUB DUP6 AND PUSH1 0x0 SWAP1 DUP2 MSTORE PUSH1 0x69 PUSH1 0x20 MSTORE PUSH1 0x40 SWAP1 KECCAK256 SLOAD PUSH1 0xFF AND ISZERO DUP1 ISZERO PUSH2 0x3459 JUMPI POP PUSH1 0x1 PUSH1 0x1 PUSH1 0xA0 SHL SUB DUP5 AND PUSH1 0x0 SWAP1 DUP2 MSTORE PUSH1 0x69 PUSH1 0x20 MSTORE PUSH1 0x40 SWAP1 KECCAK256 SLOAD PUSH1 0xFF AND JUMPDEST ISZERO PUSH2 0x346A JUMPI PUSH2 0x3413 DUP6 DUP6 DUP6 DUP6 PUSH2 0x3ECA JUMP JUMPDEST PUSH1 0x1 PUSH1 0x1 PUSH1 0xA0 SHL SUB DUP6 AND PUSH1 0x0 SWAP1 DUP2 MSTORE PUSH1 0x69 PUSH1 0x20 MSTORE PUSH1 0x40 SWAP1 KECCAK256 SLOAD PUSH1 0xFF AND ISZERO DUP1 ISZERO PUSH2 0x34AC JUMPI POP PUSH1 0x1 PUSH1 0x1 PUSH1 0xA0 SHL SUB DUP5 AND PUSH1 0x0 SWAP1 DUP2 MSTORE PUSH1 0x69 PUSH1 0x20 MSTORE PUSH1 0x40 SWAP1 KECCAK256 SLOAD PUSH1 0xFF AND ISZERO JUMPDEST ISZERO PUSH2 0x34BD JUMPI PUSH2 0x3413 DUP6 DUP6 DUP6 DUP6 PUSH2 0x3F6F JUMP JUMPDEST PUSH1 0x1 PUSH1 0x1 PUSH1 0xA0 SHL SUB DUP6 AND PUSH1 0x0 SWAP1 DUP2 MSTORE PUSH1 0x69 PUSH1 0x20 MSTORE PUSH1 0x40 SWAP1 KECCAK256 SLOAD PUSH1 0xFF AND DUP1 ISZERO PUSH2 0x34FD JUMPI POP PUSH1 0x1 PUSH1 0x1 PUSH1 0xA0 SHL SUB DUP5 AND PUSH1 0x0 SWAP1 DUP2 MSTORE PUSH1 0x69 PUSH1 0x20 MSTORE PUSH1 0x40 SWAP1 KECCAK256 SLOAD PUSH1 0xFF AND JUMPDEST ISZERO PUSH2 0x350E JUMPI PUSH2 0x3413 DUP6 DUP6 DUP6 DUP6 PUSH2 0x3FA3 JUMP JUMPDEST PUSH2 0x351A DUP6 DUP6 DUP6 DUP6 PUSH2 0x3F6F JUMP JUMPDEST DUP1 PUSH2 0x3527 JUMPI PUSH2 0x3527 PUSH2 0x4008 JUMP JUMPDEST POP POP POP POP POP JUMP JUMPDEST PUSH1 0x6E SLOAD PUSH1 0x6D SLOAD PUSH1 0x0 SWAP2 DUP3 SWAP2 DUP3 JUMPDEST PUSH1 0x6C SLOAD DUP2 LT ISZERO PUSH2 0x36B9 JUMPI DUP3 PUSH1 0x65 PUSH1 0x0 PUSH1 0x6C DUP5 DUP2 SLOAD DUP2 LT PUSH2 0x356B JUMPI PUSH4 0x4E487B71 PUSH1 0xE0 SHL PUSH1 0x0 MSTORE PUSH1 0x32 PUSH1 0x4 MSTORE PUSH1 0x24 PUSH1 0x0 REVERT JUMPDEST PUSH1 0x0 SWAP2 DUP3 MSTORE PUSH1 0x20 DUP1 DUP4 KECCAK256 SWAP1 SWAP2 ADD SLOAD PUSH1 0x1 PUSH1 0x1 PUSH1 0xA0 SHL SUB AND DUP4 MSTORE DUP3 ADD SWAP3 SWAP1 SWAP3 MSTORE PUSH1 0x40 ADD SWAP1 KECCAK256 SLOAD GT DUP1 PUSH2 0x35E4 JUMPI POP DUP2 PUSH1 0x66 PUSH1 0x0 PUSH1 0x6C DUP5 DUP2 SLOAD DUP2 LT PUSH2 0x35BD JUMPI PUSH4 0x4E487B71 PUSH1 0xE0 SHL PUSH1 0x0 MSTORE PUSH1 0x32 PUSH1 0x4 MSTORE PUSH1 0x24 PUSH1 0x0 REVERT JUMPDEST PUSH1 0x0 SWAP2 DUP3 MSTORE PUSH1 0x20 DUP1 DUP4 KECCAK256 SWAP1 SWAP2 ADD SLOAD PUSH1 0x1 PUSH1 0x1 PUSH1 0xA0 SHL SUB AND DUP4 MSTORE DUP3 ADD SWAP3 SWAP1 SWAP3 MSTORE PUSH1 0x40 ADD SWAP1 KECCAK256 SLOAD GT JUMPDEST ISZERO PUSH2 0x35FB JUMPI PUSH1 0x6E SLOAD PUSH1 0x6D SLOAD SWAP5 POP SWAP5 POP POP POP POP PUSH2 0x36E7 JUMP JUMPDEST PUSH2 0x364F PUSH1 0x65 PUSH1 0x0 PUSH1 0x6C DUP5 DUP2 SLOAD DUP2 LT PUSH2 0x3623 JUMPI PUSH4 0x4E487B71 PUSH1 0xE0 SHL PUSH1 0x0 MSTORE PUSH1 0x32 PUSH1 0x4 MSTORE PUSH1 0x24 PUSH1 0x0 REVERT JUMPDEST PUSH1 0x0 SWAP2 DUP3 MSTORE PUSH1 0x20 DUP1 DUP4 KECCAK256 SWAP1 SWAP2 ADD SLOAD PUSH1 0x1 PUSH1 0x1 PUSH1 0xA0 SHL SUB AND DUP4 MSTORE DUP3 ADD SWAP3 SWAP1 SWAP3 MSTORE PUSH1 0x40 ADD SWAP1 KECCAK256 SLOAD DUP5 SWAP1 PUSH2 0x36EB JUMP JUMPDEST SWAP3 POP PUSH2 0x36A5 PUSH1 0x66 PUSH1 0x0 PUSH1 0x6C DUP5 DUP2 SLOAD DUP2 LT PUSH2 0x3679 JUMPI PUSH4 0x4E487B71 PUSH1 0xE0 SHL PUSH1 0x0 MSTORE PUSH1 0x32 PUSH1 0x4 MSTORE PUSH1 0x24 PUSH1 0x0 REVERT JUMPDEST PUSH1 0x0 SWAP2 DUP3 MSTORE PUSH1 0x20 DUP1 DUP4 KECCAK256 SWAP1 SWAP2 ADD SLOAD PUSH1 0x1 PUSH1 0x1 PUSH1 0xA0 SHL SUB AND DUP4 MSTORE DUP3 ADD SWAP3 SWAP1 SWAP3 MSTORE PUSH1 0x40 ADD SWAP1 KECCAK256 SLOAD DUP4 SWAP1 PUSH2 0x36EB JUMP JUMPDEST SWAP2 POP DUP1 PUSH2 0x36B1 DUP2 PUSH2 0x4EAA JUMP JUMPDEST SWAP2 POP POP PUSH2 0x353B JUMP JUMPDEST POP PUSH1 0x6D SLOAD PUSH1 0x6E SLOAD PUSH2 0x36C9 SWAP2 PUSH2 0x29CC JUMP JUMPDEST DUP3 LT ISZERO PUSH2 0x36E1 JUMPI PUSH1 0x6E SLOAD PUSH1 0x6D SLOAD SWAP4 POP SWAP4 POP POP POP PUSH2 0x36E7 JUMP JUMPDEST SWAP1 SWAP3 POP SWAP1 POP JUMPDEST SWAP1 SWAP2 JUMP JUMPDEST PUSH1 0x0 DUP3 DUP3 GT ISZERO PUSH2 0x370D JUMPI PUSH1 0x40 MLOAD PUSH3 0x461BCD PUSH1 0xE5 SHL DUP2 MSTORE PUSH1 0x4 ADD PUSH2 0xB46 SWAP1 PUSH2 0x4846 JUMP JUMPDEST PUSH2 0xE7A DUP3 DUP5 PUSH2 0x4E5E JUMP JUMPDEST PUSH2 0x371F PUSH2 0x4238 JUMP JUMPDEST PUSH1 0x0 PUSH2 0x3754 DUP4 PUSH1 0x80 ADD MLOAD PUSH2 0x2A34 DUP6 PUSH1 0x60 ADD MLOAD PUSH2 0x2A34 DUP8 PUSH1 0x40 ADD MLOAD PUSH2 0x2A34 DUP10 PUSH1 0x20 ADD MLOAD DUP11 PUSH1 0x0 ADD MLOAD PUSH2 0x2A64 SWAP1 SWAP2 SWAP1 PUSH4 0xFFFFFFFF AND JUMP JUMPDEST SWAP1 POP PUSH1 0x70 SLOAD DUP2 GT ISZERO PUSH2 0x3778 JUMPI PUSH1 0x40 MLOAD PUSH3 0x461BCD PUSH1 0xE5 SHL DUP2 MSTORE PUSH1 0x4 ADD PUSH2 0xB46 SWAP1 PUSH2 0x4C5A JUMP JUMPDEST POP SWAP1 SWAP2 SWAP1 POP JUMP JUMPDEST PUSH2 0x3787 PUSH2 0x4357 JUMP JUMPDEST PUSH1 0x0 PUSH1 0x89 DUP4 DUP2 SLOAD DUP2 LT PUSH2 0x37AA JUMPI PUSH4 0x4E487B71 PUSH1 0xE0 SHL PUSH1 0x0 MSTORE PUSH1 0x32 PUSH1 0x4 MSTORE PUSH1 0x24 PUSH1 0x0 REVERT JUMPDEST PUSH1 0x0 SWAP2 DUP3 MSTORE PUSH1 0x20 DUP1 DUP4 KECCAK256 PUSH1 0x40 DUP1 MLOAD PUSH1 0xE0 DUP2 ADD DUP3 MSTORE PUSH1 0x7 SWAP1 SWAP5 MUL SWAP1 SWAP2 ADD DUP1 SLOAD DUP5 MSTORE PUSH1 0x1 DUP2 ADD SLOAD DUP5 DUP5 ADD MSTORE PUSH1 0x2 DUP2 ADD SLOAD DUP5 DUP4 ADD MSTORE PUSH1 0x3 DUP2 ADD SLOAD PUSH1 0x60 DUP6 ADD MSTORE PUSH1 0x4 DUP2 ADD SLOAD PUSH1 0x80 DUP6 ADD MSTORE PUSH1 0x5 DUP2 ADD SLOAD PUSH1 0x1 PUSH1 0x1 PUSH1 0xA0 SHL SUB SWAP1 DUP2 AND PUSH1 0xA0 DUP7 ADD MSTORE PUSH1 0x6 SWAP1 SWAP2 ADD SLOAD AND PUSH1 0xC0 DUP1 DUP6 ADD SWAP2 SWAP1 SWAP2 MSTORE DUP2 MLOAD SWAP1 DUP2 ADD SWAP1 SWAP2 MSTORE DUP4 DUP2 MSTORE DUP3 MLOAD SWAP3 SWAP5 POP SWAP2 SWAP1 DUP3 ADD SWAP1 PUSH2 0x3835 SWAP1 DUP9 SWAP1 PUSH2 0x402C JUMP JUMPDEST DUP2 MSTORE PUSH1 0x20 ADD PUSH2 0x3848 DUP8 DUP6 PUSH1 0x20 ADD MLOAD PUSH2 0x402C JUMP JUMPDEST DUP2 MSTORE PUSH1 0x20 ADD PUSH2 0x385B DUP8 DUP6 PUSH1 0x40 ADD MLOAD PUSH2 0x402C JUMP JUMPDEST DUP2 MSTORE PUSH1 0x20 ADD PUSH2 0x386E DUP8 DUP6 PUSH1 0x60 ADD MLOAD PUSH2 0x402C JUMP JUMPDEST DUP2 MSTORE PUSH1 0x20 ADD PUSH2 0x3881 DUP8 DUP6 PUSH1 0x80 ADD MLOAD PUSH2 0x402C JUMP JUMPDEST DUP2 MSTORE POP SWAP1 POP PUSH2 0x38BD DUP2 PUSH1 0xA0 ADD MLOAD PUSH2 0x2A3A DUP4 PUSH1 0x80 ADD MLOAD PUSH2 0x2A3A DUP6 PUSH1 0x40 ADD MLOAD PUSH2 0x2A3A DUP8 PUSH1 0x60 ADD MLOAD PUSH2 0x2A3A DUP10 PUSH1 0x20 ADD MLOAD DUP15 PUSH2 0x36EB SWAP1 SWAP2 SWAP1 PUSH4 0xFFFFFFFF AND JUMP JUMPDEST DUP2 MSTORE SWAP5 SWAP4 POP POP POP POP JUMP JUMPDEST PUSH1 0x0 DUP1 DUP1 DUP1 PUSH2 0x38D6 DUP9 DUP7 PUSH2 0x32CE JUMP JUMPDEST SWAP1 POP PUSH1 0x0 PUSH2 0x38E4 DUP9 DUP8 PUSH2 0x32CE JUMP JUMPDEST SWAP1 POP PUSH1 0x0 PUSH2 0x38F2 DUP9 DUP9 PUSH2 0x32CE JUMP JUMPDEST SWAP1 POP PUSH1 0x0 PUSH2 0x3904 DUP3 PUSH2 0x2A3A DUP7 DUP7 PUSH2 0x36EB JUMP JUMPDEST SWAP4 SWAP12 SWAP4 SWAP11 POP SWAP2 SWAP9 POP SWAP2 SWAP7 POP POP POP POP POP POP POP JUMP JUMPDEST EXTCODESIZE ISZERO ISZERO SWAP1 JUMP JUMPDEST PUSH1 0x0 SLOAD PUSH2 0x100 SWAP1 DIV PUSH1 0xFF AND DUP1 PUSH2 0x3936 JUMPI POP PUSH2 0x3936 PUSH2 0x2D60 JUMP JUMPDEST DUP1 PUSH2 0x3944 JUMPI POP PUSH1 0x0 SLOAD PUSH1 0xFF AND ISZERO JUMPDEST PUSH2 0x3960 JUMPI PUSH1 0x40 MLOAD PUSH3 0x461BCD PUSH1 0xE5 SHL DUP2 MSTORE PUSH1 0x4 ADD PUSH2 0xB46 SWAP1 PUSH2 0x496A JUMP JUMPDEST PUSH1 0x0 SLOAD PUSH2 0x100 SWAP1 DIV PUSH1 0xFF AND ISZERO DUP1 ISZERO PUSH2 0x398B JUMPI PUSH1 0x0 DUP1 SLOAD PUSH1 0xFF NOT PUSH2 0xFF00 NOT SWAP1 SWAP2 AND PUSH2 0x100 OR AND PUSH1 0x1 OR SWAP1 SSTORE JUMPDEST PUSH2 0x399F PUSH1 0x0 PUSH2 0x1F4 DUP1 PUSH1 0x0 DUP1 PUSH1 0x0 DUP1 PUSH2 0x2A93 JUMP JUMPDEST DUP1 MLOAD PUSH1 0x74 SSTORE PUSH1 0x20 DUP2 ADD MLOAD PUSH1 0x75 SSTORE PUSH1 0x40 DUP2 ADD MLOAD PUSH1 0x76 SSTORE PUSH1 0x60 DUP2 ADD MLOAD PUSH1 0x77 SSTORE PUSH1 0x80 DUP2 ADD MLOAD PUSH1 0x78 SSTORE PUSH1 0xA0 DUP2 ADD MLOAD PUSH1 0x79 DUP1 SLOAD PUSH1 0x1 PUSH1 0x1 PUSH1 0xA0 SHL SUB NOT SWAP1 DUP2 AND PUSH1 0x1 PUSH1 0x1 PUSH1 0xA0 SHL SUB SWAP4 DUP5 AND OR SWAP1 SWAP2 SSTORE PUSH1 0xC0 SWAP1 SWAP3 ADD MLOAD PUSH1 0x7A DUP1 SLOAD SWAP1 SWAP4 AND SWAP2 AND OR SWAP1 SSTORE PUSH2 0x3A0C PUSH1 0x32 DUP1 PUSH1 0x64 PUSH1 0x0 DUP1 DUP1 DUP1 PUSH2 0x2A93 JUMP JUMPDEST POP PUSH2 0x3A20 PUSH1 0x32 DUP1 PUSH1 0x64 DUP1 PUSH1 0x0 DUP1 PUSH1 0x0 PUSH2 0x2A93 JUMP JUMPDEST POP PUSH2 0x3A35 PUSH1 0x64 PUSH1 0x7D DUP1 PUSH1 0x96 PUSH1 0x0 DUP1 PUSH1 0x0 PUSH2 0x2A93 JUMP JUMPDEST POP DUP1 ISZERO PUSH2 0x2DF1 JUMPI PUSH1 0x0 DUP1 SLOAD PUSH2 0xFF00 NOT AND SWAP1 SSTORE POP JUMP JUMPDEST PUSH1 0x40 DUP1 MLOAD PUSH1 0x2 DUP1 DUP3 MSTORE PUSH1 0x60 DUP3 ADD DUP4 MSTORE PUSH1 0x0 SWAP3 PUSH1 0x20 DUP4 ADD SWAP1 DUP1 CALLDATASIZE DUP4 CALLDATACOPY ADD SWAP1 POP POP SWAP1 POP ADDRESS DUP2 PUSH1 0x0 DUP2 MLOAD DUP2 LT PUSH2 0x3A8D JUMPI PUSH4 0x4E487B71 PUSH1 0xE0 SHL PUSH1 0x0 MSTORE PUSH1 0x32 PUSH1 0x4 MSTORE PUSH1 0x24 PUSH1 0x0 REVERT JUMPDEST PUSH1 0x1 PUSH1 0x1 PUSH1 0xA0 SHL SUB SWAP3 DUP4 AND PUSH1 0x20 SWAP2 DUP3 MUL SWAP3 SWAP1 SWAP3 ADD DUP2 ADD SWAP2 SWAP1 SWAP2 MSTORE PUSH1 0x8A SLOAD PUSH1 0x40 DUP1 MLOAD PUSH4 0x15AB88C9 PUSH1 0xE3 SHL DUP2 MSTORE SWAP1 MLOAD SWAP2 SWAP1 SWAP4 AND SWAP3 PUSH4 0xAD5C4648 SWAP3 PUSH1 0x4 DUP1 DUP4 ADD SWAP4 SWAP2 SWAP3 DUP3 SWAP1 SUB ADD DUP2 DUP7 DUP1 EXTCODESIZE ISZERO DUP1 ISZERO PUSH2 0x3AE1 JUMPI PUSH1 0x0 DUP1 REVERT JUMPDEST POP GAS STATICCALL ISZERO DUP1 ISZERO PUSH2 0x3AF5 JUMPI RETURNDATASIZE PUSH1 0x0 DUP1 RETURNDATACOPY RETURNDATASIZE PUSH1 0x0 REVERT JUMPDEST POP POP POP POP PUSH1 0x40 MLOAD RETURNDATASIZE PUSH1 0x1F NOT PUSH1 0x1F DUP3 ADD AND DUP3 ADD DUP1 PUSH1 0x40 MSTORE POP DUP2 ADD SWAP1 PUSH2 0x3B19 SWAP2 SWAP1 PUSH2 0x43CE JUMP JUMPDEST DUP2 PUSH1 0x1 DUP2 MLOAD DUP2 LT PUSH2 0x3B3A JUMPI PUSH4 0x4E487B71 PUSH1 0xE0 SHL PUSH1 0x0 MSTORE PUSH1 0x32 PUSH1 0x4 MSTORE PUSH1 0x24 PUSH1 0x0 REVERT JUMPDEST PUSH1 0x1 PUSH1 0x1 PUSH1 0xA0 SHL SUB SWAP3 DUP4 AND PUSH1 0x20 SWAP2 DUP3 MUL SWAP3 SWAP1 SWAP3 ADD ADD MSTORE PUSH1 0x8A SLOAD PUSH2 0x3B60 SWAP2 ADDRESS SWAP2 AND DUP5 PUSH2 0x24C6 JUMP JUMPDEST PUSH1 0x8A SLOAD PUSH1 0x40 MLOAD PUSH4 0x791AC947 PUSH1 0xE0 SHL DUP2 MSTORE PUSH1 0x1 PUSH1 0x1 PUSH1 0xA0 SHL SUB SWAP1 SWAP2 AND SWAP1 PUSH4 0x791AC947 SWAP1 PUSH2 0x3B99 SWAP1 DUP6 SWAP1 PUSH1 0x0 SWAP1 DUP7 SWAP1 ADDRESS SWAP1 TIMESTAMP SWAP1 PUSH1 0x4 ADD PUSH2 0x4D43 JUMP JUMPDEST PUSH1 0x0 PUSH1 0x40 MLOAD DUP1 DUP4 SUB DUP2 PUSH1 0x0 DUP8 DUP1 EXTCODESIZE ISZERO DUP1 ISZERO PUSH2 0x3BB3 JUMPI PUSH1 0x0 DUP1 REVERT JUMPDEST POP GAS CALL ISZERO DUP1 ISZERO PUSH2 0x3BC7 JUMPI RETURNDATASIZE PUSH1 0x0 DUP1 RETURNDATACOPY RETURNDATASIZE PUSH1 0x0 REVERT JUMPDEST POP POP POP POP POP POP JUMP JUMPDEST PUSH1 0x8A SLOAD PUSH2 0x3BE7 SWAP1 ADDRESS SWAP1 PUSH1 0x1 PUSH1 0x1 PUSH1 0xA0 SHL SUB AND DUP5 PUSH2 0x24C6 JUMP JUMPDEST PUSH1 0x8A SLOAD PUSH1 0x1 PUSH1 0x1 PUSH1 0xA0 SHL SUB AND PUSH4 0xF305D719 DUP3 ADDRESS DUP6 PUSH1 0x0 DUP1 PUSH2 0x3C06 PUSH2 0x1B89 JUMP JUMPDEST TIMESTAMP PUSH1 0x40 MLOAD DUP9 PUSH4 0xFFFFFFFF AND PUSH1 0xE0 SHL DUP2 MSTORE PUSH1 0x4 ADD PUSH2 0x3C28 SWAP7 SWAP6 SWAP5 SWAP4 SWAP3 SWAP2 SWAP1 PUSH2 0x4626 JUMP JUMPDEST PUSH1 0x60 PUSH1 0x40 MLOAD DUP1 DUP4 SUB DUP2 DUP6 DUP9 DUP1 EXTCODESIZE ISZERO DUP1 ISZERO PUSH2 0x3C41 JUMPI PUSH1 0x0 DUP1 REVERT JUMPDEST POP GAS CALL ISZERO DUP1 ISZERO PUSH2 0x3C55 JUMPI RETURNDATASIZE PUSH1 0x0 DUP1 RETURNDATACOPY RETURNDATASIZE PUSH1 0x0 REVERT JUMPDEST POP POP POP POP POP PUSH1 0x40 MLOAD RETURNDATASIZE PUSH1 0x1F NOT PUSH1 0x1F DUP3 ADD AND DUP3 ADD DUP1 PUSH1 0x40 MSTORE POP DUP2 ADD SWAP1 PUSH2 0x3527 SWAP2 SWAP1 PUSH2 0x4563 JUMP JUMPDEST PUSH1 0x89 PUSH1 0x0 DUP2 SLOAD DUP2 LT PUSH2 0x3C9C JUMPI PUSH4 0x4E487B71 PUSH1 0xE0 SHL PUSH1 0x0 MSTORE PUSH1 0x32 PUSH1 0x4 MSTORE PUSH1 0x24 PUSH1 0x0 REVERT JUMPDEST PUSH1 0x0 SWAP2 DUP3 MSTORE PUSH1 0x20 DUP3 KECCAK256 PUSH1 0x7 SWAP1 SWAP2 MUL ADD DUP1 SLOAD PUSH1 0x7B SSTORE PUSH1 0x1 DUP2 ADD SLOAD PUSH1 0x7C SSTORE PUSH1 0x2 DUP2 ADD SLOAD PUSH1 0x7D SSTORE PUSH1 0x3 DUP2 ADD SLOAD PUSH1 0x7E SSTORE PUSH1 0x4 DUP2 ADD SLOAD PUSH1 0x7F SSTORE PUSH1 0x5 DUP2 ADD SLOAD PUSH1 0x80 DUP1 SLOAD PUSH1 0x1 PUSH1 0x1 PUSH1 0xA0 SHL SUB NOT SWAP1 DUP2 AND PUSH1 0x1 PUSH1 0x1 PUSH1 0xA0 SHL SUB SWAP4 DUP5 AND OR SWAP1 SWAP2 SSTORE PUSH1 0x6 SWAP1 SWAP3 ADD SLOAD PUSH1 0x81 DUP1 SLOAD SWAP1 SWAP4 AND SWAP2 AND OR SWAP1 SSTORE PUSH1 0x89 DUP1 SLOAD PUSH1 0x82 SWAP3 SWAP1 PUSH2 0x3D28 JUMPI PUSH4 0x4E487B71 PUSH1 0xE0 SHL PUSH1 0x0 MSTORE PUSH1 0x32 PUSH1 0x4 MSTORE PUSH1 0x24 PUSH1 0x0 REVERT JUMPDEST PUSH1 0x0 SWAP2 DUP3 MSTORE PUSH1 0x20 SWAP1 SWAP2 KECCAK256 DUP3 SLOAD PUSH1 0x7 SWAP1 SWAP3 MUL ADD SWAP1 DUP2 SSTORE PUSH1 0x1 DUP1 DUP4 ADD SLOAD SWAP1 DUP3 ADD SSTORE PUSH1 0x2 DUP1 DUP4 ADD SLOAD SWAP1 DUP3 ADD SSTORE PUSH1 0x3 DUP1 DUP4 ADD SLOAD SWAP1 DUP3 ADD SSTORE PUSH1 0x4 DUP1 DUP4 ADD SLOAD SWAP1 DUP3 ADD SSTORE PUSH1 0x5 DUP1 DUP4 ADD SLOAD SWAP1 DUP3 ADD DUP1 SLOAD PUSH1 0x1 PUSH1 0x1 PUSH1 0xA0 SHL SUB NOT SWAP1 DUP2 AND PUSH1 0x1 PUSH1 0x1 PUSH1 0xA0 SHL SUB SWAP4 DUP5 AND OR SWAP1 SWAP2 SSTORE PUSH1 0x6 SWAP4 DUP5 ADD SLOAD SWAP4 SWAP1 SWAP3 ADD DUP1 SLOAD SWAP1 SWAP3 AND SWAP3 AND SWAP2 SWAP1 SWAP2 OR SWAP1 SSTORE JUMP JUMPDEST PUSH1 0x0 PUSH2 0x3DB0 DUP4 DUP4 PUSH2 0x2C94 JUMP JUMPDEST PUSH1 0x1 PUSH1 0x1 PUSH1 0xA0 SHL SUB DUP7 AND PUSH1 0x0 SWAP1 DUP2 MSTORE PUSH1 0x66 PUSH1 0x20 MSTORE PUSH1 0x40 SWAP1 KECCAK256 SLOAD SWAP1 SWAP2 POP PUSH2 0x3DD6 SWAP1 DUP5 PUSH2 0x36EB JUMP JUMPDEST PUSH1 0x1 PUSH1 0x1 PUSH1 0xA0 SHL SUB DUP7 AND PUSH1 0x0 SWAP1 DUP2 MSTORE PUSH1 0x66 PUSH1 0x20 SWAP1 DUP2 MSTORE PUSH1 0x40 DUP1 DUP4 KECCAK256 SWAP4 SWAP1 SWAP4 SSTORE DUP4 MLOAD PUSH1 0x65 SWAP1 SWAP2 MSTORE SWAP2 SWAP1 KECCAK256 SLOAD PUSH2 0x3E09 SWAP2 PUSH2 0x36EB JUMP JUMPDEST PUSH1 0x1 PUSH1 0x1 PUSH1 0xA0 SHL SUB DUP1 DUP8 AND PUSH1 0x0 SWAP1 DUP2 MSTORE PUSH1 0x65 PUSH1 0x20 SWAP1 DUP2 MSTORE PUSH1 0x40 DUP1 DUP4 KECCAK256 SWAP5 SWAP1 SWAP5 SSTORE DUP5 ADD MLOAD SWAP2 DUP8 AND DUP2 MSTORE SWAP2 SWAP1 SWAP2 KECCAK256 SLOAD PUSH2 0x3E3F SWAP2 PUSH2 0x2A64 JUMP JUMPDEST PUSH1 0x1 PUSH1 0x1 PUSH1 0xA0 SHL SUB DUP6 AND PUSH1 0x0 SWAP1 DUP2 MSTORE PUSH1 0x65 PUSH1 0x20 MSTORE PUSH1 0x40 SWAP1 KECCAK256 SSTORE PUSH2 0x3E62 DUP2 DUP4 PUSH2 0x404B JUMP JUMPDEST PUSH2 0x3E74 DUP2 PUSH1 0x40 ADD MLOAD DUP3 PUSH1 0xC0 ADD MLOAD PUSH2 0x40FD JUMP JUMPDEST DUP4 PUSH1 0x1 PUSH1 0x1 PUSH1 0xA0 SHL SUB AND DUP6 PUSH1 0x1 PUSH1 0x1 PUSH1 0xA0 SHL SUB AND PUSH32 0xDDF252AD1BE2C89B69C2B068FC378DAA952BA7F163C4A11628F55A4DF523B3EF DUP4 PUSH1 0x60 ADD MLOAD PUSH1 0x40 MLOAD PUSH2 0x3EBB SWAP2 SWAP1 PUSH2 0x4D3A JUMP JUMPDEST PUSH1 0x40 MLOAD DUP1 SWAP2 SUB SWAP1 LOG3 POP POP POP POP POP JUMP JUMPDEST PUSH1 0x0 PUSH2 0x3ED6 DUP4 DUP4 PUSH2 0x2C94 JUMP JUMPDEST DUP1 MLOAD PUSH1 0x1 PUSH1 0x1 PUSH1 0xA0 SHL SUB DUP8 AND PUSH1 0x0 SWAP1 DUP2 MSTORE PUSH1 0x65 PUSH1 0x20 MSTORE PUSH1 0x40 SWAP1 KECCAK256 SLOAD SWAP2 SWAP3 POP PUSH2 0x3EFE SWAP2 SWAP1 PUSH2 0x36EB JUMP JUMPDEST PUSH1 0x1 PUSH1 0x1 PUSH1 0xA0 SHL SUB DUP1 DUP8 AND PUSH1 0x0 SWAP1 DUP2 MSTORE PUSH1 0x65 PUSH1 0x20 SWAP1 DUP2 MSTORE PUSH1 0x40 DUP1 DUP4 KECCAK256 SWAP5 SWAP1 SWAP5 SSTORE PUSH1 0x60 DUP6 ADD MLOAD SWAP3 DUP9 AND DUP3 MSTORE PUSH1 0x66 SWAP1 MSTORE SWAP2 SWAP1 SWAP2 KECCAK256 SLOAD PUSH2 0x3F3A SWAP2 PUSH2 0x2A64 JUMP JUMPDEST PUSH1 0x1 PUSH1 0x1 PUSH1 0xA0 SHL SUB DUP6 AND PUSH1 0x0 SWAP1 DUP2 MSTORE PUSH1 0x66 PUSH1 0x20 SWAP1 DUP2 MSTORE PUSH1 0x40 DUP1 DUP4 KECCAK256 SWAP4 SWAP1 SWAP4 SSTORE DUP4 DUP2 ADD MLOAD PUSH1 0x65 SWAP1 SWAP2 MSTORE SWAP2 SWAP1 KECCAK256 SLOAD PUSH2 0x3E3F SWAP2 PUSH2 0x2A64 JUMP JUMPDEST PUSH1 0x0 PUSH2 0x3F7B DUP4 DUP4 PUSH2 0x2C94 JUMP JUMPDEST DUP1 MLOAD PUSH1 0x1 PUSH1 0x1 PUSH1 0xA0 SHL SUB DUP8 AND PUSH1 0x0 SWAP1 DUP2 MSTORE PUSH1 0x65 PUSH1 0x20 MSTORE PUSH1 0x40 SWAP1 KECCAK256 SLOAD SWAP2 SWAP3 POP PUSH2 0x3E09 SWAP2 SWAP1 PUSH2 0x36EB JUMP JUMPDEST PUSH1 0x0 PUSH2 0x3FAF DUP4 DUP4 PUSH2 0x2C94 JUMP JUMPDEST PUSH1 0x1 PUSH1 0x1 PUSH1 0xA0 SHL SUB DUP7 AND PUSH1 0x0 SWAP1 DUP2 MSTORE PUSH1 0x66 PUSH1 0x20 MSTORE PUSH1 0x40 SWAP1 KECCAK256 SLOAD SWAP1 SWAP2 POP PUSH2 0x3FD5 SWAP1 DUP5 PUSH2 0x36EB JUMP JUMPDEST PUSH1 0x1 PUSH1 0x1 PUSH1 0xA0 SHL SUB DUP7 AND PUSH1 0x0 SWAP1 DUP2 MSTORE PUSH1 0x66 PUSH1 0x20 SWAP1 DUP2 MSTORE PUSH1 0x40 DUP1 DUP4 KECCAK256 SWAP4 SWAP1 SWAP4 SSTORE DUP4 MLOAD PUSH1 0x65 SWAP1 SWAP2 MSTORE SWAP2 SWAP1 KECCAK256 SLOAD PUSH2 0x3EFE SWAP2 PUSH2 0x36EB JUMP JUMPDEST PUSH1 0x7B PUSH1 0x89 PUSH1 0x0 DUP2 SLOAD DUP2 LT PUSH2 0x3D28 JUMPI PUSH4 0x4E487B71 PUSH1 0xE0 SHL PUSH1 0x0 MSTORE PUSH1 0x32 PUSH1 0x4 MSTORE PUSH1 0x24 PUSH1 0x0 REVERT JUMPDEST PUSH1 0x0 DUP2 PUSH2 0x403B JUMPI POP PUSH1 0x0 PUSH2 0xB01 JUMP JUMPDEST PUSH2 0xE7A PUSH2 0x2710 PUSH2 0x2031 DUP6 DUP6 PUSH2 0x32CE JUMP JUMPDEST PUSH2 0x4059 DUP3 PUSH1 0xA0 ADD MLOAD ADDRESS PUSH2 0x4121 JUMP JUMPDEST PUSH2 0x40A4 DUP3 PUSH1 0x80 ADD MLOAD PUSH1 0x89 DUP4 DUP2 SLOAD DUP2 LT PUSH2 0x4082 JUMPI PUSH4 0x4E487B71 PUSH1 0xE0 SHL PUSH1 0x0 MSTORE PUSH1 0x32 PUSH1 0x4 MSTORE PUSH1 0x24 PUSH1 0x0 REVERT JUMPDEST PUSH1 0x0 SWAP2 DUP3 MSTORE PUSH1 0x20 SWAP1 SWAP2 KECCAK256 PUSH1 0x5 PUSH1 0x7 SWAP1 SWAP3 MUL ADD ADD SLOAD PUSH1 0x1 PUSH1 0x1 PUSH1 0xA0 SHL SUB AND PUSH2 0x4121 JUMP JUMPDEST PUSH2 0x40EF DUP3 PUSH1 0xE0 ADD MLOAD PUSH1 0x89 DUP4 DUP2 SLOAD DUP2 LT PUSH2 0x40CD JUMPI PUSH4 0x4E487B71 PUSH1 0xE0 SHL PUSH1 0x0 MSTORE PUSH1 0x32 PUSH1 0x4 MSTORE PUSH1 0x24 PUSH1 0x0 REVERT JUMPDEST PUSH1 0x0 SWAP2 DUP3 MSTORE PUSH1 0x20 SWAP1 SWAP2 KECCAK256 PUSH1 0x6 PUSH1 0x7 SWAP1 SWAP3 MUL ADD ADD SLOAD PUSH1 0x1 PUSH1 0x1 PUSH1 0xA0 SHL SUB AND PUSH2 0x4121 JUMP JUMPDEST PUSH2 0x129F DUP3 PUSH2 0x100 ADD MLOAD PUSH2 0x41EB JUMP JUMPDEST PUSH1 0x6E SLOAD PUSH2 0x410A SWAP1 DUP4 PUSH2 0x36EB JUMP JUMPDEST PUSH1 0x6E SSTORE PUSH1 0x6F SLOAD PUSH2 0x411A SWAP1 DUP3 PUSH2 0x2A64 JUMP JUMPDEST PUSH1 0x6F SSTORE POP POP JUMP JUMPDEST PUSH1 0x1 PUSH1 0x1 PUSH1 0xA0 SHL SUB DUP2 AND PUSH2 0x4134 JUMPI PUSH2 0x129F JUMP JUMPDEST DUP2 PUSH2 0x413E JUMPI PUSH2 0x129F JUMP JUMPDEST PUSH1 0x0 PUSH2 0x4148 PUSH2 0x29A9 JUMP JUMPDEST SWAP1 POP PUSH1 0x0 PUSH2 0x4156 DUP5 DUP4 PUSH2 0x32CE JUMP JUMPDEST PUSH1 0x1 PUSH1 0x1 PUSH1 0xA0 SHL SUB DUP5 AND PUSH1 0x0 SWAP1 DUP2 MSTORE PUSH1 0x65 PUSH1 0x20 MSTORE PUSH1 0x40 SWAP1 KECCAK256 SLOAD SWAP1 SWAP2 POP PUSH2 0x417C SWAP1 DUP3 PUSH2 0x2A64 JUMP JUMPDEST PUSH1 0x1 PUSH1 0x1 PUSH1 0xA0 SHL SUB DUP5 AND PUSH1 0x0 SWAP1 DUP2 MSTORE PUSH1 0x65 PUSH1 0x20 SWAP1 DUP2 MSTORE PUSH1 0x40 DUP1 DUP4 KECCAK256 SWAP4 SWAP1 SWAP4 SSTORE PUSH1 0x69 SWAP1 MSTORE KECCAK256 SLOAD PUSH1 0xFF AND ISZERO PUSH2 0x10BF JUMPI PUSH1 0x1 PUSH1 0x1 PUSH1 0xA0 SHL SUB DUP4 AND PUSH1 0x0 SWAP1 DUP2 MSTORE PUSH1 0x66 PUSH1 0x20 MSTORE PUSH1 0x40 SWAP1 KECCAK256 SLOAD PUSH2 0x41CC SWAP1 DUP6 PUSH2 0x2A64 JUMP JUMPDEST PUSH1 0x1 PUSH1 0x1 PUSH1 0xA0 SHL SUB DUP5 AND PUSH1 0x0 SWAP1 DUP2 MSTORE PUSH1 0x66 PUSH1 0x20 MSTORE PUSH1 0x40 SWAP1 KECCAK256 SSTORE POP POP POP POP JUMP JUMPDEST DUP1 PUSH2 0x41F5 JUMPI PUSH2 0x2DF1 JUMP JUMPDEST PUSH1 0x8F SLOAD PUSH1 0x1 PUSH1 0x1 PUSH1 0xA0 SHL SUB AND PUSH1 0x0 SWAP1 DUP2 MSTORE PUSH1 0x66 PUSH1 0x20 MSTORE PUSH1 0x40 SWAP1 KECCAK256 SLOAD PUSH2 0x421A SWAP1 DUP3 PUSH2 0x2A64 JUMP JUMPDEST PUSH1 0x8F SLOAD PUSH1 0x1 PUSH1 0x1 PUSH1 0xA0 SHL SUB AND PUSH1 0x0 SWAP1 DUP2 MSTORE PUSH1 0x66 PUSH1 0x20 MSTORE PUSH1 0x40 SWAP1 KECCAK256 SSTORE POP JUMP JUMPDEST PUSH1 0x40 MLOAD DUP1 PUSH1 0xE0 ADD PUSH1 0x40 MSTORE DUP1 PUSH1 0x0 DUP2 MSTORE PUSH1 0x20 ADD PUSH1 0x0 DUP2 MSTORE PUSH1 0x20 ADD PUSH1 0x0 DUP2 MSTORE PUSH1 0x20 ADD PUSH1 0x0 DUP2 MSTORE PUSH1 0x20 ADD PUSH1 0x0 DUP2 MSTORE PUSH1 0x20 ADD PUSH1 0x0 PUSH1 0x1 PUSH1 0x1 PUSH1 0xA0 SHL SUB AND DUP2 MSTORE PUSH1 0x20 ADD PUSH1 0x0 PUSH1 0x1 PUSH1 0x1 PUSH1 0xA0 SHL SUB AND DUP2 MSTORE POP SWAP1 JUMP JUMPDEST PUSH1 0x40 MLOAD DUP1 PUSH2 0x120 ADD PUSH1 0x40 MSTORE DUP1 PUSH1 0x0 DUP2 MSTORE PUSH1 0x20 ADD PUSH1 0x0 DUP2 MSTORE PUSH1 0x20 ADD PUSH1 0x0 DUP2 MSTORE PUSH1 0x20 ADD PUSH1 0x0 DUP2 MSTORE PUSH1 0x20 ADD PUSH1 0x0 DUP2 MSTORE PUSH1 0x20 ADD PUSH1 0x0 DUP2 MSTORE PUSH1 0x20 ADD PUSH1 0x0 DUP2 MSTORE PUSH1 0x20 ADD PUSH1 0x0 DUP2 MSTORE PUSH1 0x20 ADD PUSH1 0x0 DUP2 MSTORE POP SWAP1 JUMP JUMPDEST DUP3 DUP1 SLOAD PUSH2 0x42DF SWAP1 PUSH2 0x4E75 JUMP JUMPDEST SWAP1 PUSH1 0x0 MSTORE PUSH1 0x20 PUSH1 0x0 KECCAK256 SWAP1 PUSH1 0x1F ADD PUSH1 0x20 SWAP1 DIV DUP2 ADD SWAP3 DUP3 PUSH2 0x4301 JUMPI PUSH1 0x0 DUP6 SSTORE PUSH2 0x4347 JUMP JUMPDEST DUP3 PUSH1 0x1F LT PUSH2 0x431A JUMPI DUP1 MLOAD PUSH1 0xFF NOT AND DUP4 DUP1 ADD OR DUP6 SSTORE PUSH2 0x4347 JUMP JUMPDEST DUP3 DUP1 ADD PUSH1 0x1 ADD DUP6 SSTORE DUP3 ISZERO PUSH2 0x4347 JUMPI SWAP2 DUP3 ADD JUMPDEST DUP3 DUP2 GT ISZERO PUSH2 0x4347 JUMPI DUP3 MLOAD DUP3 SSTORE SWAP2 PUSH1 0x20 ADD SWAP2 SWAP1 PUSH1 0x1 ADD SWAP1 PUSH2 0x432C JUMP JUMPDEST POP PUSH2 0x4353 SWAP3 SWAP2 POP PUSH2 0x438D JUMP JUMPDEST POP SWAP1 JUMP JUMPDEST PUSH1 0x40 MLOAD DUP1 PUSH1 0xC0 ADD PUSH1 0x40 MSTORE DUP1 PUSH1 0x0 DUP2 MSTORE PUSH1 0x20 ADD PUSH1 0x0 DUP2 MSTORE PUSH1 0x20 ADD PUSH1 0x0 DUP2 MSTORE PUSH1 0x20 ADD PUSH1 0x0 DUP2 MSTORE PUSH1 0x20 ADD PUSH1 0x0 DUP2 MSTORE PUSH1 0x20 ADD PUSH1 0x0 DUP2 MSTORE POP SWAP1 JUMP JUMPDEST JUMPDEST DUP1 DUP3 GT ISZERO PUSH2 0x4353 JUMPI PUSH1 0x0 DUP2 SSTORE PUSH1 0x1 ADD PUSH2 0x438E JUMP JUMPDEST DUP1 CALLDATALOAD DUP1 ISZERO ISZERO DUP2 EQ PUSH2 0xEBF JUMPI PUSH1 0x0 DUP1 REVERT JUMPDEST PUSH1 0x0 PUSH1 0x20 DUP3 DUP5 SUB SLT ISZERO PUSH2 0x43C3 JUMPI DUP1 DUP2 REVERT JUMPDEST DUP2 CALLDATALOAD PUSH2 0xE7A DUP2 PUSH2 0x4F05 JUMP JUMPDEST PUSH1 0x0 PUSH1 0x20 DUP3 DUP5 SUB SLT ISZERO PUSH2 0x43DF JUMPI DUP1 DUP2 REVERT JUMPDEST DUP2 MLOAD PUSH2 0xE7A DUP2 PUSH2 0x4F05 JUMP JUMPDEST PUSH1 0x0 DUP1 PUSH1 0x40 DUP4 DUP6 SUB SLT ISZERO PUSH2 0x43FC JUMPI DUP1 DUP2 REVERT JUMPDEST DUP3 CALLDATALOAD PUSH2 0x4407 DUP2 PUSH2 0x4F05 JUMP JUMPDEST SWAP2 POP PUSH1 0x20 DUP4 ADD CALLDATALOAD PUSH2 0x4417 DUP2 PUSH2 0x4F05 JUMP JUMPDEST DUP1 SWAP2 POP POP SWAP3 POP SWAP3 SWAP1 POP JUMP JUMPDEST PUSH1 0x0 DUP1 PUSH1 0x0 PUSH1 0x60 DUP5 DUP7 SUB SLT ISZERO PUSH2 0x4436 JUMPI DUP1 DUP2 REVERT JUMPDEST DUP4 CALLDATALOAD PUSH2 0x4441 DUP2 PUSH2 0x4F05 JUMP JUMPDEST SWAP3 POP PUSH1 0x20 DUP5 ADD CALLDATALOAD PUSH2 0x4451 DUP2 PUSH2 0x4F05 JUMP JUMPDEST SWAP3 SWAP6 SWAP3 SWAP5 POP POP POP PUSH1 0x40 SWAP2 SWAP1 SWAP2 ADD CALLDATALOAD SWAP1 JUMP JUMPDEST PUSH1 0x0 DUP1 PUSH1 0x40 DUP4 DUP6 SUB SLT ISZERO PUSH2 0x4474 JUMPI DUP2 DUP3 REVERT JUMPDEST DUP3 CALLDATALOAD PUSH2 0x447F DUP2 PUSH2 0x4F05 JUMP JUMPDEST SWAP5 PUSH1 0x20 SWAP4 SWAP1 SWAP4 ADD CALLDATALOAD SWAP4 POP POP POP JUMP JUMPDEST PUSH1 0x0 PUSH1 0x20 DUP3 DUP5 SUB SLT ISZERO PUSH2 0x449E JUMPI DUP1 DUP2 REVERT JUMPDEST PUSH2 0xE7A DUP3 PUSH2 0x43A2 JUMP JUMPDEST PUSH1 0x0 PUSH1 0x20 DUP3 DUP5 SUB SLT ISZERO PUSH2 0x44B8 JUMPI DUP1 DUP2 REVERT JUMPDEST POP CALLDATALOAD SWAP2 SWAP1 POP JUMP JUMPDEST PUSH1 0x0 DUP1 PUSH1 0x40 DUP4 DUP6 SUB SLT ISZERO PUSH2 0x44D1 JUMPI DUP2 DUP3 REVERT JUMPDEST DUP3 CALLDATALOAD SWAP2 POP PUSH1 0x20 DUP4 ADD CALLDATALOAD PUSH2 0x4417 DUP2 PUSH2 0x4F05 JUMP JUMPDEST PUSH1 0x0 DUP1 PUSH1 0x40 DUP4 DUP6 SUB SLT ISZERO PUSH2 0x44F5 JUMPI DUP2 DUP3 REVERT JUMPDEST DUP3 CALLDATALOAD SWAP2 POP PUSH2 0x4505 PUSH1 0x20 DUP5 ADD PUSH2 0x43A2 JUMP JUMPDEST SWAP1 POP SWAP3 POP SWAP3 SWAP1 POP JUMP JUMPDEST PUSH1 0x0 DUP1 PUSH1 0x40 DUP4 DUP6 SUB SLT ISZERO PUSH2 0x4520 JUMPI DUP2 DUP3 REVERT JUMPDEST POP POP DUP1 CALLDATALOAD SWAP3 PUSH1 0x20 SWAP1 SWAP2 ADD CALLDATALOAD SWAP2 POP JUMP JUMPDEST PUSH1 0x0 DUP1 PUSH1 0x0 PUSH1 0x60 DUP5 DUP7 SUB SLT ISZERO PUSH2 0x4543 JUMPI DUP3 DUP4 REVERT JUMPDEST DUP4 CALLDATALOAD SWAP3 POP PUSH1 0x20 DUP5 ADD CALLDATALOAD SWAP2 POP PUSH2 0x455A PUSH1 0x40 DUP6 ADD PUSH2 0x43A2 JUMP JUMPDEST SWAP1 POP SWAP3 POP SWAP3 POP SWAP3 JUMP JUMPDEST PUSH1 0x0 DUP1 PUSH1 0x0 PUSH1 0x60 DUP5 DUP7 SUB SLT ISZERO PUSH2 0x4577 JUMPI DUP3 DUP4 REVERT JUMPDEST DUP4 MLOAD SWAP3 POP PUSH1 0x20 DUP5 ADD MLOAD SWAP2 POP PUSH1 0x40 DUP5 ADD MLOAD SWAP1 POP SWAP3 POP SWAP3 POP SWAP3 JUMP JUMPDEST PUSH1 0x0 DUP1 PUSH1 0x0 DUP1 PUSH1 0x0 DUP1 PUSH1 0x0 PUSH1 0xE0 DUP9 DUP11 SUB SLT ISZERO PUSH2 0x45AA JUMPI DUP3 DUP4 REVERT JUMPDEST DUP8 CALLDATALOAD SWAP7 POP PUSH1 0x20 DUP9 ADD CALLDATALOAD SWAP6 POP PUSH1 0x40 DUP9 ADD CALLDATALOAD SWAP5 POP PUSH1 0x60 DUP9 ADD CALLDATALOAD SWAP4 POP PUSH1 0x80 DUP9 ADD CALLDATALOAD SWAP3 POP PUSH1 0xA0 DUP9 ADD CALLDATALOAD PUSH2 0x45D8 DUP2 PUSH2 0x4F05 JUMP JUMPDEST SWAP2 POP PUSH1 0xC0 DUP9 ADD CALLDATALOAD PUSH2 0x45E8 DUP2 PUSH2 0x4F05 JUMP JUMPDEST DUP1 SWAP2 POP POP SWAP3 SWAP6 SWAP9 SWAP2 SWAP5 SWAP8 POP SWAP3 SWAP6 POP JUMP JUMPDEST PUSH1 0x1 PUSH1 0x1 PUSH1 0xA0 SHL SUB SWAP2 SWAP1 SWAP2 AND DUP2 MSTORE PUSH1 0x20 ADD SWAP1 JUMP JUMPDEST PUSH1 0x1 PUSH1 0x1 PUSH1 0xA0 SHL SUB SWAP3 DUP4 AND DUP2 MSTORE SWAP2 AND PUSH1 0x20 DUP3 ADD MSTORE PUSH1 0x40 ADD SWAP1 JUMP JUMPDEST PUSH1 0x1 PUSH1 0x1 PUSH1 0xA0 SHL SUB SWAP7 DUP8 AND DUP2 MSTORE PUSH1 0x20 DUP2 ADD SWAP6 SWAP1 SWAP6 MSTORE PUSH1 0x40 DUP6 ADD SWAP4 SWAP1 SWAP4 MSTORE PUSH1 0x60 DUP5 ADD SWAP2 SWAP1 SWAP2 MSTORE SWAP1 SWAP3 AND PUSH1 0x80 DUP3 ADD MSTORE PUSH1 0xA0 DUP2 ADD SWAP2 SWAP1 SWAP2 MSTORE PUSH1 0xC0 ADD SWAP1 JUMP JUMPDEST SWAP1 ISZERO ISZERO DUP2 MSTORE PUSH1 0x20 ADD SWAP1 JUMP JUMPDEST PUSH1 0x0 PUSH1 0x20 DUP1 DUP4 MSTORE DUP4 MLOAD DUP1 DUP3 DUP6 ADD MSTORE DUP3 JUMPDEST DUP2 DUP2 LT ISZERO PUSH2 0x4698 JUMPI DUP6 DUP2 ADD DUP4 ADD MLOAD DUP6 DUP3 ADD PUSH1 0x40 ADD MSTORE DUP3 ADD PUSH2 0x467C JUMP JUMPDEST DUP2 DUP2 GT ISZERO PUSH2 0x46A9 JUMPI DUP4 PUSH1 0x40 DUP4 DUP8 ADD ADD MSTORE JUMPDEST POP PUSH1 0x1F ADD PUSH1 0x1F NOT AND SWAP3 SWAP1 SWAP3 ADD PUSH1 0x40 ADD SWAP4 SWAP3 POP POP POP JUMP JUMPDEST PUSH1 0x20 DUP1 DUP3 MSTORE PUSH1 0x25 SWAP1 DUP3 ADD MSTORE PUSH32 0x42455032303A207472616E736665722066726F6D20746865207A65726F206164 PUSH1 0x40 DUP3 ADD MSTORE PUSH5 0x6472657373 PUSH1 0xD8 SHL PUSH1 0x60 DUP3 ADD MSTORE PUSH1 0x80 ADD SWAP1 JUMP JUMPDEST PUSH1 0x20 DUP1 DUP3 MSTORE PUSH1 0x24 SWAP1 DUP3 ADD MSTORE PUSH32 0x42455032303A20617070726F76652066726F6D20746865207A65726F20616464 PUSH1 0x40 DUP3 ADD MSTORE PUSH4 0x72657373 PUSH1 0xE0 SHL PUSH1 0x60 DUP3 ADD MSTORE PUSH1 0x80 ADD SWAP1 JUMP JUMPDEST PUSH1 0x20 DUP1 DUP3 MSTORE PUSH1 0x2A SWAP1 DUP3 ADD MSTORE PUSH32 0x416D6F756E74206D757374206265206C657373207468616E20746F74616C2072 PUSH1 0x40 DUP3 ADD MSTORE PUSH10 0x65666C656374696F6E73 PUSH1 0xB0 SHL PUSH1 0x60 DUP3 ADD MSTORE PUSH1 0x80 ADD SWAP1 JUMP JUMPDEST PUSH1 0x20 DUP1 DUP3 MSTORE PUSH1 0x26 SWAP1 DUP3 ADD MSTORE PUSH32 0x4F776E61626C653A206E6577206F776E657220697320746865207A65726F2061 PUSH1 0x40 DUP3 ADD MSTORE PUSH6 0x646472657373 PUSH1 0xD0 SHL PUSH1 0x60 DUP3 ADD MSTORE PUSH1 0x80 ADD SWAP1 JUMP JUMPDEST PUSH1 0x20 DUP1 DUP3 MSTORE PUSH1 0x1B SWAP1 DUP3 ADD MSTORE PUSH32 0x536166654D6174683A206164646974696F6E206F766572666C6F770000000000 PUSH1 0x40 DUP3 ADD MSTORE PUSH1 0x60 ADD SWAP1 JUMP JUMPDEST PUSH1 0x20 DUP1 DUP3 MSTORE PUSH1 0x1B SWAP1 DUP3 ADD MSTORE PUSH32 0x4163636F756E7420697320616C7265616479206578636C756465640000000000 PUSH1 0x40 DUP3 ADD MSTORE PUSH1 0x60 ADD SWAP1 JUMP JUMPDEST PUSH1 0x20 DUP1 DUP3 MSTORE PUSH1 0x1E SWAP1 DUP3 ADD MSTORE PUSH32 0x536166654D6174683A207375627472616374696F6E206F766572666C6F770000 PUSH1 0x40 DUP3 ADD MSTORE PUSH1 0x60 ADD SWAP1 JUMP JUMPDEST PUSH1 0x20 DUP1 DUP3 MSTORE PUSH1 0x1B SWAP1 DUP3 ADD MSTORE PUSH32 0x4163636F756E7420697320616C726561647920696E636C756465640000000000 PUSH1 0x40 DUP3 ADD MSTORE PUSH1 0x60 ADD SWAP1 JUMP JUMPDEST PUSH1 0x20 DUP1 DUP3 MSTORE PUSH1 0x1A SWAP1 DUP3 ADD MSTORE PUSH32 0x536166654D6174683A206469766973696F6E206279207A65726F000000000000 PUSH1 0x40 DUP3 ADD MSTORE PUSH1 0x60 ADD SWAP1 JUMP JUMPDEST PUSH1 0x20 DUP1 DUP3 MSTORE PUSH1 0x1F SWAP1 DUP3 ADD MSTORE PUSH32 0x416D6F756E74206D757374206265206C657373207468616E20737570706C7900 PUSH1 0x40 DUP3 ADD MSTORE PUSH1 0x60 ADD SWAP1 JUMP JUMPDEST PUSH1 0x20 DUP1 DUP3 MSTORE PUSH1 0x28 SWAP1 DUP3 ADD MSTORE PUSH32 0x5472616E7366657220616D6F756E74206578636565647320746865206D617854 PUSH1 0x40 DUP3 ADD MSTORE PUSH8 0x3C20B6B7BAB73A17 PUSH1 0xC1 SHL PUSH1 0x60 DUP3 ADD MSTORE PUSH1 0x80 ADD SWAP1 JUMP JUMPDEST PUSH1 0x20 DUP1 DUP3 MSTORE PUSH1 0x2E SWAP1 DUP3 ADD MSTORE PUSH32 0x496E697469616C697A61626C653A20636F6E747261637420697320616C726561 PUSH1 0x40 DUP3 ADD MSTORE PUSH14 0x191E481A5B9A5D1A585B1A5E9959 PUSH1 0x92 SHL PUSH1 0x60 DUP3 ADD MSTORE PUSH1 0x80 ADD SWAP1 JUMP JUMPDEST PUSH1 0x20 DUP1 DUP3 MSTORE PUSH1 0x15 SWAP1 DUP3 ADD MSTORE PUSH21 0x14D859995B5BDBDB8E88139BDD08105B1B1BDDD959 PUSH1 0x5A SHL PUSH1 0x40 DUP3 ADD MSTORE PUSH1 0x60 ADD SWAP1 JUMP JUMPDEST PUSH1 0x20 DUP1 DUP3 MSTORE PUSH1 0x1C SWAP1 DUP3 ADD MSTORE PUSH32 0x536166656D6F6F6E3A20496E76616C6964207469657220696E64657800000000 PUSH1 0x40 DUP3 ADD MSTORE PUSH1 0x60 ADD SWAP1 JUMP JUMPDEST PUSH1 0x20 DUP1 DUP3 MSTORE PUSH1 0x21 SWAP1 DUP3 ADD MSTORE PUSH32 0x536166654D6174683A206D756C7469706C69636174696F6E206F766572666C6F PUSH1 0x40 DUP3 ADD MSTORE PUSH1 0x77 PUSH1 0xF8 SHL PUSH1 0x60 DUP3 ADD MSTORE PUSH1 0x80 ADD SWAP1 JUMP JUMPDEST PUSH1 0x20 DUP1 DUP3 MSTORE PUSH1 0x1F SWAP1 DUP3 ADD MSTORE PUSH32 0x42455032303A206D696E7420746F20746865207A65726F206164647265737300 PUSH1 0x40 DUP3 ADD MSTORE PUSH1 0x60 ADD SWAP1 JUMP JUMPDEST PUSH1 0x20 DUP1 DUP3 MSTORE DUP2 DUP2 ADD MSTORE PUSH32 0x4F776E61626C653A2063616C6C6572206973206E6F7420746865206F776E6572 PUSH1 0x40 DUP3 ADD MSTORE PUSH1 0x60 ADD SWAP1 JUMP JUMPDEST PUSH1 0x20 DUP1 DUP3 MSTORE PUSH1 0x19 SWAP1 DUP3 ADD MSTORE PUSH32 0x536166656D6F6F6E3A20496E76616C6964206164647265737300000000000000 PUSH1 0x40 DUP3 ADD MSTORE PUSH1 0x60 ADD SWAP1 JUMP JUMPDEST PUSH1 0x20 DUP1 DUP3 MSTORE PUSH1 0x29 SWAP1 DUP3 ADD MSTORE PUSH32 0x5472616E7366657220616D6F756E74206D757374206265206772656174657220 PUSH1 0x40 DUP3 ADD MSTORE PUSH9 0x7468616E207A65726F PUSH1 0xB8 SHL PUSH1 0x60 DUP3 ADD MSTORE PUSH1 0x80 ADD SWAP1 JUMP JUMPDEST PUSH1 0x20 DUP1 DUP3 MSTORE PUSH1 0x22 SWAP1 DUP3 ADD MSTORE PUSH32 0x536166656D6F6F6E3A204D6967726174696F6E206973206E6F74207374617274 PUSH1 0x40 DUP3 ADD MSTORE PUSH2 0x1959 PUSH1 0xF2 SHL PUSH1 0x60 DUP3 ADD MSTORE PUSH1 0x80 ADD SWAP1 JUMP JUMPDEST PUSH1 0x20 DUP1 DUP3 MSTORE PUSH1 0x25 SWAP1 DUP3 ADD MSTORE PUSH32 0x536166656D6F6F6E3A2041646472657373205A65726F206973206E6F7420616C PUSH1 0x40 DUP3 ADD MSTORE PUSH5 0x1B1BDDD959 PUSH1 0xDA SHL PUSH1 0x60 DUP3 ADD MSTORE PUSH1 0x80 ADD SWAP1 JUMP JUMPDEST PUSH1 0x20 DUP1 DUP3 MSTORE PUSH1 0x23 SWAP1 DUP3 ADD MSTORE PUSH32 0x42455032303A207472616E7366657220746F20746865207A65726F2061646472 PUSH1 0x40 DUP3 ADD MSTORE PUSH3 0x657373 PUSH1 0xE8 SHL PUSH1 0x60 DUP3 ADD MSTORE PUSH1 0x80 ADD SWAP1 JUMP JUMPDEST PUSH1 0x20 DUP1 DUP3 MSTORE PUSH1 0x25 SWAP1 DUP3 ADD MSTORE PUSH32 0x536166656D6F6F6E3A204163636F756E74206973206E6F7420696E2077686974 PUSH1 0x40 DUP3 ADD MSTORE PUSH5 0x195B1A5CDD PUSH1 0xDA SHL PUSH1 0x60 DUP3 ADD MSTORE PUSH1 0x80 ADD SWAP1 JUMP JUMPDEST PUSH1 0x20 DUP1 DUP3 MSTORE PUSH1 0x26 SWAP1 DUP3 ADD MSTORE PUSH32 0x536166656D6F6F6E3A2046656573206578636565646564206D6178206C696D69 PUSH1 0x40 DUP3 ADD MSTORE PUSH6 0x3A30BA34B7B7 PUSH1 0xD1 SHL PUSH1 0x60 DUP3 ADD MSTORE PUSH1 0x80 ADD SWAP1 JUMP JUMPDEST PUSH1 0x20 DUP1 DUP3 MSTORE PUSH1 0x22 SWAP1 DUP3 ADD MSTORE PUSH32 0x42455032303A20617070726F766520746F20746865207A65726F206164647265 PUSH1 0x40 DUP3 ADD MSTORE PUSH2 0x7373 PUSH1 0xF0 SHL PUSH1 0x60 DUP3 ADD MSTORE PUSH1 0x80 ADD SWAP1 JUMP JUMPDEST DUP2 MLOAD DUP2 MSTORE PUSH1 0x20 DUP1 DUP4 ADD MLOAD SWAP1 DUP3 ADD MSTORE PUSH1 0x40 DUP1 DUP4 ADD MLOAD SWAP1 DUP3 ADD MSTORE PUSH1 0x60 DUP1 DUP4 ADD MLOAD SWAP1 DUP3 ADD MSTORE PUSH1 0x80 DUP1 DUP4 ADD MLOAD SWAP1 DUP3 ADD MSTORE PUSH1 0xA0 DUP1 DUP4 ADD MLOAD PUSH1 0x1 PUSH1 0x1 PUSH1 0xA0 SHL SUB SWAP1 DUP2 AND SWAP2 DUP4 ADD SWAP2 SWAP1 SWAP2 MSTORE PUSH1 0xC0 SWAP3 DUP4 ADD MLOAD AND SWAP2 DUP2 ADD SWAP2 SWAP1 SWAP2 MSTORE PUSH1 0xE0 ADD SWAP1 JUMP JUMPDEST SWAP1 DUP2 MSTORE PUSH1 0x20 ADD SWAP1 JUMP JUMPDEST PUSH1 0x0 PUSH1 0xA0 DUP3 ADD DUP8 DUP4 MSTORE PUSH1 0x20 DUP8 DUP2 DUP6 ADD MSTORE PUSH1 0xA0 PUSH1 0x40 DUP6 ADD MSTORE DUP2 DUP8 MLOAD DUP1 DUP5 MSTORE PUSH1 0xC0 DUP7 ADD SWAP2 POP DUP3 DUP10 ADD SWAP4 POP DUP5 JUMPDEST DUP2 DUP2 LT ISZERO PUSH2 0x4D92 JUMPI DUP5 MLOAD PUSH1 0x1 PUSH1 0x1 PUSH1 0xA0 SHL SUB AND DUP4 MSTORE SWAP4 DUP4 ADD SWAP4 SWAP2 DUP4 ADD SWAP2 PUSH1 0x1 ADD PUSH2 0x4D6D JUMP JUMPDEST POP POP PUSH1 0x1 PUSH1 0x1 PUSH1 0xA0 SHL SUB SWAP7 SWAP1 SWAP7 AND PUSH1 0x60 DUP6 ADD MSTORE POP POP POP PUSH1 0x80 ADD MSTORE SWAP4 SWAP3 POP POP POP JUMP JUMPDEST SWAP3 DUP4 MSTORE PUSH1 0x20 DUP4 ADD SWAP2 SWAP1 SWAP2 MSTORE PUSH1 0x40 DUP3 ADD MSTORE PUSH1 0x60 ADD SWAP1 JUMP JUMPDEST SWAP7 DUP8 MSTORE PUSH1 0x20 DUP8 ADD SWAP6 SWAP1 SWAP6 MSTORE PUSH1 0x40 DUP7 ADD SWAP4 SWAP1 SWAP4 MSTORE PUSH1 0x60 DUP6 ADD SWAP2 SWAP1 SWAP2 MSTORE PUSH1 0x80 DUP5 ADD MSTORE PUSH1 0x1 PUSH1 0x1 PUSH1 0xA0 SHL SUB SWAP1 DUP2 AND PUSH1 0xA0 DUP5 ADD MSTORE AND PUSH1 0xC0 DUP3 ADD MSTORE PUSH1 0xE0 ADD SWAP1 JUMP JUMPDEST PUSH1 0xFF SWAP2 SWAP1 SWAP2 AND DUP2 MSTORE PUSH1 0x20 ADD SWAP1 JUMP JUMPDEST PUSH1 0x0 DUP3 NOT DUP3 GT ISZERO PUSH2 0x4E26 JUMPI PUSH2 0x4E26 PUSH2 0x4ED9 JUMP JUMPDEST POP ADD SWAP1 JUMP JUMPDEST PUSH1 0x0 DUP3 PUSH2 0x4E3A JUMPI PUSH2 0x4E3A PUSH2 0x4EEF JUMP JUMPDEST POP DIV SWAP1 JUMP JUMPDEST PUSH1 0x0 DUP2 PUSH1 0x0 NOT DIV DUP4 GT DUP3 ISZERO ISZERO AND ISZERO PUSH2 0x4E59 JUMPI PUSH2 0x4E59 PUSH2 0x4ED9 JUMP JUMPDEST POP MUL SWAP1 JUMP JUMPDEST PUSH1 0x0 DUP3 DUP3 LT ISZERO PUSH2 0x4E70 JUMPI PUSH2 0x4E70 PUSH2 0x4ED9 JUMP JUMPDEST POP SUB SWAP1 JUMP JUMPDEST PUSH1 0x2 DUP2 DIV PUSH1 0x1 DUP3 AND DUP1 PUSH2 0x4E89 JUMPI PUSH1 0x7F DUP3 AND SWAP2 POP JUMPDEST PUSH1 0x20 DUP3 LT DUP2 EQ ISZERO PUSH2 0xCE0 JUMPI PUSH4 0x4E487B71 PUSH1 0xE0 SHL PUSH1 0x0 MSTORE PUSH1 0x22 PUSH1 0x4 MSTORE PUSH1 0x24 PUSH1 0x0 REVERT JUMPDEST PUSH1 0x0 PUSH1 0x0 NOT DUP3 EQ ISZERO PUSH2 0x4EBE JUMPI PUSH2 0x4EBE PUSH2 0x4ED9 JUMP JUMPDEST POP PUSH1 0x1 ADD SWAP1 JUMP JUMPDEST PUSH1 0x0 DUP3 PUSH2 0x4ED4 JUMPI PUSH2 0x4ED4 PUSH2 0x4EEF JUMP JUMPDEST POP MOD SWAP1 JUMP JUMPDEST PUSH4 0x4E487B71 PUSH1 0xE0 SHL PUSH1 0x0 MSTORE PUSH1 0x11 PUSH1 0x4 MSTORE PUSH1 0x24 PUSH1 0x0 REVERT JUMPDEST PUSH4 0x4E487B71 PUSH1 0xE0 SHL PUSH1 0x0 MSTORE PUSH1 0x12 PUSH1 0x4 MSTORE PUSH1 0x24 PUSH1 0x0 REVERT JUMPDEST PUSH1 0x1 PUSH1 0x1 PUSH1 0xA0 SHL SUB DUP2 AND DUP2 EQ PUSH2 0x2DF1 JUMPI PUSH1 0x0 DUP1 REVERT INVALID MSTORE8 PUSH2 0x6665 PUSH14 0x6F6F6E3A2046726F6D2061646472 PUSH6 0x737320697320 PUSH3 0x6C6163 PUSH12 0x6C6973746564536166656D6F PUSH16 0x6E3A205370656E646572206164647265 PUSH20 0x7320697320626C61636B6C697374656442455032 ADDRESS GASPRICE KECCAK256 PUSH21 0x72616E7366657220616D6F756E7420657863656564 PUSH20 0x20616C6C6F77616E6365536166656D6F6F6E3A20 SLOAD PUSH16 0x206164647265737320697320626C6163 PUSH12 0x6C6973746564536166656D6F PUSH16 0x6E3A204F776E65722061646472657373 KECCAK256 PUSH10 0x7320626C61636B6C6973 PUSH21 0x656442455032303A2064656372656173656420616C PUSH13 0x6F77616E63652062656C6F7720 PUSH27 0x65726F536166656D6F6F6E3A2053656C6563746564206163636F75 PUSH15 0x7420697320696E20626C61636B6C69 PUSH20 0x74A26469706673582212204F565EF6E578D30738 PUSH27 0x392803360C21AAF600BD2B8FA88559778C92F8CC766064736F6C63 NUMBER STOP ADDMOD STOP STOP CALLER "
        },
        "methodIdentifiers": {
          "WBNB()": "8dd95002",
          "_burnAddress()": "bd3900c0",
          "_defaultFees()": "dfd66cb3",
          "_maxTxAmount()": "7d1db4a5",
          "accountTier(address)": "30127334",
          "addTier(uint256,uint256,uint256,uint256,uint256,address,address)": "4ffc1425",
          "allowance(address,address)": "dd62ed3e",
          "approve(address,uint256)": "095ea7b3",
          "balanceOf(address)": "70a08231",
          "blacklistAddress(address)": "f3290d75",
          "decimals()": "313ce567",
          "decreaseAllowance(address,uint256)": "a457c2d7",
          "excludeFromFee(address)": "437823ec",
          "excludeFromReward(address)": "52390c02",
          "excludeWhitelistedAddress(address)": "10844953",
          "feeTier(uint256)": "140c5759",
          "feeTiersLength()": "11b32601",
          "includeInFee(address)": "ea2f0b37",
          "includeInReward(address)": "3685d419",
          "increaseAllowance(address,uint256)": "39509351",
          "initialize(address)": "c4d66de8",
          "isBlacklisted(address)": "fe575a87",
          "isExcludedFromFee(address)": "5342acb4",
          "isExcludedFromReward(address)": "88f82020",
          "isMigrationStarted()": "60d0eb73",
          "isWhitelisted(address)": "3af32abf",
          "migrate(address,uint256)": "ad68ebf7",
          "name()": "06fdde03",
          "owner()": "8da5cb5b",
          "reflectionFromToken(uint256,bool)": "4549b039",
          "reflectionFromTokenInTiers(uint256,uint256,bool)": "bf266469",
          "renounceOwnership()": "715018a6",
          "setBurnFeePercent(uint256,uint256)": "8fc3d4b8",
          "setDefaultSettings()": "132af75c",
          "setEcoSystemFeeAddress(uint256,address)": "7ed948f7",
          "setEcoSystemFeePercent(uint256,uint256)": "39aa1bba",
          "setLiquidityFeePercent(uint256,uint256)": "f2d58c23",
          "setMaxTxPercent(uint256)": "d543dbeb",
          "setMigrationAddress(address)": "4732a7dc",
          "setOwnerFeeAddress(uint256,address)": "8af319c7",
          "setOwnerFeePercent(uint256,uint256)": "d66329b0",
          "setSwapAndLiquifyEnabled(bool)": "c49b9a80",
          "setTaxFeePercent(uint256,uint256)": "30b263ba",
          "swapAndLiquifyEnabled()": "4a74bb02",
          "symbol()": "95d89b41",
          "tokenFromReflection(uint256)": "2d838119",
          "totalFees()": "13114a9d",
          "totalSupply()": "18160ddd",
          "transfer(address,uint256)": "a9059cbb",
          "transferFrom(address,address,uint256)": "23b872dd",
          "transferOwnership(address)": "f2fde38b",
          "unBlacklistAddress(address)": "d40cf659",
          "uniswapV2Pair()": "49bd5a5e",
          "uniswapV2Router()": "1694505e",
          "updateBurnAddress(address)": "6bd89cdd",
          "updateRouterAndPair(address,address)": "40b28c2f",
          "whitelistAddress(address,uint256)": "200c7295"
        }
      },
      "storageLayout": {
        "storage": [
          {
            "astId": 598,
            "contract": "contracts/SFMR.sol:SafemoonReward",
            "label": "_initialized",
            "offset": 0,
            "slot": "0",
            "type": "t_bool"
          },
          {
            "astId": 601,
            "contract": "contracts/SFMR.sol:SafemoonReward",
            "label": "_initializing",
            "offset": 1,
            "slot": "0",
            "type": "t_bool"
          },
          {
            "astId": 698,
            "contract": "contracts/SFMR.sol:SafemoonReward",
            "label": "__gap",
            "offset": 0,
            "slot": "1",
            "type": "t_array(t_uint256)50_storage"
          },
          {
            "astId": 705,
            "contract": "contracts/SFMR.sol:SafemoonReward",
            "label": "_owner",
            "offset": 0,
            "slot": "51",
            "type": "t_address"
          },
          {
            "astId": 824,
            "contract": "contracts/SFMR.sol:SafemoonReward",
            "label": "__gap",
            "offset": 0,
            "slot": "52",
            "type": "t_array(t_uint256)49_storage"
          },
          {
            "astId": 1670,
            "contract": "contracts/SFMR.sol:SafemoonReward",
            "label": "_rOwned",
            "offset": 0,
            "slot": "101",
            "type": "t_mapping(t_address,t_uint256)"
          },
          {
            "astId": 1674,
            "contract": "contracts/SFMR.sol:SafemoonReward",
            "label": "_tOwned",
            "offset": 0,
            "slot": "102",
            "type": "t_mapping(t_address,t_uint256)"
          },
          {
            "astId": 1680,
            "contract": "contracts/SFMR.sol:SafemoonReward",
            "label": "_allowances",
            "offset": 0,
            "slot": "103",
            "type": "t_mapping(t_address,t_mapping(t_address,t_uint256))"
          },
          {
            "astId": 1684,
            "contract": "contracts/SFMR.sol:SafemoonReward",
            "label": "_isExcludedFromFee",
            "offset": 0,
            "slot": "104",
            "type": "t_mapping(t_address,t_bool)"
          },
          {
            "astId": 1688,
            "contract": "contracts/SFMR.sol:SafemoonReward",
            "label": "_isExcluded",
            "offset": 0,
            "slot": "105",
            "type": "t_mapping(t_address,t_bool)"
          },
          {
            "astId": 1692,
            "contract": "contracts/SFMR.sol:SafemoonReward",
            "label": "_isBlacklisted",
            "offset": 0,
            "slot": "106",
            "type": "t_mapping(t_address,t_bool)"
          },
          {
            "astId": 1696,
            "contract": "contracts/SFMR.sol:SafemoonReward",
            "label": "_accountsTier",
            "offset": 0,
            "slot": "107",
            "type": "t_mapping(t_address,t_uint256)"
          },
          {
            "astId": 1699,
            "contract": "contracts/SFMR.sol:SafemoonReward",
            "label": "_excluded",
            "offset": 0,
            "slot": "108",
            "type": "t_array(t_address)dyn_storage"
          },
          {
            "astId": 1708,
            "contract": "contracts/SFMR.sol:SafemoonReward",
            "label": "_tTotal",
            "offset": 0,
            "slot": "109",
            "type": "t_uint256"
          },
          {
            "astId": 1710,
            "contract": "contracts/SFMR.sol:SafemoonReward",
            "label": "_rTotal",
            "offset": 0,
            "slot": "110",
            "type": "t_uint256"
          },
          {
            "astId": 1712,
            "contract": "contracts/SFMR.sol:SafemoonReward",
            "label": "_tFeeTotal",
            "offset": 0,
            "slot": "111",
            "type": "t_uint256"
          },
          {
            "astId": 1714,
            "contract": "contracts/SFMR.sol:SafemoonReward",
            "label": "_maxFee",
            "offset": 0,
            "slot": "112",
            "type": "t_uint256"
          },
          {
            "astId": 1716,
            "contract": "contracts/SFMR.sol:SafemoonReward",
            "label": "_name",
            "offset": 0,
            "slot": "113",
            "type": "t_string_storage"
          },
          {
            "astId": 1718,
            "contract": "contracts/SFMR.sol:SafemoonReward",
            "label": "_symbol",
            "offset": 0,
            "slot": "114",
            "type": "t_string_storage"
          },
          {
            "astId": 1720,
            "contract": "contracts/SFMR.sol:SafemoonReward",
            "label": "_decimals",
            "offset": 0,
            "slot": "115",
            "type": "t_uint8"
          },
          {
            "astId": 1723,
            "contract": "contracts/SFMR.sol:SafemoonReward",
            "label": "_defaultFees",
            "offset": 0,
            "slot": "116",
            "type": "t_struct(FeeTier)1634_storage"
          },
          {
            "astId": 1726,
            "contract": "contracts/SFMR.sol:SafemoonReward",
            "label": "_previousFees",
            "offset": 0,
            "slot": "123",
            "type": "t_struct(FeeTier)1634_storage"
          },
          {
            "astId": 1729,
            "contract": "contracts/SFMR.sol:SafemoonReward",
            "label": "_emptyFees",
            "offset": 0,
            "slot": "130",
            "type": "t_struct(FeeTier)1634_storage"
          },
          {
            "astId": 1733,
            "contract": "contracts/SFMR.sol:SafemoonReward",
            "label": "feeTiers",
            "offset": 0,
            "slot": "137",
            "type": "t_array(t_struct(FeeTier)1634_storage)dyn_storage"
          },
          {
            "astId": 1736,
            "contract": "contracts/SFMR.sol:SafemoonReward",
            "label": "uniswapV2Router",
            "offset": 0,
            "slot": "138",
            "type": "t_contract(IUniswapV2Router02)1605"
          },
          {
            "astId": 1738,
            "contract": "contracts/SFMR.sol:SafemoonReward",
            "label": "uniswapV2Pair",
            "offset": 0,
            "slot": "139",
            "type": "t_address"
          },
          {
            "astId": 1740,
            "contract": "contracts/SFMR.sol:SafemoonReward",
            "label": "WBNB",
            "offset": 0,
            "slot": "140",
            "type": "t_address"
          },
          {
            "astId": 1742,
            "contract": "contracts/SFMR.sol:SafemoonReward",
            "label": "migration",
            "offset": 0,
            "slot": "141",
            "type": "t_address"
          },
          {
            "astId": 1744,
            "contract": "contracts/SFMR.sol:SafemoonReward",
            "label": "_initializerAccount",
            "offset": 0,
            "slot": "142",
            "type": "t_address"
          },
          {
            "astId": 1746,
            "contract": "contracts/SFMR.sol:SafemoonReward",
            "label": "_burnAddress",
            "offset": 0,
            "slot": "143",
            "type": "t_address"
          },
          {
            "astId": 1748,
            "contract": "contracts/SFMR.sol:SafemoonReward",
            "label": "inSwapAndLiquify",
            "offset": 20,
            "slot": "143",
            "type": "t_bool"
          },
          {
            "astId": 1750,
            "contract": "contracts/SFMR.sol:SafemoonReward",
            "label": "swapAndLiquifyEnabled",
            "offset": 21,
            "slot": "143",
            "type": "t_bool"
          },
          {
            "astId": 1752,
            "contract": "contracts/SFMR.sol:SafemoonReward",
            "label": "_maxTxAmount",
            "offset": 0,
            "slot": "144",
            "type": "t_uint256"
          },
          {
            "astId": 1754,
            "contract": "contracts/SFMR.sol:SafemoonReward",
            "label": "numTokensSellToAddToLiquidity",
            "offset": 0,
            "slot": "145",
            "type": "t_uint256"
          },
          {
            "astId": 1756,
            "contract": "contracts/SFMR.sol:SafemoonReward",
            "label": "_upgraded",
            "offset": 0,
            "slot": "146",
            "type": "t_bool"
          }
        ],
        "types": {
          "t_address": {
            "encoding": "inplace",
            "label": "address",
            "numberOfBytes": "20"
          },
          "t_array(t_address)dyn_storage": {
            "base": "t_address",
            "encoding": "dynamic_array",
            "label": "address[]",
            "numberOfBytes": "32"
          },
          "t_array(t_struct(FeeTier)1634_storage)dyn_storage": {
            "base": "t_struct(FeeTier)1634_storage",
            "encoding": "dynamic_array",
            "label": "struct SafemoonReward.FeeTier[]",
            "numberOfBytes": "32"
          },
          "t_array(t_uint256)49_storage": {
            "base": "t_uint256",
            "encoding": "inplace",
            "label": "uint256[49]",
            "numberOfBytes": "1568"
          },
          "t_array(t_uint256)50_storage": {
            "base": "t_uint256",
            "encoding": "inplace",
            "label": "uint256[50]",
            "numberOfBytes": "1600"
          },
          "t_bool": {
            "encoding": "inplace",
            "label": "bool",
            "numberOfBytes": "1"
          },
          "t_contract(IUniswapV2Router02)1605": {
            "encoding": "inplace",
            "label": "contract IUniswapV2Router02",
            "numberOfBytes": "20"
          },
          "t_mapping(t_address,t_bool)": {
            "encoding": "mapping",
            "key": "t_address",
            "label": "mapping(address => bool)",
            "numberOfBytes": "32",
            "value": "t_bool"
          },
          "t_mapping(t_address,t_mapping(t_address,t_uint256))": {
            "encoding": "mapping",
            "key": "t_address",
            "label": "mapping(address => mapping(address => uint256))",
            "numberOfBytes": "32",
            "value": "t_mapping(t_address,t_uint256)"
          },
          "t_mapping(t_address,t_uint256)": {
            "encoding": "mapping",
            "key": "t_address",
            "label": "mapping(address => uint256)",
            "numberOfBytes": "32",
            "value": "t_uint256"
          },
          "t_string_storage": {
            "encoding": "bytes",
            "label": "string",
            "numberOfBytes": "32"
          },
          "t_struct(FeeTier)1634_storage": {
            "encoding": "inplace",
            "label": "struct SafemoonReward.FeeTier",
            "members": [
              {
                "astId": 1621,
                "contract": "contracts/SFMR.sol:SafemoonReward",
                "label": "ecoSystemFee",
                "offset": 0,
                "slot": "0",
                "type": "t_uint256"
              },
              {
                "astId": 1623,
                "contract": "contracts/SFMR.sol:SafemoonReward",
                "label": "liquidityFee",
                "offset": 0,
                "slot": "1",
                "type": "t_uint256"
              },
              {
                "astId": 1625,
                "contract": "contracts/SFMR.sol:SafemoonReward",
                "label": "taxFee",
                "offset": 0,
                "slot": "2",
                "type": "t_uint256"
              },
              {
                "astId": 1627,
                "contract": "contracts/SFMR.sol:SafemoonReward",
                "label": "ownerFee",
                "offset": 0,
                "slot": "3",
                "type": "t_uint256"
              },
              {
                "astId": 1629,
                "contract": "contracts/SFMR.sol:SafemoonReward",
                "label": "burnFee",
                "offset": 0,
                "slot": "4",
                "type": "t_uint256"
              },
              {
                "astId": 1631,
                "contract": "contracts/SFMR.sol:SafemoonReward",
                "label": "ecoSystem",
                "offset": 0,
                "slot": "5",
                "type": "t_address"
              },
              {
                "astId": 1633,
                "contract": "contracts/SFMR.sol:SafemoonReward",
                "label": "owner",
                "offset": 0,
                "slot": "6",
                "type": "t_address"
              }
            ],
            "numberOfBytes": "224"
          },
          "t_uint256": {
            "encoding": "inplace",
            "label": "uint256",
            "numberOfBytes": "32"
          },
          "t_uint8": {
            "encoding": "inplace",
            "label": "uint8",
            "numberOfBytes": "1"
          }
        }
      }
    }
  }
}