{
  "_format": "hh-sol-artifact-1",
  "contractName": "Trade",
  "sourceName": "contracts/SFMRTrade.sol",
  "abi": [
    {
      "inputs": [],
      "name": "growthFund",
      "outputs": [
        {
          "internalType": "address",
          "name": "",
          "type": "address"
        }
      ],
      "stateMutability": "view",
      "type": "function"
    },
    {
      "inputs": [
        {
          "internalType": "address",
          "name": "_sfm",
          "type": "address"
        },
        {
          "internalType": "address",
          "name": "_growthFund",
          "type": "address"
        },
        {
          "internalType": "address",
          "name": "_masterChef",
          "type": "address"
        }
      ],
      "name": "initialize",
      "outputs": [],
      "stateMutability": "nonpayable",
      "type": "function"
    },
    {
      "inputs": [
        {
          "internalType": "address",
          "name": "token",
          "type": "address"
        },
        {
          "internalType": "uint256",
          "name": "amount",
          "type": "uint256"
        },
        {
          "internalType": "address",
          "name": "seller",
          "type": "address"
        }
      ],
      "name": "isReferrerStaking",
      "outputs": [
        {
          "internalType": "bool",
          "name": "",
          "type": "bool"
        }
      ],
      "stateMutability": "view",
      "type": "function"
    },
    {
      "inputs": [
        {
          "internalType": "address",
          "name": "token",
          "type": "address"
        },
        {
          "internalType": "uint256",
          "name": "amount",
          "type": "uint256"
        },
        {
          "internalType": "address",
          "name": "seller",
          "type": "address"
        }
      ],
      "name": "isSellerStaking",
      "outputs": [
        {
          "internalType": "bool",
          "name": "",
          "type": "bool"
        }
      ],
      "stateMutability": "view",
      "type": "function"
    },
    {
      "inputs": [],
      "name": "masterChef",
      "outputs": [
        {
          "internalType": "address",
          "name": "",
          "type": "address"
        }
      ],
      "stateMutability": "view",
      "type": "function"
    },
    {
      "inputs": [],
      "name": "owner",
      "outputs": [
        {
          "internalType": "address",
          "name": "",
          "type": "address"
        }
      ],
      "stateMutability": "view",
      "type": "function"
    },
    {
      "inputs": [
        {
          "internalType": "address",
          "name": "",
          "type": "address"
        }
      ],
      "name": "referrerOf",
      "outputs": [
        {
          "internalType": "address",
          "name": "",
          "type": "address"
        }
      ],
      "stateMutability": "view",
      "type": "function"
    },
    {
      "inputs": [
        {
          "internalType": "address",
          "name": "_token",
          "type": "address"
        },
        {
          "internalType": "uint256",
          "name": "_amount",
          "type": "uint256"
        },
        {
          "internalType": "address payable",
          "name": "_to",
          "type": "address"
        }
      ],
      "name": "sendTokens",
      "outputs": [],
      "stateMutability": "payable",
      "type": "function"
    },
    {
      "inputs": [
        {
          "internalType": "address",
          "name": "_paylinkHolder",
          "type": "address"
        }
      ],
      "name": "setReferrer",
      "outputs": [],
      "stateMutability": "nonpayable",
      "type": "function"
    },
    {
      "inputs": [],
      "name": "sfm",
      "outputs": [
        {
          "internalType": "address",
          "name": "",
          "type": "address"
        }
      ],
      "stateMutability": "view",
      "type": "function"
    }
  ],
  "bytecode": "0x608060405234801561001057600080fd5b506132a4806100206000396000f3fe6080604052600436106100915760003560e01c80638da5cb5b116100595780638da5cb5b1461012d578063a18a7bfc14610142578063c0c53b8b14610162578063c438ac8a14610182578063d21cacdf146101a257610091565b806312e38f2e146100965780634217e287146100c1578063575a86b2146100d65780635c3640ec146100eb5780638702a3c614610100575b600080fd5b3480156100a257600080fd5b506100ab6101c2565b6040516100b89190612ed3565b60405180910390f35b6100d46100cf366004612d68565b6101d1565b005b3480156100e257600080fd5b506100ab6104bb565b3480156100f757600080fd5b506100ab6104ca565b34801561010c57600080fd5b5061012061011b366004612d68565b6104d9565b6040516100b89190612f3e565b34801561013957600080fd5b506100ab61069a565b34801561014e57600080fd5b506100d461015d366004612ce6565b6106a9565b34801561016e57600080fd5b506100d461017d366004612d1e565b6106d8565b34801561018e57600080fd5b5061012061019d366004612d68565b610721565b3480156101ae57600080fd5b506100ab6101bd366004612ce6565b61085e565b6001546001600160a01b031681565b73eeeeeeeeeeeeeeeeeeeeeeeeeeeeeeeeeeeeeeee6001600160a01b03841614156102085734610202848284610879565b506104b6565b6001546001600160a01b0384811691161415610371576040516370a0823160e01b815282906001600160a01b038516906370a082319061024c903390600401612ed3565b60206040518083038186803b15801561026457600080fd5b505afa158015610278573d6000803e3d6000fd5b505050506040513d601f19601f8201168201806040525081019061029c9190612e78565b10156102c35760405162461bcd60e51b81526004016102ba90612f7e565b60405180910390fd5b604051636eb1769f60e11b815282906001600160a01b0385169063dd62ed3e906102f39033903090600401612ee7565b60206040518083038186803b15801561030b57600080fd5b505afa15801561031f573d6000803e3d6000fd5b505050506040513d601f19601f820116820180604052508101906103439190612e78565b10156103615760405162461bcd60e51b81526004016102ba90613102565b61036c838383611258565b6104b6565b6040516370a0823160e01b815282906001600160a01b038516906370a082319061039f903390600401612ed3565b60206040518083038186803b1580156103b757600080fd5b505afa1580156103cb573d6000803e3d6000fd5b505050506040513d601f19601f820116820180604052508101906103ef9190612e78565b101561040d5760405162461bcd60e51b81526004016102ba90612f7e565b604051636eb1769f60e11b815282906001600160a01b0385169063dd62ed3e9061043d9033903090600401612ee7565b60206040518083038186803b15801561045557600080fd5b505afa158015610469573d6000803e3d6000fd5b505050506040513d601f19601f8201168201806040525081019061048d9190612e78565b10156104ab5760405162461bcd60e51b81526004016102ba90613102565b6104b6838383611ba2565b505050565b6000546001600160a01b031681565b6002546001600160a01b031681565b60008060006104e886866125a0565b600080546001600160a01b0387811683526004602052604090922054929350811691166105275760405162461bcd60e51b81526004016102ba90612fb5565b6001600160a01b038086166000908152600460208190526040808320549051630f7f379160e11b815290841693851691631efe6f229161056991869101612ed3565b60206040518083038186803b15801561058157600080fd5b505afa158015610595573d6000803e3d6000fd5b505050506040513d601f19601f820116820180604052508101906105b99190612e78565b905073eeeeeeeeeeeeeeeeeeeeeeeeeeeeeeeeeeeeeeee6001600160a01b038a16141561062f576106286103e861062260058760018151811061060c57634e487b7160e01b600052603260045260246000fd5b602002602001015161283d90919063ffffffff16565b90612849565b945061065e565b61065b6103e861062260058760028151811061060c57634e487b7160e01b600052603260045260246000fd5b94505b6000610670600a61062288600f61283d565b90508082106106885760019650505050505050610693565b600096505050505050505b9392505050565b6003546001600160a01b031681565b33600090815260046020526040902080546001600160a01b0319166001600160a01b0392909216919091179055565b600180546001600160a01b039485166001600160a01b03199182161790915560038054821633179055600280549385169382169390931790925560008054919093169116179055565b600080600061073086866125a0565b60008054604051630f7f379160e11b81529293506001600160a01b0316918290631efe6f2290610764908990600401612ed3565b60206040518083038186803b15801561077c57600080fd5b505afa158015610790573d6000803e3d6000fd5b505050506040513d601f19601f820116820180604052508101906107b49190612e78565b905073eeeeeeeeeeeeeeeeeeeeeeeeeeeeeeeeeeeeeeee6001600160a01b038916141561080e576108076103e8610622600f8660018151811061060c57634e487b7160e01b600052603260045260246000fd5b935061083d565b61083a6103e8610622600f8660028151811061060c57634e487b7160e01b600052603260045260246000fd5b93505b838110610851576001945050505050610693565b6000945050505050610693565b6004602052600090815260409020546001600160a01b031681565b60015460405163e6a4390560e01b815273209fa0e6b6c38dab1afb4380acec186b5e884f9b91600091839163e6a43905916108d6916001600160a01b03169073ae13d989dac2f0debff460ac112a837c89baa7cd90600401612ee7565b60206040518083038186803b1580156108ee57600080fd5b505afa158015610902573d6000803e3d6000fd5b505050506040513d601f19601f820116820180604052508101906109269190612d02565b90506001600160a01b03811661094e5760405162461bcd60e51b81526004016102ba906130cb565b600061095b868686610721565b9050600061096a8787876104d9565b6001600160a01b0380871660009081526004602052604081205492935091169061099a60646106228a606361283d565b905060006109ae60646106228b606261283d565b905060006109bc8a84612855565b905060006109ca8b84612855565b90508680156109d65750855b15610c1a576040516001600160a01b038b169085156108fc029086906000818181858888f19350505050158015610a11573d6000803e3d6000fd5b506000610a1d83612861565b905080600181518110610a4057634e487b7160e01b600052603260045260246000fd5b602002602001015160001415610a685760405162461bcd60e51b81526004016102ba9061303a565b6001546040516370a0823160e01b81526000916001600160a01b0316906370a0823190610a99903090600401612ed3565b60206040518083038186803b158015610ab157600080fd5b505afa158015610ac5573d6000803e3d6000fd5b505050506040513d601f19601f82011682018060405250810190610ae99190612e78565b90506000610af8826002612849565b90506000610b068383612855565b60015460405163a9059cbb60e01b81529192506001600160a01b03169063a9059cbb90610b399033908690600401612f25565b602060405180830381600087803b158015610b5357600080fd5b505af1158015610b67573d6000803e3d6000fd5b505050506040513d601f19601f82011682018060405250810190610b8b9190612e58565b5060015460405163a9059cbb60e01b81526001600160a01b039091169063a9059cbb90610bbe908c908590600401612f25565b602060405180830381600087803b158015610bd857600080fd5b505af1158015610bec573d6000803e3d6000fd5b505050506040513d601f19601f82011682018060405250810190610c109190612e58565b505050505061124a565b868015610c25575085155b15610f13576040516001600160a01b038b169085156108fc029086906000818181858888f19350505050158015610c60573d6000803e3d6000fd5b506000610c6c83612861565b905080600181518110610c8f57634e487b7160e01b600052603260045260246000fd5b602002602001015160001415610cb75760405162461bcd60e51b81526004016102ba90613082565b6001546040516370a0823160e01b81526000916001600160a01b0316906370a0823190610ce8903090600401612ed3565b60206040518083038186803b158015610d0057600080fd5b505afa158015610d14573d6000803e3d6000fd5b505050506040513d601f19601f82011682018060405250810190610d389190612e78565b90506000610d47826002612849565b60015460405163a9059cbb60e01b81529192506001600160a01b03169063a9059cbb90610d7a9033908590600401612f25565b602060405180830381600087803b158015610d9457600080fd5b505af1158015610da8573d6000803e3d6000fd5b505050506040513d601f19601f82011682018060405250810190610dcc9190612e58565b506000610dd98383612855565b90506000610de8826002612849565b90506000610df68383612855565b60015460025460405163a9059cbb60e01b81529293506001600160a01b039182169263a9059cbb92610e2e9216908690600401612f25565b602060405180830381600087803b158015610e4857600080fd5b505af1158015610e5c573d6000803e3d6000fd5b505050506040513d601f19601f82011682018060405250810190610e809190612e58565b5060015460405163a9059cbb60e01b81526001600160a01b039091169063a9059cbb90610eb59061dead908590600401612f25565b602060405180830381600087803b158015610ecf57600080fd5b505af1158015610ee3573d6000803e3d6000fd5b505050506040513d601f19601f82011682018060405250810190610f079190612e58565b5050505050505061124a565b86158015610f1e5750855b15610f65576040516001600160a01b038b169084156108fc029085906000818181858888f19350505050158015610f59573d6000803e3d6000fd5b506000610a1d82612861565b6040516001600160a01b038b169084156108fc029085906000818181858888f19350505050158015610f9b573d6000803e3d6000fd5b506000610fa782612861565b905080600181518110610fca57634e487b7160e01b600052603260045260246000fd5b602002602001015160001415610ff25760405162461bcd60e51b81526004016102ba90613082565b6001546040516370a0823160e01b81526000916001600160a01b0316906370a0823190611023903090600401612ed3565b60206040518083038186803b15801561103b57600080fd5b505afa15801561104f573d6000803e3d6000fd5b505050506040513d601f19601f820116820180604052508101906110739190612e78565b90506000611082826002612849565b905060006110908383612855565b9050600061109f826002612849565b905060006110ad8383612855565b60015460405163a9059cbb60e01b81529192506001600160a01b03169063a9059cbb906110e09033908890600401612f25565b602060405180830381600087803b1580156110fa57600080fd5b505af115801561110e573d6000803e3d6000fd5b505050506040513d601f19601f820116820180604052508101906111329190612e58565b5060015460025460405163a9059cbb60e01b81526001600160a01b039283169263a9059cbb92611169929116908690600401612f25565b602060405180830381600087803b15801561118357600080fd5b505af1158015611197573d6000803e3d6000fd5b505050506040513d601f19601f820116820180604052508101906111bb9190612e58565b5060015460405163a9059cbb60e01b81526001600160a01b039091169063a9059cbb906111f09061dead908590600401612f25565b602060405180830381600087803b15801561120a57600080fd5b505af115801561121e573d6000803e3d6000fd5b505050506040513d601f19601f820116820180604052508101906112429190612e58565b505050505050505b505050505050505050505050565b60015460405163e6a4390560e01b815273209fa0e6b6c38dab1afb4380acec186b5e884f9b91600091839163e6a43905916112b5916001600160a01b03169073ae13d989dac2f0debff460ac112a837c89baa7cd90600401612ee7565b60206040518083038186803b1580156112cd57600080fd5b505afa1580156112e1573d6000803e3d6000fd5b505050506040513d601f19601f820116820180604052508101906113059190612d02565b90506001600160a01b03811661132d5760405162461bcd60e51b81526004016102ba906130cb565b600061133a868686610721565b905060006113498787876104d9565b6001600160a01b0380871660009081526004602052604081205492935091169061137960646106228a606361283d565b9050600061138d60646106228b606261283d565b9050600061139b8a84612855565b905060006113a98b84612855565b90508680156113b55750855b1561155f576040516323b872dd60e01b81526001600160a01b038d16906323b872dd906113ea9033908e908990600401612f01565b602060405180830381600087803b15801561140457600080fd5b505af1158015611418573d6000803e3d6000fd5b505050506040513d601f19601f8201168201806040525081019061143c9190612e58565b50600061144a836002612849565b6001546040516323b872dd60e01b81529192506001600160a01b0316906323b872dd9061147f90339081908690600401612f01565b602060405180830381600087803b15801561149957600080fd5b505af11580156114ad573d6000803e3d6000fd5b505050506040513d601f19601f820116820180604052508101906114d19190612e58565b506001546040516323b872dd60e01b81526001600160a01b03909116906323b872dd906115069033908a908690600401612f01565b602060405180830381600087803b15801561152057600080fd5b505af1158015611534573d6000803e3d6000fd5b505050506040513d601f19601f820116820180604052508101906115589190612e58565b505061124a565b86801561156a575085155b15611774576040516323b872dd60e01b81526001600160a01b038d16906323b872dd9061159f9033908e908990600401612f01565b602060405180830381600087803b1580156115b957600080fd5b505af11580156115cd573d6000803e3d6000fd5b505050506040513d601f19601f820116820180604052508101906115f19190612e58565b5060006115ff836002612849565b6001546040516323b872dd60e01b81529192506001600160a01b0316906323b872dd9061163490339081908690600401612f01565b602060405180830381600087803b15801561164e57600080fd5b505af1158015611662573d6000803e3d6000fd5b505050506040513d601f19601f820116820180604052508101906116869190612e58565b5060006116938483612855565b905060006116a2826002612849565b905060006116b08383612855565b6001546002546040516323b872dd60e01b81529293506001600160a01b03918216926323b872dd926116eb9233929116908790600401612f01565b602060405180830381600087803b15801561170557600080fd5b505af1158015611719573d6000803e3d6000fd5b505050506040513d601f19601f8201168201806040525081019061173d9190612e58565b506001546040516323b872dd60e01b81526001600160a01b03909116906323b872dd90610bbe90339061dead908690600401612f01565b8615801561177f5750855b15611938576040516323b872dd60e01b81526001600160a01b038d16906323b872dd906117b49033908e908890600401612f01565b602060405180830381600087803b1580156117ce57600080fd5b505af11580156117e2573d6000803e3d6000fd5b505050506040513d601f19601f820116820180604052508101906118069190612e58565b506000611814826002612849565b905060006118228383612855565b6001546040516323b872dd60e01b81529192506001600160a01b0316906323b872dd9061185790339081908790600401612f01565b602060405180830381600087803b15801561187157600080fd5b505af1158015611885573d6000803e3d6000fd5b505050506040513d601f19601f820116820180604052508101906118a99190612e58565b506001546040516323b872dd60e01b81526001600160a01b03909116906323b872dd906118de9033908b908690600401612f01565b602060405180830381600087803b1580156118f857600080fd5b505af115801561190c573d6000803e3d6000fd5b505050506040513d601f19601f820116820180604052508101906119309190612e58565b50505061124a565b6040516323b872dd60e01b81526001600160a01b038d16906323b872dd906119689033908e908890600401612f01565b602060405180830381600087803b15801561198257600080fd5b505af1158015611996573d6000803e3d6000fd5b505050506040513d601f19601f820116820180604052508101906119ba9190612e58565b5060006119c8826002612849565b6001546040516323b872dd60e01b81529192506001600160a01b0316906323b872dd906119fd90339081908690600401612f01565b602060405180830381600087803b158015611a1757600080fd5b505af1158015611a2b573d6000803e3d6000fd5b505050506040513d601f19601f82011682018060405250810190611a4f9190612e58565b506000611a5c8383612855565b90506000611a6b826002612849565b90506000611a798383612855565b6001546002546040516323b872dd60e01b81529293506001600160a01b03918216926323b872dd92611ab49233929116908790600401612f01565b602060405180830381600087803b158015611ace57600080fd5b505af1158015611ae2573d6000803e3d6000fd5b505050506040513d601f19601f82011682018060405250810190611b069190612e58565b506001546040516323b872dd60e01b81526001600160a01b03909116906323b872dd90611b3d90339061dead908690600401612f01565b602060405180830381600087803b158015611b5757600080fd5b505af1158015611b6b573d6000803e3d6000fd5b505050506040513d601f19601f82011682018060405250810190611b8f9190612e58565b5050505050505050505050505050505050565b60405163e6a4390560e01b815273209fa0e6b6c38dab1afb4380acec186b5e884f9b90600090829063e6a4390590611bf490889073ae13d989dac2f0debff460ac112a837c89baa7cd90600401612ee7565b60206040518083038186803b158015611c0c57600080fd5b505afa158015611c20573d6000803e3d6000fd5b505050506040513d601f19601f82011682018060405250810190611c449190612d02565b90506001600160a01b038116611c6c5760405162461bcd60e51b81526004016102ba90612fec565b60015460405163e6a4390560e01b81526000916001600160a01b038086169263e6a4390592611cb592169073ae13d989dac2f0debff460ac112a837c89baa7cd90600401612ee7565b60206040518083038186803b158015611ccd57600080fd5b505afa158015611ce1573d6000803e3d6000fd5b505050506040513d601f19601f82011682018060405250810190611d059190612d02565b90506001600160a01b038116611d2d5760405162461bcd60e51b81526004016102ba906130cb565b6000611d3a878787610721565b90506000611d498888886104d9565b6001600160a01b03808816600090815260046020526040812054929350911690611d7960646106228b606361283d565b90506000611d8d60646106228c606261283d565b90506000611d9b8b84612855565b90506000611da98c84612855565b9050868015611db55750855b15611ff8576040516323b872dd60e01b81526001600160a01b038e16906323b872dd90611dea9033908f908990600401612f01565b602060405180830381600087803b158015611e0457600080fd5b505af1158015611e18573d6000803e3d6000fd5b505050506040513d601f19601f82011682018060405250810190611e3c9190612e58565b50611e478d836129c7565b6001546040516370a0823160e01b81526000916001600160a01b0316906370a0823190611e78903090600401612ed3565b60206040518083038186803b158015611e9057600080fd5b505afa158015611ea4573d6000803e3d6000fd5b505050506040513d601f19601f82011682018060405250810190611ec89190612e78565b90506000611ed7826002612849565b90506000611ee58383612855565b60015460405163a9059cbb60e01b81529192506001600160a01b03169063a9059cbb90611f189033908690600401612f25565b602060405180830381600087803b158015611f3257600080fd5b505af1158015611f46573d6000803e3d6000fd5b505050506040513d601f19601f82011682018060405250810190611f6a9190612e58565b5060015460405163a9059cbb60e01b81526001600160a01b039091169063a9059cbb90611f9d908b908590600401612f25565b602060405180830381600087803b158015611fb757600080fd5b505af1158015611fcb573d6000803e3d6000fd5b505050506040513d601f19601f82011682018060405250810190611fef9190612e58565b50505050612591565b868015612003575085155b156122f0576040516323b872dd60e01b81526001600160a01b038e16906323b872dd906120389033908f908990600401612f01565b602060405180830381600087803b15801561205257600080fd5b505af1158015612066573d6000803e3d6000fd5b505050506040513d601f19601f8201168201806040525081019061208a9190612e58565b506120958d836129c7565b6001546040516370a0823160e01b81526000916001600160a01b0316906370a08231906120c6903090600401612ed3565b60206040518083038186803b1580156120de57600080fd5b505afa1580156120f2573d6000803e3d6000fd5b505050506040513d601f19601f820116820180604052508101906121169190612e78565b90506000612125826002612849565b60015460405163a9059cbb60e01b81529192506001600160a01b03169063a9059cbb906121589033908590600401612f25565b602060405180830381600087803b15801561217257600080fd5b505af1158015612186573d6000803e3d6000fd5b505050506040513d601f19601f820116820180604052508101906121aa9190612e58565b5060006121b78383612855565b905060006121c6826002612849565b905060006121d48383612855565b60015460025460405163a9059cbb60e01b81529293506001600160a01b039182169263a9059cbb9261220c9216908690600401612f25565b602060405180830381600087803b15801561222657600080fd5b505af115801561223a573d6000803e3d6000fd5b505050506040513d601f19601f8201168201806040525081019061225e9190612e58565b5060015460405163a9059cbb60e01b81526001600160a01b039091169063a9059cbb906122939061dead908590600401612f25565b602060405180830381600087803b1580156122ad57600080fd5b505af11580156122c1573d6000803e3d6000fd5b505050506040513d601f19601f820116820180604052508101906122e59190612e58565b505050505050612591565b861580156122fb5750855b1561238d576040516323b872dd60e01b81526001600160a01b038e16906323b872dd906123309033908f908890600401612f01565b602060405180830381600087803b15801561234a57600080fd5b505af115801561235e573d6000803e3d6000fd5b505050506040513d601f19601f820116820180604052508101906123829190612e58565b50611e478d826129c7565b6040516323b872dd60e01b81526001600160a01b038e16906323b872dd906123bd9033908f908890600401612f01565b602060405180830381600087803b1580156123d757600080fd5b505af11580156123eb573d6000803e3d6000fd5b505050506040513d601f19601f8201168201806040525081019061240f9190612e58565b5061241a8d826129c7565b6001546040516370a0823160e01b81526000916001600160a01b0316906370a082319061244b903090600401612ed3565b60206040518083038186803b15801561246357600080fd5b505afa158015612477573d6000803e3d6000fd5b505050506040513d601f19601f8201168201806040525081019061249b9190612e78565b905060006124aa826002612849565b60015460405163a9059cbb60e01b81529192506001600160a01b03169063a9059cbb906124dd9033908590600401612f25565b602060405180830381600087803b1580156124f757600080fd5b505af115801561250b573d6000803e3d6000fd5b505050506040513d601f19601f8201168201806040525081019061252f9190612e58565b50600061253c8383612855565b9050600061254b826002612849565b905060006125598383612855565b60015460025460405163a9059cbb60e01b81529293506001600160a01b039182169263a9059cbb926111699216908690600401612f25565b50505050505050505050505050565b6040805160028082526060808301845292600092919060208301908036833701905050905073ae13d989dac2f0debff460ac112a837c89baa7cd816000815181106125fb57634e487b7160e01b600052603260045260246000fd5b6001600160a01b039283166020918202929092010152600180548351921691839190811061263957634e487b7160e01b600052603260045260246000fd5b6001600160a01b0392909216602092830291909101820152604080516003808252608082019092526000929091908201606080368337019050509050848160008151811061269757634e487b7160e01b600052603260045260246000fd5b60200260200101906001600160a01b031690816001600160a01b03168152505073ae13d989dac2f0debff460ac112a837c89baa7cd816001815181106126ed57634e487b7160e01b600052603260045260246000fd5b6001600160a01b03928316602091820292909201015260015482519116908290600290811061272c57634e487b7160e01b600052603260045260246000fd5b6001600160a01b03928316602091820292909201015273ce5954658526b7cf6b5040b3ef2d9b4f8c30b8b090861673eeeeeeeeeeeeeeeeeeeeeeeeeeeeeeeeeeeeeeee14156128065760405163d06ca61f60e01b81526000906001600160a01b0383169063d06ca61f906127a6908990889060040161315f565b60006040518083038186803b1580156127be57600080fd5b505afa1580156127d2573d6000803e3d6000fd5b505050506040513d6000823e601f3d908101601f191682016040526127fa9190810190612d9e565b94506128379350505050565b60405163d06ca61f60e01b81526000906001600160a01b0383169063d06ca61f906127a6908990879060040161315f565b92915050565b600061069382846131f4565b600061069382846131d4565b60006106938284613213565b6040805160028082526060808301845292600092919060208301908036833701905050905073ae13d989dac2f0debff460ac112a837c89baa7cd816000815181106128bc57634e487b7160e01b600052603260045260246000fd5b6001600160a01b03928316602091820292909201015260018054835192169183919081106128fa57634e487b7160e01b600052603260045260246000fd5b6001600160a01b03909216602092830291909101909101526000612920426101f4612cda565b604051637ff36ab560e01b815290915073ce5954658526b7cf6b5040b3ef2d9b4f8c30b8b0906000908290637ff36ab5908890612967908590899030908a90600401612f49565b6000604051808303818588803b15801561298057600080fd5b505af1158015612994573d6000803e3d6000fd5b50505050506040513d6000823e601f3d908101601f191682016040526129bd9190810190612d9e565b9695505050505050565b60408051600380825260808201909252600091602082016060803683370190505090508281600081518110612a0c57634e487b7160e01b600052603260045260246000fd5b60200260200101906001600160a01b031690816001600160a01b03168152505073ae13d989dac2f0debff460ac112a837c89baa7cd81600181518110612a6257634e487b7160e01b600052603260045260246000fd5b6001600160a01b039283166020918202929092010152600154825191169082906002908110612aa157634e487b7160e01b600052603260045260246000fd5b6001600160a01b03909216602092830291909101909101526000612ac7426101f4612cda565b6040516323b872dd60e01b81529091506001600160a01b038516906323b872dd90612afa90339030908890600401612f01565b602060405180830381600087803b158015612b1457600080fd5b505af1158015612b28573d6000803e3d6000fd5b505050506040513d601f19601f82011682018060405250810190612b4c9190612e58565b5060405163095ea7b360e01b81526001600160a01b0385169063095ea7b390612b8f9073ce5954658526b7cf6b5040b3ef2d9b4f8c30b8b0908790600401612f25565b602060405180830381600087803b158015612ba957600080fd5b505af1158015612bbd573d6000803e3d6000fd5b505050506040513d601f19601f82011682018060405250810190612be19190612e58565b506040516370a0823160e01b815273ce5954658526b7cf6b5040b3ef2d9b4f8c30b8b0908190635c11d795906001600160a01b038816906370a0823190612c2c903090600401612ed3565b60206040518083038186803b158015612c4457600080fd5b505afa158015612c58573d6000803e3d6000fd5b505050506040513d601f19601f82011682018060405250810190612c7c9190612e78565b60008630876040518663ffffffff1660e01b8152600401612ca1959493929190613180565b600060405180830381600087803b158015612cbb57600080fd5b505af1158015612ccf573d6000803e3d6000fd5b505050505050505050565b600061069382846131bc565b600060208284031215612cf7578081fd5b813561069381613256565b600060208284031215612d13578081fd5b815161069381613256565b600080600060608486031215612d32578182fd5b8335612d3d81613256565b92506020840135612d4d81613256565b91506040840135612d5d81613256565b809150509250925092565b600080600060608486031215612d7c578283fd5b8335612d8781613256565b9250602084013591506040840135612d5d81613256565b60006020808385031215612db0578182fd5b825167ffffffffffffffff80821115612dc7578384fd5b818501915085601f830112612dda578384fd5b815181811115612dec57612dec613240565b83810260405185828201018181108582111715612e0b57612e0b613240565b604052828152858101935084860182860187018a1015612e29578788fd5b8795505b83861015612e4b578051855260019590950194938601938601612e2d565b5098975050505050505050565b600060208284031215612e69578081fd5b81518015158114610693578182fd5b600060208284031215612e89578081fd5b5051919050565b6000815180845260208085019450808401835b83811015612ec85781516001600160a01b031687529582019590820190600101612ea3565b509495945050505050565b6001600160a01b0391909116815260200190565b6001600160a01b0392831681529116602082015260400190565b6001600160a01b039384168152919092166020820152604081019190915260600190565b6001600160a01b03929092168252602082015260400190565b901515815260200190565b600085825260806020830152612f626080830186612e90565b6001600160a01b03949094166040830152506060015292915050565b60208082526018908201527f21212042616c616e6365206e6f7420656e6f7567682021210000000000000000604082015260600190565b6020808252601c908201527f212120526566657272657220646f73656e277420657869737420212100000000604082015260600190565b6020808252602e908201527f212120424e422f27546f6b656e2073656e74206279206275796572272070616960408201526d72206e6f7420666f756e6420212160901b606082015260800190565b60208082526028908201527f212120526563696576656420302073666d20746f6b656e732066726f6d2070616040820152676e63616b6520212160c01b606082015260800190565b60208082526029908201527f212120526563696576656420302073666d20746f6b656e732066726f6d20736160408201526866657377617020212160b81b606082015260800190565b6020808252601c908201527f212120424e422f53464d2070616972206e6f7420666f756e6420212100000000604082015260600190565b6020808252603c908201527f212120496e637265617365206d79205f616c6c6f77616e63655f204f52205f6160408201527f7070726f76655f206d79207370656e64696e67206c696d697420212100000000606082015260800190565b6000838252604060208301526131786040830184612e90565b949350505050565b600086825285602083015260a0604083015261319f60a0830186612e90565b6001600160a01b0394909416606083015250608001529392505050565b600082198211156131cf576131cf61322a565b500190565b6000826131ef57634e487b7160e01b81526012600452602481fd5b500490565b600081600019048311821515161561320e5761320e61322a565b500290565b6000828210156132255761322561322a565b500390565b634e487b7160e01b600052601160045260246000fd5b634e487b7160e01b600052604160045260246000fd5b6001600160a01b038116811461326b57600080fd5b5056fea2646970667358221220e7fe2b737ae9616b69096943806e50c0ef93dff1e21f3cf632590554ff3f56d464736f6c63430008000033",
  "linkReferences": {},
  "deployedLinkReferences": {}
}