{
  "_format": "hh-sol-artifact-1",
  "contractName": "ERC1155Test",
  "sourceName": "contracts/TestERC1155.sol",
  "abi": [
    {
      "anonymous": false,
      "inputs": [
        {
          "indexed": true,
          "internalType": "address",
          "name": "account",
          "type": "address"
        },
        {
          "indexed": true,
          "internalType": "address",
          "name": "operator",
          "type": "address"
        },
        {
          "indexed": false,
          "internalType": "bool",
          "name": "approved",
          "type": "bool"
        }
      ],
      "name": "ApprovalForAll",
      "type": "event"
    },
    {
      "anonymous": false,
      "inputs": [
        {
          "indexed": true,
          "internalType": "address",
          "name": "operator",
          "type": "address"
        },
        {
          "indexed": true,
          "internalType": "address",
          "name": "from",
          "type": "address"
        },
        {
          "indexed": true,
          "internalType": "address",
          "name": "to",
          "type": "address"
        },
        {
          "indexed": false,
          "internalType": "uint256[]",
          "name": "ids",
          "type": "uint256[]"
        },
        {
          "indexed": false,
          "internalType": "uint256[]",
          "name": "values",
          "type": "uint256[]"
        }
      ],
      "name": "TransferBatch",
      "type": "event"
    },
    {
      "anonymous": false,
      "inputs": [
        {
          "indexed": true,
          "internalType": "address",
          "name": "operator",
          "type": "address"
        },
        {
          "indexed": true,
          "internalType": "address",
          "name": "from",
          "type": "address"
        },
        {
          "indexed": true,
          "internalType": "address",
          "name": "to",
          "type": "address"
        },
        {
          "indexed": false,
          "internalType": "uint256",
          "name": "id",
          "type": "uint256"
        },
        {
          "indexed": false,
          "internalType": "uint256",
          "name": "value",
          "type": "uint256"
        }
      ],
      "name": "TransferSingle",
      "type": "event"
    },
    {
      "anonymous": false,
      "inputs": [
        {
          "indexed": false,
          "internalType": "string",
          "name": "value",
          "type": "string"
        },
        {
          "indexed": true,
          "internalType": "uint256",
          "name": "id",
          "type": "uint256"
        }
      ],
      "name": "URI",
      "type": "event"
    },
    {
      "inputs": [
        {
          "internalType": "address",
          "name": "account",
          "type": "address"
        },
        {
          "internalType": "uint256",
          "name": "id",
          "type": "uint256"
        }
      ],
      "name": "balanceOf",
      "outputs": [
        {
          "internalType": "uint256",
          "name": "",
          "type": "uint256"
        }
      ],
      "stateMutability": "view",
      "type": "function"
    },
    {
      "inputs": [
        {
          "internalType": "address[]",
          "name": "accounts",
          "type": "address[]"
        },
        {
          "internalType": "uint256[]",
          "name": "ids",
          "type": "uint256[]"
        }
      ],
      "name": "balanceOfBatch",
      "outputs": [
        {
          "internalType": "uint256[]",
          "name": "",
          "type": "uint256[]"
        }
      ],
      "stateMutability": "view",
      "type": "function"
    },
    {
      "inputs": [
        {
          "internalType": "address",
          "name": "account",
          "type": "address"
        },
        {
          "internalType": "address",
          "name": "operator",
          "type": "address"
        }
      ],
      "name": "isApprovedForAll",
      "outputs": [
        {
          "internalType": "bool",
          "name": "",
          "type": "bool"
        }
      ],
      "stateMutability": "view",
      "type": "function"
    },
    {
      "inputs": [
        {
          "internalType": "uint256",
          "name": "_qtyMint",
          "type": "uint256"
        }
      ],
      "name": "mint",
      "outputs": [],
      "stateMutability": "nonpayable",
      "type": "function"
    },
    {
      "inputs": [
        {
          "internalType": "address",
          "name": "from",
          "type": "address"
        },
        {
          "internalType": "address",
          "name": "to",
          "type": "address"
        },
        {
          "internalType": "uint256[]",
          "name": "ids",
          "type": "uint256[]"
        },
        {
          "internalType": "uint256[]",
          "name": "amounts",
          "type": "uint256[]"
        },
        {
          "internalType": "bytes",
          "name": "data",
          "type": "bytes"
        }
      ],
      "name": "safeBatchTransferFrom",
      "outputs": [],
      "stateMutability": "nonpayable",
      "type": "function"
    },
    {
      "inputs": [
        {
          "internalType": "address",
          "name": "from",
          "type": "address"
        },
        {
          "internalType": "address",
          "name": "to",
          "type": "address"
        },
        {
          "internalType": "uint256",
          "name": "id",
          "type": "uint256"
        },
        {
          "internalType": "uint256",
          "name": "amount",
          "type": "uint256"
        },
        {
          "internalType": "bytes",
          "name": "data",
          "type": "bytes"
        }
      ],
      "name": "safeTransferFrom",
      "outputs": [],
      "stateMutability": "nonpayable",
      "type": "function"
    },
    {
      "inputs": [
        {
          "internalType": "address",
          "name": "operator",
          "type": "address"
        },
        {
          "internalType": "bool",
          "name": "approved",
          "type": "bool"
        }
      ],
      "name": "setApprovalForAll",
      "outputs": [],
      "stateMutability": "nonpayable",
      "type": "function"
    },
    {
      "inputs": [
        {
          "internalType": "bytes4",
          "name": "interfaceId",
          "type": "bytes4"
        }
      ],
      "name": "supportsInterface",
      "outputs": [
        {
          "internalType": "bool",
          "name": "",
          "type": "bool"
        }
      ],
      "stateMutability": "view",
      "type": "function"
    },
    {
      "inputs": [],
      "name": "tokenId",
      "outputs": [
        {
          "internalType": "uint256",
          "name": "",
          "type": "uint256"
        }
      ],
      "stateMutability": "view",
      "type": "function"
    },
    {
      "inputs": [
        {
          "internalType": "uint256",
          "name": "",
          "type": "uint256"
        }
      ],
      "name": "uri",
      "outputs": [
        {
          "internalType": "string",
          "name": "",
          "type": "string"
        }
      ],
      "stateMutability": "view",
      "type": "function"
    }
  ],
  "bytecode": "0x608060405234801561001057600080fd5b50611728806100206000396000f3fe608060405234801561001057600080fd5b506004361061009d5760003560e01c80634e1273f4116100665780634e1273f414610128578063a0712d6814610148578063a22cb4651461015b578063e985e9c51461016e578063f242432a146101815761009d565b8062fdd58e146100a257806301ffc9a7146100cb5780630e89341c146100eb57806317d70f7c1461010b5780632eb2c2d614610113575b600080fd5b6100b56100b0366004611267565b610194565b6040516100c29190611430565b60405180910390f35b6100de6100d936600461134e565b610203565b6040516100c291906113d2565b6100fe6100f9366004611376565b610226565b6040516100c291906113dd565b6100b56102be565b610126610121366004611124565b6102c4565b005b61013b610136366004611290565b6105c2565b6040516100c2919061138e565b610126610156366004611376565b6106ae565b61012661016936600461122d565b6106e2565b6100de61017c3660046110f2565b6107d1565b61012661018f3660046111ca565b6107ff565b60006001600160a01b0383166101db5760405162461bcd60e51b815260040180806020018281038252602b815260200180611583602b913960400191505060405180910390fd5b5060009081526065602090815260408083206001600160a01b03949094168352929052205490565b6001600160e01b0319811660009081526033602052604090205460ff165b919050565b60678054604080516020601f60026000196101006001881615020190951694909404938401819004810282018101909252828152606093909290918301828280156102b25780601f10610287576101008083540402835291602001916102b2565b820191906000526020600020905b81548152906001019060200180831161029557829003601f168201915b50505050509050919050565b60975481565b81518351146103045760405162461bcd60e51b81526004018080602001828103825260288152602001806116aa6028913960400191505060405180910390fd5b6001600160a01b0384166103495760405162461bcd60e51b81526004018080602001828103825260258152602001806115d76025913960400191505060405180910390fd5b6103516109ca565b6001600160a01b0316856001600160a01b0316148061037757506103778561017c6109ca565b6103b25760405162461bcd60e51b81526004018080602001828103825260328152602001806115fc6032913960400191505060405180910390fd5b60006103bc6109ca565b90506103cc8187878787876105ba565b60005b84518110156104d25760008582815181106103e657fe5b6020026020010151905060008583815181106103fe57fe5b6020026020010151905061046b816040518060600160405280602a815260200161162e602a91396065600086815260200190815260200160002060008d6001600160a01b03166001600160a01b03168152602001908152602001600020546109cf9092919063ffffffff16565b60008381526065602090815260408083206001600160a01b038e811685529252808320939093558a16815220546104a29082610a66565b60009283526065602090815260408085206001600160a01b038c16865290915290922091909155506001016103cf565b50846001600160a01b0316866001600160a01b0316826001600160a01b03167f4a39dc06d4c0dbc64b70af90fd698a233a518aa5d07e595d983b8c0526c8f7fb8787604051808060200180602001838103835285818151815260200191508051906020019060200280838360005b83811015610558578181015183820152602001610540565b50505050905001838103825284818151815260200191508051906020019060200280838360005b8381101561059757818101518382015260200161057f565b5050505090500194505050505060405180910390a46105ba818787878787610ac7565b505050505050565b606081518351146106045760405162461bcd60e51b81526004018080602001828103825260298152602001806116816029913960400191505060405180910390fd5b6000835167ffffffffffffffff8111801561061e57600080fd5b50604051908082528060200260200182016040528015610648578160200160208202803683370190505b50905060005b84518110156106a65761068785828151811061066657fe5b602002602001015185838151811061067a57fe5b6020026020010151610194565b82828151811061069357fe5b602090810291909101015260010161064e565b509392505050565b6097805460010190819055604080518082019091526002815261060f60f31b60208201526106df9133918490610d46565b50565b816001600160a01b03166106f46109ca565b6001600160a01b0316141561073a5760405162461bcd60e51b81526004018080602001828103825260298152602001806116586029913960400191505060405180910390fd5b80606660006107476109ca565b6001600160a01b03908116825260208083019390935260409182016000908120918716808252919093529120805460ff19169215159290921790915561078b6109ca565b6001600160a01b03167f17307eab39ab6107e8899845ad3d59bd9653f200f220920489ca2b5937696c318360405180821515815260200191505060405180910390a35050565b6001600160a01b03918216600090815260666020908152604080832093909416825291909152205460ff1690565b6001600160a01b0384166108445760405162461bcd60e51b81526004018080602001828103825260258152602001806115d76025913960400191505060405180910390fd5b61084c6109ca565b6001600160a01b0316856001600160a01b0316148061087257506108728561017c6109ca565b6108ad5760405162461bcd60e51b81526004018080602001828103825260298152602001806115ae6029913960400191505060405180910390fd5b60006108b76109ca565b90506108d78187876108c888610e4e565b6108d188610e4e565b876105ba565b61091e836040518060600160405280602a815260200161162e602a913960008781526065602090815260408083206001600160a01b038d16845290915290205491906109cf565b60008581526065602090815260408083206001600160a01b038b811685529252808320939093558716815220546109559084610a66565b60008581526065602090815260408083206001600160a01b03808b168086529184529382902094909455805188815291820187905280518a8416938616927fc3d58168c5ae7397731d063d5bbf3d657854427343f4c083240f7aacaa2d0f6292908290030190a46105ba818787878787610e93565b335b90565b60008184841115610a5e5760405162461bcd60e51b81526004018080602001828103825283818151815260200191508051906020019080838360005b83811015610a23578181015183820152602001610a0b565b50505050905090810190601f168015610a505780820380516001836020036101000a031916815260200191505b509250505060405180910390fd5b505050900390565b600082820183811015610ac0576040805162461bcd60e51b815260206004820152601b60248201527f536166654d6174683a206164646974696f6e206f766572666c6f770000000000604482015290519081900360640190fd5b9392505050565b610ad9846001600160a01b0316611004565b156105ba57836001600160a01b031663bc197c8187878686866040518663ffffffff1660e01b815260040180866001600160a01b03168152602001856001600160a01b03168152602001806020018060200180602001848103845287818151815260200191508051906020019060200280838360005b83811015610b67578181015183820152602001610b4f565b50505050905001848103835286818151815260200191508051906020019060200280838360005b83811015610ba6578181015183820152602001610b8e565b50505050905001848103825285818151815260200191508051906020019080838360005b83811015610be2578181015183820152602001610bca565b50505050905090810190601f168015610c0f5780820380516001836020036101000a031916815260200191505b5098505050505050505050602060405180830381600087803b158015610c3457600080fd5b505af1925050508015610c5957506040513d6020811015610c5457600080fd5b505160015b610cee57610c65611481565b80610c705750610cb7565b60405162461bcd60e51b8152602060048201818152835160248401528351849391928392604401919085019080838360008315610a23578181015183820152602001610a0b565b60405162461bcd60e51b81526004018080602001828103825260348152602001806115276034913960400191505060405180910390fd5b6001600160e01b0319811663bc197c8160e01b14610d3d5760405162461bcd60e51b815260040180806020018281038252602881526020018061155b6028913960400191505060405180910390fd5b50505050505050565b6001600160a01b038416610d8b5760405162461bcd60e51b81526004018080602001828103825260218152602001806116d26021913960400191505060405180910390fd5b6000610d956109ca565b9050610da7816000876108c888610e4e565b60008481526065602090815260408083206001600160a01b0389168452909152902054610dd49084610a66565b60008581526065602090815260408083206001600160a01b03808b16808652918452828520959095558151898152928301889052815190948616927fc3d58168c5ae7397731d063d5bbf3d657854427343f4c083240f7aacaa2d0f6292908290030190a4610e4781600087878787610e93565b5050505050565b60408051600180825281830190925260609160009190602080830190803683370190505090508281600081518110610e8257fe5b602090810291909101015292915050565b610ea5846001600160a01b0316611004565b156105ba57836001600160a01b031663f23a6e6187878686866040518663ffffffff1660e01b815260040180866001600160a01b03168152602001856001600160a01b0316815260200184815260200183815260200180602001828103825283818151815260200191508051906020019080838360005b83811015610f34578181015183820152602001610f1c565b50505050905090810190601f168015610f615780820380516001836020036101000a031916815260200191505b509650505050505050602060405180830381600087803b158015610f8457600080fd5b505af1925050508015610fa957506040513d6020811015610fa457600080fd5b505160015b610fb557610c65611481565b6001600160e01b0319811663f23a6e6160e01b14610d3d5760405162461bcd60e51b815260040180806020018281038252602881526020018061155b6028913960400191505060405180910390fd5b3b151590565b80356001600160a01b038116811461022157600080fd5b600082601f830112611031578081fd5b813560206110466110418361145d565b611439565b8281528181019085830183850287018401881015611062578586fd5b855b8581101561108057813584529284019290840190600101611064565b5090979650505050505050565b600082601f83011261109d578081fd5b813567ffffffffffffffff8111156110b157fe5b6110c4601f8201601f1916602001611439565b8181528460208386010111156110d8578283fd5b816020850160208301379081016020019190915292915050565b60008060408385031215611104578182fd5b61110d8361100a565b915061111b6020840161100a565b90509250929050565b600080600080600060a0868803121561113b578081fd5b6111448661100a565b94506111526020870161100a565b9350604086013567ffffffffffffffff8082111561116e578283fd5b61117a89838a01611021565b9450606088013591508082111561118f578283fd5b61119b89838a01611021565b935060808801359150808211156111b0578283fd5b506111bd8882890161108d565b9150509295509295909350565b600080600080600060a086880312156111e1578081fd5b6111ea8661100a565b94506111f86020870161100a565b93506040860135925060608601359150608086013567ffffffffffffffff811115611221578182fd5b6111bd8882890161108d565b6000806040838503121561123f578182fd5b6112488361100a565b91506020830135801515811461125c578182fd5b809150509250929050565b60008060408385031215611279578182fd5b6112828361100a565b946020939093013593505050565b600080604083850312156112a2578182fd5b823567ffffffffffffffff808211156112b9578384fd5b818501915085601f8301126112cc578384fd5b813560206112dc6110418361145d565b82815281810190858301838502870184018b10156112f8578889fd5b8896505b848710156113215761130d8161100a565b8352600196909601959183019183016112fc565b5096505086013592505080821115611337578283fd5b5061134485828601611021565b9150509250929050565b60006020828403121561135f578081fd5b81356001600160e01b031981168114610ac0578182fd5b600060208284031215611387578081fd5b5035919050565b6020808252825182820181905260009190848201906040850190845b818110156113c6578351835292840192918401916001016113aa565b50909695505050505050565b901515815260200190565b6000602080835283518082850152825b81811015611409578581018301518582016040015282016113ed565b8181111561141a5783604083870101525b50601f01601f1916929092016040019392505050565b90815260200190565b60405181810167ffffffffffffffff8111828210171561145557fe5b604052919050565b600067ffffffffffffffff82111561147157fe5b5060209081020190565b60e01c90565b600060443d1015611491576109cc565b600481823e6308c379a06114a5825161147b565b146114af576109cc565b6040513d600319016004823e80513d67ffffffffffffffff81602484011181841117156114df57505050506109cc565b828401925082519150808211156114f957505050506109cc565b503d83016020828401011115611511575050506109cc565b601f01601f191681016020016040529150509056fe455243313135353a207472616e7366657220746f206e6f6e2045524331313535526563656976657220696d706c656d656e746572455243313135353a204552433131353552656365697665722072656a656374656420746f6b656e73455243313135353a2062616c616e636520717565727920666f7220746865207a65726f2061646472657373455243313135353a2063616c6c6572206973206e6f74206f776e6572206e6f7220617070726f766564455243313135353a207472616e7366657220746f20746865207a65726f2061646472657373455243313135353a207472616e736665722063616c6c6572206973206e6f74206f776e6572206e6f7220617070726f766564455243313135353a20696e73756666696369656e742062616c616e636520666f72207472616e73666572455243313135353a2073657474696e6720617070726f76616c2073746174757320666f722073656c66455243313135353a206163636f756e747320616e6420696473206c656e677468206d69736d61746368455243313135353a2069647320616e6420616d6f756e7473206c656e677468206d69736d61746368455243313135353a206d696e7420746f20746865207a65726f2061646472657373a2646970667358221220cd38f4b2ba5c7d9c4009cb4696387b442f2fbfffef92805eb346d776f4719bd264736f6c63430007060033",
  "linkReferences": {},
  "deployedLinkReferences": {}
}