{
  "_format": "hh-sol-artifact-1",
  "contractName": "NFTFactory",
  "sourceName": "contracts/NFTFactory.sol",
  "abi": [
    {
      "inputs": [
        {
          "internalType": "address",
          "name": "_vrfCoordinator",
          "type": "address"
        },
        {
          "internalType": "address",
          "name": "_link",
          "type": "address"
        },
        {
          "internalType": "bytes32",
          "name": "_keyHash",
          "type": "bytes32"
        },
        {
          "internalType": "uint256",
          "name": "_fee",
          "type": "uint256"
        },
        {
          "internalType": "address",
          "name": "_nftWithoutPresaleWithoutRandomInstant",
          "type": "address"
        },
        {
          "internalType": "address",
          "name": "_nftWithPresaleWithoutRandomInstant",
          "type": "address"
        },
        {
          "internalType": "address",
          "name": "_nftWithoutPresaleWithRandomDelayed",
          "type": "address"
        },
        {
          "internalType": "address",
          "name": "_nftWithPresaleWithRandomDelayed",
          "type": "address"
        }
      ],
      "stateMutability": "nonpayable",
      "type": "constructor"
    },
    {
      "anonymous": false,
      "inputs": [
        {
          "indexed": false,
          "internalType": "address",
          "name": "approver",
          "type": "address"
        },
        {
          "indexed": false,
          "internalType": "address",
          "name": "nftDrop",
          "type": "address"
        }
      ],
      "name": "Approved",
      "type": "event"
    },
    {
      "anonymous": false,
      "inputs": [
        {
          "indexed": false,
          "internalType": "address",
          "name": "previousImpl",
          "type": "address"
        },
        {
          "indexed": false,
          "internalType": "address",
          "name": "newImpl",
          "type": "address"
        },
        {
          "indexed": false,
          "internalType": "uint256",
          "name": "typeId",
          "type": "uint256"
        }
      ],
      "name": "ImplementationUpdated",
      "type": "event"
    },
    {
      "anonymous": false,
      "inputs": [
        {
          "indexed": true,
          "internalType": "address",
          "name": "previousOwner",
          "type": "address"
        },
        {
          "indexed": true,
          "internalType": "address",
          "name": "newOwner",
          "type": "address"
        }
      ],
      "name": "OwnershipTransferred",
      "type": "event"
    },
    {
      "anonymous": false,
      "inputs": [
        {
          "indexed": false,
          "internalType": "address",
          "name": "clone",
          "type": "address"
        },
        {
          "indexed": false,
          "internalType": "string",
          "name": "saleID",
          "type": "string"
        }
      ],
      "name": "SaleCreated",
      "type": "event"
    },
    {
      "anonymous": false,
      "inputs": [
        {
          "indexed": true,
          "internalType": "address",
          "name": "nftDrop",
          "type": "address"
        },
        {
          "indexed": false,
          "internalType": "address",
          "name": "feeWallet",
          "type": "address"
        },
        {
          "indexed": false,
          "internalType": "uint256",
          "name": "fee",
          "type": "uint256"
        }
      ],
      "name": "SetDropFee",
      "type": "event"
    },
    {
      "inputs": [
        {
          "internalType": "string",
          "name": "_name",
          "type": "string"
        },
        {
          "internalType": "string",
          "name": "_symbol",
          "type": "string"
        },
        {
          "internalType": "string",
          "name": "_saleCreator",
          "type": "string"
        },
        {
          "internalType": "string",
          "name": "_baseUri",
          "type": "string"
        },
        {
          "internalType": "uint256",
          "name": "_maxSupply",
          "type": "uint256"
        },
        {
          "internalType": "string",
          "name": "_saleId",
          "type": "string"
        },
        {
          "components": [
            {
              "internalType": "uint256",
              "name": "_preSaleMintCost",
              "type": "uint256"
            },
            {
              "internalType": "uint256",
              "name": "_preSaleStartTime",
              "type": "uint256"
            },
            {
              "internalType": "uint256",
              "name": "_preSaleDuration",
              "type": "uint256"
            },
            {
              "internalType": "uint256",
              "name": "_maxTokenPerMintPreSale",
              "type": "uint256"
            },
            {
              "internalType": "uint256",
              "name": "_limitSupplyInPreSale",
              "type": "uint256"
            }
          ],
          "internalType": "struct BaseNFTWithPresale.preSaleConfig",
          "name": "_preSaleConfig",
          "type": "tuple"
        },
        {
          "components": [
            {
              "internalType": "uint256",
              "name": "_publicSaleMintCost",
              "type": "uint256"
            },
            {
              "internalType": "uint256",
              "name": "_publicSaleBufferDuration",
              "type": "uint256"
            },
            {
              "internalType": "uint256",
              "name": "_publicSaleDuration",
              "type": "uint256"
            },
            {
              "internalType": "uint256",
              "name": "_maxTokenPerMintPublicSale",
              "type": "uint256"
            },
            {
              "internalType": "uint256",
              "name": "_maxTokenPerPersonPublicSale",
              "type": "uint256"
            }
          ],
          "internalType": "struct BaseNFTWithPresale.publicSaleConfig",
          "name": "_publicSaleConfig",
          "type": "tuple"
        },
        {
          "internalType": "address",
          "name": "_signerAddress",
          "type": "address"
        }
      ],
      "name": "deployNFTWithPresaleWithRandomdelayed",
      "outputs": [],
      "stateMutability": "nonpayable",
      "type": "function"
    },
    {
      "inputs": [
        {
          "internalType": "string",
          "name": "_name",
          "type": "string"
        },
        {
          "internalType": "string",
          "name": "_symbol",
          "type": "string"
        },
        {
          "internalType": "string",
          "name": "_saleCreator",
          "type": "string"
        },
        {
          "internalType": "string",
          "name": "_presaleBaseUri",
          "type": "string"
        },
        {
          "internalType": "uint256",
          "name": "_maxSupply",
          "type": "uint256"
        },
        {
          "internalType": "string",
          "name": "_saleId",
          "type": "string"
        },
        {
          "components": [
            {
              "internalType": "uint256",
              "name": "_preSaleMintCost",
              "type": "uint256"
            },
            {
              "internalType": "uint256",
              "name": "_preSaleStartTime",
              "type": "uint256"
            },
            {
              "internalType": "uint256",
              "name": "_preSaleDuration",
              "type": "uint256"
            },
            {
              "internalType": "uint256",
              "name": "_maxTokenPerMintPreSale",
              "type": "uint256"
            },
            {
              "internalType": "uint256",
              "name": "_limitSupplyInPreSale",
              "type": "uint256"
            }
          ],
          "internalType": "struct BaseNFTWithPresale.preSaleConfig",
          "name": "_preSaleConfig",
          "type": "tuple"
        },
        {
          "components": [
            {
              "internalType": "uint256",
              "name": "_publicSaleMintCost",
              "type": "uint256"
            },
            {
              "internalType": "uint256",
              "name": "_publicSaleBufferDuration",
              "type": "uint256"
            },
            {
              "internalType": "uint256",
              "name": "_publicSaleDuration",
              "type": "uint256"
            },
            {
              "internalType": "uint256",
              "name": "_maxTokenPerMintPublicSale",
              "type": "uint256"
            },
            {
              "internalType": "uint256",
              "name": "_maxTokenPerPersonPublicSale",
              "type": "uint256"
            }
          ],
          "internalType": "struct BaseNFTWithPresale.publicSaleConfig",
          "name": "_publicSaleConfig",
          "type": "tuple"
        },
        {
          "internalType": "address",
          "name": "_signerAddress",
          "type": "address"
        }
      ],
      "name": "deployNFTWithPresaleWithoutRandomInstant",
      "outputs": [],
      "stateMutability": "nonpayable",
      "type": "function"
    },
    {
      "inputs": [
        {
          "internalType": "string",
          "name": "_name",
          "type": "string"
        },
        {
          "internalType": "string",
          "name": "_symbol",
          "type": "string"
        },
        {
          "internalType": "string",
          "name": "_saleCreator",
          "type": "string"
        },
        {
          "internalType": "string",
          "name": "_baseUri",
          "type": "string"
        },
        {
          "internalType": "uint256",
          "name": "_maxSupply",
          "type": "uint256"
        },
        {
          "internalType": "string",
          "name": "_saleId",
          "type": "string"
        },
        {
          "components": [
            {
              "internalType": "uint256",
              "name": "_publicSaleMintCost",
              "type": "uint256"
            },
            {
              "internalType": "uint256",
              "name": "_publicSaleStartTime",
              "type": "uint256"
            },
            {
              "internalType": "uint256",
              "name": "_publicSaleDuration",
              "type": "uint256"
            },
            {
              "internalType": "uint256",
              "name": "_maxTokenPerMintPublicSale",
              "type": "uint256"
            },
            {
              "internalType": "uint256",
              "name": "_maxTokenPerPersonPublicSale",
              "type": "uint256"
            }
          ],
          "internalType": "struct BaseNFTWithoutPresale.publicSaleConfig",
          "name": "_publicSaleConfig",
          "type": "tuple"
        },
        {
          "internalType": "address",
          "name": "_signerAddress",
          "type": "address"
        }
      ],
      "name": "deployNFTWithoutPresaleWithRandomdelayed",
      "outputs": [],
      "stateMutability": "nonpayable",
      "type": "function"
    },
    {
      "inputs": [
        {
          "internalType": "string",
          "name": "_name",
          "type": "string"
        },
        {
          "internalType": "string",
          "name": "_symbol",
          "type": "string"
        },
        {
          "internalType": "string",
          "name": "_saleCreator",
          "type": "string"
        },
        {
          "internalType": "string",
          "name": "_presaleBaseUri",
          "type": "string"
        },
        {
          "internalType": "uint256",
          "name": "_maxSupply",
          "type": "uint256"
        },
        {
          "internalType": "string",
          "name": "_saleId",
          "type": "string"
        },
        {
          "components": [
            {
              "internalType": "uint256",
              "name": "_publicSaleMintCost",
              "type": "uint256"
            },
            {
              "internalType": "uint256",
              "name": "_publicSaleStartTime",
              "type": "uint256"
            },
            {
              "internalType": "uint256",
              "name": "_publicSaleDuration",
              "type": "uint256"
            },
            {
              "internalType": "uint256",
              "name": "_maxTokenPerMintPublicSale",
              "type": "uint256"
            },
            {
              "internalType": "uint256",
              "name": "_maxTokenPerPersonPublicSale",
              "type": "uint256"
            }
          ],
          "internalType": "struct BaseNFTWithoutPresale.publicSaleConfig",
          "name": "_publicSaleConfig",
          "type": "tuple"
        },
        {
          "internalType": "address",
          "name": "_signerAddress",
          "type": "address"
        }
      ],
      "name": "deployNFTWithoutPresaleWithoutRandomInstant",
      "outputs": [],
      "stateMutability": "nonpayable",
      "type": "function"
    },
    {
      "inputs": [
        {
          "internalType": "address",
          "name": "",
          "type": "address"
        }
      ],
      "name": "isDropDeployed",
      "outputs": [
        {
          "internalType": "bool",
          "name": "",
          "type": "bool"
        }
      ],
      "stateMutability": "view",
      "type": "function"
    },
    {
      "inputs": [
        {
          "internalType": "address",
          "name": "",
          "type": "address"
        }
      ],
      "name": "isDropFeeSet",
      "outputs": [
        {
          "internalType": "bool",
          "name": "",
          "type": "bool"
        }
      ],
      "stateMutability": "view",
      "type": "function"
    },
    {
      "inputs": [
        {
          "internalType": "string",
          "name": "",
          "type": "string"
        }
      ],
      "name": "isSaleidExists",
      "outputs": [
        {
          "internalType": "bool",
          "name": "",
          "type": "bool"
        }
      ],
      "stateMutability": "view",
      "type": "function"
    },
    {
      "inputs": [],
      "name": "owner",
      "outputs": [
        {
          "internalType": "address",
          "name": "",
          "type": "address"
        }
      ],
      "stateMutability": "view",
      "type": "function"
    },
    {
      "inputs": [],
      "name": "renounceOwnership",
      "outputs": [],
      "stateMutability": "nonpayable",
      "type": "function"
    },
    {
      "inputs": [
        {
          "internalType": "address",
          "name": "_nftDrop",
          "type": "address"
        }
      ],
      "name": "setApproval",
      "outputs": [],
      "stateMutability": "nonpayable",
      "type": "function"
    },
    {
      "inputs": [
        {
          "internalType": "address",
          "name": "_nftDrop",
          "type": "address"
        },
        {
          "internalType": "address",
          "name": "_feeWallet",
          "type": "address"
        },
        {
          "internalType": "uint256",
          "name": "_fee",
          "type": "uint256"
        }
      ],
      "name": "setDropFee",
      "outputs": [],
      "stateMutability": "nonpayable",
      "type": "function"
    },
    {
      "inputs": [
        {
          "internalType": "uint256",
          "name": "_fee",
          "type": "uint256"
        }
      ],
      "name": "setFee",
      "outputs": [],
      "stateMutability": "nonpayable",
      "type": "function"
    },
    {
      "inputs": [
        {
          "internalType": "bytes32",
          "name": "_keyHash",
          "type": "bytes32"
        }
      ],
      "name": "setKeyHash",
      "outputs": [],
      "stateMutability": "nonpayable",
      "type": "function"
    },
    {
      "inputs": [
        {
          "internalType": "address",
          "name": "_link",
          "type": "address"
        }
      ],
      "name": "setLinkTokenAddress",
      "outputs": [],
      "stateMutability": "nonpayable",
      "type": "function"
    },
    {
      "inputs": [
        {
          "internalType": "uint256",
          "name": "_version",
          "type": "uint256"
        }
      ],
      "name": "setVersion",
      "outputs": [],
      "stateMutability": "nonpayable",
      "type": "function"
    },
    {
      "inputs": [
        {
          "internalType": "address",
          "name": "_vrfCoordinator",
          "type": "address"
        }
      ],
      "name": "setVrfCoordinator",
      "outputs": [],
      "stateMutability": "nonpayable",
      "type": "function"
    },
    {
      "inputs": [
        {
          "internalType": "address",
          "name": "newOwner",
          "type": "address"
        }
      ],
      "name": "transferOwnership",
      "outputs": [],
      "stateMutability": "nonpayable",
      "type": "function"
    },
    {
      "inputs": [
        {
          "internalType": "address",
          "name": "newImpl",
          "type": "address"
        },
        {
          "internalType": "uint256",
          "name": "typeId",
          "type": "uint256"
        }
      ],
      "name": "updateImplementation",
      "outputs": [],
      "stateMutability": "nonpayable",
      "type": "function"
    },
    {
      "inputs": [],
      "name": "version",
      "outputs": [
        {
          "internalType": "uint256",
          "name": "",
          "type": "uint256"
        }
      ],
      "stateMutability": "view",
      "type": "function"
    }
  ],
  "bytecode": "0x6080604052600180553480156200001557600080fd5b5060405162001d8338038062001d83833981016040819052620000389162000176565b620000433362000109565b6001600160a01b0388166200008c5760405162461bcd60e51b815260206004820152600b60248201526a24b73b30b634b2102b292360a91b604482015260640160405180910390fd5b600280546001600160a01b03199081166001600160a01b0396871617909155600380548216948616949094179093556004805484169285169290921790915560058054831691841691909117905560098054821696831696909617909555600a8054909516931692909217909255600b91909155600c556200020c565b600080546001600160a01b038381166001600160a01b0319831681178455604051919092169283917f8be0079c531659141344cd1fd0a4f28419497f9722a3daafe3b4186f6b6457e09190a35050565b80516001600160a01b03811681146200017157600080fd5b919050565b600080600080600080600080610100898b0312156200019457600080fd5b6200019f8962000159565b9750620001af60208a0162000159565b96506040890151955060608901519450620001cd60808a0162000159565b9350620001dd60a08a0162000159565b9250620001ed60c08a0162000159565b9150620001fd60e08a0162000159565b90509295985092959890939650565b611b67806200021c6000396000f3fe608060405234801561001057600080fd5b50600436106101205760003560e01c806385a9a8b9116100ad578063a68c52f511610071578063a68c52f514610282578063c36805b414610295578063e6c681c3146102a8578063f0ce190d146102bb578063f2fde38b146102ce57600080fd5b806385a9a8b91461020b5780638c424f091461022e5780638da5cb5b1461024157806390ccbff11461025c578063985447101461026f57600080fd5b80635d8501db116100f45780635d8501db146101a757806369fe0e2d146101ba5780636d639f7c146101cd578063715018a6146101e0578063815d8d4d146101e857600080fd5b8062211da81461012557806317210df71461013a578063408def1e1461017d57806354fd4d5014610190575b600080fd5b61013861013336600461132c565b6102e1565b005b61016861014836600461143d565b805160208183018101805160068252928201919093012091525460ff1681565b60405190151581526020015b60405180910390f35b61013861018b36600461147a565b610518565b61019960015481565b604051908152602001610174565b6101386101b5366004611493565b610525565b6101386101c836600461147a565b61074a565b6101386101db366004611592565b610757565b610138610959565b6101686101f63660046115bc565b60076020526000908152604090205460ff1681565b6101686102193660046115bc565b60086020526000908152604090205460ff1681565b61013861023c3660046115bc565b61096d565b6000546040516001600160a01b039091168152602001610174565b61013861026a366004611493565b6109db565b61013861027d36600461147a565b610ae3565b6101386102903660046115de565b610af0565b6101386102a33660046115bc565b610d5f565b6101386102b63660046115bc565b610dce565b6101386102c936600461132c565b610f32565b6101386102dc3660046115bc565b611042565b6006846040516102f1919061163e565b9081526040519081900360200190205460ff161561032a5760405162461bcd60e51b81526004016103219061165a565b60405180910390fd5b826020015160000361037e5760405162461bcd60e51b815260206004820152601a60248201527f696e76616c69642070726573616c652073746172742074696d650000000000006044820152606401610321565b600354600090610396906001600160a01b03166110bb565b90506000886040516020016103ab9190611682565b60408051601f1981840301815290829052630a40845d60e21b825291506001600160a01b038316906329021174906103f7908e908e9086908e908e908e908e908e908e9060040161172a565b600060405180830381600087803b15801561041157600080fd5b505af1158015610425573d6000803e3d6000fd5b505060405163f2fde38b60e01b81523360048201526001600160a01b038516925063f2fde38b9150602401600060405180830381600087803b15801561046a57600080fd5b505af115801561047e573d6000803e3d6000fd5b505050506001600687604051610494919061163e565b908152604080519182900360209081018320805494151560ff199586161790556001600160a01b038616600090815260089091522080549092166001179091557f2b10873616d4b55d2a5418dcf94a85c08ad52de38481c217ddd672c9aeb60f6c9061050390849089906117d2565b60405180910390a15050505050505050505050565b610520611158565b600155565b600683604051610535919061163e565b9081526040519081900360200190205460ff16156105655760405162461bcd60e51b81526004016103219061165a565b81602001516000036105b35760405162461bcd60e51b8152602060048201526017602482015276696e76616c69642073616c652073746172742074696d6560481b6044820152606401610321565b6002546000906105cb906001600160a01b03166110bb565b90506000876040516020016105e091906117f6565b60408051601f198184030181529082905263662f5c7f60e01b825291506001600160a01b0383169063662f5c7f9061062a908d908d9086908d908d908d908d908d90600401611845565b600060405180830381600087803b15801561064457600080fd5b505af1158015610658573d6000803e3d6000fd5b505060405163f2fde38b60e01b81523360048201526001600160a01b038516925063f2fde38b9150602401600060405180830381600087803b15801561069d57600080fd5b505af11580156106b1573d6000803e3d6000fd5b5050505060016006866040516106c7919061163e565b908152604080519182900360209081018320805494151560ff199586161790556001600160a01b038616600090815260089091522080549092166001179091557f2b10873616d4b55d2a5418dcf94a85c08ad52de38481c217ddd672c9aeb60f6c9061073690849088906117d2565b60405180910390a150505050505050505050565b610752611158565b600c55565b61075f611158565b60006001600160a01b0383166107ad5760405162461bcd60e51b8152602060048201526013602482015272696e76616c6964206e6577206164647265737360681b6044820152606401610321565b8160000361080557506002546001600160a01b0390811690831681036107e55760405162461bcd60e51b8152600401610321906118de565b600280546001600160a01b0319166001600160a01b038516179055610909565b8160010361085d57506003546001600160a01b03908116908316810361083d5760405162461bcd60e51b8152600401610321906118de565b600380546001600160a01b0319166001600160a01b038516179055610909565b816002036108b557506004546001600160a01b0390811690831681036108955760405162461bcd60e51b8152600401610321906118de565b600480546001600160a01b0319166001600160a01b038516179055610909565b8160030361090957506005546001600160a01b0390811690831681036108ed5760405162461bcd60e51b8152600401610321906118de565b600580546001600160a01b0319166001600160a01b0385161790555b604080516001600160a01b038084168252851660208201529081018390527fbe444e048be48a02d3602a86d2210c4cfd09be329f36642c342d033ef98a50099060600160405180910390a1505050565b610961611158565b61096b60006111b2565b565b610975611158565b6001600160a01b0381166109b95760405162461bcd60e51b815260206004820152600b60248201526a24b73b30b634b2102b292360a91b6044820152606401610321565b600980546001600160a01b0319166001600160a01b0392909216919091179055565b6006836040516109eb919061163e565b9081526040519081900360200190205460ff1615610a1b5760405162461bcd60e51b81526004016103219061165a565b8160200151600003610a695760405162461bcd60e51b8152602060048201526017602482015276696e76616c69642073616c652073746172742074696d6560481b6044820152606401610321565b600454600090610a81906001600160a01b03166110bb565b9050600087604051602001610a96919061190b565b60408051601f19818403018152908290526311943f7f60e11b825291506001600160a01b038316906323287efe9061062a908d908d9086908d908d908d908d908d90600990600401611957565b610aeb611158565b600b55565b610af8611158565b6001600160a01b03831660009081526008602052604090205460ff16610b5b5760405162461bcd60e51b81526020600482015260186024820152771b999d08191c9bdc081a5cc81b9bdd0819195c1b1bde595960421b6044820152606401610321565b80600003610ba45760405162461bcd60e51b815260206004820152601660248201527506665652073686f756c64206265206e6f7420626520360541b6044820152606401610321565b6127108110610be15760405162461bcd60e51b815260206004820152600960248201526806665653c31303030360bc1b6044820152606401610321565b6001600160a01b038216610c2e5760405162461bcd60e51b815260206004820152601460248201527334b73b30b634b2103332b2903932b1b2b4bb32b960611b6044820152606401610321565b6001600160a01b03831660009081526007602052604090205460ff1615610c975760405162461bcd60e51b815260206004820152601760248201527f6665652064657461696c732073657420616c72656164790000000000000000006044820152606401610321565b60405163a7f4636760e01b8152600481018290526001600160a01b03838116602483015284169063a7f4636790604401600060405180830381600087803b158015610ce157600080fd5b505af1158015610cf5573d6000803e3d6000fd5b505050506001600160a01b03838116600081815260076020908152604091829020805460ff1916600117905581519386168452830184905290917fb16b0ea005bb28f1f3895ebad97d3f4b9ce7956bea2ed768d72e7ad86e66f5ce910160405180910390a2505050565b610d67611158565b6001600160a01b038116610dac5760405162461bcd60e51b815260206004820152600c60248201526b496e76616c6964204c696e6b60a01b6044820152606401610321565b600a80546001600160a01b0319166001600160a01b0392909216919091179055565b610dd6611158565b6001600160a01b03811660009081526008602052604090205460ff16610e395760405162461bcd60e51b81526020600482015260186024820152771b999d08191c9bdc081a5cc81b9bdd0819195c1b1bde595960421b6044820152606401610321565b6001600160a01b03811660009081526007602052604090205460ff16610e9a5760405162461bcd60e51b8152602060048201526016602482015275696e76616c696420617070726f76616c20737461676560501b6044820152606401610321565b806001600160a01b031663bacacaa06040518163ffffffff1660e01b8152600401600060405180830381600087803b158015610ed557600080fd5b505af1158015610ee9573d6000803e3d6000fd5b5050604080513381526001600160a01b03851660208201527faad2833c9fd7a3de33f301e5186ee84d1a5753ce32de6b97baedaac4b92b55fc935001905060405180910390a150565b600684604051610f42919061163e565b9081526040519081900360200190205460ff1615610f725760405162461bcd60e51b81526004016103219061165a565b8260200151600003610fc65760405162461bcd60e51b815260206004820152601a60248201527f696e76616c69642070726573616c652073746172742074696d650000000000006044820152606401610321565b600554600090610fde906001600160a01b03166110bb565b9050600088604051602001610ff39190611a1c565b60408051601f19818403018152908290526314c15d5560e11b825291506001600160a01b03831690632982baaa906103f7908e908e9086908e908e908e908e908e908e90600990600401611a5d565b61104a611158565b6001600160a01b0381166110af5760405162461bcd60e51b815260206004820152602660248201527f4f776e61626c653a206e6577206f776e657220697320746865207a65726f206160448201526564647265737360d01b6064820152608401610321565b6110b8816111b2565b50565b6000604051733d602d80600a3d3981f3363d3d373d3d3d363d7360601b81528260601b60148201526e5af43d82803e903d91602b57fd5bf360881b60288201526037816000f09150506001600160a01b0381166111535760405162461bcd60e51b8152602060048201526016602482015275115490cc4c4d8dce8818dc99585d194819985a5b195960521b6044820152606401610321565b919050565b6000546001600160a01b0316331461096b5760405162461bcd60e51b815260206004820181905260248201527f4f776e61626c653a2063616c6c6572206973206e6f7420746865206f776e65726044820152606401610321565b600080546001600160a01b038381166001600160a01b0319831681178455604051919092169283917f8be0079c531659141344cd1fd0a4f28419497f9722a3daafe3b4186f6b6457e09190a35050565b634e487b7160e01b600052604160045260246000fd5b600082601f83011261122957600080fd5b813567ffffffffffffffff8082111561124457611244611202565b604051601f8301601f19908116603f0116810190828211818310171561126c5761126c611202565b8160405283815286602085880101111561128557600080fd5b836020870160208301376000602085830101528094505050505092915050565b600060a082840312156112b757600080fd5b60405160a0810181811067ffffffffffffffff821117156112da576112da611202565b806040525080915082358152602083013560208201526040830135604082015260608301356060820152608083013560808201525092915050565b80356001600160a01b038116811461115357600080fd5b60008060008060008060008060006102208a8c03121561134b57600080fd5b893567ffffffffffffffff8082111561136357600080fd5b61136f8d838e01611218565b9a5060208c013591508082111561138557600080fd5b6113918d838e01611218565b995060408c01359150808211156113a757600080fd5b6113b38d838e01611218565b985060608c01359150808211156113c957600080fd5b6113d58d838e01611218565b975060808c0135965060a08c01359150808211156113f257600080fd5b506113ff8c828d01611218565b94505061140f8b60c08c016112a5565b925061141f8b6101608c016112a5565b915061142e6102008b01611315565b90509295985092959850929598565b60006020828403121561144f57600080fd5b813567ffffffffffffffff81111561146657600080fd5b61147284828501611218565b949350505050565b60006020828403121561148c57600080fd5b5035919050565b600080600080600080600080610180898b0312156114b057600080fd5b883567ffffffffffffffff808211156114c857600080fd5b6114d48c838d01611218565b995060208b01359150808211156114ea57600080fd5b6114f68c838d01611218565b985060408b013591508082111561150c57600080fd5b6115188c838d01611218565b975060608b013591508082111561152e57600080fd5b61153a8c838d01611218565b965060808b0135955060a08b013591508082111561155757600080fd5b506115648b828c01611218565b9350506115748a60c08b016112a5565b91506115836101608a01611315565b90509295985092959890939650565b600080604083850312156115a557600080fd5b6115ae83611315565b946020939093013593505050565b6000602082840312156115ce57600080fd5b6115d782611315565b9392505050565b6000806000606084860312156115f357600080fd5b6115fc84611315565b925061160a60208501611315565b9150604084013590509250925092565b60005b8381101561163557818101518382015260200161161d565b50506000910152565b6000825161165081846020870161161a565b9190910192915050565b6020808252600e908201526d73616c652069642065786973747360901b604082015260600190565b6000825161169481846020870161161a565b7f4e46545769746850726573616c65576974686f757452616e646f6d496e737461920191825250611b9d60f21b6020820152602201919050565b600081518084526116e681602086016020860161161a565b601f01601f19169290920160200192915050565b80518252602081015160208301526040810151604083015260608101516060830152608081015160808301525050565b600061022080835261173e8184018d6116ce565b90508281036020840152611752818c6116ce565b90508281036040840152611766818b6116ce565b9050828103606084015261177a818a6116ce565b905087608084015282810360a084015261179481886116ce565b9150506117a460c08301866116fa565b6117b26101608301856116fa565b6001600160a01b0392909216610200919091015298975050505050505050565b6001600160a01b0383168152604060208201819052600090611472908301846116ce565b6000825161180881846020870161161a565b7f4e4654576974686f757450726573616c65576974686f757452616e646f6d496e920191825250641cdd185b9d60da1b6020820152602501919050565b60006101808083526118598184018c6116ce565b9050828103602084015261186d818b6116ce565b90508281036040840152611881818a6116ce565b9050828103606084015261189581896116ce565b905086608084015282810360a08401526118af81876116ce565b9150506118bf60c08301856116fa565b6001600160a01b03929092166101609190910152979650505050505050565b60208082526013908201527239b0b6b29034b6b83632b6b2b73a30ba34b7b760691b604082015260600190565b6000825161191d81846020870161161a565b7f4e4654576974686f757450726573616c655769746852616e646f6d64656c617992019182525061195960f21b6020820152602201919050565b600061020080835261196b8184018d6116ce565b9050828103602084015261197f818c6116ce565b90508281036040840152611993818b6116ce565b905082810360608401526119a7818a6116ce565b905087608084015282810360a08401526119c181886116ce565b9150506119d160c08301866116fa565b6001600160a01b03848116610160840152835481166101808401526001840154166101a083015260028301546101c083015260038301546101e08301529a9950505050505050505050565b60008251611a2e81846020870161161a565b7f4e46545769746850726573616c655769746852616e646f6d64656c6179656400920191825250601f01919050565b60006102a0808352611a718184018e6116ce565b90508281036020840152611a85818d6116ce565b90508281036040840152611a99818c6116ce565b90508281036060840152611aad818b6116ce565b905088608084015282810360a0840152611ac781896116ce565b915050611ad760c08301876116fa565b611ae56101608301866116fa565b6001600160a01b0384811661020084015283548116610220840152600184015416610240830152600283015461026083015260038301546102808301529b9a505050505050505050505056fea26469706673582212207852053641b326fe0f7e30db2865696ad186955dd649d0d918505201ae73484e64736f6c63430008110033",
  "linkReferences": {},
  "deployedLinkReferences": {}
}